{"contracts/UpgradeableHYAXRewards.sol":{"UpgradeableHYAXRewards":{"abi":[{"inputs":[],"name":"AccessControlBadConfirmation","type":"error"},{"inputs":[{"internalType":"address","name":"account","type":"address"},{"internalType":"bytes32","name":"neededRole","type":"bytes32"}],"name":"AccessControlUnauthorizedAccount","type":"error"},{"inputs":[],"name":"EnforcedPause","type":"error"},{"inputs":[],"name":"ExpectedPause","type":"error"},{"inputs":[],"name":"InvalidInitialization","type":"error"},{"inputs":[],"name":"NotInitializing","type":"error"},{"inputs":[],"name":"ReentrancyGuardReentrantCall","type":"error"},{"anonymous":false,"inputs":[{"indexed":false,"internalType":"address","name":"_senderBlacklistStatusUpdated","type":"address"},{"indexed":false,"internalType":"address","name":"_walletAddressBlacklistStatusUpdated","type":"address"},{"indexed":false,"internalType":"bool","name":"_newStatusBlacklistStatusUpdated","type":"bool"}],"name":"BlacklistStatusUpdated","type":"event"},{"anonymous":false,"inputs":[{"indexed":false,"internalType":"enum UpgradeableHYAXRewards.FundingType","name":"_fundingTypeAdded","type":"uint8"},{"indexed":false,"internalType":"uint256","name":"_amountAdded","type":"uint256"}],"name":"FundingAdded","type":"event"},{"anonymous":false,"inputs":[{"indexed":false,"internalType":"address","name":"_walletAddressGrowthTokensWithdrawn","type":"address"},{"indexed":false,"internalType":"uint256","name":"_amountWithdrawn","type":"uint256"}],"name":"GrowthTokensWithdrawn","type":"event"},{"anonymous":false,"inputs":[{"indexed":false,"internalType":"address","name":"_hyaxTokenAddress","type":"address"}],"name":"HyaxTokenAddressUpdated","type":"event"},{"anonymous":false,"inputs":[{"indexed":false,"internalType":"uint64","name":"version","type":"uint64"}],"name":"Initialized","type":"event"},{"anonymous":false,"inputs":[{"indexed":false,"internalType":"uint8","name":"_maximumBatchSizeForUpdateRewards","type":"uint8"}],"name":"MaximumBatchSizeForUpdateRewardsUpdated","type":"event"},{"anonymous":false,"inputs":[{"indexed":false,"internalType":"address","name":"account","type":"address"}],"name":"Paused","type":"event"},{"anonymous":false,"inputs":[{"indexed":false,"internalType":"address","name":"_walletAddressRewardTokensWithdrawn","type":"address"},{"indexed":false,"internalType":"uint256","name":"_amountWithdrawn","type":"uint256"}],"name":"RewardTokensWithdrawn","type":"event"},{"anonymous":false,"inputs":[{"indexed":false,"internalType":"address","name":"_sender","type":"address"},{"indexed":false,"internalType":"address[]","name":"_walletAddresses","type":"address[]"},{"indexed":false,"internalType":"uint256[]","name":"_hyaxRewards","type":"uint256[]"}],"name":"RewardUpdateBatchSent","type":"event"},{"anonymous":false,"inputs":[{"indexed":false,"internalType":"address","name":"_sender","type":"address"},{"indexed":false,"internalType":"address","name":"_walletAddress","type":"address"},{"indexed":false,"internalType":"string","name":"_errorMessage","type":"string"}],"name":"RewardUpdateFailed","type":"event"},{"anonymous":false,"inputs":[{"indexed":false,"internalType":"address","name":"_sender","type":"address"},{"indexed":false,"internalType":"address","name":"_walletAddress","type":"address"},{"indexed":false,"internalType":"uint256","name":"_hyaxReward","type":"uint256"}],"name":"RewardUpdateSuccess","type":"event"},{"anonymous":false,"inputs":[{"indexed":false,"internalType":"address","name":"_newRewardsUpdaterAddress","type":"address"}],"name":"RewardsUpdaterAddressUpdated","type":"event"},{"anonymous":false,"inputs":[{"indexed":true,"internalType":"bytes32","name":"role","type":"bytes32"},{"indexed":true,"internalType":"bytes32","name":"previousAdminRole","type":"bytes32"},{"indexed":true,"internalType":"bytes32","name":"newAdminRole","type":"bytes32"}],"name":"RoleAdminChanged","type":"event"},{"anonymous":false,"inputs":[{"indexed":true,"internalType":"bytes32","name":"role","type":"bytes32"},{"indexed":true,"internalType":"address","name":"account","type":"address"},{"indexed":true,"internalType":"address","name":"sender","type":"address"}],"name":"RoleGranted","type":"event"},{"anonymous":false,"inputs":[{"indexed":true,"internalType":"bytes32","name":"role","type":"bytes32"},{"indexed":true,"internalType":"address","name":"account","type":"address"},{"indexed":true,"internalType":"address","name":"sender","type":"address"}],"name":"RoleRevoked","type":"event"},{"anonymous":false,"inputs":[{"indexed":false,"internalType":"address","name":"_oldTeamMemberWalletAddress","type":"address"},{"indexed":false,"internalType":"address","name":"_newTeamMemberWalletAddress","type":"address"},{"indexed":false,"internalType":"uint256","name":"_hyaxHoldingAmount","type":"uint256"}],"name":"TeamMemberWalletUpdated","type":"event"},{"anonymous":false,"inputs":[{"indexed":false,"internalType":"address","name":"_walletAddressTeamTokensWithdrawn","type":"address"},{"indexed":false,"internalType":"uint256","name":"_amountWithdrawn","type":"uint256"}],"name":"TeamTokensWithdrawn","type":"event"},{"anonymous":false,"inputs":[{"indexed":false,"internalType":"enum UpgradeableHYAXRewards.FundingType","name":"_fundingTypeWithdrawn","type":"uint8"},{"indexed":false,"internalType":"uint256","name":"_amount","type":"uint256"}],"name":"TokensToBurnWithdrawn","type":"event"},{"anonymous":false,"inputs":[{"indexed":false,"internalType":"address","name":"account","type":"address"}],"name":"Unpaused","type":"event"},{"anonymous":false,"inputs":[{"indexed":false,"internalType":"address","name":"_sender","type":"address"},{"indexed":false,"internalType":"address","name":"_walletAddress","type":"address"},{"indexed":false,"internalType":"bool","name":"_isTeamWallet","type":"bool"},{"indexed":false,"internalType":"uint256","name":"_hyaxHoldingAmount","type":"uint256"}],"name":"WalletAddedToWhitelist","type":"event"},{"anonymous":false,"inputs":[{"indexed":false,"internalType":"address","name":"_newWhiteListerAddress","type":"address"}],"name":"WhiteListerAddressUpdated","type":"event"},{"anonymous":false,"inputs":[{"indexed":false,"internalType":"address","name":"_senderWhitelistStatusUpdated","type":"address"},{"indexed":false,"internalType":"address","name":"_walletAddressWhitelistStatusUpdated","type":"address"},{"indexed":false,"internalType":"bool","name":"_newStatusWhitelistStatusUpdated","type":"bool"}],"name":"WhitelistStatusUpdated","type":"event"},{"inputs":[],"name":"DEFAULT_ADMIN_ROLE","outputs":[{"internalType":"bytes32","name":"","type":"bytes32"}],"stateMutability":"view","type":"function"},{"inputs":[],"name":"GROWTH_TOKENS_TOTAL","outputs":[{"internalType":"uint256","name":"","type":"uint256"}],"stateMutability":"view","type":"function"},{"inputs":[],"name":"GROWTH_TOKENS_WITHDRAWAL_PER_YEAR","outputs":[{"internalType":"uint256","name":"","type":"uint256"}],"stateMutability":"view","type":"function"},{"inputs":[],"name":"MIN_INTERVAL_FOR_UPDATE_REWARDS","outputs":[{"internalType":"uint256","name":"","type":"uint256"}],"stateMutability":"view","type":"function"},{"inputs":[],"name":"REWARDS_UPDATER_ROLE","outputs":[{"internalType":"bytes32","name":"","type":"bytes32"}],"stateMutability":"view","type":"function"},{"inputs":[],"name":"REWARD_TOKENS_PER_WEEK","outputs":[{"internalType":"uint256","name":"","type":"uint256"}],"stateMutability":"view","type":"function"},{"inputs":[],"name":"REWARD_TOKENS_PER_YEAR","outputs":[{"internalType":"uint256","name":"","type":"uint256"}],"stateMutability":"view","type":"function"},{"inputs":[],"name":"REWARD_TOKENS_TOTAL","outputs":[{"internalType":"uint256","name":"","type":"uint256"}],"stateMutability":"view","type":"function"},{"inputs":[],"name":"TEAM_TOKENS_LOCKED_PERIOD","outputs":[{"internalType":"uint256","name":"","type":"uint256"}],"stateMutability":"view","type":"function"},{"inputs":[],"name":"TEAM_TOKENS_TOTAL","outputs":[{"internalType":"uint256","name":"","type":"uint256"}],"stateMutability":"view","type":"function"},{"inputs":[],"name":"TEAM_TOKENS_WITHDRAWAL_PER_YEAR","outputs":[{"internalType":"uint256","name":"","type":"uint256"}],"stateMutability":"view","type":"function"},{"inputs":[],"name":"TOKENS_WITHDRAWAL_PERIOD","outputs":[{"internalType":"uint256","name":"","type":"uint256"}],"stateMutability":"view","type":"function"},{"inputs":[],"name":"WHITELISTER_ROLE","outputs":[{"internalType":"bytes32","name":"","type":"bytes32"}],"stateMutability":"view","type":"function"},{"inputs":[{"internalType":"address","name":"_walletAddress","type":"address"},{"internalType":"bool","name":"_isTeamWallet","type":"bool"},{"internalType":"uint256","name":"_hyaxHoldingAmountAtWhitelistTime","type":"uint256"}],"name":"addWalletToWhitelist","outputs":[],"stateMutability":"nonpayable","type":"function"},{"inputs":[],"name":"calculateYearForTeamTokens","outputs":[{"internalType":"uint8","name":"","type":"uint8"}],"stateMutability":"view","type":"function"},{"inputs":[{"internalType":"enum UpgradeableHYAXRewards.FundingType","name":"_fundingType","type":"uint8"},{"internalType":"uint256","name":"_amount","type":"uint256"}],"name":"fundSmartContract","outputs":[],"stateMutability":"nonpayable","type":"function"},{"inputs":[{"internalType":"bytes32","name":"role","type":"bytes32"}],"name":"getRoleAdmin","outputs":[{"internalType":"bytes32","name":"","type":"bytes32"}],"stateMutability":"view","type":"function"},{"inputs":[{"internalType":"bytes32","name":"role","type":"bytes32"},{"internalType":"uint256","name":"index","type":"uint256"}],"name":"getRoleMember","outputs":[{"internalType":"address","name":"","type":"address"}],"stateMutability":"view","type":"function"},{"inputs":[{"internalType":"bytes32","name":"role","type":"bytes32"}],"name":"getRoleMemberCount","outputs":[{"internalType":"uint256","name":"","type":"uint256"}],"stateMutability":"view","type":"function"},{"inputs":[{"internalType":"bytes32","name":"role","type":"bytes32"}],"name":"getRoleMembers","outputs":[{"internalType":"address[]","name":"","type":"address[]"}],"stateMutability":"view","type":"function"},{"inputs":[{"internalType":"bytes32","name":"role","type":"bytes32"},{"internalType":"address","name":"account","type":"address"}],"name":"grantRole","outputs":[],"stateMutability":"nonpayable","type":"function"},{"inputs":[],"name":"growthTokensFunded","outputs":[{"internalType":"uint256","name":"","type":"uint256"}],"stateMutability":"view","type":"function"},{"inputs":[],"name":"growthTokensFundingStarted","outputs":[{"internalType":"bool","name":"","type":"bool"}],"stateMutability":"view","type":"function"},{"inputs":[],"name":"growthTokensInSmartContract","outputs":[{"internalType":"uint256","name":"","type":"uint256"}],"stateMutability":"view","type":"function"},{"inputs":[],"name":"growthTokensLastWithdrawalTime","outputs":[{"internalType":"uint256","name":"","type":"uint256"}],"stateMutability":"view","type":"function"},{"inputs":[],"name":"growthTokensStartFundingTime","outputs":[{"internalType":"uint256","name":"","type":"uint256"}],"stateMutability":"view","type":"function"},{"inputs":[],"name":"growthTokensWithdrawn","outputs":[{"internalType":"uint256","name":"","type":"uint256"}],"stateMutability":"view","type":"function"},{"inputs":[{"internalType":"bytes32","name":"role","type":"bytes32"},{"internalType":"address","name":"account","type":"address"}],"name":"hasRole","outputs":[{"internalType":"bool","name":"","type":"bool"}],"stateMutability":"view","type":"function"},{"inputs":[],"name":"hyaxToken","outputs":[{"internalType":"contract IHyaxToken","name":"","type":"address"}],"stateMutability":"view","type":"function"},{"inputs":[],"name":"hyaxTokenAddress","outputs":[{"internalType":"address","name":"","type":"address"}],"stateMutability":"view","type":"function"},{"inputs":[{"internalType":"address","name":"_hyaxTokenAddress","type":"address"}],"name":"initialize","outputs":[],"stateMutability":"nonpayable","type":"function"},{"inputs":[],"name":"maximumBatchSizeForUpdateRewards","outputs":[{"internalType":"uint8","name":"","type":"uint8"}],"stateMutability":"view","type":"function"},{"inputs":[],"name":"owner","outputs":[{"internalType":"address","name":"","type":"address"}],"stateMutability":"view","type":"function"},{"inputs":[],"name":"pause","outputs":[],"stateMutability":"nonpayable","type":"function"},{"inputs":[],"name":"paused","outputs":[{"internalType":"bool","name":"","type":"bool"}],"stateMutability":"view","type":"function"},{"inputs":[{"internalType":"bytes32","name":"role","type":"bytes32"},{"internalType":"address","name":"callerConfirmation","type":"address"}],"name":"renounceRole","outputs":[],"stateMutability":"nonpayable","type":"function"},{"inputs":[{"internalType":"bytes32","name":"role","type":"bytes32"},{"internalType":"address","name":"account","type":"address"}],"name":"revokeRole","outputs":[],"stateMutability":"nonpayable","type":"function"},{"inputs":[],"name":"rewardTokensDistributed","outputs":[{"internalType":"uint256","name":"","type":"uint256"}],"stateMutability":"view","type":"function"},{"inputs":[],"name":"rewardTokensFunded","outputs":[{"internalType":"uint256","name":"","type":"uint256"}],"stateMutability":"view","type":"function"},{"inputs":[],"name":"rewardTokensFundingStarted","outputs":[{"internalType":"bool","name":"","type":"bool"}],"stateMutability":"view","type":"function"},{"inputs":[],"name":"rewardTokensInSmartContract","outputs":[{"internalType":"uint256","name":"","type":"uint256"}],"stateMutability":"view","type":"function"},{"inputs":[],"name":"rewardTokensStartFundingTime","outputs":[{"internalType":"uint256","name":"","type":"uint256"}],"stateMutability":"view","type":"function"},{"inputs":[],"name":"rewardTokensWithdrawn","outputs":[{"internalType":"uint256","name":"","type":"uint256"}],"stateMutability":"view","type":"function"},{"inputs":[],"name":"rewardsUpdaterAddress","outputs":[{"internalType":"address","name":"","type":"address"}],"stateMutability":"view","type":"function"},{"inputs":[{"internalType":"bytes4","name":"interfaceId","type":"bytes4"}],"name":"supportsInterface","outputs":[{"internalType":"bool","name":"","type":"bool"}],"stateMutability":"view","type":"function"},{"inputs":[],"name":"teamTokensFunded","outputs":[{"internalType":"uint256","name":"","type":"uint256"}],"stateMutability":"view","type":"function"},{"inputs":[],"name":"teamTokensFundingStarted","outputs":[{"internalType":"bool","name":"","type":"bool"}],"stateMutability":"view","type":"function"},{"inputs":[],"name":"teamTokensInSmartContract","outputs":[{"internalType":"uint256","name":"","type":"uint256"}],"stateMutability":"view","type":"function"},{"inputs":[],"name":"teamTokensStartFundingTime","outputs":[{"internalType":"uint256","name":"","type":"uint256"}],"stateMutability":"view","type":"function"},{"inputs":[],"name":"teamTokensWithdrawn","outputs":[{"internalType":"uint256","name":"","type":"uint256"}],"stateMutability":"view","type":"function"},{"inputs":[{"internalType":"address","name":"newOwner","type":"address"}],"name":"transferOwnership","outputs":[],"stateMutability":"nonpayable","type":"function"},{"inputs":[],"name":"unpause","outputs":[],"stateMutability":"nonpayable","type":"function"},{"inputs":[{"internalType":"address","name":"_walletAddress","type":"address"},{"internalType":"bool","name":"_newStatus","type":"bool"}],"name":"updateBlacklistStatus","outputs":[],"stateMutability":"nonpayable","type":"function"},{"inputs":[{"internalType":"address","name":"_hyaxTokenAddress","type":"address"}],"name":"updateHyaxTokenAddress","outputs":[],"stateMutability":"nonpayable","type":"function"},{"inputs":[{"internalType":"uint8","name":"_maximumBatchSizeForUpdateRewards","type":"uint8"}],"name":"updateMaximumBatchSizeForUpdateRewards","outputs":[],"stateMutability":"nonpayable","type":"function"},{"inputs":[{"internalType":"address[]","name":"_walletAddresses","type":"address[]"},{"internalType":"uint256[]","name":"_hyaxRewards","type":"uint256[]"}],"name":"updateRewardsBatch","outputs":[],"stateMutability":"nonpayable","type":"function"},{"inputs":[{"internalType":"address","name":"_walletAddress","type":"address"},{"internalType":"uint256","name":"_hyaxRewards","type":"uint256"}],"name":"updateRewardsSingle","outputs":[],"stateMutability":"nonpayable","type":"function"},{"inputs":[{"internalType":"address","name":"_rewardsUpdaterAddress","type":"address"}],"name":"updateRewardsUpdaterAddress","outputs":[],"stateMutability":"nonpayable","type":"function"},{"inputs":[{"internalType":"address","name":"_oldTeamMemberWalletAddress","type":"address"},{"internalType":"address","name":"_newTeamMemberWalletAddress","type":"address"}],"name":"updateTeamMemberWallet","outputs":[],"stateMutability":"nonpayable","type":"function"},{"inputs":[{"internalType":"address","name":"_whiteListerAddress","type":"address"}],"name":"updateWhiteListerAddress","outputs":[],"stateMutability":"nonpayable","type":"function"},{"inputs":[{"internalType":"address","name":"_walletAddress","type":"address"},{"internalType":"bool","name":"_newStatus","type":"bool"}],"name":"updateWhitelistStatus","outputs":[],"stateMutability":"nonpayable","type":"function"},{"inputs":[{"internalType":"address","name":"","type":"address"}],"name":"wallets","outputs":[{"internalType":"uint256","name":"hyaxHoldingAmount","type":"uint256"},{"internalType":"uint256","name":"hyaxHoldingAmountAtWhitelistTime","type":"uint256"},{"internalType":"uint256","name":"totalHyaxRewardsAmount","type":"uint256"},{"internalType":"uint256","name":"currentRewardsAmount","type":"uint256"},{"internalType":"uint256","name":"rewardsWithdrawn","type":"uint256"},{"internalType":"uint256","name":"addedToWhitelistTime","type":"uint256"},{"internalType":"uint8","name":"teamTokenWithdrawalTimes","type":"uint8"},{"internalType":"uint256","name":"lastRewardsWithdrawalTime","type":"uint256"},{"internalType":"uint256","name":"lastRewardsUpdateTime","type":"uint256"},{"internalType":"bool","name":"isTeamWallet","type":"bool"},{"internalType":"bool","name":"isWhitelisted","type":"bool"},{"internalType":"bool","name":"isBlacklisted","type":"bool"}],"stateMutability":"view","type":"function"},{"inputs":[],"name":"whiteListerAddress","outputs":[{"internalType":"address","name":"","type":"address"}],"stateMutability":"view","type":"function"},{"inputs":[],"name":"withdrawGrowthTokens","outputs":[],"stateMutability":"nonpayable","type":"function"},{"inputs":[],"name":"withdrawRewardTokens","outputs":[],"stateMutability":"nonpayable","type":"function"},{"inputs":[],"name":"withdrawTeamTokens","outputs":[],"stateMutability":"nonpayable","type":"function"},{"inputs":[{"internalType":"enum UpgradeableHYAXRewards.FundingType","name":"_fundingType","type":"uint8"},{"internalType":"uint256","name":"_amount","type":"uint256"}],"name":"withdrawTokensToBurn","outputs":[],"stateMutability":"nonpayable","type":"function"}],"evm":{"bytecode":{"linkReferences":{},"object":"608060405234801561001057600080fd5b50615489806100206000396000f3fe608060405234801561001057600080fd5b50600436106103f15760003560e01c80638da5cb5b11610215578063d3946a8c11610125578063ebc8e2dd116100b8578063f3793b9d11610087578063f3793b9d146108ae578063f8ff46c6146108bb578063f972c027146108c4578063fafd7c20146108d7578063fd559526146108ea57600080fd5b8063ebc8e2dd14610866578063efce558714610873578063f2fde38b14610886578063f32217b01461089957600080fd5b8063de51d567116100f4578063de51d5671461082e578063e2ccbfe414610840578063e3682a5d14610853578063e774ce431461085d57600080fd5b8063d3946a8c146107f4578063d547741f14610807578063d7e57fda1461081a578063dcb7ff6b1461082357600080fd5b8063a3246ad3116101a8578063c07732a311610177578063c07732a3146107a5578063c1cc52b3146107b8578063c4d66de8146107c5578063ca15c873146107d8578063d356b49a146107eb57600080fd5b8063a3246ad31461074b578063a868e9971461076b578063b4ba9fd71461077e578063b83608061461079257600080fd5b8063953b7ef8116101e4578063953b7ef81461071f5780639656cd8c146107275780639bae900214610730578063a217fddf1461074357600080fd5b80638da5cb5b146106df5780638e6d32df146106e75780639010d07c146106f957806391d148541461070c57600080fd5b8063570618e111610310578063687a83f8116102a35780638456cb59116102725780638456cb59146105c857806389b08f11146105d05780638a194d04146106a95780638bb4dadd146106bc5780638da2e27f146106d657600080fd5b8063687a83f8146105905780636e3ce4e1146105995780636fce7873146105a257806381f8ca1b146105b557600080fd5b80636148c783116102df5780636148c78314610553578063647a5a781461055c578063653c3a471461056557806365699d281461057857600080fd5b8063570618e11461052257806359aa8966146105375780635c975abb146105425780635d70203b1461054a57600080fd5b806336568abe116103885780633f4ba83a116103575780633f4ba83a146104f757806342ecb464146104ff5780634c4dc42e146105075780635493b30d1461050f57600080fd5b806336568abe146104b6578063370243dc146104c95780633768c029146104d15780633ba10a56146104e457600080fd5b8063248a9ca3116103c4578063248a9ca3146104725780632574cd9d146104855780632f2ff15d1461049a578063334c4cb3146104ad57600080fd5b806301ffc9a7146103f6578063031f65891461041e5780631035fc09146104495780631e6b402814610460575b600080fd5b610409610404366004614970565b6108f3565b60405190151581526020015b60405180910390f35b600154610431906001600160a01b031681565b6040516001600160a01b039091168152602001610415565b610452600c5481565b604051908152602001610415565b6104526a6342fd08f00f637800000081565b61045261048036600461499a565b61091e565b6104986104933660046149b3565b610940565b005b6104986104a83660046149f2565b610a63565b61045260105481565b6104986104c43660046149f2565b610a85565b610498610abd565b6104986104df366004614a1e565b610dfe565b600254610431906001600160a01b031681565b610498611530565b610452611546565b61049861155f565b6104526b04d8c55aefb8c05b5c00000081565b6104526000805160206153d483398151915281565b6104526301e1338081565b610409611926565b61045260035481565b61045260045481565b610452600b5481565b610498610573366004614a48565b61193c565b6013546104319061010090046001600160a01b031681565b61045260065481565b61045260125481565b6104986105b0366004614a48565b611a4d565b6104526b03e09de2596099e2b000000081565b610498611b54565b6106476105de366004614a48565b601560205260009081526040902080546001820154600283015460038401546004850154600586015460068701546007880154600889015460099099015497989697959694959394929360ff92831693919281811691610100810482169162010000909104168c565b604080519c8d5260208d019b909b52998b019890985260608a0196909652608089019490945260a088019290925260ff1660c087015260e086015261010085015215156101208401521515610140830152151561016082015261018001610415565b6104986106b7366004614a71565b611b67565b6106c46120f4565b60405160ff9091168152602001610415565b61045260115481565b6104316121db565b6104526af8277896582678ac00000081565b610431610707366004614ab0565b6121ec565b61040961071a3660046149f2565b61221b565b610498612253565b61045260075481565b61049861073e366004614a48565b61279d565b610452600081565b61075e61075936600461499a565b612a0c565b6040516104159190614ad2565b6104526b07c13bc4b2c133c56000000081565b6014546106c490600160a01b900460ff1681565b6104986107a0366004614b1f565b612a3e565b6104986107b3366004614b1f565b612b75565b600d546104099060ff1681565b6104986107d3366004614a48565b612cf1565b6104526107e636600461499a565b613056565b61045260055481565b610498610802366004614b56565b61307c565b6104986108153660046149f2565b61364c565b610452600a5481565b610452630784ce0081565b6104526a7c13bc4b2c133c5600000081565b61049861084e366004614b56565b613668565b6104526207e90081565b610452600f5481565b6013546104099060ff1681565b610498610881366004614bd2565b613af4565b610498610894366004614a48565b613e1b565b6104526000805160206153b483398151915281565b6008546104099060ff1681565b61045260095481565b601454610431906001600160a01b031681565b6104986108e5366004614c3e565b613f8e565b610452600e5481565b60006001600160e01b03198216635a05180f60e01b148061091857506109188261436f565b92915050565b60009081526000805160206153f4833981519152602052604090206001015490565b600061094b816143a4565b60008260ff16116109a35760405162461bcd60e51b815260206004820152601e60248201527f4d6178696d756d2062617463682073697a652063616e6e6f742062652030000060448201526064015b60405180910390fd5b60648260ff161115610a0d5760405162461bcd60e51b815260206004820152602d60248201527f4d6178696d756d2062617463682073697a652063616e6e6f742062652067726560448201526c061746572207468616e2031303609c1b606482015260840161099a565b6014805460ff60a01b1916600160a01b60ff8516908102919091179091556040519081527f6f2bb1da32e5620d3a499f2a9b7e558ff34e34134e8db9a112ff5982ae969094906020015b60405180910390a15050565b610a6c8261091e565b610a75816143a4565b610a7f83836143ae565b50505050565b6001600160a01b0381163314610aae5760405163334bd91960e11b815260040160405180910390fd5b610ab882826143f3565b505050565b3360008181526015602052604090206009015460ff610100909104161515600114610afa5760405162461bcd60e51b815260040161099a90614c5a565b3360008181526015602052604090206009015462010000900460ff1615610b335760405162461bcd60e51b815260040161099a90614c91565b610b3b61442f565b610b43611926565b15610b605760405162461bcd60e51b815260040161099a90614cc8565b60135460ff16610b825760405162461bcd60e51b815260040161099a90614cf4565b6b03e09de2596099e2b000000060105410610bed5760405162461bcd60e51b815260206004820152602560248201527f416c6c2072657761726420746f6b656e732068617665206265656e2077697468604482015264323930bbb760d91b606482015260840161099a565b3360009081526015602052604090206003015480610c4d5760405162461bcd60e51b815260206004820181905260248201527f4e6f207265776172647320617661696c61626c6520746f207769746864726177604482015260640161099a565b601154811115610c6f5760405162461bcd60e51b815260040161099a90614d52565b3360009081526015602052604081206004018054839290610c91908490614dbe565b9091555050336000908152601560205260408120600381018290554260079091015560118054839290610cc5908490614dd1565b925050819055508060106000828254610cde9190614dbe565b909155505060025460405163a9059cbb60e01b8152336004820152602481018390526000916001600160a01b03169063a9059cbb906044016020604051808303816000875af1158015610d35573d6000803e3d6000fd5b505050506040513d601f19601f82011682018060405250810190610d599190614de4565b905080610da85760405162461bcd60e51b815260206004820181905260248201527f4661696c656420746f207472616e736665722072657761726420746f6b656e73604482015260640161099a565b60408051338152602081018490527fd8a9090919355543d8c79690ceee3933c0bd4ffc742ae7f790d4bf44a043bb6c910160405180910390a15050610dfa600160008051602061543483398151915255565b5050565b6000610e09816143a4565b610e1161442f565b610e196121db565b6001600160a01b0316336001600160a01b031614610e925760405162461bcd60e51b815260206004820152603060248201527f4f6e6c7920746865206f776e65722063616e207570646174652074686520746560448201526f185b481b595b58995c881dd85b1b195d60821b606482015260840161099a565b600d5460ff16610f0a5760405162461bcd60e51b815260206004820152603d60248201527f5465616d20746f6b656e732066756e64696e6720686173206e6f74207374617260448201527f746564207965742c206e6f20746f6b656e7320746f207265636f766572000000606482015260840161099a565b6001600160a01b03831660009081526015602052604090206009015460ff16610f855760405162461bcd60e51b815260206004820152602760248201527f4f6c642077616c6c65742061646472657373206973206e6f742061207465616d604482015266081dd85b1b195d60ca1b606482015260840161099a565b6001600160a01b038316600090815260156020526040902060090154610100900460ff1661100f5760405162461bcd60e51b815260206004820152603160248201527f4f6c64207465616d206d656d6265722077616c6c6574206164647265737320696044820152701cc81b9bdd081dda1a5d195b1a5cdd1959607a1b606482015260840161099a565b6001600160a01b03831660009081526015602052604090206009015462010000900460ff16156110975760405162461bcd60e51b815260206004820152602d60248201527f4f6c64207465616d206d656d6265722077616c6c65742061646472657373206960448201526c1cc8189b1858dadb1a5cdd1959609a1b606482015260840161099a565b6001600160a01b0382166111135760405162461bcd60e51b815260206004820152603960248201527f4e6577207465616d206d656d6265722077616c6c65742061646472657373206360448201527f616e6e6f7420626520746865207a65726f206164647265737300000000000000606482015260840161099a565b826001600160a01b0316826001600160a01b0316036111c05760405162461bcd60e51b815260206004820152605760248201527f4e6577207465616d206d656d6265722077616c6c65742061646472657373206360448201527f616e6e6f74206265207468652073616d6520617320746865206f6c642074656160648201527f6d206d656d6265722077616c6c65742061646472657373000000000000000000608482015260a40161099a565b6001600160a01b038216600090815260156020526040902060090154610100900460ff161561124f5760405162461bcd60e51b815260206004820152603560248201527f4e6577207465616d206d656d6265722077616c6c6574206164647265737320696044820152741cc8185b1c9958591e481dda1a5d195b1a5cdd1959605a1b606482015260840161099a565b6001600160a01b03821660009081526015602052604090206009015460ff16156112e15760405162461bcd60e51b815260206004820152603760248201527f4e6577207465616d206d656d6265722077616c6c65742061646472657373206960448201527f7320616c72656164792061207465616d2077616c6c6574000000000000000000606482015260840161099a565b6001600160a01b03821660009081526015602052604090206009015462010000900460ff16156113695760405162461bcd60e51b815260206004820152602d60248201527f4e6577207465616d206d656d6265722077616c6c65742061646472657373206960448201526c1cc8189b1858dadb1a5cdd1959609a1b606482015260840161099a565b6001600160a01b03808416600090815260156020526040808220928516825281206009808401805462ffffff19908116620100001790915590820180549091166101011781556001808501805482850155855484556005808701549085015560068087018054918601805460ff1990811660ff9485161790915592879055958755855490911690945590549192610100909204909116151514801561142857506001600160a01b03841660009081526015602052604090206005015415155b801561144d57506001600160a01b038516600090815260156020526040902060010154155b801561146f57506001600160a01b038516600090815260156020526040902054155b6114cb5760405162461bcd60e51b815260206004820152602760248201527f4661696c656420746f2075706461746520746865207465616d206d656d626572604482015266081dd85b1b195d60ca1b606482015260840161099a565b8054604080516001600160a01b0388811682528716602082015280820192909252517fa9defc7864dd156fa1c6384b685620c7012fa46b9e570145f7aedecbbf38e9ef9181900360600190a15050610ab8600160008051602061543483398151915255565b600061153b816143a4565b61154361447b565b50565b61155c60346a7c13bc4b2c133c56000000614e01565b81565b600061156a816143a4565b61157261442f565b61157a611926565b156115975760405162461bcd60e51b815260040161099a90614cc8565b61159f6121db565b6001600160a01b0316336001600160a01b0316146116115760405162461bcd60e51b815260206004820152602960248201527f4f6e6c7920746865206f776e65722063616e2077697468647261772067726f77604482015268746820746f6b656e7360b81b606482015260840161099a565b60085460ff166116335760405162461bcd60e51b815260040161099a90614e23565b6301e133806007546116459190614dbe565b4210156116ae5760405162461bcd60e51b815260206004820152603160248201527f43616e6e6f74207769746864726177206265666f7265203120796561722061666044820152701d195c88199d5b991a5b99c81cdd185c9d607a1b606482015260840161099a565b6b07c13bc4b2c133c560000000600454106117195760405162461bcd60e51b815260206004820152602560248201527f416c6c2067726f77746820746f6b656e732068617665206265656e2077697468604482015264323930bbb760d91b606482015260840161099a565b6301e1338060065461172b9190614dbe565b42101561177a5760405162461bcd60e51b815260206004820152601f60248201527f43616e206f6e6c79207769746864726177206f6e636520706572207965617200604482015260640161099a565b6004546a6342fd08f00f637800000090600090611798908390614dbe565b90506b07c13bc4b2c133c5600000008111156117ca576004546117c7906b07c13bc4b2c133c560000000614dd1565b91505b81600460008282546117dc9190614dbe565b9250508190555081600560008282546117f59190614dd1565b9091555050426006556002546001600160a01b031663a9059cbb6118176121db565b6040516001600160e01b031960e084901b1681526001600160a01b039091166004820152602481018590526044016020604051808303816000875af1158015611864573d6000803e3d6000fd5b505050506040513d601f19601f820116820180604052508101906118889190614de4565b6118d45760405162461bcd60e51b815260206004820181905260248201527f4661696c656420746f207472616e736665722067726f77746820746f6b656e73604482015260640161099a565b60408051338152602081018490527fd0a5227bfa49cf178a8f7a87b90318ef05fc8330f469e0dccbe075784f426dbf910160405180910390a15050611543600160008051602061543483398151915255565b6000805160206154148339815191525460ff1690565b6000611947816143a4565b6001600160a01b0382166119b55760405162461bcd60e51b815260206004820152602f60248201527f5768697465206c697374657220616464726573732063616e6e6f74206265207460448201526e6865207a65726f206164647265737360881b606482015260840161099a565b6013546119df906000805160206153d48339815191529061010090046001600160a01b031661364c565b6119f76000805160206153d483398151915283610a63565b60138054610100600160a81b0319166101006001600160a01b038516908102919091179091556040519081527f6bdab87cebf48ec7916084ab67bb3d8a596e0d1e3b5572596393f266d9ea305790602001610a57565b6000611a58816143a4565b6001600160a01b038216611ac95760405162461bcd60e51b815260206004820152603260248201527f52657761726473207570646174657220616464726573732063616e6e6f7420626044820152716520746865207a65726f206164647265737360701b606482015260840161099a565b601454611aee906000805160206153b4833981519152906001600160a01b031661364c565b611b066000805160206153b483398151915283610a63565b601480546001600160a01b0319166001600160a01b0384169081179091556040519081527f7946fb32eb39758c8854ba2c1d63c5ed4c7a95cdb748090128fa33a803a2989490602001610a57565b6000611b5f816143a4565b6115436144db565b611b7f6000805160206153d48339815191523361221b565b80611b905750611b9060003361221b565b611bac5760405162461bcd60e51b815260040161099a90614e81565b6001600160a01b038316611c0d5760405162461bcd60e51b815260206004820152602260248201527f416464726573732063616e6e6f7420626520746865207a65726f206164647265604482015261737360f01b606482015260840161099a565b6001600160a01b0383163b15611c785760405162461bcd60e51b815260206004820152602a60248201527f496e76616c69642061646472657373206c656e677468206f7220636f6e7472616044820152696374206164647265737360b01b606482015260840161099a565b6001600160a01b038316600090815260156020526040902060090154610100900460ff1615611ce95760405162461bcd60e51b815260206004820152601d60248201527f57616c6c657420697320616c72656164792077686974656c6973746564000000604482015260640161099a565b6001600160a01b03831660009081526015602052604090206009015462010000900460ff1615611d2b5760405162461bcd60e51b815260040161099a90614c91565b6001600160a01b03831660009081526015602052604090206005015415611dab5760405162461bcd60e51b815260206004820152602e60248201527f57616c6c65742068617320616c7265616479206265656e20616464656420746f60448201526d081d1a19481dda1a5d195b1a5cdd60921b606482015260840161099a565b6001600160a01b03831660009081526015602052604081206009810180548515801562ffffff19909216919091176101001790915542600583015560068201805460ff19169055600782018390556003820183905560028201839055600490910191909155611f5f5760008111611e985760405162461bcd60e51b8152602060048201526044602482018190527f5465616d2077616c6c657473206d757374206265206164646564207769746820908201527f61206879617820686f6c64696e6720616d6f756e7420677265617465722074686064820152630616e20360e41b608482015260a40161099a565b6b04d8c55aefb8c05b5c000000811115611f385760405162461bcd60e51b815260206004820152605560248201527f5465616d2077616c6c657473206d75737420626520616464656420776974682060448201527f61206879617820686f6c64696e6720616d6f756e74206c657373207468616e2060648201527474686520746f74616c207465616d20746f6b656e7360581b608482015260a40161099a565b6001600160a01b038316600090815260156020526040902060018101829055819055611ffe565b8015611fdd5760405162461bcd60e51b815260206004820152604160248201527f4e6f6e207465616d2077616c6c6574732063616e206f6e6c792062652061646460448201527f6564207769746820686f6c64696e6720616d6f756e7420657175616c20746f206064820152600360fc1b608482015260a40161099a565b6001600160a01b038316600090815260156020526040812060018101829055555b6001600160a01b03831660009081526015602052604090206009015460ff610100909104161515600114801561204e57506001600160a01b03831660009081526015602052604090206005015415155b61209a5760405162461bcd60e51b815260206004820152601e60248201527f4661696c656420746f2077686974656c697374207468652077616c6c65740000604482015260640161099a565b604080513381526001600160a01b038516602082015283151591810191909152606081018290527fc294e522ba20b0699fe578649971cefdfdc8d0e330db37d0437849f38b3960e6906080015b60405180910390a1505050565b600d5460009060ff166121595760405162461bcd60e51b815260206004820152602760248201527f5465616d20746f6b656e732066756e64696e6720686173206e6f7420737461726044820152661d1959081e595d60ca1b606482015260840161099a565b6000600c54426121699190614dd1565b9050600061217b6301e1338083614e01565b90506008811061218e5760059250505090565b6007811061219f5760049250505090565b600681106121b05760039250505090565b600581106121c15760029250505090565b600481106121d25760019250505090565b60009250505090565b60006121e781806121ec565b905090565b60008281526000805160206153948339815191526020819052604082206122139084614524565b949350505050565b60009182526000805160206153f4833981519152602090815260408084206001600160a01b0393909316845291905290205460ff1690565b3360008181526015602052604090206009015460ff6101009091041615156001146122905760405162461bcd60e51b815260040161099a90614c5a565b3360008181526015602052604090206009015462010000900460ff16156122c95760405162461bcd60e51b815260040161099a90614c91565b6122d161442f565b6122d9611926565b156122f65760405162461bcd60e51b815260040161099a90614cc8565b3360009081526015602052604090206009015460ff1615156001146123835760405162461bcd60e51b815260206004820152603960248201527f4f6e6c79207465616d2077616c6c6574732063616e207769746864726177207460448201527f6f6b656e73207573696e6720746869732066756e6374696f6e00000000000000606482015260840161099a565b600d5460ff166123a55760405162461bcd60e51b815260040161099a90614ede565b336000908152601560205260409020600501546123c790630784ce0090614dbe565b4210156124465760405162461bcd60e51b815260206004820152604160248201527f43616e6e6f74207769746864726177206265666f72652034207965617273206160448201527f66746572206265696e6720616464656420746f207468652077686974656c69736064820152601d60fa1b608482015260a40161099a565b6b04d8c55aefb8c05b5c000000600a54106124af5760405162461bcd60e51b815260206004820152602360248201527f416c6c207465616d20746f6b656e732068617665206265656e2077697468647260448201526230bbb760e91b606482015260840161099a565b336000908152601560205260409020546125165760405162461bcd60e51b815260206004820152602260248201527f4e6f206879617820686f6c64696e6720616d6f756e7420746f20776974686472604482015261617760f01b606482015260840161099a565b61251e6120f4565b3360009081526015602052604090206006015460ff9182169116106125995760405162461bcd60e51b815260206004820152602b60248201527f43616e206f6e6c79207769746864726177207465616d20746f6b656e73206f6e60448201526a31b2903832b9103cb2b0b960a91b606482015260840161099a565b336000908152601560205260408120600101546125b890600590614e01565b90506b04d8c55aefb8c05b5c00000081600a546125d59190614dbe565b11156125f757600a546125f4906b04d8c55aefb8c05b5c000000614dd1565b90505b3360009081526015602052604081208054839290612616908490614dd1565b9250508190555080600a600082825461262f9190614dbe565b9250508190555080600b60008282546126489190614dd1565b9091555050336000908152601560205260408120600601805460ff169161266e83614f3b565b825460ff9182166101009390930a92830291909202199091161790555060025460405163a9059cbb60e01b8152336004820152602481018390526001600160a01b039091169063a9059cbb906044016020604051808303816000875af11580156126dc573d6000803e3d6000fd5b505050506040513d601f19601f820116820180604052508101906127009190614de4565b61274c5760405162461bcd60e51b815260206004820152601e60248201527f4661696c656420746f207472616e73666572207465616d20746f6b656e730000604482015260640161099a565b60408051338152602081018390527f1e63f692f0a30c3957ac289d6a44616bd119f5502eba5ae440f3158cc2c2d291910160405180910390a150610dfa600160008051602061543483398151915255565b60006127a8816143a4565b6127b06121db565b6001600160a01b0316336001600160a01b0316146128295760405162461bcd60e51b815260206004820152603060248201527f4f6e6c7920746865206f776e65722063616e207570646174652074686520687960448201526f617820746f6b656e206164647265737360801b606482015260840161099a565b6001600160a01b0382166128955760405162461bcd60e51b815260206004820152602d60248201527f4879617820746f6b656e20616464726573732063616e6e6f742062652074686560448201526c207a65726f206164647265737360981b606482015260840161099a565b60405163090b282b60e31b6020820152829060240160405160208183030381529060405280519060200120816001600160a01b03166395d89b416040518163ffffffff1660e01b8152600401600060405180830381865afa1580156128fe573d6000803e3d6000fd5b505050506040513d6000823e601f3d908101601f191682016040526129269190810190614fc1565b6040516020016129369190615050565b60405160208183030381529060405280519060200120146129b25760405162461bcd60e51b815260206004820152603060248201527f546f6b656e2061646472657373206d75737420626520612076616c696420485960448201526f415820746f6b656e206164647265737360801b606482015260840161099a565b600180546001600160a01b0385166001600160a01b0319918216811790925560028054909116821790556040519081527f6b4289497c1ee1251f23ffec949802440dac6fc64d4bd0b4efb97a5530058295906020016120e7565b60008181526000805160206153948339815191526020819052604090912060609190612a3790614530565b9392505050565b612a566000805160206153d48339815191523361221b565b80612a675750612a6760003361221b565b612a835760405162461bcd60e51b815260040161099a90614e81565b6001600160a01b0382166000908152601560205260409020600901548115156201000090910460ff16151503612acb5760405162461bcd60e51b815260040161099a9061506c565b6001600160a01b0382166000908152601560205260409020600901805462ff000019166201000083151590810291909117909155600103612b2b576001600160a01b0382166000908152601560205260409020600901805461ff00191690555b604080513381526001600160a01b0384166020820152821515918101919091527f89a9c56967d4535d54c90bffd7cbd09f6d2a4c8e26b9e7f033f199d144e12b4e90606001610a57565b612b8d6000805160206153d48339815191523361221b565b80612b9e5750612b9e60003361221b565b612bba5760405162461bcd60e51b815260040161099a90614e81565b6001600160a01b03821660009081526015602052604090206009015481151561010090910460ff16151503612c015760405162461bcd60e51b815260040161099a9061506c565b6001600160a01b0382166000908152601560205260408120600501549003612c7e5760405162461bcd60e51b815260206004820152602a60248201527f57616c6c657420686173206e6f74206265656e20616464656420746f20746865604482015269081dda1a5d195b1a5cdd60b21b606482015260840161099a565b6001600160a01b038216600081815260156020908152604091829020600901805461ff00191661010086151590810291909117909155825133815291820193909352908101919091527f70bbee4e66e3fd40f7da099410cfd723ed4a0b4fec11f6cc968e850db827a88b90606001610a57565b7ff0c57e16840df040f15088dc2f81fe391c3923bec73e23a9662efc9c229c6a008054600160401b810460ff16159067ffffffffffffffff16600081158015612d375750825b905060008267ffffffffffffffff166001148015612d545750303b155b905081158015612d62575080155b15612d805760405163f92ee8a960e01b815260040160405180910390fd5b845467ffffffffffffffff191660011785558315612daa57845460ff60401b1916600160401b1785555b612db261453d565b612dba614547565b612dc2614557565b612dcd6000336143ae565b5060138054610100600160a81b0319167401c2f012de19e6436744c3f81f56e9e70c93a8c3001790819055612e20906000805160206153d4833981519152906001600160a01b03610100909104166143ae565b50601480546001600160a01b0319167301c2f012de19e6436744c3f81f56e9e70c93a8c3908117909155612e63906000805160206153b4833981519152906143ae565b50600180546001600160a01b03199081166001600160a01b03891690811790925560028054909116821790556000600381905560048181556005829055600682905560078290556008805460ff199081169091556009839055600a839055600b839055600c839055600d805482169055600e839055600f8390556010839055601183905560128390556013805490911690556014805460ff60a01b1916601960a21b1790556040805163090b282b60e31b6020808301919091528251808303909401845260248201808452845194909101939093206395d89b4160e01b90935290519193926395d89b41926028808401938290030181865afa158015612f6d573d6000803e3d6000fd5b505050506040513d6000823e601f3d908101601f19168201604052612f959190810190614fc1565b604051602001612fa59190615050565b60405160208183030381529060405280519060200120146130085760405162461bcd60e51b815260206004820152601f60248201527f4879617820746f6b656e2061646472657373206973206e6f742076616c696400604482015260640161099a565b831561304e57845460ff60401b19168555604051600181527fc7f505b2f371ae2175ee4913f4499e1f2633a7b5936321eed1cdaeb6115181d29060200160405180910390a15b505050505050565b6000818152600080516020615394833981519152602081905260408220612a3790614567565b6000613087816143a4565b61308f61442f565b613097611926565b156130b45760405162461bcd60e51b815260040161099a90614cc8565b6130bc6121db565b6001600160a01b0316336001600160a01b03161461312f5760405162461bcd60e51b815260206004820152602a60248201527f4f6e6c7920746865206f776e65722063616e2066756e642074686520736d61726044820152691d0818dbdb9d1c9858dd60b21b606482015260840161099a565b6000836002811115613143576131436150ba565b14806131605750600183600281111561315e5761315e6150ba565b145b8061317c5750600283600281111561317a5761317a6150ba565b145b6131bf5760405162461bcd60e51b8152602060048201526014602482015273496e76616c69642066756e64696e67207479706560601b604482015260640161099a565b6000821161320f5760405162461bcd60e51b815260206004820152601d60248201527f416d6f756e74206d7573742062652067726561746572207468616e2030000000604482015260640161099a565b6002546040516323b872dd60e01b8152336004820152306024820152604481018490526001600160a01b03909116906323b872dd906064016020604051808303816000875af1158015613266573d6000803e3d6000fd5b505050506040513d601f19601f8201168201806040525081019061328a9190614de4565b6132f05760405162461bcd60e51b815260206004820152603160248201527f54686572652077617320616e206572726f72206f6e20726563656976696e672060448201527074686520746f6b656e2066756e64696e6760781b606482015260840161099a565b6000836002811115613304576133046150ba565b036133fa576b07c13bc4b2c133c560000000826003546133249190614dbe565b11156133a45760405162461bcd60e51b815260206004820152604360248201527f416d6f756e7420746f2066756e642069732067726561746572207468616e207460448201527f686520746f74616c20696e74656e74656420666f722067726f77746820746f6b606482015262656e7360e81b608482015260a40161099a565b81600360008282546133b69190614dbe565b9250508190555081600560008282546133cf9190614dbe565b909155505060085460ff166133f5576008805460ff191660011790554260078190556006555b6135fc565b600183600281111561340e5761340e6150ba565b036134fc576b04d8c55aefb8c05b5c0000008260095461342e9190614dbe565b11156134ac5760405162461bcd60e51b815260206004820152604160248201527f416d6f756e7420746f2066756e642069732067726561746572207468616e207460448201527f686520746f74616c20696e74656e74656420666f72207465616d20746f6b656e6064820152607360f81b608482015260a40161099a565b81600960008282546134be9190614dbe565b9250508190555081600b60008282546134d79190614dbe565b9091555050600d5460ff166133f557600d805460ff1916600117905542600c556135fc565b6002836002811115613510576135106150ba565b036135fc576b03e09de2596099e2b000000082600e546135309190614dbe565b11156135b05760405162461bcd60e51b815260206004820152604360248201527f416d6f756e7420746f2066756e642069732067726561746572207468616e207460448201527f686520746f74616c20696e74656e74656420666f722072657761726420746f6b606482015262656e7360e81b608482015260a40161099a565b81600e60008282546135c29190614dbe565b9250508190555081601160008282546135db9190614dbe565b909155505060135460ff166135fc576013805460ff19166001179055426012555b7fbc0b9ecc68ec48681b8f5718fa26b9ce02021220455be5f5837a944140a80ea3838360405161362d9291906150d0565b60405180910390a1610ab8600160008051602061543483398151915255565b6136558261091e565b61365e816143a4565b610a7f83836143f3565b6000613673816143a4565b61367b61442f565b613683611926565b156136a05760405162461bcd60e51b815260040161099a90614cc8565b6136a86121db565b6001600160a01b0316336001600160a01b0316146137135760405162461bcd60e51b815260206004820152602260248201527f4f6e6c7920746865206f776e65722063616e20776974686472617720746f6b656044820152616e7360f01b606482015260840161099a565b6000836002811115613727576137276150ba565b148061374457506001836002811115613742576137426150ba565b145b806137605750600283600281111561375e5761375e6150ba565b145b6137a35760405162461bcd60e51b8152602060048201526014602482015273496e76616c69642066756e64696e67207479706560601b604482015260640161099a565b600082116137f35760405162461bcd60e51b815260206004820152601d60248201527f416d6f756e74206d7573742062652067726561746572207468616e2030000000604482015260640161099a565b6000836002811115613807576138076150ba565b036138bc5760085460ff1661382e5760405162461bcd60e51b815260040161099a90614e23565b60055482111561389f5760405162461bcd60e51b815260206004820152603660248201527f496e73756666696369656e742067726f77746820746f6b656e7320696e2074686044820152756520636f6e747261637420746f20776974686472617760501b606482015260840161099a565b81600560008282546138b19190614dd1565b909155506139ed9050565b60018360028111156138d0576138d06150ba565b0361397857600d5460ff166138f75760405162461bcd60e51b815260040161099a90614ede565b600b548211156139665760405162461bcd60e51b815260206004820152603460248201527f496e73756666696369656e74207465616d20746f6b656e7320696e2074686520604482015273636f6e747261637420746f20776974686472617760601b606482015260840161099a565b81600b60008282546138b19190614dd1565b600283600281111561398c5761398c6150ba565b036139ed5760135460ff166139b35760405162461bcd60e51b815260040161099a90614cf4565b6011548211156139d55760405162461bcd60e51b815260040161099a90614d52565b81601160008282546139e79190614dd1565b90915550505b6002546001600160a01b031663a9059cbb613a066121db565b6040516001600160e01b031960e084901b1681526001600160a01b039091166004820152602481018590526044016020604051808303816000875af1158015613a53573d6000803e3d6000fd5b505050506040513d601f19601f82011682018060405250810190613a779190614de4565b613ac35760405162461bcd60e51b815260206004820181905260248201527f4661696c656420746f207472616e736665722067726f77746820746f6b656e73604482015260640161099a565b7fb9db6f85cd4e97884845cfb10d7fbba4d9cd4b9516cf2795b4c50cd886875bab838360405161362d9291906150d0565b613b0c6000805160206153b48339815191523361221b565b80613b1d5750613b1d60003361221b565b80613b2757503330145b613b435760405162461bcd60e51b815260040161099a906150fc565b613b4b61442f565b60135460ff16613b6d5760405162461bcd60e51b815260040161099a90615173565b82613bb35760405162461bcd60e51b8152602060048201526016602482015275042617463682073697a652063616e6e6f7420626520360541b604482015260640161099a565b601454600160a01b900460ff16831115613c1b5760405162461bcd60e51b8152602060048201526024808201527f42617463682073697a6520657863656564732074686520646566696e6564206c6044820152631a5b5a5d60e21b606482015260840161099a565b828114613c6a5760405162461bcd60e51b815260206004820152601860248201527f4172726179206c656e67746873206d757374206d617463680000000000000000604482015260640161099a565b60005b83811015613dc4573063fafd7c20868684818110613c8d57613c8d6151d0565b9050602002016020810190613ca29190614a48565b858585818110613cb457613cb46151d0565b6040516001600160e01b031960e087901b1681526001600160a01b0390941660048501526020029190910135602483015250604401600060405180830381600087803b158015613d0357600080fd5b505af1925050508015613d14575060015b613db257613d206151e6565b806308c379a003613da65750613d34615202565b80613d3f5750613da8565b7f80c7a907fb61ff886445c2feb367d7b196637d154438ec7337eb57021ef5f5a133878785818110613d7357613d736151d0565b9050602002016020810190613d889190614a48565b83604051613d989392919061528c565b60405180910390a150613db2565b505b3d6000803e3d6000fd5b80613dbc816152d9565b915050613c6d565b507f920309e6c1df22e82236fc02a7d23e8ec36b85a821fc790c20a0e1497ce227dc3385858585604051613dfc9594939291906152f2565b60405180910390a1610a7f600160008051602061543483398151915255565b6000613e26816143a4565b613e2e6121db565b6001600160a01b0316336001600160a01b031614613e9c5760405162461bcd60e51b815260206004820152602560248201527f4f6e6c7920746865206f776e65722063616e207472616e73666572206f776e65604482015264072736869760dc1b606482015260840161099a565b6001600160a01b038216613f015760405162461bcd60e51b815260206004820152602660248201527f4f776e61626c653a206e6577206f776e657220697320746865207a65726f206160448201526564647265737360d01b606482015260840161099a565b306001600160a01b03831603613f785760405162461bcd60e51b815260206004820152603660248201527f4f776e61626c653a206e6577206f776e65722063616e6e6f74206265207468656044820152752073616d6520636f6e7472616374206164647265737360501b606482015260840161099a565b613f83600083610a63565b610dfa60003361364c565b613fa66000805160206153b48339815191523361221b565b80613fb75750613fb760003361221b565b80613fc157503330145b613fdd5760405162461bcd60e51b815260040161099a906150fc565b60135460ff16613fff5760405162461bcd60e51b815260040161099a90615173565b6001600160a01b03821660009081526015602052604090206009015460ff6101009091041615156001146140455760405162461bcd60e51b815260040161099a90614c5a565b6001600160a01b03821660009081526015602052604090206009015462010000900460ff16156140875760405162461bcd60e51b815260040161099a90614c91565b6001600160a01b0382166000908152601560205260409020600801546140b1906207e90090614dbe565b4210156141135760405162461bcd60e51b815260206004820152602a60248201527f546f6f20736f6f6e20746f20757064617465207265776172647320666f7220746044820152691a1a5cc81dd85b1b195d60b21b606482015260840161099a565b61412960346a7c13bc4b2c133c56000000614e01565b8111156141a0576040805162461bcd60e51b81526020600482015260248101919091527f412073696e676c652077616c6c65742063616e6e6f742068617665207265776160448201527f72647320686967686572207468616e20746865207765656b6c79206c696d6974606482015260840161099a565b60115481111561420e5760405162461bcd60e51b815260206004820152603360248201527f496e73756666696369656e742072657761726420746f6b656e7320746f2064696044820152727374726962757465206173207265776172647360681b606482015260840161099a565b6b03e09de2596099e2b000000081600f546142299190614dbe565b11156142935760405162461bcd60e51b815260206004820152603360248201527f416c6c207468652072657761726420746f6b656e732068617665206265656e20604482015272185b1c9958591e48191a5cdd1c9a589d5d1959606a1b606482015260840161099a565b6001600160a01b038216600090815260156020526040812042600890910155600f80548392906142c4908490614dbe565b90915550506001600160a01b038216600090815260156020526040812060020180548392906142f4908490614dbe565b90915550506001600160a01b03821660009081526015602052604081206003018054839290614324908490614dbe565b9091555050604080513381526001600160a01b03841660208201529081018290527f74dd95429fe6255fb4698aa67d02afb4ebcf261c1883a417108c7d6c0abed4b090606001610a57565b60006001600160e01b03198216637965db0b60e01b148061091857506301ffc9a760e01b6001600160e01b0319831614610918565b6115438133614571565b6000600080516020615394833981519152816143ca85856145aa565b905080156122135760008581526020839052604090206143ea908561464f565b50949350505050565b60006000805160206153948339815191528161440f8585614664565b905080156122135760008581526020839052604090206143ea90856146e0565b60008051602061543483398151915280546001190161446157604051633ee5aeb560e01b815260040160405180910390fd5b60029055565b600160008051602061543483398151915255565b6144836146f5565b600080516020615414833981519152805460ff191681557f5db9ee0a495bf2e6ff9c91a7834c1ba4fdd244a5e8aa4e537bd38aeae4b073aa335b6040516001600160a01b03909116815260200160405180910390a150565b6144e361471a565b600080516020615414833981519152805460ff191660011781557f62e78cea01bee320cd4e420270b5ea74000d11b0c9f74754ebdbfc544b05a258336144bd565b6000612a378383614740565b60606000612a378361476a565b6145456147c6565b565b61454f6147c6565b61454561480f565b61455f6147c6565b614545614817565b6000610918825490565b61457b828261221b565b610dfa5760405163e2517d3f60e01b81526001600160a01b03821660048201526024810183905260440161099a565b60006000805160206153f48339815191526145c5848461221b565b614645576000848152602082815260408083206001600160a01b03871684529091529020805460ff191660011790556145fb3390565b6001600160a01b0316836001600160a01b0316857f2f8788117e7eff1d82e926ec794901d17c78024a50270940304540a733656f0d60405160405180910390a46001915050610918565b6000915050610918565b6000612a37836001600160a01b038416614838565b60006000805160206153f483398151915261467f848461221b565b15614645576000848152602082815260408083206001600160a01b0387168085529252808320805460ff1916905551339287917ff6391f5c32d9c69d2a47ea670b442974b53935d1edc7fd64eb21e047a839171b9190a46001915050610918565b6000612a37836001600160a01b038416614887565b6146fd611926565b61454557604051638dfc202b60e01b815260040160405180910390fd5b614722611926565b156145455760405163d93c066560e01b815260040160405180910390fd5b6000826000018281548110614757576147576151d0565b9060005260206000200154905092915050565b6060816000018054806020026020016040519081016040528092919081815260200182805480156147ba57602002820191906000526020600020905b8154815260200190600101908083116147a6575b50505050509050919050565b7ff0c57e16840df040f15088dc2f81fe391c3923bec73e23a9662efc9c229c6a0054600160401b900460ff1661454557604051631afcd79f60e31b815260040160405180910390fd5b6144676147c6565b61481f6147c6565b600080516020615414833981519152805460ff19169055565b600081815260018301602052604081205461487f57508154600181810184556000848152602080822090930184905584548482528286019093526040902091909155610918565b506000610918565b600081815260018301602052604081205480156146455760006148ab600183614dd1565b85549091506000906148bf90600190614dd1565b90508082146149245760008660000182815481106148df576148df6151d0565b9060005260206000200154905080876000018481548110614902576149026151d0565b6000918252602080832090910192909255918252600188019052604090208390555b85548690806149355761493561537d565b600190038181906000526020600020016000905590558560010160008681526020019081526020016000206000905560019350505050610918565b60006020828403121561498257600080fd5b81356001600160e01b031981168114612a3757600080fd5b6000602082840312156149ac57600080fd5b5035919050565b6000602082840312156149c557600080fd5b813560ff81168114612a3757600080fd5b80356001600160a01b03811681146149ed57600080fd5b919050565b60008060408385031215614a0557600080fd5b82359150614a15602084016149d6565b90509250929050565b60008060408385031215614a3157600080fd5b614a3a836149d6565b9150614a15602084016149d6565b600060208284031215614a5a57600080fd5b612a37826149d6565b801515811461154357600080fd5b600080600060608486031215614a8657600080fd5b614a8f846149d6565b92506020840135614a9f81614a63565b929592945050506040919091013590565b60008060408385031215614ac357600080fd5b50508035926020909101359150565b6020808252825182820181905260009190848201906040850190845b81811015614b135783516001600160a01b031683529284019291840191600101614aee565b50909695505050505050565b60008060408385031215614b3257600080fd5b614b3b836149d6565b91506020830135614b4b81614a63565b809150509250929050565b60008060408385031215614b6957600080fd5b823560038110614b7857600080fd5b946020939093013593505050565b60008083601f840112614b9857600080fd5b50813567ffffffffffffffff811115614bb057600080fd5b6020830191508360208260051b8501011115614bcb57600080fd5b9250929050565b60008060008060408587031215614be857600080fd5b843567ffffffffffffffff80821115614c0057600080fd5b614c0c88838901614b86565b90965094506020870135915080821115614c2557600080fd5b50614c3287828801614b86565b95989497509550505050565b60008060408385031215614c5157600080fd5b614b78836149d6565b60208082526019908201527f57616c6c6574206973206e6f742077686974656c697374656400000000000000604082015260600190565b6020808252601b908201527f57616c6c657420686173206265656e20626c61636b6c69737465640000000000604082015260600190565b60208082526012908201527110dbdb9d1c9858dd081a5cc81c185d5cd95960721b604082015260600190565b602080825260409082018190527f52657761726420746f6b656e732066756e64696e6720686173206e6f74207374908201527f6172746564207965742c206e6f20746f6b656e7320746f207769746864726177606082015260800190565b60208082526036908201527f496e73756666696369656e742072657761726420746f6b656e7320696e2074686040820152756520636f6e747261637420746f20776974686472617760501b606082015260800190565b634e487b7160e01b600052601160045260246000fd5b8082018082111561091857610918614da8565b8181038181111561091857610918614da8565b600060208284031215614df657600080fd5b8151612a3781614a63565b600082614e1e57634e487b7160e01b600052601260045260246000fd5b500490565b602080825260409082018190527f47726f77746820746f6b656e732066756e64696e6720686173206e6f74207374908201527f6172746564207965742c206e6f20746f6b656e7320746f207769746864726177606082015260800190565b60208082526037908201527f46756e6374696f6e207265736572766564206f6e6c7920666f7220746865207760408201527f686974656c6973746572206f7220746865206f776e6572000000000000000000606082015260800190565b6020808252603e908201527f5465616d20746f6b656e732066756e64696e6720686173206e6f74207374617260408201527f746564207965742c206e6f20746f6b656e7320746f2077697468647261770000606082015260800190565b600060ff821660ff8103614f5157614f51614da8565b60010192915050565b634e487b7160e01b600052604160045260246000fd5b601f8201601f1916810167ffffffffffffffff81118282101715614f9657614f96614f5a565b6040525050565b60005b83811015614fb8578181015183820152602001614fa0565b50506000910152565b600060208284031215614fd357600080fd5b815167ffffffffffffffff80821115614feb57600080fd5b818401915084601f830112614fff57600080fd5b81518181111561501157615011614f5a565b604051915061502a601f8201601f191660200183614f70565b80825285602082850101111561503f57600080fd5b6143ea816020840160208601614f9d565b60008251615062818460208701614f9d565b9190910192915050565b6020808252602e908201527f57616c6c65742068617320616c7265616479206265656e20757064617465642060408201526d746f20746861742073746174757360901b606082015260800190565b634e487b7160e01b600052602160045260246000fd5b60408101600384106150f257634e487b7160e01b600052602160045260246000fd5b9281526020015290565b60208082526051908201527f46756e6374696f6e207265736572766564206f6e6c7920666f7220746865207260408201527f65776172647320757064617465722c20746865206f776e65722c206f72207468606082015270329031b7b73a3930b1ba1034ba39b2b63360791b608082015260a00190565b6020808252603e908201527f52657761726420746f6b656e732066756e64696e6720686173206e6f7420737460408201527f6172746564207965742c206e6f20746f6b656e7320746f207570646174650000606082015260800190565b634e487b7160e01b600052603260045260246000fd5b600060033d11156151ff5760046000803e5060005160e01c5b90565b600060443d10156152105790565b6040516003193d81016004833e81513d67ffffffffffffffff816024840111818411171561524057505050505090565b82850191508151818111156152585750505050505090565b843d87010160208285010111156152725750505050505090565b61528160208286010187614f70565b509095945050505050565b600060018060a01b0380861683528085166020840152506060604083015282518060608401526152c3816080850160208701614f9d565b601f01601f191691909101608001949350505050565b6000600182016152eb576152eb614da8565b5060010190565b6001600160a01b03868116825260606020808401829052908301869052600091879160808501845b8981101561533f578361532c866149d6565b168252938201939082019060010161531a565b5085810360408701528681526001600160fb1b0387111561535f57600080fd5b8660051b935083888383013790920190910198975050505050505050565b634e487b7160e01b600052603160045260246000fdfec1f6fe24621ce81ec5827caf0253cadb74709b061630e6b55e82371705932000472868e4e53c1b7fcecf156a706c5e7471a90d4f9323bfe0f924cb8e95eca0058619cecd8b9e095ab43867f5b69d492180450fe862e6b50bfbfb24b75dd84c8a02dd7bc7dec4dceedda775e58dd541e08a116c6c53815c0bd028192f7b626800cd5ed15c6e187e77e9aee88184c21f4f2182ab5827cb3b7e07fbedcd63f033009b779b17422d0df92223018b32b4d1fa46e071723d6817e2486d003becc55f00a26469706673582212205f9e40b383e1c09f989de741dc00ca76f27983686986772ea654200632a6451a64736f6c63430008140033","opcodes":"PUSH1 0x80 PUSH1 0x40 MSTORE CALLVALUE DUP1 ISZERO PUSH2 0x10 JUMPI PUSH1 0x0 DUP1 REVERT JUMPDEST POP PUSH2 0x5489 DUP1 PUSH2 0x20 PUSH1 0x0 CODECOPY PUSH1 0x0 RETURN INVALID PUSH1 0x80 PUSH1 0x40 MSTORE CALLVALUE DUP1 ISZERO PUSH2 0x10 JUMPI PUSH1 0x0 DUP1 REVERT JUMPDEST POP PUSH1 0x4 CALLDATASIZE LT PUSH2 0x3F1 JUMPI PUSH1 0x0 CALLDATALOAD PUSH1 0xE0 SHR DUP1 PUSH4 0x8DA5CB5B GT PUSH2 0x215 JUMPI DUP1 PUSH4 0xD3946A8C GT PUSH2 0x125 JUMPI DUP1 PUSH4 0xEBC8E2DD GT PUSH2 0xB8 JUMPI DUP1 PUSH4 0xF3793B9D GT PUSH2 0x87 JUMPI DUP1 PUSH4 0xF3793B9D EQ PUSH2 0x8AE JUMPI DUP1 PUSH4 0xF8FF46C6 EQ PUSH2 0x8BB JUMPI DUP1 PUSH4 0xF972C027 EQ PUSH2 0x8C4 JUMPI DUP1 PUSH4 0xFAFD7C20 EQ PUSH2 0x8D7 JUMPI DUP1 PUSH4 0xFD559526 EQ PUSH2 0x8EA JUMPI PUSH1 0x0 DUP1 REVERT JUMPDEST DUP1 PUSH4 0xEBC8E2DD EQ PUSH2 0x866 JUMPI DUP1 PUSH4 0xEFCE5587 EQ PUSH2 0x873 JUMPI DUP1 PUSH4 0xF2FDE38B EQ PUSH2 0x886 JUMPI DUP1 PUSH4 0xF32217B0 EQ PUSH2 0x899 JUMPI PUSH1 0x0 DUP1 REVERT JUMPDEST DUP1 PUSH4 0xDE51D567 GT PUSH2 0xF4 JUMPI DUP1 PUSH4 0xDE51D567 EQ PUSH2 0x82E JUMPI DUP1 PUSH4 0xE2CCBFE4 EQ PUSH2 0x840 JUMPI DUP1 PUSH4 0xE3682A5D EQ PUSH2 0x853 JUMPI DUP1 PUSH4 0xE774CE43 EQ PUSH2 0x85D JUMPI PUSH1 0x0 DUP1 REVERT JUMPDEST DUP1 PUSH4 0xD3946A8C EQ PUSH2 0x7F4 JUMPI DUP1 PUSH4 0xD547741F EQ PUSH2 0x807 JUMPI DUP1 PUSH4 0xD7E57FDA EQ PUSH2 0x81A JUMPI DUP1 PUSH4 0xDCB7FF6B EQ PUSH2 0x823 JUMPI PUSH1 0x0 DUP1 REVERT JUMPDEST DUP1 PUSH4 0xA3246AD3 GT PUSH2 0x1A8 JUMPI DUP1 PUSH4 0xC07732A3 GT PUSH2 0x177 JUMPI DUP1 PUSH4 0xC07732A3 EQ PUSH2 0x7A5 JUMPI DUP1 PUSH4 0xC1CC52B3 EQ PUSH2 0x7B8 JUMPI DUP1 PUSH4 0xC4D66DE8 EQ PUSH2 0x7C5 JUMPI DUP1 PUSH4 0xCA15C873 EQ PUSH2 0x7D8 JUMPI DUP1 PUSH4 0xD356B49A EQ PUSH2 0x7EB JUMPI PUSH1 0x0 DUP1 REVERT JUMPDEST DUP1 PUSH4 0xA3246AD3 EQ PUSH2 0x74B JUMPI DUP1 PUSH4 0xA868E997 EQ PUSH2 0x76B JUMPI DUP1 PUSH4 0xB4BA9FD7 EQ PUSH2 0x77E JUMPI DUP1 PUSH4 0xB8360806 EQ PUSH2 0x792 JUMPI PUSH1 0x0 DUP1 REVERT JUMPDEST DUP1 PUSH4 0x953B7EF8 GT PUSH2 0x1E4 JUMPI DUP1 PUSH4 0x953B7EF8 EQ PUSH2 0x71F JUMPI DUP1 PUSH4 0x9656CD8C EQ PUSH2 0x727 JUMPI DUP1 PUSH4 0x9BAE9002 EQ PUSH2 0x730 JUMPI DUP1 PUSH4 0xA217FDDF EQ PUSH2 0x743 JUMPI PUSH1 0x0 DUP1 REVERT JUMPDEST DUP1 PUSH4 0x8DA5CB5B EQ PUSH2 0x6DF JUMPI DUP1 PUSH4 0x8E6D32DF EQ PUSH2 0x6E7 JUMPI DUP1 PUSH4 0x9010D07C EQ PUSH2 0x6F9 JUMPI DUP1 PUSH4 0x91D14854 EQ PUSH2 0x70C JUMPI PUSH1 0x0 DUP1 REVERT JUMPDEST DUP1 PUSH4 0x570618E1 GT PUSH2 0x310 JUMPI DUP1 PUSH4 0x687A83F8 GT PUSH2 0x2A3 JUMPI DUP1 PUSH4 0x8456CB59 GT PUSH2 0x272 JUMPI DUP1 PUSH4 0x8456CB59 EQ PUSH2 0x5C8 JUMPI DUP1 PUSH4 0x89B08F11 EQ PUSH2 0x5D0 JUMPI DUP1 PUSH4 0x8A194D04 EQ PUSH2 0x6A9 JUMPI DUP1 PUSH4 0x8BB4DADD EQ PUSH2 0x6BC JUMPI DUP1 PUSH4 0x8DA2E27F EQ PUSH2 0x6D6 JUMPI PUSH1 0x0 DUP1 REVERT JUMPDEST DUP1 PUSH4 0x687A83F8 EQ PUSH2 0x590 JUMPI DUP1 PUSH4 0x6E3CE4E1 EQ PUSH2 0x599 JUMPI DUP1 PUSH4 0x6FCE7873 EQ PUSH2 0x5A2 JUMPI DUP1 PUSH4 0x81F8CA1B EQ PUSH2 0x5B5 JUMPI PUSH1 0x0 DUP1 REVERT JUMPDEST DUP1 PUSH4 0x6148C783 GT PUSH2 0x2DF JUMPI DUP1 PUSH4 0x6148C783 EQ PUSH2 0x553 JUMPI DUP1 PUSH4 0x647A5A78 EQ PUSH2 0x55C JUMPI DUP1 PUSH4 0x653C3A47 EQ PUSH2 0x565 JUMPI DUP1 PUSH4 0x65699D28 EQ PUSH2 0x578 JUMPI PUSH1 0x0 DUP1 REVERT JUMPDEST DUP1 PUSH4 0x570618E1 EQ PUSH2 0x522 JUMPI DUP1 PUSH4 0x59AA8966 EQ PUSH2 0x537 JUMPI DUP1 PUSH4 0x5C975ABB EQ PUSH2 0x542 JUMPI DUP1 PUSH4 0x5D70203B EQ PUSH2 0x54A JUMPI PUSH1 0x0 DUP1 REVERT JUMPDEST DUP1 PUSH4 0x36568ABE GT PUSH2 0x388 JUMPI DUP1 PUSH4 0x3F4BA83A GT PUSH2 0x357 JUMPI DUP1 PUSH4 0x3F4BA83A EQ PUSH2 0x4F7 JUMPI DUP1 PUSH4 0x42ECB464 EQ PUSH2 0x4FF JUMPI DUP1 PUSH4 0x4C4DC42E EQ PUSH2 0x507 JUMPI DUP1 PUSH4 0x5493B30D EQ PUSH2 0x50F JUMPI PUSH1 0x0 DUP1 REVERT JUMPDEST DUP1 PUSH4 0x36568ABE EQ PUSH2 0x4B6 JUMPI DUP1 PUSH4 0x370243DC EQ PUSH2 0x4C9 JUMPI DUP1 PUSH4 0x3768C029 EQ PUSH2 0x4D1 JUMPI DUP1 PUSH4 0x3BA10A56 EQ PUSH2 0x4E4 JUMPI PUSH1 0x0 DUP1 REVERT JUMPDEST DUP1 PUSH4 0x248A9CA3 GT PUSH2 0x3C4 JUMPI DUP1 PUSH4 0x248A9CA3 EQ PUSH2 0x472 JUMPI DUP1 PUSH4 0x2574CD9D EQ PUSH2 0x485 JUMPI DUP1 PUSH4 0x2F2FF15D EQ PUSH2 0x49A JUMPI DUP1 PUSH4 0x334C4CB3 EQ PUSH2 0x4AD JUMPI PUSH1 0x0 DUP1 REVERT JUMPDEST DUP1 PUSH4 0x1FFC9A7 EQ PUSH2 0x3F6 JUMPI DUP1 PUSH4 0x31F6589 EQ PUSH2 0x41E JUMPI DUP1 PUSH4 0x1035FC09 EQ PUSH2 0x449 JUMPI DUP1 PUSH4 0x1E6B4028 EQ PUSH2 0x460 JUMPI JUMPDEST PUSH1 0x0 DUP1 REVERT JUMPDEST PUSH2 0x409 PUSH2 0x404 CALLDATASIZE PUSH1 0x4 PUSH2 0x4970 JUMP JUMPDEST PUSH2 0x8F3 JUMP JUMPDEST PUSH1 0x40 MLOAD SWAP1 ISZERO ISZERO DUP2 MSTORE PUSH1 0x20 ADD JUMPDEST PUSH1 0x40 MLOAD DUP1 SWAP2 SUB SWAP1 RETURN JUMPDEST PUSH1 0x1 SLOAD PUSH2 0x431 SWAP1 PUSH1 0x1 PUSH1 0x1 PUSH1 0xA0 SHL SUB AND DUP2 JUMP JUMPDEST PUSH1 0x40 MLOAD PUSH1 0x1 PUSH1 0x1 PUSH1 0xA0 SHL SUB SWAP1 SWAP2 AND DUP2 MSTORE PUSH1 0x20 ADD PUSH2 0x415 JUMP JUMPDEST PUSH2 0x452 PUSH1 0xC SLOAD DUP2 JUMP JUMPDEST PUSH1 0x40 MLOAD SWAP1 DUP2 MSTORE PUSH1 0x20 ADD PUSH2 0x415 JUMP JUMPDEST PUSH2 0x452 PUSH11 0x6342FD08F00F6378000000 DUP2 JUMP JUMPDEST PUSH2 0x452 PUSH2 0x480 CALLDATASIZE PUSH1 0x4 PUSH2 0x499A JUMP JUMPDEST PUSH2 0x91E JUMP JUMPDEST PUSH2 0x498 PUSH2 0x493 CALLDATASIZE PUSH1 0x4 PUSH2 0x49B3 JUMP JUMPDEST PUSH2 0x940 JUMP JUMPDEST STOP JUMPDEST PUSH2 0x498 PUSH2 0x4A8 CALLDATASIZE PUSH1 0x4 PUSH2 0x49F2 JUMP JUMPDEST PUSH2 0xA63 JUMP JUMPDEST PUSH2 0x452 PUSH1 0x10 SLOAD DUP2 JUMP JUMPDEST PUSH2 0x498 PUSH2 0x4C4 CALLDATASIZE PUSH1 0x4 PUSH2 0x49F2 JUMP JUMPDEST PUSH2 0xA85 JUMP JUMPDEST PUSH2 0x498 PUSH2 0xABD JUMP JUMPDEST PUSH2 0x498 PUSH2 0x4DF CALLDATASIZE PUSH1 0x4 PUSH2 0x4A1E JUMP JUMPDEST PUSH2 0xDFE JUMP JUMPDEST PUSH1 0x2 SLOAD PUSH2 0x431 SWAP1 PUSH1 0x1 PUSH1 0x1 PUSH1 0xA0 SHL SUB AND DUP2 JUMP JUMPDEST PUSH2 0x498 PUSH2 0x1530 JUMP JUMPDEST PUSH2 0x452 PUSH2 0x1546 JUMP JUMPDEST PUSH2 0x498 PUSH2 0x155F JUMP JUMPDEST PUSH2 0x452 PUSH12 0x4D8C55AEFB8C05B5C000000 DUP2 JUMP JUMPDEST PUSH2 0x452 PUSH1 0x0 DUP1 MLOAD PUSH1 0x20 PUSH2 0x53D4 DUP4 CODECOPY DUP2 MLOAD SWAP2 MSTORE DUP2 JUMP JUMPDEST PUSH2 0x452 PUSH4 0x1E13380 DUP2 JUMP JUMPDEST PUSH2 0x409 PUSH2 0x1926 JUMP JUMPDEST PUSH2 0x452 PUSH1 0x3 SLOAD DUP2 JUMP JUMPDEST PUSH2 0x452 PUSH1 0x4 SLOAD DUP2 JUMP JUMPDEST PUSH2 0x452 PUSH1 0xB SLOAD DUP2 JUMP JUMPDEST PUSH2 0x498 PUSH2 0x573 CALLDATASIZE PUSH1 0x4 PUSH2 0x4A48 JUMP JUMPDEST PUSH2 0x193C JUMP JUMPDEST PUSH1 0x13 SLOAD PUSH2 0x431 SWAP1 PUSH2 0x100 SWAP1 DIV PUSH1 0x1 PUSH1 0x1 PUSH1 0xA0 SHL SUB AND DUP2 JUMP JUMPDEST PUSH2 0x452 PUSH1 0x6 SLOAD DUP2 JUMP JUMPDEST PUSH2 0x452 PUSH1 0x12 SLOAD DUP2 JUMP JUMPDEST PUSH2 0x498 PUSH2 0x5B0 CALLDATASIZE PUSH1 0x4 PUSH2 0x4A48 JUMP JUMPDEST PUSH2 0x1A4D JUMP JUMPDEST PUSH2 0x452 PUSH12 0x3E09DE2596099E2B0000000 DUP2 JUMP JUMPDEST PUSH2 0x498 PUSH2 0x1B54 JUMP JUMPDEST PUSH2 0x647 PUSH2 0x5DE CALLDATASIZE PUSH1 0x4 PUSH2 0x4A48 JUMP JUMPDEST PUSH1 0x15 PUSH1 0x20 MSTORE PUSH1 0x0 SWAP1 DUP2 MSTORE PUSH1 0x40 SWAP1 KECCAK256 DUP1 SLOAD PUSH1 0x1 DUP3 ADD SLOAD PUSH1 0x2 DUP4 ADD SLOAD PUSH1 0x3 DUP5 ADD SLOAD PUSH1 0x4 DUP6 ADD SLOAD PUSH1 0x5 DUP7 ADD SLOAD PUSH1 0x6 DUP8 ADD SLOAD PUSH1 0x7 DUP9 ADD SLOAD PUSH1 0x8 DUP10 ADD SLOAD PUSH1 0x9 SWAP1 SWAP10 ADD SLOAD SWAP8 SWAP9 SWAP7 SWAP8 SWAP6 SWAP7 SWAP5 SWAP6 SWAP4 SWAP5 SWAP3 SWAP4 PUSH1 0xFF SWAP3 DUP4 AND SWAP4 SWAP2 SWAP3 DUP2 DUP2 AND SWAP2 PUSH2 0x100 DUP2 DIV DUP3 AND SWAP2 PUSH3 0x10000 SWAP1 SWAP2 DIV AND DUP13 JUMP JUMPDEST PUSH1 0x40 DUP1 MLOAD SWAP13 DUP14 MSTORE PUSH1 0x20 DUP14 ADD SWAP12 SWAP1 SWAP12 MSTORE SWAP10 DUP12 ADD SWAP9 SWAP1 SWAP9 MSTORE PUSH1 0x60 DUP11 ADD SWAP7 SWAP1 SWAP7 MSTORE PUSH1 0x80 DUP10 ADD SWAP5 SWAP1 SWAP5 MSTORE PUSH1 0xA0 DUP9 ADD SWAP3 SWAP1 SWAP3 MSTORE PUSH1 0xFF AND PUSH1 0xC0 DUP8 ADD MSTORE PUSH1 0xE0 DUP7 ADD MSTORE PUSH2 0x100 DUP6 ADD MSTORE ISZERO ISZERO PUSH2 0x120 DUP5 ADD MSTORE ISZERO ISZERO PUSH2 0x140 DUP4 ADD MSTORE ISZERO ISZERO PUSH2 0x160 DUP3 ADD MSTORE PUSH2 0x180 ADD PUSH2 0x415 JUMP JUMPDEST PUSH2 0x498 PUSH2 0x6B7 CALLDATASIZE PUSH1 0x4 PUSH2 0x4A71 JUMP JUMPDEST PUSH2 0x1B67 JUMP JUMPDEST PUSH2 0x6C4 PUSH2 0x20F4 JUMP JUMPDEST PUSH1 0x40 MLOAD PUSH1 0xFF SWAP1 SWAP2 AND DUP2 MSTORE PUSH1 0x20 ADD PUSH2 0x415 JUMP JUMPDEST PUSH2 0x452 PUSH1 0x11 SLOAD DUP2 JUMP JUMPDEST PUSH2 0x431 PUSH2 0x21DB JUMP JUMPDEST PUSH2 0x452 PUSH11 0xF8277896582678AC000000 DUP2 JUMP JUMPDEST PUSH2 0x431 PUSH2 0x707 CALLDATASIZE PUSH1 0x4 PUSH2 0x4AB0 JUMP JUMPDEST PUSH2 0x21EC JUMP JUMPDEST PUSH2 0x409 PUSH2 0x71A CALLDATASIZE PUSH1 0x4 PUSH2 0x49F2 JUMP JUMPDEST PUSH2 0x221B JUMP JUMPDEST PUSH2 0x498 PUSH2 0x2253 JUMP JUMPDEST PUSH2 0x452 PUSH1 0x7 SLOAD DUP2 JUMP JUMPDEST PUSH2 0x498 PUSH2 0x73E CALLDATASIZE PUSH1 0x4 PUSH2 0x4A48 JUMP JUMPDEST PUSH2 0x279D JUMP JUMPDEST PUSH2 0x452 PUSH1 0x0 DUP2 JUMP JUMPDEST PUSH2 0x75E PUSH2 0x759 CALLDATASIZE PUSH1 0x4 PUSH2 0x499A JUMP JUMPDEST PUSH2 0x2A0C JUMP JUMPDEST PUSH1 0x40 MLOAD PUSH2 0x415 SWAP2 SWAP1 PUSH2 0x4AD2 JUMP JUMPDEST PUSH2 0x452 PUSH12 0x7C13BC4B2C133C560000000 DUP2 JUMP JUMPDEST PUSH1 0x14 SLOAD PUSH2 0x6C4 SWAP1 PUSH1 0x1 PUSH1 0xA0 SHL SWAP1 DIV PUSH1 0xFF AND DUP2 JUMP JUMPDEST PUSH2 0x498 PUSH2 0x7A0 CALLDATASIZE PUSH1 0x4 PUSH2 0x4B1F JUMP JUMPDEST PUSH2 0x2A3E JUMP JUMPDEST PUSH2 0x498 PUSH2 0x7B3 CALLDATASIZE PUSH1 0x4 PUSH2 0x4B1F JUMP JUMPDEST PUSH2 0x2B75 JUMP JUMPDEST PUSH1 0xD SLOAD PUSH2 0x409 SWAP1 PUSH1 0xFF AND DUP2 JUMP JUMPDEST PUSH2 0x498 PUSH2 0x7D3 CALLDATASIZE PUSH1 0x4 PUSH2 0x4A48 JUMP JUMPDEST PUSH2 0x2CF1 JUMP JUMPDEST PUSH2 0x452 PUSH2 0x7E6 CALLDATASIZE PUSH1 0x4 PUSH2 0x499A JUMP JUMPDEST PUSH2 0x3056 JUMP JUMPDEST PUSH2 0x452 PUSH1 0x5 SLOAD DUP2 JUMP JUMPDEST PUSH2 0x498 PUSH2 0x802 CALLDATASIZE PUSH1 0x4 PUSH2 0x4B56 JUMP JUMPDEST PUSH2 0x307C JUMP JUMPDEST PUSH2 0x498 PUSH2 0x815 CALLDATASIZE PUSH1 0x4 PUSH2 0x49F2 JUMP JUMPDEST PUSH2 0x364C JUMP JUMPDEST PUSH2 0x452 PUSH1 0xA SLOAD DUP2 JUMP JUMPDEST PUSH2 0x452 PUSH4 0x784CE00 DUP2 JUMP JUMPDEST PUSH2 0x452 PUSH11 0x7C13BC4B2C133C56000000 DUP2 JUMP JUMPDEST PUSH2 0x498 PUSH2 0x84E CALLDATASIZE PUSH1 0x4 PUSH2 0x4B56 JUMP JUMPDEST PUSH2 0x3668 JUMP JUMPDEST PUSH2 0x452 PUSH3 0x7E900 DUP2 JUMP JUMPDEST PUSH2 0x452 PUSH1 0xF SLOAD DUP2 JUMP JUMPDEST PUSH1 0x13 SLOAD PUSH2 0x409 SWAP1 PUSH1 0xFF AND DUP2 JUMP JUMPDEST PUSH2 0x498 PUSH2 0x881 CALLDATASIZE PUSH1 0x4 PUSH2 0x4BD2 JUMP JUMPDEST PUSH2 0x3AF4 JUMP JUMPDEST PUSH2 0x498 PUSH2 0x894 CALLDATASIZE PUSH1 0x4 PUSH2 0x4A48 JUMP JUMPDEST PUSH2 0x3E1B JUMP JUMPDEST PUSH2 0x452 PUSH1 0x0 DUP1 MLOAD PUSH1 0x20 PUSH2 0x53B4 DUP4 CODECOPY DUP2 MLOAD SWAP2 MSTORE DUP2 JUMP JUMPDEST PUSH1 0x8 SLOAD PUSH2 0x409 SWAP1 PUSH1 0xFF AND DUP2 JUMP JUMPDEST PUSH2 0x452 PUSH1 0x9 SLOAD DUP2 JUMP JUMPDEST PUSH1 0x14 SLOAD PUSH2 0x431 SWAP1 PUSH1 0x1 PUSH1 0x1 PUSH1 0xA0 SHL SUB AND DUP2 JUMP JUMPDEST PUSH2 0x498 PUSH2 0x8E5 CALLDATASIZE PUSH1 0x4 PUSH2 0x4C3E JUMP JUMPDEST PUSH2 0x3F8E JUMP JUMPDEST PUSH2 0x452 PUSH1 0xE SLOAD DUP2 JUMP JUMPDEST PUSH1 0x0 PUSH1 0x1 PUSH1 0x1 PUSH1 0xE0 SHL SUB NOT DUP3 AND PUSH4 0x5A05180F PUSH1 0xE0 SHL EQ DUP1 PUSH2 0x918 JUMPI POP PUSH2 0x918 DUP3 PUSH2 0x436F JUMP JUMPDEST SWAP3 SWAP2 POP POP JUMP JUMPDEST PUSH1 0x0 SWAP1 DUP2 MSTORE PUSH1 0x0 DUP1 MLOAD PUSH1 0x20 PUSH2 0x53F4 DUP4 CODECOPY DUP2 MLOAD SWAP2 MSTORE PUSH1 0x20 MSTORE PUSH1 0x40 SWAP1 KECCAK256 PUSH1 0x1 ADD SLOAD SWAP1 JUMP JUMPDEST PUSH1 0x0 PUSH2 0x94B DUP2 PUSH2 0x43A4 JUMP JUMPDEST PUSH1 0x0 DUP3 PUSH1 0xFF AND GT PUSH2 0x9A3 JUMPI PUSH1 0x40 MLOAD PUSH3 0x461BCD PUSH1 0xE5 SHL DUP2 MSTORE PUSH1 0x20 PUSH1 0x4 DUP3 ADD MSTORE PUSH1 0x1E PUSH1 0x24 DUP3 ADD MSTORE PUSH32 0x4D6178696D756D2062617463682073697A652063616E6E6F7420626520300000 PUSH1 0x44 DUP3 ADD MSTORE PUSH1 0x64 ADD JUMPDEST PUSH1 0x40 MLOAD DUP1 SWAP2 SUB SWAP1 REVERT JUMPDEST PUSH1 0x64 DUP3 PUSH1 0xFF AND GT ISZERO PUSH2 0xA0D JUMPI PUSH1 0x40 MLOAD PUSH3 0x461BCD PUSH1 0xE5 SHL DUP2 MSTORE PUSH1 0x20 PUSH1 0x4 DUP3 ADD MSTORE PUSH1 0x2D PUSH1 0x24 DUP3 ADD MSTORE PUSH32 0x4D6178696D756D2062617463682073697A652063616E6E6F7420626520677265 PUSH1 0x44 DUP3 ADD MSTORE PUSH13 0x61746572207468616E2031303 PUSH1 0x9C SHL PUSH1 0x64 DUP3 ADD MSTORE PUSH1 0x84 ADD PUSH2 0x99A JUMP JUMPDEST PUSH1 0x14 DUP1 SLOAD PUSH1 0xFF PUSH1 0xA0 SHL NOT AND PUSH1 0x1 PUSH1 0xA0 SHL PUSH1 0xFF DUP6 AND SWAP1 DUP2 MUL SWAP2 SWAP1 SWAP2 OR SWAP1 SWAP2 SSTORE PUSH1 0x40 MLOAD SWAP1 DUP2 MSTORE PUSH32 0x6F2BB1DA32E5620D3A499F2A9B7E558FF34E34134E8DB9A112FF5982AE969094 SWAP1 PUSH1 0x20 ADD JUMPDEST PUSH1 0x40 MLOAD DUP1 SWAP2 SUB SWAP1 LOG1 POP POP JUMP JUMPDEST PUSH2 0xA6C DUP3 PUSH2 0x91E JUMP JUMPDEST PUSH2 0xA75 DUP2 PUSH2 0x43A4 JUMP JUMPDEST PUSH2 0xA7F DUP4 DUP4 PUSH2 0x43AE JUMP JUMPDEST POP POP POP POP JUMP JUMPDEST PUSH1 0x1 PUSH1 0x1 PUSH1 0xA0 SHL SUB DUP2 AND CALLER EQ PUSH2 0xAAE JUMPI PUSH1 0x40 MLOAD PUSH4 0x334BD919 PUSH1 0xE1 SHL DUP2 MSTORE PUSH1 0x4 ADD PUSH1 0x40 MLOAD DUP1 SWAP2 SUB SWAP1 REVERT JUMPDEST PUSH2 0xAB8 DUP3 DUP3 PUSH2 0x43F3 JUMP JUMPDEST POP POP POP JUMP JUMPDEST CALLER PUSH1 0x0 DUP2 DUP2 MSTORE PUSH1 0x15 PUSH1 0x20 MSTORE PUSH1 0x40 SWAP1 KECCAK256 PUSH1 0x9 ADD SLOAD PUSH1 0xFF PUSH2 0x100 SWAP1 SWAP2 DIV AND ISZERO ISZERO PUSH1 0x1 EQ PUSH2 0xAFA JUMPI PUSH1 0x40 MLOAD PUSH3 0x461BCD PUSH1 0xE5 SHL DUP2 MSTORE PUSH1 0x4 ADD PUSH2 0x99A SWAP1 PUSH2 0x4C5A JUMP JUMPDEST CALLER PUSH1 0x0 DUP2 DUP2 MSTORE PUSH1 0x15 PUSH1 0x20 MSTORE PUSH1 0x40 SWAP1 KECCAK256 PUSH1 0x9 ADD SLOAD PUSH3 0x10000 SWAP1 DIV PUSH1 0xFF AND ISZERO PUSH2 0xB33 JUMPI PUSH1 0x40 MLOAD PUSH3 0x461BCD PUSH1 0xE5 SHL DUP2 MSTORE PUSH1 0x4 ADD PUSH2 0x99A SWAP1 PUSH2 0x4C91 JUMP JUMPDEST PUSH2 0xB3B PUSH2 0x442F JUMP JUMPDEST PUSH2 0xB43 PUSH2 0x1926 JUMP JUMPDEST ISZERO PUSH2 0xB60 JUMPI PUSH1 0x40 MLOAD PUSH3 0x461BCD PUSH1 0xE5 SHL DUP2 MSTORE PUSH1 0x4 ADD PUSH2 0x99A SWAP1 PUSH2 0x4CC8 JUMP JUMPDEST PUSH1 0x13 SLOAD PUSH1 0xFF AND PUSH2 0xB82 JUMPI PUSH1 0x40 MLOAD PUSH3 0x461BCD PUSH1 0xE5 SHL DUP2 MSTORE PUSH1 0x4 ADD PUSH2 0x99A SWAP1 PUSH2 0x4CF4 JUMP JUMPDEST PUSH12 0x3E09DE2596099E2B0000000 PUSH1 0x10 SLOAD LT PUSH2 0xBED JUMPI PUSH1 0x40 MLOAD PUSH3 0x461BCD PUSH1 0xE5 SHL DUP2 MSTORE PUSH1 0x20 PUSH1 0x4 DUP3 ADD MSTORE PUSH1 0x25 PUSH1 0x24 DUP3 ADD MSTORE PUSH32 0x416C6C2072657761726420746F6B656E732068617665206265656E2077697468 PUSH1 0x44 DUP3 ADD MSTORE PUSH5 0x323930BBB7 PUSH1 0xD9 SHL PUSH1 0x64 DUP3 ADD MSTORE PUSH1 0x84 ADD PUSH2 0x99A JUMP JUMPDEST CALLER PUSH1 0x0 SWAP1 DUP2 MSTORE PUSH1 0x15 PUSH1 0x20 MSTORE PUSH1 0x40 SWAP1 KECCAK256 PUSH1 0x3 ADD SLOAD DUP1 PUSH2 0xC4D JUMPI PUSH1 0x40 MLOAD PUSH3 0x461BCD PUSH1 0xE5 SHL DUP2 MSTORE PUSH1 0x20 PUSH1 0x4 DUP3 ADD DUP2 SWAP1 MSTORE PUSH1 0x24 DUP3 ADD MSTORE PUSH32 0x4E6F207265776172647320617661696C61626C6520746F207769746864726177 PUSH1 0x44 DUP3 ADD MSTORE PUSH1 0x64 ADD PUSH2 0x99A JUMP JUMPDEST PUSH1 0x11 SLOAD DUP2 GT ISZERO PUSH2 0xC6F JUMPI PUSH1 0x40 MLOAD PUSH3 0x461BCD PUSH1 0xE5 SHL DUP2 MSTORE PUSH1 0x4 ADD PUSH2 0x99A SWAP1 PUSH2 0x4D52 JUMP JUMPDEST CALLER PUSH1 0x0 SWAP1 DUP2 MSTORE PUSH1 0x15 PUSH1 0x20 MSTORE PUSH1 0x40 DUP2 KECCAK256 PUSH1 0x4 ADD DUP1 SLOAD DUP4 SWAP3 SWAP1 PUSH2 0xC91 SWAP1 DUP5 SWAP1 PUSH2 0x4DBE JUMP JUMPDEST SWAP1 SWAP2 SSTORE POP POP CALLER PUSH1 0x0 SWAP1 DUP2 MSTORE PUSH1 0x15 PUSH1 0x20 MSTORE PUSH1 0x40 DUP2 KECCAK256 PUSH1 0x3 DUP2 ADD DUP3 SWAP1 SSTORE TIMESTAMP PUSH1 0x7 SWAP1 SWAP2 ADD SSTORE PUSH1 0x11 DUP1 SLOAD DUP4 SWAP3 SWAP1 PUSH2 0xCC5 SWAP1 DUP5 SWAP1 PUSH2 0x4DD1 JUMP JUMPDEST SWAP3 POP POP DUP2 SWAP1 SSTORE POP DUP1 PUSH1 0x10 PUSH1 0x0 DUP3 DUP3 SLOAD PUSH2 0xCDE SWAP2 SWAP1 PUSH2 0x4DBE JUMP JUMPDEST SWAP1 SWAP2 SSTORE POP POP PUSH1 0x2 SLOAD PUSH1 0x40 MLOAD PUSH4 0xA9059CBB PUSH1 0xE0 SHL DUP2 MSTORE CALLER PUSH1 0x4 DUP3 ADD MSTORE PUSH1 0x24 DUP2 ADD DUP4 SWAP1 MSTORE PUSH1 0x0 SWAP2 PUSH1 0x1 PUSH1 0x1 PUSH1 0xA0 SHL SUB AND SWAP1 PUSH4 0xA9059CBB SWAP1 PUSH1 0x44 ADD PUSH1 0x20 PUSH1 0x40 MLOAD DUP1 DUP4 SUB DUP2 PUSH1 0x0 DUP8 GAS CALL ISZERO DUP1 ISZERO PUSH2 0xD35 JUMPI RETURNDATASIZE PUSH1 0x0 DUP1 RETURNDATACOPY RETURNDATASIZE PUSH1 0x0 REVERT JUMPDEST POP POP POP POP PUSH1 0x40 MLOAD RETURNDATASIZE PUSH1 0x1F NOT PUSH1 0x1F DUP3 ADD AND DUP3 ADD DUP1 PUSH1 0x40 MSTORE POP DUP2 ADD SWAP1 PUSH2 0xD59 SWAP2 SWAP1 PUSH2 0x4DE4 JUMP JUMPDEST SWAP1 POP DUP1 PUSH2 0xDA8 JUMPI PUSH1 0x40 MLOAD PUSH3 0x461BCD PUSH1 0xE5 SHL DUP2 MSTORE PUSH1 0x20 PUSH1 0x4 DUP3 ADD DUP2 SWAP1 MSTORE PUSH1 0x24 DUP3 ADD MSTORE PUSH32 0x4661696C656420746F207472616E736665722072657761726420746F6B656E73 PUSH1 0x44 DUP3 ADD MSTORE PUSH1 0x64 ADD PUSH2 0x99A JUMP JUMPDEST PUSH1 0x40 DUP1 MLOAD CALLER DUP2 MSTORE PUSH1 0x20 DUP2 ADD DUP5 SWAP1 MSTORE PUSH32 0xD8A9090919355543D8C79690CEEE3933C0BD4FFC742AE7F790D4BF44A043BB6C SWAP2 ADD PUSH1 0x40 MLOAD DUP1 SWAP2 SUB SWAP1 LOG1 POP POP PUSH2 0xDFA PUSH1 0x1 PUSH1 0x0 DUP1 MLOAD PUSH1 0x20 PUSH2 0x5434 DUP4 CODECOPY DUP2 MLOAD SWAP2 MSTORE SSTORE JUMP JUMPDEST POP POP JUMP JUMPDEST PUSH1 0x0 PUSH2 0xE09 DUP2 PUSH2 0x43A4 JUMP JUMPDEST PUSH2 0xE11 PUSH2 0x442F JUMP JUMPDEST PUSH2 0xE19 PUSH2 0x21DB JUMP JUMPDEST PUSH1 0x1 PUSH1 0x1 PUSH1 0xA0 SHL SUB AND CALLER PUSH1 0x1 PUSH1 0x1 PUSH1 0xA0 SHL SUB AND EQ PUSH2 0xE92 JUMPI PUSH1 0x40 MLOAD PUSH3 0x461BCD PUSH1 0xE5 SHL DUP2 MSTORE PUSH1 0x20 PUSH1 0x4 DUP3 ADD MSTORE PUSH1 0x30 PUSH1 0x24 DUP3 ADD MSTORE PUSH32 0x4F6E6C7920746865206F776E65722063616E2075706461746520746865207465 PUSH1 0x44 DUP3 ADD MSTORE PUSH16 0x185B481B595B58995C881DD85B1B195D PUSH1 0x82 SHL PUSH1 0x64 DUP3 ADD MSTORE PUSH1 0x84 ADD PUSH2 0x99A JUMP JUMPDEST PUSH1 0xD SLOAD PUSH1 0xFF AND PUSH2 0xF0A JUMPI PUSH1 0x40 MLOAD PUSH3 0x461BCD PUSH1 0xE5 SHL DUP2 MSTORE PUSH1 0x20 PUSH1 0x4 DUP3 ADD MSTORE PUSH1 0x3D PUSH1 0x24 DUP3 ADD MSTORE PUSH32 0x5465616D20746F6B656E732066756E64696E6720686173206E6F742073746172 PUSH1 0x44 DUP3 ADD MSTORE PUSH32 0x746564207965742C206E6F20746F6B656E7320746F207265636F766572000000 PUSH1 0x64 DUP3 ADD MSTORE PUSH1 0x84 ADD PUSH2 0x99A JUMP JUMPDEST PUSH1 0x1 PUSH1 0x1 PUSH1 0xA0 SHL SUB DUP4 AND PUSH1 0x0 SWAP1 DUP2 MSTORE PUSH1 0x15 PUSH1 0x20 MSTORE PUSH1 0x40 SWAP1 KECCAK256 PUSH1 0x9 ADD SLOAD PUSH1 0xFF AND PUSH2 0xF85 JUMPI PUSH1 0x40 MLOAD PUSH3 0x461BCD PUSH1 0xE5 SHL DUP2 MSTORE PUSH1 0x20 PUSH1 0x4 DUP3 ADD MSTORE PUSH1 0x27 PUSH1 0x24 DUP3 ADD MSTORE PUSH32 0x4F6C642077616C6C65742061646472657373206973206E6F742061207465616D PUSH1 0x44 DUP3 ADD MSTORE PUSH7 0x81DD85B1B195D PUSH1 0xCA SHL PUSH1 0x64 DUP3 ADD MSTORE PUSH1 0x84 ADD PUSH2 0x99A JUMP JUMPDEST PUSH1 0x1 PUSH1 0x1 PUSH1 0xA0 SHL SUB DUP4 AND PUSH1 0x0 SWAP1 DUP2 MSTORE PUSH1 0x15 PUSH1 0x20 MSTORE PUSH1 0x40 SWAP1 KECCAK256 PUSH1 0x9 ADD SLOAD PUSH2 0x100 SWAP1 DIV PUSH1 0xFF AND PUSH2 0x100F JUMPI PUSH1 0x40 MLOAD PUSH3 0x461BCD PUSH1 0xE5 SHL DUP2 MSTORE PUSH1 0x20 PUSH1 0x4 DUP3 ADD MSTORE PUSH1 0x31 PUSH1 0x24 DUP3 ADD MSTORE PUSH32 0x4F6C64207465616D206D656D6265722077616C6C657420616464726573732069 PUSH1 0x44 DUP3 ADD MSTORE PUSH17 0x1CC81B9BDD081DDA1A5D195B1A5CDD1959 PUSH1 0x7A SHL PUSH1 0x64 DUP3 ADD MSTORE PUSH1 0x84 ADD PUSH2 0x99A JUMP JUMPDEST PUSH1 0x1 PUSH1 0x1 PUSH1 0xA0 SHL SUB DUP4 AND PUSH1 0x0 SWAP1 DUP2 MSTORE PUSH1 0x15 PUSH1 0x20 MSTORE PUSH1 0x40 SWAP1 KECCAK256 PUSH1 0x9 ADD SLOAD PUSH3 0x10000 SWAP1 DIV PUSH1 0xFF AND ISZERO PUSH2 0x1097 JUMPI PUSH1 0x40 MLOAD PUSH3 0x461BCD PUSH1 0xE5 SHL DUP2 MSTORE PUSH1 0x20 PUSH1 0x4 DUP3 ADD MSTORE PUSH1 0x2D PUSH1 0x24 DUP3 ADD MSTORE PUSH32 0x4F6C64207465616D206D656D6265722077616C6C657420616464726573732069 PUSH1 0x44 DUP3 ADD MSTORE PUSH13 0x1CC8189B1858DADB1A5CDD1959 PUSH1 0x9A SHL PUSH1 0x64 DUP3 ADD MSTORE PUSH1 0x84 ADD PUSH2 0x99A JUMP JUMPDEST PUSH1 0x1 PUSH1 0x1 PUSH1 0xA0 SHL SUB DUP3 AND PUSH2 0x1113 JUMPI PUSH1 0x40 MLOAD PUSH3 0x461BCD PUSH1 0xE5 SHL DUP2 MSTORE PUSH1 0x20 PUSH1 0x4 DUP3 ADD MSTORE PUSH1 0x39 PUSH1 0x24 DUP3 ADD MSTORE PUSH32 0x4E6577207465616D206D656D6265722077616C6C657420616464726573732063 PUSH1 0x44 DUP3 ADD MSTORE PUSH32 0x616E6E6F7420626520746865207A65726F206164647265737300000000000000 PUSH1 0x64 DUP3 ADD MSTORE PUSH1 0x84 ADD PUSH2 0x99A JUMP JUMPDEST DUP3 PUSH1 0x1 PUSH1 0x1 PUSH1 0xA0 SHL SUB AND DUP3 PUSH1 0x1 PUSH1 0x1 PUSH1 0xA0 SHL SUB AND SUB PUSH2 0x11C0 JUMPI PUSH1 0x40 MLOAD PUSH3 0x461BCD PUSH1 0xE5 SHL DUP2 MSTORE PUSH1 0x20 PUSH1 0x4 DUP3 ADD MSTORE PUSH1 0x57 PUSH1 0x24 DUP3 ADD MSTORE PUSH32 0x4E6577207465616D206D656D6265722077616C6C657420616464726573732063 PUSH1 0x44 DUP3 ADD MSTORE PUSH32 0x616E6E6F74206265207468652073616D6520617320746865206F6C6420746561 PUSH1 0x64 DUP3 ADD MSTORE PUSH32 0x6D206D656D6265722077616C6C65742061646472657373000000000000000000 PUSH1 0x84 DUP3 ADD MSTORE PUSH1 0xA4 ADD PUSH2 0x99A JUMP JUMPDEST PUSH1 0x1 PUSH1 0x1 PUSH1 0xA0 SHL SUB DUP3 AND PUSH1 0x0 SWAP1 DUP2 MSTORE PUSH1 0x15 PUSH1 0x20 MSTORE PUSH1 0x40 SWAP1 KECCAK256 PUSH1 0x9 ADD SLOAD PUSH2 0x100 SWAP1 DIV PUSH1 0xFF AND ISZERO PUSH2 0x124F JUMPI PUSH1 0x40 MLOAD PUSH3 0x461BCD PUSH1 0xE5 SHL DUP2 MSTORE PUSH1 0x20 PUSH1 0x4 DUP3 ADD MSTORE PUSH1 0x35 PUSH1 0x24 DUP3 ADD MSTORE PUSH32 0x4E6577207465616D206D656D6265722077616C6C657420616464726573732069 PUSH1 0x44 DUP3 ADD MSTORE PUSH21 0x1CC8185B1C9958591E481DDA1A5D195B1A5CDD1959 PUSH1 0x5A SHL PUSH1 0x64 DUP3 ADD MSTORE PUSH1 0x84 ADD PUSH2 0x99A JUMP JUMPDEST PUSH1 0x1 PUSH1 0x1 PUSH1 0xA0 SHL SUB DUP3 AND PUSH1 0x0 SWAP1 DUP2 MSTORE PUSH1 0x15 PUSH1 0x20 MSTORE PUSH1 0x40 SWAP1 KECCAK256 PUSH1 0x9 ADD SLOAD PUSH1 0xFF AND ISZERO PUSH2 0x12E1 JUMPI PUSH1 0x40 MLOAD PUSH3 0x461BCD PUSH1 0xE5 SHL DUP2 MSTORE PUSH1 0x20 PUSH1 0x4 DUP3 ADD MSTORE PUSH1 0x37 PUSH1 0x24 DUP3 ADD MSTORE PUSH32 0x4E6577207465616D206D656D6265722077616C6C657420616464726573732069 PUSH1 0x44 DUP3 ADD MSTORE PUSH32 0x7320616C72656164792061207465616D2077616C6C6574000000000000000000 PUSH1 0x64 DUP3 ADD MSTORE PUSH1 0x84 ADD PUSH2 0x99A JUMP JUMPDEST PUSH1 0x1 PUSH1 0x1 PUSH1 0xA0 SHL SUB DUP3 AND PUSH1 0x0 SWAP1 DUP2 MSTORE PUSH1 0x15 PUSH1 0x20 MSTORE PUSH1 0x40 SWAP1 KECCAK256 PUSH1 0x9 ADD SLOAD PUSH3 0x10000 SWAP1 DIV PUSH1 0xFF AND ISZERO PUSH2 0x1369 JUMPI PUSH1 0x40 MLOAD PUSH3 0x461BCD PUSH1 0xE5 SHL DUP2 MSTORE PUSH1 0x20 PUSH1 0x4 DUP3 ADD MSTORE PUSH1 0x2D PUSH1 0x24 DUP3 ADD MSTORE PUSH32 0x4E6577207465616D206D656D6265722077616C6C657420616464726573732069 PUSH1 0x44 DUP3 ADD MSTORE PUSH13 0x1CC8189B1858DADB1A5CDD1959 PUSH1 0x9A SHL PUSH1 0x64 DUP3 ADD MSTORE PUSH1 0x84 ADD PUSH2 0x99A JUMP JUMPDEST PUSH1 0x1 PUSH1 0x1 PUSH1 0xA0 SHL SUB DUP1 DUP5 AND PUSH1 0x0 SWAP1 DUP2 MSTORE PUSH1 0x15 PUSH1 0x20 MSTORE PUSH1 0x40 DUP1 DUP3 KECCAK256 SWAP3 DUP6 AND DUP3 MSTORE DUP2 KECCAK256 PUSH1 0x9 DUP1 DUP5 ADD DUP1 SLOAD PUSH3 0xFFFFFF NOT SWAP1 DUP2 AND PUSH3 0x10000 OR SWAP1 SWAP2 SSTORE SWAP1 DUP3 ADD DUP1 SLOAD SWAP1 SWAP2 AND PUSH2 0x101 OR DUP2 SSTORE PUSH1 0x1 DUP1 DUP6 ADD DUP1 SLOAD DUP3 DUP6 ADD SSTORE DUP6 SLOAD DUP5 SSTORE PUSH1 0x5 DUP1 DUP8 ADD SLOAD SWAP1 DUP6 ADD SSTORE PUSH1 0x6 DUP1 DUP8 ADD DUP1 SLOAD SWAP2 DUP7 ADD DUP1 SLOAD PUSH1 0xFF NOT SWAP1 DUP2 AND PUSH1 0xFF SWAP5 DUP6 AND OR SWAP1 SWAP2 SSTORE SWAP3 DUP8 SWAP1 SSTORE SWAP6 DUP8 SSTORE DUP6 SLOAD SWAP1 SWAP2 AND SWAP1 SWAP5 SSTORE SWAP1 SLOAD SWAP2 SWAP3 PUSH2 0x100 SWAP1 SWAP3 DIV SWAP1 SWAP2 AND ISZERO ISZERO EQ DUP1 ISZERO PUSH2 0x1428 JUMPI POP PUSH1 0x1 PUSH1 0x1 PUSH1 0xA0 SHL SUB DUP5 AND PUSH1 0x0 SWAP1 DUP2 MSTORE PUSH1 0x15 PUSH1 0x20 MSTORE PUSH1 0x40 SWAP1 KECCAK256 PUSH1 0x5 ADD SLOAD ISZERO ISZERO JUMPDEST DUP1 ISZERO PUSH2 0x144D JUMPI POP PUSH1 0x1 PUSH1 0x1 PUSH1 0xA0 SHL SUB DUP6 AND PUSH1 0x0 SWAP1 DUP2 MSTORE PUSH1 0x15 PUSH1 0x20 MSTORE PUSH1 0x40 SWAP1 KECCAK256 PUSH1 0x1 ADD SLOAD ISZERO JUMPDEST DUP1 ISZERO PUSH2 0x146F JUMPI POP PUSH1 0x1 PUSH1 0x1 PUSH1 0xA0 SHL SUB DUP6 AND PUSH1 0x0 SWAP1 DUP2 MSTORE PUSH1 0x15 PUSH1 0x20 MSTORE PUSH1 0x40 SWAP1 KECCAK256 SLOAD ISZERO JUMPDEST PUSH2 0x14CB JUMPI PUSH1 0x40 MLOAD PUSH3 0x461BCD PUSH1 0xE5 SHL DUP2 MSTORE PUSH1 0x20 PUSH1 0x4 DUP3 ADD MSTORE PUSH1 0x27 PUSH1 0x24 DUP3 ADD MSTORE PUSH32 0x4661696C656420746F2075706461746520746865207465616D206D656D626572 PUSH1 0x44 DUP3 ADD MSTORE PUSH7 0x81DD85B1B195D PUSH1 0xCA SHL PUSH1 0x64 DUP3 ADD MSTORE PUSH1 0x84 ADD PUSH2 0x99A JUMP JUMPDEST DUP1 SLOAD PUSH1 0x40 DUP1 MLOAD PUSH1 0x1 PUSH1 0x1 PUSH1 0xA0 SHL SUB DUP9 DUP2 AND DUP3 MSTORE DUP8 AND PUSH1 0x20 DUP3 ADD MSTORE DUP1 DUP3 ADD SWAP3 SWAP1 SWAP3 MSTORE MLOAD PUSH32 0xA9DEFC7864DD156FA1C6384B685620C7012FA46B9E570145F7AEDECBBF38E9EF SWAP2 DUP2 SWAP1 SUB PUSH1 0x60 ADD SWAP1 LOG1 POP POP PUSH2 0xAB8 PUSH1 0x1 PUSH1 0x0 DUP1 MLOAD PUSH1 0x20 PUSH2 0x5434 DUP4 CODECOPY DUP2 MLOAD SWAP2 MSTORE SSTORE JUMP JUMPDEST PUSH1 0x0 PUSH2 0x153B DUP2 PUSH2 0x43A4 JUMP JUMPDEST PUSH2 0x1543 PUSH2 0x447B JUMP JUMPDEST POP JUMP JUMPDEST PUSH2 0x155C PUSH1 0x34 PUSH11 0x7C13BC4B2C133C56000000 PUSH2 0x4E01 JUMP JUMPDEST DUP2 JUMP JUMPDEST PUSH1 0x0 PUSH2 0x156A DUP2 PUSH2 0x43A4 JUMP JUMPDEST PUSH2 0x1572 PUSH2 0x442F JUMP JUMPDEST PUSH2 0x157A PUSH2 0x1926 JUMP JUMPDEST ISZERO PUSH2 0x1597 JUMPI PUSH1 0x40 MLOAD PUSH3 0x461BCD PUSH1 0xE5 SHL DUP2 MSTORE PUSH1 0x4 ADD PUSH2 0x99A SWAP1 PUSH2 0x4CC8 JUMP JUMPDEST PUSH2 0x159F PUSH2 0x21DB JUMP JUMPDEST PUSH1 0x1 PUSH1 0x1 PUSH1 0xA0 SHL SUB AND CALLER PUSH1 0x1 PUSH1 0x1 PUSH1 0xA0 SHL SUB AND EQ PUSH2 0x1611 JUMPI PUSH1 0x40 MLOAD PUSH3 0x461BCD PUSH1 0xE5 SHL DUP2 MSTORE PUSH1 0x20 PUSH1 0x4 DUP3 ADD MSTORE PUSH1 0x29 PUSH1 0x24 DUP3 ADD MSTORE PUSH32 0x4F6E6C7920746865206F776E65722063616E2077697468647261772067726F77 PUSH1 0x44 DUP3 ADD MSTORE PUSH9 0x746820746F6B656E73 PUSH1 0xB8 SHL PUSH1 0x64 DUP3 ADD MSTORE PUSH1 0x84 ADD PUSH2 0x99A JUMP JUMPDEST PUSH1 0x8 SLOAD PUSH1 0xFF AND PUSH2 0x1633 JUMPI PUSH1 0x40 MLOAD PUSH3 0x461BCD PUSH1 0xE5 SHL DUP2 MSTORE PUSH1 0x4 ADD PUSH2 0x99A SWAP1 PUSH2 0x4E23 JUMP JUMPDEST PUSH4 0x1E13380 PUSH1 0x7 SLOAD PUSH2 0x1645 SWAP2 SWAP1 PUSH2 0x4DBE JUMP JUMPDEST TIMESTAMP LT ISZERO PUSH2 0x16AE JUMPI PUSH1 0x40 MLOAD PUSH3 0x461BCD PUSH1 0xE5 SHL DUP2 MSTORE PUSH1 0x20 PUSH1 0x4 DUP3 ADD MSTORE PUSH1 0x31 PUSH1 0x24 DUP3 ADD MSTORE PUSH32 0x43616E6E6F74207769746864726177206265666F726520312079656172206166 PUSH1 0x44 DUP3 ADD MSTORE PUSH17 0x1D195C88199D5B991A5B99C81CDD185C9D PUSH1 0x7A SHL PUSH1 0x64 DUP3 ADD MSTORE PUSH1 0x84 ADD PUSH2 0x99A JUMP JUMPDEST PUSH12 0x7C13BC4B2C133C560000000 PUSH1 0x4 SLOAD LT PUSH2 0x1719 JUMPI PUSH1 0x40 MLOAD PUSH3 0x461BCD PUSH1 0xE5 SHL DUP2 MSTORE PUSH1 0x20 PUSH1 0x4 DUP3 ADD MSTORE PUSH1 0x25 PUSH1 0x24 DUP3 ADD MSTORE PUSH32 0x416C6C2067726F77746820746F6B656E732068617665206265656E2077697468 PUSH1 0x44 DUP3 ADD MSTORE PUSH5 0x323930BBB7 PUSH1 0xD9 SHL PUSH1 0x64 DUP3 ADD MSTORE PUSH1 0x84 ADD PUSH2 0x99A JUMP JUMPDEST PUSH4 0x1E13380 PUSH1 0x6 SLOAD PUSH2 0x172B SWAP2 SWAP1 PUSH2 0x4DBE JUMP JUMPDEST TIMESTAMP LT ISZERO PUSH2 0x177A JUMPI PUSH1 0x40 MLOAD PUSH3 0x461BCD PUSH1 0xE5 SHL DUP2 MSTORE PUSH1 0x20 PUSH1 0x4 DUP3 ADD MSTORE PUSH1 0x1F PUSH1 0x24 DUP3 ADD MSTORE PUSH32 0x43616E206F6E6C79207769746864726177206F6E636520706572207965617200 PUSH1 0x44 DUP3 ADD MSTORE PUSH1 0x64 ADD PUSH2 0x99A JUMP JUMPDEST PUSH1 0x4 SLOAD PUSH11 0x6342FD08F00F6378000000 SWAP1 PUSH1 0x0 SWAP1 PUSH2 0x1798 SWAP1 DUP4 SWAP1 PUSH2 0x4DBE JUMP JUMPDEST SWAP1 POP PUSH12 0x7C13BC4B2C133C560000000 DUP2 GT ISZERO PUSH2 0x17CA JUMPI PUSH1 0x4 SLOAD PUSH2 0x17C7 SWAP1 PUSH12 0x7C13BC4B2C133C560000000 PUSH2 0x4DD1 JUMP JUMPDEST SWAP2 POP JUMPDEST DUP2 PUSH1 0x4 PUSH1 0x0 DUP3 DUP3 SLOAD PUSH2 0x17DC SWAP2 SWAP1 PUSH2 0x4DBE JUMP JUMPDEST SWAP3 POP POP DUP2 SWAP1 SSTORE POP DUP2 PUSH1 0x5 PUSH1 0x0 DUP3 DUP3 SLOAD PUSH2 0x17F5 SWAP2 SWAP1 PUSH2 0x4DD1 JUMP JUMPDEST SWAP1 SWAP2 SSTORE POP POP TIMESTAMP PUSH1 0x6 SSTORE PUSH1 0x2 SLOAD PUSH1 0x1 PUSH1 0x1 PUSH1 0xA0 SHL SUB AND PUSH4 0xA9059CBB PUSH2 0x1817 PUSH2 0x21DB JUMP JUMPDEST PUSH1 0x40 MLOAD PUSH1 0x1 PUSH1 0x1 PUSH1 0xE0 SHL SUB NOT PUSH1 0xE0 DUP5 SWAP1 SHL AND DUP2 MSTORE PUSH1 0x1 PUSH1 0x1 PUSH1 0xA0 SHL SUB SWAP1 SWAP2 AND PUSH1 0x4 DUP3 ADD MSTORE PUSH1 0x24 DUP2 ADD DUP6 SWAP1 MSTORE PUSH1 0x44 ADD PUSH1 0x20 PUSH1 0x40 MLOAD DUP1 DUP4 SUB DUP2 PUSH1 0x0 DUP8 GAS CALL ISZERO DUP1 ISZERO PUSH2 0x1864 JUMPI RETURNDATASIZE PUSH1 0x0 DUP1 RETURNDATACOPY RETURNDATASIZE PUSH1 0x0 REVERT JUMPDEST POP POP POP POP PUSH1 0x40 MLOAD RETURNDATASIZE PUSH1 0x1F NOT PUSH1 0x1F DUP3 ADD AND DUP3 ADD DUP1 PUSH1 0x40 MSTORE POP DUP2 ADD SWAP1 PUSH2 0x1888 SWAP2 SWAP1 PUSH2 0x4DE4 JUMP JUMPDEST PUSH2 0x18D4 JUMPI PUSH1 0x40 MLOAD PUSH3 0x461BCD PUSH1 0xE5 SHL DUP2 MSTORE PUSH1 0x20 PUSH1 0x4 DUP3 ADD DUP2 SWAP1 MSTORE PUSH1 0x24 DUP3 ADD MSTORE PUSH32 0x4661696C656420746F207472616E736665722067726F77746820746F6B656E73 PUSH1 0x44 DUP3 ADD MSTORE PUSH1 0x64 ADD PUSH2 0x99A JUMP JUMPDEST PUSH1 0x40 DUP1 MLOAD CALLER DUP2 MSTORE PUSH1 0x20 DUP2 ADD DUP5 SWAP1 MSTORE PUSH32 0xD0A5227BFA49CF178A8F7A87B90318EF05FC8330F469E0DCCBE075784F426DBF SWAP2 ADD PUSH1 0x40 MLOAD DUP1 SWAP2 SUB SWAP1 LOG1 POP POP PUSH2 0x1543 PUSH1 0x1 PUSH1 0x0 DUP1 MLOAD PUSH1 0x20 PUSH2 0x5434 DUP4 CODECOPY DUP2 MLOAD SWAP2 MSTORE SSTORE JUMP JUMPDEST PUSH1 0x0 DUP1 MLOAD PUSH1 0x20 PUSH2 0x5414 DUP4 CODECOPY DUP2 MLOAD SWAP2 MSTORE SLOAD PUSH1 0xFF AND SWAP1 JUMP JUMPDEST PUSH1 0x0 PUSH2 0x1947 DUP2 PUSH2 0x43A4 JUMP JUMPDEST PUSH1 0x1 PUSH1 0x1 PUSH1 0xA0 SHL SUB DUP3 AND PUSH2 0x19B5 JUMPI PUSH1 0x40 MLOAD PUSH3 0x461BCD PUSH1 0xE5 SHL DUP2 MSTORE PUSH1 0x20 PUSH1 0x4 DUP3 ADD MSTORE PUSH1 0x2F PUSH1 0x24 DUP3 ADD MSTORE PUSH32 0x5768697465206C697374657220616464726573732063616E6E6F742062652074 PUSH1 0x44 DUP3 ADD MSTORE PUSH15 0x6865207A65726F2061646472657373 PUSH1 0x88 SHL PUSH1 0x64 DUP3 ADD MSTORE PUSH1 0x84 ADD PUSH2 0x99A JUMP JUMPDEST PUSH1 0x13 SLOAD PUSH2 0x19DF SWAP1 PUSH1 0x0 DUP1 MLOAD PUSH1 0x20 PUSH2 0x53D4 DUP4 CODECOPY DUP2 MLOAD SWAP2 MSTORE SWAP1 PUSH2 0x100 SWAP1 DIV PUSH1 0x1 PUSH1 0x1 PUSH1 0xA0 SHL SUB AND PUSH2 0x364C JUMP JUMPDEST PUSH2 0x19F7 PUSH1 0x0 DUP1 MLOAD PUSH1 0x20 PUSH2 0x53D4 DUP4 CODECOPY DUP2 MLOAD SWAP2 MSTORE DUP4 PUSH2 0xA63 JUMP JUMPDEST PUSH1 0x13 DUP1 SLOAD PUSH2 0x100 PUSH1 0x1 PUSH1 0xA8 SHL SUB NOT AND PUSH2 0x100 PUSH1 0x1 PUSH1 0x1 PUSH1 0xA0 SHL SUB DUP6 AND SWAP1 DUP2 MUL SWAP2 SWAP1 SWAP2 OR SWAP1 SWAP2 SSTORE PUSH1 0x40 MLOAD SWAP1 DUP2 MSTORE PUSH32 0x6BDAB87CEBF48EC7916084AB67BB3D8A596E0D1E3B5572596393F266D9EA3057 SWAP1 PUSH1 0x20 ADD PUSH2 0xA57 JUMP JUMPDEST PUSH1 0x0 PUSH2 0x1A58 DUP2 PUSH2 0x43A4 JUMP JUMPDEST PUSH1 0x1 PUSH1 0x1 PUSH1 0xA0 SHL SUB DUP3 AND PUSH2 0x1AC9 JUMPI PUSH1 0x40 MLOAD PUSH3 0x461BCD PUSH1 0xE5 SHL DUP2 MSTORE PUSH1 0x20 PUSH1 0x4 DUP3 ADD MSTORE PUSH1 0x32 PUSH1 0x24 DUP3 ADD MSTORE PUSH32 0x52657761726473207570646174657220616464726573732063616E6E6F742062 PUSH1 0x44 DUP3 ADD MSTORE PUSH18 0x6520746865207A65726F2061646472657373 PUSH1 0x70 SHL PUSH1 0x64 DUP3 ADD MSTORE PUSH1 0x84 ADD PUSH2 0x99A JUMP JUMPDEST PUSH1 0x14 SLOAD PUSH2 0x1AEE SWAP1 PUSH1 0x0 DUP1 MLOAD PUSH1 0x20 PUSH2 0x53B4 DUP4 CODECOPY DUP2 MLOAD SWAP2 MSTORE SWAP1 PUSH1 0x1 PUSH1 0x1 PUSH1 0xA0 SHL SUB AND PUSH2 0x364C JUMP JUMPDEST PUSH2 0x1B06 PUSH1 0x0 DUP1 MLOAD PUSH1 0x20 PUSH2 0x53B4 DUP4 CODECOPY DUP2 MLOAD SWAP2 MSTORE DUP4 PUSH2 0xA63 JUMP JUMPDEST PUSH1 0x14 DUP1 SLOAD PUSH1 0x1 PUSH1 0x1 PUSH1 0xA0 SHL SUB NOT AND PUSH1 0x1 PUSH1 0x1 PUSH1 0xA0 SHL SUB DUP5 AND SWAP1 DUP2 OR SWAP1 SWAP2 SSTORE PUSH1 0x40 MLOAD SWAP1 DUP2 MSTORE PUSH32 0x7946FB32EB39758C8854BA2C1D63C5ED4C7A95CDB748090128FA33A803A29894 SWAP1 PUSH1 0x20 ADD PUSH2 0xA57 JUMP JUMPDEST PUSH1 0x0 PUSH2 0x1B5F DUP2 PUSH2 0x43A4 JUMP JUMPDEST PUSH2 0x1543 PUSH2 0x44DB JUMP JUMPDEST PUSH2 0x1B7F PUSH1 0x0 DUP1 MLOAD PUSH1 0x20 PUSH2 0x53D4 DUP4 CODECOPY DUP2 MLOAD SWAP2 MSTORE CALLER PUSH2 0x221B JUMP JUMPDEST DUP1 PUSH2 0x1B90 JUMPI POP PUSH2 0x1B90 PUSH1 0x0 CALLER PUSH2 0x221B JUMP JUMPDEST PUSH2 0x1BAC JUMPI PUSH1 0x40 MLOAD PUSH3 0x461BCD PUSH1 0xE5 SHL DUP2 MSTORE PUSH1 0x4 ADD PUSH2 0x99A SWAP1 PUSH2 0x4E81 JUMP JUMPDEST PUSH1 0x1 PUSH1 0x1 PUSH1 0xA0 SHL SUB DUP4 AND PUSH2 0x1C0D JUMPI PUSH1 0x40 MLOAD PUSH3 0x461BCD PUSH1 0xE5 SHL DUP2 MSTORE PUSH1 0x20 PUSH1 0x4 DUP3 ADD MSTORE PUSH1 0x22 PUSH1 0x24 DUP3 ADD MSTORE PUSH32 0x416464726573732063616E6E6F7420626520746865207A65726F206164647265 PUSH1 0x44 DUP3 ADD MSTORE PUSH2 0x7373 PUSH1 0xF0 SHL PUSH1 0x64 DUP3 ADD MSTORE PUSH1 0x84 ADD PUSH2 0x99A JUMP JUMPDEST PUSH1 0x1 PUSH1 0x1 PUSH1 0xA0 SHL SUB DUP4 AND EXTCODESIZE ISZERO PUSH2 0x1C78 JUMPI PUSH1 0x40 MLOAD PUSH3 0x461BCD PUSH1 0xE5 SHL DUP2 MSTORE PUSH1 0x20 PUSH1 0x4 DUP3 ADD MSTORE PUSH1 0x2A PUSH1 0x24 DUP3 ADD MSTORE PUSH32 0x496E76616C69642061646472657373206C656E677468206F7220636F6E747261 PUSH1 0x44 DUP3 ADD MSTORE PUSH10 0x63742061646472657373 PUSH1 0xB0 SHL PUSH1 0x64 DUP3 ADD MSTORE PUSH1 0x84 ADD PUSH2 0x99A JUMP JUMPDEST PUSH1 0x1 PUSH1 0x1 PUSH1 0xA0 SHL SUB DUP4 AND PUSH1 0x0 SWAP1 DUP2 MSTORE PUSH1 0x15 PUSH1 0x20 MSTORE PUSH1 0x40 SWAP1 KECCAK256 PUSH1 0x9 ADD SLOAD PUSH2 0x100 SWAP1 DIV PUSH1 0xFF AND ISZERO PUSH2 0x1CE9 JUMPI PUSH1 0x40 MLOAD PUSH3 0x461BCD PUSH1 0xE5 SHL DUP2 MSTORE PUSH1 0x20 PUSH1 0x4 DUP3 ADD MSTORE PUSH1 0x1D PUSH1 0x24 DUP3 ADD MSTORE PUSH32 0x57616C6C657420697320616C72656164792077686974656C6973746564000000 PUSH1 0x44 DUP3 ADD MSTORE PUSH1 0x64 ADD PUSH2 0x99A JUMP JUMPDEST PUSH1 0x1 PUSH1 0x1 PUSH1 0xA0 SHL SUB DUP4 AND PUSH1 0x0 SWAP1 DUP2 MSTORE PUSH1 0x15 PUSH1 0x20 MSTORE PUSH1 0x40 SWAP1 KECCAK256 PUSH1 0x9 ADD SLOAD PUSH3 0x10000 SWAP1 DIV PUSH1 0xFF AND ISZERO PUSH2 0x1D2B JUMPI PUSH1 0x40 MLOAD PUSH3 0x461BCD PUSH1 0xE5 SHL DUP2 MSTORE PUSH1 0x4 ADD PUSH2 0x99A SWAP1 PUSH2 0x4C91 JUMP JUMPDEST PUSH1 0x1 PUSH1 0x1 PUSH1 0xA0 SHL SUB DUP4 AND PUSH1 0x0 SWAP1 DUP2 MSTORE PUSH1 0x15 PUSH1 0x20 MSTORE PUSH1 0x40 SWAP1 KECCAK256 PUSH1 0x5 ADD SLOAD ISZERO PUSH2 0x1DAB JUMPI PUSH1 0x40 MLOAD PUSH3 0x461BCD PUSH1 0xE5 SHL DUP2 MSTORE PUSH1 0x20 PUSH1 0x4 DUP3 ADD MSTORE PUSH1 0x2E PUSH1 0x24 DUP3 ADD MSTORE PUSH32 0x57616C6C65742068617320616C7265616479206265656E20616464656420746F PUSH1 0x44 DUP3 ADD MSTORE PUSH14 0x81D1A19481DDA1A5D195B1A5CDD PUSH1 0x92 SHL PUSH1 0x64 DUP3 ADD MSTORE PUSH1 0x84 ADD PUSH2 0x99A JUMP JUMPDEST PUSH1 0x1 PUSH1 0x1 PUSH1 0xA0 SHL SUB DUP4 AND PUSH1 0x0 SWAP1 DUP2 MSTORE PUSH1 0x15 PUSH1 0x20 MSTORE PUSH1 0x40 DUP2 KECCAK256 PUSH1 0x9 DUP2 ADD DUP1 SLOAD DUP6 ISZERO DUP1 ISZERO PUSH3 0xFFFFFF NOT SWAP1 SWAP3 AND SWAP2 SWAP1 SWAP2 OR PUSH2 0x100 OR SWAP1 SWAP2 SSTORE TIMESTAMP PUSH1 0x5 DUP4 ADD SSTORE PUSH1 0x6 DUP3 ADD DUP1 SLOAD PUSH1 0xFF NOT AND SWAP1 SSTORE PUSH1 0x7 DUP3 ADD DUP4 SWAP1 SSTORE PUSH1 0x3 DUP3 ADD DUP4 SWAP1 SSTORE PUSH1 0x2 DUP3 ADD DUP4 SWAP1 SSTORE PUSH1 0x4 SWAP1 SWAP2 ADD SWAP2 SWAP1 SWAP2 SSTORE PUSH2 0x1F5F JUMPI PUSH1 0x0 DUP2 GT PUSH2 0x1E98 JUMPI PUSH1 0x40 MLOAD PUSH3 0x461BCD PUSH1 0xE5 SHL DUP2 MSTORE PUSH1 0x20 PUSH1 0x4 DUP3 ADD MSTORE PUSH1 0x44 PUSH1 0x24 DUP3 ADD DUP2 SWAP1 MSTORE PUSH32 0x5465616D2077616C6C657473206D757374206265206164646564207769746820 SWAP1 DUP3 ADD MSTORE PUSH32 0x61206879617820686F6C64696E6720616D6F756E742067726561746572207468 PUSH1 0x64 DUP3 ADD MSTORE PUSH4 0x616E203 PUSH1 0xE4 SHL PUSH1 0x84 DUP3 ADD MSTORE PUSH1 0xA4 ADD PUSH2 0x99A JUMP JUMPDEST PUSH12 0x4D8C55AEFB8C05B5C000000 DUP2 GT ISZERO PUSH2 0x1F38 JUMPI PUSH1 0x40 MLOAD PUSH3 0x461BCD PUSH1 0xE5 SHL DUP2 MSTORE PUSH1 0x20 PUSH1 0x4 DUP3 ADD MSTORE PUSH1 0x55 PUSH1 0x24 DUP3 ADD MSTORE PUSH32 0x5465616D2077616C6C657473206D757374206265206164646564207769746820 PUSH1 0x44 DUP3 ADD MSTORE PUSH32 0x61206879617820686F6C64696E6720616D6F756E74206C657373207468616E20 PUSH1 0x64 DUP3 ADD MSTORE PUSH21 0x74686520746F74616C207465616D20746F6B656E73 PUSH1 0x58 SHL PUSH1 0x84 DUP3 ADD MSTORE PUSH1 0xA4 ADD PUSH2 0x99A JUMP JUMPDEST PUSH1 0x1 PUSH1 0x1 PUSH1 0xA0 SHL SUB DUP4 AND PUSH1 0x0 SWAP1 DUP2 MSTORE PUSH1 0x15 PUSH1 0x20 MSTORE PUSH1 0x40 SWAP1 KECCAK256 PUSH1 0x1 DUP2 ADD DUP3 SWAP1 SSTORE DUP2 SWAP1 SSTORE PUSH2 0x1FFE JUMP JUMPDEST DUP1 ISZERO PUSH2 0x1FDD JUMPI PUSH1 0x40 MLOAD PUSH3 0x461BCD PUSH1 0xE5 SHL DUP2 MSTORE PUSH1 0x20 PUSH1 0x4 DUP3 ADD MSTORE PUSH1 0x41 PUSH1 0x24 DUP3 ADD MSTORE PUSH32 0x4E6F6E207465616D2077616C6C6574732063616E206F6E6C7920626520616464 PUSH1 0x44 DUP3 ADD MSTORE PUSH32 0x6564207769746820686F6C64696E6720616D6F756E7420657175616C20746F20 PUSH1 0x64 DUP3 ADD MSTORE PUSH1 0x3 PUSH1 0xFC SHL PUSH1 0x84 DUP3 ADD MSTORE PUSH1 0xA4 ADD PUSH2 0x99A JUMP JUMPDEST PUSH1 0x1 PUSH1 0x1 PUSH1 0xA0 SHL SUB DUP4 AND PUSH1 0x0 SWAP1 DUP2 MSTORE PUSH1 0x15 PUSH1 0x20 MSTORE PUSH1 0x40 DUP2 KECCAK256 PUSH1 0x1 DUP2 ADD DUP3 SWAP1 SSTORE SSTORE JUMPDEST PUSH1 0x1 PUSH1 0x1 PUSH1 0xA0 SHL SUB DUP4 AND PUSH1 0x0 SWAP1 DUP2 MSTORE PUSH1 0x15 PUSH1 0x20 MSTORE PUSH1 0x40 SWAP1 KECCAK256 PUSH1 0x9 ADD SLOAD PUSH1 0xFF PUSH2 0x100 SWAP1 SWAP2 DIV AND ISZERO ISZERO PUSH1 0x1 EQ DUP1 ISZERO PUSH2 0x204E JUMPI POP PUSH1 0x1 PUSH1 0x1 PUSH1 0xA0 SHL SUB DUP4 AND PUSH1 0x0 SWAP1 DUP2 MSTORE PUSH1 0x15 PUSH1 0x20 MSTORE PUSH1 0x40 SWAP1 KECCAK256 PUSH1 0x5 ADD SLOAD ISZERO ISZERO JUMPDEST PUSH2 0x209A JUMPI PUSH1 0x40 MLOAD PUSH3 0x461BCD PUSH1 0xE5 SHL DUP2 MSTORE PUSH1 0x20 PUSH1 0x4 DUP3 ADD MSTORE PUSH1 0x1E PUSH1 0x24 DUP3 ADD MSTORE PUSH32 0x4661696C656420746F2077686974656C697374207468652077616C6C65740000 PUSH1 0x44 DUP3 ADD MSTORE PUSH1 0x64 ADD PUSH2 0x99A JUMP JUMPDEST PUSH1 0x40 DUP1 MLOAD CALLER DUP2 MSTORE PUSH1 0x1 PUSH1 0x1 PUSH1 0xA0 SHL SUB DUP6 AND PUSH1 0x20 DUP3 ADD MSTORE DUP4 ISZERO ISZERO SWAP2 DUP2 ADD SWAP2 SWAP1 SWAP2 MSTORE PUSH1 0x60 DUP2 ADD DUP3 SWAP1 MSTORE PUSH32 0xC294E522BA20B0699FE578649971CEFDFDC8D0E330DB37D0437849F38B3960E6 SWAP1 PUSH1 0x80 ADD JUMPDEST PUSH1 0x40 MLOAD DUP1 SWAP2 SUB SWAP1 LOG1 POP POP POP JUMP JUMPDEST PUSH1 0xD SLOAD PUSH1 0x0 SWAP1 PUSH1 0xFF AND PUSH2 0x2159 JUMPI PUSH1 0x40 MLOAD PUSH3 0x461BCD PUSH1 0xE5 SHL DUP2 MSTORE PUSH1 0x20 PUSH1 0x4 DUP3 ADD MSTORE PUSH1 0x27 PUSH1 0x24 DUP3 ADD MSTORE PUSH32 0x5465616D20746F6B656E732066756E64696E6720686173206E6F742073746172 PUSH1 0x44 DUP3 ADD MSTORE PUSH7 0x1D1959081E595D PUSH1 0xCA SHL PUSH1 0x64 DUP3 ADD MSTORE PUSH1 0x84 ADD PUSH2 0x99A JUMP JUMPDEST PUSH1 0x0 PUSH1 0xC SLOAD TIMESTAMP PUSH2 0x2169 SWAP2 SWAP1 PUSH2 0x4DD1 JUMP JUMPDEST SWAP1 POP PUSH1 0x0 PUSH2 0x217B PUSH4 0x1E13380 DUP4 PUSH2 0x4E01 JUMP JUMPDEST SWAP1 POP PUSH1 0x8 DUP2 LT PUSH2 0x218E JUMPI PUSH1 0x5 SWAP3 POP POP POP SWAP1 JUMP JUMPDEST PUSH1 0x7 DUP2 LT PUSH2 0x219F JUMPI PUSH1 0x4 SWAP3 POP POP POP SWAP1 JUMP JUMPDEST PUSH1 0x6 DUP2 LT PUSH2 0x21B0 JUMPI PUSH1 0x3 SWAP3 POP POP POP SWAP1 JUMP JUMPDEST PUSH1 0x5 DUP2 LT PUSH2 0x21C1 JUMPI PUSH1 0x2 SWAP3 POP POP POP SWAP1 JUMP JUMPDEST PUSH1 0x4 DUP2 LT PUSH2 0x21D2 JUMPI PUSH1 0x1 SWAP3 POP POP POP SWAP1 JUMP JUMPDEST PUSH1 0x0 SWAP3 POP POP POP SWAP1 JUMP JUMPDEST PUSH1 0x0 PUSH2 0x21E7 DUP2 DUP1 PUSH2 0x21EC JUMP JUMPDEST SWAP1 POP SWAP1 JUMP JUMPDEST PUSH1 0x0 DUP3 DUP2 MSTORE PUSH1 0x0 DUP1 MLOAD PUSH1 0x20 PUSH2 0x5394 DUP4 CODECOPY DUP2 MLOAD SWAP2 MSTORE PUSH1 0x20 DUP2 SWAP1 MSTORE PUSH1 0x40 DUP3 KECCAK256 PUSH2 0x2213 SWAP1 DUP5 PUSH2 0x4524 JUMP JUMPDEST SWAP5 SWAP4 POP POP POP POP JUMP JUMPDEST PUSH1 0x0 SWAP2 DUP3 MSTORE PUSH1 0x0 DUP1 MLOAD PUSH1 0x20 PUSH2 0x53F4 DUP4 CODECOPY DUP2 MLOAD SWAP2 MSTORE PUSH1 0x20 SWAP1 DUP2 MSTORE PUSH1 0x40 DUP1 DUP5 KECCAK256 PUSH1 0x1 PUSH1 0x1 PUSH1 0xA0 SHL SUB SWAP4 SWAP1 SWAP4 AND DUP5 MSTORE SWAP2 SWAP1 MSTORE SWAP1 KECCAK256 SLOAD PUSH1 0xFF AND SWAP1 JUMP JUMPDEST CALLER PUSH1 0x0 DUP2 DUP2 MSTORE PUSH1 0x15 PUSH1 0x20 MSTORE PUSH1 0x40 SWAP1 KECCAK256 PUSH1 0x9 ADD SLOAD PUSH1 0xFF PUSH2 0x100 SWAP1 SWAP2 DIV AND ISZERO ISZERO PUSH1 0x1 EQ PUSH2 0x2290 JUMPI PUSH1 0x40 MLOAD PUSH3 0x461BCD PUSH1 0xE5 SHL DUP2 MSTORE PUSH1 0x4 ADD PUSH2 0x99A SWAP1 PUSH2 0x4C5A JUMP JUMPDEST CALLER PUSH1 0x0 DUP2 DUP2 MSTORE PUSH1 0x15 PUSH1 0x20 MSTORE PUSH1 0x40 SWAP1 KECCAK256 PUSH1 0x9 ADD SLOAD PUSH3 0x10000 SWAP1 DIV PUSH1 0xFF AND ISZERO PUSH2 0x22C9 JUMPI PUSH1 0x40 MLOAD PUSH3 0x461BCD PUSH1 0xE5 SHL DUP2 MSTORE PUSH1 0x4 ADD PUSH2 0x99A SWAP1 PUSH2 0x4C91 JUMP JUMPDEST PUSH2 0x22D1 PUSH2 0x442F JUMP JUMPDEST PUSH2 0x22D9 PUSH2 0x1926 JUMP JUMPDEST ISZERO PUSH2 0x22F6 JUMPI PUSH1 0x40 MLOAD PUSH3 0x461BCD PUSH1 0xE5 SHL DUP2 MSTORE PUSH1 0x4 ADD PUSH2 0x99A SWAP1 PUSH2 0x4CC8 JUMP JUMPDEST CALLER PUSH1 0x0 SWAP1 DUP2 MSTORE PUSH1 0x15 PUSH1 0x20 MSTORE PUSH1 0x40 SWAP1 KECCAK256 PUSH1 0x9 ADD SLOAD PUSH1 0xFF AND ISZERO ISZERO PUSH1 0x1 EQ PUSH2 0x2383 JUMPI PUSH1 0x40 MLOAD PUSH3 0x461BCD PUSH1 0xE5 SHL DUP2 MSTORE PUSH1 0x20 PUSH1 0x4 DUP3 ADD MSTORE PUSH1 0x39 PUSH1 0x24 DUP3 ADD MSTORE PUSH32 0x4F6E6C79207465616D2077616C6C6574732063616E2077697468647261772074 PUSH1 0x44 DUP3 ADD MSTORE PUSH32 0x6F6B656E73207573696E6720746869732066756E6374696F6E00000000000000 PUSH1 0x64 DUP3 ADD MSTORE PUSH1 0x84 ADD PUSH2 0x99A JUMP JUMPDEST PUSH1 0xD SLOAD PUSH1 0xFF AND PUSH2 0x23A5 JUMPI PUSH1 0x40 MLOAD PUSH3 0x461BCD PUSH1 0xE5 SHL DUP2 MSTORE PUSH1 0x4 ADD PUSH2 0x99A SWAP1 PUSH2 0x4EDE JUMP JUMPDEST CALLER PUSH1 0x0 SWAP1 DUP2 MSTORE PUSH1 0x15 PUSH1 0x20 MSTORE PUSH1 0x40 SWAP1 KECCAK256 PUSH1 0x5 ADD SLOAD PUSH2 0x23C7 SWAP1 PUSH4 0x784CE00 SWAP1 PUSH2 0x4DBE JUMP JUMPDEST TIMESTAMP LT ISZERO PUSH2 0x2446 JUMPI PUSH1 0x40 MLOAD PUSH3 0x461BCD PUSH1 0xE5 SHL DUP2 MSTORE PUSH1 0x20 PUSH1 0x4 DUP3 ADD MSTORE PUSH1 0x41 PUSH1 0x24 DUP3 ADD MSTORE PUSH32 0x43616E6E6F74207769746864726177206265666F726520342079656172732061 PUSH1 0x44 DUP3 ADD MSTORE PUSH32 0x66746572206265696E6720616464656420746F207468652077686974656C6973 PUSH1 0x64 DUP3 ADD MSTORE PUSH1 0x1D PUSH1 0xFA SHL PUSH1 0x84 DUP3 ADD MSTORE PUSH1 0xA4 ADD PUSH2 0x99A JUMP JUMPDEST PUSH12 0x4D8C55AEFB8C05B5C000000 PUSH1 0xA SLOAD LT PUSH2 0x24AF JUMPI PUSH1 0x40 MLOAD PUSH3 0x461BCD PUSH1 0xE5 SHL DUP2 MSTORE PUSH1 0x20 PUSH1 0x4 DUP3 ADD MSTORE PUSH1 0x23 PUSH1 0x24 DUP3 ADD MSTORE PUSH32 0x416C6C207465616D20746F6B656E732068617665206265656E20776974686472 PUSH1 0x44 DUP3 ADD MSTORE PUSH3 0x30BBB7 PUSH1 0xE9 SHL PUSH1 0x64 DUP3 ADD MSTORE PUSH1 0x84 ADD PUSH2 0x99A JUMP JUMPDEST CALLER PUSH1 0x0 SWAP1 DUP2 MSTORE PUSH1 0x15 PUSH1 0x20 MSTORE PUSH1 0x40 SWAP1 KECCAK256 SLOAD PUSH2 0x2516 JUMPI PUSH1 0x40 MLOAD PUSH3 0x461BCD PUSH1 0xE5 SHL DUP2 MSTORE PUSH1 0x20 PUSH1 0x4 DUP3 ADD MSTORE PUSH1 0x22 PUSH1 0x24 DUP3 ADD MSTORE PUSH32 0x4E6F206879617820686F6C64696E6720616D6F756E7420746F20776974686472 PUSH1 0x44 DUP3 ADD MSTORE PUSH2 0x6177 PUSH1 0xF0 SHL PUSH1 0x64 DUP3 ADD MSTORE PUSH1 0x84 ADD PUSH2 0x99A JUMP JUMPDEST PUSH2 0x251E PUSH2 0x20F4 JUMP JUMPDEST CALLER PUSH1 0x0 SWAP1 DUP2 MSTORE PUSH1 0x15 PUSH1 0x20 MSTORE PUSH1 0x40 SWAP1 KECCAK256 PUSH1 0x6 ADD SLOAD PUSH1 0xFF SWAP2 DUP3 AND SWAP2 AND LT PUSH2 0x2599 JUMPI PUSH1 0x40 MLOAD PUSH3 0x461BCD PUSH1 0xE5 SHL DUP2 MSTORE PUSH1 0x20 PUSH1 0x4 DUP3 ADD MSTORE PUSH1 0x2B PUSH1 0x24 DUP3 ADD MSTORE PUSH32 0x43616E206F6E6C79207769746864726177207465616D20746F6B656E73206F6E PUSH1 0x44 DUP3 ADD MSTORE PUSH11 0x31B2903832B9103CB2B0B9 PUSH1 0xA9 SHL PUSH1 0x64 DUP3 ADD MSTORE PUSH1 0x84 ADD PUSH2 0x99A JUMP JUMPDEST CALLER PUSH1 0x0 SWAP1 DUP2 MSTORE PUSH1 0x15 PUSH1 0x20 MSTORE PUSH1 0x40 DUP2 KECCAK256 PUSH1 0x1 ADD SLOAD PUSH2 0x25B8 SWAP1 PUSH1 0x5 SWAP1 PUSH2 0x4E01 JUMP JUMPDEST SWAP1 POP PUSH12 0x4D8C55AEFB8C05B5C000000 DUP2 PUSH1 0xA SLOAD PUSH2 0x25D5 SWAP2 SWAP1 PUSH2 0x4DBE JUMP JUMPDEST GT ISZERO PUSH2 0x25F7 JUMPI PUSH1 0xA SLOAD PUSH2 0x25F4 SWAP1 PUSH12 0x4D8C55AEFB8C05B5C000000 PUSH2 0x4DD1 JUMP JUMPDEST SWAP1 POP JUMPDEST CALLER PUSH1 0x0 SWAP1 DUP2 MSTORE PUSH1 0x15 PUSH1 0x20 MSTORE PUSH1 0x40 DUP2 KECCAK256 DUP1 SLOAD DUP4 SWAP3 SWAP1 PUSH2 0x2616 SWAP1 DUP5 SWAP1 PUSH2 0x4DD1 JUMP JUMPDEST SWAP3 POP POP DUP2 SWAP1 SSTORE POP DUP1 PUSH1 0xA PUSH1 0x0 DUP3 DUP3 SLOAD PUSH2 0x262F SWAP2 SWAP1 PUSH2 0x4DBE JUMP JUMPDEST SWAP3 POP POP DUP2 SWAP1 SSTORE POP DUP1 PUSH1 0xB PUSH1 0x0 DUP3 DUP3 SLOAD PUSH2 0x2648 SWAP2 SWAP1 PUSH2 0x4DD1 JUMP JUMPDEST SWAP1 SWAP2 SSTORE POP POP CALLER PUSH1 0x0 SWAP1 DUP2 MSTORE PUSH1 0x15 PUSH1 0x20 MSTORE PUSH1 0x40 DUP2 KECCAK256 PUSH1 0x6 ADD DUP1 SLOAD PUSH1 0xFF AND SWAP2 PUSH2 0x266E DUP4 PUSH2 0x4F3B JUMP JUMPDEST DUP3 SLOAD PUSH1 0xFF SWAP2 DUP3 AND PUSH2 0x100 SWAP4 SWAP1 SWAP4 EXP SWAP3 DUP4 MUL SWAP2 SWAP1 SWAP3 MUL NOT SWAP1 SWAP2 AND OR SWAP1 SSTORE POP PUSH1 0x2 SLOAD PUSH1 0x40 MLOAD PUSH4 0xA9059CBB PUSH1 0xE0 SHL DUP2 MSTORE CALLER PUSH1 0x4 DUP3 ADD MSTORE PUSH1 0x24 DUP2 ADD DUP4 SWAP1 MSTORE PUSH1 0x1 PUSH1 0x1 PUSH1 0xA0 SHL SUB SWAP1 SWAP2 AND SWAP1 PUSH4 0xA9059CBB SWAP1 PUSH1 0x44 ADD PUSH1 0x20 PUSH1 0x40 MLOAD DUP1 DUP4 SUB DUP2 PUSH1 0x0 DUP8 GAS CALL ISZERO DUP1 ISZERO PUSH2 0x26DC JUMPI RETURNDATASIZE PUSH1 0x0 DUP1 RETURNDATACOPY RETURNDATASIZE PUSH1 0x0 REVERT JUMPDEST POP POP POP POP PUSH1 0x40 MLOAD RETURNDATASIZE PUSH1 0x1F NOT PUSH1 0x1F DUP3 ADD AND DUP3 ADD DUP1 PUSH1 0x40 MSTORE POP DUP2 ADD SWAP1 PUSH2 0x2700 SWAP2 SWAP1 PUSH2 0x4DE4 JUMP JUMPDEST PUSH2 0x274C JUMPI PUSH1 0x40 MLOAD PUSH3 0x461BCD PUSH1 0xE5 SHL DUP2 MSTORE PUSH1 0x20 PUSH1 0x4 DUP3 ADD MSTORE PUSH1 0x1E PUSH1 0x24 DUP3 ADD MSTORE PUSH32 0x4661696C656420746F207472616E73666572207465616D20746F6B656E730000 PUSH1 0x44 DUP3 ADD MSTORE PUSH1 0x64 ADD PUSH2 0x99A JUMP JUMPDEST PUSH1 0x40 DUP1 MLOAD CALLER DUP2 MSTORE PUSH1 0x20 DUP2 ADD DUP4 SWAP1 MSTORE PUSH32 0x1E63F692F0A30C3957AC289D6A44616BD119F5502EBA5AE440F3158CC2C2D291 SWAP2 ADD PUSH1 0x40 MLOAD DUP1 SWAP2 SUB SWAP1 LOG1 POP PUSH2 0xDFA PUSH1 0x1 PUSH1 0x0 DUP1 MLOAD PUSH1 0x20 PUSH2 0x5434 DUP4 CODECOPY DUP2 MLOAD SWAP2 MSTORE SSTORE JUMP JUMPDEST PUSH1 0x0 PUSH2 0x27A8 DUP2 PUSH2 0x43A4 JUMP JUMPDEST PUSH2 0x27B0 PUSH2 0x21DB JUMP JUMPDEST PUSH1 0x1 PUSH1 0x1 PUSH1 0xA0 SHL SUB AND CALLER PUSH1 0x1 PUSH1 0x1 PUSH1 0xA0 SHL SUB AND EQ PUSH2 0x2829 JUMPI PUSH1 0x40 MLOAD PUSH3 0x461BCD PUSH1 0xE5 SHL DUP2 MSTORE PUSH1 0x20 PUSH1 0x4 DUP3 ADD MSTORE PUSH1 0x30 PUSH1 0x24 DUP3 ADD MSTORE PUSH32 0x4F6E6C7920746865206F776E65722063616E2075706461746520746865206879 PUSH1 0x44 DUP3 ADD MSTORE PUSH16 0x617820746F6B656E2061646472657373 PUSH1 0x80 SHL PUSH1 0x64 DUP3 ADD MSTORE PUSH1 0x84 ADD PUSH2 0x99A JUMP JUMPDEST PUSH1 0x1 PUSH1 0x1 PUSH1 0xA0 SHL SUB DUP3 AND PUSH2 0x2895 JUMPI PUSH1 0x40 MLOAD PUSH3 0x461BCD PUSH1 0xE5 SHL DUP2 MSTORE PUSH1 0x20 PUSH1 0x4 DUP3 ADD MSTORE PUSH1 0x2D PUSH1 0x24 DUP3 ADD MSTORE PUSH32 0x4879617820746F6B656E20616464726573732063616E6E6F7420626520746865 PUSH1 0x44 DUP3 ADD MSTORE PUSH13 0x207A65726F2061646472657373 PUSH1 0x98 SHL PUSH1 0x64 DUP3 ADD MSTORE PUSH1 0x84 ADD PUSH2 0x99A JUMP JUMPDEST PUSH1 0x40 MLOAD PUSH4 0x90B282B PUSH1 0xE3 SHL PUSH1 0x20 DUP3 ADD MSTORE DUP3 SWAP1 PUSH1 0x24 ADD PUSH1 0x40 MLOAD PUSH1 0x20 DUP2 DUP4 SUB SUB DUP2 MSTORE SWAP1 PUSH1 0x40 MSTORE DUP1 MLOAD SWAP1 PUSH1 0x20 ADD KECCAK256 DUP2 PUSH1 0x1 PUSH1 0x1 PUSH1 0xA0 SHL SUB AND PUSH4 0x95D89B41 PUSH1 0x40 MLOAD DUP2 PUSH4 0xFFFFFFFF AND PUSH1 0xE0 SHL DUP2 MSTORE PUSH1 0x4 ADD PUSH1 0x0 PUSH1 0x40 MLOAD DUP1 DUP4 SUB DUP2 DUP7 GAS STATICCALL ISZERO DUP1 ISZERO PUSH2 0x28FE JUMPI RETURNDATASIZE PUSH1 0x0 DUP1 RETURNDATACOPY RETURNDATASIZE PUSH1 0x0 REVERT JUMPDEST POP POP POP POP PUSH1 0x40 MLOAD RETURNDATASIZE PUSH1 0x0 DUP3 RETURNDATACOPY PUSH1 0x1F RETURNDATASIZE SWAP1 DUP2 ADD PUSH1 0x1F NOT AND DUP3 ADD PUSH1 0x40 MSTORE PUSH2 0x2926 SWAP2 SWAP1 DUP2 ADD SWAP1 PUSH2 0x4FC1 JUMP JUMPDEST PUSH1 0x40 MLOAD PUSH1 0x20 ADD PUSH2 0x2936 SWAP2 SWAP1 PUSH2 0x5050 JUMP JUMPDEST PUSH1 0x40 MLOAD PUSH1 0x20 DUP2 DUP4 SUB SUB DUP2 MSTORE SWAP1 PUSH1 0x40 MSTORE DUP1 MLOAD SWAP1 PUSH1 0x20 ADD KECCAK256 EQ PUSH2 0x29B2 JUMPI PUSH1 0x40 MLOAD PUSH3 0x461BCD PUSH1 0xE5 SHL DUP2 MSTORE PUSH1 0x20 PUSH1 0x4 DUP3 ADD MSTORE PUSH1 0x30 PUSH1 0x24 DUP3 ADD MSTORE PUSH32 0x546F6B656E2061646472657373206D75737420626520612076616C6964204859 PUSH1 0x44 DUP3 ADD MSTORE PUSH16 0x415820746F6B656E2061646472657373 PUSH1 0x80 SHL PUSH1 0x64 DUP3 ADD MSTORE PUSH1 0x84 ADD PUSH2 0x99A JUMP JUMPDEST PUSH1 0x1 DUP1 SLOAD PUSH1 0x1 PUSH1 0x1 PUSH1 0xA0 SHL SUB DUP6 AND PUSH1 0x1 PUSH1 0x1 PUSH1 0xA0 SHL SUB NOT SWAP2 DUP3 AND DUP2 OR SWAP1 SWAP3 SSTORE PUSH1 0x2 DUP1 SLOAD SWAP1 SWAP2 AND DUP3 OR SWAP1 SSTORE PUSH1 0x40 MLOAD SWAP1 DUP2 MSTORE PUSH32 0x6B4289497C1EE1251F23FFEC949802440DAC6FC64D4BD0B4EFB97A5530058295 SWAP1 PUSH1 0x20 ADD PUSH2 0x20E7 JUMP JUMPDEST PUSH1 0x0 DUP2 DUP2 MSTORE PUSH1 0x0 DUP1 MLOAD PUSH1 0x20 PUSH2 0x5394 DUP4 CODECOPY DUP2 MLOAD SWAP2 MSTORE PUSH1 0x20 DUP2 SWAP1 MSTORE PUSH1 0x40 SWAP1 SWAP2 KECCAK256 PUSH1 0x60 SWAP2 SWAP1 PUSH2 0x2A37 SWAP1 PUSH2 0x4530 JUMP JUMPDEST SWAP4 SWAP3 POP POP POP JUMP JUMPDEST PUSH2 0x2A56 PUSH1 0x0 DUP1 MLOAD PUSH1 0x20 PUSH2 0x53D4 DUP4 CODECOPY DUP2 MLOAD SWAP2 MSTORE CALLER PUSH2 0x221B JUMP JUMPDEST DUP1 PUSH2 0x2A67 JUMPI POP PUSH2 0x2A67 PUSH1 0x0 CALLER PUSH2 0x221B JUMP JUMPDEST PUSH2 0x2A83 JUMPI PUSH1 0x40 MLOAD PUSH3 0x461BCD PUSH1 0xE5 SHL DUP2 MSTORE PUSH1 0x4 ADD PUSH2 0x99A SWAP1 PUSH2 0x4E81 JUMP JUMPDEST PUSH1 0x1 PUSH1 0x1 PUSH1 0xA0 SHL SUB DUP3 AND PUSH1 0x0 SWAP1 DUP2 MSTORE PUSH1 0x15 PUSH1 0x20 MSTORE PUSH1 0x40 SWAP1 KECCAK256 PUSH1 0x9 ADD SLOAD DUP2 ISZERO ISZERO PUSH3 0x10000 SWAP1 SWAP2 DIV PUSH1 0xFF AND ISZERO ISZERO SUB PUSH2 0x2ACB JUMPI PUSH1 0x40 MLOAD PUSH3 0x461BCD PUSH1 0xE5 SHL DUP2 MSTORE PUSH1 0x4 ADD PUSH2 0x99A SWAP1 PUSH2 0x506C JUMP JUMPDEST PUSH1 0x1 PUSH1 0x1 PUSH1 0xA0 SHL SUB DUP3 AND PUSH1 0x0 SWAP1 DUP2 MSTORE PUSH1 0x15 PUSH1 0x20 MSTORE PUSH1 0x40 SWAP1 KECCAK256 PUSH1 0x9 ADD DUP1 SLOAD PUSH3 0xFF0000 NOT AND PUSH3 0x10000 DUP4 ISZERO ISZERO SWAP1 DUP2 MUL SWAP2 SWAP1 SWAP2 OR SWAP1 SWAP2 SSTORE PUSH1 0x1 SUB PUSH2 0x2B2B JUMPI PUSH1 0x1 PUSH1 0x1 PUSH1 0xA0 SHL SUB DUP3 AND PUSH1 0x0 SWAP1 DUP2 MSTORE PUSH1 0x15 PUSH1 0x20 MSTORE PUSH1 0x40 SWAP1 KECCAK256 PUSH1 0x9 ADD DUP1 SLOAD PUSH2 0xFF00 NOT AND SWAP1 SSTORE JUMPDEST PUSH1 0x40 DUP1 MLOAD CALLER DUP2 MSTORE PUSH1 0x1 PUSH1 0x1 PUSH1 0xA0 SHL SUB DUP5 AND PUSH1 0x20 DUP3 ADD MSTORE DUP3 ISZERO ISZERO SWAP2 DUP2 ADD SWAP2 SWAP1 SWAP2 MSTORE PUSH32 0x89A9C56967D4535D54C90BFFD7CBD09F6D2A4C8E26B9E7F033F199D144E12B4E SWAP1 PUSH1 0x60 ADD PUSH2 0xA57 JUMP JUMPDEST PUSH2 0x2B8D PUSH1 0x0 DUP1 MLOAD PUSH1 0x20 PUSH2 0x53D4 DUP4 CODECOPY DUP2 MLOAD SWAP2 MSTORE CALLER PUSH2 0x221B JUMP JUMPDEST DUP1 PUSH2 0x2B9E JUMPI POP PUSH2 0x2B9E PUSH1 0x0 CALLER PUSH2 0x221B JUMP JUMPDEST PUSH2 0x2BBA JUMPI PUSH1 0x40 MLOAD PUSH3 0x461BCD PUSH1 0xE5 SHL DUP2 MSTORE PUSH1 0x4 ADD PUSH2 0x99A SWAP1 PUSH2 0x4E81 JUMP JUMPDEST PUSH1 0x1 PUSH1 0x1 PUSH1 0xA0 SHL SUB DUP3 AND PUSH1 0x0 SWAP1 DUP2 MSTORE PUSH1 0x15 PUSH1 0x20 MSTORE PUSH1 0x40 SWAP1 KECCAK256 PUSH1 0x9 ADD SLOAD DUP2 ISZERO ISZERO PUSH2 0x100 SWAP1 SWAP2 DIV PUSH1 0xFF AND ISZERO ISZERO SUB PUSH2 0x2C01 JUMPI PUSH1 0x40 MLOAD PUSH3 0x461BCD PUSH1 0xE5 SHL DUP2 MSTORE PUSH1 0x4 ADD PUSH2 0x99A SWAP1 PUSH2 0x506C JUMP JUMPDEST PUSH1 0x1 PUSH1 0x1 PUSH1 0xA0 SHL SUB DUP3 AND PUSH1 0x0 SWAP1 DUP2 MSTORE PUSH1 0x15 PUSH1 0x20 MSTORE PUSH1 0x40 DUP2 KECCAK256 PUSH1 0x5 ADD SLOAD SWAP1 SUB PUSH2 0x2C7E JUMPI PUSH1 0x40 MLOAD PUSH3 0x461BCD PUSH1 0xE5 SHL DUP2 MSTORE PUSH1 0x20 PUSH1 0x4 DUP3 ADD MSTORE PUSH1 0x2A PUSH1 0x24 DUP3 ADD MSTORE PUSH32 0x57616C6C657420686173206E6F74206265656E20616464656420746F20746865 PUSH1 0x44 DUP3 ADD MSTORE PUSH10 0x81DDA1A5D195B1A5CDD PUSH1 0xB2 SHL PUSH1 0x64 DUP3 ADD MSTORE PUSH1 0x84 ADD PUSH2 0x99A JUMP JUMPDEST PUSH1 0x1 PUSH1 0x1 PUSH1 0xA0 SHL SUB DUP3 AND PUSH1 0x0 DUP2 DUP2 MSTORE PUSH1 0x15 PUSH1 0x20 SWAP1 DUP2 MSTORE PUSH1 0x40 SWAP2 DUP3 SWAP1 KECCAK256 PUSH1 0x9 ADD DUP1 SLOAD PUSH2 0xFF00 NOT AND PUSH2 0x100 DUP7 ISZERO ISZERO SWAP1 DUP2 MUL SWAP2 SWAP1 SWAP2 OR SWAP1 SWAP2 SSTORE DUP3 MLOAD CALLER DUP2 MSTORE SWAP2 DUP3 ADD SWAP4 SWAP1 SWAP4 MSTORE SWAP1 DUP2 ADD SWAP2 SWAP1 SWAP2 MSTORE PUSH32 0x70BBEE4E66E3FD40F7DA099410CFD723ED4A0B4FEC11F6CC968E850DB827A88B SWAP1 PUSH1 0x60 ADD PUSH2 0xA57 JUMP JUMPDEST PUSH32 0xF0C57E16840DF040F15088DC2F81FE391C3923BEC73E23A9662EFC9C229C6A00 DUP1 SLOAD PUSH1 0x1 PUSH1 0x40 SHL DUP2 DIV PUSH1 0xFF AND ISZERO SWAP1 PUSH8 0xFFFFFFFFFFFFFFFF AND PUSH1 0x0 DUP2 ISZERO DUP1 ISZERO PUSH2 0x2D37 JUMPI POP DUP3 JUMPDEST SWAP1 POP PUSH1 0x0 DUP3 PUSH8 0xFFFFFFFFFFFFFFFF AND PUSH1 0x1 EQ DUP1 ISZERO PUSH2 0x2D54 JUMPI POP ADDRESS EXTCODESIZE ISZERO JUMPDEST SWAP1 POP DUP2 ISZERO DUP1 ISZERO PUSH2 0x2D62 JUMPI POP DUP1 ISZERO JUMPDEST ISZERO PUSH2 0x2D80 JUMPI PUSH1 0x40 MLOAD PUSH4 0xF92EE8A9 PUSH1 0xE0 SHL DUP2 MSTORE PUSH1 0x4 ADD PUSH1 0x40 MLOAD DUP1 SWAP2 SUB SWAP1 REVERT JUMPDEST DUP5 SLOAD PUSH8 0xFFFFFFFFFFFFFFFF NOT AND PUSH1 0x1 OR DUP6 SSTORE DUP4 ISZERO PUSH2 0x2DAA JUMPI DUP5 SLOAD PUSH1 0xFF PUSH1 0x40 SHL NOT AND PUSH1 0x1 PUSH1 0x40 SHL OR DUP6 SSTORE JUMPDEST PUSH2 0x2DB2 PUSH2 0x453D JUMP JUMPDEST PUSH2 0x2DBA PUSH2 0x4547 JUMP JUMPDEST PUSH2 0x2DC2 PUSH2 0x4557 JUMP JUMPDEST PUSH2 0x2DCD PUSH1 0x0 CALLER PUSH2 0x43AE JUMP JUMPDEST POP PUSH1 0x13 DUP1 SLOAD PUSH2 0x100 PUSH1 0x1 PUSH1 0xA8 SHL SUB NOT AND PUSH21 0x1C2F012DE19E6436744C3F81F56E9E70C93A8C300 OR SWAP1 DUP2 SWAP1 SSTORE PUSH2 0x2E20 SWAP1 PUSH1 0x0 DUP1 MLOAD PUSH1 0x20 PUSH2 0x53D4 DUP4 CODECOPY DUP2 MLOAD SWAP2 MSTORE SWAP1 PUSH1 0x1 PUSH1 0x1 PUSH1 0xA0 SHL SUB PUSH2 0x100 SWAP1 SWAP2 DIV AND PUSH2 0x43AE JUMP JUMPDEST POP PUSH1 0x14 DUP1 SLOAD PUSH1 0x1 PUSH1 0x1 PUSH1 0xA0 SHL SUB NOT AND PUSH20 0x1C2F012DE19E6436744C3F81F56E9E70C93A8C3 SWAP1 DUP2 OR SWAP1 SWAP2 SSTORE PUSH2 0x2E63 SWAP1 PUSH1 0x0 DUP1 MLOAD PUSH1 0x20 PUSH2 0x53B4 DUP4 CODECOPY DUP2 MLOAD SWAP2 MSTORE SWAP1 PUSH2 0x43AE JUMP JUMPDEST POP PUSH1 0x1 DUP1 SLOAD PUSH1 0x1 PUSH1 0x1 PUSH1 0xA0 SHL SUB NOT SWAP1 DUP2 AND PUSH1 0x1 PUSH1 0x1 PUSH1 0xA0 SHL SUB DUP10 AND SWAP1 DUP2 OR SWAP1 SWAP3 SSTORE PUSH1 0x2 DUP1 SLOAD SWAP1 SWAP2 AND DUP3 OR SWAP1 SSTORE PUSH1 0x0 PUSH1 0x3 DUP2 SWAP1 SSTORE PUSH1 0x4 DUP2 DUP2 SSTORE PUSH1 0x5 DUP3 SWAP1 SSTORE PUSH1 0x6 DUP3 SWAP1 SSTORE PUSH1 0x7 DUP3 SWAP1 SSTORE PUSH1 0x8 DUP1 SLOAD PUSH1 0xFF NOT SWAP1 DUP2 AND SWAP1 SWAP2 SSTORE PUSH1 0x9 DUP4 SWAP1 SSTORE PUSH1 0xA DUP4 SWAP1 SSTORE PUSH1 0xB DUP4 SWAP1 SSTORE PUSH1 0xC DUP4 SWAP1 SSTORE PUSH1 0xD DUP1 SLOAD DUP3 AND SWAP1 SSTORE PUSH1 0xE DUP4 SWAP1 SSTORE PUSH1 0xF DUP4 SWAP1 SSTORE PUSH1 0x10 DUP4 SWAP1 SSTORE PUSH1 0x11 DUP4 SWAP1 SSTORE PUSH1 0x12 DUP4 SWAP1 SSTORE PUSH1 0x13 DUP1 SLOAD SWAP1 SWAP2 AND SWAP1 SSTORE PUSH1 0x14 DUP1 SLOAD PUSH1 0xFF PUSH1 0xA0 SHL NOT AND PUSH1 0x19 PUSH1 0xA2 SHL OR SWAP1 SSTORE PUSH1 0x40 DUP1 MLOAD PUSH4 0x90B282B PUSH1 0xE3 SHL PUSH1 0x20 DUP1 DUP4 ADD SWAP2 SWAP1 SWAP2 MSTORE DUP3 MLOAD DUP1 DUP4 SUB SWAP1 SWAP5 ADD DUP5 MSTORE PUSH1 0x24 DUP3 ADD DUP1 DUP5 MSTORE DUP5 MLOAD SWAP5 SWAP1 SWAP2 ADD SWAP4 SWAP1 SWAP4 KECCAK256 PUSH4 0x95D89B41 PUSH1 0xE0 SHL SWAP1 SWAP4 MSTORE SWAP1 MLOAD SWAP2 SWAP4 SWAP3 PUSH4 0x95D89B41 SWAP3 PUSH1 0x28 DUP1 DUP5 ADD SWAP4 DUP3 SWAP1 SUB ADD DUP2 DUP7 GAS STATICCALL ISZERO DUP1 ISZERO PUSH2 0x2F6D JUMPI RETURNDATASIZE PUSH1 0x0 DUP1 RETURNDATACOPY RETURNDATASIZE PUSH1 0x0 REVERT JUMPDEST POP POP POP POP PUSH1 0x40 MLOAD RETURNDATASIZE PUSH1 0x0 DUP3 RETURNDATACOPY PUSH1 0x1F RETURNDATASIZE SWAP1 DUP2 ADD PUSH1 0x1F NOT AND DUP3 ADD PUSH1 0x40 MSTORE PUSH2 0x2F95 SWAP2 SWAP1 DUP2 ADD SWAP1 PUSH2 0x4FC1 JUMP JUMPDEST PUSH1 0x40 MLOAD PUSH1 0x20 ADD PUSH2 0x2FA5 SWAP2 SWAP1 PUSH2 0x5050 JUMP JUMPDEST PUSH1 0x40 MLOAD PUSH1 0x20 DUP2 DUP4 SUB SUB DUP2 MSTORE SWAP1 PUSH1 0x40 MSTORE DUP1 MLOAD SWAP1 PUSH1 0x20 ADD KECCAK256 EQ PUSH2 0x3008 JUMPI PUSH1 0x40 MLOAD PUSH3 0x461BCD PUSH1 0xE5 SHL DUP2 MSTORE PUSH1 0x20 PUSH1 0x4 DUP3 ADD MSTORE PUSH1 0x1F PUSH1 0x24 DUP3 ADD MSTORE PUSH32 0x4879617820746F6B656E2061646472657373206973206E6F742076616C696400 PUSH1 0x44 DUP3 ADD MSTORE PUSH1 0x64 ADD PUSH2 0x99A JUMP JUMPDEST DUP4 ISZERO PUSH2 0x304E JUMPI DUP5 SLOAD PUSH1 0xFF PUSH1 0x40 SHL NOT AND DUP6 SSTORE PUSH1 0x40 MLOAD PUSH1 0x1 DUP2 MSTORE PUSH32 0xC7F505B2F371AE2175EE4913F4499E1F2633A7B5936321EED1CDAEB6115181D2 SWAP1 PUSH1 0x20 ADD PUSH1 0x40 MLOAD DUP1 SWAP2 SUB SWAP1 LOG1 JUMPDEST POP POP POP POP POP POP JUMP JUMPDEST PUSH1 0x0 DUP2 DUP2 MSTORE PUSH1 0x0 DUP1 MLOAD PUSH1 0x20 PUSH2 0x5394 DUP4 CODECOPY DUP2 MLOAD SWAP2 MSTORE PUSH1 0x20 DUP2 SWAP1 MSTORE PUSH1 0x40 DUP3 KECCAK256 PUSH2 0x2A37 SWAP1 PUSH2 0x4567 JUMP JUMPDEST PUSH1 0x0 PUSH2 0x3087 DUP2 PUSH2 0x43A4 JUMP JUMPDEST PUSH2 0x308F PUSH2 0x442F JUMP JUMPDEST PUSH2 0x3097 PUSH2 0x1926 JUMP JUMPDEST ISZERO PUSH2 0x30B4 JUMPI PUSH1 0x40 MLOAD PUSH3 0x461BCD PUSH1 0xE5 SHL DUP2 MSTORE PUSH1 0x4 ADD PUSH2 0x99A SWAP1 PUSH2 0x4CC8 JUMP JUMPDEST PUSH2 0x30BC PUSH2 0x21DB JUMP JUMPDEST PUSH1 0x1 PUSH1 0x1 PUSH1 0xA0 SHL SUB AND CALLER PUSH1 0x1 PUSH1 0x1 PUSH1 0xA0 SHL SUB AND EQ PUSH2 0x312F JUMPI PUSH1 0x40 MLOAD PUSH3 0x461BCD PUSH1 0xE5 SHL DUP2 MSTORE PUSH1 0x20 PUSH1 0x4 DUP3 ADD MSTORE PUSH1 0x2A PUSH1 0x24 DUP3 ADD MSTORE PUSH32 0x4F6E6C7920746865206F776E65722063616E2066756E642074686520736D6172 PUSH1 0x44 DUP3 ADD MSTORE PUSH10 0x1D0818DBDB9D1C9858DD PUSH1 0xB2 SHL PUSH1 0x64 DUP3 ADD MSTORE PUSH1 0x84 ADD PUSH2 0x99A JUMP JUMPDEST PUSH1 0x0 DUP4 PUSH1 0x2 DUP2 GT ISZERO PUSH2 0x3143 JUMPI PUSH2 0x3143 PUSH2 0x50BA JUMP JUMPDEST EQ DUP1 PUSH2 0x3160 JUMPI POP PUSH1 0x1 DUP4 PUSH1 0x2 DUP2 GT ISZERO PUSH2 0x315E JUMPI PUSH2 0x315E PUSH2 0x50BA JUMP JUMPDEST EQ JUMPDEST DUP1 PUSH2 0x317C JUMPI POP PUSH1 0x2 DUP4 PUSH1 0x2 DUP2 GT ISZERO PUSH2 0x317A JUMPI PUSH2 0x317A PUSH2 0x50BA JUMP JUMPDEST EQ JUMPDEST PUSH2 0x31BF JUMPI PUSH1 0x40 MLOAD PUSH3 0x461BCD PUSH1 0xE5 SHL DUP2 MSTORE PUSH1 0x20 PUSH1 0x4 DUP3 ADD MSTORE PUSH1 0x14 PUSH1 0x24 DUP3 ADD MSTORE PUSH20 0x496E76616C69642066756E64696E672074797065 PUSH1 0x60 SHL PUSH1 0x44 DUP3 ADD MSTORE PUSH1 0x64 ADD PUSH2 0x99A JUMP JUMPDEST PUSH1 0x0 DUP3 GT PUSH2 0x320F JUMPI PUSH1 0x40 MLOAD PUSH3 0x461BCD PUSH1 0xE5 SHL DUP2 MSTORE PUSH1 0x20 PUSH1 0x4 DUP3 ADD MSTORE PUSH1 0x1D PUSH1 0x24 DUP3 ADD MSTORE PUSH32 0x416D6F756E74206D7573742062652067726561746572207468616E2030000000 PUSH1 0x44 DUP3 ADD MSTORE PUSH1 0x64 ADD PUSH2 0x99A JUMP JUMPDEST PUSH1 0x2 SLOAD PUSH1 0x40 MLOAD PUSH4 0x23B872DD PUSH1 0xE0 SHL DUP2 MSTORE CALLER PUSH1 0x4 DUP3 ADD MSTORE ADDRESS PUSH1 0x24 DUP3 ADD MSTORE PUSH1 0x44 DUP2 ADD DUP5 SWAP1 MSTORE PUSH1 0x1 PUSH1 0x1 PUSH1 0xA0 SHL SUB SWAP1 SWAP2 AND SWAP1 PUSH4 0x23B872DD SWAP1 PUSH1 0x64 ADD PUSH1 0x20 PUSH1 0x40 MLOAD DUP1 DUP4 SUB DUP2 PUSH1 0x0 DUP8 GAS CALL ISZERO DUP1 ISZERO PUSH2 0x3266 JUMPI RETURNDATASIZE PUSH1 0x0 DUP1 RETURNDATACOPY RETURNDATASIZE PUSH1 0x0 REVERT JUMPDEST POP POP POP POP PUSH1 0x40 MLOAD RETURNDATASIZE PUSH1 0x1F NOT PUSH1 0x1F DUP3 ADD AND DUP3 ADD DUP1 PUSH1 0x40 MSTORE POP DUP2 ADD SWAP1 PUSH2 0x328A SWAP2 SWAP1 PUSH2 0x4DE4 JUMP JUMPDEST PUSH2 0x32F0 JUMPI PUSH1 0x40 MLOAD PUSH3 0x461BCD PUSH1 0xE5 SHL DUP2 MSTORE PUSH1 0x20 PUSH1 0x4 DUP3 ADD MSTORE PUSH1 0x31 PUSH1 0x24 DUP3 ADD MSTORE PUSH32 0x54686572652077617320616E206572726F72206F6E20726563656976696E6720 PUSH1 0x44 DUP3 ADD MSTORE PUSH17 0x74686520746F6B656E2066756E64696E67 PUSH1 0x78 SHL PUSH1 0x64 DUP3 ADD MSTORE PUSH1 0x84 ADD PUSH2 0x99A JUMP JUMPDEST PUSH1 0x0 DUP4 PUSH1 0x2 DUP2 GT ISZERO PUSH2 0x3304 JUMPI PUSH2 0x3304 PUSH2 0x50BA JUMP JUMPDEST SUB PUSH2 0x33FA JUMPI PUSH12 0x7C13BC4B2C133C560000000 DUP3 PUSH1 0x3 SLOAD PUSH2 0x3324 SWAP2 SWAP1 PUSH2 0x4DBE JUMP JUMPDEST GT ISZERO PUSH2 0x33A4 JUMPI PUSH1 0x40 MLOAD PUSH3 0x461BCD PUSH1 0xE5 SHL DUP2 MSTORE PUSH1 0x20 PUSH1 0x4 DUP3 ADD MSTORE PUSH1 0x43 PUSH1 0x24 DUP3 ADD MSTORE PUSH32 0x416D6F756E7420746F2066756E642069732067726561746572207468616E2074 PUSH1 0x44 DUP3 ADD MSTORE PUSH32 0x686520746F74616C20696E74656E74656420666F722067726F77746820746F6B PUSH1 0x64 DUP3 ADD MSTORE PUSH3 0x656E73 PUSH1 0xE8 SHL PUSH1 0x84 DUP3 ADD MSTORE PUSH1 0xA4 ADD PUSH2 0x99A JUMP JUMPDEST DUP2 PUSH1 0x3 PUSH1 0x0 DUP3 DUP3 SLOAD PUSH2 0x33B6 SWAP2 SWAP1 PUSH2 0x4DBE JUMP JUMPDEST SWAP3 POP POP DUP2 SWAP1 SSTORE POP DUP2 PUSH1 0x5 PUSH1 0x0 DUP3 DUP3 SLOAD PUSH2 0x33CF SWAP2 SWAP1 PUSH2 0x4DBE JUMP JUMPDEST SWAP1 SWAP2 SSTORE POP POP PUSH1 0x8 SLOAD PUSH1 0xFF AND PUSH2 0x33F5 JUMPI PUSH1 0x8 DUP1 SLOAD PUSH1 0xFF NOT AND PUSH1 0x1 OR SWAP1 SSTORE TIMESTAMP PUSH1 0x7 DUP2 SWAP1 SSTORE PUSH1 0x6 SSTORE JUMPDEST PUSH2 0x35FC JUMP JUMPDEST PUSH1 0x1 DUP4 PUSH1 0x2 DUP2 GT ISZERO PUSH2 0x340E JUMPI PUSH2 0x340E PUSH2 0x50BA JUMP JUMPDEST SUB PUSH2 0x34FC JUMPI PUSH12 0x4D8C55AEFB8C05B5C000000 DUP3 PUSH1 0x9 SLOAD PUSH2 0x342E SWAP2 SWAP1 PUSH2 0x4DBE JUMP JUMPDEST GT ISZERO PUSH2 0x34AC JUMPI PUSH1 0x40 MLOAD PUSH3 0x461BCD PUSH1 0xE5 SHL DUP2 MSTORE PUSH1 0x20 PUSH1 0x4 DUP3 ADD MSTORE PUSH1 0x41 PUSH1 0x24 DUP3 ADD MSTORE PUSH32 0x416D6F756E7420746F2066756E642069732067726561746572207468616E2074 PUSH1 0x44 DUP3 ADD MSTORE PUSH32 0x686520746F74616C20696E74656E74656420666F72207465616D20746F6B656E PUSH1 0x64 DUP3 ADD MSTORE PUSH1 0x73 PUSH1 0xF8 SHL PUSH1 0x84 DUP3 ADD MSTORE PUSH1 0xA4 ADD PUSH2 0x99A JUMP JUMPDEST DUP2 PUSH1 0x9 PUSH1 0x0 DUP3 DUP3 SLOAD PUSH2 0x34BE SWAP2 SWAP1 PUSH2 0x4DBE JUMP JUMPDEST SWAP3 POP POP DUP2 SWAP1 SSTORE POP DUP2 PUSH1 0xB PUSH1 0x0 DUP3 DUP3 SLOAD PUSH2 0x34D7 SWAP2 SWAP1 PUSH2 0x4DBE JUMP JUMPDEST SWAP1 SWAP2 SSTORE POP POP PUSH1 0xD SLOAD PUSH1 0xFF AND PUSH2 0x33F5 JUMPI PUSH1 0xD DUP1 SLOAD PUSH1 0xFF NOT AND PUSH1 0x1 OR SWAP1 SSTORE TIMESTAMP PUSH1 0xC SSTORE PUSH2 0x35FC JUMP JUMPDEST PUSH1 0x2 DUP4 PUSH1 0x2 DUP2 GT ISZERO PUSH2 0x3510 JUMPI PUSH2 0x3510 PUSH2 0x50BA JUMP JUMPDEST SUB PUSH2 0x35FC JUMPI PUSH12 0x3E09DE2596099E2B0000000 DUP3 PUSH1 0xE SLOAD PUSH2 0x3530 SWAP2 SWAP1 PUSH2 0x4DBE JUMP JUMPDEST GT ISZERO PUSH2 0x35B0 JUMPI PUSH1 0x40 MLOAD PUSH3 0x461BCD PUSH1 0xE5 SHL DUP2 MSTORE PUSH1 0x20 PUSH1 0x4 DUP3 ADD MSTORE PUSH1 0x43 PUSH1 0x24 DUP3 ADD MSTORE PUSH32 0x416D6F756E7420746F2066756E642069732067726561746572207468616E2074 PUSH1 0x44 DUP3 ADD MSTORE PUSH32 0x686520746F74616C20696E74656E74656420666F722072657761726420746F6B PUSH1 0x64 DUP3 ADD MSTORE PUSH3 0x656E73 PUSH1 0xE8 SHL PUSH1 0x84 DUP3 ADD MSTORE PUSH1 0xA4 ADD PUSH2 0x99A JUMP JUMPDEST DUP2 PUSH1 0xE PUSH1 0x0 DUP3 DUP3 SLOAD PUSH2 0x35C2 SWAP2 SWAP1 PUSH2 0x4DBE JUMP JUMPDEST SWAP3 POP POP DUP2 SWAP1 SSTORE POP DUP2 PUSH1 0x11 PUSH1 0x0 DUP3 DUP3 SLOAD PUSH2 0x35DB SWAP2 SWAP1 PUSH2 0x4DBE JUMP JUMPDEST SWAP1 SWAP2 SSTORE POP POP PUSH1 0x13 SLOAD PUSH1 0xFF AND PUSH2 0x35FC JUMPI PUSH1 0x13 DUP1 SLOAD PUSH1 0xFF NOT AND PUSH1 0x1 OR SWAP1 SSTORE TIMESTAMP PUSH1 0x12 SSTORE JUMPDEST PUSH32 0xBC0B9ECC68EC48681B8F5718FA26B9CE02021220455BE5F5837A944140A80EA3 DUP4 DUP4 PUSH1 0x40 MLOAD PUSH2 0x362D SWAP3 SWAP2 SWAP1 PUSH2 0x50D0 JUMP JUMPDEST PUSH1 0x40 MLOAD DUP1 SWAP2 SUB SWAP1 LOG1 PUSH2 0xAB8 PUSH1 0x1 PUSH1 0x0 DUP1 MLOAD PUSH1 0x20 PUSH2 0x5434 DUP4 CODECOPY DUP2 MLOAD SWAP2 MSTORE SSTORE JUMP JUMPDEST PUSH2 0x3655 DUP3 PUSH2 0x91E JUMP JUMPDEST PUSH2 0x365E DUP2 PUSH2 0x43A4 JUMP JUMPDEST PUSH2 0xA7F DUP4 DUP4 PUSH2 0x43F3 JUMP JUMPDEST PUSH1 0x0 PUSH2 0x3673 DUP2 PUSH2 0x43A4 JUMP JUMPDEST PUSH2 0x367B PUSH2 0x442F JUMP JUMPDEST PUSH2 0x3683 PUSH2 0x1926 JUMP JUMPDEST ISZERO PUSH2 0x36A0 JUMPI PUSH1 0x40 MLOAD PUSH3 0x461BCD PUSH1 0xE5 SHL DUP2 MSTORE PUSH1 0x4 ADD PUSH2 0x99A SWAP1 PUSH2 0x4CC8 JUMP JUMPDEST PUSH2 0x36A8 PUSH2 0x21DB JUMP JUMPDEST PUSH1 0x1 PUSH1 0x1 PUSH1 0xA0 SHL SUB AND CALLER PUSH1 0x1 PUSH1 0x1 PUSH1 0xA0 SHL SUB AND EQ PUSH2 0x3713 JUMPI PUSH1 0x40 MLOAD PUSH3 0x461BCD PUSH1 0xE5 SHL DUP2 MSTORE PUSH1 0x20 PUSH1 0x4 DUP3 ADD MSTORE PUSH1 0x22 PUSH1 0x24 DUP3 ADD MSTORE PUSH32 0x4F6E6C7920746865206F776E65722063616E20776974686472617720746F6B65 PUSH1 0x44 DUP3 ADD MSTORE PUSH2 0x6E73 PUSH1 0xF0 SHL PUSH1 0x64 DUP3 ADD MSTORE PUSH1 0x84 ADD PUSH2 0x99A JUMP JUMPDEST PUSH1 0x0 DUP4 PUSH1 0x2 DUP2 GT ISZERO PUSH2 0x3727 JUMPI PUSH2 0x3727 PUSH2 0x50BA JUMP JUMPDEST EQ DUP1 PUSH2 0x3744 JUMPI POP PUSH1 0x1 DUP4 PUSH1 0x2 DUP2 GT ISZERO PUSH2 0x3742 JUMPI PUSH2 0x3742 PUSH2 0x50BA JUMP JUMPDEST EQ JUMPDEST DUP1 PUSH2 0x3760 JUMPI POP PUSH1 0x2 DUP4 PUSH1 0x2 DUP2 GT ISZERO PUSH2 0x375E JUMPI PUSH2 0x375E PUSH2 0x50BA JUMP JUMPDEST EQ JUMPDEST PUSH2 0x37A3 JUMPI PUSH1 0x40 MLOAD PUSH3 0x461BCD PUSH1 0xE5 SHL DUP2 MSTORE PUSH1 0x20 PUSH1 0x4 DUP3 ADD MSTORE PUSH1 0x14 PUSH1 0x24 DUP3 ADD MSTORE PUSH20 0x496E76616C69642066756E64696E672074797065 PUSH1 0x60 SHL PUSH1 0x44 DUP3 ADD MSTORE PUSH1 0x64 ADD PUSH2 0x99A JUMP JUMPDEST PUSH1 0x0 DUP3 GT PUSH2 0x37F3 JUMPI PUSH1 0x40 MLOAD PUSH3 0x461BCD PUSH1 0xE5 SHL DUP2 MSTORE PUSH1 0x20 PUSH1 0x4 DUP3 ADD MSTORE PUSH1 0x1D PUSH1 0x24 DUP3 ADD MSTORE PUSH32 0x416D6F756E74206D7573742062652067726561746572207468616E2030000000 PUSH1 0x44 DUP3 ADD MSTORE PUSH1 0x64 ADD PUSH2 0x99A JUMP JUMPDEST PUSH1 0x0 DUP4 PUSH1 0x2 DUP2 GT ISZERO PUSH2 0x3807 JUMPI PUSH2 0x3807 PUSH2 0x50BA JUMP JUMPDEST SUB PUSH2 0x38BC JUMPI PUSH1 0x8 SLOAD PUSH1 0xFF AND PUSH2 0x382E JUMPI PUSH1 0x40 MLOAD PUSH3 0x461BCD PUSH1 0xE5 SHL DUP2 MSTORE PUSH1 0x4 ADD PUSH2 0x99A SWAP1 PUSH2 0x4E23 JUMP JUMPDEST PUSH1 0x5 SLOAD DUP3 GT ISZERO PUSH2 0x389F JUMPI PUSH1 0x40 MLOAD PUSH3 0x461BCD PUSH1 0xE5 SHL DUP2 MSTORE PUSH1 0x20 PUSH1 0x4 DUP3 ADD MSTORE PUSH1 0x36 PUSH1 0x24 DUP3 ADD MSTORE PUSH32 0x496E73756666696369656E742067726F77746820746F6B656E7320696E207468 PUSH1 0x44 DUP3 ADD MSTORE PUSH22 0x6520636F6E747261637420746F207769746864726177 PUSH1 0x50 SHL PUSH1 0x64 DUP3 ADD MSTORE PUSH1 0x84 ADD PUSH2 0x99A JUMP JUMPDEST DUP2 PUSH1 0x5 PUSH1 0x0 DUP3 DUP3 SLOAD PUSH2 0x38B1 SWAP2 SWAP1 PUSH2 0x4DD1 JUMP JUMPDEST SWAP1 SWAP2 SSTORE POP PUSH2 0x39ED SWAP1 POP JUMP JUMPDEST PUSH1 0x1 DUP4 PUSH1 0x2 DUP2 GT ISZERO PUSH2 0x38D0 JUMPI PUSH2 0x38D0 PUSH2 0x50BA JUMP JUMPDEST SUB PUSH2 0x3978 JUMPI PUSH1 0xD SLOAD PUSH1 0xFF AND PUSH2 0x38F7 JUMPI PUSH1 0x40 MLOAD PUSH3 0x461BCD PUSH1 0xE5 SHL DUP2 MSTORE PUSH1 0x4 ADD PUSH2 0x99A SWAP1 PUSH2 0x4EDE JUMP JUMPDEST PUSH1 0xB SLOAD DUP3 GT ISZERO PUSH2 0x3966 JUMPI PUSH1 0x40 MLOAD PUSH3 0x461BCD PUSH1 0xE5 SHL DUP2 MSTORE PUSH1 0x20 PUSH1 0x4 DUP3 ADD MSTORE PUSH1 0x34 PUSH1 0x24 DUP3 ADD MSTORE PUSH32 0x496E73756666696369656E74207465616D20746F6B656E7320696E2074686520 PUSH1 0x44 DUP3 ADD MSTORE PUSH20 0x636F6E747261637420746F207769746864726177 PUSH1 0x60 SHL PUSH1 0x64 DUP3 ADD MSTORE PUSH1 0x84 ADD PUSH2 0x99A JUMP JUMPDEST DUP2 PUSH1 0xB PUSH1 0x0 DUP3 DUP3 SLOAD PUSH2 0x38B1 SWAP2 SWAP1 PUSH2 0x4DD1 JUMP JUMPDEST PUSH1 0x2 DUP4 PUSH1 0x2 DUP2 GT ISZERO PUSH2 0x398C JUMPI PUSH2 0x398C PUSH2 0x50BA JUMP JUMPDEST SUB PUSH2 0x39ED JUMPI PUSH1 0x13 SLOAD PUSH1 0xFF AND PUSH2 0x39B3 JUMPI PUSH1 0x40 MLOAD PUSH3 0x461BCD PUSH1 0xE5 SHL DUP2 MSTORE PUSH1 0x4 ADD PUSH2 0x99A SWAP1 PUSH2 0x4CF4 JUMP JUMPDEST PUSH1 0x11 SLOAD DUP3 GT ISZERO PUSH2 0x39D5 JUMPI PUSH1 0x40 MLOAD PUSH3 0x461BCD PUSH1 0xE5 SHL DUP2 MSTORE PUSH1 0x4 ADD PUSH2 0x99A SWAP1 PUSH2 0x4D52 JUMP JUMPDEST DUP2 PUSH1 0x11 PUSH1 0x0 DUP3 DUP3 SLOAD PUSH2 0x39E7 SWAP2 SWAP1 PUSH2 0x4DD1 JUMP JUMPDEST SWAP1 SWAP2 SSTORE POP POP JUMPDEST PUSH1 0x2 SLOAD PUSH1 0x1 PUSH1 0x1 PUSH1 0xA0 SHL SUB AND PUSH4 0xA9059CBB PUSH2 0x3A06 PUSH2 0x21DB JUMP JUMPDEST PUSH1 0x40 MLOAD PUSH1 0x1 PUSH1 0x1 PUSH1 0xE0 SHL SUB NOT PUSH1 0xE0 DUP5 SWAP1 SHL AND DUP2 MSTORE PUSH1 0x1 PUSH1 0x1 PUSH1 0xA0 SHL SUB SWAP1 SWAP2 AND PUSH1 0x4 DUP3 ADD MSTORE PUSH1 0x24 DUP2 ADD DUP6 SWAP1 MSTORE PUSH1 0x44 ADD PUSH1 0x20 PUSH1 0x40 MLOAD DUP1 DUP4 SUB DUP2 PUSH1 0x0 DUP8 GAS CALL ISZERO DUP1 ISZERO PUSH2 0x3A53 JUMPI RETURNDATASIZE PUSH1 0x0 DUP1 RETURNDATACOPY RETURNDATASIZE PUSH1 0x0 REVERT JUMPDEST POP POP POP POP PUSH1 0x40 MLOAD RETURNDATASIZE PUSH1 0x1F NOT PUSH1 0x1F DUP3 ADD AND DUP3 ADD DUP1 PUSH1 0x40 MSTORE POP DUP2 ADD SWAP1 PUSH2 0x3A77 SWAP2 SWAP1 PUSH2 0x4DE4 JUMP JUMPDEST PUSH2 0x3AC3 JUMPI PUSH1 0x40 MLOAD PUSH3 0x461BCD PUSH1 0xE5 SHL DUP2 MSTORE PUSH1 0x20 PUSH1 0x4 DUP3 ADD DUP2 SWAP1 MSTORE PUSH1 0x24 DUP3 ADD MSTORE PUSH32 0x4661696C656420746F207472616E736665722067726F77746820746F6B656E73 PUSH1 0x44 DUP3 ADD MSTORE PUSH1 0x64 ADD PUSH2 0x99A JUMP JUMPDEST PUSH32 0xB9DB6F85CD4E97884845CFB10D7FBBA4D9CD4B9516CF2795B4C50CD886875BAB DUP4 DUP4 PUSH1 0x40 MLOAD PUSH2 0x362D SWAP3 SWAP2 SWAP1 PUSH2 0x50D0 JUMP JUMPDEST PUSH2 0x3B0C PUSH1 0x0 DUP1 MLOAD PUSH1 0x20 PUSH2 0x53B4 DUP4 CODECOPY DUP2 MLOAD SWAP2 MSTORE CALLER PUSH2 0x221B JUMP JUMPDEST DUP1 PUSH2 0x3B1D JUMPI POP PUSH2 0x3B1D PUSH1 0x0 CALLER PUSH2 0x221B JUMP JUMPDEST DUP1 PUSH2 0x3B27 JUMPI POP CALLER ADDRESS EQ JUMPDEST PUSH2 0x3B43 JUMPI PUSH1 0x40 MLOAD PUSH3 0x461BCD PUSH1 0xE5 SHL DUP2 MSTORE PUSH1 0x4 ADD PUSH2 0x99A SWAP1 PUSH2 0x50FC JUMP JUMPDEST PUSH2 0x3B4B PUSH2 0x442F JUMP JUMPDEST PUSH1 0x13 SLOAD PUSH1 0xFF AND PUSH2 0x3B6D JUMPI PUSH1 0x40 MLOAD PUSH3 0x461BCD PUSH1 0xE5 SHL DUP2 MSTORE PUSH1 0x4 ADD PUSH2 0x99A SWAP1 PUSH2 0x5173 JUMP JUMPDEST DUP3 PUSH2 0x3BB3 JUMPI PUSH1 0x40 MLOAD PUSH3 0x461BCD PUSH1 0xE5 SHL DUP2 MSTORE PUSH1 0x20 PUSH1 0x4 DUP3 ADD MSTORE PUSH1 0x16 PUSH1 0x24 DUP3 ADD MSTORE PUSH22 0x42617463682073697A652063616E6E6F74206265203 PUSH1 0x54 SHL PUSH1 0x44 DUP3 ADD MSTORE PUSH1 0x64 ADD PUSH2 0x99A JUMP JUMPDEST PUSH1 0x14 SLOAD PUSH1 0x1 PUSH1 0xA0 SHL SWAP1 DIV PUSH1 0xFF AND DUP4 GT ISZERO PUSH2 0x3C1B JUMPI PUSH1 0x40 MLOAD PUSH3 0x461BCD PUSH1 0xE5 SHL DUP2 MSTORE PUSH1 0x20 PUSH1 0x4 DUP3 ADD MSTORE PUSH1 0x24 DUP1 DUP3 ADD MSTORE PUSH32 0x42617463682073697A6520657863656564732074686520646566696E6564206C PUSH1 0x44 DUP3 ADD MSTORE PUSH4 0x1A5B5A5D PUSH1 0xE2 SHL PUSH1 0x64 DUP3 ADD MSTORE PUSH1 0x84 ADD PUSH2 0x99A JUMP JUMPDEST DUP3 DUP2 EQ PUSH2 0x3C6A JUMPI PUSH1 0x40 MLOAD PUSH3 0x461BCD PUSH1 0xE5 SHL DUP2 MSTORE PUSH1 0x20 PUSH1 0x4 DUP3 ADD MSTORE PUSH1 0x18 PUSH1 0x24 DUP3 ADD MSTORE PUSH32 0x4172726179206C656E67746873206D757374206D617463680000000000000000 PUSH1 0x44 DUP3 ADD MSTORE PUSH1 0x64 ADD PUSH2 0x99A JUMP JUMPDEST PUSH1 0x0 JUMPDEST DUP4 DUP2 LT ISZERO PUSH2 0x3DC4 JUMPI ADDRESS PUSH4 0xFAFD7C20 DUP7 DUP7 DUP5 DUP2 DUP2 LT PUSH2 0x3C8D JUMPI PUSH2 0x3C8D PUSH2 0x51D0 JUMP JUMPDEST SWAP1 POP PUSH1 0x20 MUL ADD PUSH1 0x20 DUP2 ADD SWAP1 PUSH2 0x3CA2 SWAP2 SWAP1 PUSH2 0x4A48 JUMP JUMPDEST DUP6 DUP6 DUP6 DUP2 DUP2 LT PUSH2 0x3CB4 JUMPI PUSH2 0x3CB4 PUSH2 0x51D0 JUMP JUMPDEST PUSH1 0x40 MLOAD PUSH1 0x1 PUSH1 0x1 PUSH1 0xE0 SHL SUB NOT PUSH1 0xE0 DUP8 SWAP1 SHL AND DUP2 MSTORE PUSH1 0x1 PUSH1 0x1 PUSH1 0xA0 SHL SUB SWAP1 SWAP5 AND PUSH1 0x4 DUP6 ADD MSTORE PUSH1 0x20 MUL SWAP2 SWAP1 SWAP2 ADD CALLDATALOAD PUSH1 0x24 DUP4 ADD MSTORE POP PUSH1 0x44 ADD PUSH1 0x0 PUSH1 0x40 MLOAD DUP1 DUP4 SUB DUP2 PUSH1 0x0 DUP8 DUP1 EXTCODESIZE ISZERO DUP1 ISZERO PUSH2 0x3D03 JUMPI PUSH1 0x0 DUP1 REVERT JUMPDEST POP GAS CALL SWAP3 POP POP POP DUP1 ISZERO PUSH2 0x3D14 JUMPI POP PUSH1 0x1 JUMPDEST PUSH2 0x3DB2 JUMPI PUSH2 0x3D20 PUSH2 0x51E6 JUMP JUMPDEST DUP1 PUSH4 0x8C379A0 SUB PUSH2 0x3DA6 JUMPI POP PUSH2 0x3D34 PUSH2 0x5202 JUMP JUMPDEST DUP1 PUSH2 0x3D3F JUMPI POP PUSH2 0x3DA8 JUMP JUMPDEST PUSH32 0x80C7A907FB61FF886445C2FEB367D7B196637D154438EC7337EB57021EF5F5A1 CALLER DUP8 DUP8 DUP6 DUP2 DUP2 LT PUSH2 0x3D73 JUMPI PUSH2 0x3D73 PUSH2 0x51D0 JUMP JUMPDEST SWAP1 POP PUSH1 0x20 MUL ADD PUSH1 0x20 DUP2 ADD SWAP1 PUSH2 0x3D88 SWAP2 SWAP1 PUSH2 0x4A48 JUMP JUMPDEST DUP4 PUSH1 0x40 MLOAD PUSH2 0x3D98 SWAP4 SWAP3 SWAP2 SWAP1 PUSH2 0x528C JUMP JUMPDEST PUSH1 0x40 MLOAD DUP1 SWAP2 SUB SWAP1 LOG1 POP PUSH2 0x3DB2 JUMP JUMPDEST POP JUMPDEST RETURNDATASIZE PUSH1 0x0 DUP1 RETURNDATACOPY RETURNDATASIZE PUSH1 0x0 REVERT JUMPDEST DUP1 PUSH2 0x3DBC DUP2 PUSH2 0x52D9 JUMP JUMPDEST SWAP2 POP POP PUSH2 0x3C6D JUMP JUMPDEST POP PUSH32 0x920309E6C1DF22E82236FC02A7D23E8EC36B85A821FC790C20A0E1497CE227DC CALLER DUP6 DUP6 DUP6 DUP6 PUSH1 0x40 MLOAD PUSH2 0x3DFC SWAP6 SWAP5 SWAP4 SWAP3 SWAP2 SWAP1 PUSH2 0x52F2 JUMP JUMPDEST PUSH1 0x40 MLOAD DUP1 SWAP2 SUB SWAP1 LOG1 PUSH2 0xA7F PUSH1 0x1 PUSH1 0x0 DUP1 MLOAD PUSH1 0x20 PUSH2 0x5434 DUP4 CODECOPY DUP2 MLOAD SWAP2 MSTORE SSTORE JUMP JUMPDEST PUSH1 0x0 PUSH2 0x3E26 DUP2 PUSH2 0x43A4 JUMP JUMPDEST PUSH2 0x3E2E PUSH2 0x21DB JUMP JUMPDEST PUSH1 0x1 PUSH1 0x1 PUSH1 0xA0 SHL SUB AND CALLER PUSH1 0x1 PUSH1 0x1 PUSH1 0xA0 SHL SUB AND EQ PUSH2 0x3E9C JUMPI PUSH1 0x40 MLOAD PUSH3 0x461BCD PUSH1 0xE5 SHL DUP2 MSTORE PUSH1 0x20 PUSH1 0x4 DUP3 ADD MSTORE PUSH1 0x25 PUSH1 0x24 DUP3 ADD MSTORE PUSH32 0x4F6E6C7920746865206F776E65722063616E207472616E73666572206F776E65 PUSH1 0x44 DUP3 ADD MSTORE PUSH5 0x727368697 PUSH1 0xDC SHL PUSH1 0x64 DUP3 ADD MSTORE PUSH1 0x84 ADD PUSH2 0x99A JUMP JUMPDEST PUSH1 0x1 PUSH1 0x1 PUSH1 0xA0 SHL SUB DUP3 AND PUSH2 0x3F01 JUMPI PUSH1 0x40 MLOAD PUSH3 0x461BCD PUSH1 0xE5 SHL DUP2 MSTORE PUSH1 0x20 PUSH1 0x4 DUP3 ADD MSTORE PUSH1 0x26 PUSH1 0x24 DUP3 ADD MSTORE PUSH32 0x4F776E61626C653A206E6577206F776E657220697320746865207A65726F2061 PUSH1 0x44 DUP3 ADD MSTORE PUSH6 0x646472657373 PUSH1 0xD0 SHL PUSH1 0x64 DUP3 ADD MSTORE PUSH1 0x84 ADD PUSH2 0x99A JUMP JUMPDEST ADDRESS PUSH1 0x1 PUSH1 0x1 PUSH1 0xA0 SHL SUB DUP4 AND SUB PUSH2 0x3F78 JUMPI PUSH1 0x40 MLOAD PUSH3 0x461BCD PUSH1 0xE5 SHL DUP2 MSTORE PUSH1 0x20 PUSH1 0x4 DUP3 ADD MSTORE PUSH1 0x36 PUSH1 0x24 DUP3 ADD MSTORE PUSH32 0x4F776E61626C653A206E6577206F776E65722063616E6E6F7420626520746865 PUSH1 0x44 DUP3 ADD MSTORE PUSH22 0x2073616D6520636F6E74726163742061646472657373 PUSH1 0x50 SHL PUSH1 0x64 DUP3 ADD MSTORE PUSH1 0x84 ADD PUSH2 0x99A JUMP JUMPDEST PUSH2 0x3F83 PUSH1 0x0 DUP4 PUSH2 0xA63 JUMP JUMPDEST PUSH2 0xDFA PUSH1 0x0 CALLER PUSH2 0x364C JUMP JUMPDEST PUSH2 0x3FA6 PUSH1 0x0 DUP1 MLOAD PUSH1 0x20 PUSH2 0x53B4 DUP4 CODECOPY DUP2 MLOAD SWAP2 MSTORE CALLER PUSH2 0x221B JUMP JUMPDEST DUP1 PUSH2 0x3FB7 JUMPI POP PUSH2 0x3FB7 PUSH1 0x0 CALLER PUSH2 0x221B JUMP JUMPDEST DUP1 PUSH2 0x3FC1 JUMPI POP CALLER ADDRESS EQ JUMPDEST PUSH2 0x3FDD JUMPI PUSH1 0x40 MLOAD PUSH3 0x461BCD PUSH1 0xE5 SHL DUP2 MSTORE PUSH1 0x4 ADD PUSH2 0x99A SWAP1 PUSH2 0x50FC JUMP JUMPDEST PUSH1 0x13 SLOAD PUSH1 0xFF AND PUSH2 0x3FFF JUMPI PUSH1 0x40 MLOAD PUSH3 0x461BCD PUSH1 0xE5 SHL DUP2 MSTORE PUSH1 0x4 ADD PUSH2 0x99A SWAP1 PUSH2 0x5173 JUMP JUMPDEST PUSH1 0x1 PUSH1 0x1 PUSH1 0xA0 SHL SUB DUP3 AND PUSH1 0x0 SWAP1 DUP2 MSTORE PUSH1 0x15 PUSH1 0x20 MSTORE PUSH1 0x40 SWAP1 KECCAK256 PUSH1 0x9 ADD SLOAD PUSH1 0xFF PUSH2 0x100 SWAP1 SWAP2 DIV AND ISZERO ISZERO PUSH1 0x1 EQ PUSH2 0x4045 JUMPI PUSH1 0x40 MLOAD PUSH3 0x461BCD PUSH1 0xE5 SHL DUP2 MSTORE PUSH1 0x4 ADD PUSH2 0x99A SWAP1 PUSH2 0x4C5A JUMP JUMPDEST PUSH1 0x1 PUSH1 0x1 PUSH1 0xA0 SHL SUB DUP3 AND PUSH1 0x0 SWAP1 DUP2 MSTORE PUSH1 0x15 PUSH1 0x20 MSTORE PUSH1 0x40 SWAP1 KECCAK256 PUSH1 0x9 ADD SLOAD PUSH3 0x10000 SWAP1 DIV PUSH1 0xFF AND ISZERO PUSH2 0x4087 JUMPI PUSH1 0x40 MLOAD PUSH3 0x461BCD PUSH1 0xE5 SHL DUP2 MSTORE PUSH1 0x4 ADD PUSH2 0x99A SWAP1 PUSH2 0x4C91 JUMP JUMPDEST PUSH1 0x1 PUSH1 0x1 PUSH1 0xA0 SHL SUB DUP3 AND PUSH1 0x0 SWAP1 DUP2 MSTORE PUSH1 0x15 PUSH1 0x20 MSTORE PUSH1 0x40 SWAP1 KECCAK256 PUSH1 0x8 ADD SLOAD PUSH2 0x40B1 SWAP1 PUSH3 0x7E900 SWAP1 PUSH2 0x4DBE JUMP JUMPDEST TIMESTAMP LT ISZERO PUSH2 0x4113 JUMPI PUSH1 0x40 MLOAD PUSH3 0x461BCD PUSH1 0xE5 SHL DUP2 MSTORE PUSH1 0x20 PUSH1 0x4 DUP3 ADD MSTORE PUSH1 0x2A PUSH1 0x24 DUP3 ADD MSTORE PUSH32 0x546F6F20736F6F6E20746F20757064617465207265776172647320666F722074 PUSH1 0x44 DUP3 ADD MSTORE PUSH10 0x1A1A5CC81DD85B1B195D PUSH1 0xB2 SHL PUSH1 0x64 DUP3 ADD MSTORE PUSH1 0x84 ADD PUSH2 0x99A JUMP JUMPDEST PUSH2 0x4129 PUSH1 0x34 PUSH11 0x7C13BC4B2C133C56000000 PUSH2 0x4E01 JUMP JUMPDEST DUP2 GT ISZERO PUSH2 0x41A0 JUMPI PUSH1 0x40 DUP1 MLOAD PUSH3 0x461BCD PUSH1 0xE5 SHL DUP2 MSTORE PUSH1 0x20 PUSH1 0x4 DUP3 ADD MSTORE PUSH1 0x24 DUP2 ADD SWAP2 SWAP1 SWAP2 MSTORE PUSH32 0x412073696E676C652077616C6C65742063616E6E6F7420686176652072657761 PUSH1 0x44 DUP3 ADD MSTORE PUSH32 0x72647320686967686572207468616E20746865207765656B6C79206C696D6974 PUSH1 0x64 DUP3 ADD MSTORE PUSH1 0x84 ADD PUSH2 0x99A JUMP JUMPDEST PUSH1 0x11 SLOAD DUP2 GT ISZERO PUSH2 0x420E JUMPI PUSH1 0x40 MLOAD PUSH3 0x461BCD PUSH1 0xE5 SHL DUP2 MSTORE PUSH1 0x20 PUSH1 0x4 DUP3 ADD MSTORE PUSH1 0x33 PUSH1 0x24 DUP3 ADD MSTORE PUSH32 0x496E73756666696369656E742072657761726420746F6B656E7320746F206469 PUSH1 0x44 DUP3 ADD MSTORE PUSH19 0x73747269627574652061732072657761726473 PUSH1 0x68 SHL PUSH1 0x64 DUP3 ADD MSTORE PUSH1 0x84 ADD PUSH2 0x99A JUMP JUMPDEST PUSH12 0x3E09DE2596099E2B0000000 DUP2 PUSH1 0xF SLOAD PUSH2 0x4229 SWAP2 SWAP1 PUSH2 0x4DBE JUMP JUMPDEST GT ISZERO PUSH2 0x4293 JUMPI PUSH1 0x40 MLOAD PUSH3 0x461BCD PUSH1 0xE5 SHL DUP2 MSTORE PUSH1 0x20 PUSH1 0x4 DUP3 ADD MSTORE PUSH1 0x33 PUSH1 0x24 DUP3 ADD MSTORE PUSH32 0x416C6C207468652072657761726420746F6B656E732068617665206265656E20 PUSH1 0x44 DUP3 ADD MSTORE PUSH19 0x185B1C9958591E48191A5CDD1C9A589D5D1959 PUSH1 0x6A SHL PUSH1 0x64 DUP3 ADD MSTORE PUSH1 0x84 ADD PUSH2 0x99A JUMP JUMPDEST PUSH1 0x1 PUSH1 0x1 PUSH1 0xA0 SHL SUB DUP3 AND PUSH1 0x0 SWAP1 DUP2 MSTORE PUSH1 0x15 PUSH1 0x20 MSTORE PUSH1 0x40 DUP2 KECCAK256 TIMESTAMP PUSH1 0x8 SWAP1 SWAP2 ADD SSTORE PUSH1 0xF DUP1 SLOAD DUP4 SWAP3 SWAP1 PUSH2 0x42C4 SWAP1 DUP5 SWAP1 PUSH2 0x4DBE JUMP JUMPDEST SWAP1 SWAP2 SSTORE POP POP PUSH1 0x1 PUSH1 0x1 PUSH1 0xA0 SHL SUB DUP3 AND PUSH1 0x0 SWAP1 DUP2 MSTORE PUSH1 0x15 PUSH1 0x20 MSTORE PUSH1 0x40 DUP2 KECCAK256 PUSH1 0x2 ADD DUP1 SLOAD DUP4 SWAP3 SWAP1 PUSH2 0x42F4 SWAP1 DUP5 SWAP1 PUSH2 0x4DBE JUMP JUMPDEST SWAP1 SWAP2 SSTORE POP POP PUSH1 0x1 PUSH1 0x1 PUSH1 0xA0 SHL SUB DUP3 AND PUSH1 0x0 SWAP1 DUP2 MSTORE PUSH1 0x15 PUSH1 0x20 MSTORE PUSH1 0x40 DUP2 KECCAK256 PUSH1 0x3 ADD DUP1 SLOAD DUP4 SWAP3 SWAP1 PUSH2 0x4324 SWAP1 DUP5 SWAP1 PUSH2 0x4DBE JUMP JUMPDEST SWAP1 SWAP2 SSTORE POP POP PUSH1 0x40 DUP1 MLOAD CALLER DUP2 MSTORE PUSH1 0x1 PUSH1 0x1 PUSH1 0xA0 SHL SUB DUP5 AND PUSH1 0x20 DUP3 ADD MSTORE SWAP1 DUP2 ADD DUP3 SWAP1 MSTORE PUSH32 0x74DD95429FE6255FB4698AA67D02AFB4EBCF261C1883A417108C7D6C0ABED4B0 SWAP1 PUSH1 0x60 ADD PUSH2 0xA57 JUMP JUMPDEST PUSH1 0x0 PUSH1 0x1 PUSH1 0x1 PUSH1 0xE0 SHL SUB NOT DUP3 AND PUSH4 0x7965DB0B PUSH1 0xE0 SHL EQ DUP1 PUSH2 0x918 JUMPI POP PUSH4 0x1FFC9A7 PUSH1 0xE0 SHL PUSH1 0x1 PUSH1 0x1 PUSH1 0xE0 SHL SUB NOT DUP4 AND EQ PUSH2 0x918 JUMP JUMPDEST PUSH2 0x1543 DUP2 CALLER PUSH2 0x4571 JUMP JUMPDEST PUSH1 0x0 PUSH1 0x0 DUP1 MLOAD PUSH1 0x20 PUSH2 0x5394 DUP4 CODECOPY DUP2 MLOAD SWAP2 MSTORE DUP2 PUSH2 0x43CA DUP6 DUP6 PUSH2 0x45AA JUMP JUMPDEST SWAP1 POP DUP1 ISZERO PUSH2 0x2213 JUMPI PUSH1 0x0 DUP6 DUP2 MSTORE PUSH1 0x20 DUP4 SWAP1 MSTORE PUSH1 0x40 SWAP1 KECCAK256 PUSH2 0x43EA SWAP1 DUP6 PUSH2 0x464F JUMP JUMPDEST POP SWAP5 SWAP4 POP POP POP POP JUMP JUMPDEST PUSH1 0x0 PUSH1 0x0 DUP1 MLOAD PUSH1 0x20 PUSH2 0x5394 DUP4 CODECOPY DUP2 MLOAD SWAP2 MSTORE DUP2 PUSH2 0x440F DUP6 DUP6 PUSH2 0x4664 JUMP JUMPDEST SWAP1 POP DUP1 ISZERO PUSH2 0x2213 JUMPI PUSH1 0x0 DUP6 DUP2 MSTORE PUSH1 0x20 DUP4 SWAP1 MSTORE PUSH1 0x40 SWAP1 KECCAK256 PUSH2 0x43EA SWAP1 DUP6 PUSH2 0x46E0 JUMP JUMPDEST PUSH1 0x0 DUP1 MLOAD PUSH1 0x20 PUSH2 0x5434 DUP4 CODECOPY DUP2 MLOAD SWAP2 MSTORE DUP1 SLOAD PUSH1 0x1 NOT ADD PUSH2 0x4461 JUMPI PUSH1 0x40 MLOAD PUSH4 0x3EE5AEB5 PUSH1 0xE0 SHL DUP2 MSTORE PUSH1 0x4 ADD PUSH1 0x40 MLOAD DUP1 SWAP2 SUB SWAP1 REVERT JUMPDEST PUSH1 0x2 SWAP1 SSTORE JUMP JUMPDEST PUSH1 0x1 PUSH1 0x0 DUP1 MLOAD PUSH1 0x20 PUSH2 0x5434 DUP4 CODECOPY DUP2 MLOAD SWAP2 MSTORE SSTORE JUMP JUMPDEST PUSH2 0x4483 PUSH2 0x46F5 JUMP JUMPDEST PUSH1 0x0 DUP1 MLOAD PUSH1 0x20 PUSH2 0x5414 DUP4 CODECOPY DUP2 MLOAD SWAP2 MSTORE DUP1 SLOAD PUSH1 0xFF NOT AND DUP2 SSTORE PUSH32 0x5DB9EE0A495BF2E6FF9C91A7834C1BA4FDD244A5E8AA4E537BD38AEAE4B073AA CALLER JUMPDEST PUSH1 0x40 MLOAD PUSH1 0x1 PUSH1 0x1 PUSH1 0xA0 SHL SUB SWAP1 SWAP2 AND DUP2 MSTORE PUSH1 0x20 ADD PUSH1 0x40 MLOAD DUP1 SWAP2 SUB SWAP1 LOG1 POP JUMP JUMPDEST PUSH2 0x44E3 PUSH2 0x471A JUMP JUMPDEST PUSH1 0x0 DUP1 MLOAD PUSH1 0x20 PUSH2 0x5414 DUP4 CODECOPY DUP2 MLOAD SWAP2 MSTORE DUP1 SLOAD PUSH1 0xFF NOT AND PUSH1 0x1 OR DUP2 SSTORE PUSH32 0x62E78CEA01BEE320CD4E420270B5EA74000D11B0C9F74754EBDBFC544B05A258 CALLER PUSH2 0x44BD JUMP JUMPDEST PUSH1 0x0 PUSH2 0x2A37 DUP4 DUP4 PUSH2 0x4740 JUMP JUMPDEST PUSH1 0x60 PUSH1 0x0 PUSH2 0x2A37 DUP4 PUSH2 0x476A JUMP JUMPDEST PUSH2 0x4545 PUSH2 0x47C6 JUMP JUMPDEST JUMP JUMPDEST PUSH2 0x454F PUSH2 0x47C6 JUMP JUMPDEST PUSH2 0x4545 PUSH2 0x480F JUMP JUMPDEST PUSH2 0x455F PUSH2 0x47C6 JUMP JUMPDEST PUSH2 0x4545 PUSH2 0x4817 JUMP JUMPDEST PUSH1 0x0 PUSH2 0x918 DUP3 SLOAD SWAP1 JUMP JUMPDEST PUSH2 0x457B DUP3 DUP3 PUSH2 0x221B JUMP JUMPDEST PUSH2 0xDFA JUMPI PUSH1 0x40 MLOAD PUSH4 0xE2517D3F PUSH1 0xE0 SHL DUP2 MSTORE PUSH1 0x1 PUSH1 0x1 PUSH1 0xA0 SHL SUB DUP3 AND PUSH1 0x4 DUP3 ADD MSTORE PUSH1 0x24 DUP2 ADD DUP4 SWAP1 MSTORE PUSH1 0x44 ADD PUSH2 0x99A JUMP JUMPDEST PUSH1 0x0 PUSH1 0x0 DUP1 MLOAD PUSH1 0x20 PUSH2 0x53F4 DUP4 CODECOPY DUP2 MLOAD SWAP2 MSTORE PUSH2 0x45C5 DUP5 DUP5 PUSH2 0x221B JUMP JUMPDEST PUSH2 0x4645 JUMPI PUSH1 0x0 DUP5 DUP2 MSTORE PUSH1 0x20 DUP3 DUP2 MSTORE PUSH1 0x40 DUP1 DUP4 KECCAK256 PUSH1 0x1 PUSH1 0x1 PUSH1 0xA0 SHL SUB DUP8 AND DUP5 MSTORE SWAP1 SWAP2 MSTORE SWAP1 KECCAK256 DUP1 SLOAD PUSH1 0xFF NOT AND PUSH1 0x1 OR SWAP1 SSTORE PUSH2 0x45FB CALLER SWAP1 JUMP JUMPDEST PUSH1 0x1 PUSH1 0x1 PUSH1 0xA0 SHL SUB AND DUP4 PUSH1 0x1 PUSH1 0x1 PUSH1 0xA0 SHL SUB AND DUP6 PUSH32 0x2F8788117E7EFF1D82E926EC794901D17C78024A50270940304540A733656F0D PUSH1 0x40 MLOAD PUSH1 0x40 MLOAD DUP1 SWAP2 SUB SWAP1 LOG4 PUSH1 0x1 SWAP2 POP POP PUSH2 0x918 JUMP JUMPDEST PUSH1 0x0 SWAP2 POP POP PUSH2 0x918 JUMP JUMPDEST PUSH1 0x0 PUSH2 0x2A37 DUP4 PUSH1 0x1 PUSH1 0x1 PUSH1 0xA0 SHL SUB DUP5 AND PUSH2 0x4838 JUMP JUMPDEST PUSH1 0x0 PUSH1 0x0 DUP1 MLOAD PUSH1 0x20 PUSH2 0x53F4 DUP4 CODECOPY DUP2 MLOAD SWAP2 MSTORE PUSH2 0x467F DUP5 DUP5 PUSH2 0x221B JUMP JUMPDEST ISZERO PUSH2 0x4645 JUMPI PUSH1 0x0 DUP5 DUP2 MSTORE PUSH1 0x20 DUP3 DUP2 MSTORE PUSH1 0x40 DUP1 DUP4 KECCAK256 PUSH1 0x1 PUSH1 0x1 PUSH1 0xA0 SHL SUB DUP8 AND DUP1 DUP6 MSTORE SWAP3 MSTORE DUP1 DUP4 KECCAK256 DUP1 SLOAD PUSH1 0xFF NOT AND SWAP1 SSTORE MLOAD CALLER SWAP3 DUP8 SWAP2 PUSH32 0xF6391F5C32D9C69D2A47EA670B442974B53935D1EDC7FD64EB21E047A839171B SWAP2 SWAP1 LOG4 PUSH1 0x1 SWAP2 POP POP PUSH2 0x918 JUMP JUMPDEST PUSH1 0x0 PUSH2 0x2A37 DUP4 PUSH1 0x1 PUSH1 0x1 PUSH1 0xA0 SHL SUB DUP5 AND PUSH2 0x4887 JUMP JUMPDEST PUSH2 0x46FD PUSH2 0x1926 JUMP JUMPDEST PUSH2 0x4545 JUMPI PUSH1 0x40 MLOAD PUSH4 0x8DFC202B PUSH1 0xE0 SHL DUP2 MSTORE PUSH1 0x4 ADD PUSH1 0x40 MLOAD DUP1 SWAP2 SUB SWAP1 REVERT JUMPDEST PUSH2 0x4722 PUSH2 0x1926 JUMP JUMPDEST ISZERO PUSH2 0x4545 JUMPI PUSH1 0x40 MLOAD PUSH4 0xD93C0665 PUSH1 0xE0 SHL DUP2 MSTORE PUSH1 0x4 ADD PUSH1 0x40 MLOAD DUP1 SWAP2 SUB SWAP1 REVERT JUMPDEST PUSH1 0x0 DUP3 PUSH1 0x0 ADD DUP3 DUP2 SLOAD DUP2 LT PUSH2 0x4757 JUMPI PUSH2 0x4757 PUSH2 0x51D0 JUMP JUMPDEST SWAP1 PUSH1 0x0 MSTORE PUSH1 0x20 PUSH1 0x0 KECCAK256 ADD SLOAD SWAP1 POP SWAP3 SWAP2 POP POP JUMP JUMPDEST PUSH1 0x60 DUP2 PUSH1 0x0 ADD DUP1 SLOAD DUP1 PUSH1 0x20 MUL PUSH1 0x20 ADD PUSH1 0x40 MLOAD SWAP1 DUP2 ADD PUSH1 0x40 MSTORE DUP1 SWAP3 SWAP2 SWAP1 DUP2 DUP2 MSTORE PUSH1 0x20 ADD DUP3 DUP1 SLOAD DUP1 ISZERO PUSH2 0x47BA JUMPI PUSH1 0x20 MUL DUP3 ADD SWAP2 SWAP1 PUSH1 0x0 MSTORE PUSH1 0x20 PUSH1 0x0 KECCAK256 SWAP1 JUMPDEST DUP2 SLOAD DUP2 MSTORE PUSH1 0x20 ADD SWAP1 PUSH1 0x1 ADD SWAP1 DUP1 DUP4 GT PUSH2 0x47A6 JUMPI JUMPDEST POP POP POP POP POP SWAP1 POP SWAP2 SWAP1 POP JUMP JUMPDEST PUSH32 0xF0C57E16840DF040F15088DC2F81FE391C3923BEC73E23A9662EFC9C229C6A00 SLOAD PUSH1 0x1 PUSH1 0x40 SHL SWAP1 DIV PUSH1 0xFF AND PUSH2 0x4545 JUMPI PUSH1 0x40 MLOAD PUSH4 0x1AFCD79F PUSH1 0xE3 SHL DUP2 MSTORE PUSH1 0x4 ADD PUSH1 0x40 MLOAD DUP1 SWAP2 SUB SWAP1 REVERT JUMPDEST PUSH2 0x4467 PUSH2 0x47C6 JUMP JUMPDEST PUSH2 0x481F PUSH2 0x47C6 JUMP JUMPDEST PUSH1 0x0 DUP1 MLOAD PUSH1 0x20 PUSH2 0x5414 DUP4 CODECOPY DUP2 MLOAD SWAP2 MSTORE DUP1 SLOAD PUSH1 0xFF NOT AND SWAP1 SSTORE JUMP JUMPDEST PUSH1 0x0 DUP2 DUP2 MSTORE PUSH1 0x1 DUP4 ADD PUSH1 0x20 MSTORE PUSH1 0x40 DUP2 KECCAK256 SLOAD PUSH2 0x487F JUMPI POP DUP2 SLOAD PUSH1 0x1 DUP2 DUP2 ADD DUP5 SSTORE PUSH1 0x0 DUP5 DUP2 MSTORE PUSH1 0x20 DUP1 DUP3 KECCAK256 SWAP1 SWAP4 ADD DUP5 SWAP1 SSTORE DUP5 SLOAD DUP5 DUP3 MSTORE DUP3 DUP7 ADD SWAP1 SWAP4 MSTORE PUSH1 0x40 SWAP1 KECCAK256 SWAP2 SWAP1 SWAP2 SSTORE PUSH2 0x918 JUMP JUMPDEST POP PUSH1 0x0 PUSH2 0x918 JUMP JUMPDEST PUSH1 0x0 DUP2 DUP2 MSTORE PUSH1 0x1 DUP4 ADD PUSH1 0x20 MSTORE PUSH1 0x40 DUP2 KECCAK256 SLOAD DUP1 ISZERO PUSH2 0x4645 JUMPI PUSH1 0x0 PUSH2 0x48AB PUSH1 0x1 DUP4 PUSH2 0x4DD1 JUMP JUMPDEST DUP6 SLOAD SWAP1 SWAP2 POP PUSH1 0x0 SWAP1 PUSH2 0x48BF SWAP1 PUSH1 0x1 SWAP1 PUSH2 0x4DD1 JUMP JUMPDEST SWAP1 POP DUP1 DUP3 EQ PUSH2 0x4924 JUMPI PUSH1 0x0 DUP7 PUSH1 0x0 ADD DUP3 DUP2 SLOAD DUP2 LT PUSH2 0x48DF JUMPI PUSH2 0x48DF PUSH2 0x51D0 JUMP JUMPDEST SWAP1 PUSH1 0x0 MSTORE PUSH1 0x20 PUSH1 0x0 KECCAK256 ADD SLOAD SWAP1 POP DUP1 DUP8 PUSH1 0x0 ADD DUP5 DUP2 SLOAD DUP2 LT PUSH2 0x4902 JUMPI PUSH2 0x4902 PUSH2 0x51D0 JUMP JUMPDEST PUSH1 0x0 SWAP2 DUP3 MSTORE PUSH1 0x20 DUP1 DUP4 KECCAK256 SWAP1 SWAP2 ADD SWAP3 SWAP1 SWAP3 SSTORE SWAP2 DUP3 MSTORE PUSH1 0x1 DUP9 ADD SWAP1 MSTORE PUSH1 0x40 SWAP1 KECCAK256 DUP4 SWAP1 SSTORE JUMPDEST DUP6 SLOAD DUP7 SWAP1 DUP1 PUSH2 0x4935 JUMPI PUSH2 0x4935 PUSH2 0x537D JUMP JUMPDEST PUSH1 0x1 SWAP1 SUB DUP2 DUP2 SWAP1 PUSH1 0x0 MSTORE PUSH1 0x20 PUSH1 0x0 KECCAK256 ADD PUSH1 0x0 SWAP1 SSTORE SWAP1 SSTORE DUP6 PUSH1 0x1 ADD PUSH1 0x0 DUP7 DUP2 MSTORE PUSH1 0x20 ADD SWAP1 DUP2 MSTORE PUSH1 0x20 ADD PUSH1 0x0 KECCAK256 PUSH1 0x0 SWAP1 SSTORE PUSH1 0x1 SWAP4 POP POP POP POP PUSH2 0x918 JUMP JUMPDEST PUSH1 0x0 PUSH1 0x20 DUP3 DUP5 SUB SLT ISZERO PUSH2 0x4982 JUMPI PUSH1 0x0 DUP1 REVERT JUMPDEST DUP2 CALLDATALOAD PUSH1 0x1 PUSH1 0x1 PUSH1 0xE0 SHL SUB NOT DUP2 AND DUP2 EQ PUSH2 0x2A37 JUMPI PUSH1 0x0 DUP1 REVERT JUMPDEST PUSH1 0x0 PUSH1 0x20 DUP3 DUP5 SUB SLT ISZERO PUSH2 0x49AC JUMPI PUSH1 0x0 DUP1 REVERT JUMPDEST POP CALLDATALOAD SWAP2 SWAP1 POP JUMP JUMPDEST PUSH1 0x0 PUSH1 0x20 DUP3 DUP5 SUB SLT ISZERO PUSH2 0x49C5 JUMPI PUSH1 0x0 DUP1 REVERT JUMPDEST DUP2 CALLDATALOAD PUSH1 0xFF DUP2 AND DUP2 EQ PUSH2 0x2A37 JUMPI PUSH1 0x0 DUP1 REVERT JUMPDEST DUP1 CALLDATALOAD PUSH1 0x1 PUSH1 0x1 PUSH1 0xA0 SHL SUB DUP2 AND DUP2 EQ PUSH2 0x49ED JUMPI PUSH1 0x0 DUP1 REVERT JUMPDEST SWAP2 SWAP1 POP JUMP JUMPDEST PUSH1 0x0 DUP1 PUSH1 0x40 DUP4 DUP6 SUB SLT ISZERO PUSH2 0x4A05 JUMPI PUSH1 0x0 DUP1 REVERT JUMPDEST DUP3 CALLDATALOAD SWAP2 POP PUSH2 0x4A15 PUSH1 0x20 DUP5 ADD PUSH2 0x49D6 JUMP JUMPDEST SWAP1 POP SWAP3 POP SWAP3 SWAP1 POP JUMP JUMPDEST PUSH1 0x0 DUP1 PUSH1 0x40 DUP4 DUP6 SUB SLT ISZERO PUSH2 0x4A31 JUMPI PUSH1 0x0 DUP1 REVERT JUMPDEST PUSH2 0x4A3A DUP4 PUSH2 0x49D6 JUMP JUMPDEST SWAP2 POP PUSH2 0x4A15 PUSH1 0x20 DUP5 ADD PUSH2 0x49D6 JUMP JUMPDEST PUSH1 0x0 PUSH1 0x20 DUP3 DUP5 SUB SLT ISZERO PUSH2 0x4A5A JUMPI PUSH1 0x0 DUP1 REVERT JUMPDEST PUSH2 0x2A37 DUP3 PUSH2 0x49D6 JUMP JUMPDEST DUP1 ISZERO ISZERO DUP2 EQ PUSH2 0x1543 JUMPI PUSH1 0x0 DUP1 REVERT JUMPDEST PUSH1 0x0 DUP1 PUSH1 0x0 PUSH1 0x60 DUP5 DUP7 SUB SLT ISZERO PUSH2 0x4A86 JUMPI PUSH1 0x0 DUP1 REVERT JUMPDEST PUSH2 0x4A8F DUP5 PUSH2 0x49D6 JUMP JUMPDEST SWAP3 POP PUSH1 0x20 DUP5 ADD CALLDATALOAD PUSH2 0x4A9F DUP2 PUSH2 0x4A63 JUMP JUMPDEST SWAP3 SWAP6 SWAP3 SWAP5 POP POP POP PUSH1 0x40 SWAP2 SWAP1 SWAP2 ADD CALLDATALOAD SWAP1 JUMP JUMPDEST PUSH1 0x0 DUP1 PUSH1 0x40 DUP4 DUP6 SUB SLT ISZERO PUSH2 0x4AC3 JUMPI PUSH1 0x0 DUP1 REVERT JUMPDEST POP POP DUP1 CALLDATALOAD SWAP3 PUSH1 0x20 SWAP1 SWAP2 ADD CALLDATALOAD SWAP2 POP JUMP JUMPDEST PUSH1 0x20 DUP1 DUP3 MSTORE DUP3 MLOAD DUP3 DUP3 ADD DUP2 SWAP1 MSTORE PUSH1 0x0 SWAP2 SWAP1 DUP5 DUP3 ADD SWAP1 PUSH1 0x40 DUP6 ADD SWAP1 DUP5 JUMPDEST DUP2 DUP2 LT ISZERO PUSH2 0x4B13 JUMPI DUP4 MLOAD PUSH1 0x1 PUSH1 0x1 PUSH1 0xA0 SHL SUB AND DUP4 MSTORE SWAP3 DUP5 ADD SWAP3 SWAP2 DUP5 ADD SWAP2 PUSH1 0x1 ADD PUSH2 0x4AEE JUMP JUMPDEST POP SWAP1 SWAP7 SWAP6 POP POP POP POP POP POP JUMP JUMPDEST PUSH1 0x0 DUP1 PUSH1 0x40 DUP4 DUP6 SUB SLT ISZERO PUSH2 0x4B32 JUMPI PUSH1 0x0 DUP1 REVERT JUMPDEST PUSH2 0x4B3B DUP4 PUSH2 0x49D6 JUMP JUMPDEST SWAP2 POP PUSH1 0x20 DUP4 ADD CALLDATALOAD PUSH2 0x4B4B DUP2 PUSH2 0x4A63 JUMP JUMPDEST DUP1 SWAP2 POP POP SWAP3 POP SWAP3 SWAP1 POP JUMP JUMPDEST PUSH1 0x0 DUP1 PUSH1 0x40 DUP4 DUP6 SUB SLT ISZERO PUSH2 0x4B69 JUMPI PUSH1 0x0 DUP1 REVERT JUMPDEST DUP3 CALLDATALOAD PUSH1 0x3 DUP2 LT PUSH2 0x4B78 JUMPI PUSH1 0x0 DUP1 REVERT JUMPDEST SWAP5 PUSH1 0x20 SWAP4 SWAP1 SWAP4 ADD CALLDATALOAD SWAP4 POP POP POP JUMP JUMPDEST PUSH1 0x0 DUP1 DUP4 PUSH1 0x1F DUP5 ADD SLT PUSH2 0x4B98 JUMPI PUSH1 0x0 DUP1 REVERT JUMPDEST POP DUP2 CALLDATALOAD PUSH8 0xFFFFFFFFFFFFFFFF DUP2 GT ISZERO PUSH2 0x4BB0 JUMPI PUSH1 0x0 DUP1 REVERT JUMPDEST PUSH1 0x20 DUP4 ADD SWAP2 POP DUP4 PUSH1 0x20 DUP3 PUSH1 0x5 SHL DUP6 ADD ADD GT ISZERO PUSH2 0x4BCB JUMPI PUSH1 0x0 DUP1 REVERT JUMPDEST SWAP3 POP SWAP3 SWAP1 POP JUMP JUMPDEST PUSH1 0x0 DUP1 PUSH1 0x0 DUP1 PUSH1 0x40 DUP6 DUP8 SUB SLT ISZERO PUSH2 0x4BE8 JUMPI PUSH1 0x0 DUP1 REVERT JUMPDEST DUP5 CALLDATALOAD PUSH8 0xFFFFFFFFFFFFFFFF DUP1 DUP3 GT ISZERO PUSH2 0x4C00 JUMPI PUSH1 0x0 DUP1 REVERT JUMPDEST PUSH2 0x4C0C DUP9 DUP4 DUP10 ADD PUSH2 0x4B86 JUMP JUMPDEST SWAP1 SWAP7 POP SWAP5 POP PUSH1 0x20 DUP8 ADD CALLDATALOAD SWAP2 POP DUP1 DUP3 GT ISZERO PUSH2 0x4C25 JUMPI PUSH1 0x0 DUP1 REVERT JUMPDEST POP PUSH2 0x4C32 DUP8 DUP3 DUP9 ADD PUSH2 0x4B86 JUMP JUMPDEST SWAP6 SWAP9 SWAP5 SWAP8 POP SWAP6 POP POP POP POP JUMP JUMPDEST PUSH1 0x0 DUP1 PUSH1 0x40 DUP4 DUP6 SUB SLT ISZERO PUSH2 0x4C51 JUMPI PUSH1 0x0 DUP1 REVERT JUMPDEST PUSH2 0x4B78 DUP4 PUSH2 0x49D6 JUMP JUMPDEST PUSH1 0x20 DUP1 DUP3 MSTORE PUSH1 0x19 SWAP1 DUP3 ADD MSTORE PUSH32 0x57616C6C6574206973206E6F742077686974656C697374656400000000000000 PUSH1 0x40 DUP3 ADD MSTORE PUSH1 0x60 ADD SWAP1 JUMP JUMPDEST PUSH1 0x20 DUP1 DUP3 MSTORE PUSH1 0x1B SWAP1 DUP3 ADD MSTORE PUSH32 0x57616C6C657420686173206265656E20626C61636B6C69737465640000000000 PUSH1 0x40 DUP3 ADD MSTORE PUSH1 0x60 ADD SWAP1 JUMP JUMPDEST PUSH1 0x20 DUP1 DUP3 MSTORE PUSH1 0x12 SWAP1 DUP3 ADD MSTORE PUSH18 0x10DBDB9D1C9858DD081A5CC81C185D5CD959 PUSH1 0x72 SHL PUSH1 0x40 DUP3 ADD MSTORE PUSH1 0x60 ADD SWAP1 JUMP JUMPDEST PUSH1 0x20 DUP1 DUP3 MSTORE PUSH1 0x40 SWAP1 DUP3 ADD DUP2 SWAP1 MSTORE PUSH32 0x52657761726420746F6B656E732066756E64696E6720686173206E6F74207374 SWAP1 DUP3 ADD MSTORE PUSH32 0x6172746564207965742C206E6F20746F6B656E7320746F207769746864726177 PUSH1 0x60 DUP3 ADD MSTORE PUSH1 0x80 ADD SWAP1 JUMP JUMPDEST PUSH1 0x20 DUP1 DUP3 MSTORE PUSH1 0x36 SWAP1 DUP3 ADD MSTORE PUSH32 0x496E73756666696369656E742072657761726420746F6B656E7320696E207468 PUSH1 0x40 DUP3 ADD MSTORE PUSH22 0x6520636F6E747261637420746F207769746864726177 PUSH1 0x50 SHL PUSH1 0x60 DUP3 ADD MSTORE PUSH1 0x80 ADD SWAP1 JUMP JUMPDEST PUSH4 0x4E487B71 PUSH1 0xE0 SHL PUSH1 0x0 MSTORE PUSH1 0x11 PUSH1 0x4 MSTORE PUSH1 0x24 PUSH1 0x0 REVERT JUMPDEST DUP1 DUP3 ADD DUP1 DUP3 GT ISZERO PUSH2 0x918 JUMPI PUSH2 0x918 PUSH2 0x4DA8 JUMP JUMPDEST DUP2 DUP2 SUB DUP2 DUP2 GT ISZERO PUSH2 0x918 JUMPI PUSH2 0x918 PUSH2 0x4DA8 JUMP JUMPDEST PUSH1 0x0 PUSH1 0x20 DUP3 DUP5 SUB SLT ISZERO PUSH2 0x4DF6 JUMPI PUSH1 0x0 DUP1 REVERT JUMPDEST DUP2 MLOAD PUSH2 0x2A37 DUP2 PUSH2 0x4A63 JUMP JUMPDEST PUSH1 0x0 DUP3 PUSH2 0x4E1E JUMPI PUSH4 0x4E487B71 PUSH1 0xE0 SHL PUSH1 0x0 MSTORE PUSH1 0x12 PUSH1 0x4 MSTORE PUSH1 0x24 PUSH1 0x0 REVERT JUMPDEST POP DIV SWAP1 JUMP JUMPDEST PUSH1 0x20 DUP1 DUP3 MSTORE PUSH1 0x40 SWAP1 DUP3 ADD DUP2 SWAP1 MSTORE PUSH32 0x47726F77746820746F6B656E732066756E64696E6720686173206E6F74207374 SWAP1 DUP3 ADD MSTORE PUSH32 0x6172746564207965742C206E6F20746F6B656E7320746F207769746864726177 PUSH1 0x60 DUP3 ADD MSTORE PUSH1 0x80 ADD SWAP1 JUMP JUMPDEST PUSH1 0x20 DUP1 DUP3 MSTORE PUSH1 0x37 SWAP1 DUP3 ADD MSTORE PUSH32 0x46756E6374696F6E207265736572766564206F6E6C7920666F72207468652077 PUSH1 0x40 DUP3 ADD MSTORE PUSH32 0x686974656C6973746572206F7220746865206F776E6572000000000000000000 PUSH1 0x60 DUP3 ADD MSTORE PUSH1 0x80 ADD SWAP1 JUMP JUMPDEST PUSH1 0x20 DUP1 DUP3 MSTORE PUSH1 0x3E SWAP1 DUP3 ADD MSTORE PUSH32 0x5465616D20746F6B656E732066756E64696E6720686173206E6F742073746172 PUSH1 0x40 DUP3 ADD MSTORE PUSH32 0x746564207965742C206E6F20746F6B656E7320746F2077697468647261770000 PUSH1 0x60 DUP3 ADD MSTORE PUSH1 0x80 ADD SWAP1 JUMP JUMPDEST PUSH1 0x0 PUSH1 0xFF DUP3 AND PUSH1 0xFF DUP2 SUB PUSH2 0x4F51 JUMPI PUSH2 0x4F51 PUSH2 0x4DA8 JUMP JUMPDEST PUSH1 0x1 ADD SWAP3 SWAP2 POP POP JUMP JUMPDEST PUSH4 0x4E487B71 PUSH1 0xE0 SHL PUSH1 0x0 MSTORE PUSH1 0x41 PUSH1 0x4 MSTORE PUSH1 0x24 PUSH1 0x0 REVERT JUMPDEST PUSH1 0x1F DUP3 ADD PUSH1 0x1F NOT AND DUP2 ADD PUSH8 0xFFFFFFFFFFFFFFFF DUP2 GT DUP3 DUP3 LT OR ISZERO PUSH2 0x4F96 JUMPI PUSH2 0x4F96 PUSH2 0x4F5A JUMP JUMPDEST PUSH1 0x40 MSTORE POP POP JUMP JUMPDEST PUSH1 0x0 JUMPDEST DUP4 DUP2 LT ISZERO PUSH2 0x4FB8 JUMPI DUP2 DUP2 ADD MLOAD DUP4 DUP3 ADD MSTORE PUSH1 0x20 ADD PUSH2 0x4FA0 JUMP JUMPDEST POP POP PUSH1 0x0 SWAP2 ADD MSTORE JUMP JUMPDEST PUSH1 0x0 PUSH1 0x20 DUP3 DUP5 SUB SLT ISZERO PUSH2 0x4FD3 JUMPI PUSH1 0x0 DUP1 REVERT JUMPDEST DUP2 MLOAD PUSH8 0xFFFFFFFFFFFFFFFF DUP1 DUP3 GT ISZERO PUSH2 0x4FEB JUMPI PUSH1 0x0 DUP1 REVERT JUMPDEST DUP2 DUP5 ADD SWAP2 POP DUP5 PUSH1 0x1F DUP4 ADD SLT PUSH2 0x4FFF JUMPI PUSH1 0x0 DUP1 REVERT JUMPDEST DUP2 MLOAD DUP2 DUP2 GT ISZERO PUSH2 0x5011 JUMPI PUSH2 0x5011 PUSH2 0x4F5A JUMP JUMPDEST PUSH1 0x40 MLOAD SWAP2 POP PUSH2 0x502A PUSH1 0x1F DUP3 ADD PUSH1 0x1F NOT AND PUSH1 0x20 ADD DUP4 PUSH2 0x4F70 JUMP JUMPDEST DUP1 DUP3 MSTORE DUP6 PUSH1 0x20 DUP3 DUP6 ADD ADD GT ISZERO PUSH2 0x503F JUMPI PUSH1 0x0 DUP1 REVERT JUMPDEST PUSH2 0x43EA DUP2 PUSH1 0x20 DUP5 ADD PUSH1 0x20 DUP7 ADD PUSH2 0x4F9D JUMP JUMPDEST PUSH1 0x0 DUP3 MLOAD PUSH2 0x5062 DUP2 DUP5 PUSH1 0x20 DUP8 ADD PUSH2 0x4F9D JUMP JUMPDEST SWAP2 SWAP1 SWAP2 ADD SWAP3 SWAP2 POP POP JUMP JUMPDEST PUSH1 0x20 DUP1 DUP3 MSTORE PUSH1 0x2E SWAP1 DUP3 ADD MSTORE PUSH32 0x57616C6C65742068617320616C7265616479206265656E207570646174656420 PUSH1 0x40 DUP3 ADD MSTORE PUSH14 0x746F207468617420737461747573 PUSH1 0x90 SHL PUSH1 0x60 DUP3 ADD MSTORE PUSH1 0x80 ADD SWAP1 JUMP JUMPDEST PUSH4 0x4E487B71 PUSH1 0xE0 SHL PUSH1 0x0 MSTORE PUSH1 0x21 PUSH1 0x4 MSTORE PUSH1 0x24 PUSH1 0x0 REVERT JUMPDEST PUSH1 0x40 DUP2 ADD PUSH1 0x3 DUP5 LT PUSH2 0x50F2 JUMPI PUSH4 0x4E487B71 PUSH1 0xE0 SHL PUSH1 0x0 MSTORE PUSH1 0x21 PUSH1 0x4 MSTORE PUSH1 0x24 PUSH1 0x0 REVERT JUMPDEST SWAP3 DUP2 MSTORE PUSH1 0x20 ADD MSTORE SWAP1 JUMP JUMPDEST PUSH1 0x20 DUP1 DUP3 MSTORE PUSH1 0x51 SWAP1 DUP3 ADD MSTORE PUSH32 0x46756E6374696F6E207265736572766564206F6E6C7920666F72207468652072 PUSH1 0x40 DUP3 ADD MSTORE PUSH32 0x65776172647320757064617465722C20746865206F776E65722C206F72207468 PUSH1 0x60 DUP3 ADD MSTORE PUSH17 0x329031B7B73A3930B1BA1034BA39B2B633 PUSH1 0x79 SHL PUSH1 0x80 DUP3 ADD MSTORE PUSH1 0xA0 ADD SWAP1 JUMP JUMPDEST PUSH1 0x20 DUP1 DUP3 MSTORE PUSH1 0x3E SWAP1 DUP3 ADD MSTORE PUSH32 0x52657761726420746F6B656E732066756E64696E6720686173206E6F74207374 PUSH1 0x40 DUP3 ADD MSTORE PUSH32 0x6172746564207965742C206E6F20746F6B656E7320746F207570646174650000 PUSH1 0x60 DUP3 ADD MSTORE PUSH1 0x80 ADD SWAP1 JUMP JUMPDEST PUSH4 0x4E487B71 PUSH1 0xE0 SHL PUSH1 0x0 MSTORE PUSH1 0x32 PUSH1 0x4 MSTORE PUSH1 0x24 PUSH1 0x0 REVERT JUMPDEST PUSH1 0x0 PUSH1 0x3 RETURNDATASIZE GT ISZERO PUSH2 0x51FF JUMPI PUSH1 0x4 PUSH1 0x0 DUP1 RETURNDATACOPY POP PUSH1 0x0 MLOAD PUSH1 0xE0 SHR JUMPDEST SWAP1 JUMP JUMPDEST PUSH1 0x0 PUSH1 0x44 RETURNDATASIZE LT ISZERO PUSH2 0x5210 JUMPI SWAP1 JUMP JUMPDEST PUSH1 0x40 MLOAD PUSH1 0x3 NOT RETURNDATASIZE DUP2 ADD PUSH1 0x4 DUP4 RETURNDATACOPY DUP2 MLOAD RETURNDATASIZE PUSH8 0xFFFFFFFFFFFFFFFF DUP2 PUSH1 0x24 DUP5 ADD GT DUP2 DUP5 GT OR ISZERO PUSH2 0x5240 JUMPI POP POP POP POP POP SWAP1 JUMP JUMPDEST DUP3 DUP6 ADD SWAP2 POP DUP2 MLOAD DUP2 DUP2 GT ISZERO PUSH2 0x5258 JUMPI POP POP POP POP POP POP SWAP1 JUMP JUMPDEST DUP5 RETURNDATASIZE DUP8 ADD ADD PUSH1 0x20 DUP3 DUP6 ADD ADD GT ISZERO PUSH2 0x5272 JUMPI POP POP POP POP POP POP SWAP1 JUMP JUMPDEST PUSH2 0x5281 PUSH1 0x20 DUP3 DUP7 ADD ADD DUP8 PUSH2 0x4F70 JUMP JUMPDEST POP SWAP1 SWAP6 SWAP5 POP POP POP POP POP JUMP JUMPDEST PUSH1 0x0 PUSH1 0x1 DUP1 PUSH1 0xA0 SHL SUB DUP1 DUP7 AND DUP4 MSTORE DUP1 DUP6 AND PUSH1 0x20 DUP5 ADD MSTORE POP PUSH1 0x60 PUSH1 0x40 DUP4 ADD MSTORE DUP3 MLOAD DUP1 PUSH1 0x60 DUP5 ADD MSTORE PUSH2 0x52C3 DUP2 PUSH1 0x80 DUP6 ADD PUSH1 0x20 DUP8 ADD PUSH2 0x4F9D JUMP JUMPDEST PUSH1 0x1F ADD PUSH1 0x1F NOT AND SWAP2 SWAP1 SWAP2 ADD PUSH1 0x80 ADD SWAP5 SWAP4 POP POP POP POP JUMP JUMPDEST PUSH1 0x0 PUSH1 0x1 DUP3 ADD PUSH2 0x52EB JUMPI PUSH2 0x52EB PUSH2 0x4DA8 JUMP JUMPDEST POP PUSH1 0x1 ADD SWAP1 JUMP JUMPDEST PUSH1 0x1 PUSH1 0x1 PUSH1 0xA0 SHL SUB DUP7 DUP2 AND DUP3 MSTORE PUSH1 0x60 PUSH1 0x20 DUP1 DUP5 ADD DUP3 SWAP1 MSTORE SWAP1 DUP4 ADD DUP7 SWAP1 MSTORE PUSH1 0x0 SWAP2 DUP8 SWAP2 PUSH1 0x80 DUP6 ADD DUP5 JUMPDEST DUP10 DUP2 LT ISZERO PUSH2 0x533F JUMPI DUP4 PUSH2 0x532C DUP7 PUSH2 0x49D6 JUMP JUMPDEST AND DUP3 MSTORE SWAP4 DUP3 ADD SWAP4 SWAP1 DUP3 ADD SWAP1 PUSH1 0x1 ADD PUSH2 0x531A JUMP JUMPDEST POP DUP6 DUP2 SUB PUSH1 0x40 DUP8 ADD MSTORE DUP7 DUP2 MSTORE PUSH1 0x1 PUSH1 0x1 PUSH1 0xFB SHL SUB DUP8 GT ISZERO PUSH2 0x535F JUMPI PUSH1 0x0 DUP1 REVERT JUMPDEST DUP7 PUSH1 0x5 SHL SWAP4 POP DUP4 DUP9 DUP4 DUP4 ADD CALLDATACOPY SWAP1 SWAP3 ADD SWAP1 SWAP2 ADD SWAP9 SWAP8 POP POP POP POP POP POP POP POP JUMP JUMPDEST PUSH4 0x4E487B71 PUSH1 0xE0 SHL PUSH1 0x0 MSTORE PUSH1 0x31 PUSH1 0x4 MSTORE PUSH1 0x24 PUSH1 0x0 REVERT INVALID 0xC1 0xF6 INVALID 0x24 PUSH3 0x1CE81E 0xC5 DUP3 PUSH29 0xAF0253CADB74709B061630E6B55E82371705932000472868E4E53C1B7F 0xCE 0xCF ISZERO PUSH11 0x706C5E7471A90D4F9323BF 0xE0 0xF9 0x24 0xCB DUP15 SWAP6 0xEC LOG0 SDIV DUP7 NOT 0xCE 0xCD DUP12 SWAP15 MULMOD GAS 0xB4 CODESIZE PUSH8 0xF5B69D492180450F 0xE8 PUSH3 0xE6B50B 0xFB 0xFB 0x24 0xB7 0x5D 0xD8 0x4C DUP11 MUL 0xDD PUSH28 0xC7DEC4DCEEDDA775E58DD541E08A116C6C53815C0BD028192F7B6268 STOP 0xCD 0x5E 0xD1 0x5C PUSH15 0x187E77E9AEE88184C21F4F2182AB58 0x27 0xCB EXTCODESIZE PUSH31 0x7FBEDCD63F033009B779B17422D0DF92223018B32B4D1FA46E071723D6817 0xE2 BASEFEE PUSH14 0x3BECC55F00A264697066735822 SLT KECCAK256 PUSH0 SWAP15 BLOCKHASH 0xB3 DUP4 0xE1 0xC0 SWAP16 SWAP9 SWAP14 0xE7 COINBASE 0xDC STOP 0xCA PUSH23 0xF27983686986772EA654200632A6451A64736F6C634300 ADDMOD EQ STOP CALLER "},"methodIdentifiers":{"DEFAULT_ADMIN_ROLE()":"a217fddf","GROWTH_TOKENS_TOTAL()":"a868e997","GROWTH_TOKENS_WITHDRAWAL_PER_YEAR()":"1e6b4028","MIN_INTERVAL_FOR_UPDATE_REWARDS()":"e3682a5d","REWARDS_UPDATER_ROLE()":"f32217b0","REWARD_TOKENS_PER_WEEK()":"42ecb464","REWARD_TOKENS_PER_YEAR()":"de51d567","REWARD_TOKENS_TOTAL()":"81f8ca1b","TEAM_TOKENS_LOCKED_PERIOD()":"dcb7ff6b","TEAM_TOKENS_TOTAL()":"5493b30d","TEAM_TOKENS_WITHDRAWAL_PER_YEAR()":"8e6d32df","TOKENS_WITHDRAWAL_PERIOD()":"59aa8966","WHITELISTER_ROLE()":"570618e1","addWalletToWhitelist(address,bool,uint256)":"8a194d04","calculateYearForTeamTokens()":"8bb4dadd","fundSmartContract(uint8,uint256)":"d3946a8c","getRoleAdmin(bytes32)":"248a9ca3","getRoleMember(bytes32,uint256)":"9010d07c","getRoleMemberCount(bytes32)":"ca15c873","getRoleMembers(bytes32)":"a3246ad3","grantRole(bytes32,address)":"2f2ff15d","growthTokensFunded()":"5d70203b","growthTokensFundingStarted()":"f3793b9d","growthTokensInSmartContract()":"d356b49a","growthTokensLastWithdrawalTime()":"687a83f8","growthTokensStartFundingTime()":"9656cd8c","growthTokensWithdrawn()":"6148c783","hasRole(bytes32,address)":"91d14854","hyaxToken()":"3ba10a56","hyaxTokenAddress()":"031f6589","initialize(address)":"c4d66de8","maximumBatchSizeForUpdateRewards()":"b4ba9fd7","owner()":"8da5cb5b","pause()":"8456cb59","paused()":"5c975abb","renounceRole(bytes32,address)":"36568abe","revokeRole(bytes32,address)":"d547741f","rewardTokensDistributed()":"e774ce43","rewardTokensFunded()":"fd559526","rewardTokensFundingStarted()":"ebc8e2dd","rewardTokensInSmartContract()":"8da2e27f","rewardTokensStartFundingTime()":"6e3ce4e1","rewardTokensWithdrawn()":"334c4cb3","rewardsUpdaterAddress()":"f972c027","supportsInterface(bytes4)":"01ffc9a7","teamTokensFunded()":"f8ff46c6","teamTokensFundingStarted()":"c1cc52b3","teamTokensInSmartContract()":"647a5a78","teamTokensStartFundingTime()":"1035fc09","teamTokensWithdrawn()":"d7e57fda","transferOwnership(address)":"f2fde38b","unpause()":"3f4ba83a","updateBlacklistStatus(address,bool)":"b8360806","updateHyaxTokenAddress(address)":"9bae9002","updateMaximumBatchSizeForUpdateRewards(uint8)":"2574cd9d","updateRewardsBatch(address[],uint256[])":"efce5587","updateRewardsSingle(address,uint256)":"fafd7c20","updateRewardsUpdaterAddress(address)":"6fce7873","updateTeamMemberWallet(address,address)":"3768c029","updateWhiteListerAddress(address)":"653c3a47","updateWhitelistStatus(address,bool)":"c07732a3","wallets(address)":"89b08f11","whiteListerAddress()":"65699d28","withdrawGrowthTokens()":"4c4dc42e","withdrawRewardTokens()":"370243dc","withdrawTeamTokens()":"953b7ef8","withdrawTokensToBurn(uint8,uint256)":"e2ccbfe4"}},"storageLayout":{"storage":[{"astId":2853,"contract":"contracts/UpgradeableHYAXRewards.sol:UpgradeableHYAXRewards","label":"_placeholder","offset":0,"slot":"0","type":"t_struct(Placeholder)2849_storage"},{"astId":2979,"contract":"contracts/UpgradeableHYAXRewards.sol:UpgradeableHYAXRewards","label":"hyaxTokenAddress","offset":0,"slot":"1","type":"t_address"},{"astId":2982,"contract":"contracts/UpgradeableHYAXRewards.sol:UpgradeableHYAXRewards","label":"hyaxToken","offset":0,"slot":"2","type":"t_contract(IHyaxToken)2840"},{"astId":3018,"contract":"contracts/UpgradeableHYAXRewards.sol:UpgradeableHYAXRewards","label":"growthTokensFunded","offset":0,"slot":"3","type":"t_uint256"},{"astId":3020,"contract":"contracts/UpgradeableHYAXRewards.sol:UpgradeableHYAXRewards","label":"growthTokensWithdrawn","offset":0,"slot":"4","type":"t_uint256"},{"astId":3022,"contract":"contracts/UpgradeableHYAXRewards.sol:UpgradeableHYAXRewards","label":"growthTokensInSmartContract","offset":0,"slot":"5","type":"t_uint256"},{"astId":3024,"contract":"contracts/UpgradeableHYAXRewards.sol:UpgradeableHYAXRewards","label":"growthTokensLastWithdrawalTime","offset":0,"slot":"6","type":"t_uint256"},{"astId":3026,"contract":"contracts/UpgradeableHYAXRewards.sol:UpgradeableHYAXRewards","label":"growthTokensStartFundingTime","offset":0,"slot":"7","type":"t_uint256"},{"astId":3028,"contract":"contracts/UpgradeableHYAXRewards.sol:UpgradeableHYAXRewards","label":"growthTokensFundingStarted","offset":0,"slot":"8","type":"t_bool"},{"astId":3047,"contract":"contracts/UpgradeableHYAXRewards.sol:UpgradeableHYAXRewards","label":"teamTokensFunded","offset":0,"slot":"9","type":"t_uint256"},{"astId":3049,"contract":"contracts/UpgradeableHYAXRewards.sol:UpgradeableHYAXRewards","label":"teamTokensWithdrawn","offset":0,"slot":"10","type":"t_uint256"},{"astId":3051,"contract":"contracts/UpgradeableHYAXRewards.sol:UpgradeableHYAXRewards","label":"teamTokensInSmartContract","offset":0,"slot":"11","type":"t_uint256"},{"astId":3053,"contract":"contracts/UpgradeableHYAXRewards.sol:UpgradeableHYAXRewards","label":"teamTokensStartFundingTime","offset":0,"slot":"12","type":"t_uint256"},{"astId":3055,"contract":"contracts/UpgradeableHYAXRewards.sol:UpgradeableHYAXRewards","label":"teamTokensFundingStarted","offset":0,"slot":"13","type":"t_bool"},{"astId":3076,"contract":"contracts/UpgradeableHYAXRewards.sol:UpgradeableHYAXRewards","label":"rewardTokensFunded","offset":0,"slot":"14","type":"t_uint256"},{"astId":3078,"contract":"contracts/UpgradeableHYAXRewards.sol:UpgradeableHYAXRewards","label":"rewardTokensDistributed","offset":0,"slot":"15","type":"t_uint256"},{"astId":3080,"contract":"contracts/UpgradeableHYAXRewards.sol:UpgradeableHYAXRewards","label":"rewardTokensWithdrawn","offset":0,"slot":"16","type":"t_uint256"},{"astId":3082,"contract":"contracts/UpgradeableHYAXRewards.sol:UpgradeableHYAXRewards","label":"rewardTokensInSmartContract","offset":0,"slot":"17","type":"t_uint256"},{"astId":3084,"contract":"contracts/UpgradeableHYAXRewards.sol:UpgradeableHYAXRewards","label":"rewardTokensStartFundingTime","offset":0,"slot":"18","type":"t_uint256"},{"astId":3086,"contract":"contracts/UpgradeableHYAXRewards.sol:UpgradeableHYAXRewards","label":"rewardTokensFundingStarted","offset":0,"slot":"19","type":"t_bool"},{"astId":3088,"contract":"contracts/UpgradeableHYAXRewards.sol:UpgradeableHYAXRewards","label":"whiteListerAddress","offset":1,"slot":"19","type":"t_address"},{"astId":3090,"contract":"contracts/UpgradeableHYAXRewards.sol:UpgradeableHYAXRewards","label":"rewardsUpdaterAddress","offset":0,"slot":"20","type":"t_address"},{"astId":3117,"contract":"contracts/UpgradeableHYAXRewards.sol:UpgradeableHYAXRewards","label":"maximumBatchSizeForUpdateRewards","offset":20,"slot":"20","type":"t_uint8"},{"astId":3122,"contract":"contracts/UpgradeableHYAXRewards.sol:UpgradeableHYAXRewards","label":"wallets","offset":0,"slot":"21","type":"t_mapping(t_address,t_struct(WalletData)3115_storage)"},{"astId":3126,"contract":"contracts/UpgradeableHYAXRewards.sol:UpgradeableHYAXRewards","label":"__gap","offset":0,"slot":"22","type":"t_array(t_uint256)50_storage"}],"types":{"t_address":{"encoding":"inplace","label":"address","numberOfBytes":"20"},"t_array(t_uint256)50_storage":{"base":"t_uint256","encoding":"inplace","label":"uint256[50]","numberOfBytes":"1600"},"t_bool":{"encoding":"inplace","label":"bool","numberOfBytes":"1"},"t_contract(IHyaxToken)2840":{"encoding":"inplace","label":"contract IHyaxToken","numberOfBytes":"20"},"t_mapping(t_address,t_struct(WalletData)3115_storage)":{"encoding":"mapping","key":"t_address","label":"mapping(address => struct UpgradeableHYAXRewards.WalletData)","numberOfBytes":"32","value":"t_struct(WalletData)3115_storage"},"t_struct(Placeholder)2849_storage":{"encoding":"inplace","label":"struct UpgradeableHYAXRewards.Placeholder","members":[{"astId":2848,"contract":"contracts/UpgradeableHYAXRewards.sol:UpgradeableHYAXRewards","label":"_unused","offset":0,"slot":"0","type":"t_uint256"}],"numberOfBytes":"32"},"t_struct(WalletData)3115_storage":{"encoding":"inplace","label":"struct UpgradeableHYAXRewards.WalletData","members":[{"astId":3092,"contract":"contracts/UpgradeableHYAXRewards.sol:UpgradeableHYAXRewards","label":"hyaxHoldingAmount","offset":0,"slot":"0","type":"t_uint256"},{"astId":3094,"contract":"contracts/UpgradeableHYAXRewards.sol:UpgradeableHYAXRewards","label":"hyaxHoldingAmountAtWhitelistTime","offset":0,"slot":"1","type":"t_uint256"},{"astId":3096,"contract":"contracts/UpgradeableHYAXRewards.sol:UpgradeableHYAXRewards","label":"totalHyaxRewardsAmount","offset":0,"slot":"2","type":"t_uint256"},{"astId":3098,"contract":"contracts/UpgradeableHYAXRewards.sol:UpgradeableHYAXRewards","label":"currentRewardsAmount","offset":0,"slot":"3","type":"t_uint256"},{"astId":3100,"contract":"contracts/UpgradeableHYAXRewards.sol:UpgradeableHYAXRewards","label":"rewardsWithdrawn","offset":0,"slot":"4","type":"t_uint256"},{"astId":3102,"contract":"contracts/UpgradeableHYAXRewards.sol:UpgradeableHYAXRewards","label":"addedToWhitelistTime","offset":0,"slot":"5","type":"t_uint256"},{"astId":3104,"contract":"contracts/UpgradeableHYAXRewards.sol:UpgradeableHYAXRewards","label":"teamTokenWithdrawalTimes","offset":0,"slot":"6","type":"t_uint8"},{"astId":3106,"contract":"contracts/UpgradeableHYAXRewards.sol:UpgradeableHYAXRewards","label":"lastRewardsWithdrawalTime","offset":0,"slot":"7","type":"t_uint256"},{"astId":3108,"contract":"contracts/UpgradeableHYAXRewards.sol:UpgradeableHYAXRewards","label":"lastRewardsUpdateTime","offset":0,"slot":"8","type":"t_uint256"},{"astId":3110,"contract":"contracts/UpgradeableHYAXRewards.sol:UpgradeableHYAXRewards","label":"isTeamWallet","offset":0,"slot":"9","type":"t_bool"},{"astId":3112,"contract":"contracts/UpgradeableHYAXRewards.sol:UpgradeableHYAXRewards","label":"isWhitelisted","offset":1,"slot":"9","type":"t_bool"},{"astId":3114,"contract":"contracts/UpgradeableHYAXRewards.sol:UpgradeableHYAXRewards","label":"isBlacklisted","offset":2,"slot":"9","type":"t_bool"}],"numberOfBytes":"320"},"t_uint256":{"encoding":"inplace","label":"uint256","numberOfBytes":"32"},"t_uint8":{"encoding":"inplace","label":"uint8","numberOfBytes":"1"}}}}}}