{"contracts/UpgradeableHYAXRewards.sol":{"UpgradeableHYAXRewards":{"abi":[{"inputs":[],"name":"EnforcedPause","type":"error"},{"inputs":[],"name":"ExpectedPause","type":"error"},{"inputs":[],"name":"InvalidInitialization","type":"error"},{"inputs":[],"name":"NotInitializing","type":"error"},{"inputs":[{"internalType":"address","name":"owner","type":"address"}],"name":"OwnableInvalidOwner","type":"error"},{"inputs":[{"internalType":"address","name":"account","type":"address"}],"name":"OwnableUnauthorizedAccount","type":"error"},{"inputs":[],"name":"ReentrancyGuardReentrantCall","type":"error"},{"anonymous":false,"inputs":[{"indexed":false,"internalType":"address","name":"_sender","type":"address"},{"indexed":false,"internalType":"address","name":"_walletAddress","type":"address"},{"indexed":false,"internalType":"bool","name":"_newStatus","type":"bool"}],"name":"BlacklistStatusUpdated","type":"event"},{"anonymous":false,"inputs":[{"indexed":false,"internalType":"enum UpgradeableHYAXRewards.FundingType","name":"_fundingType","type":"uint8"},{"indexed":false,"internalType":"uint256","name":"_amount","type":"uint256"}],"name":"FundingAdded","type":"event"},{"anonymous":false,"inputs":[{"indexed":false,"internalType":"address","name":"_walletAddress","type":"address"},{"indexed":false,"internalType":"uint256","name":"_amount","type":"uint256"}],"name":"GrowthTokensWithdrawn","type":"event"},{"anonymous":false,"inputs":[{"indexed":false,"internalType":"address","name":"_hyaxTokenAddress","type":"address"}],"name":"HyaxTokenAddressUpdated","type":"event"},{"anonymous":false,"inputs":[{"indexed":false,"internalType":"uint64","name":"version","type":"uint64"}],"name":"Initialized","type":"event"},{"anonymous":false,"inputs":[{"indexed":false,"internalType":"address","name":"_sender","type":"address"},{"indexed":false,"internalType":"address","name":"_origin","type":"address"}],"name":"LogSenderAndOrigin","type":"event"},{"anonymous":false,"inputs":[{"indexed":false,"internalType":"uint8","name":"_maximumBatchSizeForUpdateRewards","type":"uint8"}],"name":"MaximumBatchSizeForUpdateRewardsUpdated","type":"event"},{"anonymous":false,"inputs":[{"indexed":true,"internalType":"address","name":"previousOwner","type":"address"},{"indexed":true,"internalType":"address","name":"newOwner","type":"address"}],"name":"OwnershipTransferred","type":"event"},{"anonymous":false,"inputs":[{"indexed":false,"internalType":"address","name":"account","type":"address"}],"name":"Paused","type":"event"},{"anonymous":false,"inputs":[{"indexed":false,"internalType":"address","name":"_walletAddress","type":"address"},{"indexed":false,"internalType":"uint256","name":"_amount","type":"uint256"}],"name":"RewardTokensWithdrawn","type":"event"},{"anonymous":false,"inputs":[{"indexed":false,"internalType":"address","name":"_sender","type":"address"},{"indexed":false,"internalType":"address[]","name":"_walletAddresses","type":"address[]"},{"indexed":false,"internalType":"uint256[]","name":"_hyaxRewards","type":"uint256[]"}],"name":"RewardUpdateBatchSent","type":"event"},{"anonymous":false,"inputs":[{"indexed":false,"internalType":"address","name":"_sender","type":"address"},{"indexed":false,"internalType":"address","name":"_walletAddress","type":"address"},{"indexed":false,"internalType":"string","name":"_errorMessage","type":"string"}],"name":"RewardUpdateFailed","type":"event"},{"anonymous":false,"inputs":[{"indexed":false,"internalType":"address","name":"_sender","type":"address"},{"indexed":false,"internalType":"address","name":"_walletAddress","type":"address"},{"indexed":false,"internalType":"uint256","name":"_hyaxReward","type":"uint256"}],"name":"RewardUpdateSuccess","type":"event"},{"anonymous":false,"inputs":[{"indexed":false,"internalType":"address","name":"_rewardsUpdaterAddress","type":"address"}],"name":"RewardsUpdaterAddressUpdated","type":"event"},{"anonymous":false,"inputs":[{"indexed":false,"internalType":"address","name":"_oldTeamMemberWalletAddress","type":"address"},{"indexed":false,"internalType":"address","name":"_newTeamMemberWalletAddress","type":"address"},{"indexed":false,"internalType":"uint256","name":"_hyaxHoldingAmount","type":"uint256"}],"name":"TeamMemberWalletUpdated","type":"event"},{"anonymous":false,"inputs":[{"indexed":false,"internalType":"address","name":"_walletAddress","type":"address"},{"indexed":false,"internalType":"uint256","name":"_amount","type":"uint256"}],"name":"TeamTokensWithdrawn","type":"event"},{"anonymous":false,"inputs":[{"indexed":false,"internalType":"enum UpgradeableHYAXRewards.FundingType","name":"_fundingType","type":"uint8"},{"indexed":false,"internalType":"uint256","name":"_amount","type":"uint256"}],"name":"TokensToBurnWithdrawn","type":"event"},{"anonymous":false,"inputs":[{"indexed":false,"internalType":"address","name":"account","type":"address"}],"name":"Unpaused","type":"event"},{"anonymous":false,"inputs":[{"indexed":false,"internalType":"address","name":"_sender","type":"address"},{"indexed":false,"internalType":"address","name":"_walletAddress","type":"address"},{"indexed":false,"internalType":"bool","name":"_isTeamWallet","type":"bool"},{"indexed":false,"internalType":"uint256","name":"_hyaxHoldingAmount","type":"uint256"}],"name":"WalletAddedToWhitelist","type":"event"},{"anonymous":false,"inputs":[{"indexed":false,"internalType":"address","name":"_whiteListerAddress","type":"address"}],"name":"WhiteListerAddressUpdated","type":"event"},{"anonymous":false,"inputs":[{"indexed":false,"internalType":"address","name":"_sender","type":"address"},{"indexed":false,"internalType":"address","name":"_walletAddress","type":"address"},{"indexed":false,"internalType":"bool","name":"_newStatus","type":"bool"}],"name":"WhitelistStatusUpdated","type":"event"},{"inputs":[],"name":"GROWTH_TOKENS_TOTAL","outputs":[{"internalType":"uint256","name":"","type":"uint256"}],"stateMutability":"view","type":"function"},{"inputs":[],"name":"GROWTH_TOKENS_WITHDRAWAL_PER_YEAR","outputs":[{"internalType":"uint256","name":"","type":"uint256"}],"stateMutability":"view","type":"function"},{"inputs":[],"name":"MIN_INTERVAL_FOR_UPDATE_REWARDS","outputs":[{"internalType":"uint256","name":"","type":"uint256"}],"stateMutability":"view","type":"function"},{"inputs":[],"name":"REWARD_TOKENS_PER_WEEK","outputs":[{"internalType":"uint256","name":"","type":"uint256"}],"stateMutability":"view","type":"function"},{"inputs":[],"name":"REWARD_TOKENS_PER_YEAR","outputs":[{"internalType":"uint256","name":"","type":"uint256"}],"stateMutability":"view","type":"function"},{"inputs":[],"name":"REWARD_TOKENS_TOTAL","outputs":[{"internalType":"uint256","name":"","type":"uint256"}],"stateMutability":"view","type":"function"},{"inputs":[],"name":"TEAM_TOKENS_LOCKED_PERIOD","outputs":[{"internalType":"uint256","name":"","type":"uint256"}],"stateMutability":"view","type":"function"},{"inputs":[],"name":"TEAM_TOKENS_TOTAL","outputs":[{"internalType":"uint256","name":"","type":"uint256"}],"stateMutability":"view","type":"function"},{"inputs":[],"name":"TEAM_TOKENS_WITHDRAWAL_PER_YEAR","outputs":[{"internalType":"uint256","name":"","type":"uint256"}],"stateMutability":"view","type":"function"},{"inputs":[],"name":"TOKENS_WITHDRAWAL_PERIOD","outputs":[{"internalType":"uint256","name":"","type":"uint256"}],"stateMutability":"view","type":"function"},{"inputs":[{"internalType":"address","name":"_walletAddress","type":"address"},{"internalType":"bool","name":"_isTeamWallet","type":"bool"},{"internalType":"uint256","name":"_hyaxHoldingAmountAtWhitelistTime","type":"uint256"}],"name":"addWalletToWhitelist","outputs":[],"stateMutability":"nonpayable","type":"function"},{"inputs":[],"name":"calculateYearForTeamTokens","outputs":[{"internalType":"uint8","name":"","type":"uint8"}],"stateMutability":"view","type":"function"},{"inputs":[{"internalType":"enum UpgradeableHYAXRewards.FundingType","name":"_fundingType","type":"uint8"},{"internalType":"uint256","name":"_amount","type":"uint256"}],"name":"fundSmartContract","outputs":[],"stateMutability":"nonpayable","type":"function"},{"inputs":[],"name":"growthTokensFunded","outputs":[{"internalType":"uint256","name":"","type":"uint256"}],"stateMutability":"view","type":"function"},{"inputs":[],"name":"growthTokensFundingStarted","outputs":[{"internalType":"bool","name":"","type":"bool"}],"stateMutability":"view","type":"function"},{"inputs":[],"name":"growthTokensInSmartContract","outputs":[{"internalType":"uint256","name":"","type":"uint256"}],"stateMutability":"view","type":"function"},{"inputs":[],"name":"growthTokensLastWithdrawalTime","outputs":[{"internalType":"uint256","name":"","type":"uint256"}],"stateMutability":"view","type":"function"},{"inputs":[],"name":"growthTokensStartFundingTime","outputs":[{"internalType":"uint256","name":"","type":"uint256"}],"stateMutability":"view","type":"function"},{"inputs":[],"name":"growthTokensWithdrawn","outputs":[{"internalType":"uint256","name":"","type":"uint256"}],"stateMutability":"view","type":"function"},{"inputs":[],"name":"hyaxToken","outputs":[{"internalType":"contract ERC20TokenInterface","name":"","type":"address"}],"stateMutability":"view","type":"function"},{"inputs":[],"name":"hyaxTokenAddress","outputs":[{"internalType":"address","name":"","type":"address"}],"stateMutability":"view","type":"function"},{"inputs":[{"internalType":"address","name":"_hyaxTokenAddress","type":"address"}],"name":"initialize","outputs":[],"stateMutability":"nonpayable","type":"function"},{"inputs":[],"name":"maximumBatchSizeForUpdateRewards","outputs":[{"internalType":"uint8","name":"","type":"uint8"}],"stateMutability":"view","type":"function"},{"inputs":[],"name":"owner","outputs":[{"internalType":"address","name":"","type":"address"}],"stateMutability":"view","type":"function"},{"inputs":[],"name":"pause","outputs":[],"stateMutability":"nonpayable","type":"function"},{"inputs":[],"name":"paused","outputs":[{"internalType":"bool","name":"","type":"bool"}],"stateMutability":"view","type":"function"},{"inputs":[],"name":"renounceOwnership","outputs":[],"stateMutability":"nonpayable","type":"function"},{"inputs":[],"name":"rewardTokensDistributed","outputs":[{"internalType":"uint256","name":"","type":"uint256"}],"stateMutability":"view","type":"function"},{"inputs":[],"name":"rewardTokensFunded","outputs":[{"internalType":"uint256","name":"","type":"uint256"}],"stateMutability":"view","type":"function"},{"inputs":[],"name":"rewardTokensFundingStarted","outputs":[{"internalType":"bool","name":"","type":"bool"}],"stateMutability":"view","type":"function"},{"inputs":[],"name":"rewardTokensInSmartContract","outputs":[{"internalType":"uint256","name":"","type":"uint256"}],"stateMutability":"view","type":"function"},{"inputs":[],"name":"rewardTokensStartFundingTime","outputs":[{"internalType":"uint256","name":"","type":"uint256"}],"stateMutability":"view","type":"function"},{"inputs":[],"name":"rewardTokensWithdrawn","outputs":[{"internalType":"uint256","name":"","type":"uint256"}],"stateMutability":"view","type":"function"},{"inputs":[],"name":"rewardsUpdaterAddress","outputs":[{"internalType":"address","name":"","type":"address"}],"stateMutability":"view","type":"function"},{"inputs":[],"name":"teamTokensFunded","outputs":[{"internalType":"uint256","name":"","type":"uint256"}],"stateMutability":"view","type":"function"},{"inputs":[],"name":"teamTokensFundingStarted","outputs":[{"internalType":"bool","name":"","type":"bool"}],"stateMutability":"view","type":"function"},{"inputs":[],"name":"teamTokensInSmartContract","outputs":[{"internalType":"uint256","name":"","type":"uint256"}],"stateMutability":"view","type":"function"},{"inputs":[],"name":"teamTokensStartFundingTime","outputs":[{"internalType":"uint256","name":"","type":"uint256"}],"stateMutability":"view","type":"function"},{"inputs":[],"name":"teamTokensWithdrawn","outputs":[{"internalType":"uint256","name":"","type":"uint256"}],"stateMutability":"view","type":"function"},{"inputs":[{"internalType":"address","name":"newOwner","type":"address"}],"name":"transferOwnership","outputs":[],"stateMutability":"nonpayable","type":"function"},{"inputs":[],"name":"unpause","outputs":[],"stateMutability":"nonpayable","type":"function"},{"inputs":[{"internalType":"address","name":"_walletAddress","type":"address"},{"internalType":"bool","name":"_newStatus","type":"bool"}],"name":"updateBlacklistStatus","outputs":[],"stateMutability":"nonpayable","type":"function"},{"inputs":[{"internalType":"address","name":"_hyaxTokenAddress","type":"address"}],"name":"updateHyaxTokenAddress","outputs":[],"stateMutability":"nonpayable","type":"function"},{"inputs":[{"internalType":"uint8","name":"_maximumBatchSizeForUpdateRewards","type":"uint8"}],"name":"updateMaximumBatchSizeForUpdateRewards","outputs":[],"stateMutability":"nonpayable","type":"function"},{"inputs":[{"internalType":"address[]","name":"_walletAddresses","type":"address[]"},{"internalType":"uint256[]","name":"_hyaxRewards","type":"uint256[]"}],"name":"updateRewardsBatch","outputs":[],"stateMutability":"nonpayable","type":"function"},{"inputs":[{"internalType":"address","name":"_walletAddress","type":"address"},{"internalType":"uint256","name":"_hyaxRewards","type":"uint256"}],"name":"updateRewardsSingle","outputs":[],"stateMutability":"nonpayable","type":"function"},{"inputs":[{"internalType":"address","name":"_rewardsUpdaterAddress","type":"address"}],"name":"updateRewardsUpdaterAddress","outputs":[],"stateMutability":"nonpayable","type":"function"},{"inputs":[{"internalType":"address","name":"_oldTeamMemberWalletAddress","type":"address"},{"internalType":"address","name":"_newTeamMemberWalletAddress","type":"address"}],"name":"updateTeamMemberWallet","outputs":[],"stateMutability":"nonpayable","type":"function"},{"inputs":[{"internalType":"address","name":"_whiteListerAddress","type":"address"}],"name":"updateWhiteListerAddress","outputs":[],"stateMutability":"nonpayable","type":"function"},{"inputs":[{"internalType":"address","name":"_walletAddress","type":"address"},{"internalType":"bool","name":"_newStatus","type":"bool"}],"name":"updateWhitelistStatus","outputs":[],"stateMutability":"nonpayable","type":"function"},{"inputs":[{"internalType":"address","name":"","type":"address"}],"name":"wallets","outputs":[{"internalType":"uint256","name":"hyaxHoldingAmount","type":"uint256"},{"internalType":"uint256","name":"hyaxHoldingAmountAtWhitelistTime","type":"uint256"},{"internalType":"uint256","name":"totalHyaxRewardsAmount","type":"uint256"},{"internalType":"uint256","name":"currentRewardsAmount","type":"uint256"},{"internalType":"uint256","name":"rewardsWithdrawn","type":"uint256"},{"internalType":"uint256","name":"addedToWhitelistTime","type":"uint256"},{"internalType":"uint8","name":"teamTokenWithdrawalTimes","type":"uint8"},{"internalType":"uint256","name":"lastRewardsWithdrawalTime","type":"uint256"},{"internalType":"uint256","name":"lastRewardsUpdateTime","type":"uint256"},{"internalType":"bool","name":"isTeamWallet","type":"bool"},{"internalType":"bool","name":"isWhitelisted","type":"bool"},{"internalType":"bool","name":"isBlacklisted","type":"bool"}],"stateMutability":"view","type":"function"},{"inputs":[],"name":"whiteListerAddress","outputs":[{"internalType":"address","name":"","type":"address"}],"stateMutability":"view","type":"function"},{"inputs":[],"name":"withdrawGrowthTokens","outputs":[],"stateMutability":"nonpayable","type":"function"},{"inputs":[],"name":"withdrawRewardTokens","outputs":[],"stateMutability":"nonpayable","type":"function"},{"inputs":[],"name":"withdrawTeamTokens","outputs":[],"stateMutability":"nonpayable","type":"function"},{"inputs":[{"internalType":"enum UpgradeableHYAXRewards.FundingType","name":"_fundingType","type":"uint8"},{"internalType":"uint256","name":"_amount","type":"uint256"}],"name":"withdrawTokensToBurn","outputs":[],"stateMutability":"nonpayable","type":"function"}],"evm":{"bytecode":{"linkReferences":{},"object":"608060405234801561001057600080fd5b5061474f806100206000396000f3fe608060405234801561001057600080fd5b50600436106103785760003560e01c80638da2e27f116101d3578063d7e57fda11610104578063efce5587116100a2578063f8ff46c61161007c578063f8ff46c614610760578063f972c02714610769578063fafd7c201461077c578063fd5595261461078f57600080fd5b8063efce55871461072d578063f2fde38b14610740578063f3793b9d1461075357600080fd5b8063e2ccbfe4116100de578063e2ccbfe4146106fa578063e3682a5d1461070d578063e774ce4314610717578063ebc8e2dd1461072057600080fd5b8063d7e57fda146106d4578063dcb7ff6b146106dd578063de51d567146106e857600080fd5b8063b4ba9fd711610171578063c1cc52b31161014b578063c1cc52b314610698578063c4d66de8146106a5578063d356b49a146106b8578063d3946a8c146106c157600080fd5b8063b4ba9fd71461065e578063b836080614610672578063c07732a31461068557600080fd5b8063953b7ef8116101ad578063953b7ef8146106275780639656cd8c1461062f5780639bae900214610638578063a868e9971461064b57600080fd5b80638da2e27f146106045780638da5cb5b1461060d5780638e6d32df1461061557600080fd5b80635d70203b116102ad5780636fce78731161024b5780638456cb59116102255780638456cb59146104f657806389b08f11146104fe5780638a194d04146105d75780638bb4dadd146105ea57600080fd5b80636fce7873146104c8578063715018a6146104db57806381f8ca1b146104e357600080fd5b8063653c3a4711610287578063653c3a471461048b57806365699d281461049e578063687a83f8146104b65780636e3ce4e1146104bf57600080fd5b80635d70203b146104705780636148c78314610479578063647a5a781461048257600080fd5b80633ba10a561161031a5780634c4dc42e116102f45780634c4dc42e146104325780635493b30d1461043a57806359aa89661461044d5780635c975abb1461045857600080fd5b80633ba10a561461040f5780633f4ba83a1461042257806342ecb4641461042a57600080fd5b80632574cd9d116103565780632574cd9d146103d6578063334c4cb3146103eb578063370243dc146103f45780633768c029146103fc57600080fd5b8063031f65891461037d5780631035fc09146103ad5780631e6b4028146103c4575b600080fd5b600054610390906001600160a01b031681565b6040516001600160a01b0390911681526020015b60405180910390f35b6103b6600b5481565b6040519081526020016103a4565b6103b66a6342fd08f00f637800000081565b6103e96103e4366004613d6b565b610798565b005b6103b6600f5481565b6103e96108b7565b6103e961040a366004613db1565b610c2f565b600154610390906001600160a01b031681565b6103e961120f565b6103b6611221565b6103e961123a565b6103b66b04d8c55aefb8c05b5c00000081565b6103b66301e1338081565b61046061157e565b60405190151581526020016103a4565b6103b660025481565b6103b660035481565b6103b6600a5481565b6103e9610499366004613de4565b611594565b6012546103909061010090046001600160a01b031681565b6103b660055481565b6103b660115481565b6103e96104d6366004613de4565b611660565b6103e9611727565b6103b66b03e09de2596099e2b000000081565b6103e9611739565b61057561050c366004613de4565b601460205260009081526040902080546001820154600283015460038401546004850154600586015460068701546007880154600889015460099099015497989697959694959394929360ff92831693919281811691610100810482169162010000909104168c565b604080519c8d5260208d019b909b52998b019890985260608a0196909652608089019490945260a088019290925260ff1660c087015260e0860152610100850152151561012084015215156101408301521515610160820152610180016103a4565b6103e96105e5366004613e0d565b611749565b6105f2611b9c565b60405160ff90911681526020016103a4565b6103b660105481565b610390611c7a565b6103b66af8277896582678ac00000081565b6103e9611ca8565b6103b660065481565b6103e9610646366004613de4565b6121f2565b6103b66b07c13bc4b2c133c56000000081565b6013546105f290600160a01b900460ff1681565b6103e9610680366004613e4c565b6123e5565b6103e9610693366004613e4c565b61251a565b600c546104609060ff1681565b6103e96106b3366004613de4565b6126c9565b6103b660045481565b6103e96106cf366004613e83565b612932565b6103b660095481565b6103b6630784ce0081565b6103b66a7c13bc4b2c133c5600000081565b6103e9610708366004613e83565b612e65565b6103b66207e90081565b6103b6600e5481565b6012546104609060ff1681565b6103e961073b366004613eff565b61327b565b6103e961074e366004613de4565b6135d6565b6007546104609060ff1681565b6103b660085481565b601354610390906001600160a01b031681565b6103e961078a366004613f6b565b6136c3565b6103b6600d5481565b6107a0613ab9565b60008160ff16116107f85760405162461bcd60e51b815260206004820152601e60248201527f4d6178696d756d2062617463682073697a652063616e6e6f742062652030000060448201526064015b60405180910390fd5b60648160ff1611156108625760405162461bcd60e51b815260206004820152602d60248201527f4d6178696d756d2062617463682073697a652063616e6e6f742062652067726560448201526c061746572207468616e2031303609c1b60648201526084016107ef565b6013805460ff60a01b1916600160a01b60ff8416908102919091179091556040519081527f6f2bb1da32e5620d3a499f2a9b7e558ff34e34134e8db9a112ff5982ae969094906020015b60405180910390a150565b3360008181526014602052604090206009015460ff6101009091041615156001146108f45760405162461bcd60e51b81526004016107ef90613f87565b6108fc613aeb565b61090461157e565b156109215760405162461bcd60e51b81526004016107ef90613fbe565b3360009081526014602052604090206009015460ff61010090910416151560011461095e5760405162461bcd60e51b81526004016107ef90613f87565b3360009081526014602052604090206009015462010000900460ff16156109975760405162461bcd60e51b81526004016107ef90613fea565b60125460ff166109b95760405162461bcd60e51b81526004016107ef90614021565b6b03e09de2596099e2b0000000600f5410610a245760405162461bcd60e51b815260206004820152602560248201527f416c6c2072657761726420746f6b656e732068617665206265656e2077697468604482015264323930bbb760d91b60648201526084016107ef565b3360009081526014602052604090206003015480610a845760405162461bcd60e51b815260206004820181905260248201527f4e6f207265776172647320617661696c61626c6520746f20776974686472617760448201526064016107ef565b601054811115610aa65760405162461bcd60e51b81526004016107ef9061407f565b3360009081526014602052604081206004018054839290610ac89084906140eb565b9091555050336000908152601460205260408120600381018290554260079091015560108054839290610afc908490614104565b9250508190555080600f6000828254610b1591906140eb565b909155505060015460405163a9059cbb60e01b8152336004820152602481018390526001600160a01b039091169063a9059cbb906044016020604051808303816000875af1158015610b6b573d6000803e3d6000fd5b505050506040513d601f19601f82011682018060405250810190610b8f9190614117565b610bdb5760405162461bcd60e51b815260206004820181905260248201527f4661696c656420746f207472616e736665722072657761726420746f6b656e7360448201526064016107ef565b60408051338152602081018390527fd8a9090919355543d8c79690ceee3933c0bd4ffc742ae7f790d4bf44a043bb6c910160405180910390a150610c2c60016000805160206146da83398151915255565b50565b610c37613ab9565b610c3f613aeb565b600c5460ff16610cb75760405162461bcd60e51b815260206004820152603d60248201527f5465616d20746f6b656e732066756e64696e6720686173206e6f74207374617260448201527f746564207965742c206e6f20746f6b656e7320746f207265636f76657200000060648201526084016107ef565b6001600160a01b03821660009081526014602052604090206009015460ff161515600114610d375760405162461bcd60e51b815260206004820152602760248201527f4f6c642077616c6c65742061646472657373206973206e6f742061207465616d604482015266081dd85b1b195d60ca1b60648201526084016107ef565b6001600160a01b03821660009081526014602052604090206009015460ff610100909104161515600114610dc75760405162461bcd60e51b815260206004820152603160248201527f4f6c64207465616d206d656d6265722077616c6c6574206164647265737320696044820152701cc81b9bdd081dda1a5d195b1a5cdd1959607a1b60648201526084016107ef565b6001600160a01b03821660009081526014602052604090206009015462010000900460ff1615610e4f5760405162461bcd60e51b815260206004820152602d60248201527f4f6c64207465616d206d656d6265722077616c6c65742061646472657373206960448201526c1cc8189b1858dadb1a5cdd1959609a1b60648201526084016107ef565b6001600160a01b038116610ecb5760405162461bcd60e51b815260206004820152603960248201527f4e6577207465616d206d656d6265722077616c6c65742061646472657373206360448201527f616e6e6f7420626520746865207a65726f20616464726573730000000000000060648201526084016107ef565b816001600160a01b0316816001600160a01b031603610f785760405162461bcd60e51b815260206004820152605760248201527f4e6577207465616d206d656d6265722077616c6c65742061646472657373206360448201527f616e6e6f74206265207468652073616d6520617320746865206f6c642074656160648201527f6d206d656d6265722077616c6c65742061646472657373000000000000000000608482015260a4016107ef565b6001600160a01b038116600090815260146020526040902060090154610100900460ff16156110075760405162461bcd60e51b815260206004820152603560248201527f4e6577207465616d206d656d6265722077616c6c6574206164647265737320696044820152741cc8185b1c9958591e481dda1a5d195b1a5cdd1959605a1b60648201526084016107ef565b6001600160a01b03811660009081526014602052604090206009015460ff16156110995760405162461bcd60e51b815260206004820152603760248201527f4e6577207465616d206d656d6265722077616c6c65742061646472657373206960448201527f7320616c72656164792061207465616d2077616c6c657400000000000000000060648201526084016107ef565b6001600160a01b03811660009081526014602052604090206009015462010000900460ff16156111215760405162461bcd60e51b815260206004820152602d60248201527f4e6577207465616d206d656d6265722077616c6c65742061646472657373206960448201526c1cc8189b1858dadb1a5cdd1959609a1b60648201526084016107ef565b6001600160a01b0381811660008181526014602090815260408083206009808201805461010162ffffff19918216179091559689168086528386206001818101805491860191909155815485556005808301549086015560068083018054918701805460ff90931660ff199384161790559483018054620100009c169b909b17909a55879055869055815490971690559284905291548251948552908401929092528201527fa9defc7864dd156fa1c6384b685620c7012fa46b9e570145f7aedecbbf38e9ef906060015b60405180910390a161120b60016000805160206146da83398151915255565b5050565b611217613ab9565b61121f613b37565b565b61123760346a7c13bc4b2c133c56000000614134565b81565b611242613ab9565b61124a613aeb565b61125261157e565b1561126f5760405162461bcd60e51b81526004016107ef90613fbe565b60075460ff166112915760405162461bcd60e51b81526004016107ef90614156565b6301e133806006546112a391906140eb565b42101561130c5760405162461bcd60e51b815260206004820152603160248201527f43616e6e6f74207769746864726177206265666f7265203120796561722061666044820152701d195c88199d5b991a5b99c81cdd185c9d607a1b60648201526084016107ef565b6b07c13bc4b2c133c560000000600354106113775760405162461bcd60e51b815260206004820152602560248201527f416c6c2067726f77746820746f6b656e732068617665206265656e2077697468604482015264323930bbb760d91b60648201526084016107ef565b6301e1338060055461138991906140eb565b4210156113d85760405162461bcd60e51b815260206004820152601f60248201527f43616e206f6e6c79207769746864726177206f6e63652070657220796561720060448201526064016107ef565b6003546a6342fd08f00f6378000000906b07c13bc4b2c133c560000000906114019083906140eb565b111561142357600354611420906b07c13bc4b2c133c560000000614104565b90505b806003600082825461143591906140eb565b92505081905550806004600082825461144e9190614104565b9091555050426005556001546001600160a01b031663a9059cbb611470611c7a565b6040516001600160e01b031960e084901b1681526001600160a01b039091166004820152602481018490526044016020604051808303816000875af11580156114bd573d6000803e3d6000fd5b505050506040513d601f19601f820116820180604052508101906114e19190614117565b61152d5760405162461bcd60e51b815260206004820181905260248201527f4661696c656420746f207472616e736665722067726f77746820746f6b656e7360448201526064016107ef565b60408051338152602081018390527fd0a5227bfa49cf178a8f7a87b90318ef05fc8330f469e0dccbe075784f426dbf910160405180910390a15061121f60016000805160206146da83398151915255565b6000805160206146ba8339815191525460ff1690565b61159c613ab9565b6001600160a01b03811661160a5760405162461bcd60e51b815260206004820152602f60248201527f5768697465206c697374657220616464726573732063616e6e6f74206265207460448201526e6865207a65726f206164647265737360881b60648201526084016107ef565b60128054610100600160a81b0319166101006001600160a01b038416908102919091179091556040519081527f6bdab87cebf48ec7916084ab67bb3d8a596e0d1e3b5572596393f266d9ea3057906020016108ac565b611668613ab9565b6001600160a01b0381166116d95760405162461bcd60e51b815260206004820152603260248201527f52657761726473207570646174657220616464726573732063616e6e6f7420626044820152716520746865207a65726f206164647265737360701b60648201526084016107ef565b601380546001600160a01b0319166001600160a01b0383169081179091556040519081527f7946fb32eb39758c8854ba2c1d63c5ed4c7a95cdb748090128fa33a803a29894906020016108ac565b61172f613ab9565b61121f6000613b91565b611741613ab9565b61121f613c02565b611751611c7a565b6001600160a01b0316336001600160a01b0316148061177f575060125461010090046001600160a01b031633145b61179b5760405162461bcd60e51b81526004016107ef906141b4565b604080513381523260208201526000805160206146fa833981519152910160405180910390a16001600160a01b038316600090815260146020526040902060090154610100900460ff16156118325760405162461bcd60e51b815260206004820152601d60248201527f57616c6c657420697320616c72656164792077686974656c697374656400000060448201526064016107ef565b6001600160a01b03831660009081526014602052604090206009015462010000900460ff16156118745760405162461bcd60e51b81526004016107ef90613fea565b6001600160a01b038316600090815260146020526040902060050154156118f45760405162461bcd60e51b815260206004820152602e60248201527f57616c6c65742068617320616c7265616479206265656e20616464656420746f60448201526d081d1a19481dda1a5d195b1a5cdd60921b60648201526084016107ef565b6001600160a01b03831660009081526014602052604081206009810180548515801562ffffff19909216919091176101001790915542600583015560068201805460ff19169055600782018390556003820183905560028201839055600490910191909155611aa857600081116119e15760405162461bcd60e51b8152602060048201526044602482018190527f5465616d2077616c6c657473206d757374206265206164646564207769746820908201527f61206879617820686f6c64696e6720616d6f756e7420677265617465722074686064820152630616e20360e41b608482015260a4016107ef565b6b04d8c55aefb8c05b5c000000811115611a815760405162461bcd60e51b815260206004820152605560248201527f5465616d2077616c6c657473206d75737420626520616464656420776974682060448201527f61206879617820686f6c64696e6720616d6f756e74206c657373207468616e2060648201527474686520746f74616c207465616d20746f6b656e7360581b608482015260a4016107ef565b6001600160a01b038316600090815260146020526040902060018101829055819055611b47565b8015611b265760405162461bcd60e51b815260206004820152604160248201527f4e6f6e207465616d2077616c6c6574732063616e206f6e6c792062652061646460448201527f6564207769746820686f6c64696e6720616d6f756e7420657175616c20746f206064820152600360fc1b608482015260a4016107ef565b6001600160a01b038316600090815260146020526040812060018101829055555b604080513381526001600160a01b0385166020820152831515818301526060810183905290517fc294e522ba20b0699fe578649971cefdfdc8d0e330db37d0437849f38b3960e69181900360800190a1505050565b600c5460009060ff16611c015760405162461bcd60e51b815260206004820152602760248201527f5465616d20746f6b656e732066756e64696e6720686173206e6f7420737461726044820152661d1959081e595d60ca1b60648201526084016107ef565b6000600b5442611c119190614104565b9050630f099c008110611c2657600591505090565b630d2868808110611c3957600491505090565b630b4735008110611c4c57600391505090565b63096601808110611c5f57600291505090565b630784ce008110611c7257600191505090565b600091505090565b7f9016d09d72d40fdae2fd8ceac6b6234c7706214fd39c1cd1e609a0528c199300546001600160a01b031690565b3360008181526014602052604090206009015460ff610100909104161515600114611ce55760405162461bcd60e51b81526004016107ef90613f87565b3360008181526014602052604090206009015462010000900460ff1615611d1e5760405162461bcd60e51b81526004016107ef90613fea565b611d26613aeb565b611d2e61157e565b15611d4b5760405162461bcd60e51b81526004016107ef90613fbe565b3360009081526014602052604090206009015460ff161515600114611dd85760405162461bcd60e51b815260206004820152603960248201527f4f6e6c79207465616d2077616c6c6574732063616e207769746864726177207460448201527f6f6b656e73207573696e6720746869732066756e6374696f6e0000000000000060648201526084016107ef565b600c5460ff16611dfa5760405162461bcd60e51b81526004016107ef90614211565b33600090815260146020526040902060050154611e1c90630784ce00906140eb565b421015611e9b5760405162461bcd60e51b815260206004820152604160248201527f43616e6e6f74207769746864726177206265666f72652034207965617273206160448201527f66746572206265696e6720616464656420746f207468652077686974656c69736064820152601d60fa1b608482015260a4016107ef565b6b04d8c55aefb8c05b5c00000060095410611f045760405162461bcd60e51b815260206004820152602360248201527f416c6c207465616d20746f6b656e732068617665206265656e2077697468647260448201526230bbb760e91b60648201526084016107ef565b33600090815260146020526040902054611f6b5760405162461bcd60e51b815260206004820152602260248201527f4e6f206879617820686f6c64696e6720616d6f756e7420746f20776974686472604482015261617760f01b60648201526084016107ef565b611f73611b9c565b3360009081526014602052604090206006015460ff918216911610611fee5760405162461bcd60e51b815260206004820152602b60248201527f43616e206f6e6c79207769746864726177207465616d20746f6b656e73206f6e60448201526a31b2903832b9103cb2b0b960a91b60648201526084016107ef565b3360009081526014602052604081206001015461200d90600590614134565b90506b04d8c55aefb8c05b5c0000008160095461202a91906140eb565b111561204c57600954612049906b04d8c55aefb8c05b5c000000614104565b90505b336000908152601460205260408120805483929061206b908490614104565b92505081905550806009600082825461208491906140eb565b9250508190555080600a600082825461209d9190614104565b9091555050336000908152601460205260408120600601805460ff16916120c38361426e565b825460ff9182166101009390930a92830291909202199091161790555060015460405163a9059cbb60e01b8152336004820152602481018390526001600160a01b039091169063a9059cbb906044016020604051808303816000875af1158015612131573d6000803e3d6000fd5b505050506040513d601f19601f820116820180604052508101906121559190614117565b6121a15760405162461bcd60e51b815260206004820152601e60248201527f4661696c656420746f207472616e73666572207465616d20746f6b656e73000060448201526064016107ef565b60408051338152602081018390527f1e63f692f0a30c3957ac289d6a44616bd119f5502eba5ae440f3158cc2c2d291910160405180910390a15061120b60016000805160206146da83398151915255565b6121fa613ab9565b6001600160a01b0381166122665760405162461bcd60e51b815260206004820152602d60248201527f4879617820746f6b656e20616464726573732063616e6e6f742062652074686560448201526c207a65726f206164647265737360981b60648201526084016107ef565b60405163090b282b60e31b6020820152819060240160405160208183030381529060405280519060200120816001600160a01b03166395d89b416040518163ffffffff1660e01b8152600401600060405180830381865afa1580156122cf573d6000803e3d6000fd5b505050506040513d6000823e601f3d908101601f191682016040526122f791908101906142f4565b604051602001612307919061438c565b60405160208183030381529060405280519060200120146123835760405162461bcd60e51b815260206004820152603060248201527f546f6b656e2061646472657373206d75737420626520612076616c696420485960448201526f415820746f6b656e206164647265737360801b60648201526084016107ef565b600080546001600160a01b0384166001600160a01b0319918216811790925560018054909116821790556040519081527f6b4289497c1ee1251f23ffec949802440dac6fc64d4bd0b4efb97a5530058295906020015b60405180910390a15050565b6123ed611c7a565b6001600160a01b0316336001600160a01b0316148061241b575060125461010090046001600160a01b031633145b6124375760405162461bcd60e51b81526004016107ef906141b4565b604080513381523260208201526000805160206146fa833981519152910160405180910390a16001600160a01b0382166000908152601460205260409020600901548115156201000090910460ff161515036124a55760405162461bcd60e51b81526004016107ef906143a8565b6001600160a01b038216600081815260146020908152604091829020600901805462ff000019166201000086151590810291909117909155825133815291820193909352908101919091527f89a9c56967d4535d54c90bffd7cbd09f6d2a4c8e26b9e7f033f199d144e12b4e906060016123d9565b612522611c7a565b6001600160a01b0316336001600160a01b03161480612550575060125461010090046001600160a01b031633145b61256c5760405162461bcd60e51b81526004016107ef906141b4565b604080513381523260208201526000805160206146fa833981519152910160405180910390a16001600160a01b03821660009081526014602052604090206009015481151561010090910460ff161515036125d95760405162461bcd60e51b81526004016107ef906143a8565b6001600160a01b03821660009081526014602052604081206005015490036126565760405162461bcd60e51b815260206004820152602a60248201527f57616c6c657420686173206e6f74206265656e20616464656420746f20746865604482015269081dda1a5d195b1a5cdd60b21b60648201526084016107ef565b6001600160a01b038216600081815260146020908152604091829020600901805461ff00191661010086151590810291909117909155825133815291820193909352908101919091527f70bbee4e66e3fd40f7da099410cfd723ed4a0b4fec11f6cc968e850db827a88b906060016123d9565b7ff0c57e16840df040f15088dc2f81fe391c3923bec73e23a9662efc9c229c6a008054600160401b810460ff16159067ffffffffffffffff1660008115801561270f5750825b905060008267ffffffffffffffff16600114801561272c5750303b155b90508115801561273a575080155b156127585760405163f92ee8a960e01b815260040160405180910390fd5b845467ffffffffffffffff19166001178555831561278257845460ff60401b1916600160401b1785555b61278b33613c4b565b612793613c5c565b61279b613c6c565b600080546001600160a01b03199081166001600160a01b03891690811783556001805490921681179091556013805460ff60a01b1916601960a21b1790556040805163090b282b60e31b6020808301919091528251808303600401815260248301808552815191909201206395d89b4160e01b909152915191936395d89b41926028808401938290030181865afa15801561283a573d6000803e3d6000fd5b505050506040513d6000823e601f3d908101601f1916820160405261286291908101906142f4565b604051602001612872919061438c565b60405160208183030381529060405280519060200120146128d55760405162461bcd60e51b815260206004820152601f60248201527f4879617820746f6b656e2061646472657373206973206e6f742076616c69640060448201526064016107ef565b600060028190556008819055600d55831561292a57845460ff60401b19168555604051600181527fc7f505b2f371ae2175ee4913f4499e1f2633a7b5936321eed1cdaeb6115181d29060200160405180910390a15b505050505050565b61293a613ab9565b612942613aeb565b61294a61157e565b156129675760405162461bcd60e51b81526004016107ef90613fbe565b600082600281111561297b5761297b6143f6565b148061299857506001826002811115612996576129966143f6565b145b806129b4575060028260028111156129b2576129b26143f6565b145b6129f75760405162461bcd60e51b8152602060048201526014602482015273496e76616c69642066756e64696e67207479706560601b60448201526064016107ef565b60008111612a475760405162461bcd60e51b815260206004820152601d60248201527f416d6f756e74206d7573742062652067726561746572207468616e203000000060448201526064016107ef565b6001546040516323b872dd60e01b8152336004820152306024820152604481018390526001600160a01b03909116906323b872dd906064016020604051808303816000875af1158015612a9e573d6000803e3d6000fd5b505050506040513d601f19601f82011682018060405250810190612ac29190614117565b612b285760405162461bcd60e51b815260206004820152603160248201527f54686572652077617320616e206572726f72206f6e20726563656976696e672060448201527074686520746f6b656e2066756e64696e6760781b60648201526084016107ef565b6000826002811115612b3c57612b3c6143f6565b03612c32576b07c13bc4b2c133c56000000081600254612b5c91906140eb565b1115612bdc5760405162461bcd60e51b815260206004820152604360248201527f416d6f756e7420746f2066756e642069732067726561746572207468616e207460448201527f686520746f74616c20696e74656e74656420666f722067726f77746820746f6b606482015262656e7360e81b608482015260a4016107ef565b8060026000828254612bee91906140eb565b925050819055508060046000828254612c0791906140eb565b909155505060075460ff16612c2d576007805460ff191660011790554260068190556005555b612e34565b6001826002811115612c4657612c466143f6565b03612d34576b04d8c55aefb8c05b5c00000081600854612c6691906140eb565b1115612ce45760405162461bcd60e51b815260206004820152604160248201527f416d6f756e7420746f2066756e642069732067726561746572207468616e207460448201527f686520746f74616c20696e74656e74656420666f72207465616d20746f6b656e6064820152607360f81b608482015260a4016107ef565b8060086000828254612cf691906140eb565b9250508190555080600a6000828254612d0f91906140eb565b9091555050600c5460ff16612c2d57600c805460ff1916600117905542600b55612e34565b6002826002811115612d4857612d486143f6565b03612e34576b03e09de2596099e2b000000081600d54612d6891906140eb565b1115612de85760405162461bcd60e51b815260206004820152604360248201527f416d6f756e7420746f2066756e642069732067726561746572207468616e207460448201527f686520746f74616c20696e74656e74656420666f722072657761726420746f6b606482015262656e7360e81b608482015260a4016107ef565b80600d6000828254612dfa91906140eb565b925050819055508060106000828254612e1391906140eb565b909155505060125460ff16612e34576012805460ff19166001179055426011555b7fbc0b9ecc68ec48681b8f5718fa26b9ce02021220455be5f5837a944140a80ea382826040516111ec92919061440c565b612e6d613ab9565b612e75613aeb565b612e7d61157e565b15612e9a5760405162461bcd60e51b81526004016107ef90613fbe565b6000826002811115612eae57612eae6143f6565b1480612ecb57506001826002811115612ec957612ec96143f6565b145b80612ee757506002826002811115612ee557612ee56143f6565b145b612f2a5760405162461bcd60e51b8152602060048201526014602482015273496e76616c69642066756e64696e67207479706560601b60448201526064016107ef565b60008111612f7a5760405162461bcd60e51b815260206004820152601d60248201527f416d6f756e74206d7573742062652067726561746572207468616e203000000060448201526064016107ef565b6000826002811115612f8e57612f8e6143f6565b036130435760075460ff16612fb55760405162461bcd60e51b81526004016107ef90614156565b6004548111156130265760405162461bcd60e51b815260206004820152603660248201527f496e73756666696369656e742067726f77746820746f6b656e7320696e2074686044820152756520636f6e747261637420746f20776974686472617760501b60648201526084016107ef565b80600460008282546130389190614104565b909155506131749050565b6001826002811115613057576130576143f6565b036130ff57600c5460ff1661307e5760405162461bcd60e51b81526004016107ef90614211565b600a548111156130ed5760405162461bcd60e51b815260206004820152603460248201527f496e73756666696369656e74207465616d20746f6b656e7320696e2074686520604482015273636f6e747261637420746f20776974686472617760601b60648201526084016107ef565b80600a60008282546130389190614104565b6002826002811115613113576131136143f6565b036131745760125460ff1661313a5760405162461bcd60e51b81526004016107ef90614021565b60105481111561315c5760405162461bcd60e51b81526004016107ef9061407f565b806010600082825461316e9190614104565b90915550505b6001546001600160a01b031663a9059cbb61318d611c7a565b6040516001600160e01b031960e084901b1681526001600160a01b039091166004820152602481018490526044016020604051808303816000875af11580156131da573d6000803e3d6000fd5b505050506040513d601f19601f820116820180604052508101906131fe9190614117565b61324a5760405162461bcd60e51b815260206004820181905260248201527f4661696c656420746f207472616e736665722067726f77746820746f6b656e7360448201526064016107ef565b7fb9db6f85cd4e97884845cfb10d7fbba4d9cd4b9516cf2795b4c50cd886875bab82826040516111ec92919061440c565b613283611c7a565b6001600160a01b0316336001600160a01b031614806132ac57506013546001600160a01b031633145b806132b657503330145b6132d25760405162461bcd60e51b81526004016107ef90614438565b604080513381523260208201526000805160206146fa833981519152910160405180910390a1613300613aeb565b60125460ff166133225760405162461bcd60e51b81526004016107ef906144af565b826133685760405162461bcd60e51b8152602060048201526016602482015275042617463682073697a652063616e6e6f7420626520360541b60448201526064016107ef565b601354600160a01b900460ff168311156133d05760405162461bcd60e51b8152602060048201526024808201527f42617463682073697a6520657863656564732074686520646566696e6564206c6044820152631a5b5a5d60e21b60648201526084016107ef565b82811461341f5760405162461bcd60e51b815260206004820152601860248201527f4172726179206c656e67746873206d757374206d61746368000000000000000060448201526064016107ef565b60005b83811015613579573063fafd7c208686848181106134425761344261450c565b90506020020160208101906134579190613de4565b8585858181106134695761346961450c565b6040516001600160e01b031960e087901b1681526001600160a01b0390941660048501526020029190910135602483015250604401600060405180830381600087803b1580156134b857600080fd5b505af19250505080156134c9575060015b613567576134d5614522565b806308c379a00361355b57506134e961453e565b806134f4575061355d565b7f80c7a907fb61ff886445c2feb367d7b196637d154438ec7337eb57021ef5f5a1338787858181106135285761352861450c565b905060200201602081019061353d9190613de4565b8360405161354d939291906145c8565b60405180910390a150613567565b505b3d6000803e3d6000fd5b8061357181614615565b915050613422565b507f920309e6c1df22e82236fc02a7d23e8ec36b85a821fc790c20a0e1497ce227dc33858585856040516135b195949392919061462e565b60405180910390a16135d060016000805160206146da83398151915255565b50505050565b6135de613ab9565b6001600160a01b0381166136435760405162461bcd60e51b815260206004820152602660248201527f4f776e61626c653a206e6577206f776e657220697320746865207a65726f206160448201526564647265737360d01b60648201526084016107ef565b306001600160a01b038216036136ba5760405162461bcd60e51b815260206004820152603660248201527f4f776e61626c653a206e6577206f776e65722063616e6e6f74206265207468656044820152752073616d6520636f6e7472616374206164647265737360501b60648201526084016107ef565b610c2c81613b91565b6136cb611c7a565b6001600160a01b0316336001600160a01b031614806136f457506013546001600160a01b031633145b806136fe57503330145b61371a5760405162461bcd60e51b81526004016107ef90614438565b604080513381523260208201526000805160206146fa833981519152910160405180910390a160125460ff166137625760405162461bcd60e51b81526004016107ef906144af565b6001600160a01b03821660009081526014602052604090206009015460ff6101009091041615156001146137a85760405162461bcd60e51b81526004016107ef90613f87565b6001600160a01b03821660009081526014602052604090206009015462010000900460ff16156137ea5760405162461bcd60e51b81526004016107ef90613fea565b6001600160a01b038216600090815260146020526040902060080154613814906207e900906140eb565b4210156138765760405162461bcd60e51b815260206004820152602a60248201527f546f6f20736f6f6e20746f20757064617465207265776172647320666f7220746044820152691a1a5cc81dd85b1b195d60b21b60648201526084016107ef565b61388c60346a7c13bc4b2c133c56000000614134565b811115613903576040805162461bcd60e51b81526020600482015260248101919091527f412073696e676c652077616c6c65742063616e6e6f742068617665207265776160448201527f72647320686967686572207468616e20746865207765656b6c79206c696d697460648201526084016107ef565b6010548111156139715760405162461bcd60e51b815260206004820152603360248201527f496e73756666696369656e742072657761726420746f6b656e7320746f2064696044820152727374726962757465206173207265776172647360681b60648201526084016107ef565b6b03e09de2596099e2b000000081600e5461398c91906140eb565b11156139f65760405162461bcd60e51b815260206004820152603360248201527f416c6c207468652072657761726420746f6b656e732068617665206265656e20604482015272185b1c9958591e48191a5cdd1c9a589d5d1959606a1b60648201526084016107ef565b80600e6000828254613a0891906140eb565b90915550506001600160a01b03821660009081526014602052604081204260088201556002018054839290613a3e9084906140eb565b90915550506001600160a01b03821660009081526014602052604081206003018054839290613a6e9084906140eb565b9091555050604080513381526001600160a01b03841660208201529081018290527f74dd95429fe6255fb4698aa67d02afb4ebcf261c1883a417108c7d6c0abed4b0906060016123d9565b33613ac2611c7a565b6001600160a01b03161461121f5760405163118cdaa760e01b81523360048201526024016107ef565b6000805160206146da833981519152805460011901613b1d57604051633ee5aeb560e01b815260040160405180910390fd5b60029055565b60016000805160206146da83398151915255565b613b3f613c7c565b6000805160206146ba833981519152805460ff191681557f5db9ee0a495bf2e6ff9c91a7834c1ba4fdd244a5e8aa4e537bd38aeae4b073aa335b6040516001600160a01b0390911681526020016108ac565b7f9016d09d72d40fdae2fd8ceac6b6234c7706214fd39c1cd1e609a0528c19930080546001600160a01b031981166001600160a01b03848116918217845560405192169182907f8be0079c531659141344cd1fd0a4f28419497f9722a3daafe3b4186f6b6457e090600090a3505050565b613c0a613ca1565b6000805160206146ba833981519152805460ff191660011781557f62e78cea01bee320cd4e420270b5ea74000d11b0c9f74754ebdbfc544b05a25833613b79565b613c53613cc7565b610c2c81613d10565b613c64613cc7565b61121f613d42565b613c74613cc7565b61121f613d4a565b613c8461157e565b61121f57604051638dfc202b60e01b815260040160405180910390fd5b613ca961157e565b1561121f5760405163d93c066560e01b815260040160405180910390fd5b7ff0c57e16840df040f15088dc2f81fe391c3923bec73e23a9662efc9c229c6a0054600160401b900460ff1661121f57604051631afcd79f60e31b815260040160405180910390fd5b613d18613cc7565b6001600160a01b0381166136ba57604051631e4fbdf760e01b8152600060048201526024016107ef565b613b23613cc7565b613d52613cc7565b6000805160206146ba833981519152805460ff19169055565b600060208284031215613d7d57600080fd5b813560ff81168114613d8e57600080fd5b9392505050565b80356001600160a01b0381168114613dac57600080fd5b919050565b60008060408385031215613dc457600080fd5b613dcd83613d95565b9150613ddb60208401613d95565b90509250929050565b600060208284031215613df657600080fd5b613d8e82613d95565b8015158114610c2c57600080fd5b600080600060608486031215613e2257600080fd5b613e2b84613d95565b92506020840135613e3b81613dff565b929592945050506040919091013590565b60008060408385031215613e5f57600080fd5b613e6883613d95565b91506020830135613e7881613dff565b809150509250929050565b60008060408385031215613e9657600080fd5b823560038110613ea557600080fd5b946020939093013593505050565b60008083601f840112613ec557600080fd5b50813567ffffffffffffffff811115613edd57600080fd5b6020830191508360208260051b8501011115613ef857600080fd5b9250929050565b60008060008060408587031215613f1557600080fd5b843567ffffffffffffffff80821115613f2d57600080fd5b613f3988838901613eb3565b90965094506020870135915080821115613f5257600080fd5b50613f5f87828801613eb3565b95989497509550505050565b60008060408385031215613f7e57600080fd5b613ea583613d95565b60208082526019908201527f57616c6c6574206973206e6f742077686974656c697374656400000000000000604082015260600190565b60208082526012908201527110dbdb9d1c9858dd081a5cc81c185d5cd95960721b604082015260600190565b6020808252601b908201527f57616c6c657420686173206265656e20626c61636b6c69737465640000000000604082015260600190565b602080825260409082018190527f52657761726420746f6b656e732066756e64696e6720686173206e6f74207374908201527f6172746564207965742c206e6f20746f6b656e7320746f207769746864726177606082015260800190565b60208082526036908201527f496e73756666696369656e742072657761726420746f6b656e7320696e2074686040820152756520636f6e747261637420746f20776974686472617760501b606082015260800190565b634e487b7160e01b600052601160045260246000fd5b808201808211156140fe576140fe6140d5565b92915050565b818103818111156140fe576140fe6140d5565b60006020828403121561412957600080fd5b8151613d8e81613dff565b60008261415157634e487b7160e01b600052601260045260246000fd5b500490565b602080825260409082018190527f47726f77746820746f6b656e732066756e64696e6720686173206e6f74207374908201527f6172746564207965742c206e6f20746f6b656e7320746f207769746864726177606082015260800190565b60208082526037908201527f46756e6374696f6e207265736572766564206f6e6c7920666f7220746865207760408201527f686974656c6973746572206f7220746865206f776e6572000000000000000000606082015260800190565b6020808252603e908201527f5465616d20746f6b656e732066756e64696e6720686173206e6f74207374617260408201527f746564207965742c206e6f20746f6b656e7320746f2077697468647261770000606082015260800190565b600060ff821660ff8103614284576142846140d5565b60010192915050565b634e487b7160e01b600052604160045260246000fd5b601f8201601f1916810167ffffffffffffffff811182821017156142c9576142c961428d565b6040525050565b60005b838110156142eb5781810151838201526020016142d3565b50506000910152565b60006020828403121561430657600080fd5b815167ffffffffffffffff8082111561431e57600080fd5b818401915084601f83011261433257600080fd5b8151818111156143445761434461428d565b604051915061435d601f8201601f1916602001836142a3565b80825285602082850101111561437257600080fd5b6143838160208401602086016142d0565b50949350505050565b6000825161439e8184602087016142d0565b9190910192915050565b6020808252602e908201527f57616c6c65742068617320616c7265616479206265656e20757064617465642060408201526d746f20746861742073746174757360901b606082015260800190565b634e487b7160e01b600052602160045260246000fd5b604081016003841061442e57634e487b7160e01b600052602160045260246000fd5b9281526020015290565b60208082526051908201527f46756e6374696f6e207265736572766564206f6e6c7920666f7220746865207260408201527f65776172647320757064617465722c20746865206f776e65722c206f72207468606082015270329031b7b73a3930b1ba1034ba39b2b63360791b608082015260a00190565b6020808252603e908201527f52657761726420746f6b656e732066756e64696e6720686173206e6f7420737460408201527f6172746564207965742c206e6f20746f6b656e7320746f207570646174650000606082015260800190565b634e487b7160e01b600052603260045260246000fd5b600060033d111561453b5760046000803e5060005160e01c5b90565b600060443d101561454c5790565b6040516003193d81016004833e81513d67ffffffffffffffff816024840111818411171561457c57505050505090565b82850191508151818111156145945750505050505090565b843d87010160208285010111156145ae5750505050505090565b6145bd602082860101876142a3565b509095945050505050565b600060018060a01b0380861683528085166020840152506060604083015282518060608401526145ff8160808501602087016142d0565b601f01601f191691909101608001949350505050565b600060018201614627576146276140d5565b5060010190565b6001600160a01b03868116825260606020808401829052908301869052600091879160808501845b8981101561467b578361466886613d95565b1682529382019390820190600101614656565b5085810360408701528681526001600160fb1b0387111561469b57600080fd5b8660051b93508388838301379092019091019897505050505050505056fecd5ed15c6e187e77e9aee88184c21f4f2182ab5827cb3b7e07fbedcd63f033009b779b17422d0df92223018b32b4d1fa46e071723d6817e2486d003becc55f00f572c1a3c9723ee4a9544fdd9299fbdea3409f4e29a51ae34e1b58363450ba11a264697066735822122080aa2ce98bd87483a6bfd0c2bd1e506a11392352b8936af90465795b18fd06dd64736f6c63430008140033","opcodes":"PUSH1 0x80 PUSH1 0x40 MSTORE CALLVALUE DUP1 ISZERO PUSH2 0x10 JUMPI PUSH1 0x0 DUP1 REVERT JUMPDEST POP PUSH2 0x474F DUP1 PUSH2 0x20 PUSH1 0x0 CODECOPY PUSH1 0x0 RETURN INVALID PUSH1 0x80 PUSH1 0x40 MSTORE CALLVALUE DUP1 ISZERO PUSH2 0x10 JUMPI PUSH1 0x0 DUP1 REVERT JUMPDEST POP PUSH1 0x4 CALLDATASIZE LT PUSH2 0x378 JUMPI PUSH1 0x0 CALLDATALOAD PUSH1 0xE0 SHR DUP1 PUSH4 0x8DA2E27F GT PUSH2 0x1D3 JUMPI DUP1 PUSH4 0xD7E57FDA GT PUSH2 0x104 JUMPI DUP1 PUSH4 0xEFCE5587 GT PUSH2 0xA2 JUMPI DUP1 PUSH4 0xF8FF46C6 GT PUSH2 0x7C JUMPI DUP1 PUSH4 0xF8FF46C6 EQ PUSH2 0x760 JUMPI DUP1 PUSH4 0xF972C027 EQ PUSH2 0x769 JUMPI DUP1 PUSH4 0xFAFD7C20 EQ PUSH2 0x77C JUMPI DUP1 PUSH4 0xFD559526 EQ PUSH2 0x78F JUMPI PUSH1 0x0 DUP1 REVERT JUMPDEST DUP1 PUSH4 0xEFCE5587 EQ PUSH2 0x72D JUMPI DUP1 PUSH4 0xF2FDE38B EQ PUSH2 0x740 JUMPI DUP1 PUSH4 0xF3793B9D EQ PUSH2 0x753 JUMPI PUSH1 0x0 DUP1 REVERT JUMPDEST DUP1 PUSH4 0xE2CCBFE4 GT PUSH2 0xDE JUMPI DUP1 PUSH4 0xE2CCBFE4 EQ PUSH2 0x6FA JUMPI DUP1 PUSH4 0xE3682A5D EQ PUSH2 0x70D JUMPI DUP1 PUSH4 0xE774CE43 EQ PUSH2 0x717 JUMPI DUP1 PUSH4 0xEBC8E2DD EQ PUSH2 0x720 JUMPI PUSH1 0x0 DUP1 REVERT JUMPDEST DUP1 PUSH4 0xD7E57FDA EQ PUSH2 0x6D4 JUMPI DUP1 PUSH4 0xDCB7FF6B EQ PUSH2 0x6DD JUMPI DUP1 PUSH4 0xDE51D567 EQ PUSH2 0x6E8 JUMPI PUSH1 0x0 DUP1 REVERT JUMPDEST DUP1 PUSH4 0xB4BA9FD7 GT PUSH2 0x171 JUMPI DUP1 PUSH4 0xC1CC52B3 GT PUSH2 0x14B JUMPI DUP1 PUSH4 0xC1CC52B3 EQ PUSH2 0x698 JUMPI DUP1 PUSH4 0xC4D66DE8 EQ PUSH2 0x6A5 JUMPI DUP1 PUSH4 0xD356B49A EQ PUSH2 0x6B8 JUMPI DUP1 PUSH4 0xD3946A8C EQ PUSH2 0x6C1 JUMPI PUSH1 0x0 DUP1 REVERT JUMPDEST DUP1 PUSH4 0xB4BA9FD7 EQ PUSH2 0x65E JUMPI DUP1 PUSH4 0xB8360806 EQ PUSH2 0x672 JUMPI DUP1 PUSH4 0xC07732A3 EQ PUSH2 0x685 JUMPI PUSH1 0x0 DUP1 REVERT JUMPDEST DUP1 PUSH4 0x953B7EF8 GT PUSH2 0x1AD JUMPI DUP1 PUSH4 0x953B7EF8 EQ PUSH2 0x627 JUMPI DUP1 PUSH4 0x9656CD8C EQ PUSH2 0x62F JUMPI DUP1 PUSH4 0x9BAE9002 EQ PUSH2 0x638 JUMPI DUP1 PUSH4 0xA868E997 EQ PUSH2 0x64B JUMPI PUSH1 0x0 DUP1 REVERT JUMPDEST DUP1 PUSH4 0x8DA2E27F EQ PUSH2 0x604 JUMPI DUP1 PUSH4 0x8DA5CB5B EQ PUSH2 0x60D JUMPI DUP1 PUSH4 0x8E6D32DF EQ PUSH2 0x615 JUMPI PUSH1 0x0 DUP1 REVERT JUMPDEST DUP1 PUSH4 0x5D70203B GT PUSH2 0x2AD JUMPI DUP1 PUSH4 0x6FCE7873 GT PUSH2 0x24B JUMPI DUP1 PUSH4 0x8456CB59 GT PUSH2 0x225 JUMPI DUP1 PUSH4 0x8456CB59 EQ PUSH2 0x4F6 JUMPI DUP1 PUSH4 0x89B08F11 EQ PUSH2 0x4FE JUMPI DUP1 PUSH4 0x8A194D04 EQ PUSH2 0x5D7 JUMPI DUP1 PUSH4 0x8BB4DADD EQ PUSH2 0x5EA JUMPI PUSH1 0x0 DUP1 REVERT JUMPDEST DUP1 PUSH4 0x6FCE7873 EQ PUSH2 0x4C8 JUMPI DUP1 PUSH4 0x715018A6 EQ PUSH2 0x4DB JUMPI DUP1 PUSH4 0x81F8CA1B EQ PUSH2 0x4E3 JUMPI PUSH1 0x0 DUP1 REVERT JUMPDEST DUP1 PUSH4 0x653C3A47 GT PUSH2 0x287 JUMPI DUP1 PUSH4 0x653C3A47 EQ PUSH2 0x48B JUMPI DUP1 PUSH4 0x65699D28 EQ PUSH2 0x49E JUMPI DUP1 PUSH4 0x687A83F8 EQ PUSH2 0x4B6 JUMPI DUP1 PUSH4 0x6E3CE4E1 EQ PUSH2 0x4BF JUMPI PUSH1 0x0 DUP1 REVERT JUMPDEST DUP1 PUSH4 0x5D70203B EQ PUSH2 0x470 JUMPI DUP1 PUSH4 0x6148C783 EQ PUSH2 0x479 JUMPI DUP1 PUSH4 0x647A5A78 EQ PUSH2 0x482 JUMPI PUSH1 0x0 DUP1 REVERT JUMPDEST DUP1 PUSH4 0x3BA10A56 GT PUSH2 0x31A JUMPI DUP1 PUSH4 0x4C4DC42E GT PUSH2 0x2F4 JUMPI DUP1 PUSH4 0x4C4DC42E EQ PUSH2 0x432 JUMPI DUP1 PUSH4 0x5493B30D EQ PUSH2 0x43A JUMPI DUP1 PUSH4 0x59AA8966 EQ PUSH2 0x44D JUMPI DUP1 PUSH4 0x5C975ABB EQ PUSH2 0x458 JUMPI PUSH1 0x0 DUP1 REVERT JUMPDEST DUP1 PUSH4 0x3BA10A56 EQ PUSH2 0x40F JUMPI DUP1 PUSH4 0x3F4BA83A EQ PUSH2 0x422 JUMPI DUP1 PUSH4 0x42ECB464 EQ PUSH2 0x42A JUMPI PUSH1 0x0 DUP1 REVERT JUMPDEST DUP1 PUSH4 0x2574CD9D GT PUSH2 0x356 JUMPI DUP1 PUSH4 0x2574CD9D EQ PUSH2 0x3D6 JUMPI DUP1 PUSH4 0x334C4CB3 EQ PUSH2 0x3EB JUMPI DUP1 PUSH4 0x370243DC EQ PUSH2 0x3F4 JUMPI DUP1 PUSH4 0x3768C029 EQ PUSH2 0x3FC JUMPI PUSH1 0x0 DUP1 REVERT JUMPDEST DUP1 PUSH4 0x31F6589 EQ PUSH2 0x37D JUMPI DUP1 PUSH4 0x1035FC09 EQ PUSH2 0x3AD JUMPI DUP1 PUSH4 0x1E6B4028 EQ PUSH2 0x3C4 JUMPI JUMPDEST PUSH1 0x0 DUP1 REVERT JUMPDEST PUSH1 0x0 SLOAD PUSH2 0x390 SWAP1 PUSH1 0x1 PUSH1 0x1 PUSH1 0xA0 SHL SUB AND DUP2 JUMP JUMPDEST PUSH1 0x40 MLOAD PUSH1 0x1 PUSH1 0x1 PUSH1 0xA0 SHL SUB SWAP1 SWAP2 AND DUP2 MSTORE PUSH1 0x20 ADD JUMPDEST PUSH1 0x40 MLOAD DUP1 SWAP2 SUB SWAP1 RETURN JUMPDEST PUSH2 0x3B6 PUSH1 0xB SLOAD DUP2 JUMP JUMPDEST PUSH1 0x40 MLOAD SWAP1 DUP2 MSTORE PUSH1 0x20 ADD PUSH2 0x3A4 JUMP JUMPDEST PUSH2 0x3B6 PUSH11 0x6342FD08F00F6378000000 DUP2 JUMP JUMPDEST PUSH2 0x3E9 PUSH2 0x3E4 CALLDATASIZE PUSH1 0x4 PUSH2 0x3D6B JUMP JUMPDEST PUSH2 0x798 JUMP JUMPDEST STOP JUMPDEST PUSH2 0x3B6 PUSH1 0xF SLOAD DUP2 JUMP JUMPDEST PUSH2 0x3E9 PUSH2 0x8B7 JUMP JUMPDEST PUSH2 0x3E9 PUSH2 0x40A CALLDATASIZE PUSH1 0x4 PUSH2 0x3DB1 JUMP JUMPDEST PUSH2 0xC2F JUMP JUMPDEST PUSH1 0x1 SLOAD PUSH2 0x390 SWAP1 PUSH1 0x1 PUSH1 0x1 PUSH1 0xA0 SHL SUB AND DUP2 JUMP JUMPDEST PUSH2 0x3E9 PUSH2 0x120F JUMP JUMPDEST PUSH2 0x3B6 PUSH2 0x1221 JUMP JUMPDEST PUSH2 0x3E9 PUSH2 0x123A JUMP JUMPDEST PUSH2 0x3B6 PUSH12 0x4D8C55AEFB8C05B5C000000 DUP2 JUMP JUMPDEST PUSH2 0x3B6 PUSH4 0x1E13380 DUP2 JUMP JUMPDEST PUSH2 0x460 PUSH2 0x157E JUMP JUMPDEST PUSH1 0x40 MLOAD SWAP1 ISZERO ISZERO DUP2 MSTORE PUSH1 0x20 ADD PUSH2 0x3A4 JUMP JUMPDEST PUSH2 0x3B6 PUSH1 0x2 SLOAD DUP2 JUMP JUMPDEST PUSH2 0x3B6 PUSH1 0x3 SLOAD DUP2 JUMP JUMPDEST PUSH2 0x3B6 PUSH1 0xA SLOAD DUP2 JUMP JUMPDEST PUSH2 0x3E9 PUSH2 0x499 CALLDATASIZE PUSH1 0x4 PUSH2 0x3DE4 JUMP JUMPDEST PUSH2 0x1594 JUMP JUMPDEST PUSH1 0x12 SLOAD PUSH2 0x390 SWAP1 PUSH2 0x100 SWAP1 DIV PUSH1 0x1 PUSH1 0x1 PUSH1 0xA0 SHL SUB AND DUP2 JUMP JUMPDEST PUSH2 0x3B6 PUSH1 0x5 SLOAD DUP2 JUMP JUMPDEST PUSH2 0x3B6 PUSH1 0x11 SLOAD DUP2 JUMP JUMPDEST PUSH2 0x3E9 PUSH2 0x4D6 CALLDATASIZE PUSH1 0x4 PUSH2 0x3DE4 JUMP JUMPDEST PUSH2 0x1660 JUMP JUMPDEST PUSH2 0x3E9 PUSH2 0x1727 JUMP JUMPDEST PUSH2 0x3B6 PUSH12 0x3E09DE2596099E2B0000000 DUP2 JUMP JUMPDEST PUSH2 0x3E9 PUSH2 0x1739 JUMP JUMPDEST PUSH2 0x575 PUSH2 0x50C CALLDATASIZE PUSH1 0x4 PUSH2 0x3DE4 JUMP JUMPDEST PUSH1 0x14 PUSH1 0x20 MSTORE PUSH1 0x0 SWAP1 DUP2 MSTORE PUSH1 0x40 SWAP1 KECCAK256 DUP1 SLOAD PUSH1 0x1 DUP3 ADD SLOAD PUSH1 0x2 DUP4 ADD SLOAD PUSH1 0x3 DUP5 ADD SLOAD PUSH1 0x4 DUP6 ADD SLOAD PUSH1 0x5 DUP7 ADD SLOAD PUSH1 0x6 DUP8 ADD SLOAD PUSH1 0x7 DUP9 ADD SLOAD PUSH1 0x8 DUP10 ADD SLOAD PUSH1 0x9 SWAP1 SWAP10 ADD SLOAD SWAP8 SWAP9 SWAP7 SWAP8 SWAP6 SWAP7 SWAP5 SWAP6 SWAP4 SWAP5 SWAP3 SWAP4 PUSH1 0xFF SWAP3 DUP4 AND SWAP4 SWAP2 SWAP3 DUP2 DUP2 AND SWAP2 PUSH2 0x100 DUP2 DIV DUP3 AND SWAP2 PUSH3 0x10000 SWAP1 SWAP2 DIV AND DUP13 JUMP JUMPDEST PUSH1 0x40 DUP1 MLOAD SWAP13 DUP14 MSTORE PUSH1 0x20 DUP14 ADD SWAP12 SWAP1 SWAP12 MSTORE SWAP10 DUP12 ADD SWAP9 SWAP1 SWAP9 MSTORE PUSH1 0x60 DUP11 ADD SWAP7 SWAP1 SWAP7 MSTORE PUSH1 0x80 DUP10 ADD SWAP5 SWAP1 SWAP5 MSTORE PUSH1 0xA0 DUP9 ADD SWAP3 SWAP1 SWAP3 MSTORE PUSH1 0xFF AND PUSH1 0xC0 DUP8 ADD MSTORE PUSH1 0xE0 DUP7 ADD MSTORE PUSH2 0x100 DUP6 ADD MSTORE ISZERO ISZERO PUSH2 0x120 DUP5 ADD MSTORE ISZERO ISZERO PUSH2 0x140 DUP4 ADD MSTORE ISZERO ISZERO PUSH2 0x160 DUP3 ADD MSTORE PUSH2 0x180 ADD PUSH2 0x3A4 JUMP JUMPDEST PUSH2 0x3E9 PUSH2 0x5E5 CALLDATASIZE PUSH1 0x4 PUSH2 0x3E0D JUMP JUMPDEST PUSH2 0x1749 JUMP JUMPDEST PUSH2 0x5F2 PUSH2 0x1B9C JUMP JUMPDEST PUSH1 0x40 MLOAD PUSH1 0xFF SWAP1 SWAP2 AND DUP2 MSTORE PUSH1 0x20 ADD PUSH2 0x3A4 JUMP JUMPDEST PUSH2 0x3B6 PUSH1 0x10 SLOAD DUP2 JUMP JUMPDEST PUSH2 0x390 PUSH2 0x1C7A JUMP JUMPDEST PUSH2 0x3B6 PUSH11 0xF8277896582678AC000000 DUP2 JUMP JUMPDEST PUSH2 0x3E9 PUSH2 0x1CA8 JUMP JUMPDEST PUSH2 0x3B6 PUSH1 0x6 SLOAD DUP2 JUMP JUMPDEST PUSH2 0x3E9 PUSH2 0x646 CALLDATASIZE PUSH1 0x4 PUSH2 0x3DE4 JUMP JUMPDEST PUSH2 0x21F2 JUMP JUMPDEST PUSH2 0x3B6 PUSH12 0x7C13BC4B2C133C560000000 DUP2 JUMP JUMPDEST PUSH1 0x13 SLOAD PUSH2 0x5F2 SWAP1 PUSH1 0x1 PUSH1 0xA0 SHL SWAP1 DIV PUSH1 0xFF AND DUP2 JUMP JUMPDEST PUSH2 0x3E9 PUSH2 0x680 CALLDATASIZE PUSH1 0x4 PUSH2 0x3E4C JUMP JUMPDEST PUSH2 0x23E5 JUMP JUMPDEST PUSH2 0x3E9 PUSH2 0x693 CALLDATASIZE PUSH1 0x4 PUSH2 0x3E4C JUMP JUMPDEST PUSH2 0x251A JUMP JUMPDEST PUSH1 0xC SLOAD PUSH2 0x460 SWAP1 PUSH1 0xFF AND DUP2 JUMP JUMPDEST PUSH2 0x3E9 PUSH2 0x6B3 CALLDATASIZE PUSH1 0x4 PUSH2 0x3DE4 JUMP JUMPDEST PUSH2 0x26C9 JUMP JUMPDEST PUSH2 0x3B6 PUSH1 0x4 SLOAD DUP2 JUMP JUMPDEST PUSH2 0x3E9 PUSH2 0x6CF CALLDATASIZE PUSH1 0x4 PUSH2 0x3E83 JUMP JUMPDEST PUSH2 0x2932 JUMP JUMPDEST PUSH2 0x3B6 PUSH1 0x9 SLOAD DUP2 JUMP JUMPDEST PUSH2 0x3B6 PUSH4 0x784CE00 DUP2 JUMP JUMPDEST PUSH2 0x3B6 PUSH11 0x7C13BC4B2C133C56000000 DUP2 JUMP JUMPDEST PUSH2 0x3E9 PUSH2 0x708 CALLDATASIZE PUSH1 0x4 PUSH2 0x3E83 JUMP JUMPDEST PUSH2 0x2E65 JUMP JUMPDEST PUSH2 0x3B6 PUSH3 0x7E900 DUP2 JUMP JUMPDEST PUSH2 0x3B6 PUSH1 0xE SLOAD DUP2 JUMP JUMPDEST PUSH1 0x12 SLOAD PUSH2 0x460 SWAP1 PUSH1 0xFF AND DUP2 JUMP JUMPDEST PUSH2 0x3E9 PUSH2 0x73B CALLDATASIZE PUSH1 0x4 PUSH2 0x3EFF JUMP JUMPDEST PUSH2 0x327B JUMP JUMPDEST PUSH2 0x3E9 PUSH2 0x74E CALLDATASIZE PUSH1 0x4 PUSH2 0x3DE4 JUMP JUMPDEST PUSH2 0x35D6 JUMP JUMPDEST PUSH1 0x7 SLOAD PUSH2 0x460 SWAP1 PUSH1 0xFF AND DUP2 JUMP JUMPDEST PUSH2 0x3B6 PUSH1 0x8 SLOAD DUP2 JUMP JUMPDEST PUSH1 0x13 SLOAD PUSH2 0x390 SWAP1 PUSH1 0x1 PUSH1 0x1 PUSH1 0xA0 SHL SUB AND DUP2 JUMP JUMPDEST PUSH2 0x3E9 PUSH2 0x78A CALLDATASIZE PUSH1 0x4 PUSH2 0x3F6B JUMP JUMPDEST PUSH2 0x36C3 JUMP JUMPDEST PUSH2 0x3B6 PUSH1 0xD SLOAD DUP2 JUMP JUMPDEST PUSH2 0x7A0 PUSH2 0x3AB9 JUMP JUMPDEST PUSH1 0x0 DUP2 PUSH1 0xFF AND GT PUSH2 0x7F8 JUMPI PUSH1 0x40 MLOAD PUSH3 0x461BCD PUSH1 0xE5 SHL DUP2 MSTORE PUSH1 0x20 PUSH1 0x4 DUP3 ADD MSTORE PUSH1 0x1E PUSH1 0x24 DUP3 ADD MSTORE PUSH32 0x4D6178696D756D2062617463682073697A652063616E6E6F7420626520300000 PUSH1 0x44 DUP3 ADD MSTORE PUSH1 0x64 ADD JUMPDEST PUSH1 0x40 MLOAD DUP1 SWAP2 SUB SWAP1 REVERT JUMPDEST PUSH1 0x64 DUP2 PUSH1 0xFF AND GT ISZERO PUSH2 0x862 JUMPI PUSH1 0x40 MLOAD PUSH3 0x461BCD PUSH1 0xE5 SHL DUP2 MSTORE PUSH1 0x20 PUSH1 0x4 DUP3 ADD MSTORE PUSH1 0x2D PUSH1 0x24 DUP3 ADD MSTORE PUSH32 0x4D6178696D756D2062617463682073697A652063616E6E6F7420626520677265 PUSH1 0x44 DUP3 ADD MSTORE PUSH13 0x61746572207468616E2031303 PUSH1 0x9C SHL PUSH1 0x64 DUP3 ADD MSTORE PUSH1 0x84 ADD PUSH2 0x7EF JUMP JUMPDEST PUSH1 0x13 DUP1 SLOAD PUSH1 0xFF PUSH1 0xA0 SHL NOT AND PUSH1 0x1 PUSH1 0xA0 SHL PUSH1 0xFF DUP5 AND SWAP1 DUP2 MUL SWAP2 SWAP1 SWAP2 OR SWAP1 SWAP2 SSTORE PUSH1 0x40 MLOAD SWAP1 DUP2 MSTORE PUSH32 0x6F2BB1DA32E5620D3A499F2A9B7E558FF34E34134E8DB9A112FF5982AE969094 SWAP1 PUSH1 0x20 ADD JUMPDEST PUSH1 0x40 MLOAD DUP1 SWAP2 SUB SWAP1 LOG1 POP JUMP JUMPDEST CALLER PUSH1 0x0 DUP2 DUP2 MSTORE PUSH1 0x14 PUSH1 0x20 MSTORE PUSH1 0x40 SWAP1 KECCAK256 PUSH1 0x9 ADD SLOAD PUSH1 0xFF PUSH2 0x100 SWAP1 SWAP2 DIV AND ISZERO ISZERO PUSH1 0x1 EQ PUSH2 0x8F4 JUMPI PUSH1 0x40 MLOAD PUSH3 0x461BCD PUSH1 0xE5 SHL DUP2 MSTORE PUSH1 0x4 ADD PUSH2 0x7EF SWAP1 PUSH2 0x3F87 JUMP JUMPDEST PUSH2 0x8FC PUSH2 0x3AEB JUMP JUMPDEST PUSH2 0x904 PUSH2 0x157E JUMP JUMPDEST ISZERO PUSH2 0x921 JUMPI PUSH1 0x40 MLOAD PUSH3 0x461BCD PUSH1 0xE5 SHL DUP2 MSTORE PUSH1 0x4 ADD PUSH2 0x7EF SWAP1 PUSH2 0x3FBE JUMP JUMPDEST CALLER PUSH1 0x0 SWAP1 DUP2 MSTORE PUSH1 0x14 PUSH1 0x20 MSTORE PUSH1 0x40 SWAP1 KECCAK256 PUSH1 0x9 ADD SLOAD PUSH1 0xFF PUSH2 0x100 SWAP1 SWAP2 DIV AND ISZERO ISZERO PUSH1 0x1 EQ PUSH2 0x95E JUMPI PUSH1 0x40 MLOAD PUSH3 0x461BCD PUSH1 0xE5 SHL DUP2 MSTORE PUSH1 0x4 ADD PUSH2 0x7EF SWAP1 PUSH2 0x3F87 JUMP JUMPDEST CALLER PUSH1 0x0 SWAP1 DUP2 MSTORE PUSH1 0x14 PUSH1 0x20 MSTORE PUSH1 0x40 SWAP1 KECCAK256 PUSH1 0x9 ADD SLOAD PUSH3 0x10000 SWAP1 DIV PUSH1 0xFF AND ISZERO PUSH2 0x997 JUMPI PUSH1 0x40 MLOAD PUSH3 0x461BCD PUSH1 0xE5 SHL DUP2 MSTORE PUSH1 0x4 ADD PUSH2 0x7EF SWAP1 PUSH2 0x3FEA JUMP JUMPDEST PUSH1 0x12 SLOAD PUSH1 0xFF AND PUSH2 0x9B9 JUMPI PUSH1 0x40 MLOAD PUSH3 0x461BCD PUSH1 0xE5 SHL DUP2 MSTORE PUSH1 0x4 ADD PUSH2 0x7EF SWAP1 PUSH2 0x4021 JUMP JUMPDEST PUSH12 0x3E09DE2596099E2B0000000 PUSH1 0xF SLOAD LT PUSH2 0xA24 JUMPI PUSH1 0x40 MLOAD PUSH3 0x461BCD PUSH1 0xE5 SHL DUP2 MSTORE PUSH1 0x20 PUSH1 0x4 DUP3 ADD MSTORE PUSH1 0x25 PUSH1 0x24 DUP3 ADD MSTORE PUSH32 0x416C6C2072657761726420746F6B656E732068617665206265656E2077697468 PUSH1 0x44 DUP3 ADD MSTORE PUSH5 0x323930BBB7 PUSH1 0xD9 SHL PUSH1 0x64 DUP3 ADD MSTORE PUSH1 0x84 ADD PUSH2 0x7EF JUMP JUMPDEST CALLER PUSH1 0x0 SWAP1 DUP2 MSTORE PUSH1 0x14 PUSH1 0x20 MSTORE PUSH1 0x40 SWAP1 KECCAK256 PUSH1 0x3 ADD SLOAD DUP1 PUSH2 0xA84 JUMPI PUSH1 0x40 MLOAD PUSH3 0x461BCD PUSH1 0xE5 SHL DUP2 MSTORE PUSH1 0x20 PUSH1 0x4 DUP3 ADD DUP2 SWAP1 MSTORE PUSH1 0x24 DUP3 ADD MSTORE PUSH32 0x4E6F207265776172647320617661696C61626C6520746F207769746864726177 PUSH1 0x44 DUP3 ADD MSTORE PUSH1 0x64 ADD PUSH2 0x7EF JUMP JUMPDEST PUSH1 0x10 SLOAD DUP2 GT ISZERO PUSH2 0xAA6 JUMPI PUSH1 0x40 MLOAD PUSH3 0x461BCD PUSH1 0xE5 SHL DUP2 MSTORE PUSH1 0x4 ADD PUSH2 0x7EF SWAP1 PUSH2 0x407F JUMP JUMPDEST CALLER PUSH1 0x0 SWAP1 DUP2 MSTORE PUSH1 0x14 PUSH1 0x20 MSTORE PUSH1 0x40 DUP2 KECCAK256 PUSH1 0x4 ADD DUP1 SLOAD DUP4 SWAP3 SWAP1 PUSH2 0xAC8 SWAP1 DUP5 SWAP1 PUSH2 0x40EB JUMP JUMPDEST SWAP1 SWAP2 SSTORE POP POP CALLER PUSH1 0x0 SWAP1 DUP2 MSTORE PUSH1 0x14 PUSH1 0x20 MSTORE PUSH1 0x40 DUP2 KECCAK256 PUSH1 0x3 DUP2 ADD DUP3 SWAP1 SSTORE TIMESTAMP PUSH1 0x7 SWAP1 SWAP2 ADD SSTORE PUSH1 0x10 DUP1 SLOAD DUP4 SWAP3 SWAP1 PUSH2 0xAFC SWAP1 DUP5 SWAP1 PUSH2 0x4104 JUMP JUMPDEST SWAP3 POP POP DUP2 SWAP1 SSTORE POP DUP1 PUSH1 0xF PUSH1 0x0 DUP3 DUP3 SLOAD PUSH2 0xB15 SWAP2 SWAP1 PUSH2 0x40EB JUMP JUMPDEST SWAP1 SWAP2 SSTORE POP POP PUSH1 0x1 SLOAD PUSH1 0x40 MLOAD PUSH4 0xA9059CBB PUSH1 0xE0 SHL DUP2 MSTORE CALLER PUSH1 0x4 DUP3 ADD MSTORE PUSH1 0x24 DUP2 ADD DUP4 SWAP1 MSTORE PUSH1 0x1 PUSH1 0x1 PUSH1 0xA0 SHL SUB SWAP1 SWAP2 AND SWAP1 PUSH4 0xA9059CBB SWAP1 PUSH1 0x44 ADD PUSH1 0x20 PUSH1 0x40 MLOAD DUP1 DUP4 SUB DUP2 PUSH1 0x0 DUP8 GAS CALL ISZERO DUP1 ISZERO PUSH2 0xB6B JUMPI RETURNDATASIZE PUSH1 0x0 DUP1 RETURNDATACOPY RETURNDATASIZE PUSH1 0x0 REVERT JUMPDEST POP POP POP POP PUSH1 0x40 MLOAD RETURNDATASIZE PUSH1 0x1F NOT PUSH1 0x1F DUP3 ADD AND DUP3 ADD DUP1 PUSH1 0x40 MSTORE POP DUP2 ADD SWAP1 PUSH2 0xB8F SWAP2 SWAP1 PUSH2 0x4117 JUMP JUMPDEST PUSH2 0xBDB JUMPI PUSH1 0x40 MLOAD PUSH3 0x461BCD PUSH1 0xE5 SHL DUP2 MSTORE PUSH1 0x20 PUSH1 0x4 DUP3 ADD DUP2 SWAP1 MSTORE PUSH1 0x24 DUP3 ADD MSTORE PUSH32 0x4661696C656420746F207472616E736665722072657761726420746F6B656E73 PUSH1 0x44 DUP3 ADD MSTORE PUSH1 0x64 ADD PUSH2 0x7EF JUMP JUMPDEST PUSH1 0x40 DUP1 MLOAD CALLER DUP2 MSTORE PUSH1 0x20 DUP2 ADD DUP4 SWAP1 MSTORE PUSH32 0xD8A9090919355543D8C79690CEEE3933C0BD4FFC742AE7F790D4BF44A043BB6C SWAP2 ADD PUSH1 0x40 MLOAD DUP1 SWAP2 SUB SWAP1 LOG1 POP PUSH2 0xC2C PUSH1 0x1 PUSH1 0x0 DUP1 MLOAD PUSH1 0x20 PUSH2 0x46DA DUP4 CODECOPY DUP2 MLOAD SWAP2 MSTORE SSTORE JUMP JUMPDEST POP JUMP JUMPDEST PUSH2 0xC37 PUSH2 0x3AB9 JUMP JUMPDEST PUSH2 0xC3F PUSH2 0x3AEB JUMP JUMPDEST PUSH1 0xC SLOAD PUSH1 0xFF AND PUSH2 0xCB7 JUMPI PUSH1 0x40 MLOAD PUSH3 0x461BCD PUSH1 0xE5 SHL DUP2 MSTORE PUSH1 0x20 PUSH1 0x4 DUP3 ADD MSTORE PUSH1 0x3D PUSH1 0x24 DUP3 ADD MSTORE PUSH32 0x5465616D20746F6B656E732066756E64696E6720686173206E6F742073746172 PUSH1 0x44 DUP3 ADD MSTORE PUSH32 0x746564207965742C206E6F20746F6B656E7320746F207265636F766572000000 PUSH1 0x64 DUP3 ADD MSTORE PUSH1 0x84 ADD PUSH2 0x7EF JUMP JUMPDEST PUSH1 0x1 PUSH1 0x1 PUSH1 0xA0 SHL SUB DUP3 AND PUSH1 0x0 SWAP1 DUP2 MSTORE PUSH1 0x14 PUSH1 0x20 MSTORE PUSH1 0x40 SWAP1 KECCAK256 PUSH1 0x9 ADD SLOAD PUSH1 0xFF AND ISZERO ISZERO PUSH1 0x1 EQ PUSH2 0xD37 JUMPI PUSH1 0x40 MLOAD PUSH3 0x461BCD PUSH1 0xE5 SHL DUP2 MSTORE PUSH1 0x20 PUSH1 0x4 DUP3 ADD MSTORE PUSH1 0x27 PUSH1 0x24 DUP3 ADD MSTORE PUSH32 0x4F6C642077616C6C65742061646472657373206973206E6F742061207465616D PUSH1 0x44 DUP3 ADD MSTORE PUSH7 0x81DD85B1B195D PUSH1 0xCA SHL PUSH1 0x64 DUP3 ADD MSTORE PUSH1 0x84 ADD PUSH2 0x7EF JUMP JUMPDEST PUSH1 0x1 PUSH1 0x1 PUSH1 0xA0 SHL SUB DUP3 AND PUSH1 0x0 SWAP1 DUP2 MSTORE PUSH1 0x14 PUSH1 0x20 MSTORE PUSH1 0x40 SWAP1 KECCAK256 PUSH1 0x9 ADD SLOAD PUSH1 0xFF PUSH2 0x100 SWAP1 SWAP2 DIV AND ISZERO ISZERO PUSH1 0x1 EQ PUSH2 0xDC7 JUMPI PUSH1 0x40 MLOAD PUSH3 0x461BCD PUSH1 0xE5 SHL DUP2 MSTORE PUSH1 0x20 PUSH1 0x4 DUP3 ADD MSTORE PUSH1 0x31 PUSH1 0x24 DUP3 ADD MSTORE PUSH32 0x4F6C64207465616D206D656D6265722077616C6C657420616464726573732069 PUSH1 0x44 DUP3 ADD MSTORE PUSH17 0x1CC81B9BDD081DDA1A5D195B1A5CDD1959 PUSH1 0x7A SHL PUSH1 0x64 DUP3 ADD MSTORE PUSH1 0x84 ADD PUSH2 0x7EF JUMP JUMPDEST PUSH1 0x1 PUSH1 0x1 PUSH1 0xA0 SHL SUB DUP3 AND PUSH1 0x0 SWAP1 DUP2 MSTORE PUSH1 0x14 PUSH1 0x20 MSTORE PUSH1 0x40 SWAP1 KECCAK256 PUSH1 0x9 ADD SLOAD PUSH3 0x10000 SWAP1 DIV PUSH1 0xFF AND ISZERO PUSH2 0xE4F JUMPI PUSH1 0x40 MLOAD PUSH3 0x461BCD PUSH1 0xE5 SHL DUP2 MSTORE PUSH1 0x20 PUSH1 0x4 DUP3 ADD MSTORE PUSH1 0x2D PUSH1 0x24 DUP3 ADD MSTORE PUSH32 0x4F6C64207465616D206D656D6265722077616C6C657420616464726573732069 PUSH1 0x44 DUP3 ADD MSTORE PUSH13 0x1CC8189B1858DADB1A5CDD1959 PUSH1 0x9A SHL PUSH1 0x64 DUP3 ADD MSTORE PUSH1 0x84 ADD PUSH2 0x7EF JUMP JUMPDEST PUSH1 0x1 PUSH1 0x1 PUSH1 0xA0 SHL SUB DUP2 AND PUSH2 0xECB JUMPI PUSH1 0x40 MLOAD PUSH3 0x461BCD PUSH1 0xE5 SHL DUP2 MSTORE PUSH1 0x20 PUSH1 0x4 DUP3 ADD MSTORE PUSH1 0x39 PUSH1 0x24 DUP3 ADD MSTORE PUSH32 0x4E6577207465616D206D656D6265722077616C6C657420616464726573732063 PUSH1 0x44 DUP3 ADD MSTORE PUSH32 0x616E6E6F7420626520746865207A65726F206164647265737300000000000000 PUSH1 0x64 DUP3 ADD MSTORE PUSH1 0x84 ADD PUSH2 0x7EF JUMP JUMPDEST DUP2 PUSH1 0x1 PUSH1 0x1 PUSH1 0xA0 SHL SUB AND DUP2 PUSH1 0x1 PUSH1 0x1 PUSH1 0xA0 SHL SUB AND SUB PUSH2 0xF78 JUMPI PUSH1 0x40 MLOAD PUSH3 0x461BCD PUSH1 0xE5 SHL DUP2 MSTORE PUSH1 0x20 PUSH1 0x4 DUP3 ADD MSTORE PUSH1 0x57 PUSH1 0x24 DUP3 ADD MSTORE PUSH32 0x4E6577207465616D206D656D6265722077616C6C657420616464726573732063 PUSH1 0x44 DUP3 ADD MSTORE PUSH32 0x616E6E6F74206265207468652073616D6520617320746865206F6C6420746561 PUSH1 0x64 DUP3 ADD MSTORE PUSH32 0x6D206D656D6265722077616C6C65742061646472657373000000000000000000 PUSH1 0x84 DUP3 ADD MSTORE PUSH1 0xA4 ADD PUSH2 0x7EF JUMP JUMPDEST PUSH1 0x1 PUSH1 0x1 PUSH1 0xA0 SHL SUB DUP2 AND PUSH1 0x0 SWAP1 DUP2 MSTORE PUSH1 0x14 PUSH1 0x20 MSTORE PUSH1 0x40 SWAP1 KECCAK256 PUSH1 0x9 ADD SLOAD PUSH2 0x100 SWAP1 DIV PUSH1 0xFF AND ISZERO PUSH2 0x1007 JUMPI PUSH1 0x40 MLOAD PUSH3 0x461BCD PUSH1 0xE5 SHL DUP2 MSTORE PUSH1 0x20 PUSH1 0x4 DUP3 ADD MSTORE PUSH1 0x35 PUSH1 0x24 DUP3 ADD MSTORE PUSH32 0x4E6577207465616D206D656D6265722077616C6C657420616464726573732069 PUSH1 0x44 DUP3 ADD MSTORE PUSH21 0x1CC8185B1C9958591E481DDA1A5D195B1A5CDD1959 PUSH1 0x5A SHL PUSH1 0x64 DUP3 ADD MSTORE PUSH1 0x84 ADD PUSH2 0x7EF JUMP JUMPDEST PUSH1 0x1 PUSH1 0x1 PUSH1 0xA0 SHL SUB DUP2 AND PUSH1 0x0 SWAP1 DUP2 MSTORE PUSH1 0x14 PUSH1 0x20 MSTORE PUSH1 0x40 SWAP1 KECCAK256 PUSH1 0x9 ADD SLOAD PUSH1 0xFF AND ISZERO PUSH2 0x1099 JUMPI PUSH1 0x40 MLOAD PUSH3 0x461BCD PUSH1 0xE5 SHL DUP2 MSTORE PUSH1 0x20 PUSH1 0x4 DUP3 ADD MSTORE PUSH1 0x37 PUSH1 0x24 DUP3 ADD MSTORE PUSH32 0x4E6577207465616D206D656D6265722077616C6C657420616464726573732069 PUSH1 0x44 DUP3 ADD MSTORE PUSH32 0x7320616C72656164792061207465616D2077616C6C6574000000000000000000 PUSH1 0x64 DUP3 ADD MSTORE PUSH1 0x84 ADD PUSH2 0x7EF JUMP JUMPDEST PUSH1 0x1 PUSH1 0x1 PUSH1 0xA0 SHL SUB DUP2 AND PUSH1 0x0 SWAP1 DUP2 MSTORE PUSH1 0x14 PUSH1 0x20 MSTORE PUSH1 0x40 SWAP1 KECCAK256 PUSH1 0x9 ADD SLOAD PUSH3 0x10000 SWAP1 DIV PUSH1 0xFF AND ISZERO PUSH2 0x1121 JUMPI PUSH1 0x40 MLOAD PUSH3 0x461BCD PUSH1 0xE5 SHL DUP2 MSTORE PUSH1 0x20 PUSH1 0x4 DUP3 ADD MSTORE PUSH1 0x2D PUSH1 0x24 DUP3 ADD MSTORE PUSH32 0x4E6577207465616D206D656D6265722077616C6C657420616464726573732069 PUSH1 0x44 DUP3 ADD MSTORE PUSH13 0x1CC8189B1858DADB1A5CDD1959 PUSH1 0x9A SHL PUSH1 0x64 DUP3 ADD MSTORE PUSH1 0x84 ADD PUSH2 0x7EF JUMP JUMPDEST PUSH1 0x1 PUSH1 0x1 PUSH1 0xA0 SHL SUB DUP2 DUP2 AND PUSH1 0x0 DUP2 DUP2 MSTORE PUSH1 0x14 PUSH1 0x20 SWAP1 DUP2 MSTORE PUSH1 0x40 DUP1 DUP4 KECCAK256 PUSH1 0x9 DUP1 DUP3 ADD DUP1 SLOAD PUSH2 0x101 PUSH3 0xFFFFFF NOT SWAP2 DUP3 AND OR SWAP1 SWAP2 SSTORE SWAP7 DUP10 AND DUP1 DUP7 MSTORE DUP4 DUP7 KECCAK256 PUSH1 0x1 DUP2 DUP2 ADD DUP1 SLOAD SWAP2 DUP7 ADD SWAP2 SWAP1 SWAP2 SSTORE DUP2 SLOAD DUP6 SSTORE PUSH1 0x5 DUP1 DUP4 ADD SLOAD SWAP1 DUP7 ADD SSTORE PUSH1 0x6 DUP1 DUP4 ADD DUP1 SLOAD SWAP2 DUP8 ADD DUP1 SLOAD PUSH1 0xFF SWAP1 SWAP4 AND PUSH1 0xFF NOT SWAP4 DUP5 AND OR SWAP1 SSTORE SWAP5 DUP4 ADD DUP1 SLOAD PUSH3 0x10000 SWAP13 AND SWAP12 SWAP1 SWAP12 OR SWAP1 SWAP11 SSTORE DUP8 SWAP1 SSTORE DUP7 SWAP1 SSTORE DUP2 SLOAD SWAP1 SWAP8 AND SWAP1 SSTORE SWAP3 DUP5 SWAP1 MSTORE SWAP2 SLOAD DUP3 MLOAD SWAP5 DUP6 MSTORE SWAP1 DUP5 ADD SWAP3 SWAP1 SWAP3 MSTORE DUP3 ADD MSTORE PUSH32 0xA9DEFC7864DD156FA1C6384B685620C7012FA46B9E570145F7AEDECBBF38E9EF SWAP1 PUSH1 0x60 ADD JUMPDEST PUSH1 0x40 MLOAD DUP1 SWAP2 SUB SWAP1 LOG1 PUSH2 0x120B PUSH1 0x1 PUSH1 0x0 DUP1 MLOAD PUSH1 0x20 PUSH2 0x46DA DUP4 CODECOPY DUP2 MLOAD SWAP2 MSTORE SSTORE JUMP JUMPDEST POP POP JUMP JUMPDEST PUSH2 0x1217 PUSH2 0x3AB9 JUMP JUMPDEST PUSH2 0x121F PUSH2 0x3B37 JUMP JUMPDEST JUMP JUMPDEST PUSH2 0x1237 PUSH1 0x34 PUSH11 0x7C13BC4B2C133C56000000 PUSH2 0x4134 JUMP JUMPDEST DUP2 JUMP JUMPDEST PUSH2 0x1242 PUSH2 0x3AB9 JUMP JUMPDEST PUSH2 0x124A PUSH2 0x3AEB JUMP JUMPDEST PUSH2 0x1252 PUSH2 0x157E JUMP JUMPDEST ISZERO PUSH2 0x126F JUMPI PUSH1 0x40 MLOAD PUSH3 0x461BCD PUSH1 0xE5 SHL DUP2 MSTORE PUSH1 0x4 ADD PUSH2 0x7EF SWAP1 PUSH2 0x3FBE JUMP JUMPDEST PUSH1 0x7 SLOAD PUSH1 0xFF AND PUSH2 0x1291 JUMPI PUSH1 0x40 MLOAD PUSH3 0x461BCD PUSH1 0xE5 SHL DUP2 MSTORE PUSH1 0x4 ADD PUSH2 0x7EF SWAP1 PUSH2 0x4156 JUMP JUMPDEST PUSH4 0x1E13380 PUSH1 0x6 SLOAD PUSH2 0x12A3 SWAP2 SWAP1 PUSH2 0x40EB JUMP JUMPDEST TIMESTAMP LT ISZERO PUSH2 0x130C JUMPI PUSH1 0x40 MLOAD PUSH3 0x461BCD PUSH1 0xE5 SHL DUP2 MSTORE PUSH1 0x20 PUSH1 0x4 DUP3 ADD MSTORE PUSH1 0x31 PUSH1 0x24 DUP3 ADD MSTORE PUSH32 0x43616E6E6F74207769746864726177206265666F726520312079656172206166 PUSH1 0x44 DUP3 ADD MSTORE PUSH17 0x1D195C88199D5B991A5B99C81CDD185C9D PUSH1 0x7A SHL PUSH1 0x64 DUP3 ADD MSTORE PUSH1 0x84 ADD PUSH2 0x7EF JUMP JUMPDEST PUSH12 0x7C13BC4B2C133C560000000 PUSH1 0x3 SLOAD LT PUSH2 0x1377 JUMPI PUSH1 0x40 MLOAD PUSH3 0x461BCD PUSH1 0xE5 SHL DUP2 MSTORE PUSH1 0x20 PUSH1 0x4 DUP3 ADD MSTORE PUSH1 0x25 PUSH1 0x24 DUP3 ADD MSTORE PUSH32 0x416C6C2067726F77746820746F6B656E732068617665206265656E2077697468 PUSH1 0x44 DUP3 ADD MSTORE PUSH5 0x323930BBB7 PUSH1 0xD9 SHL PUSH1 0x64 DUP3 ADD MSTORE PUSH1 0x84 ADD PUSH2 0x7EF JUMP JUMPDEST PUSH4 0x1E13380 PUSH1 0x5 SLOAD PUSH2 0x1389 SWAP2 SWAP1 PUSH2 0x40EB JUMP JUMPDEST TIMESTAMP LT ISZERO PUSH2 0x13D8 JUMPI PUSH1 0x40 MLOAD PUSH3 0x461BCD PUSH1 0xE5 SHL DUP2 MSTORE PUSH1 0x20 PUSH1 0x4 DUP3 ADD MSTORE PUSH1 0x1F PUSH1 0x24 DUP3 ADD MSTORE PUSH32 0x43616E206F6E6C79207769746864726177206F6E636520706572207965617200 PUSH1 0x44 DUP3 ADD MSTORE PUSH1 0x64 ADD PUSH2 0x7EF JUMP JUMPDEST PUSH1 0x3 SLOAD PUSH11 0x6342FD08F00F6378000000 SWAP1 PUSH12 0x7C13BC4B2C133C560000000 SWAP1 PUSH2 0x1401 SWAP1 DUP4 SWAP1 PUSH2 0x40EB JUMP JUMPDEST GT ISZERO PUSH2 0x1423 JUMPI PUSH1 0x3 SLOAD PUSH2 0x1420 SWAP1 PUSH12 0x7C13BC4B2C133C560000000 PUSH2 0x4104 JUMP JUMPDEST SWAP1 POP JUMPDEST DUP1 PUSH1 0x3 PUSH1 0x0 DUP3 DUP3 SLOAD PUSH2 0x1435 SWAP2 SWAP1 PUSH2 0x40EB JUMP JUMPDEST SWAP3 POP POP DUP2 SWAP1 SSTORE POP DUP1 PUSH1 0x4 PUSH1 0x0 DUP3 DUP3 SLOAD PUSH2 0x144E SWAP2 SWAP1 PUSH2 0x4104 JUMP JUMPDEST SWAP1 SWAP2 SSTORE POP POP TIMESTAMP PUSH1 0x5 SSTORE PUSH1 0x1 SLOAD PUSH1 0x1 PUSH1 0x1 PUSH1 0xA0 SHL SUB AND PUSH4 0xA9059CBB PUSH2 0x1470 PUSH2 0x1C7A JUMP JUMPDEST PUSH1 0x40 MLOAD PUSH1 0x1 PUSH1 0x1 PUSH1 0xE0 SHL SUB NOT PUSH1 0xE0 DUP5 SWAP1 SHL AND DUP2 MSTORE PUSH1 0x1 PUSH1 0x1 PUSH1 0xA0 SHL SUB SWAP1 SWAP2 AND PUSH1 0x4 DUP3 ADD MSTORE PUSH1 0x24 DUP2 ADD DUP5 SWAP1 MSTORE PUSH1 0x44 ADD PUSH1 0x20 PUSH1 0x40 MLOAD DUP1 DUP4 SUB DUP2 PUSH1 0x0 DUP8 GAS CALL ISZERO DUP1 ISZERO PUSH2 0x14BD JUMPI RETURNDATASIZE PUSH1 0x0 DUP1 RETURNDATACOPY RETURNDATASIZE PUSH1 0x0 REVERT JUMPDEST POP POP POP POP PUSH1 0x40 MLOAD RETURNDATASIZE PUSH1 0x1F NOT PUSH1 0x1F DUP3 ADD AND DUP3 ADD DUP1 PUSH1 0x40 MSTORE POP DUP2 ADD SWAP1 PUSH2 0x14E1 SWAP2 SWAP1 PUSH2 0x4117 JUMP JUMPDEST PUSH2 0x152D JUMPI PUSH1 0x40 MLOAD PUSH3 0x461BCD PUSH1 0xE5 SHL DUP2 MSTORE PUSH1 0x20 PUSH1 0x4 DUP3 ADD DUP2 SWAP1 MSTORE PUSH1 0x24 DUP3 ADD MSTORE PUSH32 0x4661696C656420746F207472616E736665722067726F77746820746F6B656E73 PUSH1 0x44 DUP3 ADD MSTORE PUSH1 0x64 ADD PUSH2 0x7EF JUMP JUMPDEST PUSH1 0x40 DUP1 MLOAD CALLER DUP2 MSTORE PUSH1 0x20 DUP2 ADD DUP4 SWAP1 MSTORE PUSH32 0xD0A5227BFA49CF178A8F7A87B90318EF05FC8330F469E0DCCBE075784F426DBF SWAP2 ADD PUSH1 0x40 MLOAD DUP1 SWAP2 SUB SWAP1 LOG1 POP PUSH2 0x121F PUSH1 0x1 PUSH1 0x0 DUP1 MLOAD PUSH1 0x20 PUSH2 0x46DA DUP4 CODECOPY DUP2 MLOAD SWAP2 MSTORE SSTORE JUMP JUMPDEST PUSH1 0x0 DUP1 MLOAD PUSH1 0x20 PUSH2 0x46BA DUP4 CODECOPY DUP2 MLOAD SWAP2 MSTORE SLOAD PUSH1 0xFF AND SWAP1 JUMP JUMPDEST PUSH2 0x159C PUSH2 0x3AB9 JUMP JUMPDEST PUSH1 0x1 PUSH1 0x1 PUSH1 0xA0 SHL SUB DUP2 AND PUSH2 0x160A JUMPI PUSH1 0x40 MLOAD PUSH3 0x461BCD PUSH1 0xE5 SHL DUP2 MSTORE PUSH1 0x20 PUSH1 0x4 DUP3 ADD MSTORE PUSH1 0x2F PUSH1 0x24 DUP3 ADD MSTORE PUSH32 0x5768697465206C697374657220616464726573732063616E6E6F742062652074 PUSH1 0x44 DUP3 ADD MSTORE PUSH15 0x6865207A65726F2061646472657373 PUSH1 0x88 SHL PUSH1 0x64 DUP3 ADD MSTORE PUSH1 0x84 ADD PUSH2 0x7EF JUMP JUMPDEST PUSH1 0x12 DUP1 SLOAD PUSH2 0x100 PUSH1 0x1 PUSH1 0xA8 SHL SUB NOT AND PUSH2 0x100 PUSH1 0x1 PUSH1 0x1 PUSH1 0xA0 SHL SUB DUP5 AND SWAP1 DUP2 MUL SWAP2 SWAP1 SWAP2 OR SWAP1 SWAP2 SSTORE PUSH1 0x40 MLOAD SWAP1 DUP2 MSTORE PUSH32 0x6BDAB87CEBF48EC7916084AB67BB3D8A596E0D1E3B5572596393F266D9EA3057 SWAP1 PUSH1 0x20 ADD PUSH2 0x8AC JUMP JUMPDEST PUSH2 0x1668 PUSH2 0x3AB9 JUMP JUMPDEST PUSH1 0x1 PUSH1 0x1 PUSH1 0xA0 SHL SUB DUP2 AND PUSH2 0x16D9 JUMPI PUSH1 0x40 MLOAD PUSH3 0x461BCD PUSH1 0xE5 SHL DUP2 MSTORE PUSH1 0x20 PUSH1 0x4 DUP3 ADD MSTORE PUSH1 0x32 PUSH1 0x24 DUP3 ADD MSTORE PUSH32 0x52657761726473207570646174657220616464726573732063616E6E6F742062 PUSH1 0x44 DUP3 ADD MSTORE PUSH18 0x6520746865207A65726F2061646472657373 PUSH1 0x70 SHL PUSH1 0x64 DUP3 ADD MSTORE PUSH1 0x84 ADD PUSH2 0x7EF JUMP JUMPDEST PUSH1 0x13 DUP1 SLOAD PUSH1 0x1 PUSH1 0x1 PUSH1 0xA0 SHL SUB NOT AND PUSH1 0x1 PUSH1 0x1 PUSH1 0xA0 SHL SUB DUP4 AND SWAP1 DUP2 OR SWAP1 SWAP2 SSTORE PUSH1 0x40 MLOAD SWAP1 DUP2 MSTORE PUSH32 0x7946FB32EB39758C8854BA2C1D63C5ED4C7A95CDB748090128FA33A803A29894 SWAP1 PUSH1 0x20 ADD PUSH2 0x8AC JUMP JUMPDEST PUSH2 0x172F PUSH2 0x3AB9 JUMP JUMPDEST PUSH2 0x121F PUSH1 0x0 PUSH2 0x3B91 JUMP JUMPDEST PUSH2 0x1741 PUSH2 0x3AB9 JUMP JUMPDEST PUSH2 0x121F PUSH2 0x3C02 JUMP JUMPDEST PUSH2 0x1751 PUSH2 0x1C7A JUMP JUMPDEST PUSH1 0x1 PUSH1 0x1 PUSH1 0xA0 SHL SUB AND CALLER PUSH1 0x1 PUSH1 0x1 PUSH1 0xA0 SHL SUB AND EQ DUP1 PUSH2 0x177F JUMPI POP PUSH1 0x12 SLOAD PUSH2 0x100 SWAP1 DIV PUSH1 0x1 PUSH1 0x1 PUSH1 0xA0 SHL SUB AND CALLER EQ JUMPDEST PUSH2 0x179B JUMPI PUSH1 0x40 MLOAD PUSH3 0x461BCD PUSH1 0xE5 SHL DUP2 MSTORE PUSH1 0x4 ADD PUSH2 0x7EF SWAP1 PUSH2 0x41B4 JUMP JUMPDEST PUSH1 0x40 DUP1 MLOAD CALLER DUP2 MSTORE ORIGIN PUSH1 0x20 DUP3 ADD MSTORE PUSH1 0x0 DUP1 MLOAD PUSH1 0x20 PUSH2 0x46FA DUP4 CODECOPY DUP2 MLOAD SWAP2 MSTORE SWAP2 ADD PUSH1 0x40 MLOAD DUP1 SWAP2 SUB SWAP1 LOG1 PUSH1 0x1 PUSH1 0x1 PUSH1 0xA0 SHL SUB DUP4 AND PUSH1 0x0 SWAP1 DUP2 MSTORE PUSH1 0x14 PUSH1 0x20 MSTORE PUSH1 0x40 SWAP1 KECCAK256 PUSH1 0x9 ADD SLOAD PUSH2 0x100 SWAP1 DIV PUSH1 0xFF AND ISZERO PUSH2 0x1832 JUMPI PUSH1 0x40 MLOAD PUSH3 0x461BCD PUSH1 0xE5 SHL DUP2 MSTORE PUSH1 0x20 PUSH1 0x4 DUP3 ADD MSTORE PUSH1 0x1D PUSH1 0x24 DUP3 ADD MSTORE PUSH32 0x57616C6C657420697320616C72656164792077686974656C6973746564000000 PUSH1 0x44 DUP3 ADD MSTORE PUSH1 0x64 ADD PUSH2 0x7EF JUMP JUMPDEST PUSH1 0x1 PUSH1 0x1 PUSH1 0xA0 SHL SUB DUP4 AND PUSH1 0x0 SWAP1 DUP2 MSTORE PUSH1 0x14 PUSH1 0x20 MSTORE PUSH1 0x40 SWAP1 KECCAK256 PUSH1 0x9 ADD SLOAD PUSH3 0x10000 SWAP1 DIV PUSH1 0xFF AND ISZERO PUSH2 0x1874 JUMPI PUSH1 0x40 MLOAD PUSH3 0x461BCD PUSH1 0xE5 SHL DUP2 MSTORE PUSH1 0x4 ADD PUSH2 0x7EF SWAP1 PUSH2 0x3FEA JUMP JUMPDEST PUSH1 0x1 PUSH1 0x1 PUSH1 0xA0 SHL SUB DUP4 AND PUSH1 0x0 SWAP1 DUP2 MSTORE PUSH1 0x14 PUSH1 0x20 MSTORE PUSH1 0x40 SWAP1 KECCAK256 PUSH1 0x5 ADD SLOAD ISZERO PUSH2 0x18F4 JUMPI PUSH1 0x40 MLOAD PUSH3 0x461BCD PUSH1 0xE5 SHL DUP2 MSTORE PUSH1 0x20 PUSH1 0x4 DUP3 ADD MSTORE PUSH1 0x2E PUSH1 0x24 DUP3 ADD MSTORE PUSH32 0x57616C6C65742068617320616C7265616479206265656E20616464656420746F PUSH1 0x44 DUP3 ADD MSTORE PUSH14 0x81D1A19481DDA1A5D195B1A5CDD PUSH1 0x92 SHL PUSH1 0x64 DUP3 ADD MSTORE PUSH1 0x84 ADD PUSH2 0x7EF JUMP JUMPDEST PUSH1 0x1 PUSH1 0x1 PUSH1 0xA0 SHL SUB DUP4 AND PUSH1 0x0 SWAP1 DUP2 MSTORE PUSH1 0x14 PUSH1 0x20 MSTORE PUSH1 0x40 DUP2 KECCAK256 PUSH1 0x9 DUP2 ADD DUP1 SLOAD DUP6 ISZERO DUP1 ISZERO PUSH3 0xFFFFFF NOT SWAP1 SWAP3 AND SWAP2 SWAP1 SWAP2 OR PUSH2 0x100 OR SWAP1 SWAP2 SSTORE TIMESTAMP PUSH1 0x5 DUP4 ADD SSTORE PUSH1 0x6 DUP3 ADD DUP1 SLOAD PUSH1 0xFF NOT AND SWAP1 SSTORE PUSH1 0x7 DUP3 ADD DUP4 SWAP1 SSTORE PUSH1 0x3 DUP3 ADD DUP4 SWAP1 SSTORE PUSH1 0x2 DUP3 ADD DUP4 SWAP1 SSTORE PUSH1 0x4 SWAP1 SWAP2 ADD SWAP2 SWAP1 SWAP2 SSTORE PUSH2 0x1AA8 JUMPI PUSH1 0x0 DUP2 GT PUSH2 0x19E1 JUMPI PUSH1 0x40 MLOAD PUSH3 0x461BCD PUSH1 0xE5 SHL DUP2 MSTORE PUSH1 0x20 PUSH1 0x4 DUP3 ADD MSTORE PUSH1 0x44 PUSH1 0x24 DUP3 ADD DUP2 SWAP1 MSTORE PUSH32 0x5465616D2077616C6C657473206D757374206265206164646564207769746820 SWAP1 DUP3 ADD MSTORE PUSH32 0x61206879617820686F6C64696E6720616D6F756E742067726561746572207468 PUSH1 0x64 DUP3 ADD MSTORE PUSH4 0x616E203 PUSH1 0xE4 SHL PUSH1 0x84 DUP3 ADD MSTORE PUSH1 0xA4 ADD PUSH2 0x7EF JUMP JUMPDEST PUSH12 0x4D8C55AEFB8C05B5C000000 DUP2 GT ISZERO PUSH2 0x1A81 JUMPI PUSH1 0x40 MLOAD PUSH3 0x461BCD PUSH1 0xE5 SHL DUP2 MSTORE PUSH1 0x20 PUSH1 0x4 DUP3 ADD MSTORE PUSH1 0x55 PUSH1 0x24 DUP3 ADD MSTORE PUSH32 0x5465616D2077616C6C657473206D757374206265206164646564207769746820 PUSH1 0x44 DUP3 ADD MSTORE PUSH32 0x61206879617820686F6C64696E6720616D6F756E74206C657373207468616E20 PUSH1 0x64 DUP3 ADD MSTORE PUSH21 0x74686520746F74616C207465616D20746F6B656E73 PUSH1 0x58 SHL PUSH1 0x84 DUP3 ADD MSTORE PUSH1 0xA4 ADD PUSH2 0x7EF JUMP JUMPDEST PUSH1 0x1 PUSH1 0x1 PUSH1 0xA0 SHL SUB DUP4 AND PUSH1 0x0 SWAP1 DUP2 MSTORE PUSH1 0x14 PUSH1 0x20 MSTORE PUSH1 0x40 SWAP1 KECCAK256 PUSH1 0x1 DUP2 ADD DUP3 SWAP1 SSTORE DUP2 SWAP1 SSTORE PUSH2 0x1B47 JUMP JUMPDEST DUP1 ISZERO PUSH2 0x1B26 JUMPI PUSH1 0x40 MLOAD PUSH3 0x461BCD PUSH1 0xE5 SHL DUP2 MSTORE PUSH1 0x20 PUSH1 0x4 DUP3 ADD MSTORE PUSH1 0x41 PUSH1 0x24 DUP3 ADD MSTORE PUSH32 0x4E6F6E207465616D2077616C6C6574732063616E206F6E6C7920626520616464 PUSH1 0x44 DUP3 ADD MSTORE PUSH32 0x6564207769746820686F6C64696E6720616D6F756E7420657175616C20746F20 PUSH1 0x64 DUP3 ADD MSTORE PUSH1 0x3 PUSH1 0xFC SHL PUSH1 0x84 DUP3 ADD MSTORE PUSH1 0xA4 ADD PUSH2 0x7EF JUMP JUMPDEST PUSH1 0x1 PUSH1 0x1 PUSH1 0xA0 SHL SUB DUP4 AND PUSH1 0x0 SWAP1 DUP2 MSTORE PUSH1 0x14 PUSH1 0x20 MSTORE PUSH1 0x40 DUP2 KECCAK256 PUSH1 0x1 DUP2 ADD DUP3 SWAP1 SSTORE SSTORE JUMPDEST PUSH1 0x40 DUP1 MLOAD CALLER DUP2 MSTORE PUSH1 0x1 PUSH1 0x1 PUSH1 0xA0 SHL SUB DUP6 AND PUSH1 0x20 DUP3 ADD MSTORE DUP4 ISZERO ISZERO DUP2 DUP4 ADD MSTORE PUSH1 0x60 DUP2 ADD DUP4 SWAP1 MSTORE SWAP1 MLOAD PUSH32 0xC294E522BA20B0699FE578649971CEFDFDC8D0E330DB37D0437849F38B3960E6 SWAP2 DUP2 SWAP1 SUB PUSH1 0x80 ADD SWAP1 LOG1 POP POP POP JUMP JUMPDEST PUSH1 0xC SLOAD PUSH1 0x0 SWAP1 PUSH1 0xFF AND PUSH2 0x1C01 JUMPI PUSH1 0x40 MLOAD PUSH3 0x461BCD PUSH1 0xE5 SHL DUP2 MSTORE PUSH1 0x20 PUSH1 0x4 DUP3 ADD MSTORE PUSH1 0x27 PUSH1 0x24 DUP3 ADD MSTORE PUSH32 0x5465616D20746F6B656E732066756E64696E6720686173206E6F742073746172 PUSH1 0x44 DUP3 ADD MSTORE PUSH7 0x1D1959081E595D PUSH1 0xCA SHL PUSH1 0x64 DUP3 ADD MSTORE PUSH1 0x84 ADD PUSH2 0x7EF JUMP JUMPDEST PUSH1 0x0 PUSH1 0xB SLOAD TIMESTAMP PUSH2 0x1C11 SWAP2 SWAP1 PUSH2 0x4104 JUMP JUMPDEST SWAP1 POP PUSH4 0xF099C00 DUP2 LT PUSH2 0x1C26 JUMPI PUSH1 0x5 SWAP2 POP POP SWAP1 JUMP JUMPDEST PUSH4 0xD286880 DUP2 LT PUSH2 0x1C39 JUMPI PUSH1 0x4 SWAP2 POP POP SWAP1 JUMP JUMPDEST PUSH4 0xB473500 DUP2 LT PUSH2 0x1C4C JUMPI PUSH1 0x3 SWAP2 POP POP SWAP1 JUMP JUMPDEST PUSH4 0x9660180 DUP2 LT PUSH2 0x1C5F JUMPI PUSH1 0x2 SWAP2 POP POP SWAP1 JUMP JUMPDEST PUSH4 0x784CE00 DUP2 LT PUSH2 0x1C72 JUMPI PUSH1 0x1 SWAP2 POP POP SWAP1 JUMP JUMPDEST PUSH1 0x0 SWAP2 POP POP SWAP1 JUMP JUMPDEST PUSH32 0x9016D09D72D40FDAE2FD8CEAC6B6234C7706214FD39C1CD1E609A0528C199300 SLOAD PUSH1 0x1 PUSH1 0x1 PUSH1 0xA0 SHL SUB AND SWAP1 JUMP JUMPDEST CALLER PUSH1 0x0 DUP2 DUP2 MSTORE PUSH1 0x14 PUSH1 0x20 MSTORE PUSH1 0x40 SWAP1 KECCAK256 PUSH1 0x9 ADD SLOAD PUSH1 0xFF PUSH2 0x100 SWAP1 SWAP2 DIV AND ISZERO ISZERO PUSH1 0x1 EQ PUSH2 0x1CE5 JUMPI PUSH1 0x40 MLOAD PUSH3 0x461BCD PUSH1 0xE5 SHL DUP2 MSTORE PUSH1 0x4 ADD PUSH2 0x7EF SWAP1 PUSH2 0x3F87 JUMP JUMPDEST CALLER PUSH1 0x0 DUP2 DUP2 MSTORE PUSH1 0x14 PUSH1 0x20 MSTORE PUSH1 0x40 SWAP1 KECCAK256 PUSH1 0x9 ADD SLOAD PUSH3 0x10000 SWAP1 DIV PUSH1 0xFF AND ISZERO PUSH2 0x1D1E JUMPI PUSH1 0x40 MLOAD PUSH3 0x461BCD PUSH1 0xE5 SHL DUP2 MSTORE PUSH1 0x4 ADD PUSH2 0x7EF SWAP1 PUSH2 0x3FEA JUMP JUMPDEST PUSH2 0x1D26 PUSH2 0x3AEB JUMP JUMPDEST PUSH2 0x1D2E PUSH2 0x157E JUMP JUMPDEST ISZERO PUSH2 0x1D4B JUMPI PUSH1 0x40 MLOAD PUSH3 0x461BCD PUSH1 0xE5 SHL DUP2 MSTORE PUSH1 0x4 ADD PUSH2 0x7EF SWAP1 PUSH2 0x3FBE JUMP JUMPDEST CALLER PUSH1 0x0 SWAP1 DUP2 MSTORE PUSH1 0x14 PUSH1 0x20 MSTORE PUSH1 0x40 SWAP1 KECCAK256 PUSH1 0x9 ADD SLOAD PUSH1 0xFF AND ISZERO ISZERO PUSH1 0x1 EQ PUSH2 0x1DD8 JUMPI PUSH1 0x40 MLOAD PUSH3 0x461BCD PUSH1 0xE5 SHL DUP2 MSTORE PUSH1 0x20 PUSH1 0x4 DUP3 ADD MSTORE PUSH1 0x39 PUSH1 0x24 DUP3 ADD MSTORE PUSH32 0x4F6E6C79207465616D2077616C6C6574732063616E2077697468647261772074 PUSH1 0x44 DUP3 ADD MSTORE PUSH32 0x6F6B656E73207573696E6720746869732066756E6374696F6E00000000000000 PUSH1 0x64 DUP3 ADD MSTORE PUSH1 0x84 ADD PUSH2 0x7EF JUMP JUMPDEST PUSH1 0xC SLOAD PUSH1 0xFF AND PUSH2 0x1DFA JUMPI PUSH1 0x40 MLOAD PUSH3 0x461BCD PUSH1 0xE5 SHL DUP2 MSTORE PUSH1 0x4 ADD PUSH2 0x7EF SWAP1 PUSH2 0x4211 JUMP JUMPDEST CALLER PUSH1 0x0 SWAP1 DUP2 MSTORE PUSH1 0x14 PUSH1 0x20 MSTORE PUSH1 0x40 SWAP1 KECCAK256 PUSH1 0x5 ADD SLOAD PUSH2 0x1E1C SWAP1 PUSH4 0x784CE00 SWAP1 PUSH2 0x40EB JUMP JUMPDEST TIMESTAMP LT ISZERO PUSH2 0x1E9B JUMPI PUSH1 0x40 MLOAD PUSH3 0x461BCD PUSH1 0xE5 SHL DUP2 MSTORE PUSH1 0x20 PUSH1 0x4 DUP3 ADD MSTORE PUSH1 0x41 PUSH1 0x24 DUP3 ADD MSTORE PUSH32 0x43616E6E6F74207769746864726177206265666F726520342079656172732061 PUSH1 0x44 DUP3 ADD MSTORE PUSH32 0x66746572206265696E6720616464656420746F207468652077686974656C6973 PUSH1 0x64 DUP3 ADD MSTORE PUSH1 0x1D PUSH1 0xFA SHL PUSH1 0x84 DUP3 ADD MSTORE PUSH1 0xA4 ADD PUSH2 0x7EF JUMP JUMPDEST PUSH12 0x4D8C55AEFB8C05B5C000000 PUSH1 0x9 SLOAD LT PUSH2 0x1F04 JUMPI PUSH1 0x40 MLOAD PUSH3 0x461BCD PUSH1 0xE5 SHL DUP2 MSTORE PUSH1 0x20 PUSH1 0x4 DUP3 ADD MSTORE PUSH1 0x23 PUSH1 0x24 DUP3 ADD MSTORE PUSH32 0x416C6C207465616D20746F6B656E732068617665206265656E20776974686472 PUSH1 0x44 DUP3 ADD MSTORE PUSH3 0x30BBB7 PUSH1 0xE9 SHL PUSH1 0x64 DUP3 ADD MSTORE PUSH1 0x84 ADD PUSH2 0x7EF JUMP JUMPDEST CALLER PUSH1 0x0 SWAP1 DUP2 MSTORE PUSH1 0x14 PUSH1 0x20 MSTORE PUSH1 0x40 SWAP1 KECCAK256 SLOAD PUSH2 0x1F6B JUMPI PUSH1 0x40 MLOAD PUSH3 0x461BCD PUSH1 0xE5 SHL DUP2 MSTORE PUSH1 0x20 PUSH1 0x4 DUP3 ADD MSTORE PUSH1 0x22 PUSH1 0x24 DUP3 ADD MSTORE PUSH32 0x4E6F206879617820686F6C64696E6720616D6F756E7420746F20776974686472 PUSH1 0x44 DUP3 ADD MSTORE PUSH2 0x6177 PUSH1 0xF0 SHL PUSH1 0x64 DUP3 ADD MSTORE PUSH1 0x84 ADD PUSH2 0x7EF JUMP JUMPDEST PUSH2 0x1F73 PUSH2 0x1B9C JUMP JUMPDEST CALLER PUSH1 0x0 SWAP1 DUP2 MSTORE PUSH1 0x14 PUSH1 0x20 MSTORE PUSH1 0x40 SWAP1 KECCAK256 PUSH1 0x6 ADD SLOAD PUSH1 0xFF SWAP2 DUP3 AND SWAP2 AND LT PUSH2 0x1FEE JUMPI PUSH1 0x40 MLOAD PUSH3 0x461BCD PUSH1 0xE5 SHL DUP2 MSTORE PUSH1 0x20 PUSH1 0x4 DUP3 ADD MSTORE PUSH1 0x2B PUSH1 0x24 DUP3 ADD MSTORE PUSH32 0x43616E206F6E6C79207769746864726177207465616D20746F6B656E73206F6E PUSH1 0x44 DUP3 ADD MSTORE PUSH11 0x31B2903832B9103CB2B0B9 PUSH1 0xA9 SHL PUSH1 0x64 DUP3 ADD MSTORE PUSH1 0x84 ADD PUSH2 0x7EF JUMP JUMPDEST CALLER PUSH1 0x0 SWAP1 DUP2 MSTORE PUSH1 0x14 PUSH1 0x20 MSTORE PUSH1 0x40 DUP2 KECCAK256 PUSH1 0x1 ADD SLOAD PUSH2 0x200D SWAP1 PUSH1 0x5 SWAP1 PUSH2 0x4134 JUMP JUMPDEST SWAP1 POP PUSH12 0x4D8C55AEFB8C05B5C000000 DUP2 PUSH1 0x9 SLOAD PUSH2 0x202A SWAP2 SWAP1 PUSH2 0x40EB JUMP JUMPDEST GT ISZERO PUSH2 0x204C JUMPI PUSH1 0x9 SLOAD PUSH2 0x2049 SWAP1 PUSH12 0x4D8C55AEFB8C05B5C000000 PUSH2 0x4104 JUMP JUMPDEST SWAP1 POP JUMPDEST CALLER PUSH1 0x0 SWAP1 DUP2 MSTORE PUSH1 0x14 PUSH1 0x20 MSTORE PUSH1 0x40 DUP2 KECCAK256 DUP1 SLOAD DUP4 SWAP3 SWAP1 PUSH2 0x206B SWAP1 DUP5 SWAP1 PUSH2 0x4104 JUMP JUMPDEST SWAP3 POP POP DUP2 SWAP1 SSTORE POP DUP1 PUSH1 0x9 PUSH1 0x0 DUP3 DUP3 SLOAD PUSH2 0x2084 SWAP2 SWAP1 PUSH2 0x40EB JUMP JUMPDEST SWAP3 POP POP DUP2 SWAP1 SSTORE POP DUP1 PUSH1 0xA PUSH1 0x0 DUP3 DUP3 SLOAD PUSH2 0x209D SWAP2 SWAP1 PUSH2 0x4104 JUMP JUMPDEST SWAP1 SWAP2 SSTORE POP POP CALLER PUSH1 0x0 SWAP1 DUP2 MSTORE PUSH1 0x14 PUSH1 0x20 MSTORE PUSH1 0x40 DUP2 KECCAK256 PUSH1 0x6 ADD DUP1 SLOAD PUSH1 0xFF AND SWAP2 PUSH2 0x20C3 DUP4 PUSH2 0x426E JUMP JUMPDEST DUP3 SLOAD PUSH1 0xFF SWAP2 DUP3 AND PUSH2 0x100 SWAP4 SWAP1 SWAP4 EXP SWAP3 DUP4 MUL SWAP2 SWAP1 SWAP3 MUL NOT SWAP1 SWAP2 AND OR SWAP1 SSTORE POP PUSH1 0x1 SLOAD PUSH1 0x40 MLOAD PUSH4 0xA9059CBB PUSH1 0xE0 SHL DUP2 MSTORE CALLER PUSH1 0x4 DUP3 ADD MSTORE PUSH1 0x24 DUP2 ADD DUP4 SWAP1 MSTORE PUSH1 0x1 PUSH1 0x1 PUSH1 0xA0 SHL SUB SWAP1 SWAP2 AND SWAP1 PUSH4 0xA9059CBB SWAP1 PUSH1 0x44 ADD PUSH1 0x20 PUSH1 0x40 MLOAD DUP1 DUP4 SUB DUP2 PUSH1 0x0 DUP8 GAS CALL ISZERO DUP1 ISZERO PUSH2 0x2131 JUMPI RETURNDATASIZE PUSH1 0x0 DUP1 RETURNDATACOPY RETURNDATASIZE PUSH1 0x0 REVERT JUMPDEST POP POP POP POP PUSH1 0x40 MLOAD RETURNDATASIZE PUSH1 0x1F NOT PUSH1 0x1F DUP3 ADD AND DUP3 ADD DUP1 PUSH1 0x40 MSTORE POP DUP2 ADD SWAP1 PUSH2 0x2155 SWAP2 SWAP1 PUSH2 0x4117 JUMP JUMPDEST PUSH2 0x21A1 JUMPI PUSH1 0x40 MLOAD PUSH3 0x461BCD PUSH1 0xE5 SHL DUP2 MSTORE PUSH1 0x20 PUSH1 0x4 DUP3 ADD MSTORE PUSH1 0x1E PUSH1 0x24 DUP3 ADD MSTORE PUSH32 0x4661696C656420746F207472616E73666572207465616D20746F6B656E730000 PUSH1 0x44 DUP3 ADD MSTORE PUSH1 0x64 ADD PUSH2 0x7EF JUMP JUMPDEST PUSH1 0x40 DUP1 MLOAD CALLER DUP2 MSTORE PUSH1 0x20 DUP2 ADD DUP4 SWAP1 MSTORE PUSH32 0x1E63F692F0A30C3957AC289D6A44616BD119F5502EBA5AE440F3158CC2C2D291 SWAP2 ADD PUSH1 0x40 MLOAD DUP1 SWAP2 SUB SWAP1 LOG1 POP PUSH2 0x120B PUSH1 0x1 PUSH1 0x0 DUP1 MLOAD PUSH1 0x20 PUSH2 0x46DA DUP4 CODECOPY DUP2 MLOAD SWAP2 MSTORE SSTORE JUMP JUMPDEST PUSH2 0x21FA PUSH2 0x3AB9 JUMP JUMPDEST PUSH1 0x1 PUSH1 0x1 PUSH1 0xA0 SHL SUB DUP2 AND PUSH2 0x2266 JUMPI PUSH1 0x40 MLOAD PUSH3 0x461BCD PUSH1 0xE5 SHL DUP2 MSTORE PUSH1 0x20 PUSH1 0x4 DUP3 ADD MSTORE PUSH1 0x2D PUSH1 0x24 DUP3 ADD MSTORE PUSH32 0x4879617820746F6B656E20616464726573732063616E6E6F7420626520746865 PUSH1 0x44 DUP3 ADD MSTORE PUSH13 0x207A65726F2061646472657373 PUSH1 0x98 SHL PUSH1 0x64 DUP3 ADD MSTORE PUSH1 0x84 ADD PUSH2 0x7EF JUMP JUMPDEST PUSH1 0x40 MLOAD PUSH4 0x90B282B PUSH1 0xE3 SHL PUSH1 0x20 DUP3 ADD MSTORE DUP2 SWAP1 PUSH1 0x24 ADD PUSH1 0x40 MLOAD PUSH1 0x20 DUP2 DUP4 SUB SUB DUP2 MSTORE SWAP1 PUSH1 0x40 MSTORE DUP1 MLOAD SWAP1 PUSH1 0x20 ADD KECCAK256 DUP2 PUSH1 0x1 PUSH1 0x1 PUSH1 0xA0 SHL SUB AND PUSH4 0x95D89B41 PUSH1 0x40 MLOAD DUP2 PUSH4 0xFFFFFFFF AND PUSH1 0xE0 SHL DUP2 MSTORE PUSH1 0x4 ADD PUSH1 0x0 PUSH1 0x40 MLOAD DUP1 DUP4 SUB DUP2 DUP7 GAS STATICCALL ISZERO DUP1 ISZERO PUSH2 0x22CF JUMPI RETURNDATASIZE PUSH1 0x0 DUP1 RETURNDATACOPY RETURNDATASIZE PUSH1 0x0 REVERT JUMPDEST POP POP POP POP PUSH1 0x40 MLOAD RETURNDATASIZE PUSH1 0x0 DUP3 RETURNDATACOPY PUSH1 0x1F RETURNDATASIZE SWAP1 DUP2 ADD PUSH1 0x1F NOT AND DUP3 ADD PUSH1 0x40 MSTORE PUSH2 0x22F7 SWAP2 SWAP1 DUP2 ADD SWAP1 PUSH2 0x42F4 JUMP JUMPDEST PUSH1 0x40 MLOAD PUSH1 0x20 ADD PUSH2 0x2307 SWAP2 SWAP1 PUSH2 0x438C JUMP JUMPDEST PUSH1 0x40 MLOAD PUSH1 0x20 DUP2 DUP4 SUB SUB DUP2 MSTORE SWAP1 PUSH1 0x40 MSTORE DUP1 MLOAD SWAP1 PUSH1 0x20 ADD KECCAK256 EQ PUSH2 0x2383 JUMPI PUSH1 0x40 MLOAD PUSH3 0x461BCD PUSH1 0xE5 SHL DUP2 MSTORE PUSH1 0x20 PUSH1 0x4 DUP3 ADD MSTORE PUSH1 0x30 PUSH1 0x24 DUP3 ADD MSTORE PUSH32 0x546F6B656E2061646472657373206D75737420626520612076616C6964204859 PUSH1 0x44 DUP3 ADD MSTORE PUSH16 0x415820746F6B656E2061646472657373 PUSH1 0x80 SHL PUSH1 0x64 DUP3 ADD MSTORE PUSH1 0x84 ADD PUSH2 0x7EF JUMP JUMPDEST PUSH1 0x0 DUP1 SLOAD PUSH1 0x1 PUSH1 0x1 PUSH1 0xA0 SHL SUB DUP5 AND PUSH1 0x1 PUSH1 0x1 PUSH1 0xA0 SHL SUB NOT SWAP2 DUP3 AND DUP2 OR SWAP1 SWAP3 SSTORE PUSH1 0x1 DUP1 SLOAD SWAP1 SWAP2 AND DUP3 OR SWAP1 SSTORE PUSH1 0x40 MLOAD SWAP1 DUP2 MSTORE PUSH32 0x6B4289497C1EE1251F23FFEC949802440DAC6FC64D4BD0B4EFB97A5530058295 SWAP1 PUSH1 0x20 ADD JUMPDEST PUSH1 0x40 MLOAD DUP1 SWAP2 SUB SWAP1 LOG1 POP POP JUMP JUMPDEST PUSH2 0x23ED PUSH2 0x1C7A JUMP JUMPDEST PUSH1 0x1 PUSH1 0x1 PUSH1 0xA0 SHL SUB AND CALLER PUSH1 0x1 PUSH1 0x1 PUSH1 0xA0 SHL SUB AND EQ DUP1 PUSH2 0x241B JUMPI POP PUSH1 0x12 SLOAD PUSH2 0x100 SWAP1 DIV PUSH1 0x1 PUSH1 0x1 PUSH1 0xA0 SHL SUB AND CALLER EQ JUMPDEST PUSH2 0x2437 JUMPI PUSH1 0x40 MLOAD PUSH3 0x461BCD PUSH1 0xE5 SHL DUP2 MSTORE PUSH1 0x4 ADD PUSH2 0x7EF SWAP1 PUSH2 0x41B4 JUMP JUMPDEST PUSH1 0x40 DUP1 MLOAD CALLER DUP2 MSTORE ORIGIN PUSH1 0x20 DUP3 ADD MSTORE PUSH1 0x0 DUP1 MLOAD PUSH1 0x20 PUSH2 0x46FA DUP4 CODECOPY DUP2 MLOAD SWAP2 MSTORE SWAP2 ADD PUSH1 0x40 MLOAD DUP1 SWAP2 SUB SWAP1 LOG1 PUSH1 0x1 PUSH1 0x1 PUSH1 0xA0 SHL SUB DUP3 AND PUSH1 0x0 SWAP1 DUP2 MSTORE PUSH1 0x14 PUSH1 0x20 MSTORE PUSH1 0x40 SWAP1 KECCAK256 PUSH1 0x9 ADD SLOAD DUP2 ISZERO ISZERO PUSH3 0x10000 SWAP1 SWAP2 DIV PUSH1 0xFF AND ISZERO ISZERO SUB PUSH2 0x24A5 JUMPI PUSH1 0x40 MLOAD PUSH3 0x461BCD PUSH1 0xE5 SHL DUP2 MSTORE PUSH1 0x4 ADD PUSH2 0x7EF SWAP1 PUSH2 0x43A8 JUMP JUMPDEST PUSH1 0x1 PUSH1 0x1 PUSH1 0xA0 SHL SUB DUP3 AND PUSH1 0x0 DUP2 DUP2 MSTORE PUSH1 0x14 PUSH1 0x20 SWAP1 DUP2 MSTORE PUSH1 0x40 SWAP2 DUP3 SWAP1 KECCAK256 PUSH1 0x9 ADD DUP1 SLOAD PUSH3 0xFF0000 NOT AND PUSH3 0x10000 DUP7 ISZERO ISZERO SWAP1 DUP2 MUL SWAP2 SWAP1 SWAP2 OR SWAP1 SWAP2 SSTORE DUP3 MLOAD CALLER DUP2 MSTORE SWAP2 DUP3 ADD SWAP4 SWAP1 SWAP4 MSTORE SWAP1 DUP2 ADD SWAP2 SWAP1 SWAP2 MSTORE PUSH32 0x89A9C56967D4535D54C90BFFD7CBD09F6D2A4C8E26B9E7F033F199D144E12B4E SWAP1 PUSH1 0x60 ADD PUSH2 0x23D9 JUMP JUMPDEST PUSH2 0x2522 PUSH2 0x1C7A JUMP JUMPDEST PUSH1 0x1 PUSH1 0x1 PUSH1 0xA0 SHL SUB AND CALLER PUSH1 0x1 PUSH1 0x1 PUSH1 0xA0 SHL SUB AND EQ DUP1 PUSH2 0x2550 JUMPI POP PUSH1 0x12 SLOAD PUSH2 0x100 SWAP1 DIV PUSH1 0x1 PUSH1 0x1 PUSH1 0xA0 SHL SUB AND CALLER EQ JUMPDEST PUSH2 0x256C JUMPI PUSH1 0x40 MLOAD PUSH3 0x461BCD PUSH1 0xE5 SHL DUP2 MSTORE PUSH1 0x4 ADD PUSH2 0x7EF SWAP1 PUSH2 0x41B4 JUMP JUMPDEST PUSH1 0x40 DUP1 MLOAD CALLER DUP2 MSTORE ORIGIN PUSH1 0x20 DUP3 ADD MSTORE PUSH1 0x0 DUP1 MLOAD PUSH1 0x20 PUSH2 0x46FA DUP4 CODECOPY DUP2 MLOAD SWAP2 MSTORE SWAP2 ADD PUSH1 0x40 MLOAD DUP1 SWAP2 SUB SWAP1 LOG1 PUSH1 0x1 PUSH1 0x1 PUSH1 0xA0 SHL SUB DUP3 AND PUSH1 0x0 SWAP1 DUP2 MSTORE PUSH1 0x14 PUSH1 0x20 MSTORE PUSH1 0x40 SWAP1 KECCAK256 PUSH1 0x9 ADD SLOAD DUP2 ISZERO ISZERO PUSH2 0x100 SWAP1 SWAP2 DIV PUSH1 0xFF AND ISZERO ISZERO SUB PUSH2 0x25D9 JUMPI PUSH1 0x40 MLOAD PUSH3 0x461BCD PUSH1 0xE5 SHL DUP2 MSTORE PUSH1 0x4 ADD PUSH2 0x7EF SWAP1 PUSH2 0x43A8 JUMP JUMPDEST PUSH1 0x1 PUSH1 0x1 PUSH1 0xA0 SHL SUB DUP3 AND PUSH1 0x0 SWAP1 DUP2 MSTORE PUSH1 0x14 PUSH1 0x20 MSTORE PUSH1 0x40 DUP2 KECCAK256 PUSH1 0x5 ADD SLOAD SWAP1 SUB PUSH2 0x2656 JUMPI PUSH1 0x40 MLOAD PUSH3 0x461BCD PUSH1 0xE5 SHL DUP2 MSTORE PUSH1 0x20 PUSH1 0x4 DUP3 ADD MSTORE PUSH1 0x2A PUSH1 0x24 DUP3 ADD MSTORE PUSH32 0x57616C6C657420686173206E6F74206265656E20616464656420746F20746865 PUSH1 0x44 DUP3 ADD MSTORE PUSH10 0x81DDA1A5D195B1A5CDD PUSH1 0xB2 SHL PUSH1 0x64 DUP3 ADD MSTORE PUSH1 0x84 ADD PUSH2 0x7EF JUMP JUMPDEST PUSH1 0x1 PUSH1 0x1 PUSH1 0xA0 SHL SUB DUP3 AND PUSH1 0x0 DUP2 DUP2 MSTORE PUSH1 0x14 PUSH1 0x20 SWAP1 DUP2 MSTORE PUSH1 0x40 SWAP2 DUP3 SWAP1 KECCAK256 PUSH1 0x9 ADD DUP1 SLOAD PUSH2 0xFF00 NOT AND PUSH2 0x100 DUP7 ISZERO ISZERO SWAP1 DUP2 MUL SWAP2 SWAP1 SWAP2 OR SWAP1 SWAP2 SSTORE DUP3 MLOAD CALLER DUP2 MSTORE SWAP2 DUP3 ADD SWAP4 SWAP1 SWAP4 MSTORE SWAP1 DUP2 ADD SWAP2 SWAP1 SWAP2 MSTORE PUSH32 0x70BBEE4E66E3FD40F7DA099410CFD723ED4A0B4FEC11F6CC968E850DB827A88B SWAP1 PUSH1 0x60 ADD PUSH2 0x23D9 JUMP JUMPDEST PUSH32 0xF0C57E16840DF040F15088DC2F81FE391C3923BEC73E23A9662EFC9C229C6A00 DUP1 SLOAD PUSH1 0x1 PUSH1 0x40 SHL DUP2 DIV PUSH1 0xFF AND ISZERO SWAP1 PUSH8 0xFFFFFFFFFFFFFFFF AND PUSH1 0x0 DUP2 ISZERO DUP1 ISZERO PUSH2 0x270F JUMPI POP DUP3 JUMPDEST SWAP1 POP PUSH1 0x0 DUP3 PUSH8 0xFFFFFFFFFFFFFFFF AND PUSH1 0x1 EQ DUP1 ISZERO PUSH2 0x272C JUMPI POP ADDRESS EXTCODESIZE ISZERO JUMPDEST SWAP1 POP DUP2 ISZERO DUP1 ISZERO PUSH2 0x273A JUMPI POP DUP1 ISZERO JUMPDEST ISZERO PUSH2 0x2758 JUMPI PUSH1 0x40 MLOAD PUSH4 0xF92EE8A9 PUSH1 0xE0 SHL DUP2 MSTORE PUSH1 0x4 ADD PUSH1 0x40 MLOAD DUP1 SWAP2 SUB SWAP1 REVERT JUMPDEST DUP5 SLOAD PUSH8 0xFFFFFFFFFFFFFFFF NOT AND PUSH1 0x1 OR DUP6 SSTORE DUP4 ISZERO PUSH2 0x2782 JUMPI DUP5 SLOAD PUSH1 0xFF PUSH1 0x40 SHL NOT AND PUSH1 0x1 PUSH1 0x40 SHL OR DUP6 SSTORE JUMPDEST PUSH2 0x278B CALLER PUSH2 0x3C4B JUMP JUMPDEST PUSH2 0x2793 PUSH2 0x3C5C JUMP JUMPDEST PUSH2 0x279B PUSH2 0x3C6C JUMP JUMPDEST PUSH1 0x0 DUP1 SLOAD PUSH1 0x1 PUSH1 0x1 PUSH1 0xA0 SHL SUB NOT SWAP1 DUP2 AND PUSH1 0x1 PUSH1 0x1 PUSH1 0xA0 SHL SUB DUP10 AND SWAP1 DUP2 OR DUP4 SSTORE PUSH1 0x1 DUP1 SLOAD SWAP1 SWAP3 AND DUP2 OR SWAP1 SWAP2 SSTORE PUSH1 0x13 DUP1 SLOAD PUSH1 0xFF PUSH1 0xA0 SHL NOT AND PUSH1 0x19 PUSH1 0xA2 SHL OR SWAP1 SSTORE PUSH1 0x40 DUP1 MLOAD PUSH4 0x90B282B PUSH1 0xE3 SHL PUSH1 0x20 DUP1 DUP4 ADD SWAP2 SWAP1 SWAP2 MSTORE DUP3 MLOAD DUP1 DUP4 SUB PUSH1 0x4 ADD DUP2 MSTORE PUSH1 0x24 DUP4 ADD DUP1 DUP6 MSTORE DUP2 MLOAD SWAP2 SWAP1 SWAP3 ADD KECCAK256 PUSH4 0x95D89B41 PUSH1 0xE0 SHL SWAP1 SWAP2 MSTORE SWAP2 MLOAD SWAP2 SWAP4 PUSH4 0x95D89B41 SWAP3 PUSH1 0x28 DUP1 DUP5 ADD SWAP4 DUP3 SWAP1 SUB ADD DUP2 DUP7 GAS STATICCALL ISZERO DUP1 ISZERO PUSH2 0x283A JUMPI RETURNDATASIZE PUSH1 0x0 DUP1 RETURNDATACOPY RETURNDATASIZE PUSH1 0x0 REVERT JUMPDEST POP POP POP POP PUSH1 0x40 MLOAD RETURNDATASIZE PUSH1 0x0 DUP3 RETURNDATACOPY PUSH1 0x1F RETURNDATASIZE SWAP1 DUP2 ADD PUSH1 0x1F NOT AND DUP3 ADD PUSH1 0x40 MSTORE PUSH2 0x2862 SWAP2 SWAP1 DUP2 ADD SWAP1 PUSH2 0x42F4 JUMP JUMPDEST PUSH1 0x40 MLOAD PUSH1 0x20 ADD PUSH2 0x2872 SWAP2 SWAP1 PUSH2 0x438C JUMP JUMPDEST PUSH1 0x40 MLOAD PUSH1 0x20 DUP2 DUP4 SUB SUB DUP2 MSTORE SWAP1 PUSH1 0x40 MSTORE DUP1 MLOAD SWAP1 PUSH1 0x20 ADD KECCAK256 EQ PUSH2 0x28D5 JUMPI PUSH1 0x40 MLOAD PUSH3 0x461BCD PUSH1 0xE5 SHL DUP2 MSTORE PUSH1 0x20 PUSH1 0x4 DUP3 ADD MSTORE PUSH1 0x1F PUSH1 0x24 DUP3 ADD MSTORE PUSH32 0x4879617820746F6B656E2061646472657373206973206E6F742076616C696400 PUSH1 0x44 DUP3 ADD MSTORE PUSH1 0x64 ADD PUSH2 0x7EF JUMP JUMPDEST PUSH1 0x0 PUSH1 0x2 DUP2 SWAP1 SSTORE PUSH1 0x8 DUP2 SWAP1 SSTORE PUSH1 0xD SSTORE DUP4 ISZERO PUSH2 0x292A JUMPI DUP5 SLOAD PUSH1 0xFF PUSH1 0x40 SHL NOT AND DUP6 SSTORE PUSH1 0x40 MLOAD PUSH1 0x1 DUP2 MSTORE PUSH32 0xC7F505B2F371AE2175EE4913F4499E1F2633A7B5936321EED1CDAEB6115181D2 SWAP1 PUSH1 0x20 ADD PUSH1 0x40 MLOAD DUP1 SWAP2 SUB SWAP1 LOG1 JUMPDEST POP POP POP POP POP POP JUMP JUMPDEST PUSH2 0x293A PUSH2 0x3AB9 JUMP JUMPDEST PUSH2 0x2942 PUSH2 0x3AEB JUMP JUMPDEST PUSH2 0x294A PUSH2 0x157E JUMP JUMPDEST ISZERO PUSH2 0x2967 JUMPI PUSH1 0x40 MLOAD PUSH3 0x461BCD PUSH1 0xE5 SHL DUP2 MSTORE PUSH1 0x4 ADD PUSH2 0x7EF SWAP1 PUSH2 0x3FBE JUMP JUMPDEST PUSH1 0x0 DUP3 PUSH1 0x2 DUP2 GT ISZERO PUSH2 0x297B JUMPI PUSH2 0x297B PUSH2 0x43F6 JUMP JUMPDEST EQ DUP1 PUSH2 0x2998 JUMPI POP PUSH1 0x1 DUP3 PUSH1 0x2 DUP2 GT ISZERO PUSH2 0x2996 JUMPI PUSH2 0x2996 PUSH2 0x43F6 JUMP JUMPDEST EQ JUMPDEST DUP1 PUSH2 0x29B4 JUMPI POP PUSH1 0x2 DUP3 PUSH1 0x2 DUP2 GT ISZERO PUSH2 0x29B2 JUMPI PUSH2 0x29B2 PUSH2 0x43F6 JUMP JUMPDEST EQ JUMPDEST PUSH2 0x29F7 JUMPI PUSH1 0x40 MLOAD PUSH3 0x461BCD PUSH1 0xE5 SHL DUP2 MSTORE PUSH1 0x20 PUSH1 0x4 DUP3 ADD MSTORE PUSH1 0x14 PUSH1 0x24 DUP3 ADD MSTORE PUSH20 0x496E76616C69642066756E64696E672074797065 PUSH1 0x60 SHL PUSH1 0x44 DUP3 ADD MSTORE PUSH1 0x64 ADD PUSH2 0x7EF JUMP JUMPDEST PUSH1 0x0 DUP2 GT PUSH2 0x2A47 JUMPI PUSH1 0x40 MLOAD PUSH3 0x461BCD PUSH1 0xE5 SHL DUP2 MSTORE PUSH1 0x20 PUSH1 0x4 DUP3 ADD MSTORE PUSH1 0x1D PUSH1 0x24 DUP3 ADD MSTORE PUSH32 0x416D6F756E74206D7573742062652067726561746572207468616E2030000000 PUSH1 0x44 DUP3 ADD MSTORE PUSH1 0x64 ADD PUSH2 0x7EF JUMP JUMPDEST PUSH1 0x1 SLOAD PUSH1 0x40 MLOAD PUSH4 0x23B872DD PUSH1 0xE0 SHL DUP2 MSTORE CALLER PUSH1 0x4 DUP3 ADD MSTORE ADDRESS PUSH1 0x24 DUP3 ADD MSTORE PUSH1 0x44 DUP2 ADD DUP4 SWAP1 MSTORE PUSH1 0x1 PUSH1 0x1 PUSH1 0xA0 SHL SUB SWAP1 SWAP2 AND SWAP1 PUSH4 0x23B872DD SWAP1 PUSH1 0x64 ADD PUSH1 0x20 PUSH1 0x40 MLOAD DUP1 DUP4 SUB DUP2 PUSH1 0x0 DUP8 GAS CALL ISZERO DUP1 ISZERO PUSH2 0x2A9E JUMPI RETURNDATASIZE PUSH1 0x0 DUP1 RETURNDATACOPY RETURNDATASIZE PUSH1 0x0 REVERT JUMPDEST POP POP POP POP PUSH1 0x40 MLOAD RETURNDATASIZE PUSH1 0x1F NOT PUSH1 0x1F DUP3 ADD AND DUP3 ADD DUP1 PUSH1 0x40 MSTORE POP DUP2 ADD SWAP1 PUSH2 0x2AC2 SWAP2 SWAP1 PUSH2 0x4117 JUMP JUMPDEST PUSH2 0x2B28 JUMPI PUSH1 0x40 MLOAD PUSH3 0x461BCD PUSH1 0xE5 SHL DUP2 MSTORE PUSH1 0x20 PUSH1 0x4 DUP3 ADD MSTORE PUSH1 0x31 PUSH1 0x24 DUP3 ADD MSTORE PUSH32 0x54686572652077617320616E206572726F72206F6E20726563656976696E6720 PUSH1 0x44 DUP3 ADD MSTORE PUSH17 0x74686520746F6B656E2066756E64696E67 PUSH1 0x78 SHL PUSH1 0x64 DUP3 ADD MSTORE PUSH1 0x84 ADD PUSH2 0x7EF JUMP JUMPDEST PUSH1 0x0 DUP3 PUSH1 0x2 DUP2 GT ISZERO PUSH2 0x2B3C JUMPI PUSH2 0x2B3C PUSH2 0x43F6 JUMP JUMPDEST SUB PUSH2 0x2C32 JUMPI PUSH12 0x7C13BC4B2C133C560000000 DUP2 PUSH1 0x2 SLOAD PUSH2 0x2B5C SWAP2 SWAP1 PUSH2 0x40EB JUMP JUMPDEST GT ISZERO PUSH2 0x2BDC JUMPI PUSH1 0x40 MLOAD PUSH3 0x461BCD PUSH1 0xE5 SHL DUP2 MSTORE PUSH1 0x20 PUSH1 0x4 DUP3 ADD MSTORE PUSH1 0x43 PUSH1 0x24 DUP3 ADD MSTORE PUSH32 0x416D6F756E7420746F2066756E642069732067726561746572207468616E2074 PUSH1 0x44 DUP3 ADD MSTORE PUSH32 0x686520746F74616C20696E74656E74656420666F722067726F77746820746F6B PUSH1 0x64 DUP3 ADD MSTORE PUSH3 0x656E73 PUSH1 0xE8 SHL PUSH1 0x84 DUP3 ADD MSTORE PUSH1 0xA4 ADD PUSH2 0x7EF JUMP JUMPDEST DUP1 PUSH1 0x2 PUSH1 0x0 DUP3 DUP3 SLOAD PUSH2 0x2BEE SWAP2 SWAP1 PUSH2 0x40EB JUMP JUMPDEST SWAP3 POP POP DUP2 SWAP1 SSTORE POP DUP1 PUSH1 0x4 PUSH1 0x0 DUP3 DUP3 SLOAD PUSH2 0x2C07 SWAP2 SWAP1 PUSH2 0x40EB JUMP JUMPDEST SWAP1 SWAP2 SSTORE POP POP PUSH1 0x7 SLOAD PUSH1 0xFF AND PUSH2 0x2C2D JUMPI PUSH1 0x7 DUP1 SLOAD PUSH1 0xFF NOT AND PUSH1 0x1 OR SWAP1 SSTORE TIMESTAMP PUSH1 0x6 DUP2 SWAP1 SSTORE PUSH1 0x5 SSTORE JUMPDEST PUSH2 0x2E34 JUMP JUMPDEST PUSH1 0x1 DUP3 PUSH1 0x2 DUP2 GT ISZERO PUSH2 0x2C46 JUMPI PUSH2 0x2C46 PUSH2 0x43F6 JUMP JUMPDEST SUB PUSH2 0x2D34 JUMPI PUSH12 0x4D8C55AEFB8C05B5C000000 DUP2 PUSH1 0x8 SLOAD PUSH2 0x2C66 SWAP2 SWAP1 PUSH2 0x40EB JUMP JUMPDEST GT ISZERO PUSH2 0x2CE4 JUMPI PUSH1 0x40 MLOAD PUSH3 0x461BCD PUSH1 0xE5 SHL DUP2 MSTORE PUSH1 0x20 PUSH1 0x4 DUP3 ADD MSTORE PUSH1 0x41 PUSH1 0x24 DUP3 ADD MSTORE PUSH32 0x416D6F756E7420746F2066756E642069732067726561746572207468616E2074 PUSH1 0x44 DUP3 ADD MSTORE PUSH32 0x686520746F74616C20696E74656E74656420666F72207465616D20746F6B656E PUSH1 0x64 DUP3 ADD MSTORE PUSH1 0x73 PUSH1 0xF8 SHL PUSH1 0x84 DUP3 ADD MSTORE PUSH1 0xA4 ADD PUSH2 0x7EF JUMP JUMPDEST DUP1 PUSH1 0x8 PUSH1 0x0 DUP3 DUP3 SLOAD PUSH2 0x2CF6 SWAP2 SWAP1 PUSH2 0x40EB JUMP JUMPDEST SWAP3 POP POP DUP2 SWAP1 SSTORE POP DUP1 PUSH1 0xA PUSH1 0x0 DUP3 DUP3 SLOAD PUSH2 0x2D0F SWAP2 SWAP1 PUSH2 0x40EB JUMP JUMPDEST SWAP1 SWAP2 SSTORE POP POP PUSH1 0xC SLOAD PUSH1 0xFF AND PUSH2 0x2C2D JUMPI PUSH1 0xC DUP1 SLOAD PUSH1 0xFF NOT AND PUSH1 0x1 OR SWAP1 SSTORE TIMESTAMP PUSH1 0xB SSTORE PUSH2 0x2E34 JUMP JUMPDEST PUSH1 0x2 DUP3 PUSH1 0x2 DUP2 GT ISZERO PUSH2 0x2D48 JUMPI PUSH2 0x2D48 PUSH2 0x43F6 JUMP JUMPDEST SUB PUSH2 0x2E34 JUMPI PUSH12 0x3E09DE2596099E2B0000000 DUP2 PUSH1 0xD SLOAD PUSH2 0x2D68 SWAP2 SWAP1 PUSH2 0x40EB JUMP JUMPDEST GT ISZERO PUSH2 0x2DE8 JUMPI PUSH1 0x40 MLOAD PUSH3 0x461BCD PUSH1 0xE5 SHL DUP2 MSTORE PUSH1 0x20 PUSH1 0x4 DUP3 ADD MSTORE PUSH1 0x43 PUSH1 0x24 DUP3 ADD MSTORE PUSH32 0x416D6F756E7420746F2066756E642069732067726561746572207468616E2074 PUSH1 0x44 DUP3 ADD MSTORE PUSH32 0x686520746F74616C20696E74656E74656420666F722072657761726420746F6B PUSH1 0x64 DUP3 ADD MSTORE PUSH3 0x656E73 PUSH1 0xE8 SHL PUSH1 0x84 DUP3 ADD MSTORE PUSH1 0xA4 ADD PUSH2 0x7EF JUMP JUMPDEST DUP1 PUSH1 0xD PUSH1 0x0 DUP3 DUP3 SLOAD PUSH2 0x2DFA SWAP2 SWAP1 PUSH2 0x40EB JUMP JUMPDEST SWAP3 POP POP DUP2 SWAP1 SSTORE POP DUP1 PUSH1 0x10 PUSH1 0x0 DUP3 DUP3 SLOAD PUSH2 0x2E13 SWAP2 SWAP1 PUSH2 0x40EB JUMP JUMPDEST SWAP1 SWAP2 SSTORE POP POP PUSH1 0x12 SLOAD PUSH1 0xFF AND PUSH2 0x2E34 JUMPI PUSH1 0x12 DUP1 SLOAD PUSH1 0xFF NOT AND PUSH1 0x1 OR SWAP1 SSTORE TIMESTAMP PUSH1 0x11 SSTORE JUMPDEST PUSH32 0xBC0B9ECC68EC48681B8F5718FA26B9CE02021220455BE5F5837A944140A80EA3 DUP3 DUP3 PUSH1 0x40 MLOAD PUSH2 0x11EC SWAP3 SWAP2 SWAP1 PUSH2 0x440C JUMP JUMPDEST PUSH2 0x2E6D PUSH2 0x3AB9 JUMP JUMPDEST PUSH2 0x2E75 PUSH2 0x3AEB JUMP JUMPDEST PUSH2 0x2E7D PUSH2 0x157E JUMP JUMPDEST ISZERO PUSH2 0x2E9A JUMPI PUSH1 0x40 MLOAD PUSH3 0x461BCD PUSH1 0xE5 SHL DUP2 MSTORE PUSH1 0x4 ADD PUSH2 0x7EF SWAP1 PUSH2 0x3FBE JUMP JUMPDEST PUSH1 0x0 DUP3 PUSH1 0x2 DUP2 GT ISZERO PUSH2 0x2EAE JUMPI PUSH2 0x2EAE PUSH2 0x43F6 JUMP JUMPDEST EQ DUP1 PUSH2 0x2ECB JUMPI POP PUSH1 0x1 DUP3 PUSH1 0x2 DUP2 GT ISZERO PUSH2 0x2EC9 JUMPI PUSH2 0x2EC9 PUSH2 0x43F6 JUMP JUMPDEST EQ JUMPDEST DUP1 PUSH2 0x2EE7 JUMPI POP PUSH1 0x2 DUP3 PUSH1 0x2 DUP2 GT ISZERO PUSH2 0x2EE5 JUMPI PUSH2 0x2EE5 PUSH2 0x43F6 JUMP JUMPDEST EQ JUMPDEST PUSH2 0x2F2A JUMPI PUSH1 0x40 MLOAD PUSH3 0x461BCD PUSH1 0xE5 SHL DUP2 MSTORE PUSH1 0x20 PUSH1 0x4 DUP3 ADD MSTORE PUSH1 0x14 PUSH1 0x24 DUP3 ADD MSTORE PUSH20 0x496E76616C69642066756E64696E672074797065 PUSH1 0x60 SHL PUSH1 0x44 DUP3 ADD MSTORE PUSH1 0x64 ADD PUSH2 0x7EF JUMP JUMPDEST PUSH1 0x0 DUP2 GT PUSH2 0x2F7A JUMPI PUSH1 0x40 MLOAD PUSH3 0x461BCD PUSH1 0xE5 SHL DUP2 MSTORE PUSH1 0x20 PUSH1 0x4 DUP3 ADD MSTORE PUSH1 0x1D PUSH1 0x24 DUP3 ADD MSTORE PUSH32 0x416D6F756E74206D7573742062652067726561746572207468616E2030000000 PUSH1 0x44 DUP3 ADD MSTORE PUSH1 0x64 ADD PUSH2 0x7EF JUMP JUMPDEST PUSH1 0x0 DUP3 PUSH1 0x2 DUP2 GT ISZERO PUSH2 0x2F8E JUMPI PUSH2 0x2F8E PUSH2 0x43F6 JUMP JUMPDEST SUB PUSH2 0x3043 JUMPI PUSH1 0x7 SLOAD PUSH1 0xFF AND PUSH2 0x2FB5 JUMPI PUSH1 0x40 MLOAD PUSH3 0x461BCD PUSH1 0xE5 SHL DUP2 MSTORE PUSH1 0x4 ADD PUSH2 0x7EF SWAP1 PUSH2 0x4156 JUMP JUMPDEST PUSH1 0x4 SLOAD DUP2 GT ISZERO PUSH2 0x3026 JUMPI PUSH1 0x40 MLOAD PUSH3 0x461BCD PUSH1 0xE5 SHL DUP2 MSTORE PUSH1 0x20 PUSH1 0x4 DUP3 ADD MSTORE PUSH1 0x36 PUSH1 0x24 DUP3 ADD MSTORE PUSH32 0x496E73756666696369656E742067726F77746820746F6B656E7320696E207468 PUSH1 0x44 DUP3 ADD MSTORE PUSH22 0x6520636F6E747261637420746F207769746864726177 PUSH1 0x50 SHL PUSH1 0x64 DUP3 ADD MSTORE PUSH1 0x84 ADD PUSH2 0x7EF JUMP JUMPDEST DUP1 PUSH1 0x4 PUSH1 0x0 DUP3 DUP3 SLOAD PUSH2 0x3038 SWAP2 SWAP1 PUSH2 0x4104 JUMP JUMPDEST SWAP1 SWAP2 SSTORE POP PUSH2 0x3174 SWAP1 POP JUMP JUMPDEST PUSH1 0x1 DUP3 PUSH1 0x2 DUP2 GT ISZERO PUSH2 0x3057 JUMPI PUSH2 0x3057 PUSH2 0x43F6 JUMP JUMPDEST SUB PUSH2 0x30FF JUMPI PUSH1 0xC SLOAD PUSH1 0xFF AND PUSH2 0x307E JUMPI PUSH1 0x40 MLOAD PUSH3 0x461BCD PUSH1 0xE5 SHL DUP2 MSTORE PUSH1 0x4 ADD PUSH2 0x7EF SWAP1 PUSH2 0x4211 JUMP JUMPDEST PUSH1 0xA SLOAD DUP2 GT ISZERO PUSH2 0x30ED JUMPI PUSH1 0x40 MLOAD PUSH3 0x461BCD PUSH1 0xE5 SHL DUP2 MSTORE PUSH1 0x20 PUSH1 0x4 DUP3 ADD MSTORE PUSH1 0x34 PUSH1 0x24 DUP3 ADD MSTORE PUSH32 0x496E73756666696369656E74207465616D20746F6B656E7320696E2074686520 PUSH1 0x44 DUP3 ADD MSTORE PUSH20 0x636F6E747261637420746F207769746864726177 PUSH1 0x60 SHL PUSH1 0x64 DUP3 ADD MSTORE PUSH1 0x84 ADD PUSH2 0x7EF JUMP JUMPDEST DUP1 PUSH1 0xA PUSH1 0x0 DUP3 DUP3 SLOAD PUSH2 0x3038 SWAP2 SWAP1 PUSH2 0x4104 JUMP JUMPDEST PUSH1 0x2 DUP3 PUSH1 0x2 DUP2 GT ISZERO PUSH2 0x3113 JUMPI PUSH2 0x3113 PUSH2 0x43F6 JUMP JUMPDEST SUB PUSH2 0x3174 JUMPI PUSH1 0x12 SLOAD PUSH1 0xFF AND PUSH2 0x313A JUMPI PUSH1 0x40 MLOAD PUSH3 0x461BCD PUSH1 0xE5 SHL DUP2 MSTORE PUSH1 0x4 ADD PUSH2 0x7EF SWAP1 PUSH2 0x4021 JUMP JUMPDEST PUSH1 0x10 SLOAD DUP2 GT ISZERO PUSH2 0x315C JUMPI PUSH1 0x40 MLOAD PUSH3 0x461BCD PUSH1 0xE5 SHL DUP2 MSTORE PUSH1 0x4 ADD PUSH2 0x7EF SWAP1 PUSH2 0x407F JUMP JUMPDEST DUP1 PUSH1 0x10 PUSH1 0x0 DUP3 DUP3 SLOAD PUSH2 0x316E SWAP2 SWAP1 PUSH2 0x4104 JUMP JUMPDEST SWAP1 SWAP2 SSTORE POP POP JUMPDEST PUSH1 0x1 SLOAD PUSH1 0x1 PUSH1 0x1 PUSH1 0xA0 SHL SUB AND PUSH4 0xA9059CBB PUSH2 0x318D PUSH2 0x1C7A JUMP JUMPDEST PUSH1 0x40 MLOAD PUSH1 0x1 PUSH1 0x1 PUSH1 0xE0 SHL SUB NOT PUSH1 0xE0 DUP5 SWAP1 SHL AND DUP2 MSTORE PUSH1 0x1 PUSH1 0x1 PUSH1 0xA0 SHL SUB SWAP1 SWAP2 AND PUSH1 0x4 DUP3 ADD MSTORE PUSH1 0x24 DUP2 ADD DUP5 SWAP1 MSTORE PUSH1 0x44 ADD PUSH1 0x20 PUSH1 0x40 MLOAD DUP1 DUP4 SUB DUP2 PUSH1 0x0 DUP8 GAS CALL ISZERO DUP1 ISZERO PUSH2 0x31DA JUMPI RETURNDATASIZE PUSH1 0x0 DUP1 RETURNDATACOPY RETURNDATASIZE PUSH1 0x0 REVERT JUMPDEST POP POP POP POP PUSH1 0x40 MLOAD RETURNDATASIZE PUSH1 0x1F NOT PUSH1 0x1F DUP3 ADD AND DUP3 ADD DUP1 PUSH1 0x40 MSTORE POP DUP2 ADD SWAP1 PUSH2 0x31FE SWAP2 SWAP1 PUSH2 0x4117 JUMP JUMPDEST PUSH2 0x324A JUMPI PUSH1 0x40 MLOAD PUSH3 0x461BCD PUSH1 0xE5 SHL DUP2 MSTORE PUSH1 0x20 PUSH1 0x4 DUP3 ADD DUP2 SWAP1 MSTORE PUSH1 0x24 DUP3 ADD MSTORE PUSH32 0x4661696C656420746F207472616E736665722067726F77746820746F6B656E73 PUSH1 0x44 DUP3 ADD MSTORE PUSH1 0x64 ADD PUSH2 0x7EF JUMP JUMPDEST PUSH32 0xB9DB6F85CD4E97884845CFB10D7FBBA4D9CD4B9516CF2795B4C50CD886875BAB DUP3 DUP3 PUSH1 0x40 MLOAD PUSH2 0x11EC SWAP3 SWAP2 SWAP1 PUSH2 0x440C JUMP JUMPDEST PUSH2 0x3283 PUSH2 0x1C7A JUMP JUMPDEST PUSH1 0x1 PUSH1 0x1 PUSH1 0xA0 SHL SUB AND CALLER PUSH1 0x1 PUSH1 0x1 PUSH1 0xA0 SHL SUB AND EQ DUP1 PUSH2 0x32AC JUMPI POP PUSH1 0x13 SLOAD PUSH1 0x1 PUSH1 0x1 PUSH1 0xA0 SHL SUB AND CALLER EQ JUMPDEST DUP1 PUSH2 0x32B6 JUMPI POP CALLER ADDRESS EQ JUMPDEST PUSH2 0x32D2 JUMPI PUSH1 0x40 MLOAD PUSH3 0x461BCD PUSH1 0xE5 SHL DUP2 MSTORE PUSH1 0x4 ADD PUSH2 0x7EF SWAP1 PUSH2 0x4438 JUMP JUMPDEST PUSH1 0x40 DUP1 MLOAD CALLER DUP2 MSTORE ORIGIN PUSH1 0x20 DUP3 ADD MSTORE PUSH1 0x0 DUP1 MLOAD PUSH1 0x20 PUSH2 0x46FA DUP4 CODECOPY DUP2 MLOAD SWAP2 MSTORE SWAP2 ADD PUSH1 0x40 MLOAD DUP1 SWAP2 SUB SWAP1 LOG1 PUSH2 0x3300 PUSH2 0x3AEB JUMP JUMPDEST PUSH1 0x12 SLOAD PUSH1 0xFF AND PUSH2 0x3322 JUMPI PUSH1 0x40 MLOAD PUSH3 0x461BCD PUSH1 0xE5 SHL DUP2 MSTORE PUSH1 0x4 ADD PUSH2 0x7EF SWAP1 PUSH2 0x44AF JUMP JUMPDEST DUP3 PUSH2 0x3368 JUMPI PUSH1 0x40 MLOAD PUSH3 0x461BCD PUSH1 0xE5 SHL DUP2 MSTORE PUSH1 0x20 PUSH1 0x4 DUP3 ADD MSTORE PUSH1 0x16 PUSH1 0x24 DUP3 ADD MSTORE PUSH22 0x42617463682073697A652063616E6E6F74206265203 PUSH1 0x54 SHL PUSH1 0x44 DUP3 ADD MSTORE PUSH1 0x64 ADD PUSH2 0x7EF JUMP JUMPDEST PUSH1 0x13 SLOAD PUSH1 0x1 PUSH1 0xA0 SHL SWAP1 DIV PUSH1 0xFF AND DUP4 GT ISZERO PUSH2 0x33D0 JUMPI PUSH1 0x40 MLOAD PUSH3 0x461BCD PUSH1 0xE5 SHL DUP2 MSTORE PUSH1 0x20 PUSH1 0x4 DUP3 ADD MSTORE PUSH1 0x24 DUP1 DUP3 ADD MSTORE PUSH32 0x42617463682073697A6520657863656564732074686520646566696E6564206C PUSH1 0x44 DUP3 ADD MSTORE PUSH4 0x1A5B5A5D PUSH1 0xE2 SHL PUSH1 0x64 DUP3 ADD MSTORE PUSH1 0x84 ADD PUSH2 0x7EF JUMP JUMPDEST DUP3 DUP2 EQ PUSH2 0x341F JUMPI PUSH1 0x40 MLOAD PUSH3 0x461BCD PUSH1 0xE5 SHL DUP2 MSTORE PUSH1 0x20 PUSH1 0x4 DUP3 ADD MSTORE PUSH1 0x18 PUSH1 0x24 DUP3 ADD MSTORE PUSH32 0x4172726179206C656E67746873206D757374206D617463680000000000000000 PUSH1 0x44 DUP3 ADD MSTORE PUSH1 0x64 ADD PUSH2 0x7EF JUMP JUMPDEST PUSH1 0x0 JUMPDEST DUP4 DUP2 LT ISZERO PUSH2 0x3579 JUMPI ADDRESS PUSH4 0xFAFD7C20 DUP7 DUP7 DUP5 DUP2 DUP2 LT PUSH2 0x3442 JUMPI PUSH2 0x3442 PUSH2 0x450C JUMP JUMPDEST SWAP1 POP PUSH1 0x20 MUL ADD PUSH1 0x20 DUP2 ADD SWAP1 PUSH2 0x3457 SWAP2 SWAP1 PUSH2 0x3DE4 JUMP JUMPDEST DUP6 DUP6 DUP6 DUP2 DUP2 LT PUSH2 0x3469 JUMPI PUSH2 0x3469 PUSH2 0x450C JUMP JUMPDEST PUSH1 0x40 MLOAD PUSH1 0x1 PUSH1 0x1 PUSH1 0xE0 SHL SUB NOT PUSH1 0xE0 DUP8 SWAP1 SHL AND DUP2 MSTORE PUSH1 0x1 PUSH1 0x1 PUSH1 0xA0 SHL SUB SWAP1 SWAP5 AND PUSH1 0x4 DUP6 ADD MSTORE PUSH1 0x20 MUL SWAP2 SWAP1 SWAP2 ADD CALLDATALOAD PUSH1 0x24 DUP4 ADD MSTORE POP PUSH1 0x44 ADD PUSH1 0x0 PUSH1 0x40 MLOAD DUP1 DUP4 SUB DUP2 PUSH1 0x0 DUP8 DUP1 EXTCODESIZE ISZERO DUP1 ISZERO PUSH2 0x34B8 JUMPI PUSH1 0x0 DUP1 REVERT JUMPDEST POP GAS CALL SWAP3 POP POP POP DUP1 ISZERO PUSH2 0x34C9 JUMPI POP PUSH1 0x1 JUMPDEST PUSH2 0x3567 JUMPI PUSH2 0x34D5 PUSH2 0x4522 JUMP JUMPDEST DUP1 PUSH4 0x8C379A0 SUB PUSH2 0x355B JUMPI POP PUSH2 0x34E9 PUSH2 0x453E JUMP JUMPDEST DUP1 PUSH2 0x34F4 JUMPI POP PUSH2 0x355D JUMP JUMPDEST PUSH32 0x80C7A907FB61FF886445C2FEB367D7B196637D154438EC7337EB57021EF5F5A1 CALLER DUP8 DUP8 DUP6 DUP2 DUP2 LT PUSH2 0x3528 JUMPI PUSH2 0x3528 PUSH2 0x450C JUMP JUMPDEST SWAP1 POP PUSH1 0x20 MUL ADD PUSH1 0x20 DUP2 ADD SWAP1 PUSH2 0x353D SWAP2 SWAP1 PUSH2 0x3DE4 JUMP JUMPDEST DUP4 PUSH1 0x40 MLOAD PUSH2 0x354D SWAP4 SWAP3 SWAP2 SWAP1 PUSH2 0x45C8 JUMP JUMPDEST PUSH1 0x40 MLOAD DUP1 SWAP2 SUB SWAP1 LOG1 POP PUSH2 0x3567 JUMP JUMPDEST POP JUMPDEST RETURNDATASIZE PUSH1 0x0 DUP1 RETURNDATACOPY RETURNDATASIZE PUSH1 0x0 REVERT JUMPDEST DUP1 PUSH2 0x3571 DUP2 PUSH2 0x4615 JUMP JUMPDEST SWAP2 POP POP PUSH2 0x3422 JUMP JUMPDEST POP PUSH32 0x920309E6C1DF22E82236FC02A7D23E8EC36B85A821FC790C20A0E1497CE227DC CALLER DUP6 DUP6 DUP6 DUP6 PUSH1 0x40 MLOAD PUSH2 0x35B1 SWAP6 SWAP5 SWAP4 SWAP3 SWAP2 SWAP1 PUSH2 0x462E JUMP JUMPDEST PUSH1 0x40 MLOAD DUP1 SWAP2 SUB SWAP1 LOG1 PUSH2 0x35D0 PUSH1 0x1 PUSH1 0x0 DUP1 MLOAD PUSH1 0x20 PUSH2 0x46DA DUP4 CODECOPY DUP2 MLOAD SWAP2 MSTORE SSTORE JUMP JUMPDEST POP POP POP POP JUMP JUMPDEST PUSH2 0x35DE PUSH2 0x3AB9 JUMP JUMPDEST PUSH1 0x1 PUSH1 0x1 PUSH1 0xA0 SHL SUB DUP2 AND PUSH2 0x3643 JUMPI PUSH1 0x40 MLOAD PUSH3 0x461BCD PUSH1 0xE5 SHL DUP2 MSTORE PUSH1 0x20 PUSH1 0x4 DUP3 ADD MSTORE PUSH1 0x26 PUSH1 0x24 DUP3 ADD MSTORE PUSH32 0x4F776E61626C653A206E6577206F776E657220697320746865207A65726F2061 PUSH1 0x44 DUP3 ADD MSTORE PUSH6 0x646472657373 PUSH1 0xD0 SHL PUSH1 0x64 DUP3 ADD MSTORE PUSH1 0x84 ADD PUSH2 0x7EF JUMP JUMPDEST ADDRESS PUSH1 0x1 PUSH1 0x1 PUSH1 0xA0 SHL SUB DUP3 AND SUB PUSH2 0x36BA JUMPI PUSH1 0x40 MLOAD PUSH3 0x461BCD PUSH1 0xE5 SHL DUP2 MSTORE PUSH1 0x20 PUSH1 0x4 DUP3 ADD MSTORE PUSH1 0x36 PUSH1 0x24 DUP3 ADD MSTORE PUSH32 0x4F776E61626C653A206E6577206F776E65722063616E6E6F7420626520746865 PUSH1 0x44 DUP3 ADD MSTORE PUSH22 0x2073616D6520636F6E74726163742061646472657373 PUSH1 0x50 SHL PUSH1 0x64 DUP3 ADD MSTORE PUSH1 0x84 ADD PUSH2 0x7EF JUMP JUMPDEST PUSH2 0xC2C DUP2 PUSH2 0x3B91 JUMP JUMPDEST PUSH2 0x36CB PUSH2 0x1C7A JUMP JUMPDEST PUSH1 0x1 PUSH1 0x1 PUSH1 0xA0 SHL SUB AND CALLER PUSH1 0x1 PUSH1 0x1 PUSH1 0xA0 SHL SUB AND EQ DUP1 PUSH2 0x36F4 JUMPI POP PUSH1 0x13 SLOAD PUSH1 0x1 PUSH1 0x1 PUSH1 0xA0 SHL SUB AND CALLER EQ JUMPDEST DUP1 PUSH2 0x36FE JUMPI POP CALLER ADDRESS EQ JUMPDEST PUSH2 0x371A JUMPI PUSH1 0x40 MLOAD PUSH3 0x461BCD PUSH1 0xE5 SHL DUP2 MSTORE PUSH1 0x4 ADD PUSH2 0x7EF SWAP1 PUSH2 0x4438 JUMP JUMPDEST PUSH1 0x40 DUP1 MLOAD CALLER DUP2 MSTORE ORIGIN PUSH1 0x20 DUP3 ADD MSTORE PUSH1 0x0 DUP1 MLOAD PUSH1 0x20 PUSH2 0x46FA DUP4 CODECOPY DUP2 MLOAD SWAP2 MSTORE SWAP2 ADD PUSH1 0x40 MLOAD DUP1 SWAP2 SUB SWAP1 LOG1 PUSH1 0x12 SLOAD PUSH1 0xFF AND PUSH2 0x3762 JUMPI PUSH1 0x40 MLOAD PUSH3 0x461BCD PUSH1 0xE5 SHL DUP2 MSTORE PUSH1 0x4 ADD PUSH2 0x7EF SWAP1 PUSH2 0x44AF JUMP JUMPDEST PUSH1 0x1 PUSH1 0x1 PUSH1 0xA0 SHL SUB DUP3 AND PUSH1 0x0 SWAP1 DUP2 MSTORE PUSH1 0x14 PUSH1 0x20 MSTORE PUSH1 0x40 SWAP1 KECCAK256 PUSH1 0x9 ADD SLOAD PUSH1 0xFF PUSH2 0x100 SWAP1 SWAP2 DIV AND ISZERO ISZERO PUSH1 0x1 EQ PUSH2 0x37A8 JUMPI PUSH1 0x40 MLOAD PUSH3 0x461BCD PUSH1 0xE5 SHL DUP2 MSTORE PUSH1 0x4 ADD PUSH2 0x7EF SWAP1 PUSH2 0x3F87 JUMP JUMPDEST PUSH1 0x1 PUSH1 0x1 PUSH1 0xA0 SHL SUB DUP3 AND PUSH1 0x0 SWAP1 DUP2 MSTORE PUSH1 0x14 PUSH1 0x20 MSTORE PUSH1 0x40 SWAP1 KECCAK256 PUSH1 0x9 ADD SLOAD PUSH3 0x10000 SWAP1 DIV PUSH1 0xFF AND ISZERO PUSH2 0x37EA JUMPI PUSH1 0x40 MLOAD PUSH3 0x461BCD PUSH1 0xE5 SHL DUP2 MSTORE PUSH1 0x4 ADD PUSH2 0x7EF SWAP1 PUSH2 0x3FEA JUMP JUMPDEST PUSH1 0x1 PUSH1 0x1 PUSH1 0xA0 SHL SUB DUP3 AND PUSH1 0x0 SWAP1 DUP2 MSTORE PUSH1 0x14 PUSH1 0x20 MSTORE PUSH1 0x40 SWAP1 KECCAK256 PUSH1 0x8 ADD SLOAD PUSH2 0x3814 SWAP1 PUSH3 0x7E900 SWAP1 PUSH2 0x40EB JUMP JUMPDEST TIMESTAMP LT ISZERO PUSH2 0x3876 JUMPI PUSH1 0x40 MLOAD PUSH3 0x461BCD PUSH1 0xE5 SHL DUP2 MSTORE PUSH1 0x20 PUSH1 0x4 DUP3 ADD MSTORE PUSH1 0x2A PUSH1 0x24 DUP3 ADD MSTORE PUSH32 0x546F6F20736F6F6E20746F20757064617465207265776172647320666F722074 PUSH1 0x44 DUP3 ADD MSTORE PUSH10 0x1A1A5CC81DD85B1B195D PUSH1 0xB2 SHL PUSH1 0x64 DUP3 ADD MSTORE PUSH1 0x84 ADD PUSH2 0x7EF JUMP JUMPDEST PUSH2 0x388C PUSH1 0x34 PUSH11 0x7C13BC4B2C133C56000000 PUSH2 0x4134 JUMP JUMPDEST DUP2 GT ISZERO PUSH2 0x3903 JUMPI PUSH1 0x40 DUP1 MLOAD PUSH3 0x461BCD PUSH1 0xE5 SHL DUP2 MSTORE PUSH1 0x20 PUSH1 0x4 DUP3 ADD MSTORE PUSH1 0x24 DUP2 ADD SWAP2 SWAP1 SWAP2 MSTORE PUSH32 0x412073696E676C652077616C6C65742063616E6E6F7420686176652072657761 PUSH1 0x44 DUP3 ADD MSTORE PUSH32 0x72647320686967686572207468616E20746865207765656B6C79206C696D6974 PUSH1 0x64 DUP3 ADD MSTORE PUSH1 0x84 ADD PUSH2 0x7EF JUMP JUMPDEST PUSH1 0x10 SLOAD DUP2 GT ISZERO PUSH2 0x3971 JUMPI PUSH1 0x40 MLOAD PUSH3 0x461BCD PUSH1 0xE5 SHL DUP2 MSTORE PUSH1 0x20 PUSH1 0x4 DUP3 ADD MSTORE PUSH1 0x33 PUSH1 0x24 DUP3 ADD MSTORE PUSH32 0x496E73756666696369656E742072657761726420746F6B656E7320746F206469 PUSH1 0x44 DUP3 ADD MSTORE PUSH19 0x73747269627574652061732072657761726473 PUSH1 0x68 SHL PUSH1 0x64 DUP3 ADD MSTORE PUSH1 0x84 ADD PUSH2 0x7EF JUMP JUMPDEST PUSH12 0x3E09DE2596099E2B0000000 DUP2 PUSH1 0xE SLOAD PUSH2 0x398C SWAP2 SWAP1 PUSH2 0x40EB JUMP JUMPDEST GT ISZERO PUSH2 0x39F6 JUMPI PUSH1 0x40 MLOAD PUSH3 0x461BCD PUSH1 0xE5 SHL DUP2 MSTORE PUSH1 0x20 PUSH1 0x4 DUP3 ADD MSTORE PUSH1 0x33 PUSH1 0x24 DUP3 ADD MSTORE PUSH32 0x416C6C207468652072657761726420746F6B656E732068617665206265656E20 PUSH1 0x44 DUP3 ADD MSTORE PUSH19 0x185B1C9958591E48191A5CDD1C9A589D5D1959 PUSH1 0x6A SHL PUSH1 0x64 DUP3 ADD MSTORE PUSH1 0x84 ADD PUSH2 0x7EF JUMP JUMPDEST DUP1 PUSH1 0xE PUSH1 0x0 DUP3 DUP3 SLOAD PUSH2 0x3A08 SWAP2 SWAP1 PUSH2 0x40EB JUMP JUMPDEST SWAP1 SWAP2 SSTORE POP POP PUSH1 0x1 PUSH1 0x1 PUSH1 0xA0 SHL SUB DUP3 AND PUSH1 0x0 SWAP1 DUP2 MSTORE PUSH1 0x14 PUSH1 0x20 MSTORE PUSH1 0x40 DUP2 KECCAK256 TIMESTAMP PUSH1 0x8 DUP3 ADD SSTORE PUSH1 0x2 ADD DUP1 SLOAD DUP4 SWAP3 SWAP1 PUSH2 0x3A3E SWAP1 DUP5 SWAP1 PUSH2 0x40EB JUMP JUMPDEST SWAP1 SWAP2 SSTORE POP POP PUSH1 0x1 PUSH1 0x1 PUSH1 0xA0 SHL SUB DUP3 AND PUSH1 0x0 SWAP1 DUP2 MSTORE PUSH1 0x14 PUSH1 0x20 MSTORE PUSH1 0x40 DUP2 KECCAK256 PUSH1 0x3 ADD DUP1 SLOAD DUP4 SWAP3 SWAP1 PUSH2 0x3A6E SWAP1 DUP5 SWAP1 PUSH2 0x40EB JUMP JUMPDEST SWAP1 SWAP2 SSTORE POP POP PUSH1 0x40 DUP1 MLOAD CALLER DUP2 MSTORE PUSH1 0x1 PUSH1 0x1 PUSH1 0xA0 SHL SUB DUP5 AND PUSH1 0x20 DUP3 ADD MSTORE SWAP1 DUP2 ADD DUP3 SWAP1 MSTORE PUSH32 0x74DD95429FE6255FB4698AA67D02AFB4EBCF261C1883A417108C7D6C0ABED4B0 SWAP1 PUSH1 0x60 ADD PUSH2 0x23D9 JUMP JUMPDEST CALLER PUSH2 0x3AC2 PUSH2 0x1C7A JUMP JUMPDEST PUSH1 0x1 PUSH1 0x1 PUSH1 0xA0 SHL SUB AND EQ PUSH2 0x121F JUMPI PUSH1 0x40 MLOAD PUSH4 0x118CDAA7 PUSH1 0xE0 SHL DUP2 MSTORE CALLER PUSH1 0x4 DUP3 ADD MSTORE PUSH1 0x24 ADD PUSH2 0x7EF JUMP JUMPDEST PUSH1 0x0 DUP1 MLOAD PUSH1 0x20 PUSH2 0x46DA DUP4 CODECOPY DUP2 MLOAD SWAP2 MSTORE DUP1 SLOAD PUSH1 0x1 NOT ADD PUSH2 0x3B1D JUMPI PUSH1 0x40 MLOAD PUSH4 0x3EE5AEB5 PUSH1 0xE0 SHL DUP2 MSTORE PUSH1 0x4 ADD PUSH1 0x40 MLOAD DUP1 SWAP2 SUB SWAP1 REVERT JUMPDEST PUSH1 0x2 SWAP1 SSTORE JUMP JUMPDEST PUSH1 0x1 PUSH1 0x0 DUP1 MLOAD PUSH1 0x20 PUSH2 0x46DA DUP4 CODECOPY DUP2 MLOAD SWAP2 MSTORE SSTORE JUMP JUMPDEST PUSH2 0x3B3F PUSH2 0x3C7C JUMP JUMPDEST PUSH1 0x0 DUP1 MLOAD PUSH1 0x20 PUSH2 0x46BA DUP4 CODECOPY DUP2 MLOAD SWAP2 MSTORE DUP1 SLOAD PUSH1 0xFF NOT AND DUP2 SSTORE PUSH32 0x5DB9EE0A495BF2E6FF9C91A7834C1BA4FDD244A5E8AA4E537BD38AEAE4B073AA CALLER JUMPDEST PUSH1 0x40 MLOAD PUSH1 0x1 PUSH1 0x1 PUSH1 0xA0 SHL SUB SWAP1 SWAP2 AND DUP2 MSTORE PUSH1 0x20 ADD PUSH2 0x8AC JUMP JUMPDEST PUSH32 0x9016D09D72D40FDAE2FD8CEAC6B6234C7706214FD39C1CD1E609A0528C199300 DUP1 SLOAD PUSH1 0x1 PUSH1 0x1 PUSH1 0xA0 SHL SUB NOT DUP2 AND PUSH1 0x1 PUSH1 0x1 PUSH1 0xA0 SHL SUB DUP5 DUP2 AND SWAP2 DUP3 OR DUP5 SSTORE PUSH1 0x40 MLOAD SWAP3 AND SWAP2 DUP3 SWAP1 PUSH32 0x8BE0079C531659141344CD1FD0A4F28419497F9722A3DAAFE3B4186F6B6457E0 SWAP1 PUSH1 0x0 SWAP1 LOG3 POP POP POP JUMP JUMPDEST PUSH2 0x3C0A PUSH2 0x3CA1 JUMP JUMPDEST PUSH1 0x0 DUP1 MLOAD PUSH1 0x20 PUSH2 0x46BA DUP4 CODECOPY DUP2 MLOAD SWAP2 MSTORE DUP1 SLOAD PUSH1 0xFF NOT AND PUSH1 0x1 OR DUP2 SSTORE PUSH32 0x62E78CEA01BEE320CD4E420270B5EA74000D11B0C9F74754EBDBFC544B05A258 CALLER PUSH2 0x3B79 JUMP JUMPDEST PUSH2 0x3C53 PUSH2 0x3CC7 JUMP JUMPDEST PUSH2 0xC2C DUP2 PUSH2 0x3D10 JUMP JUMPDEST PUSH2 0x3C64 PUSH2 0x3CC7 JUMP JUMPDEST PUSH2 0x121F PUSH2 0x3D42 JUMP JUMPDEST PUSH2 0x3C74 PUSH2 0x3CC7 JUMP JUMPDEST PUSH2 0x121F PUSH2 0x3D4A JUMP JUMPDEST PUSH2 0x3C84 PUSH2 0x157E JUMP JUMPDEST PUSH2 0x121F JUMPI PUSH1 0x40 MLOAD PUSH4 0x8DFC202B PUSH1 0xE0 SHL DUP2 MSTORE PUSH1 0x4 ADD PUSH1 0x40 MLOAD DUP1 SWAP2 SUB SWAP1 REVERT JUMPDEST PUSH2 0x3CA9 PUSH2 0x157E JUMP JUMPDEST ISZERO PUSH2 0x121F JUMPI PUSH1 0x40 MLOAD PUSH4 0xD93C0665 PUSH1 0xE0 SHL DUP2 MSTORE PUSH1 0x4 ADD PUSH1 0x40 MLOAD DUP1 SWAP2 SUB SWAP1 REVERT JUMPDEST PUSH32 0xF0C57E16840DF040F15088DC2F81FE391C3923BEC73E23A9662EFC9C229C6A00 SLOAD PUSH1 0x1 PUSH1 0x40 SHL SWAP1 DIV PUSH1 0xFF AND PUSH2 0x121F JUMPI PUSH1 0x40 MLOAD PUSH4 0x1AFCD79F PUSH1 0xE3 SHL DUP2 MSTORE PUSH1 0x4 ADD PUSH1 0x40 MLOAD DUP1 SWAP2 SUB SWAP1 REVERT JUMPDEST PUSH2 0x3D18 PUSH2 0x3CC7 JUMP JUMPDEST PUSH1 0x1 PUSH1 0x1 PUSH1 0xA0 SHL SUB DUP2 AND PUSH2 0x36BA JUMPI PUSH1 0x40 MLOAD PUSH4 0x1E4FBDF7 PUSH1 0xE0 SHL DUP2 MSTORE PUSH1 0x0 PUSH1 0x4 DUP3 ADD MSTORE PUSH1 0x24 ADD PUSH2 0x7EF JUMP JUMPDEST PUSH2 0x3B23 PUSH2 0x3CC7 JUMP JUMPDEST PUSH2 0x3D52 PUSH2 0x3CC7 JUMP JUMPDEST PUSH1 0x0 DUP1 MLOAD PUSH1 0x20 PUSH2 0x46BA DUP4 CODECOPY DUP2 MLOAD SWAP2 MSTORE DUP1 SLOAD PUSH1 0xFF NOT AND SWAP1 SSTORE JUMP JUMPDEST PUSH1 0x0 PUSH1 0x20 DUP3 DUP5 SUB SLT ISZERO PUSH2 0x3D7D JUMPI PUSH1 0x0 DUP1 REVERT JUMPDEST DUP2 CALLDATALOAD PUSH1 0xFF DUP2 AND DUP2 EQ PUSH2 0x3D8E JUMPI PUSH1 0x0 DUP1 REVERT JUMPDEST SWAP4 SWAP3 POP POP POP JUMP JUMPDEST DUP1 CALLDATALOAD PUSH1 0x1 PUSH1 0x1 PUSH1 0xA0 SHL SUB DUP2 AND DUP2 EQ PUSH2 0x3DAC JUMPI PUSH1 0x0 DUP1 REVERT JUMPDEST SWAP2 SWAP1 POP JUMP JUMPDEST PUSH1 0x0 DUP1 PUSH1 0x40 DUP4 DUP6 SUB SLT ISZERO PUSH2 0x3DC4 JUMPI PUSH1 0x0 DUP1 REVERT JUMPDEST PUSH2 0x3DCD DUP4 PUSH2 0x3D95 JUMP JUMPDEST SWAP2 POP PUSH2 0x3DDB PUSH1 0x20 DUP5 ADD PUSH2 0x3D95 JUMP JUMPDEST SWAP1 POP SWAP3 POP SWAP3 SWAP1 POP JUMP JUMPDEST PUSH1 0x0 PUSH1 0x20 DUP3 DUP5 SUB SLT ISZERO PUSH2 0x3DF6 JUMPI PUSH1 0x0 DUP1 REVERT JUMPDEST PUSH2 0x3D8E DUP3 PUSH2 0x3D95 JUMP JUMPDEST DUP1 ISZERO ISZERO DUP2 EQ PUSH2 0xC2C JUMPI PUSH1 0x0 DUP1 REVERT JUMPDEST PUSH1 0x0 DUP1 PUSH1 0x0 PUSH1 0x60 DUP5 DUP7 SUB SLT ISZERO PUSH2 0x3E22 JUMPI PUSH1 0x0 DUP1 REVERT JUMPDEST PUSH2 0x3E2B DUP5 PUSH2 0x3D95 JUMP JUMPDEST SWAP3 POP PUSH1 0x20 DUP5 ADD CALLDATALOAD PUSH2 0x3E3B DUP2 PUSH2 0x3DFF JUMP JUMPDEST SWAP3 SWAP6 SWAP3 SWAP5 POP POP POP PUSH1 0x40 SWAP2 SWAP1 SWAP2 ADD CALLDATALOAD SWAP1 JUMP JUMPDEST PUSH1 0x0 DUP1 PUSH1 0x40 DUP4 DUP6 SUB SLT ISZERO PUSH2 0x3E5F JUMPI PUSH1 0x0 DUP1 REVERT JUMPDEST PUSH2 0x3E68 DUP4 PUSH2 0x3D95 JUMP JUMPDEST SWAP2 POP PUSH1 0x20 DUP4 ADD CALLDATALOAD PUSH2 0x3E78 DUP2 PUSH2 0x3DFF JUMP JUMPDEST DUP1 SWAP2 POP POP SWAP3 POP SWAP3 SWAP1 POP JUMP JUMPDEST PUSH1 0x0 DUP1 PUSH1 0x40 DUP4 DUP6 SUB SLT ISZERO PUSH2 0x3E96 JUMPI PUSH1 0x0 DUP1 REVERT JUMPDEST DUP3 CALLDATALOAD PUSH1 0x3 DUP2 LT PUSH2 0x3EA5 JUMPI PUSH1 0x0 DUP1 REVERT JUMPDEST SWAP5 PUSH1 0x20 SWAP4 SWAP1 SWAP4 ADD CALLDATALOAD SWAP4 POP POP POP JUMP JUMPDEST PUSH1 0x0 DUP1 DUP4 PUSH1 0x1F DUP5 ADD SLT PUSH2 0x3EC5 JUMPI PUSH1 0x0 DUP1 REVERT JUMPDEST POP DUP2 CALLDATALOAD PUSH8 0xFFFFFFFFFFFFFFFF DUP2 GT ISZERO PUSH2 0x3EDD JUMPI PUSH1 0x0 DUP1 REVERT JUMPDEST PUSH1 0x20 DUP4 ADD SWAP2 POP DUP4 PUSH1 0x20 DUP3 PUSH1 0x5 SHL DUP6 ADD ADD GT ISZERO PUSH2 0x3EF8 JUMPI PUSH1 0x0 DUP1 REVERT JUMPDEST SWAP3 POP SWAP3 SWAP1 POP JUMP JUMPDEST PUSH1 0x0 DUP1 PUSH1 0x0 DUP1 PUSH1 0x40 DUP6 DUP8 SUB SLT ISZERO PUSH2 0x3F15 JUMPI PUSH1 0x0 DUP1 REVERT JUMPDEST DUP5 CALLDATALOAD PUSH8 0xFFFFFFFFFFFFFFFF DUP1 DUP3 GT ISZERO PUSH2 0x3F2D JUMPI PUSH1 0x0 DUP1 REVERT JUMPDEST PUSH2 0x3F39 DUP9 DUP4 DUP10 ADD PUSH2 0x3EB3 JUMP JUMPDEST SWAP1 SWAP7 POP SWAP5 POP PUSH1 0x20 DUP8 ADD CALLDATALOAD SWAP2 POP DUP1 DUP3 GT ISZERO PUSH2 0x3F52 JUMPI PUSH1 0x0 DUP1 REVERT JUMPDEST POP PUSH2 0x3F5F DUP8 DUP3 DUP9 ADD PUSH2 0x3EB3 JUMP JUMPDEST SWAP6 SWAP9 SWAP5 SWAP8 POP SWAP6 POP POP POP POP JUMP JUMPDEST PUSH1 0x0 DUP1 PUSH1 0x40 DUP4 DUP6 SUB SLT ISZERO PUSH2 0x3F7E JUMPI PUSH1 0x0 DUP1 REVERT JUMPDEST PUSH2 0x3EA5 DUP4 PUSH2 0x3D95 JUMP JUMPDEST PUSH1 0x20 DUP1 DUP3 MSTORE PUSH1 0x19 SWAP1 DUP3 ADD MSTORE PUSH32 0x57616C6C6574206973206E6F742077686974656C697374656400000000000000 PUSH1 0x40 DUP3 ADD MSTORE PUSH1 0x60 ADD SWAP1 JUMP JUMPDEST PUSH1 0x20 DUP1 DUP3 MSTORE PUSH1 0x12 SWAP1 DUP3 ADD MSTORE PUSH18 0x10DBDB9D1C9858DD081A5CC81C185D5CD959 PUSH1 0x72 SHL PUSH1 0x40 DUP3 ADD MSTORE PUSH1 0x60 ADD SWAP1 JUMP JUMPDEST PUSH1 0x20 DUP1 DUP3 MSTORE PUSH1 0x1B SWAP1 DUP3 ADD MSTORE PUSH32 0x57616C6C657420686173206265656E20626C61636B6C69737465640000000000 PUSH1 0x40 DUP3 ADD MSTORE PUSH1 0x60 ADD SWAP1 JUMP JUMPDEST PUSH1 0x20 DUP1 DUP3 MSTORE PUSH1 0x40 SWAP1 DUP3 ADD DUP2 SWAP1 MSTORE PUSH32 0x52657761726420746F6B656E732066756E64696E6720686173206E6F74207374 SWAP1 DUP3 ADD MSTORE PUSH32 0x6172746564207965742C206E6F20746F6B656E7320746F207769746864726177 PUSH1 0x60 DUP3 ADD MSTORE PUSH1 0x80 ADD SWAP1 JUMP JUMPDEST PUSH1 0x20 DUP1 DUP3 MSTORE PUSH1 0x36 SWAP1 DUP3 ADD MSTORE PUSH32 0x496E73756666696369656E742072657761726420746F6B656E7320696E207468 PUSH1 0x40 DUP3 ADD MSTORE PUSH22 0x6520636F6E747261637420746F207769746864726177 PUSH1 0x50 SHL PUSH1 0x60 DUP3 ADD MSTORE PUSH1 0x80 ADD SWAP1 JUMP JUMPDEST PUSH4 0x4E487B71 PUSH1 0xE0 SHL PUSH1 0x0 MSTORE PUSH1 0x11 PUSH1 0x4 MSTORE PUSH1 0x24 PUSH1 0x0 REVERT JUMPDEST DUP1 DUP3 ADD DUP1 DUP3 GT ISZERO PUSH2 0x40FE JUMPI PUSH2 0x40FE PUSH2 0x40D5 JUMP JUMPDEST SWAP3 SWAP2 POP POP JUMP JUMPDEST DUP2 DUP2 SUB DUP2 DUP2 GT ISZERO PUSH2 0x40FE JUMPI PUSH2 0x40FE PUSH2 0x40D5 JUMP JUMPDEST PUSH1 0x0 PUSH1 0x20 DUP3 DUP5 SUB SLT ISZERO PUSH2 0x4129 JUMPI PUSH1 0x0 DUP1 REVERT JUMPDEST DUP2 MLOAD PUSH2 0x3D8E DUP2 PUSH2 0x3DFF JUMP JUMPDEST PUSH1 0x0 DUP3 PUSH2 0x4151 JUMPI PUSH4 0x4E487B71 PUSH1 0xE0 SHL PUSH1 0x0 MSTORE PUSH1 0x12 PUSH1 0x4 MSTORE PUSH1 0x24 PUSH1 0x0 REVERT JUMPDEST POP DIV SWAP1 JUMP JUMPDEST PUSH1 0x20 DUP1 DUP3 MSTORE PUSH1 0x40 SWAP1 DUP3 ADD DUP2 SWAP1 MSTORE PUSH32 0x47726F77746820746F6B656E732066756E64696E6720686173206E6F74207374 SWAP1 DUP3 ADD MSTORE PUSH32 0x6172746564207965742C206E6F20746F6B656E7320746F207769746864726177 PUSH1 0x60 DUP3 ADD MSTORE PUSH1 0x80 ADD SWAP1 JUMP JUMPDEST PUSH1 0x20 DUP1 DUP3 MSTORE PUSH1 0x37 SWAP1 DUP3 ADD MSTORE PUSH32 0x46756E6374696F6E207265736572766564206F6E6C7920666F72207468652077 PUSH1 0x40 DUP3 ADD MSTORE PUSH32 0x686974656C6973746572206F7220746865206F776E6572000000000000000000 PUSH1 0x60 DUP3 ADD MSTORE PUSH1 0x80 ADD SWAP1 JUMP JUMPDEST PUSH1 0x20 DUP1 DUP3 MSTORE PUSH1 0x3E SWAP1 DUP3 ADD MSTORE PUSH32 0x5465616D20746F6B656E732066756E64696E6720686173206E6F742073746172 PUSH1 0x40 DUP3 ADD MSTORE PUSH32 0x746564207965742C206E6F20746F6B656E7320746F2077697468647261770000 PUSH1 0x60 DUP3 ADD MSTORE PUSH1 0x80 ADD SWAP1 JUMP JUMPDEST PUSH1 0x0 PUSH1 0xFF DUP3 AND PUSH1 0xFF DUP2 SUB PUSH2 0x4284 JUMPI PUSH2 0x4284 PUSH2 0x40D5 JUMP JUMPDEST PUSH1 0x1 ADD SWAP3 SWAP2 POP POP JUMP JUMPDEST PUSH4 0x4E487B71 PUSH1 0xE0 SHL PUSH1 0x0 MSTORE PUSH1 0x41 PUSH1 0x4 MSTORE PUSH1 0x24 PUSH1 0x0 REVERT JUMPDEST PUSH1 0x1F DUP3 ADD PUSH1 0x1F NOT AND DUP2 ADD PUSH8 0xFFFFFFFFFFFFFFFF DUP2 GT DUP3 DUP3 LT OR ISZERO PUSH2 0x42C9 JUMPI PUSH2 0x42C9 PUSH2 0x428D JUMP JUMPDEST PUSH1 0x40 MSTORE POP POP JUMP JUMPDEST PUSH1 0x0 JUMPDEST DUP4 DUP2 LT ISZERO PUSH2 0x42EB JUMPI DUP2 DUP2 ADD MLOAD DUP4 DUP3 ADD MSTORE PUSH1 0x20 ADD PUSH2 0x42D3 JUMP JUMPDEST POP POP PUSH1 0x0 SWAP2 ADD MSTORE JUMP JUMPDEST PUSH1 0x0 PUSH1 0x20 DUP3 DUP5 SUB SLT ISZERO PUSH2 0x4306 JUMPI PUSH1 0x0 DUP1 REVERT JUMPDEST DUP2 MLOAD PUSH8 0xFFFFFFFFFFFFFFFF DUP1 DUP3 GT ISZERO PUSH2 0x431E JUMPI PUSH1 0x0 DUP1 REVERT JUMPDEST DUP2 DUP5 ADD SWAP2 POP DUP5 PUSH1 0x1F DUP4 ADD SLT PUSH2 0x4332 JUMPI PUSH1 0x0 DUP1 REVERT JUMPDEST DUP2 MLOAD DUP2 DUP2 GT ISZERO PUSH2 0x4344 JUMPI PUSH2 0x4344 PUSH2 0x428D JUMP JUMPDEST PUSH1 0x40 MLOAD SWAP2 POP PUSH2 0x435D PUSH1 0x1F DUP3 ADD PUSH1 0x1F NOT AND PUSH1 0x20 ADD DUP4 PUSH2 0x42A3 JUMP JUMPDEST DUP1 DUP3 MSTORE DUP6 PUSH1 0x20 DUP3 DUP6 ADD ADD GT ISZERO PUSH2 0x4372 JUMPI PUSH1 0x0 DUP1 REVERT JUMPDEST PUSH2 0x4383 DUP2 PUSH1 0x20 DUP5 ADD PUSH1 0x20 DUP7 ADD PUSH2 0x42D0 JUMP JUMPDEST POP SWAP5 SWAP4 POP POP POP POP JUMP JUMPDEST PUSH1 0x0 DUP3 MLOAD PUSH2 0x439E DUP2 DUP5 PUSH1 0x20 DUP8 ADD PUSH2 0x42D0 JUMP JUMPDEST SWAP2 SWAP1 SWAP2 ADD SWAP3 SWAP2 POP POP JUMP JUMPDEST PUSH1 0x20 DUP1 DUP3 MSTORE PUSH1 0x2E SWAP1 DUP3 ADD MSTORE PUSH32 0x57616C6C65742068617320616C7265616479206265656E207570646174656420 PUSH1 0x40 DUP3 ADD MSTORE PUSH14 0x746F207468617420737461747573 PUSH1 0x90 SHL PUSH1 0x60 DUP3 ADD MSTORE PUSH1 0x80 ADD SWAP1 JUMP JUMPDEST PUSH4 0x4E487B71 PUSH1 0xE0 SHL PUSH1 0x0 MSTORE PUSH1 0x21 PUSH1 0x4 MSTORE PUSH1 0x24 PUSH1 0x0 REVERT JUMPDEST PUSH1 0x40 DUP2 ADD PUSH1 0x3 DUP5 LT PUSH2 0x442E JUMPI PUSH4 0x4E487B71 PUSH1 0xE0 SHL PUSH1 0x0 MSTORE PUSH1 0x21 PUSH1 0x4 MSTORE PUSH1 0x24 PUSH1 0x0 REVERT JUMPDEST SWAP3 DUP2 MSTORE PUSH1 0x20 ADD MSTORE SWAP1 JUMP JUMPDEST PUSH1 0x20 DUP1 DUP3 MSTORE PUSH1 0x51 SWAP1 DUP3 ADD MSTORE PUSH32 0x46756E6374696F6E207265736572766564206F6E6C7920666F72207468652072 PUSH1 0x40 DUP3 ADD MSTORE PUSH32 0x65776172647320757064617465722C20746865206F776E65722C206F72207468 PUSH1 0x60 DUP3 ADD MSTORE PUSH17 0x329031B7B73A3930B1BA1034BA39B2B633 PUSH1 0x79 SHL PUSH1 0x80 DUP3 ADD MSTORE PUSH1 0xA0 ADD SWAP1 JUMP JUMPDEST PUSH1 0x20 DUP1 DUP3 MSTORE PUSH1 0x3E SWAP1 DUP3 ADD MSTORE PUSH32 0x52657761726420746F6B656E732066756E64696E6720686173206E6F74207374 PUSH1 0x40 DUP3 ADD MSTORE PUSH32 0x6172746564207965742C206E6F20746F6B656E7320746F207570646174650000 PUSH1 0x60 DUP3 ADD MSTORE PUSH1 0x80 ADD SWAP1 JUMP JUMPDEST PUSH4 0x4E487B71 PUSH1 0xE0 SHL PUSH1 0x0 MSTORE PUSH1 0x32 PUSH1 0x4 MSTORE PUSH1 0x24 PUSH1 0x0 REVERT JUMPDEST PUSH1 0x0 PUSH1 0x3 RETURNDATASIZE GT ISZERO PUSH2 0x453B JUMPI PUSH1 0x4 PUSH1 0x0 DUP1 RETURNDATACOPY POP PUSH1 0x0 MLOAD PUSH1 0xE0 SHR JUMPDEST SWAP1 JUMP JUMPDEST PUSH1 0x0 PUSH1 0x44 RETURNDATASIZE LT ISZERO PUSH2 0x454C JUMPI SWAP1 JUMP JUMPDEST PUSH1 0x40 MLOAD PUSH1 0x3 NOT RETURNDATASIZE DUP2 ADD PUSH1 0x4 DUP4 RETURNDATACOPY DUP2 MLOAD RETURNDATASIZE PUSH8 0xFFFFFFFFFFFFFFFF DUP2 PUSH1 0x24 DUP5 ADD GT DUP2 DUP5 GT OR ISZERO PUSH2 0x457C JUMPI POP POP POP POP POP SWAP1 JUMP JUMPDEST DUP3 DUP6 ADD SWAP2 POP DUP2 MLOAD DUP2 DUP2 GT ISZERO PUSH2 0x4594 JUMPI POP POP POP POP POP POP SWAP1 JUMP JUMPDEST DUP5 RETURNDATASIZE DUP8 ADD ADD PUSH1 0x20 DUP3 DUP6 ADD ADD GT ISZERO PUSH2 0x45AE JUMPI POP POP POP POP POP POP SWAP1 JUMP JUMPDEST PUSH2 0x45BD PUSH1 0x20 DUP3 DUP7 ADD ADD DUP8 PUSH2 0x42A3 JUMP JUMPDEST POP SWAP1 SWAP6 SWAP5 POP POP POP POP POP JUMP JUMPDEST PUSH1 0x0 PUSH1 0x1 DUP1 PUSH1 0xA0 SHL SUB DUP1 DUP7 AND DUP4 MSTORE DUP1 DUP6 AND PUSH1 0x20 DUP5 ADD MSTORE POP PUSH1 0x60 PUSH1 0x40 DUP4 ADD MSTORE DUP3 MLOAD DUP1 PUSH1 0x60 DUP5 ADD MSTORE PUSH2 0x45FF DUP2 PUSH1 0x80 DUP6 ADD PUSH1 0x20 DUP8 ADD PUSH2 0x42D0 JUMP JUMPDEST PUSH1 0x1F ADD PUSH1 0x1F NOT AND SWAP2 SWAP1 SWAP2 ADD PUSH1 0x80 ADD SWAP5 SWAP4 POP POP POP POP JUMP JUMPDEST PUSH1 0x0 PUSH1 0x1 DUP3 ADD PUSH2 0x4627 JUMPI PUSH2 0x4627 PUSH2 0x40D5 JUMP JUMPDEST POP PUSH1 0x1 ADD SWAP1 JUMP JUMPDEST PUSH1 0x1 PUSH1 0x1 PUSH1 0xA0 SHL SUB DUP7 DUP2 AND DUP3 MSTORE PUSH1 0x60 PUSH1 0x20 DUP1 DUP5 ADD DUP3 SWAP1 MSTORE SWAP1 DUP4 ADD DUP7 SWAP1 MSTORE PUSH1 0x0 SWAP2 DUP8 SWAP2 PUSH1 0x80 DUP6 ADD DUP5 JUMPDEST DUP10 DUP2 LT ISZERO PUSH2 0x467B JUMPI DUP4 PUSH2 0x4668 DUP7 PUSH2 0x3D95 JUMP JUMPDEST AND DUP3 MSTORE SWAP4 DUP3 ADD SWAP4 SWAP1 DUP3 ADD SWAP1 PUSH1 0x1 ADD PUSH2 0x4656 JUMP JUMPDEST POP DUP6 DUP2 SUB PUSH1 0x40 DUP8 ADD MSTORE DUP7 DUP2 MSTORE PUSH1 0x1 PUSH1 0x1 PUSH1 0xFB SHL SUB DUP8 GT ISZERO PUSH2 0x469B JUMPI PUSH1 0x0 DUP1 REVERT JUMPDEST DUP7 PUSH1 0x5 SHL SWAP4 POP DUP4 DUP9 DUP4 DUP4 ADD CALLDATACOPY SWAP1 SWAP3 ADD SWAP1 SWAP2 ADD SWAP9 SWAP8 POP POP POP POP POP POP POP POP JUMP INVALID 0xCD 0x5E 0xD1 0x5C PUSH15 0x187E77E9AEE88184C21F4F2182AB58 0x27 0xCB EXTCODESIZE PUSH31 0x7FBEDCD63F033009B779B17422D0DF92223018B32B4D1FA46E071723D6817 0xE2 BASEFEE PUSH14 0x3BECC55F00F572C1A3C9723EE4 0xA9 SLOAD 0x4F 0xDD SWAP3 SWAP10 0xFB 0xDE LOG3 BLOCKHASH SWAP16 0x4E 0x29 0xA5 BYTE 0xE3 0x4E SHL PC CALLDATASIZE CALLVALUE POP 0xBA GT LOG2 PUSH5 0x6970667358 0x22 SLT KECCAK256 DUP1 0xAA 0x2C 0xE9 DUP12 0xD8 PUSH21 0x83A6BFD0C2BD1E506A11392352B8936AF90465795B XOR REVERT MOD 0xDD PUSH5 0x736F6C6343 STOP ADDMOD EQ STOP CALLER "},"methodIdentifiers":{"GROWTH_TOKENS_TOTAL()":"a868e997","GROWTH_TOKENS_WITHDRAWAL_PER_YEAR()":"1e6b4028","MIN_INTERVAL_FOR_UPDATE_REWARDS()":"e3682a5d","REWARD_TOKENS_PER_WEEK()":"42ecb464","REWARD_TOKENS_PER_YEAR()":"de51d567","REWARD_TOKENS_TOTAL()":"81f8ca1b","TEAM_TOKENS_LOCKED_PERIOD()":"dcb7ff6b","TEAM_TOKENS_TOTAL()":"5493b30d","TEAM_TOKENS_WITHDRAWAL_PER_YEAR()":"8e6d32df","TOKENS_WITHDRAWAL_PERIOD()":"59aa8966","addWalletToWhitelist(address,bool,uint256)":"8a194d04","calculateYearForTeamTokens()":"8bb4dadd","fundSmartContract(uint8,uint256)":"d3946a8c","growthTokensFunded()":"5d70203b","growthTokensFundingStarted()":"f3793b9d","growthTokensInSmartContract()":"d356b49a","growthTokensLastWithdrawalTime()":"687a83f8","growthTokensStartFundingTime()":"9656cd8c","growthTokensWithdrawn()":"6148c783","hyaxToken()":"3ba10a56","hyaxTokenAddress()":"031f6589","initialize(address)":"c4d66de8","maximumBatchSizeForUpdateRewards()":"b4ba9fd7","owner()":"8da5cb5b","pause()":"8456cb59","paused()":"5c975abb","renounceOwnership()":"715018a6","rewardTokensDistributed()":"e774ce43","rewardTokensFunded()":"fd559526","rewardTokensFundingStarted()":"ebc8e2dd","rewardTokensInSmartContract()":"8da2e27f","rewardTokensStartFundingTime()":"6e3ce4e1","rewardTokensWithdrawn()":"334c4cb3","rewardsUpdaterAddress()":"f972c027","teamTokensFunded()":"f8ff46c6","teamTokensFundingStarted()":"c1cc52b3","teamTokensInSmartContract()":"647a5a78","teamTokensStartFundingTime()":"1035fc09","teamTokensWithdrawn()":"d7e57fda","transferOwnership(address)":"f2fde38b","unpause()":"3f4ba83a","updateBlacklistStatus(address,bool)":"b8360806","updateHyaxTokenAddress(address)":"9bae9002","updateMaximumBatchSizeForUpdateRewards(uint8)":"2574cd9d","updateRewardsBatch(address[],uint256[])":"efce5587","updateRewardsSingle(address,uint256)":"fafd7c20","updateRewardsUpdaterAddress(address)":"6fce7873","updateTeamMemberWallet(address,address)":"3768c029","updateWhiteListerAddress(address)":"653c3a47","updateWhitelistStatus(address,bool)":"c07732a3","wallets(address)":"89b08f11","whiteListerAddress()":"65699d28","withdrawGrowthTokens()":"4c4dc42e","withdrawRewardTokens()":"370243dc","withdrawTeamTokens()":"953b7ef8","withdrawTokensToBurn(uint8,uint256)":"e2ccbfe4"}},"storageLayout":{"storage":[{"astId":978,"contract":"contracts/UpgradeableHYAXRewards.sol:UpgradeableHYAXRewards","label":"hyaxTokenAddress","offset":0,"slot":"0","type":"t_address"},{"astId":981,"contract":"contracts/UpgradeableHYAXRewards.sol:UpgradeableHYAXRewards","label":"hyaxToken","offset":0,"slot":"1","type":"t_contract(ERC20TokenInterface)839"},{"astId":1004,"contract":"contracts/UpgradeableHYAXRewards.sol:UpgradeableHYAXRewards","label":"growthTokensFunded","offset":0,"slot":"2","type":"t_uint256"},{"astId":1006,"contract":"contracts/UpgradeableHYAXRewards.sol:UpgradeableHYAXRewards","label":"growthTokensWithdrawn","offset":0,"slot":"3","type":"t_uint256"},{"astId":1008,"contract":"contracts/UpgradeableHYAXRewards.sol:UpgradeableHYAXRewards","label":"growthTokensInSmartContract","offset":0,"slot":"4","type":"t_uint256"},{"astId":1010,"contract":"contracts/UpgradeableHYAXRewards.sol:UpgradeableHYAXRewards","label":"growthTokensLastWithdrawalTime","offset":0,"slot":"5","type":"t_uint256"},{"astId":1012,"contract":"contracts/UpgradeableHYAXRewards.sol:UpgradeableHYAXRewards","label":"growthTokensStartFundingTime","offset":0,"slot":"6","type":"t_uint256"},{"astId":1014,"contract":"contracts/UpgradeableHYAXRewards.sol:UpgradeableHYAXRewards","label":"growthTokensFundingStarted","offset":0,"slot":"7","type":"t_bool"},{"astId":1033,"contract":"contracts/UpgradeableHYAXRewards.sol:UpgradeableHYAXRewards","label":"teamTokensFunded","offset":0,"slot":"8","type":"t_uint256"},{"astId":1035,"contract":"contracts/UpgradeableHYAXRewards.sol:UpgradeableHYAXRewards","label":"teamTokensWithdrawn","offset":0,"slot":"9","type":"t_uint256"},{"astId":1037,"contract":"contracts/UpgradeableHYAXRewards.sol:UpgradeableHYAXRewards","label":"teamTokensInSmartContract","offset":0,"slot":"10","type":"t_uint256"},{"astId":1039,"contract":"contracts/UpgradeableHYAXRewards.sol:UpgradeableHYAXRewards","label":"teamTokensStartFundingTime","offset":0,"slot":"11","type":"t_uint256"},{"astId":1041,"contract":"contracts/UpgradeableHYAXRewards.sol:UpgradeableHYAXRewards","label":"teamTokensFundingStarted","offset":0,"slot":"12","type":"t_bool"},{"astId":1062,"contract":"contracts/UpgradeableHYAXRewards.sol:UpgradeableHYAXRewards","label":"rewardTokensFunded","offset":0,"slot":"13","type":"t_uint256"},{"astId":1064,"contract":"contracts/UpgradeableHYAXRewards.sol:UpgradeableHYAXRewards","label":"rewardTokensDistributed","offset":0,"slot":"14","type":"t_uint256"},{"astId":1066,"contract":"contracts/UpgradeableHYAXRewards.sol:UpgradeableHYAXRewards","label":"rewardTokensWithdrawn","offset":0,"slot":"15","type":"t_uint256"},{"astId":1068,"contract":"contracts/UpgradeableHYAXRewards.sol:UpgradeableHYAXRewards","label":"rewardTokensInSmartContract","offset":0,"slot":"16","type":"t_uint256"},{"astId":1070,"contract":"contracts/UpgradeableHYAXRewards.sol:UpgradeableHYAXRewards","label":"rewardTokensStartFundingTime","offset":0,"slot":"17","type":"t_uint256"},{"astId":1072,"contract":"contracts/UpgradeableHYAXRewards.sol:UpgradeableHYAXRewards","label":"rewardTokensFundingStarted","offset":0,"slot":"18","type":"t_bool"},{"astId":1074,"contract":"contracts/UpgradeableHYAXRewards.sol:UpgradeableHYAXRewards","label":"whiteListerAddress","offset":1,"slot":"18","type":"t_address"},{"astId":1076,"contract":"contracts/UpgradeableHYAXRewards.sol:UpgradeableHYAXRewards","label":"rewardsUpdaterAddress","offset":0,"slot":"19","type":"t_address"},{"astId":1106,"contract":"contracts/UpgradeableHYAXRewards.sol:UpgradeableHYAXRewards","label":"maximumBatchSizeForUpdateRewards","offset":20,"slot":"19","type":"t_uint8"},{"astId":1111,"contract":"contracts/UpgradeableHYAXRewards.sol:UpgradeableHYAXRewards","label":"wallets","offset":0,"slot":"20","type":"t_mapping(t_address,t_struct(WalletData)1101_storage)"}],"types":{"t_address":{"encoding":"inplace","label":"address","numberOfBytes":"20"},"t_bool":{"encoding":"inplace","label":"bool","numberOfBytes":"1"},"t_contract(ERC20TokenInterface)839":{"encoding":"inplace","label":"contract ERC20TokenInterface","numberOfBytes":"20"},"t_mapping(t_address,t_struct(WalletData)1101_storage)":{"encoding":"mapping","key":"t_address","label":"mapping(address => struct UpgradeableHYAXRewards.WalletData)","numberOfBytes":"32","value":"t_struct(WalletData)1101_storage"},"t_struct(WalletData)1101_storage":{"encoding":"inplace","label":"struct UpgradeableHYAXRewards.WalletData","members":[{"astId":1078,"contract":"contracts/UpgradeableHYAXRewards.sol:UpgradeableHYAXRewards","label":"hyaxHoldingAmount","offset":0,"slot":"0","type":"t_uint256"},{"astId":1080,"contract":"contracts/UpgradeableHYAXRewards.sol:UpgradeableHYAXRewards","label":"hyaxHoldingAmountAtWhitelistTime","offset":0,"slot":"1","type":"t_uint256"},{"astId":1082,"contract":"contracts/UpgradeableHYAXRewards.sol:UpgradeableHYAXRewards","label":"totalHyaxRewardsAmount","offset":0,"slot":"2","type":"t_uint256"},{"astId":1084,"contract":"contracts/UpgradeableHYAXRewards.sol:UpgradeableHYAXRewards","label":"currentRewardsAmount","offset":0,"slot":"3","type":"t_uint256"},{"astId":1086,"contract":"contracts/UpgradeableHYAXRewards.sol:UpgradeableHYAXRewards","label":"rewardsWithdrawn","offset":0,"slot":"4","type":"t_uint256"},{"astId":1088,"contract":"contracts/UpgradeableHYAXRewards.sol:UpgradeableHYAXRewards","label":"addedToWhitelistTime","offset":0,"slot":"5","type":"t_uint256"},{"astId":1090,"contract":"contracts/UpgradeableHYAXRewards.sol:UpgradeableHYAXRewards","label":"teamTokenWithdrawalTimes","offset":0,"slot":"6","type":"t_uint8"},{"astId":1092,"contract":"contracts/UpgradeableHYAXRewards.sol:UpgradeableHYAXRewards","label":"lastRewardsWithdrawalTime","offset":0,"slot":"7","type":"t_uint256"},{"astId":1094,"contract":"contracts/UpgradeableHYAXRewards.sol:UpgradeableHYAXRewards","label":"lastRewardsUpdateTime","offset":0,"slot":"8","type":"t_uint256"},{"astId":1096,"contract":"contracts/UpgradeableHYAXRewards.sol:UpgradeableHYAXRewards","label":"isTeamWallet","offset":0,"slot":"9","type":"t_bool"},{"astId":1098,"contract":"contracts/UpgradeableHYAXRewards.sol:UpgradeableHYAXRewards","label":"isWhitelisted","offset":1,"slot":"9","type":"t_bool"},{"astId":1100,"contract":"contracts/UpgradeableHYAXRewards.sol:UpgradeableHYAXRewards","label":"isBlacklisted","offset":2,"slot":"9","type":"t_bool"}],"numberOfBytes":"320"},"t_uint256":{"encoding":"inplace","label":"uint256","numberOfBytes":"32"},"t_uint8":{"encoding":"inplace","label":"uint8","numberOfBytes":"1"}}}}}}