{"contracts/UpgradeableHYAXRewards.sol":{"UpgradeableHYAXRewards":{"abi":[{"inputs":[{"internalType":"address","name":"_hyaxTokenAddress","type":"address"}],"stateMutability":"nonpayable","type":"constructor"},{"inputs":[],"name":"EnforcedPause","type":"error"},{"inputs":[],"name":"ExpectedPause","type":"error"},{"inputs":[{"internalType":"address","name":"owner","type":"address"}],"name":"OwnableInvalidOwner","type":"error"},{"inputs":[{"internalType":"address","name":"account","type":"address"}],"name":"OwnableUnauthorizedAccount","type":"error"},{"inputs":[],"name":"ReentrancyGuardReentrantCall","type":"error"},{"anonymous":false,"inputs":[{"indexed":false,"internalType":"address","name":"_sender","type":"address"},{"indexed":false,"internalType":"address","name":"_walletAddress","type":"address"},{"indexed":false,"internalType":"bool","name":"_newStatus","type":"bool"}],"name":"BlacklistStatusUpdated","type":"event"},{"anonymous":false,"inputs":[{"indexed":false,"internalType":"enum UpgradeableHYAXRewards.FundingType","name":"_fundingType","type":"uint8"},{"indexed":false,"internalType":"uint256","name":"_amount","type":"uint256"}],"name":"FundingAdded","type":"event"},{"anonymous":false,"inputs":[{"indexed":false,"internalType":"address","name":"_walletAddress","type":"address"},{"indexed":false,"internalType":"uint256","name":"_amount","type":"uint256"}],"name":"GrowthTokensWithdrawn","type":"event"},{"anonymous":false,"inputs":[{"indexed":false,"internalType":"address","name":"_sender","type":"address"},{"indexed":false,"internalType":"address","name":"_origin","type":"address"}],"name":"LogSenderAndOrigin","type":"event"},{"anonymous":false,"inputs":[{"indexed":true,"internalType":"address","name":"previousOwner","type":"address"},{"indexed":true,"internalType":"address","name":"newOwner","type":"address"}],"name":"OwnershipTransferred","type":"event"},{"anonymous":false,"inputs":[{"indexed":false,"internalType":"address","name":"account","type":"address"}],"name":"Paused","type":"event"},{"anonymous":false,"inputs":[{"indexed":false,"internalType":"address","name":"_walletAddress","type":"address"},{"indexed":false,"internalType":"uint256","name":"_amount","type":"uint256"}],"name":"RewardTokensWithdrawn","type":"event"},{"anonymous":false,"inputs":[{"indexed":false,"internalType":"address","name":"_sender","type":"address"},{"indexed":false,"internalType":"address","name":"_walletAddress","type":"address"},{"indexed":false,"internalType":"string","name":"_errorMessage","type":"string"}],"name":"RewardUpdateFailed","type":"event"},{"anonymous":false,"inputs":[{"indexed":false,"internalType":"address","name":"_sender","type":"address"},{"indexed":false,"internalType":"address[]","name":"_walletAddresses","type":"address[]"},{"indexed":false,"internalType":"uint256[]","name":"_hyaxHoldingAmounts","type":"uint256[]"}],"name":"RewardsUpdated","type":"event"},{"anonymous":false,"inputs":[{"indexed":false,"internalType":"address","name":"_walletAddress","type":"address"},{"indexed":false,"internalType":"uint256","name":"_amount","type":"uint256"}],"name":"TeamTokensWithdrawn","type":"event"},{"anonymous":false,"inputs":[{"indexed":false,"internalType":"enum UpgradeableHYAXRewards.FundingType","name":"_fundingType","type":"uint8"},{"indexed":false,"internalType":"uint256","name":"_amount","type":"uint256"}],"name":"TokensToBurnWithdrawn","type":"event"},{"anonymous":false,"inputs":[{"indexed":false,"internalType":"address","name":"account","type":"address"}],"name":"Unpaused","type":"event"},{"anonymous":false,"inputs":[{"indexed":false,"internalType":"address","name":"_sender","type":"address"},{"indexed":false,"internalType":"address","name":"_walletAddress","type":"address"},{"indexed":false,"internalType":"bool","name":"_isTeamWallet","type":"bool"},{"indexed":false,"internalType":"uint256","name":"_hyaxHoldingAmount","type":"uint256"}],"name":"WalletAddedToWhitelist","type":"event"},{"anonymous":false,"inputs":[{"indexed":false,"internalType":"address","name":"_sender","type":"address"},{"indexed":false,"internalType":"address","name":"_walletAddress","type":"address"},{"indexed":false,"internalType":"bool","name":"_newStatus","type":"bool"}],"name":"WhitelistStatusUpdated","type":"event"},{"inputs":[],"name":"GROWTH_TOKENS_TOTAL","outputs":[{"internalType":"uint256","name":"","type":"uint256"}],"stateMutability":"view","type":"function"},{"inputs":[],"name":"GROWTH_TOKENS_WITHDRAWAL_PER_YEAR","outputs":[{"internalType":"uint256","name":"","type":"uint256"}],"stateMutability":"view","type":"function"},{"inputs":[],"name":"MAX_BATCH_SIZE_FOR_UPDATE_REWARDS","outputs":[{"internalType":"uint256","name":"","type":"uint256"}],"stateMutability":"view","type":"function"},{"inputs":[],"name":"MIN_INTERVAL_FOR_UPDATE_REWARDS","outputs":[{"internalType":"uint256","name":"","type":"uint256"}],"stateMutability":"view","type":"function"},{"inputs":[],"name":"REWARD_TOKENS_HOLDING_PERIOD","outputs":[{"internalType":"uint256","name":"","type":"uint256"}],"stateMutability":"view","type":"function"},{"inputs":[],"name":"REWARD_TOKENS_PER_WEEK","outputs":[{"internalType":"uint256","name":"","type":"uint256"}],"stateMutability":"view","type":"function"},{"inputs":[],"name":"REWARD_TOKENS_PER_YEAR","outputs":[{"internalType":"uint256","name":"","type":"uint256"}],"stateMutability":"view","type":"function"},{"inputs":[],"name":"REWARD_TOKENS_TOTAL","outputs":[{"internalType":"uint256","name":"","type":"uint256"}],"stateMutability":"view","type":"function"},{"inputs":[],"name":"TEAM_TOKENS_LOCKED_PERIOD","outputs":[{"internalType":"uint256","name":"","type":"uint256"}],"stateMutability":"view","type":"function"},{"inputs":[],"name":"TEAM_TOKENS_TOTAL","outputs":[{"internalType":"uint256","name":"","type":"uint256"}],"stateMutability":"view","type":"function"},{"inputs":[],"name":"TEAM_TOKENS_WITHDRAWAL_PER_YEAR","outputs":[{"internalType":"uint256","name":"","type":"uint256"}],"stateMutability":"view","type":"function"},{"inputs":[],"name":"TOKENS_WITHDRAWAL_PERIOD","outputs":[{"internalType":"uint256","name":"","type":"uint256"}],"stateMutability":"view","type":"function"},{"inputs":[{"internalType":"address","name":"_walletAddress","type":"address"},{"internalType":"bool","name":"_isTeamWallet","type":"bool"},{"internalType":"uint256","name":"_hyaxHoldingAmountAtWhitelistTime","type":"uint256"}],"name":"addWalletToWhitelist","outputs":[],"stateMutability":"nonpayable","type":"function"},{"inputs":[],"name":"calculateYearForTeamTokens","outputs":[{"internalType":"uint8","name":"","type":"uint8"}],"stateMutability":"view","type":"function"},{"inputs":[{"internalType":"enum UpgradeableHYAXRewards.FundingType","name":"_fundingType","type":"uint8"},{"internalType":"uint256","name":"_amount","type":"uint256"}],"name":"fundSmartContract","outputs":[],"stateMutability":"nonpayable","type":"function"},{"inputs":[],"name":"growthTokensFunded","outputs":[{"internalType":"uint256","name":"","type":"uint256"}],"stateMutability":"view","type":"function"},{"inputs":[],"name":"growthTokensFundingStarted","outputs":[{"internalType":"bool","name":"","type":"bool"}],"stateMutability":"view","type":"function"},{"inputs":[],"name":"growthTokensInSmartContract","outputs":[{"internalType":"uint256","name":"","type":"uint256"}],"stateMutability":"view","type":"function"},{"inputs":[],"name":"growthTokensLastWithdrawalTime","outputs":[{"internalType":"uint256","name":"","type":"uint256"}],"stateMutability":"view","type":"function"},{"inputs":[],"name":"growthTokensStartFundingTime","outputs":[{"internalType":"uint256","name":"","type":"uint256"}],"stateMutability":"view","type":"function"},{"inputs":[],"name":"growthTokensWithdrawn","outputs":[{"internalType":"uint256","name":"","type":"uint256"}],"stateMutability":"view","type":"function"},{"inputs":[],"name":"hyaxToken","outputs":[{"internalType":"contract ERC20TokenInterface","name":"","type":"address"}],"stateMutability":"view","type":"function"},{"inputs":[],"name":"hyaxTokenAddress","outputs":[{"internalType":"address","name":"","type":"address"}],"stateMutability":"view","type":"function"},{"inputs":[],"name":"owner","outputs":[{"internalType":"address","name":"","type":"address"}],"stateMutability":"view","type":"function"},{"inputs":[],"name":"pause","outputs":[],"stateMutability":"nonpayable","type":"function"},{"inputs":[],"name":"paused","outputs":[{"internalType":"bool","name":"","type":"bool"}],"stateMutability":"view","type":"function"},{"inputs":[],"name":"renounceOwnership","outputs":[],"stateMutability":"nonpayable","type":"function"},{"inputs":[],"name":"rewardTokensDistributed","outputs":[{"internalType":"uint256","name":"","type":"uint256"}],"stateMutability":"view","type":"function"},{"inputs":[],"name":"rewardTokensFunded","outputs":[{"internalType":"uint256","name":"","type":"uint256"}],"stateMutability":"view","type":"function"},{"inputs":[],"name":"rewardTokensFundingStarted","outputs":[{"internalType":"bool","name":"","type":"bool"}],"stateMutability":"view","type":"function"},{"inputs":[],"name":"rewardTokensInSmartContract","outputs":[{"internalType":"uint256","name":"","type":"uint256"}],"stateMutability":"view","type":"function"},{"inputs":[],"name":"rewardTokensStartFundingTime","outputs":[{"internalType":"uint256","name":"","type":"uint256"}],"stateMutability":"view","type":"function"},{"inputs":[],"name":"rewardTokensWithdrawn","outputs":[{"internalType":"uint256","name":"","type":"uint256"}],"stateMutability":"view","type":"function"},{"inputs":[],"name":"rewardsUpdaterAddress","outputs":[{"internalType":"address","name":"","type":"address"}],"stateMutability":"view","type":"function"},{"inputs":[],"name":"teamTokensFunded","outputs":[{"internalType":"uint256","name":"","type":"uint256"}],"stateMutability":"view","type":"function"},{"inputs":[],"name":"teamTokensFundingStarted","outputs":[{"internalType":"bool","name":"","type":"bool"}],"stateMutability":"view","type":"function"},{"inputs":[],"name":"teamTokensInSmartContract","outputs":[{"internalType":"uint256","name":"","type":"uint256"}],"stateMutability":"view","type":"function"},{"inputs":[],"name":"teamTokensLastWithdrawalTime","outputs":[{"internalType":"uint256","name":"","type":"uint256"}],"stateMutability":"view","type":"function"},{"inputs":[],"name":"teamTokensStartFundingTime","outputs":[{"internalType":"uint256","name":"","type":"uint256"}],"stateMutability":"view","type":"function"},{"inputs":[],"name":"teamTokensWithdrawn","outputs":[{"internalType":"uint256","name":"","type":"uint256"}],"stateMutability":"view","type":"function"},{"inputs":[{"internalType":"address","name":"newOwner","type":"address"}],"name":"transferOwnership","outputs":[],"stateMutability":"nonpayable","type":"function"},{"inputs":[],"name":"unpause","outputs":[],"stateMutability":"nonpayable","type":"function"},{"inputs":[{"internalType":"address","name":"_walletAddress","type":"address"},{"internalType":"bool","name":"_newStatus","type":"bool"}],"name":"updateBlacklistStatus","outputs":[],"stateMutability":"nonpayable","type":"function"},{"inputs":[{"internalType":"address","name":"_hyaxTokenAddress","type":"address"}],"name":"updateHyaxTokenAddress","outputs":[],"stateMutability":"nonpayable","type":"function"},{"inputs":[{"internalType":"address[]","name":"_walletAddresses","type":"address[]"},{"internalType":"uint256[]","name":"_hyaxRewards","type":"uint256[]"}],"name":"updateRewardsBatch","outputs":[],"stateMutability":"nonpayable","type":"function"},{"inputs":[{"internalType":"address","name":"_walletAddress","type":"address"},{"internalType":"uint256","name":"_hyaxRewards","type":"uint256"}],"name":"updateRewardsSingle","outputs":[],"stateMutability":"nonpayable","type":"function"},{"inputs":[{"internalType":"address","name":"_rewardsUpdaterAddress","type":"address"}],"name":"updateRewardsUpdaterAddress","outputs":[],"stateMutability":"nonpayable","type":"function"},{"inputs":[{"internalType":"address","name":"_whiteListerAddress","type":"address"}],"name":"updateWhiteListerAddress","outputs":[],"stateMutability":"nonpayable","type":"function"},{"inputs":[{"internalType":"address","name":"_walletAddress","type":"address"},{"internalType":"bool","name":"_newStatus","type":"bool"}],"name":"updateWhitelistStatus","outputs":[],"stateMutability":"nonpayable","type":"function"},{"inputs":[{"internalType":"address","name":"","type":"address"}],"name":"wallets","outputs":[{"internalType":"uint256","name":"hyaxHoldingAmount","type":"uint256"},{"internalType":"uint256","name":"hyaxHoldingAmountAtWhitelistTime","type":"uint256"},{"internalType":"uint256","name":"totalHyaxRewardsAmount","type":"uint256"},{"internalType":"uint256","name":"currentRewardsAmount","type":"uint256"},{"internalType":"uint256","name":"rewardsWithdrawn","type":"uint256"},{"internalType":"uint256","name":"addedToWhitelistTime","type":"uint256"},{"internalType":"uint8","name":"tokenWithdrawalTimes","type":"uint8"},{"internalType":"uint256","name":"lastRewardsWithdrawalTime","type":"uint256"},{"internalType":"uint256","name":"lastRewardsUpdateTime","type":"uint256"},{"internalType":"bool","name":"isTeamWallet","type":"bool"},{"internalType":"bool","name":"isWhitelisted","type":"bool"},{"internalType":"bool","name":"isBlacklisted","type":"bool"}],"stateMutability":"view","type":"function"},{"inputs":[],"name":"whiteListerAddress","outputs":[{"internalType":"address","name":"","type":"address"}],"stateMutability":"view","type":"function"},{"inputs":[],"name":"withdrawGrowthTokens","outputs":[],"stateMutability":"nonpayable","type":"function"},{"inputs":[],"name":"withdrawRewardTokens","outputs":[],"stateMutability":"nonpayable","type":"function"},{"inputs":[],"name":"withdrawTeamTokens","outputs":[],"stateMutability":"nonpayable","type":"function"},{"inputs":[{"internalType":"enum UpgradeableHYAXRewards.FundingType","name":"_fundingType","type":"uint8"},{"internalType":"uint256","name":"_amount","type":"uint256"}],"name":"withdrawTokensToBurn","outputs":[],"stateMutability":"nonpayable","type":"function"}],"evm":{"bytecode":{"linkReferences":{},"object":"60806040523480156200001157600080fd5b50604051620036583803806200365883398101604081905262000034916200020c565b33806200005c57604051631e4fbdf760e01b8152600060048201526024015b60405180910390fd5b6200006781620001bc565b506000805460ff60a01b1916815560018055600280546001600160a01b0384166001600160a01b0319918216811790925560038054909116821790556040805163090b282b60e31b6020808301919091528251808303600401815260248301808552815191909201206395d89b4160e01b909152915191936395d89b41926028808401938290030181865afa15801562000105573d6000803e3d6000fd5b505050506040513d6000823e601f3d908101601f191682016040526200012f91908101906200027a565b60405160200162000141919062000332565b6040516020818303038152906040528051906020012014620001a65760405162461bcd60e51b815260206004820152601f60248201527f4879617820746f6b656e2061646472657373206973206e6f742076616c696400604482015260640162000053565b5060006004819055600a81905560105562000350565b600080546001600160a01b038381166001600160a01b0319831681178455604051919092169283917f8be0079c531659141344cd1fd0a4f28419497f9722a3daafe3b4186f6b6457e09190a35050565b6000602082840312156200021f57600080fd5b81516001600160a01b03811681146200023757600080fd5b9392505050565b634e487b7160e01b600052604160045260246000fd5b60005b838110156200027157818101518382015260200162000257565b50506000910152565b6000602082840312156200028d57600080fd5b81516001600160401b0380821115620002a557600080fd5b818401915084601f830112620002ba57600080fd5b815181811115620002cf57620002cf6200023e565b604051601f8201601f19908116603f01168101908382118183101715620002fa57620002fa6200023e565b816040528281528760208487010111156200031457600080fd5b6200032783602083016020880162000254565b979650505050505050565b600082516200034681846020870162000254565b9190910192915050565b6132f880620003606000396000f3fe608060405234801561001057600080fd5b506004361061035d5760003560e01c80638bb4dadd116101d3578063d7e57fda11610104578063efce5587116100a2578063f8ff46c61161007c578063f8ff46c614610722578063f972c0271461072b578063fafd7c201461073e578063fd5595261461075157600080fd5b8063efce5587146106ef578063f2fde38b14610702578063f3793b9d1461071557600080fd5b8063e2ccbfe4116100de578063e2ccbfe4146106bc578063e3682a5d146106cf578063e774ce43146106d9578063ebc8e2dd146106e257600080fd5b8063d7e57fda14610696578063dcb7ff6b1461069f578063de51d567146106aa57600080fd5b8063a393952611610171578063c07732a31161014b578063c07732a31461065a578063c1cc52b31461066d578063d356b49a1461067a578063d3946a8c1461068357600080fd5b8063a39395261461062c578063a868e99714610634578063b83608061461064757600080fd5b80638e6d32df116101ad5780638e6d32df146105f6578063953b7ef8146106085780639656cd8c146106105780639bae90021461061957600080fd5b80638bb4dadd146105c25780638da2e27f146105dc5780638da5cb5b146105e557600080fd5b80635d70203b116102ad5780636fce78731161024b57806381f8ca1b1161022557806381f8ca1b146104bb5780638456cb59146104ce57806389b08f11146104d65780638a194d04146105af57600080fd5b80636fce787314610497578063715018a6146104aa5780637426a42a146104b257600080fd5b8063653c3a4711610287578063653c3a471461045a57806365699d281461046d578063687a83f8146104855780636e3ce4e11461048e57600080fd5b80635d70203b1461043f5780636148c78314610448578063647a5a781461045157600080fd5b80633ba10a561161031a5780634c4dc42e116102f45780634c4dc42e146103fb5780635493b30d1461040357806359aa8966146104165780635c975abb1461042157600080fd5b80633ba10a56146103d85780633f4ba83a146103eb57806342ecb464146103f357600080fd5b8063031f6589146103625780631035fc09146103925780631e6b4028146103a95780632558df21146103bb578063334c4cb3146103c5578063370243dc146103ce575b600080fd5b600254610375906001600160a01b031681565b6040516001600160a01b0390911681526020015b60405180910390f35b61039b600e5481565b604051908152602001610389565b61039b6a6342fd08f00f637800000081565b61039b62093a8081565b61039b60125481565b6103d661075a565b005b600354610375906001600160a01b031681565b6103d6610aa8565b61039b610aba565b6103d6610ad3565b61039b6b04d8c55aefb8c05b5c00000081565b61039b6301e1338081565b600054600160a01b900460ff165b6040519015158152602001610389565b61039b60045481565b61039b60055481565b61039b600c5481565b6103d6610468366004612bd9565b610dee565b6015546103759061010090046001600160a01b031681565b61039b60075481565b61039b60145481565b6103d66104a5366004612bd9565b610e1e565b6103d6610e48565b61039b600d5481565b61039b6b03e09de2596099e2b000000081565b6103d6610e5a565b61054d6104e4366004612bd9565b601760205260009081526040902080546001820154600283015460038401546004850154600586015460068701546007880154600889015460099099015497989697959694959394929360ff92831693919281811691610100810482169162010000909104168c565b604080519c8d5260208d019b909b52998b019890985260608a0196909652608089019490945260a088019290925260ff1660c087015260e086015261010085015215156101208401521515610140830152151561016082015261018001610389565b6103d66105bd366004612c09565b610e6a565b6105ca61122f565b60405160ff9091168152602001610389565b61039b60135481565b6000546001600160a01b0316610375565b61039b6af8277896582678ac00000081565b6103d66112a9565b61039b60085481565b6103d6610627366004612bd9565b6117c4565b61039b606481565b61039b6b07c13bc4b2c133c56000000081565b6103d6610655366004612c48565b6117f8565b6103d6610668366004612c48565b611927565b600f5461042f9060ff1681565b61039b60065481565b6103d6610691366004612c7f565b611a4b565b61039b600b5481565b61039b630784ce0081565b61039b6a7c13bc4b2c133c5600000081565b6103d66106ca366004612c7f565b611f6a565b61039b6207e90081565b61039b60115481565b60155461042f9060ff1681565b6103d66106fd366004612cfb565b612365565b6103d6610710366004612bd9565b61263d565b60095461042f9060ff1681565b61039b600a5481565b601654610375906001600160a01b031681565b6103d661074c366004612d67565b61272a565b61039b60105481565b3360008181526017602052604090206009015460ff6101009091041615156001146107a05760405162461bcd60e51b815260040161079790612d83565b60405180910390fd5b6107a8612a29565b3360009081526017602052604090206009015460ff6101009091041615156001146107e55760405162461bcd60e51b815260040161079790612d83565b3360009081526017602052604090206009015462010000900460ff161561081e5760405162461bcd60e51b815260040161079790612dba565b60155460ff166108405760405162461bcd60e51b815260040161079790612df1565b6b03e09de2596099e2b0000000601254106108ab5760405162461bcd60e51b815260206004820152602560248201527f416c6c2072657761726420746f6b656e732068617665206265656e2077697468604482015264323930bbb760d91b6064820152608401610797565b336000908152601760205260409020600301548061090b5760405162461bcd60e51b815260206004820181905260248201527f4e6f207265776172647320617661696c61626c6520746f2077697468647261776044820152606401610797565b60135481111561092d5760405162461bcd60e51b815260040161079790612e43565b336000908152601760205260408120600401805483929061094f908490612eaf565b9091555050336000908152601760205260408120600381018290554260079091015560138054839290610983908490612ec8565b92505081905550806012600082825461099c9190612eaf565b909155505060035460405163a9059cbb60e01b8152336004820152602481018390526001600160a01b039091169063a9059cbb906044016020604051808303816000875af11580156109f2573d6000803e3d6000fd5b505050506040513d601f19601f82011682018060405250810190610a169190612edb565b610a625760405162461bcd60e51b815260206004820181905260248201527f4661696c656420746f207472616e736665722072657761726420746f6b656e736044820152606401610797565b60408051338152602081018390527fd8a9090919355543d8c79690ceee3933c0bd4ffc742ae7f790d4bf44a043bb6c910160405180910390a150610aa560018055565b50565b610ab0612a53565b610ab8612a80565b565b610ad060346a7c13bc4b2c133c56000000612ef8565b81565b610adb612a53565b610ae3612a29565b60095460ff16610b055760405162461bcd60e51b815260040161079790612df1565b6301e13380600854610b179190612eaf565b421015610b805760405162461bcd60e51b815260206004820152603160248201527f43616e6e6f74207769746864726177206265666f7265203120796561722061666044820152701d195c88199d5b991a5b99c81cdd185c9d607a1b6064820152608401610797565b6b07c13bc4b2c133c56000000060055410610beb5760405162461bcd60e51b815260206004820152602560248201527f416c6c2067726f77746820746f6b656e732068617665206265656e2077697468604482015264323930bbb760d91b6064820152608401610797565b6301e13380600754610bfd9190612eaf565b421015610c4c5760405162461bcd60e51b815260206004820152601f60248201527f43616e206f6e6c79207769746864726177206f6e6365207065722079656172006044820152606401610797565b6005546a6342fd08f00f6378000000906b07c13bc4b2c133c56000000090610c75908390612eaf565b1115610c9757600554610c94906b07c13bc4b2c133c560000000612ec8565b90505b8060056000828254610ca99190612eaf565b925050819055508060066000828254610cc29190612ec8565b9091555050426007556003546001600160a01b031663a9059cbb610cee6000546001600160a01b031690565b6040516001600160e01b031960e084901b1681526001600160a01b039091166004820152602481018490526044016020604051808303816000875af1158015610d3b573d6000803e3d6000fd5b505050506040513d601f19601f82011682018060405250810190610d5f9190612edb565b610dab5760405162461bcd60e51b815260206004820181905260248201527f4661696c656420746f207472616e736665722067726f77746820746f6b656e736044820152606401610797565b60408051338152602081018390527fd0a5227bfa49cf178a8f7a87b90318ef05fc8330f469e0dccbe075784f426dbf910160405180910390a150610ab860018055565b610df6612a53565b601580546001600160a01b0390921661010002610100600160a81b0319909216919091179055565b610e26612a53565b601680546001600160a01b0319166001600160a01b0392909216919091179055565b610e50612a53565b610ab86000612ad5565b610e62612a53565b610ab8612b25565b6000546001600160a01b0316331480610e92575060155461010090046001600160a01b031633145b610eae5760405162461bcd60e51b815260040161079790612f1a565b604080513381523260208201526000805160206132a3833981519152910160405180910390a16001600160a01b038316600090815260176020526040902060090154610100900460ff1615610f455760405162461bcd60e51b815260206004820152601d60248201527f57616c6c657420697320616c72656164792077686974656c69737465640000006044820152606401610797565b6001600160a01b03831660009081526017602052604090206009015462010000900460ff1615610f875760405162461bcd60e51b815260040161079790612dba565b6001600160a01b03831660009081526017602052604081206009810180548515801562ffffff19909216919091176101001790915542600583015560068201805460ff1916905560078201839055600382018390556002820183905560049091019190915561113b57600081116110745760405162461bcd60e51b8152602060048201526044602482018190527f5465616d2077616c6c657473206d757374206265206164646564207769746820908201527f61206879617820686f6c64696e6720616d6f756e7420677265617465722074686064820152630616e20360e41b608482015260a401610797565b6b04d8c55aefb8c05b5c0000008111156111145760405162461bcd60e51b815260206004820152605560248201527f5465616d2077616c6c657473206d75737420626520616464656420776974682060448201527f61206879617820686f6c64696e6720616d6f756e74206c657373207468616e2060648201527474686520746f74616c207465616d20746f6b656e7360581b608482015260a401610797565b6001600160a01b0383166000908152601760205260409020600181018290558190556111da565b80156111b95760405162461bcd60e51b815260206004820152604160248201527f4e6f6e207465616d2077616c6c6574732063616e206f6e6c792062652061646460448201527f6564207769746820686f6c64696e6720616d6f756e7420657175616c20746f206064820152600360fc1b608482015260a401610797565b6001600160a01b038316600090815260176020526040812060018101829055555b604080513381526001600160a01b0385166020820152831515818301526060810183905290517fc294e522ba20b0699fe578649971cefdfdc8d0e330db37d0437849f38b3960e69181900360800190a1505050565b600080600e54426112409190612ec8565b9050630f099c00811061125557600591505090565b630d286880811061126857600491505090565b630b473500811061127b57600391505090565b6309660180811061128e57600291505090565b630784ce0081106112a157600191505090565b600091505090565b3360008181526017602052604090206009015460ff6101009091041615156001146112e65760405162461bcd60e51b815260040161079790612d83565b3360008181526017602052604090206009015462010000900460ff161561131f5760405162461bcd60e51b815260040161079790612dba565b611327612a29565b3360009081526017602052604090206009015460ff1615156001146113b45760405162461bcd60e51b815260206004820152603960248201527f4f6e6c79207465616d2077616c6c6574732063616e207769746864726177207460448201527f6f6b656e73207573696e6720746869732066756e6374696f6e000000000000006064820152608401610797565b600f5460ff166113d65760405162461bcd60e51b815260040161079790612df1565b336000908152601760205260409020600501546113f890630784ce0090612eaf565b4210156114775760405162461bcd60e51b815260206004820152604160248201527f43616e6e6f74207769746864726177206265666f72652034207965617273206160448201527f66746572206265696e6720616464656420746f207468652077686974656c69736064820152601d60fa1b608482015260a401610797565b6b04d8c55aefb8c05b5c000000600b54106114e05760405162461bcd60e51b815260206004820152602360248201527f416c6c207465616d20746f6b656e732068617665206265656e2077697468647260448201526230bbb760e91b6064820152608401610797565b336000908152601760205260409020546115475760405162461bcd60e51b815260206004820152602260248201527f4e6f206879617820686f6c64696e6720616d6f756e7420746f20776974686472604482015261617760f01b6064820152608401610797565b61154f61122f565b3360009081526017602052604090206006015460ff9182169116106115ca5760405162461bcd60e51b815260206004820152602b60248201527f43616e206f6e6c79207769746864726177207465616d20746f6b656e73206f6e60448201526a31b2903832b9103cb2b0b960a91b6064820152608401610797565b336000908152601760205260408120600101546115e990600590612ef8565b90506b04d8c55aefb8c05b5c00000081600b546116069190612eaf565b111561162857600b54611625906b04d8c55aefb8c05b5c000000612ec8565b90505b3360009081526017602052604081208054839290611647908490612ec8565b9250508190555080600b60008282546116609190612eaf565b9250508190555080600c60008282546116799190612ec8565b9091555050336000908152601760205260408120600601805460ff169161169f83612f77565b825460ff9182166101009390930a92830291909202199091161790555060035460405163a9059cbb60e01b8152336004820152602481018390526001600160a01b039091169063a9059cbb906044016020604051808303816000875af115801561170d573d6000803e3d6000fd5b505050506040513d601f19601f820116820180604052508101906117319190612edb565b61177d5760405162461bcd60e51b815260206004820152601e60248201527f4661696c656420746f207472616e73666572207465616d20746f6b656e7300006044820152606401610797565b60408051338152602081018390527f1e63f692f0a30c3957ac289d6a44616bd119f5502eba5ae440f3158cc2c2d291910160405180910390a1506117c060018055565b5050565b6117cc612a53565b600280546001600160a01b039092166001600160a01b0319928316811790915560038054909216179055565b6000546001600160a01b0316331480611820575060155461010090046001600160a01b031633145b61183c5760405162461bcd60e51b815260040161079790612f1a565b604080513381523260208201526000805160206132a3833981519152910160405180910390a16001600160a01b0382166000908152601760205260409020600901548115156201000090910460ff161515036118aa5760405162461bcd60e51b815260040161079790612f96565b6001600160a01b038216600081815260176020908152604091829020600901805462ff000019166201000086151590810291909117909155825133815291820193909352908101919091527f89a9c56967d4535d54c90bffd7cbd09f6d2a4c8e26b9e7f033f199d144e12b4e906060015b60405180910390a15050565b6000546001600160a01b031633148061194f575060155461010090046001600160a01b031633145b61196b5760405162461bcd60e51b815260040161079790612f1a565b604080513381523260208201526000805160206132a3833981519152910160405180910390a16001600160a01b03821660009081526017602052604090206009015481151561010090910460ff161515036119d85760405162461bcd60e51b815260040161079790612f96565b6001600160a01b038216600081815260176020908152604091829020600901805461ff00191661010086151590810291909117909155825133815291820193909352908101919091527f70bbee4e66e3fd40f7da099410cfd723ed4a0b4fec11f6cc968e850db827a88b9060600161191b565b611a53612a53565b611a5b612a29565b6000826002811115611a6f57611a6f612fe4565b1480611a8c57506001826002811115611a8a57611a8a612fe4565b145b80611aa857506002826002811115611aa657611aa6612fe4565b145b611aeb5760405162461bcd60e51b8152602060048201526014602482015273496e76616c69642066756e64696e67207479706560601b6044820152606401610797565b60008111611b3b5760405162461bcd60e51b815260206004820152601d60248201527f416d6f756e74206d7573742062652067726561746572207468616e20300000006044820152606401610797565b6003546040516323b872dd60e01b8152336004820152306024820152604481018390526001600160a01b03909116906323b872dd906064016020604051808303816000875af1158015611b92573d6000803e3d6000fd5b505050506040513d601f19601f82011682018060405250810190611bb69190612edb565b611c1c5760405162461bcd60e51b815260206004820152603160248201527f54686572652077617320616e206572726f72206f6e20726563656976696e672060448201527074686520746f6b656e2066756e64696e6760781b6064820152608401610797565b6000826002811115611c3057611c30612fe4565b03611d26576b07c13bc4b2c133c56000000081600454611c509190612eaf565b1115611cd05760405162461bcd60e51b815260206004820152604360248201527f416d6f756e7420746f2066756e642069732067726561746572207468616e207460448201527f686520746f74616c20696e74656e74656420666f722067726f77746820746f6b606482015262656e7360e81b608482015260a401610797565b8060046000828254611ce29190612eaf565b925050819055508060066000828254611cfb9190612eaf565b909155505060095460ff16611d21576009805460ff191660011790554260088190556007555b611f28565b6001826002811115611d3a57611d3a612fe4565b03611e28576b04d8c55aefb8c05b5c00000081600a54611d5a9190612eaf565b1115611dd85760405162461bcd60e51b815260206004820152604160248201527f416d6f756e7420746f2066756e642069732067726561746572207468616e207460448201527f686520746f74616c20696e74656e74656420666f72207465616d20746f6b656e6064820152607360f81b608482015260a401610797565b80600a6000828254611dea9190612eaf565b9250508190555080600c6000828254611e039190612eaf565b9091555050600f5460ff16611d2157600f805460ff1916600117905542600e55611f28565b6002826002811115611e3c57611e3c612fe4565b03611f28576b03e09de2596099e2b000000081601054611e5c9190612eaf565b1115611edc5760405162461bcd60e51b815260206004820152604360248201527f416d6f756e7420746f2066756e642069732067726561746572207468616e207460448201527f686520746f74616c20696e74656e74656420666f722072657761726420746f6b606482015262656e7360e81b608482015260a401610797565b8060106000828254611eee9190612eaf565b925050819055508060136000828254611f079190612eaf565b909155505060155460ff16611f28576015805460ff19166001179055426014555b7fbc0b9ecc68ec48681b8f5718fa26b9ce02021220455be5f5837a944140a80ea38282604051611f59929190612ffa565b60405180910390a16117c060018055565b611f72612a53565b611f7a612a29565b6000826002811115611f8e57611f8e612fe4565b1480611fab57506001826002811115611fa957611fa9612fe4565b145b80611fc757506002826002811115611fc557611fc5612fe4565b145b61200a5760405162461bcd60e51b8152602060048201526014602482015273496e76616c69642066756e64696e67207479706560601b6044820152606401610797565b6000811161205a5760405162461bcd60e51b815260206004820152601d60248201527f416d6f756e74206d7573742062652067726561746572207468616e20300000006044820152606401610797565b600082600281111561206e5761206e612fe4565b036121235760095460ff166120955760405162461bcd60e51b815260040161079790612df1565b6006548111156121065760405162461bcd60e51b815260206004820152603660248201527f496e73756666696369656e742067726f77746820746f6b656e7320696e2074686044820152756520636f6e747261637420746f20776974686472617760501b6064820152608401610797565b80600660008282546121189190612ec8565b909155506122549050565b600182600281111561213757612137612fe4565b036121df57600f5460ff1661215e5760405162461bcd60e51b815260040161079790612df1565b600c548111156121cd5760405162461bcd60e51b815260206004820152603460248201527f496e73756666696369656e74207465616d20746f6b656e7320696e2074686520604482015273636f6e747261637420746f20776974686472617760601b6064820152608401610797565b80600c60008282546121189190612ec8565b60028260028111156121f3576121f3612fe4565b036122545760155460ff1661221a5760405162461bcd60e51b815260040161079790612df1565b60135481111561223c5760405162461bcd60e51b815260040161079790612e43565b806013600082825461224e9190612ec8565b90915550505b6003546001600160a01b031663a9059cbb6122776000546001600160a01b031690565b6040516001600160e01b031960e084901b1681526001600160a01b039091166004820152602481018490526044016020604051808303816000875af11580156122c4573d6000803e3d6000fd5b505050506040513d601f19601f820116820180604052508101906122e89190612edb565b6123345760405162461bcd60e51b815260206004820181905260248201527f4661696c656420746f207472616e736665722067726f77746820746f6b656e736044820152606401610797565b7fb9db6f85cd4e97884845cfb10d7fbba4d9cd4b9516cf2795b4c50cd886875bab8282604051611f59929190612ffa565b6000546001600160a01b031633148061238857506016546001600160a01b031633145b8061239257503330145b6123ae5760405162461bcd60e51b815260040161079790613026565b604080513381523260208201526000805160206132a3833981519152910160405180910390a16123dc612a29565b60648311156124455760405162461bcd60e51b815260206004820152602f60248201527f42617463682073697a652065786365656473206c696d69742e204d617820626160448201526e07463682073697a652069732031303608c1b6064820152608401610797565b8281146124945760405162461bcd60e51b815260206004820152601960248201527f4172726179206c656e67746873206d757374206d617463682e000000000000006044820152606401610797565b60005b838110156125ee573063fafd7c208686848181106124b7576124b761309d565b90506020020160208101906124cc9190612bd9565b8585858181106124de576124de61309d565b6040516001600160e01b031960e087901b1681526001600160a01b0390941660048501526020029190910135602483015250604401600060405180830381600087803b15801561252d57600080fd5b505af192505050801561253e575060015b6125dc5761254a6130b3565b806308c379a0036125d0575061255e61310a565b8061256957506125d2565b7f80c7a907fb61ff886445c2feb367d7b196637d154438ec7337eb57021ef5f5a13387878581811061259d5761259d61309d565b90506020020160208101906125b29190612bd9565b836040516125c293929190613194565b60405180910390a1506125dc565b505b3d6000803e3d6000fd5b806125e6816131fe565b915050612497565b507f52dd8a4364e3d5ae29438c85e6a1b2b92585664b55e8ddfb78d1912f9b9b07b73385858585604051612626959493929190613217565b60405180910390a161263760018055565b50505050565b612645612a53565b6001600160a01b0381166126aa5760405162461bcd60e51b815260206004820152602660248201527f4f776e61626c653a206e6577206f776e657220697320746865207a65726f206160448201526564647265737360d01b6064820152608401610797565b306001600160a01b038216036127215760405162461bcd60e51b815260206004820152603660248201527f4f776e61626c653a206e6577206f776e65722063616e6e6f74206265207468656044820152752073616d6520636f6e7472616374206164647265737360501b6064820152608401610797565b610aa581612ad5565b6000546001600160a01b031633148061274d57506016546001600160a01b031633145b8061275757503330145b6127735760405162461bcd60e51b815260040161079790613026565b604080513381523260208201526000805160206132a3833981519152910160405180910390a16001600160a01b03821660009081526017602052604090206009015460ff6101009091041615156001146127df5760405162461bcd60e51b815260040161079790612d83565b6001600160a01b03821660009081526017602052604090206009015462010000900460ff16156128215760405162461bcd60e51b815260040161079790612dba565b6001600160a01b03821660009081526017602052604090206008015461284b906207e90090612eaf565b4210156128ad5760405162461bcd60e51b815260206004820152602a60248201527f546f6f20736f6f6e20746f20757064617465207265776172647320666f7220746044820152691a1a5cc81dd85b1b195d60b21b6064820152608401610797565b6128c360346a7c13bc4b2c133c56000000612ef8565b81111561293a576040805162461bcd60e51b81526020600482015260248101919091527f412073696e676c652077616c6c65742063616e6e6f742068617665207265776160448201527f72647320686967686572207468616e20746865207765656b6c79206c696d69746064820152608401610797565b6013548111156129a85760405162461bcd60e51b815260206004820152603360248201527f496e73756666696369656e742072657761726420746f6b656e7320746f2064696044820152727374726962757465206173207265776172647360681b6064820152608401610797565b80601160008282546129ba9190612eaf565b90915550506001600160a01b038216600090815260176020526040812042600882015560020180548392906129f0908490612eaf565b90915550506001600160a01b03821660009081526017602052604081206003018054839290612a20908490612eaf565b90915550505050565b600260015403612a4c57604051633ee5aeb560e01b815260040160405180910390fd5b6002600155565b6000546001600160a01b03163314610ab85760405163118cdaa760e01b8152336004820152602401610797565b612a88612b68565b6000805460ff60a01b191690557f5db9ee0a495bf2e6ff9c91a7834c1ba4fdd244a5e8aa4e537bd38aeae4b073aa335b6040516001600160a01b03909116815260200160405180910390a1565b600080546001600160a01b038381166001600160a01b0319831681178455604051919092169283917f8be0079c531659141344cd1fd0a4f28419497f9722a3daafe3b4186f6b6457e09190a35050565b612b2d612b92565b6000805460ff60a01b1916600160a01b1790557f62e78cea01bee320cd4e420270b5ea74000d11b0c9f74754ebdbfc544b05a258612ab83390565b600054600160a01b900460ff16610ab857604051638dfc202b60e01b815260040160405180910390fd5b600054600160a01b900460ff1615610ab85760405163d93c066560e01b815260040160405180910390fd5b80356001600160a01b0381168114612bd457600080fd5b919050565b600060208284031215612beb57600080fd5b612bf482612bbd565b9392505050565b8015158114610aa557600080fd5b600080600060608486031215612c1e57600080fd5b612c2784612bbd565b92506020840135612c3781612bfb565b929592945050506040919091013590565b60008060408385031215612c5b57600080fd5b612c6483612bbd565b91506020830135612c7481612bfb565b809150509250929050565b60008060408385031215612c9257600080fd5b823560038110612ca157600080fd5b946020939093013593505050565b60008083601f840112612cc157600080fd5b50813567ffffffffffffffff811115612cd957600080fd5b6020830191508360208260051b8501011115612cf457600080fd5b9250929050565b60008060008060408587031215612d1157600080fd5b843567ffffffffffffffff80821115612d2957600080fd5b612d3588838901612caf565b90965094506020870135915080821115612d4e57600080fd5b50612d5b87828801612caf565b95989497509550505050565b60008060408385031215612d7a57600080fd5b612ca183612bbd565b60208082526019908201527f57616c6c6574206973206e6f742077686974656c697374656400000000000000604082015260600190565b6020808252601b908201527f57616c6c657420686173206265656e20626c61636b6c69737465640000000000604082015260600190565b60208082526032908201527f46756e64696e6720686173206e6f742073746172746564207965742c206e6f20604082015271746f6b656e7320746f20776974686472617760701b606082015260800190565b60208082526036908201527f496e73756666696369656e742072657761726420746f6b656e7320696e2074686040820152756520636f6e747261637420746f20776974686472617760501b606082015260800190565b634e487b7160e01b600052601160045260246000fd5b80820180821115612ec257612ec2612e99565b92915050565b81810381811115612ec257612ec2612e99565b600060208284031215612eed57600080fd5b8151612bf481612bfb565b600082612f1557634e487b7160e01b600052601260045260246000fd5b500490565b60208082526037908201527f46756e6374696f6e207265736572766564206f6e6c7920666f7220746865207760408201527f686974656c6973746572206f7220746865206f776e6572000000000000000000606082015260800190565b600060ff821660ff8103612f8d57612f8d612e99565b60010192915050565b6020808252602e908201527f57616c6c65742068617320616c7265616479206265656e20757064617465642060408201526d746f20746861742073746174757360901b606082015260800190565b634e487b7160e01b600052602160045260246000fd5b604081016003841061301c57634e487b7160e01b600052602160045260246000fd5b9281526020015290565b60208082526051908201527f46756e6374696f6e207265736572766564206f6e6c7920666f7220746865207260408201527f65776172647320757064617465722c20746865206f776e65722c206f72207468606082015270329031b7b73a3930b1ba1034ba39b2b63360791b608082015260a00190565b634e487b7160e01b600052603260045260246000fd5b600060033d11156130cc5760046000803e5060005160e01c5b90565b601f8201601f1916810167ffffffffffffffff8111828210171561310357634e487b7160e01b600052604160045260246000fd5b6040525050565b600060443d10156131185790565b6040516003193d81016004833e81513d67ffffffffffffffff816024840111818411171561314857505050505090565b82850191508151818111156131605750505050505090565b843d870101602082850101111561317a5750505050505090565b613189602082860101876130cf565b509095945050505050565b600060018060a01b038086168352602081861681850152606060408501528451915081606085015260005b828110156131db578581018201518582016080015281016131bf565b50506000608082850101526080601f19601f830116840101915050949350505050565b60006001820161321057613210612e99565b5060010190565b6001600160a01b03868116825260606020808401829052908301869052600091879160808501845b89811015613264578361325186612bbd565b168252938201939082019060010161323f565b5085810360408701528681526001600160fb1b0387111561328457600080fd5b8660051b93508388838301379092019091019897505050505050505056fef572c1a3c9723ee4a9544fdd9299fbdea3409f4e29a51ae34e1b58363450ba11a264697066735822122034ac85d039baea7dbd8428a0979879a11cd5053f97bb9fa37262050962f3bcbe64736f6c63430008140033","opcodes":"PUSH1 0x80 PUSH1 0x40 MSTORE CALLVALUE DUP1 ISZERO PUSH3 0x11 JUMPI PUSH1 0x0 DUP1 REVERT JUMPDEST POP PUSH1 0x40 MLOAD PUSH3 0x3658 CODESIZE SUB DUP1 PUSH3 0x3658 DUP4 CODECOPY DUP2 ADD PUSH1 0x40 DUP2 SWAP1 MSTORE PUSH3 0x34 SWAP2 PUSH3 0x20C JUMP JUMPDEST CALLER DUP1 PUSH3 0x5C JUMPI PUSH1 0x40 MLOAD PUSH4 0x1E4FBDF7 PUSH1 0xE0 SHL DUP2 MSTORE PUSH1 0x0 PUSH1 0x4 DUP3 ADD MSTORE PUSH1 0x24 ADD JUMPDEST PUSH1 0x40 MLOAD DUP1 SWAP2 SUB SWAP1 REVERT JUMPDEST PUSH3 0x67 DUP2 PUSH3 0x1BC JUMP JUMPDEST POP PUSH1 0x0 DUP1 SLOAD PUSH1 0xFF PUSH1 0xA0 SHL NOT AND DUP2 SSTORE PUSH1 0x1 DUP1 SSTORE PUSH1 0x2 DUP1 SLOAD PUSH1 0x1 PUSH1 0x1 PUSH1 0xA0 SHL SUB DUP5 AND PUSH1 0x1 PUSH1 0x1 PUSH1 0xA0 SHL SUB NOT SWAP2 DUP3 AND DUP2 OR SWAP1 SWAP3 SSTORE PUSH1 0x3 DUP1 SLOAD SWAP1 SWAP2 AND DUP3 OR SWAP1 SSTORE PUSH1 0x40 DUP1 MLOAD PUSH4 0x90B282B PUSH1 0xE3 SHL PUSH1 0x20 DUP1 DUP4 ADD SWAP2 SWAP1 SWAP2 MSTORE DUP3 MLOAD DUP1 DUP4 SUB PUSH1 0x4 ADD DUP2 MSTORE PUSH1 0x24 DUP4 ADD DUP1 DUP6 MSTORE DUP2 MLOAD SWAP2 SWAP1 SWAP3 ADD KECCAK256 PUSH4 0x95D89B41 PUSH1 0xE0 SHL SWAP1 SWAP2 MSTORE SWAP2 MLOAD SWAP2 SWAP4 PUSH4 0x95D89B41 SWAP3 PUSH1 0x28 DUP1 DUP5 ADD SWAP4 DUP3 SWAP1 SUB ADD DUP2 DUP7 GAS STATICCALL ISZERO DUP1 ISZERO PUSH3 0x105 JUMPI RETURNDATASIZE PUSH1 0x0 DUP1 RETURNDATACOPY RETURNDATASIZE PUSH1 0x0 REVERT JUMPDEST POP POP POP POP PUSH1 0x40 MLOAD RETURNDATASIZE PUSH1 0x0 DUP3 RETURNDATACOPY PUSH1 0x1F RETURNDATASIZE SWAP1 DUP2 ADD PUSH1 0x1F NOT AND DUP3 ADD PUSH1 0x40 MSTORE PUSH3 0x12F SWAP2 SWAP1 DUP2 ADD SWAP1 PUSH3 0x27A JUMP JUMPDEST PUSH1 0x40 MLOAD PUSH1 0x20 ADD PUSH3 0x141 SWAP2 SWAP1 PUSH3 0x332 JUMP JUMPDEST PUSH1 0x40 MLOAD PUSH1 0x20 DUP2 DUP4 SUB SUB DUP2 MSTORE SWAP1 PUSH1 0x40 MSTORE DUP1 MLOAD SWAP1 PUSH1 0x20 ADD KECCAK256 EQ PUSH3 0x1A6 JUMPI PUSH1 0x40 MLOAD PUSH3 0x461BCD PUSH1 0xE5 SHL DUP2 MSTORE PUSH1 0x20 PUSH1 0x4 DUP3 ADD MSTORE PUSH1 0x1F PUSH1 0x24 DUP3 ADD MSTORE PUSH32 0x4879617820746F6B656E2061646472657373206973206E6F742076616C696400 PUSH1 0x44 DUP3 ADD MSTORE PUSH1 0x64 ADD PUSH3 0x53 JUMP JUMPDEST POP PUSH1 0x0 PUSH1 0x4 DUP2 SWAP1 SSTORE PUSH1 0xA DUP2 SWAP1 SSTORE PUSH1 0x10 SSTORE PUSH3 0x350 JUMP JUMPDEST PUSH1 0x0 DUP1 SLOAD PUSH1 0x1 PUSH1 0x1 PUSH1 0xA0 SHL SUB DUP4 DUP2 AND PUSH1 0x1 PUSH1 0x1 PUSH1 0xA0 SHL SUB NOT DUP4 AND DUP2 OR DUP5 SSTORE PUSH1 0x40 MLOAD SWAP2 SWAP1 SWAP3 AND SWAP3 DUP4 SWAP2 PUSH32 0x8BE0079C531659141344CD1FD0A4F28419497F9722A3DAAFE3B4186F6B6457E0 SWAP2 SWAP1 LOG3 POP POP JUMP JUMPDEST PUSH1 0x0 PUSH1 0x20 DUP3 DUP5 SUB SLT ISZERO PUSH3 0x21F JUMPI PUSH1 0x0 DUP1 REVERT JUMPDEST DUP2 MLOAD PUSH1 0x1 PUSH1 0x1 PUSH1 0xA0 SHL SUB DUP2 AND DUP2 EQ PUSH3 0x237 JUMPI PUSH1 0x0 DUP1 REVERT JUMPDEST SWAP4 SWAP3 POP POP POP JUMP JUMPDEST PUSH4 0x4E487B71 PUSH1 0xE0 SHL PUSH1 0x0 MSTORE PUSH1 0x41 PUSH1 0x4 MSTORE PUSH1 0x24 PUSH1 0x0 REVERT JUMPDEST PUSH1 0x0 JUMPDEST DUP4 DUP2 LT ISZERO PUSH3 0x271 JUMPI DUP2 DUP2 ADD MLOAD DUP4 DUP3 ADD MSTORE PUSH1 0x20 ADD PUSH3 0x257 JUMP JUMPDEST POP POP PUSH1 0x0 SWAP2 ADD MSTORE JUMP JUMPDEST PUSH1 0x0 PUSH1 0x20 DUP3 DUP5 SUB SLT ISZERO PUSH3 0x28D JUMPI PUSH1 0x0 DUP1 REVERT JUMPDEST DUP2 MLOAD PUSH1 0x1 PUSH1 0x1 PUSH1 0x40 SHL SUB DUP1 DUP3 GT ISZERO PUSH3 0x2A5 JUMPI PUSH1 0x0 DUP1 REVERT JUMPDEST DUP2 DUP5 ADD SWAP2 POP DUP5 PUSH1 0x1F DUP4 ADD SLT PUSH3 0x2BA JUMPI PUSH1 0x0 DUP1 REVERT JUMPDEST DUP2 MLOAD DUP2 DUP2 GT ISZERO PUSH3 0x2CF JUMPI PUSH3 0x2CF PUSH3 0x23E JUMP JUMPDEST PUSH1 0x40 MLOAD PUSH1 0x1F DUP3 ADD PUSH1 0x1F NOT SWAP1 DUP2 AND PUSH1 0x3F ADD AND DUP2 ADD SWAP1 DUP4 DUP3 GT DUP2 DUP4 LT OR ISZERO PUSH3 0x2FA JUMPI PUSH3 0x2FA PUSH3 0x23E JUMP JUMPDEST DUP2 PUSH1 0x40 MSTORE DUP3 DUP2 MSTORE DUP8 PUSH1 0x20 DUP5 DUP8 ADD ADD GT ISZERO PUSH3 0x314 JUMPI PUSH1 0x0 DUP1 REVERT JUMPDEST PUSH3 0x327 DUP4 PUSH1 0x20 DUP4 ADD PUSH1 0x20 DUP9 ADD PUSH3 0x254 JUMP JUMPDEST SWAP8 SWAP7 POP POP POP POP POP POP POP JUMP JUMPDEST PUSH1 0x0 DUP3 MLOAD PUSH3 0x346 DUP2 DUP5 PUSH1 0x20 DUP8 ADD PUSH3 0x254 JUMP JUMPDEST SWAP2 SWAP1 SWAP2 ADD SWAP3 SWAP2 POP POP JUMP JUMPDEST PUSH2 0x32F8 DUP1 PUSH3 0x360 PUSH1 0x0 CODECOPY PUSH1 0x0 RETURN INVALID PUSH1 0x80 PUSH1 0x40 MSTORE CALLVALUE DUP1 ISZERO PUSH2 0x10 JUMPI PUSH1 0x0 DUP1 REVERT JUMPDEST POP PUSH1 0x4 CALLDATASIZE LT PUSH2 0x35D JUMPI PUSH1 0x0 CALLDATALOAD PUSH1 0xE0 SHR DUP1 PUSH4 0x8BB4DADD GT PUSH2 0x1D3 JUMPI DUP1 PUSH4 0xD7E57FDA GT PUSH2 0x104 JUMPI DUP1 PUSH4 0xEFCE5587 GT PUSH2 0xA2 JUMPI DUP1 PUSH4 0xF8FF46C6 GT PUSH2 0x7C JUMPI DUP1 PUSH4 0xF8FF46C6 EQ PUSH2 0x722 JUMPI DUP1 PUSH4 0xF972C027 EQ PUSH2 0x72B JUMPI DUP1 PUSH4 0xFAFD7C20 EQ PUSH2 0x73E JUMPI DUP1 PUSH4 0xFD559526 EQ PUSH2 0x751 JUMPI PUSH1 0x0 DUP1 REVERT JUMPDEST DUP1 PUSH4 0xEFCE5587 EQ PUSH2 0x6EF JUMPI DUP1 PUSH4 0xF2FDE38B EQ PUSH2 0x702 JUMPI DUP1 PUSH4 0xF3793B9D EQ PUSH2 0x715 JUMPI PUSH1 0x0 DUP1 REVERT JUMPDEST DUP1 PUSH4 0xE2CCBFE4 GT PUSH2 0xDE JUMPI DUP1 PUSH4 0xE2CCBFE4 EQ PUSH2 0x6BC JUMPI DUP1 PUSH4 0xE3682A5D EQ PUSH2 0x6CF JUMPI DUP1 PUSH4 0xE774CE43 EQ PUSH2 0x6D9 JUMPI DUP1 PUSH4 0xEBC8E2DD EQ PUSH2 0x6E2 JUMPI PUSH1 0x0 DUP1 REVERT JUMPDEST DUP1 PUSH4 0xD7E57FDA EQ PUSH2 0x696 JUMPI DUP1 PUSH4 0xDCB7FF6B EQ PUSH2 0x69F JUMPI DUP1 PUSH4 0xDE51D567 EQ PUSH2 0x6AA JUMPI PUSH1 0x0 DUP1 REVERT JUMPDEST DUP1 PUSH4 0xA3939526 GT PUSH2 0x171 JUMPI DUP1 PUSH4 0xC07732A3 GT PUSH2 0x14B JUMPI DUP1 PUSH4 0xC07732A3 EQ PUSH2 0x65A JUMPI DUP1 PUSH4 0xC1CC52B3 EQ PUSH2 0x66D JUMPI DUP1 PUSH4 0xD356B49A EQ PUSH2 0x67A JUMPI DUP1 PUSH4 0xD3946A8C EQ PUSH2 0x683 JUMPI PUSH1 0x0 DUP1 REVERT JUMPDEST DUP1 PUSH4 0xA3939526 EQ PUSH2 0x62C JUMPI DUP1 PUSH4 0xA868E997 EQ PUSH2 0x634 JUMPI DUP1 PUSH4 0xB8360806 EQ PUSH2 0x647 JUMPI PUSH1 0x0 DUP1 REVERT JUMPDEST DUP1 PUSH4 0x8E6D32DF GT PUSH2 0x1AD JUMPI DUP1 PUSH4 0x8E6D32DF EQ PUSH2 0x5F6 JUMPI DUP1 PUSH4 0x953B7EF8 EQ PUSH2 0x608 JUMPI DUP1 PUSH4 0x9656CD8C EQ PUSH2 0x610 JUMPI DUP1 PUSH4 0x9BAE9002 EQ PUSH2 0x619 JUMPI PUSH1 0x0 DUP1 REVERT JUMPDEST DUP1 PUSH4 0x8BB4DADD EQ PUSH2 0x5C2 JUMPI DUP1 PUSH4 0x8DA2E27F EQ PUSH2 0x5DC JUMPI DUP1 PUSH4 0x8DA5CB5B EQ PUSH2 0x5E5 JUMPI PUSH1 0x0 DUP1 REVERT JUMPDEST DUP1 PUSH4 0x5D70203B GT PUSH2 0x2AD JUMPI DUP1 PUSH4 0x6FCE7873 GT PUSH2 0x24B JUMPI DUP1 PUSH4 0x81F8CA1B GT PUSH2 0x225 JUMPI DUP1 PUSH4 0x81F8CA1B EQ PUSH2 0x4BB JUMPI DUP1 PUSH4 0x8456CB59 EQ PUSH2 0x4CE JUMPI DUP1 PUSH4 0x89B08F11 EQ PUSH2 0x4D6 JUMPI DUP1 PUSH4 0x8A194D04 EQ PUSH2 0x5AF JUMPI PUSH1 0x0 DUP1 REVERT JUMPDEST DUP1 PUSH4 0x6FCE7873 EQ PUSH2 0x497 JUMPI DUP1 PUSH4 0x715018A6 EQ PUSH2 0x4AA JUMPI DUP1 PUSH4 0x7426A42A EQ PUSH2 0x4B2 JUMPI PUSH1 0x0 DUP1 REVERT JUMPDEST DUP1 PUSH4 0x653C3A47 GT PUSH2 0x287 JUMPI DUP1 PUSH4 0x653C3A47 EQ PUSH2 0x45A JUMPI DUP1 PUSH4 0x65699D28 EQ PUSH2 0x46D JUMPI DUP1 PUSH4 0x687A83F8 EQ PUSH2 0x485 JUMPI DUP1 PUSH4 0x6E3CE4E1 EQ PUSH2 0x48E JUMPI PUSH1 0x0 DUP1 REVERT JUMPDEST DUP1 PUSH4 0x5D70203B EQ PUSH2 0x43F JUMPI DUP1 PUSH4 0x6148C783 EQ PUSH2 0x448 JUMPI DUP1 PUSH4 0x647A5A78 EQ PUSH2 0x451 JUMPI PUSH1 0x0 DUP1 REVERT JUMPDEST DUP1 PUSH4 0x3BA10A56 GT PUSH2 0x31A JUMPI DUP1 PUSH4 0x4C4DC42E GT PUSH2 0x2F4 JUMPI DUP1 PUSH4 0x4C4DC42E EQ PUSH2 0x3FB JUMPI DUP1 PUSH4 0x5493B30D EQ PUSH2 0x403 JUMPI DUP1 PUSH4 0x59AA8966 EQ PUSH2 0x416 JUMPI DUP1 PUSH4 0x5C975ABB EQ PUSH2 0x421 JUMPI PUSH1 0x0 DUP1 REVERT JUMPDEST DUP1 PUSH4 0x3BA10A56 EQ PUSH2 0x3D8 JUMPI DUP1 PUSH4 0x3F4BA83A EQ PUSH2 0x3EB JUMPI DUP1 PUSH4 0x42ECB464 EQ PUSH2 0x3F3 JUMPI PUSH1 0x0 DUP1 REVERT JUMPDEST DUP1 PUSH4 0x31F6589 EQ PUSH2 0x362 JUMPI DUP1 PUSH4 0x1035FC09 EQ PUSH2 0x392 JUMPI DUP1 PUSH4 0x1E6B4028 EQ PUSH2 0x3A9 JUMPI DUP1 PUSH4 0x2558DF21 EQ PUSH2 0x3BB JUMPI DUP1 PUSH4 0x334C4CB3 EQ PUSH2 0x3C5 JUMPI DUP1 PUSH4 0x370243DC EQ PUSH2 0x3CE JUMPI JUMPDEST PUSH1 0x0 DUP1 REVERT JUMPDEST PUSH1 0x2 SLOAD PUSH2 0x375 SWAP1 PUSH1 0x1 PUSH1 0x1 PUSH1 0xA0 SHL SUB AND DUP2 JUMP JUMPDEST PUSH1 0x40 MLOAD PUSH1 0x1 PUSH1 0x1 PUSH1 0xA0 SHL SUB SWAP1 SWAP2 AND DUP2 MSTORE PUSH1 0x20 ADD JUMPDEST PUSH1 0x40 MLOAD DUP1 SWAP2 SUB SWAP1 RETURN JUMPDEST PUSH2 0x39B PUSH1 0xE SLOAD DUP2 JUMP JUMPDEST PUSH1 0x40 MLOAD SWAP1 DUP2 MSTORE PUSH1 0x20 ADD PUSH2 0x389 JUMP JUMPDEST PUSH2 0x39B PUSH11 0x6342FD08F00F6378000000 DUP2 JUMP JUMPDEST PUSH2 0x39B PUSH3 0x93A80 DUP2 JUMP JUMPDEST PUSH2 0x39B PUSH1 0x12 SLOAD DUP2 JUMP JUMPDEST PUSH2 0x3D6 PUSH2 0x75A JUMP JUMPDEST STOP JUMPDEST PUSH1 0x3 SLOAD PUSH2 0x375 SWAP1 PUSH1 0x1 PUSH1 0x1 PUSH1 0xA0 SHL SUB AND DUP2 JUMP JUMPDEST PUSH2 0x3D6 PUSH2 0xAA8 JUMP JUMPDEST PUSH2 0x39B PUSH2 0xABA JUMP JUMPDEST PUSH2 0x3D6 PUSH2 0xAD3 JUMP JUMPDEST PUSH2 0x39B PUSH12 0x4D8C55AEFB8C05B5C000000 DUP2 JUMP JUMPDEST PUSH2 0x39B PUSH4 0x1E13380 DUP2 JUMP JUMPDEST PUSH1 0x0 SLOAD PUSH1 0x1 PUSH1 0xA0 SHL SWAP1 DIV PUSH1 0xFF AND JUMPDEST PUSH1 0x40 MLOAD SWAP1 ISZERO ISZERO DUP2 MSTORE PUSH1 0x20 ADD PUSH2 0x389 JUMP JUMPDEST PUSH2 0x39B PUSH1 0x4 SLOAD DUP2 JUMP JUMPDEST PUSH2 0x39B PUSH1 0x5 SLOAD DUP2 JUMP JUMPDEST PUSH2 0x39B PUSH1 0xC SLOAD DUP2 JUMP JUMPDEST PUSH2 0x3D6 PUSH2 0x468 CALLDATASIZE PUSH1 0x4 PUSH2 0x2BD9 JUMP JUMPDEST PUSH2 0xDEE JUMP JUMPDEST PUSH1 0x15 SLOAD PUSH2 0x375 SWAP1 PUSH2 0x100 SWAP1 DIV PUSH1 0x1 PUSH1 0x1 PUSH1 0xA0 SHL SUB AND DUP2 JUMP JUMPDEST PUSH2 0x39B PUSH1 0x7 SLOAD DUP2 JUMP JUMPDEST PUSH2 0x39B PUSH1 0x14 SLOAD DUP2 JUMP JUMPDEST PUSH2 0x3D6 PUSH2 0x4A5 CALLDATASIZE PUSH1 0x4 PUSH2 0x2BD9 JUMP JUMPDEST PUSH2 0xE1E JUMP JUMPDEST PUSH2 0x3D6 PUSH2 0xE48 JUMP JUMPDEST PUSH2 0x39B PUSH1 0xD SLOAD DUP2 JUMP JUMPDEST PUSH2 0x39B PUSH12 0x3E09DE2596099E2B0000000 DUP2 JUMP JUMPDEST PUSH2 0x3D6 PUSH2 0xE5A JUMP JUMPDEST PUSH2 0x54D PUSH2 0x4E4 CALLDATASIZE PUSH1 0x4 PUSH2 0x2BD9 JUMP JUMPDEST PUSH1 0x17 PUSH1 0x20 MSTORE PUSH1 0x0 SWAP1 DUP2 MSTORE PUSH1 0x40 SWAP1 KECCAK256 DUP1 SLOAD PUSH1 0x1 DUP3 ADD SLOAD PUSH1 0x2 DUP4 ADD SLOAD PUSH1 0x3 DUP5 ADD SLOAD PUSH1 0x4 DUP6 ADD SLOAD PUSH1 0x5 DUP7 ADD SLOAD PUSH1 0x6 DUP8 ADD SLOAD PUSH1 0x7 DUP9 ADD SLOAD PUSH1 0x8 DUP10 ADD SLOAD PUSH1 0x9 SWAP1 SWAP10 ADD SLOAD SWAP8 SWAP9 SWAP7 SWAP8 SWAP6 SWAP7 SWAP5 SWAP6 SWAP4 SWAP5 SWAP3 SWAP4 PUSH1 0xFF SWAP3 DUP4 AND SWAP4 SWAP2 SWAP3 DUP2 DUP2 AND SWAP2 PUSH2 0x100 DUP2 DIV DUP3 AND SWAP2 PUSH3 0x10000 SWAP1 SWAP2 DIV AND DUP13 JUMP JUMPDEST PUSH1 0x40 DUP1 MLOAD SWAP13 DUP14 MSTORE PUSH1 0x20 DUP14 ADD SWAP12 SWAP1 SWAP12 MSTORE SWAP10 DUP12 ADD SWAP9 SWAP1 SWAP9 MSTORE PUSH1 0x60 DUP11 ADD SWAP7 SWAP1 SWAP7 MSTORE PUSH1 0x80 DUP10 ADD SWAP5 SWAP1 SWAP5 MSTORE PUSH1 0xA0 DUP9 ADD SWAP3 SWAP1 SWAP3 MSTORE PUSH1 0xFF AND PUSH1 0xC0 DUP8 ADD MSTORE PUSH1 0xE0 DUP7 ADD MSTORE PUSH2 0x100 DUP6 ADD MSTORE ISZERO ISZERO PUSH2 0x120 DUP5 ADD MSTORE ISZERO ISZERO PUSH2 0x140 DUP4 ADD MSTORE ISZERO ISZERO PUSH2 0x160 DUP3 ADD MSTORE PUSH2 0x180 ADD PUSH2 0x389 JUMP JUMPDEST PUSH2 0x3D6 PUSH2 0x5BD CALLDATASIZE PUSH1 0x4 PUSH2 0x2C09 JUMP JUMPDEST PUSH2 0xE6A JUMP JUMPDEST PUSH2 0x5CA PUSH2 0x122F JUMP JUMPDEST PUSH1 0x40 MLOAD PUSH1 0xFF SWAP1 SWAP2 AND DUP2 MSTORE PUSH1 0x20 ADD PUSH2 0x389 JUMP JUMPDEST PUSH2 0x39B PUSH1 0x13 SLOAD DUP2 JUMP JUMPDEST PUSH1 0x0 SLOAD PUSH1 0x1 PUSH1 0x1 PUSH1 0xA0 SHL SUB AND PUSH2 0x375 JUMP JUMPDEST PUSH2 0x39B PUSH11 0xF8277896582678AC000000 DUP2 JUMP JUMPDEST PUSH2 0x3D6 PUSH2 0x12A9 JUMP JUMPDEST PUSH2 0x39B PUSH1 0x8 SLOAD DUP2 JUMP JUMPDEST PUSH2 0x3D6 PUSH2 0x627 CALLDATASIZE PUSH1 0x4 PUSH2 0x2BD9 JUMP JUMPDEST PUSH2 0x17C4 JUMP JUMPDEST PUSH2 0x39B PUSH1 0x64 DUP2 JUMP JUMPDEST PUSH2 0x39B PUSH12 0x7C13BC4B2C133C560000000 DUP2 JUMP JUMPDEST PUSH2 0x3D6 PUSH2 0x655 CALLDATASIZE PUSH1 0x4 PUSH2 0x2C48 JUMP JUMPDEST PUSH2 0x17F8 JUMP JUMPDEST PUSH2 0x3D6 PUSH2 0x668 CALLDATASIZE PUSH1 0x4 PUSH2 0x2C48 JUMP JUMPDEST PUSH2 0x1927 JUMP JUMPDEST PUSH1 0xF SLOAD PUSH2 0x42F SWAP1 PUSH1 0xFF AND DUP2 JUMP JUMPDEST PUSH2 0x39B PUSH1 0x6 SLOAD DUP2 JUMP JUMPDEST PUSH2 0x3D6 PUSH2 0x691 CALLDATASIZE PUSH1 0x4 PUSH2 0x2C7F JUMP JUMPDEST PUSH2 0x1A4B JUMP JUMPDEST PUSH2 0x39B PUSH1 0xB SLOAD DUP2 JUMP JUMPDEST PUSH2 0x39B PUSH4 0x784CE00 DUP2 JUMP JUMPDEST PUSH2 0x39B PUSH11 0x7C13BC4B2C133C56000000 DUP2 JUMP JUMPDEST PUSH2 0x3D6 PUSH2 0x6CA CALLDATASIZE PUSH1 0x4 PUSH2 0x2C7F JUMP JUMPDEST PUSH2 0x1F6A JUMP JUMPDEST PUSH2 0x39B PUSH3 0x7E900 DUP2 JUMP JUMPDEST PUSH2 0x39B PUSH1 0x11 SLOAD DUP2 JUMP JUMPDEST PUSH1 0x15 SLOAD PUSH2 0x42F SWAP1 PUSH1 0xFF AND DUP2 JUMP JUMPDEST PUSH2 0x3D6 PUSH2 0x6FD CALLDATASIZE PUSH1 0x4 PUSH2 0x2CFB JUMP JUMPDEST PUSH2 0x2365 JUMP JUMPDEST PUSH2 0x3D6 PUSH2 0x710 CALLDATASIZE PUSH1 0x4 PUSH2 0x2BD9 JUMP JUMPDEST PUSH2 0x263D JUMP JUMPDEST PUSH1 0x9 SLOAD PUSH2 0x42F SWAP1 PUSH1 0xFF AND DUP2 JUMP JUMPDEST PUSH2 0x39B PUSH1 0xA SLOAD DUP2 JUMP JUMPDEST PUSH1 0x16 SLOAD PUSH2 0x375 SWAP1 PUSH1 0x1 PUSH1 0x1 PUSH1 0xA0 SHL SUB AND DUP2 JUMP JUMPDEST PUSH2 0x3D6 PUSH2 0x74C CALLDATASIZE PUSH1 0x4 PUSH2 0x2D67 JUMP JUMPDEST PUSH2 0x272A JUMP JUMPDEST PUSH2 0x39B PUSH1 0x10 SLOAD DUP2 JUMP JUMPDEST CALLER PUSH1 0x0 DUP2 DUP2 MSTORE PUSH1 0x17 PUSH1 0x20 MSTORE PUSH1 0x40 SWAP1 KECCAK256 PUSH1 0x9 ADD SLOAD PUSH1 0xFF PUSH2 0x100 SWAP1 SWAP2 DIV AND ISZERO ISZERO PUSH1 0x1 EQ PUSH2 0x7A0 JUMPI PUSH1 0x40 MLOAD PUSH3 0x461BCD PUSH1 0xE5 SHL DUP2 MSTORE PUSH1 0x4 ADD PUSH2 0x797 SWAP1 PUSH2 0x2D83 JUMP JUMPDEST PUSH1 0x40 MLOAD DUP1 SWAP2 SUB SWAP1 REVERT JUMPDEST PUSH2 0x7A8 PUSH2 0x2A29 JUMP JUMPDEST CALLER PUSH1 0x0 SWAP1 DUP2 MSTORE PUSH1 0x17 PUSH1 0x20 MSTORE PUSH1 0x40 SWAP1 KECCAK256 PUSH1 0x9 ADD SLOAD PUSH1 0xFF PUSH2 0x100 SWAP1 SWAP2 DIV AND ISZERO ISZERO PUSH1 0x1 EQ PUSH2 0x7E5 JUMPI PUSH1 0x40 MLOAD PUSH3 0x461BCD PUSH1 0xE5 SHL DUP2 MSTORE PUSH1 0x4 ADD PUSH2 0x797 SWAP1 PUSH2 0x2D83 JUMP JUMPDEST CALLER PUSH1 0x0 SWAP1 DUP2 MSTORE PUSH1 0x17 PUSH1 0x20 MSTORE PUSH1 0x40 SWAP1 KECCAK256 PUSH1 0x9 ADD SLOAD PUSH3 0x10000 SWAP1 DIV PUSH1 0xFF AND ISZERO PUSH2 0x81E JUMPI PUSH1 0x40 MLOAD PUSH3 0x461BCD PUSH1 0xE5 SHL DUP2 MSTORE PUSH1 0x4 ADD PUSH2 0x797 SWAP1 PUSH2 0x2DBA JUMP JUMPDEST PUSH1 0x15 SLOAD PUSH1 0xFF AND PUSH2 0x840 JUMPI PUSH1 0x40 MLOAD PUSH3 0x461BCD PUSH1 0xE5 SHL DUP2 MSTORE PUSH1 0x4 ADD PUSH2 0x797 SWAP1 PUSH2 0x2DF1 JUMP JUMPDEST PUSH12 0x3E09DE2596099E2B0000000 PUSH1 0x12 SLOAD LT PUSH2 0x8AB JUMPI PUSH1 0x40 MLOAD PUSH3 0x461BCD PUSH1 0xE5 SHL DUP2 MSTORE PUSH1 0x20 PUSH1 0x4 DUP3 ADD MSTORE PUSH1 0x25 PUSH1 0x24 DUP3 ADD MSTORE PUSH32 0x416C6C2072657761726420746F6B656E732068617665206265656E2077697468 PUSH1 0x44 DUP3 ADD MSTORE PUSH5 0x323930BBB7 PUSH1 0xD9 SHL PUSH1 0x64 DUP3 ADD MSTORE PUSH1 0x84 ADD PUSH2 0x797 JUMP JUMPDEST CALLER PUSH1 0x0 SWAP1 DUP2 MSTORE PUSH1 0x17 PUSH1 0x20 MSTORE PUSH1 0x40 SWAP1 KECCAK256 PUSH1 0x3 ADD SLOAD DUP1 PUSH2 0x90B JUMPI PUSH1 0x40 MLOAD PUSH3 0x461BCD PUSH1 0xE5 SHL DUP2 MSTORE PUSH1 0x20 PUSH1 0x4 DUP3 ADD DUP2 SWAP1 MSTORE PUSH1 0x24 DUP3 ADD MSTORE PUSH32 0x4E6F207265776172647320617661696C61626C6520746F207769746864726177 PUSH1 0x44 DUP3 ADD MSTORE PUSH1 0x64 ADD PUSH2 0x797 JUMP JUMPDEST PUSH1 0x13 SLOAD DUP2 GT ISZERO PUSH2 0x92D JUMPI PUSH1 0x40 MLOAD PUSH3 0x461BCD PUSH1 0xE5 SHL DUP2 MSTORE PUSH1 0x4 ADD PUSH2 0x797 SWAP1 PUSH2 0x2E43 JUMP JUMPDEST CALLER PUSH1 0x0 SWAP1 DUP2 MSTORE PUSH1 0x17 PUSH1 0x20 MSTORE PUSH1 0x40 DUP2 KECCAK256 PUSH1 0x4 ADD DUP1 SLOAD DUP4 SWAP3 SWAP1 PUSH2 0x94F SWAP1 DUP5 SWAP1 PUSH2 0x2EAF JUMP JUMPDEST SWAP1 SWAP2 SSTORE POP POP CALLER PUSH1 0x0 SWAP1 DUP2 MSTORE PUSH1 0x17 PUSH1 0x20 MSTORE PUSH1 0x40 DUP2 KECCAK256 PUSH1 0x3 DUP2 ADD DUP3 SWAP1 SSTORE TIMESTAMP PUSH1 0x7 SWAP1 SWAP2 ADD SSTORE PUSH1 0x13 DUP1 SLOAD DUP4 SWAP3 SWAP1 PUSH2 0x983 SWAP1 DUP5 SWAP1 PUSH2 0x2EC8 JUMP JUMPDEST SWAP3 POP POP DUP2 SWAP1 SSTORE POP DUP1 PUSH1 0x12 PUSH1 0x0 DUP3 DUP3 SLOAD PUSH2 0x99C SWAP2 SWAP1 PUSH2 0x2EAF JUMP JUMPDEST SWAP1 SWAP2 SSTORE POP POP PUSH1 0x3 SLOAD PUSH1 0x40 MLOAD PUSH4 0xA9059CBB PUSH1 0xE0 SHL DUP2 MSTORE CALLER PUSH1 0x4 DUP3 ADD MSTORE PUSH1 0x24 DUP2 ADD DUP4 SWAP1 MSTORE PUSH1 0x1 PUSH1 0x1 PUSH1 0xA0 SHL SUB SWAP1 SWAP2 AND SWAP1 PUSH4 0xA9059CBB SWAP1 PUSH1 0x44 ADD PUSH1 0x20 PUSH1 0x40 MLOAD DUP1 DUP4 SUB DUP2 PUSH1 0x0 DUP8 GAS CALL ISZERO DUP1 ISZERO PUSH2 0x9F2 JUMPI RETURNDATASIZE PUSH1 0x0 DUP1 RETURNDATACOPY RETURNDATASIZE PUSH1 0x0 REVERT JUMPDEST POP POP POP POP PUSH1 0x40 MLOAD RETURNDATASIZE PUSH1 0x1F NOT PUSH1 0x1F DUP3 ADD AND DUP3 ADD DUP1 PUSH1 0x40 MSTORE POP DUP2 ADD SWAP1 PUSH2 0xA16 SWAP2 SWAP1 PUSH2 0x2EDB JUMP JUMPDEST PUSH2 0xA62 JUMPI PUSH1 0x40 MLOAD PUSH3 0x461BCD PUSH1 0xE5 SHL DUP2 MSTORE PUSH1 0x20 PUSH1 0x4 DUP3 ADD DUP2 SWAP1 MSTORE PUSH1 0x24 DUP3 ADD MSTORE PUSH32 0x4661696C656420746F207472616E736665722072657761726420746F6B656E73 PUSH1 0x44 DUP3 ADD MSTORE PUSH1 0x64 ADD PUSH2 0x797 JUMP JUMPDEST PUSH1 0x40 DUP1 MLOAD CALLER DUP2 MSTORE PUSH1 0x20 DUP2 ADD DUP4 SWAP1 MSTORE PUSH32 0xD8A9090919355543D8C79690CEEE3933C0BD4FFC742AE7F790D4BF44A043BB6C SWAP2 ADD PUSH1 0x40 MLOAD DUP1 SWAP2 SUB SWAP1 LOG1 POP PUSH2 0xAA5 PUSH1 0x1 DUP1 SSTORE JUMP JUMPDEST POP JUMP JUMPDEST PUSH2 0xAB0 PUSH2 0x2A53 JUMP JUMPDEST PUSH2 0xAB8 PUSH2 0x2A80 JUMP JUMPDEST JUMP JUMPDEST PUSH2 0xAD0 PUSH1 0x34 PUSH11 0x7C13BC4B2C133C56000000 PUSH2 0x2EF8 JUMP JUMPDEST DUP2 JUMP JUMPDEST PUSH2 0xADB PUSH2 0x2A53 JUMP JUMPDEST PUSH2 0xAE3 PUSH2 0x2A29 JUMP JUMPDEST PUSH1 0x9 SLOAD PUSH1 0xFF AND PUSH2 0xB05 JUMPI PUSH1 0x40 MLOAD PUSH3 0x461BCD PUSH1 0xE5 SHL DUP2 MSTORE PUSH1 0x4 ADD PUSH2 0x797 SWAP1 PUSH2 0x2DF1 JUMP JUMPDEST PUSH4 0x1E13380 PUSH1 0x8 SLOAD PUSH2 0xB17 SWAP2 SWAP1 PUSH2 0x2EAF JUMP JUMPDEST TIMESTAMP LT ISZERO PUSH2 0xB80 JUMPI PUSH1 0x40 MLOAD PUSH3 0x461BCD PUSH1 0xE5 SHL DUP2 MSTORE PUSH1 0x20 PUSH1 0x4 DUP3 ADD MSTORE PUSH1 0x31 PUSH1 0x24 DUP3 ADD MSTORE PUSH32 0x43616E6E6F74207769746864726177206265666F726520312079656172206166 PUSH1 0x44 DUP3 ADD MSTORE PUSH17 0x1D195C88199D5B991A5B99C81CDD185C9D PUSH1 0x7A SHL PUSH1 0x64 DUP3 ADD MSTORE PUSH1 0x84 ADD PUSH2 0x797 JUMP JUMPDEST PUSH12 0x7C13BC4B2C133C560000000 PUSH1 0x5 SLOAD LT PUSH2 0xBEB JUMPI PUSH1 0x40 MLOAD PUSH3 0x461BCD PUSH1 0xE5 SHL DUP2 MSTORE PUSH1 0x20 PUSH1 0x4 DUP3 ADD MSTORE PUSH1 0x25 PUSH1 0x24 DUP3 ADD MSTORE PUSH32 0x416C6C2067726F77746820746F6B656E732068617665206265656E2077697468 PUSH1 0x44 DUP3 ADD MSTORE PUSH5 0x323930BBB7 PUSH1 0xD9 SHL PUSH1 0x64 DUP3 ADD MSTORE PUSH1 0x84 ADD PUSH2 0x797 JUMP JUMPDEST PUSH4 0x1E13380 PUSH1 0x7 SLOAD PUSH2 0xBFD SWAP2 SWAP1 PUSH2 0x2EAF JUMP JUMPDEST TIMESTAMP LT ISZERO PUSH2 0xC4C JUMPI PUSH1 0x40 MLOAD PUSH3 0x461BCD PUSH1 0xE5 SHL DUP2 MSTORE PUSH1 0x20 PUSH1 0x4 DUP3 ADD MSTORE PUSH1 0x1F PUSH1 0x24 DUP3 ADD MSTORE PUSH32 0x43616E206F6E6C79207769746864726177206F6E636520706572207965617200 PUSH1 0x44 DUP3 ADD MSTORE PUSH1 0x64 ADD PUSH2 0x797 JUMP JUMPDEST PUSH1 0x5 SLOAD PUSH11 0x6342FD08F00F6378000000 SWAP1 PUSH12 0x7C13BC4B2C133C560000000 SWAP1 PUSH2 0xC75 SWAP1 DUP4 SWAP1 PUSH2 0x2EAF JUMP JUMPDEST GT ISZERO PUSH2 0xC97 JUMPI PUSH1 0x5 SLOAD PUSH2 0xC94 SWAP1 PUSH12 0x7C13BC4B2C133C560000000 PUSH2 0x2EC8 JUMP JUMPDEST SWAP1 POP JUMPDEST DUP1 PUSH1 0x5 PUSH1 0x0 DUP3 DUP3 SLOAD PUSH2 0xCA9 SWAP2 SWAP1 PUSH2 0x2EAF JUMP JUMPDEST SWAP3 POP POP DUP2 SWAP1 SSTORE POP DUP1 PUSH1 0x6 PUSH1 0x0 DUP3 DUP3 SLOAD PUSH2 0xCC2 SWAP2 SWAP1 PUSH2 0x2EC8 JUMP JUMPDEST SWAP1 SWAP2 SSTORE POP POP TIMESTAMP PUSH1 0x7 SSTORE PUSH1 0x3 SLOAD PUSH1 0x1 PUSH1 0x1 PUSH1 0xA0 SHL SUB AND PUSH4 0xA9059CBB PUSH2 0xCEE PUSH1 0x0 SLOAD PUSH1 0x1 PUSH1 0x1 PUSH1 0xA0 SHL SUB AND SWAP1 JUMP JUMPDEST PUSH1 0x40 MLOAD PUSH1 0x1 PUSH1 0x1 PUSH1 0xE0 SHL SUB NOT PUSH1 0xE0 DUP5 SWAP1 SHL AND DUP2 MSTORE PUSH1 0x1 PUSH1 0x1 PUSH1 0xA0 SHL SUB SWAP1 SWAP2 AND PUSH1 0x4 DUP3 ADD MSTORE PUSH1 0x24 DUP2 ADD DUP5 SWAP1 MSTORE PUSH1 0x44 ADD PUSH1 0x20 PUSH1 0x40 MLOAD DUP1 DUP4 SUB DUP2 PUSH1 0x0 DUP8 GAS CALL ISZERO DUP1 ISZERO PUSH2 0xD3B JUMPI RETURNDATASIZE PUSH1 0x0 DUP1 RETURNDATACOPY RETURNDATASIZE PUSH1 0x0 REVERT JUMPDEST POP POP POP POP PUSH1 0x40 MLOAD RETURNDATASIZE PUSH1 0x1F NOT PUSH1 0x1F DUP3 ADD AND DUP3 ADD DUP1 PUSH1 0x40 MSTORE POP DUP2 ADD SWAP1 PUSH2 0xD5F SWAP2 SWAP1 PUSH2 0x2EDB JUMP JUMPDEST PUSH2 0xDAB JUMPI PUSH1 0x40 MLOAD PUSH3 0x461BCD PUSH1 0xE5 SHL DUP2 MSTORE PUSH1 0x20 PUSH1 0x4 DUP3 ADD DUP2 SWAP1 MSTORE PUSH1 0x24 DUP3 ADD MSTORE PUSH32 0x4661696C656420746F207472616E736665722067726F77746820746F6B656E73 PUSH1 0x44 DUP3 ADD MSTORE PUSH1 0x64 ADD PUSH2 0x797 JUMP JUMPDEST PUSH1 0x40 DUP1 MLOAD CALLER DUP2 MSTORE PUSH1 0x20 DUP2 ADD DUP4 SWAP1 MSTORE PUSH32 0xD0A5227BFA49CF178A8F7A87B90318EF05FC8330F469E0DCCBE075784F426DBF SWAP2 ADD PUSH1 0x40 MLOAD DUP1 SWAP2 SUB SWAP1 LOG1 POP PUSH2 0xAB8 PUSH1 0x1 DUP1 SSTORE JUMP JUMPDEST PUSH2 0xDF6 PUSH2 0x2A53 JUMP JUMPDEST PUSH1 0x15 DUP1 SLOAD PUSH1 0x1 PUSH1 0x1 PUSH1 0xA0 SHL SUB SWAP1 SWAP3 AND PUSH2 0x100 MUL PUSH2 0x100 PUSH1 0x1 PUSH1 0xA8 SHL SUB NOT SWAP1 SWAP3 AND SWAP2 SWAP1 SWAP2 OR SWAP1 SSTORE JUMP JUMPDEST PUSH2 0xE26 PUSH2 0x2A53 JUMP JUMPDEST PUSH1 0x16 DUP1 SLOAD PUSH1 0x1 PUSH1 0x1 PUSH1 0xA0 SHL SUB NOT AND PUSH1 0x1 PUSH1 0x1 PUSH1 0xA0 SHL SUB SWAP3 SWAP1 SWAP3 AND SWAP2 SWAP1 SWAP2 OR SWAP1 SSTORE JUMP JUMPDEST PUSH2 0xE50 PUSH2 0x2A53 JUMP JUMPDEST PUSH2 0xAB8 PUSH1 0x0 PUSH2 0x2AD5 JUMP JUMPDEST PUSH2 0xE62 PUSH2 0x2A53 JUMP JUMPDEST PUSH2 0xAB8 PUSH2 0x2B25 JUMP JUMPDEST PUSH1 0x0 SLOAD PUSH1 0x1 PUSH1 0x1 PUSH1 0xA0 SHL SUB AND CALLER EQ DUP1 PUSH2 0xE92 JUMPI POP PUSH1 0x15 SLOAD PUSH2 0x100 SWAP1 DIV PUSH1 0x1 PUSH1 0x1 PUSH1 0xA0 SHL SUB AND CALLER EQ JUMPDEST PUSH2 0xEAE JUMPI PUSH1 0x40 MLOAD PUSH3 0x461BCD PUSH1 0xE5 SHL DUP2 MSTORE PUSH1 0x4 ADD PUSH2 0x797 SWAP1 PUSH2 0x2F1A JUMP JUMPDEST PUSH1 0x40 DUP1 MLOAD CALLER DUP2 MSTORE ORIGIN PUSH1 0x20 DUP3 ADD MSTORE PUSH1 0x0 DUP1 MLOAD PUSH1 0x20 PUSH2 0x32A3 DUP4 CODECOPY DUP2 MLOAD SWAP2 MSTORE SWAP2 ADD PUSH1 0x40 MLOAD DUP1 SWAP2 SUB SWAP1 LOG1 PUSH1 0x1 PUSH1 0x1 PUSH1 0xA0 SHL SUB DUP4 AND PUSH1 0x0 SWAP1 DUP2 MSTORE PUSH1 0x17 PUSH1 0x20 MSTORE PUSH1 0x40 SWAP1 KECCAK256 PUSH1 0x9 ADD SLOAD PUSH2 0x100 SWAP1 DIV PUSH1 0xFF AND ISZERO PUSH2 0xF45 JUMPI PUSH1 0x40 MLOAD PUSH3 0x461BCD PUSH1 0xE5 SHL DUP2 MSTORE PUSH1 0x20 PUSH1 0x4 DUP3 ADD MSTORE PUSH1 0x1D PUSH1 0x24 DUP3 ADD MSTORE PUSH32 0x57616C6C657420697320616C72656164792077686974656C6973746564000000 PUSH1 0x44 DUP3 ADD MSTORE PUSH1 0x64 ADD PUSH2 0x797 JUMP JUMPDEST PUSH1 0x1 PUSH1 0x1 PUSH1 0xA0 SHL SUB DUP4 AND PUSH1 0x0 SWAP1 DUP2 MSTORE PUSH1 0x17 PUSH1 0x20 MSTORE PUSH1 0x40 SWAP1 KECCAK256 PUSH1 0x9 ADD SLOAD PUSH3 0x10000 SWAP1 DIV PUSH1 0xFF AND ISZERO PUSH2 0xF87 JUMPI PUSH1 0x40 MLOAD PUSH3 0x461BCD PUSH1 0xE5 SHL DUP2 MSTORE PUSH1 0x4 ADD PUSH2 0x797 SWAP1 PUSH2 0x2DBA JUMP JUMPDEST PUSH1 0x1 PUSH1 0x1 PUSH1 0xA0 SHL SUB DUP4 AND PUSH1 0x0 SWAP1 DUP2 MSTORE PUSH1 0x17 PUSH1 0x20 MSTORE PUSH1 0x40 DUP2 KECCAK256 PUSH1 0x9 DUP2 ADD DUP1 SLOAD DUP6 ISZERO DUP1 ISZERO PUSH3 0xFFFFFF NOT SWAP1 SWAP3 AND SWAP2 SWAP1 SWAP2 OR PUSH2 0x100 OR SWAP1 SWAP2 SSTORE TIMESTAMP PUSH1 0x5 DUP4 ADD SSTORE PUSH1 0x6 DUP3 ADD DUP1 SLOAD PUSH1 0xFF NOT AND SWAP1 SSTORE PUSH1 0x7 DUP3 ADD DUP4 SWAP1 SSTORE PUSH1 0x3 DUP3 ADD DUP4 SWAP1 SSTORE PUSH1 0x2 DUP3 ADD DUP4 SWAP1 SSTORE PUSH1 0x4 SWAP1 SWAP2 ADD SWAP2 SWAP1 SWAP2 SSTORE PUSH2 0x113B JUMPI PUSH1 0x0 DUP2 GT PUSH2 0x1074 JUMPI PUSH1 0x40 MLOAD PUSH3 0x461BCD PUSH1 0xE5 SHL DUP2 MSTORE PUSH1 0x20 PUSH1 0x4 DUP3 ADD MSTORE PUSH1 0x44 PUSH1 0x24 DUP3 ADD DUP2 SWAP1 MSTORE PUSH32 0x5465616D2077616C6C657473206D757374206265206164646564207769746820 SWAP1 DUP3 ADD MSTORE PUSH32 0x61206879617820686F6C64696E6720616D6F756E742067726561746572207468 PUSH1 0x64 DUP3 ADD MSTORE PUSH4 0x616E203 PUSH1 0xE4 SHL PUSH1 0x84 DUP3 ADD MSTORE PUSH1 0xA4 ADD PUSH2 0x797 JUMP JUMPDEST PUSH12 0x4D8C55AEFB8C05B5C000000 DUP2 GT ISZERO PUSH2 0x1114 JUMPI PUSH1 0x40 MLOAD PUSH3 0x461BCD PUSH1 0xE5 SHL DUP2 MSTORE PUSH1 0x20 PUSH1 0x4 DUP3 ADD MSTORE PUSH1 0x55 PUSH1 0x24 DUP3 ADD MSTORE PUSH32 0x5465616D2077616C6C657473206D757374206265206164646564207769746820 PUSH1 0x44 DUP3 ADD MSTORE PUSH32 0x61206879617820686F6C64696E6720616D6F756E74206C657373207468616E20 PUSH1 0x64 DUP3 ADD MSTORE PUSH21 0x74686520746F74616C207465616D20746F6B656E73 PUSH1 0x58 SHL PUSH1 0x84 DUP3 ADD MSTORE PUSH1 0xA4 ADD PUSH2 0x797 JUMP JUMPDEST PUSH1 0x1 PUSH1 0x1 PUSH1 0xA0 SHL SUB DUP4 AND PUSH1 0x0 SWAP1 DUP2 MSTORE PUSH1 0x17 PUSH1 0x20 MSTORE PUSH1 0x40 SWAP1 KECCAK256 PUSH1 0x1 DUP2 ADD DUP3 SWAP1 SSTORE DUP2 SWAP1 SSTORE PUSH2 0x11DA JUMP JUMPDEST DUP1 ISZERO PUSH2 0x11B9 JUMPI PUSH1 0x40 MLOAD PUSH3 0x461BCD PUSH1 0xE5 SHL DUP2 MSTORE PUSH1 0x20 PUSH1 0x4 DUP3 ADD MSTORE PUSH1 0x41 PUSH1 0x24 DUP3 ADD MSTORE PUSH32 0x4E6F6E207465616D2077616C6C6574732063616E206F6E6C7920626520616464 PUSH1 0x44 DUP3 ADD MSTORE PUSH32 0x6564207769746820686F6C64696E6720616D6F756E7420657175616C20746F20 PUSH1 0x64 DUP3 ADD MSTORE PUSH1 0x3 PUSH1 0xFC SHL PUSH1 0x84 DUP3 ADD MSTORE PUSH1 0xA4 ADD PUSH2 0x797 JUMP JUMPDEST PUSH1 0x1 PUSH1 0x1 PUSH1 0xA0 SHL SUB DUP4 AND PUSH1 0x0 SWAP1 DUP2 MSTORE PUSH1 0x17 PUSH1 0x20 MSTORE PUSH1 0x40 DUP2 KECCAK256 PUSH1 0x1 DUP2 ADD DUP3 SWAP1 SSTORE SSTORE JUMPDEST PUSH1 0x40 DUP1 MLOAD CALLER DUP2 MSTORE PUSH1 0x1 PUSH1 0x1 PUSH1 0xA0 SHL SUB DUP6 AND PUSH1 0x20 DUP3 ADD MSTORE DUP4 ISZERO ISZERO DUP2 DUP4 ADD MSTORE PUSH1 0x60 DUP2 ADD DUP4 SWAP1 MSTORE SWAP1 MLOAD PUSH32 0xC294E522BA20B0699FE578649971CEFDFDC8D0E330DB37D0437849F38B3960E6 SWAP2 DUP2 SWAP1 SUB PUSH1 0x80 ADD SWAP1 LOG1 POP POP POP JUMP JUMPDEST PUSH1 0x0 DUP1 PUSH1 0xE SLOAD TIMESTAMP PUSH2 0x1240 SWAP2 SWAP1 PUSH2 0x2EC8 JUMP JUMPDEST SWAP1 POP PUSH4 0xF099C00 DUP2 LT PUSH2 0x1255 JUMPI PUSH1 0x5 SWAP2 POP POP SWAP1 JUMP JUMPDEST PUSH4 0xD286880 DUP2 LT PUSH2 0x1268 JUMPI PUSH1 0x4 SWAP2 POP POP SWAP1 JUMP JUMPDEST PUSH4 0xB473500 DUP2 LT PUSH2 0x127B JUMPI PUSH1 0x3 SWAP2 POP POP SWAP1 JUMP JUMPDEST PUSH4 0x9660180 DUP2 LT PUSH2 0x128E JUMPI PUSH1 0x2 SWAP2 POP POP SWAP1 JUMP JUMPDEST PUSH4 0x784CE00 DUP2 LT PUSH2 0x12A1 JUMPI PUSH1 0x1 SWAP2 POP POP SWAP1 JUMP JUMPDEST PUSH1 0x0 SWAP2 POP POP SWAP1 JUMP JUMPDEST CALLER PUSH1 0x0 DUP2 DUP2 MSTORE PUSH1 0x17 PUSH1 0x20 MSTORE PUSH1 0x40 SWAP1 KECCAK256 PUSH1 0x9 ADD SLOAD PUSH1 0xFF PUSH2 0x100 SWAP1 SWAP2 DIV AND ISZERO ISZERO PUSH1 0x1 EQ PUSH2 0x12E6 JUMPI PUSH1 0x40 MLOAD PUSH3 0x461BCD PUSH1 0xE5 SHL DUP2 MSTORE PUSH1 0x4 ADD PUSH2 0x797 SWAP1 PUSH2 0x2D83 JUMP JUMPDEST CALLER PUSH1 0x0 DUP2 DUP2 MSTORE PUSH1 0x17 PUSH1 0x20 MSTORE PUSH1 0x40 SWAP1 KECCAK256 PUSH1 0x9 ADD SLOAD PUSH3 0x10000 SWAP1 DIV PUSH1 0xFF AND ISZERO PUSH2 0x131F JUMPI PUSH1 0x40 MLOAD PUSH3 0x461BCD PUSH1 0xE5 SHL DUP2 MSTORE PUSH1 0x4 ADD PUSH2 0x797 SWAP1 PUSH2 0x2DBA JUMP JUMPDEST PUSH2 0x1327 PUSH2 0x2A29 JUMP JUMPDEST CALLER PUSH1 0x0 SWAP1 DUP2 MSTORE PUSH1 0x17 PUSH1 0x20 MSTORE PUSH1 0x40 SWAP1 KECCAK256 PUSH1 0x9 ADD SLOAD PUSH1 0xFF AND ISZERO ISZERO PUSH1 0x1 EQ PUSH2 0x13B4 JUMPI PUSH1 0x40 MLOAD PUSH3 0x461BCD PUSH1 0xE5 SHL DUP2 MSTORE PUSH1 0x20 PUSH1 0x4 DUP3 ADD MSTORE PUSH1 0x39 PUSH1 0x24 DUP3 ADD MSTORE PUSH32 0x4F6E6C79207465616D2077616C6C6574732063616E2077697468647261772074 PUSH1 0x44 DUP3 ADD MSTORE PUSH32 0x6F6B656E73207573696E6720746869732066756E6374696F6E00000000000000 PUSH1 0x64 DUP3 ADD MSTORE PUSH1 0x84 ADD PUSH2 0x797 JUMP JUMPDEST PUSH1 0xF SLOAD PUSH1 0xFF AND PUSH2 0x13D6 JUMPI PUSH1 0x40 MLOAD PUSH3 0x461BCD PUSH1 0xE5 SHL DUP2 MSTORE PUSH1 0x4 ADD PUSH2 0x797 SWAP1 PUSH2 0x2DF1 JUMP JUMPDEST CALLER PUSH1 0x0 SWAP1 DUP2 MSTORE PUSH1 0x17 PUSH1 0x20 MSTORE PUSH1 0x40 SWAP1 KECCAK256 PUSH1 0x5 ADD SLOAD PUSH2 0x13F8 SWAP1 PUSH4 0x784CE00 SWAP1 PUSH2 0x2EAF JUMP JUMPDEST TIMESTAMP LT ISZERO PUSH2 0x1477 JUMPI PUSH1 0x40 MLOAD PUSH3 0x461BCD PUSH1 0xE5 SHL DUP2 MSTORE PUSH1 0x20 PUSH1 0x4 DUP3 ADD MSTORE PUSH1 0x41 PUSH1 0x24 DUP3 ADD MSTORE PUSH32 0x43616E6E6F74207769746864726177206265666F726520342079656172732061 PUSH1 0x44 DUP3 ADD MSTORE PUSH32 0x66746572206265696E6720616464656420746F207468652077686974656C6973 PUSH1 0x64 DUP3 ADD MSTORE PUSH1 0x1D PUSH1 0xFA SHL PUSH1 0x84 DUP3 ADD MSTORE PUSH1 0xA4 ADD PUSH2 0x797 JUMP JUMPDEST PUSH12 0x4D8C55AEFB8C05B5C000000 PUSH1 0xB SLOAD LT PUSH2 0x14E0 JUMPI PUSH1 0x40 MLOAD PUSH3 0x461BCD PUSH1 0xE5 SHL DUP2 MSTORE PUSH1 0x20 PUSH1 0x4 DUP3 ADD MSTORE PUSH1 0x23 PUSH1 0x24 DUP3 ADD MSTORE PUSH32 0x416C6C207465616D20746F6B656E732068617665206265656E20776974686472 PUSH1 0x44 DUP3 ADD MSTORE PUSH3 0x30BBB7 PUSH1 0xE9 SHL PUSH1 0x64 DUP3 ADD MSTORE PUSH1 0x84 ADD PUSH2 0x797 JUMP JUMPDEST CALLER PUSH1 0x0 SWAP1 DUP2 MSTORE PUSH1 0x17 PUSH1 0x20 MSTORE PUSH1 0x40 SWAP1 KECCAK256 SLOAD PUSH2 0x1547 JUMPI PUSH1 0x40 MLOAD PUSH3 0x461BCD PUSH1 0xE5 SHL DUP2 MSTORE PUSH1 0x20 PUSH1 0x4 DUP3 ADD MSTORE PUSH1 0x22 PUSH1 0x24 DUP3 ADD MSTORE PUSH32 0x4E6F206879617820686F6C64696E6720616D6F756E7420746F20776974686472 PUSH1 0x44 DUP3 ADD MSTORE PUSH2 0x6177 PUSH1 0xF0 SHL PUSH1 0x64 DUP3 ADD MSTORE PUSH1 0x84 ADD PUSH2 0x797 JUMP JUMPDEST PUSH2 0x154F PUSH2 0x122F JUMP JUMPDEST CALLER PUSH1 0x0 SWAP1 DUP2 MSTORE PUSH1 0x17 PUSH1 0x20 MSTORE PUSH1 0x40 SWAP1 KECCAK256 PUSH1 0x6 ADD SLOAD PUSH1 0xFF SWAP2 DUP3 AND SWAP2 AND LT PUSH2 0x15CA JUMPI PUSH1 0x40 MLOAD PUSH3 0x461BCD PUSH1 0xE5 SHL DUP2 MSTORE PUSH1 0x20 PUSH1 0x4 DUP3 ADD MSTORE PUSH1 0x2B PUSH1 0x24 DUP3 ADD MSTORE PUSH32 0x43616E206F6E6C79207769746864726177207465616D20746F6B656E73206F6E PUSH1 0x44 DUP3 ADD MSTORE PUSH11 0x31B2903832B9103CB2B0B9 PUSH1 0xA9 SHL PUSH1 0x64 DUP3 ADD MSTORE PUSH1 0x84 ADD PUSH2 0x797 JUMP JUMPDEST CALLER PUSH1 0x0 SWAP1 DUP2 MSTORE PUSH1 0x17 PUSH1 0x20 MSTORE PUSH1 0x40 DUP2 KECCAK256 PUSH1 0x1 ADD SLOAD PUSH2 0x15E9 SWAP1 PUSH1 0x5 SWAP1 PUSH2 0x2EF8 JUMP JUMPDEST SWAP1 POP PUSH12 0x4D8C55AEFB8C05B5C000000 DUP2 PUSH1 0xB SLOAD PUSH2 0x1606 SWAP2 SWAP1 PUSH2 0x2EAF JUMP JUMPDEST GT ISZERO PUSH2 0x1628 JUMPI PUSH1 0xB SLOAD PUSH2 0x1625 SWAP1 PUSH12 0x4D8C55AEFB8C05B5C000000 PUSH2 0x2EC8 JUMP JUMPDEST SWAP1 POP JUMPDEST CALLER PUSH1 0x0 SWAP1 DUP2 MSTORE PUSH1 0x17 PUSH1 0x20 MSTORE PUSH1 0x40 DUP2 KECCAK256 DUP1 SLOAD DUP4 SWAP3 SWAP1 PUSH2 0x1647 SWAP1 DUP5 SWAP1 PUSH2 0x2EC8 JUMP JUMPDEST SWAP3 POP POP DUP2 SWAP1 SSTORE POP DUP1 PUSH1 0xB PUSH1 0x0 DUP3 DUP3 SLOAD PUSH2 0x1660 SWAP2 SWAP1 PUSH2 0x2EAF JUMP JUMPDEST SWAP3 POP POP DUP2 SWAP1 SSTORE POP DUP1 PUSH1 0xC PUSH1 0x0 DUP3 DUP3 SLOAD PUSH2 0x1679 SWAP2 SWAP1 PUSH2 0x2EC8 JUMP JUMPDEST SWAP1 SWAP2 SSTORE POP POP CALLER PUSH1 0x0 SWAP1 DUP2 MSTORE PUSH1 0x17 PUSH1 0x20 MSTORE PUSH1 0x40 DUP2 KECCAK256 PUSH1 0x6 ADD DUP1 SLOAD PUSH1 0xFF AND SWAP2 PUSH2 0x169F DUP4 PUSH2 0x2F77 JUMP JUMPDEST DUP3 SLOAD PUSH1 0xFF SWAP2 DUP3 AND PUSH2 0x100 SWAP4 SWAP1 SWAP4 EXP SWAP3 DUP4 MUL SWAP2 SWAP1 SWAP3 MUL NOT SWAP1 SWAP2 AND OR SWAP1 SSTORE POP PUSH1 0x3 SLOAD PUSH1 0x40 MLOAD PUSH4 0xA9059CBB PUSH1 0xE0 SHL DUP2 MSTORE CALLER PUSH1 0x4 DUP3 ADD MSTORE PUSH1 0x24 DUP2 ADD DUP4 SWAP1 MSTORE PUSH1 0x1 PUSH1 0x1 PUSH1 0xA0 SHL SUB SWAP1 SWAP2 AND SWAP1 PUSH4 0xA9059CBB SWAP1 PUSH1 0x44 ADD PUSH1 0x20 PUSH1 0x40 MLOAD DUP1 DUP4 SUB DUP2 PUSH1 0x0 DUP8 GAS CALL ISZERO DUP1 ISZERO PUSH2 0x170D JUMPI RETURNDATASIZE PUSH1 0x0 DUP1 RETURNDATACOPY RETURNDATASIZE PUSH1 0x0 REVERT JUMPDEST POP POP POP POP PUSH1 0x40 MLOAD RETURNDATASIZE PUSH1 0x1F NOT PUSH1 0x1F DUP3 ADD AND DUP3 ADD DUP1 PUSH1 0x40 MSTORE POP DUP2 ADD SWAP1 PUSH2 0x1731 SWAP2 SWAP1 PUSH2 0x2EDB JUMP JUMPDEST PUSH2 0x177D JUMPI PUSH1 0x40 MLOAD PUSH3 0x461BCD PUSH1 0xE5 SHL DUP2 MSTORE PUSH1 0x20 PUSH1 0x4 DUP3 ADD MSTORE PUSH1 0x1E PUSH1 0x24 DUP3 ADD MSTORE PUSH32 0x4661696C656420746F207472616E73666572207465616D20746F6B656E730000 PUSH1 0x44 DUP3 ADD MSTORE PUSH1 0x64 ADD PUSH2 0x797 JUMP JUMPDEST PUSH1 0x40 DUP1 MLOAD CALLER DUP2 MSTORE PUSH1 0x20 DUP2 ADD DUP4 SWAP1 MSTORE PUSH32 0x1E63F692F0A30C3957AC289D6A44616BD119F5502EBA5AE440F3158CC2C2D291 SWAP2 ADD PUSH1 0x40 MLOAD DUP1 SWAP2 SUB SWAP1 LOG1 POP PUSH2 0x17C0 PUSH1 0x1 DUP1 SSTORE JUMP JUMPDEST POP POP JUMP JUMPDEST PUSH2 0x17CC PUSH2 0x2A53 JUMP JUMPDEST PUSH1 0x2 DUP1 SLOAD PUSH1 0x1 PUSH1 0x1 PUSH1 0xA0 SHL SUB SWAP1 SWAP3 AND PUSH1 0x1 PUSH1 0x1 PUSH1 0xA0 SHL SUB NOT SWAP3 DUP4 AND DUP2 OR SWAP1 SWAP2 SSTORE PUSH1 0x3 DUP1 SLOAD SWAP1 SWAP3 AND OR SWAP1 SSTORE JUMP JUMPDEST PUSH1 0x0 SLOAD PUSH1 0x1 PUSH1 0x1 PUSH1 0xA0 SHL SUB AND CALLER EQ DUP1 PUSH2 0x1820 JUMPI POP PUSH1 0x15 SLOAD PUSH2 0x100 SWAP1 DIV PUSH1 0x1 PUSH1 0x1 PUSH1 0xA0 SHL SUB AND CALLER EQ JUMPDEST PUSH2 0x183C JUMPI PUSH1 0x40 MLOAD PUSH3 0x461BCD PUSH1 0xE5 SHL DUP2 MSTORE PUSH1 0x4 ADD PUSH2 0x797 SWAP1 PUSH2 0x2F1A JUMP JUMPDEST PUSH1 0x40 DUP1 MLOAD CALLER DUP2 MSTORE ORIGIN PUSH1 0x20 DUP3 ADD MSTORE PUSH1 0x0 DUP1 MLOAD PUSH1 0x20 PUSH2 0x32A3 DUP4 CODECOPY DUP2 MLOAD SWAP2 MSTORE SWAP2 ADD PUSH1 0x40 MLOAD DUP1 SWAP2 SUB SWAP1 LOG1 PUSH1 0x1 PUSH1 0x1 PUSH1 0xA0 SHL SUB DUP3 AND PUSH1 0x0 SWAP1 DUP2 MSTORE PUSH1 0x17 PUSH1 0x20 MSTORE PUSH1 0x40 SWAP1 KECCAK256 PUSH1 0x9 ADD SLOAD DUP2 ISZERO ISZERO PUSH3 0x10000 SWAP1 SWAP2 DIV PUSH1 0xFF AND ISZERO ISZERO SUB PUSH2 0x18AA JUMPI PUSH1 0x40 MLOAD PUSH3 0x461BCD PUSH1 0xE5 SHL DUP2 MSTORE PUSH1 0x4 ADD PUSH2 0x797 SWAP1 PUSH2 0x2F96 JUMP JUMPDEST PUSH1 0x1 PUSH1 0x1 PUSH1 0xA0 SHL SUB DUP3 AND PUSH1 0x0 DUP2 DUP2 MSTORE PUSH1 0x17 PUSH1 0x20 SWAP1 DUP2 MSTORE PUSH1 0x40 SWAP2 DUP3 SWAP1 KECCAK256 PUSH1 0x9 ADD DUP1 SLOAD PUSH3 0xFF0000 NOT AND PUSH3 0x10000 DUP7 ISZERO ISZERO SWAP1 DUP2 MUL SWAP2 SWAP1 SWAP2 OR SWAP1 SWAP2 SSTORE DUP3 MLOAD CALLER DUP2 MSTORE SWAP2 DUP3 ADD SWAP4 SWAP1 SWAP4 MSTORE SWAP1 DUP2 ADD SWAP2 SWAP1 SWAP2 MSTORE PUSH32 0x89A9C56967D4535D54C90BFFD7CBD09F6D2A4C8E26B9E7F033F199D144E12B4E SWAP1 PUSH1 0x60 ADD JUMPDEST PUSH1 0x40 MLOAD DUP1 SWAP2 SUB SWAP1 LOG1 POP POP JUMP JUMPDEST PUSH1 0x0 SLOAD PUSH1 0x1 PUSH1 0x1 PUSH1 0xA0 SHL SUB AND CALLER EQ DUP1 PUSH2 0x194F JUMPI POP PUSH1 0x15 SLOAD PUSH2 0x100 SWAP1 DIV PUSH1 0x1 PUSH1 0x1 PUSH1 0xA0 SHL SUB AND CALLER EQ JUMPDEST PUSH2 0x196B JUMPI PUSH1 0x40 MLOAD PUSH3 0x461BCD PUSH1 0xE5 SHL DUP2 MSTORE PUSH1 0x4 ADD PUSH2 0x797 SWAP1 PUSH2 0x2F1A JUMP JUMPDEST PUSH1 0x40 DUP1 MLOAD CALLER DUP2 MSTORE ORIGIN PUSH1 0x20 DUP3 ADD MSTORE PUSH1 0x0 DUP1 MLOAD PUSH1 0x20 PUSH2 0x32A3 DUP4 CODECOPY DUP2 MLOAD SWAP2 MSTORE SWAP2 ADD PUSH1 0x40 MLOAD DUP1 SWAP2 SUB SWAP1 LOG1 PUSH1 0x1 PUSH1 0x1 PUSH1 0xA0 SHL SUB DUP3 AND PUSH1 0x0 SWAP1 DUP2 MSTORE PUSH1 0x17 PUSH1 0x20 MSTORE PUSH1 0x40 SWAP1 KECCAK256 PUSH1 0x9 ADD SLOAD DUP2 ISZERO ISZERO PUSH2 0x100 SWAP1 SWAP2 DIV PUSH1 0xFF AND ISZERO ISZERO SUB PUSH2 0x19D8 JUMPI PUSH1 0x40 MLOAD PUSH3 0x461BCD PUSH1 0xE5 SHL DUP2 MSTORE PUSH1 0x4 ADD PUSH2 0x797 SWAP1 PUSH2 0x2F96 JUMP JUMPDEST PUSH1 0x1 PUSH1 0x1 PUSH1 0xA0 SHL SUB DUP3 AND PUSH1 0x0 DUP2 DUP2 MSTORE PUSH1 0x17 PUSH1 0x20 SWAP1 DUP2 MSTORE PUSH1 0x40 SWAP2 DUP3 SWAP1 KECCAK256 PUSH1 0x9 ADD DUP1 SLOAD PUSH2 0xFF00 NOT AND PUSH2 0x100 DUP7 ISZERO ISZERO SWAP1 DUP2 MUL SWAP2 SWAP1 SWAP2 OR SWAP1 SWAP2 SSTORE DUP3 MLOAD CALLER DUP2 MSTORE SWAP2 DUP3 ADD SWAP4 SWAP1 SWAP4 MSTORE SWAP1 DUP2 ADD SWAP2 SWAP1 SWAP2 MSTORE PUSH32 0x70BBEE4E66E3FD40F7DA099410CFD723ED4A0B4FEC11F6CC968E850DB827A88B SWAP1 PUSH1 0x60 ADD PUSH2 0x191B JUMP JUMPDEST PUSH2 0x1A53 PUSH2 0x2A53 JUMP JUMPDEST PUSH2 0x1A5B PUSH2 0x2A29 JUMP JUMPDEST PUSH1 0x0 DUP3 PUSH1 0x2 DUP2 GT ISZERO PUSH2 0x1A6F JUMPI PUSH2 0x1A6F PUSH2 0x2FE4 JUMP JUMPDEST EQ DUP1 PUSH2 0x1A8C JUMPI POP PUSH1 0x1 DUP3 PUSH1 0x2 DUP2 GT ISZERO PUSH2 0x1A8A JUMPI PUSH2 0x1A8A PUSH2 0x2FE4 JUMP JUMPDEST EQ JUMPDEST DUP1 PUSH2 0x1AA8 JUMPI POP PUSH1 0x2 DUP3 PUSH1 0x2 DUP2 GT ISZERO PUSH2 0x1AA6 JUMPI PUSH2 0x1AA6 PUSH2 0x2FE4 JUMP JUMPDEST EQ JUMPDEST PUSH2 0x1AEB JUMPI PUSH1 0x40 MLOAD PUSH3 0x461BCD PUSH1 0xE5 SHL DUP2 MSTORE PUSH1 0x20 PUSH1 0x4 DUP3 ADD MSTORE PUSH1 0x14 PUSH1 0x24 DUP3 ADD MSTORE PUSH20 0x496E76616C69642066756E64696E672074797065 PUSH1 0x60 SHL PUSH1 0x44 DUP3 ADD MSTORE PUSH1 0x64 ADD PUSH2 0x797 JUMP JUMPDEST PUSH1 0x0 DUP2 GT PUSH2 0x1B3B JUMPI PUSH1 0x40 MLOAD PUSH3 0x461BCD PUSH1 0xE5 SHL DUP2 MSTORE PUSH1 0x20 PUSH1 0x4 DUP3 ADD MSTORE PUSH1 0x1D PUSH1 0x24 DUP3 ADD MSTORE PUSH32 0x416D6F756E74206D7573742062652067726561746572207468616E2030000000 PUSH1 0x44 DUP3 ADD MSTORE PUSH1 0x64 ADD PUSH2 0x797 JUMP JUMPDEST PUSH1 0x3 SLOAD PUSH1 0x40 MLOAD PUSH4 0x23B872DD PUSH1 0xE0 SHL DUP2 MSTORE CALLER PUSH1 0x4 DUP3 ADD MSTORE ADDRESS PUSH1 0x24 DUP3 ADD MSTORE PUSH1 0x44 DUP2 ADD DUP4 SWAP1 MSTORE PUSH1 0x1 PUSH1 0x1 PUSH1 0xA0 SHL SUB SWAP1 SWAP2 AND SWAP1 PUSH4 0x23B872DD SWAP1 PUSH1 0x64 ADD PUSH1 0x20 PUSH1 0x40 MLOAD DUP1 DUP4 SUB DUP2 PUSH1 0x0 DUP8 GAS CALL ISZERO DUP1 ISZERO PUSH2 0x1B92 JUMPI RETURNDATASIZE PUSH1 0x0 DUP1 RETURNDATACOPY RETURNDATASIZE PUSH1 0x0 REVERT JUMPDEST POP POP POP POP PUSH1 0x40 MLOAD RETURNDATASIZE PUSH1 0x1F NOT PUSH1 0x1F DUP3 ADD AND DUP3 ADD DUP1 PUSH1 0x40 MSTORE POP DUP2 ADD SWAP1 PUSH2 0x1BB6 SWAP2 SWAP1 PUSH2 0x2EDB JUMP JUMPDEST PUSH2 0x1C1C JUMPI PUSH1 0x40 MLOAD PUSH3 0x461BCD PUSH1 0xE5 SHL DUP2 MSTORE PUSH1 0x20 PUSH1 0x4 DUP3 ADD MSTORE PUSH1 0x31 PUSH1 0x24 DUP3 ADD MSTORE PUSH32 0x54686572652077617320616E206572726F72206F6E20726563656976696E6720 PUSH1 0x44 DUP3 ADD MSTORE PUSH17 0x74686520746F6B656E2066756E64696E67 PUSH1 0x78 SHL PUSH1 0x64 DUP3 ADD MSTORE PUSH1 0x84 ADD PUSH2 0x797 JUMP JUMPDEST PUSH1 0x0 DUP3 PUSH1 0x2 DUP2 GT ISZERO PUSH2 0x1C30 JUMPI PUSH2 0x1C30 PUSH2 0x2FE4 JUMP JUMPDEST SUB PUSH2 0x1D26 JUMPI PUSH12 0x7C13BC4B2C133C560000000 DUP2 PUSH1 0x4 SLOAD PUSH2 0x1C50 SWAP2 SWAP1 PUSH2 0x2EAF JUMP JUMPDEST GT ISZERO PUSH2 0x1CD0 JUMPI PUSH1 0x40 MLOAD PUSH3 0x461BCD PUSH1 0xE5 SHL DUP2 MSTORE PUSH1 0x20 PUSH1 0x4 DUP3 ADD MSTORE PUSH1 0x43 PUSH1 0x24 DUP3 ADD MSTORE PUSH32 0x416D6F756E7420746F2066756E642069732067726561746572207468616E2074 PUSH1 0x44 DUP3 ADD MSTORE PUSH32 0x686520746F74616C20696E74656E74656420666F722067726F77746820746F6B PUSH1 0x64 DUP3 ADD MSTORE PUSH3 0x656E73 PUSH1 0xE8 SHL PUSH1 0x84 DUP3 ADD MSTORE PUSH1 0xA4 ADD PUSH2 0x797 JUMP JUMPDEST DUP1 PUSH1 0x4 PUSH1 0x0 DUP3 DUP3 SLOAD PUSH2 0x1CE2 SWAP2 SWAP1 PUSH2 0x2EAF JUMP JUMPDEST SWAP3 POP POP DUP2 SWAP1 SSTORE POP DUP1 PUSH1 0x6 PUSH1 0x0 DUP3 DUP3 SLOAD PUSH2 0x1CFB SWAP2 SWAP1 PUSH2 0x2EAF JUMP JUMPDEST SWAP1 SWAP2 SSTORE POP POP PUSH1 0x9 SLOAD PUSH1 0xFF AND PUSH2 0x1D21 JUMPI PUSH1 0x9 DUP1 SLOAD PUSH1 0xFF NOT AND PUSH1 0x1 OR SWAP1 SSTORE TIMESTAMP PUSH1 0x8 DUP2 SWAP1 SSTORE PUSH1 0x7 SSTORE JUMPDEST PUSH2 0x1F28 JUMP JUMPDEST PUSH1 0x1 DUP3 PUSH1 0x2 DUP2 GT ISZERO PUSH2 0x1D3A JUMPI PUSH2 0x1D3A PUSH2 0x2FE4 JUMP JUMPDEST SUB PUSH2 0x1E28 JUMPI PUSH12 0x4D8C55AEFB8C05B5C000000 DUP2 PUSH1 0xA SLOAD PUSH2 0x1D5A SWAP2 SWAP1 PUSH2 0x2EAF JUMP JUMPDEST GT ISZERO PUSH2 0x1DD8 JUMPI PUSH1 0x40 MLOAD PUSH3 0x461BCD PUSH1 0xE5 SHL DUP2 MSTORE PUSH1 0x20 PUSH1 0x4 DUP3 ADD MSTORE PUSH1 0x41 PUSH1 0x24 DUP3 ADD MSTORE PUSH32 0x416D6F756E7420746F2066756E642069732067726561746572207468616E2074 PUSH1 0x44 DUP3 ADD MSTORE PUSH32 0x686520746F74616C20696E74656E74656420666F72207465616D20746F6B656E PUSH1 0x64 DUP3 ADD MSTORE PUSH1 0x73 PUSH1 0xF8 SHL PUSH1 0x84 DUP3 ADD MSTORE PUSH1 0xA4 ADD PUSH2 0x797 JUMP JUMPDEST DUP1 PUSH1 0xA PUSH1 0x0 DUP3 DUP3 SLOAD PUSH2 0x1DEA SWAP2 SWAP1 PUSH2 0x2EAF JUMP JUMPDEST SWAP3 POP POP DUP2 SWAP1 SSTORE POP DUP1 PUSH1 0xC PUSH1 0x0 DUP3 DUP3 SLOAD PUSH2 0x1E03 SWAP2 SWAP1 PUSH2 0x2EAF JUMP JUMPDEST SWAP1 SWAP2 SSTORE POP POP PUSH1 0xF SLOAD PUSH1 0xFF AND PUSH2 0x1D21 JUMPI PUSH1 0xF DUP1 SLOAD PUSH1 0xFF NOT AND PUSH1 0x1 OR SWAP1 SSTORE TIMESTAMP PUSH1 0xE SSTORE PUSH2 0x1F28 JUMP JUMPDEST PUSH1 0x2 DUP3 PUSH1 0x2 DUP2 GT ISZERO PUSH2 0x1E3C JUMPI PUSH2 0x1E3C PUSH2 0x2FE4 JUMP JUMPDEST SUB PUSH2 0x1F28 JUMPI PUSH12 0x3E09DE2596099E2B0000000 DUP2 PUSH1 0x10 SLOAD PUSH2 0x1E5C SWAP2 SWAP1 PUSH2 0x2EAF JUMP JUMPDEST GT ISZERO PUSH2 0x1EDC JUMPI PUSH1 0x40 MLOAD PUSH3 0x461BCD PUSH1 0xE5 SHL DUP2 MSTORE PUSH1 0x20 PUSH1 0x4 DUP3 ADD MSTORE PUSH1 0x43 PUSH1 0x24 DUP3 ADD MSTORE PUSH32 0x416D6F756E7420746F2066756E642069732067726561746572207468616E2074 PUSH1 0x44 DUP3 ADD MSTORE PUSH32 0x686520746F74616C20696E74656E74656420666F722072657761726420746F6B PUSH1 0x64 DUP3 ADD MSTORE PUSH3 0x656E73 PUSH1 0xE8 SHL PUSH1 0x84 DUP3 ADD MSTORE PUSH1 0xA4 ADD PUSH2 0x797 JUMP JUMPDEST DUP1 PUSH1 0x10 PUSH1 0x0 DUP3 DUP3 SLOAD PUSH2 0x1EEE SWAP2 SWAP1 PUSH2 0x2EAF JUMP JUMPDEST SWAP3 POP POP DUP2 SWAP1 SSTORE POP DUP1 PUSH1 0x13 PUSH1 0x0 DUP3 DUP3 SLOAD PUSH2 0x1F07 SWAP2 SWAP1 PUSH2 0x2EAF JUMP JUMPDEST SWAP1 SWAP2 SSTORE POP POP PUSH1 0x15 SLOAD PUSH1 0xFF AND PUSH2 0x1F28 JUMPI PUSH1 0x15 DUP1 SLOAD PUSH1 0xFF NOT AND PUSH1 0x1 OR SWAP1 SSTORE TIMESTAMP PUSH1 0x14 SSTORE JUMPDEST PUSH32 0xBC0B9ECC68EC48681B8F5718FA26B9CE02021220455BE5F5837A944140A80EA3 DUP3 DUP3 PUSH1 0x40 MLOAD PUSH2 0x1F59 SWAP3 SWAP2 SWAP1 PUSH2 0x2FFA JUMP JUMPDEST PUSH1 0x40 MLOAD DUP1 SWAP2 SUB SWAP1 LOG1 PUSH2 0x17C0 PUSH1 0x1 DUP1 SSTORE JUMP JUMPDEST PUSH2 0x1F72 PUSH2 0x2A53 JUMP JUMPDEST PUSH2 0x1F7A PUSH2 0x2A29 JUMP JUMPDEST PUSH1 0x0 DUP3 PUSH1 0x2 DUP2 GT ISZERO PUSH2 0x1F8E JUMPI PUSH2 0x1F8E PUSH2 0x2FE4 JUMP JUMPDEST EQ DUP1 PUSH2 0x1FAB JUMPI POP PUSH1 0x1 DUP3 PUSH1 0x2 DUP2 GT ISZERO PUSH2 0x1FA9 JUMPI PUSH2 0x1FA9 PUSH2 0x2FE4 JUMP JUMPDEST EQ JUMPDEST DUP1 PUSH2 0x1FC7 JUMPI POP PUSH1 0x2 DUP3 PUSH1 0x2 DUP2 GT ISZERO PUSH2 0x1FC5 JUMPI PUSH2 0x1FC5 PUSH2 0x2FE4 JUMP JUMPDEST EQ JUMPDEST PUSH2 0x200A JUMPI PUSH1 0x40 MLOAD PUSH3 0x461BCD PUSH1 0xE5 SHL DUP2 MSTORE PUSH1 0x20 PUSH1 0x4 DUP3 ADD MSTORE PUSH1 0x14 PUSH1 0x24 DUP3 ADD MSTORE PUSH20 0x496E76616C69642066756E64696E672074797065 PUSH1 0x60 SHL PUSH1 0x44 DUP3 ADD MSTORE PUSH1 0x64 ADD PUSH2 0x797 JUMP JUMPDEST PUSH1 0x0 DUP2 GT PUSH2 0x205A JUMPI PUSH1 0x40 MLOAD PUSH3 0x461BCD PUSH1 0xE5 SHL DUP2 MSTORE PUSH1 0x20 PUSH1 0x4 DUP3 ADD MSTORE PUSH1 0x1D PUSH1 0x24 DUP3 ADD MSTORE PUSH32 0x416D6F756E74206D7573742062652067726561746572207468616E2030000000 PUSH1 0x44 DUP3 ADD MSTORE PUSH1 0x64 ADD PUSH2 0x797 JUMP JUMPDEST PUSH1 0x0 DUP3 PUSH1 0x2 DUP2 GT ISZERO PUSH2 0x206E JUMPI PUSH2 0x206E PUSH2 0x2FE4 JUMP JUMPDEST SUB PUSH2 0x2123 JUMPI PUSH1 0x9 SLOAD PUSH1 0xFF AND PUSH2 0x2095 JUMPI PUSH1 0x40 MLOAD PUSH3 0x461BCD PUSH1 0xE5 SHL DUP2 MSTORE PUSH1 0x4 ADD PUSH2 0x797 SWAP1 PUSH2 0x2DF1 JUMP JUMPDEST PUSH1 0x6 SLOAD DUP2 GT ISZERO PUSH2 0x2106 JUMPI PUSH1 0x40 MLOAD PUSH3 0x461BCD PUSH1 0xE5 SHL DUP2 MSTORE PUSH1 0x20 PUSH1 0x4 DUP3 ADD MSTORE PUSH1 0x36 PUSH1 0x24 DUP3 ADD MSTORE PUSH32 0x496E73756666696369656E742067726F77746820746F6B656E7320696E207468 PUSH1 0x44 DUP3 ADD MSTORE PUSH22 0x6520636F6E747261637420746F207769746864726177 PUSH1 0x50 SHL PUSH1 0x64 DUP3 ADD MSTORE PUSH1 0x84 ADD PUSH2 0x797 JUMP JUMPDEST DUP1 PUSH1 0x6 PUSH1 0x0 DUP3 DUP3 SLOAD PUSH2 0x2118 SWAP2 SWAP1 PUSH2 0x2EC8 JUMP JUMPDEST SWAP1 SWAP2 SSTORE POP PUSH2 0x2254 SWAP1 POP JUMP JUMPDEST PUSH1 0x1 DUP3 PUSH1 0x2 DUP2 GT ISZERO PUSH2 0x2137 JUMPI PUSH2 0x2137 PUSH2 0x2FE4 JUMP JUMPDEST SUB PUSH2 0x21DF JUMPI PUSH1 0xF SLOAD PUSH1 0xFF AND PUSH2 0x215E JUMPI PUSH1 0x40 MLOAD PUSH3 0x461BCD PUSH1 0xE5 SHL DUP2 MSTORE PUSH1 0x4 ADD PUSH2 0x797 SWAP1 PUSH2 0x2DF1 JUMP JUMPDEST PUSH1 0xC SLOAD DUP2 GT ISZERO PUSH2 0x21CD JUMPI PUSH1 0x40 MLOAD PUSH3 0x461BCD PUSH1 0xE5 SHL DUP2 MSTORE PUSH1 0x20 PUSH1 0x4 DUP3 ADD MSTORE PUSH1 0x34 PUSH1 0x24 DUP3 ADD MSTORE PUSH32 0x496E73756666696369656E74207465616D20746F6B656E7320696E2074686520 PUSH1 0x44 DUP3 ADD MSTORE PUSH20 0x636F6E747261637420746F207769746864726177 PUSH1 0x60 SHL PUSH1 0x64 DUP3 ADD MSTORE PUSH1 0x84 ADD PUSH2 0x797 JUMP JUMPDEST DUP1 PUSH1 0xC PUSH1 0x0 DUP3 DUP3 SLOAD PUSH2 0x2118 SWAP2 SWAP1 PUSH2 0x2EC8 JUMP JUMPDEST PUSH1 0x2 DUP3 PUSH1 0x2 DUP2 GT ISZERO PUSH2 0x21F3 JUMPI PUSH2 0x21F3 PUSH2 0x2FE4 JUMP JUMPDEST SUB PUSH2 0x2254 JUMPI PUSH1 0x15 SLOAD PUSH1 0xFF AND PUSH2 0x221A JUMPI PUSH1 0x40 MLOAD PUSH3 0x461BCD PUSH1 0xE5 SHL DUP2 MSTORE PUSH1 0x4 ADD PUSH2 0x797 SWAP1 PUSH2 0x2DF1 JUMP JUMPDEST PUSH1 0x13 SLOAD DUP2 GT ISZERO PUSH2 0x223C JUMPI PUSH1 0x40 MLOAD PUSH3 0x461BCD PUSH1 0xE5 SHL DUP2 MSTORE PUSH1 0x4 ADD PUSH2 0x797 SWAP1 PUSH2 0x2E43 JUMP JUMPDEST DUP1 PUSH1 0x13 PUSH1 0x0 DUP3 DUP3 SLOAD PUSH2 0x224E SWAP2 SWAP1 PUSH2 0x2EC8 JUMP JUMPDEST SWAP1 SWAP2 SSTORE POP POP JUMPDEST PUSH1 0x3 SLOAD PUSH1 0x1 PUSH1 0x1 PUSH1 0xA0 SHL SUB AND PUSH4 0xA9059CBB PUSH2 0x2277 PUSH1 0x0 SLOAD PUSH1 0x1 PUSH1 0x1 PUSH1 0xA0 SHL SUB AND SWAP1 JUMP JUMPDEST PUSH1 0x40 MLOAD PUSH1 0x1 PUSH1 0x1 PUSH1 0xE0 SHL SUB NOT PUSH1 0xE0 DUP5 SWAP1 SHL AND DUP2 MSTORE PUSH1 0x1 PUSH1 0x1 PUSH1 0xA0 SHL SUB SWAP1 SWAP2 AND PUSH1 0x4 DUP3 ADD MSTORE PUSH1 0x24 DUP2 ADD DUP5 SWAP1 MSTORE PUSH1 0x44 ADD PUSH1 0x20 PUSH1 0x40 MLOAD DUP1 DUP4 SUB DUP2 PUSH1 0x0 DUP8 GAS CALL ISZERO DUP1 ISZERO PUSH2 0x22C4 JUMPI RETURNDATASIZE PUSH1 0x0 DUP1 RETURNDATACOPY RETURNDATASIZE PUSH1 0x0 REVERT JUMPDEST POP POP POP POP PUSH1 0x40 MLOAD RETURNDATASIZE PUSH1 0x1F NOT PUSH1 0x1F DUP3 ADD AND DUP3 ADD DUP1 PUSH1 0x40 MSTORE POP DUP2 ADD SWAP1 PUSH2 0x22E8 SWAP2 SWAP1 PUSH2 0x2EDB JUMP JUMPDEST PUSH2 0x2334 JUMPI PUSH1 0x40 MLOAD PUSH3 0x461BCD PUSH1 0xE5 SHL DUP2 MSTORE PUSH1 0x20 PUSH1 0x4 DUP3 ADD DUP2 SWAP1 MSTORE PUSH1 0x24 DUP3 ADD MSTORE PUSH32 0x4661696C656420746F207472616E736665722067726F77746820746F6B656E73 PUSH1 0x44 DUP3 ADD MSTORE PUSH1 0x64 ADD PUSH2 0x797 JUMP JUMPDEST PUSH32 0xB9DB6F85CD4E97884845CFB10D7FBBA4D9CD4B9516CF2795B4C50CD886875BAB DUP3 DUP3 PUSH1 0x40 MLOAD PUSH2 0x1F59 SWAP3 SWAP2 SWAP1 PUSH2 0x2FFA JUMP JUMPDEST PUSH1 0x0 SLOAD PUSH1 0x1 PUSH1 0x1 PUSH1 0xA0 SHL SUB AND CALLER EQ DUP1 PUSH2 0x2388 JUMPI POP PUSH1 0x16 SLOAD PUSH1 0x1 PUSH1 0x1 PUSH1 0xA0 SHL SUB AND CALLER EQ JUMPDEST DUP1 PUSH2 0x2392 JUMPI POP CALLER ADDRESS EQ JUMPDEST PUSH2 0x23AE JUMPI PUSH1 0x40 MLOAD PUSH3 0x461BCD PUSH1 0xE5 SHL DUP2 MSTORE PUSH1 0x4 ADD PUSH2 0x797 SWAP1 PUSH2 0x3026 JUMP JUMPDEST PUSH1 0x40 DUP1 MLOAD CALLER DUP2 MSTORE ORIGIN PUSH1 0x20 DUP3 ADD MSTORE PUSH1 0x0 DUP1 MLOAD PUSH1 0x20 PUSH2 0x32A3 DUP4 CODECOPY DUP2 MLOAD SWAP2 MSTORE SWAP2 ADD PUSH1 0x40 MLOAD DUP1 SWAP2 SUB SWAP1 LOG1 PUSH2 0x23DC PUSH2 0x2A29 JUMP JUMPDEST PUSH1 0x64 DUP4 GT ISZERO PUSH2 0x2445 JUMPI PUSH1 0x40 MLOAD PUSH3 0x461BCD PUSH1 0xE5 SHL DUP2 MSTORE PUSH1 0x20 PUSH1 0x4 DUP3 ADD MSTORE PUSH1 0x2F PUSH1 0x24 DUP3 ADD MSTORE PUSH32 0x42617463682073697A652065786365656473206C696D69742E204D6178206261 PUSH1 0x44 DUP3 ADD MSTORE PUSH15 0x7463682073697A652069732031303 PUSH1 0x8C SHL PUSH1 0x64 DUP3 ADD MSTORE PUSH1 0x84 ADD PUSH2 0x797 JUMP JUMPDEST DUP3 DUP2 EQ PUSH2 0x2494 JUMPI PUSH1 0x40 MLOAD PUSH3 0x461BCD PUSH1 0xE5 SHL DUP2 MSTORE PUSH1 0x20 PUSH1 0x4 DUP3 ADD MSTORE PUSH1 0x19 PUSH1 0x24 DUP3 ADD MSTORE PUSH32 0x4172726179206C656E67746873206D757374206D617463682E00000000000000 PUSH1 0x44 DUP3 ADD MSTORE PUSH1 0x64 ADD PUSH2 0x797 JUMP JUMPDEST PUSH1 0x0 JUMPDEST DUP4 DUP2 LT ISZERO PUSH2 0x25EE JUMPI ADDRESS PUSH4 0xFAFD7C20 DUP7 DUP7 DUP5 DUP2 DUP2 LT PUSH2 0x24B7 JUMPI PUSH2 0x24B7 PUSH2 0x309D JUMP JUMPDEST SWAP1 POP PUSH1 0x20 MUL ADD PUSH1 0x20 DUP2 ADD SWAP1 PUSH2 0x24CC SWAP2 SWAP1 PUSH2 0x2BD9 JUMP JUMPDEST DUP6 DUP6 DUP6 DUP2 DUP2 LT PUSH2 0x24DE JUMPI PUSH2 0x24DE PUSH2 0x309D JUMP JUMPDEST PUSH1 0x40 MLOAD PUSH1 0x1 PUSH1 0x1 PUSH1 0xE0 SHL SUB NOT PUSH1 0xE0 DUP8 SWAP1 SHL AND DUP2 MSTORE PUSH1 0x1 PUSH1 0x1 PUSH1 0xA0 SHL SUB SWAP1 SWAP5 AND PUSH1 0x4 DUP6 ADD MSTORE PUSH1 0x20 MUL SWAP2 SWAP1 SWAP2 ADD CALLDATALOAD PUSH1 0x24 DUP4 ADD MSTORE POP PUSH1 0x44 ADD PUSH1 0x0 PUSH1 0x40 MLOAD DUP1 DUP4 SUB DUP2 PUSH1 0x0 DUP8 DUP1 EXTCODESIZE ISZERO DUP1 ISZERO PUSH2 0x252D JUMPI PUSH1 0x0 DUP1 REVERT JUMPDEST POP GAS CALL SWAP3 POP POP POP DUP1 ISZERO PUSH2 0x253E JUMPI POP PUSH1 0x1 JUMPDEST PUSH2 0x25DC JUMPI PUSH2 0x254A PUSH2 0x30B3 JUMP JUMPDEST DUP1 PUSH4 0x8C379A0 SUB PUSH2 0x25D0 JUMPI POP PUSH2 0x255E PUSH2 0x310A JUMP JUMPDEST DUP1 PUSH2 0x2569 JUMPI POP PUSH2 0x25D2 JUMP JUMPDEST PUSH32 0x80C7A907FB61FF886445C2FEB367D7B196637D154438EC7337EB57021EF5F5A1 CALLER DUP8 DUP8 DUP6 DUP2 DUP2 LT PUSH2 0x259D JUMPI PUSH2 0x259D PUSH2 0x309D JUMP JUMPDEST SWAP1 POP PUSH1 0x20 MUL ADD PUSH1 0x20 DUP2 ADD SWAP1 PUSH2 0x25B2 SWAP2 SWAP1 PUSH2 0x2BD9 JUMP JUMPDEST DUP4 PUSH1 0x40 MLOAD PUSH2 0x25C2 SWAP4 SWAP3 SWAP2 SWAP1 PUSH2 0x3194 JUMP JUMPDEST PUSH1 0x40 MLOAD DUP1 SWAP2 SUB SWAP1 LOG1 POP PUSH2 0x25DC JUMP JUMPDEST POP JUMPDEST RETURNDATASIZE PUSH1 0x0 DUP1 RETURNDATACOPY RETURNDATASIZE PUSH1 0x0 REVERT JUMPDEST DUP1 PUSH2 0x25E6 DUP2 PUSH2 0x31FE JUMP JUMPDEST SWAP2 POP POP PUSH2 0x2497 JUMP JUMPDEST POP PUSH32 0x52DD8A4364E3D5AE29438C85E6A1B2B92585664B55E8DDFB78D1912F9B9B07B7 CALLER DUP6 DUP6 DUP6 DUP6 PUSH1 0x40 MLOAD PUSH2 0x2626 SWAP6 SWAP5 SWAP4 SWAP3 SWAP2 SWAP1 PUSH2 0x3217 JUMP JUMPDEST PUSH1 0x40 MLOAD DUP1 SWAP2 SUB SWAP1 LOG1 PUSH2 0x2637 PUSH1 0x1 DUP1 SSTORE JUMP JUMPDEST POP POP POP POP JUMP JUMPDEST PUSH2 0x2645 PUSH2 0x2A53 JUMP JUMPDEST PUSH1 0x1 PUSH1 0x1 PUSH1 0xA0 SHL SUB DUP2 AND PUSH2 0x26AA JUMPI PUSH1 0x40 MLOAD PUSH3 0x461BCD PUSH1 0xE5 SHL DUP2 MSTORE PUSH1 0x20 PUSH1 0x4 DUP3 ADD MSTORE PUSH1 0x26 PUSH1 0x24 DUP3 ADD MSTORE PUSH32 0x4F776E61626C653A206E6577206F776E657220697320746865207A65726F2061 PUSH1 0x44 DUP3 ADD MSTORE PUSH6 0x646472657373 PUSH1 0xD0 SHL PUSH1 0x64 DUP3 ADD MSTORE PUSH1 0x84 ADD PUSH2 0x797 JUMP JUMPDEST ADDRESS PUSH1 0x1 PUSH1 0x1 PUSH1 0xA0 SHL SUB DUP3 AND SUB PUSH2 0x2721 JUMPI PUSH1 0x40 MLOAD PUSH3 0x461BCD PUSH1 0xE5 SHL DUP2 MSTORE PUSH1 0x20 PUSH1 0x4 DUP3 ADD MSTORE PUSH1 0x36 PUSH1 0x24 DUP3 ADD MSTORE PUSH32 0x4F776E61626C653A206E6577206F776E65722063616E6E6F7420626520746865 PUSH1 0x44 DUP3 ADD MSTORE PUSH22 0x2073616D6520636F6E74726163742061646472657373 PUSH1 0x50 SHL PUSH1 0x64 DUP3 ADD MSTORE PUSH1 0x84 ADD PUSH2 0x797 JUMP JUMPDEST PUSH2 0xAA5 DUP2 PUSH2 0x2AD5 JUMP JUMPDEST PUSH1 0x0 SLOAD PUSH1 0x1 PUSH1 0x1 PUSH1 0xA0 SHL SUB AND CALLER EQ DUP1 PUSH2 0x274D JUMPI POP PUSH1 0x16 SLOAD PUSH1 0x1 PUSH1 0x1 PUSH1 0xA0 SHL SUB AND CALLER EQ JUMPDEST DUP1 PUSH2 0x2757 JUMPI POP CALLER ADDRESS EQ JUMPDEST PUSH2 0x2773 JUMPI PUSH1 0x40 MLOAD PUSH3 0x461BCD PUSH1 0xE5 SHL DUP2 MSTORE PUSH1 0x4 ADD PUSH2 0x797 SWAP1 PUSH2 0x3026 JUMP JUMPDEST PUSH1 0x40 DUP1 MLOAD CALLER DUP2 MSTORE ORIGIN PUSH1 0x20 DUP3 ADD MSTORE PUSH1 0x0 DUP1 MLOAD PUSH1 0x20 PUSH2 0x32A3 DUP4 CODECOPY DUP2 MLOAD SWAP2 MSTORE SWAP2 ADD PUSH1 0x40 MLOAD DUP1 SWAP2 SUB SWAP1 LOG1 PUSH1 0x1 PUSH1 0x1 PUSH1 0xA0 SHL SUB DUP3 AND PUSH1 0x0 SWAP1 DUP2 MSTORE PUSH1 0x17 PUSH1 0x20 MSTORE PUSH1 0x40 SWAP1 KECCAK256 PUSH1 0x9 ADD SLOAD PUSH1 0xFF PUSH2 0x100 SWAP1 SWAP2 DIV AND ISZERO ISZERO PUSH1 0x1 EQ PUSH2 0x27DF JUMPI PUSH1 0x40 MLOAD PUSH3 0x461BCD PUSH1 0xE5 SHL DUP2 MSTORE PUSH1 0x4 ADD PUSH2 0x797 SWAP1 PUSH2 0x2D83 JUMP JUMPDEST PUSH1 0x1 PUSH1 0x1 PUSH1 0xA0 SHL SUB DUP3 AND PUSH1 0x0 SWAP1 DUP2 MSTORE PUSH1 0x17 PUSH1 0x20 MSTORE PUSH1 0x40 SWAP1 KECCAK256 PUSH1 0x9 ADD SLOAD PUSH3 0x10000 SWAP1 DIV PUSH1 0xFF AND ISZERO PUSH2 0x2821 JUMPI PUSH1 0x40 MLOAD PUSH3 0x461BCD PUSH1 0xE5 SHL DUP2 MSTORE PUSH1 0x4 ADD PUSH2 0x797 SWAP1 PUSH2 0x2DBA JUMP JUMPDEST PUSH1 0x1 PUSH1 0x1 PUSH1 0xA0 SHL SUB DUP3 AND PUSH1 0x0 SWAP1 DUP2 MSTORE PUSH1 0x17 PUSH1 0x20 MSTORE PUSH1 0x40 SWAP1 KECCAK256 PUSH1 0x8 ADD SLOAD PUSH2 0x284B SWAP1 PUSH3 0x7E900 SWAP1 PUSH2 0x2EAF JUMP JUMPDEST TIMESTAMP LT ISZERO PUSH2 0x28AD JUMPI PUSH1 0x40 MLOAD PUSH3 0x461BCD PUSH1 0xE5 SHL DUP2 MSTORE PUSH1 0x20 PUSH1 0x4 DUP3 ADD MSTORE PUSH1 0x2A PUSH1 0x24 DUP3 ADD MSTORE PUSH32 0x546F6F20736F6F6E20746F20757064617465207265776172647320666F722074 PUSH1 0x44 DUP3 ADD MSTORE PUSH10 0x1A1A5CC81DD85B1B195D PUSH1 0xB2 SHL PUSH1 0x64 DUP3 ADD MSTORE PUSH1 0x84 ADD PUSH2 0x797 JUMP JUMPDEST PUSH2 0x28C3 PUSH1 0x34 PUSH11 0x7C13BC4B2C133C56000000 PUSH2 0x2EF8 JUMP JUMPDEST DUP2 GT ISZERO PUSH2 0x293A JUMPI PUSH1 0x40 DUP1 MLOAD PUSH3 0x461BCD PUSH1 0xE5 SHL DUP2 MSTORE PUSH1 0x20 PUSH1 0x4 DUP3 ADD MSTORE PUSH1 0x24 DUP2 ADD SWAP2 SWAP1 SWAP2 MSTORE PUSH32 0x412073696E676C652077616C6C65742063616E6E6F7420686176652072657761 PUSH1 0x44 DUP3 ADD MSTORE PUSH32 0x72647320686967686572207468616E20746865207765656B6C79206C696D6974 PUSH1 0x64 DUP3 ADD MSTORE PUSH1 0x84 ADD PUSH2 0x797 JUMP JUMPDEST PUSH1 0x13 SLOAD DUP2 GT ISZERO PUSH2 0x29A8 JUMPI PUSH1 0x40 MLOAD PUSH3 0x461BCD PUSH1 0xE5 SHL DUP2 MSTORE PUSH1 0x20 PUSH1 0x4 DUP3 ADD MSTORE PUSH1 0x33 PUSH1 0x24 DUP3 ADD MSTORE PUSH32 0x496E73756666696369656E742072657761726420746F6B656E7320746F206469 PUSH1 0x44 DUP3 ADD MSTORE PUSH19 0x73747269627574652061732072657761726473 PUSH1 0x68 SHL PUSH1 0x64 DUP3 ADD MSTORE PUSH1 0x84 ADD PUSH2 0x797 JUMP JUMPDEST DUP1 PUSH1 0x11 PUSH1 0x0 DUP3 DUP3 SLOAD PUSH2 0x29BA SWAP2 SWAP1 PUSH2 0x2EAF JUMP JUMPDEST SWAP1 SWAP2 SSTORE POP POP PUSH1 0x1 PUSH1 0x1 PUSH1 0xA0 SHL SUB DUP3 AND PUSH1 0x0 SWAP1 DUP2 MSTORE PUSH1 0x17 PUSH1 0x20 MSTORE PUSH1 0x40 DUP2 KECCAK256 TIMESTAMP PUSH1 0x8 DUP3 ADD SSTORE PUSH1 0x2 ADD DUP1 SLOAD DUP4 SWAP3 SWAP1 PUSH2 0x29F0 SWAP1 DUP5 SWAP1 PUSH2 0x2EAF JUMP JUMPDEST SWAP1 SWAP2 SSTORE POP POP PUSH1 0x1 PUSH1 0x1 PUSH1 0xA0 SHL SUB DUP3 AND PUSH1 0x0 SWAP1 DUP2 MSTORE PUSH1 0x17 PUSH1 0x20 MSTORE PUSH1 0x40 DUP2 KECCAK256 PUSH1 0x3 ADD DUP1 SLOAD DUP4 SWAP3 SWAP1 PUSH2 0x2A20 SWAP1 DUP5 SWAP1 PUSH2 0x2EAF JUMP JUMPDEST SWAP1 SWAP2 SSTORE POP POP POP POP JUMP JUMPDEST PUSH1 0x2 PUSH1 0x1 SLOAD SUB PUSH2 0x2A4C JUMPI PUSH1 0x40 MLOAD PUSH4 0x3EE5AEB5 PUSH1 0xE0 SHL DUP2 MSTORE PUSH1 0x4 ADD PUSH1 0x40 MLOAD DUP1 SWAP2 SUB SWAP1 REVERT JUMPDEST PUSH1 0x2 PUSH1 0x1 SSTORE JUMP JUMPDEST PUSH1 0x0 SLOAD PUSH1 0x1 PUSH1 0x1 PUSH1 0xA0 SHL SUB AND CALLER EQ PUSH2 0xAB8 JUMPI PUSH1 0x40 MLOAD PUSH4 0x118CDAA7 PUSH1 0xE0 SHL DUP2 MSTORE CALLER PUSH1 0x4 DUP3 ADD MSTORE PUSH1 0x24 ADD PUSH2 0x797 JUMP JUMPDEST PUSH2 0x2A88 PUSH2 0x2B68 JUMP JUMPDEST PUSH1 0x0 DUP1 SLOAD PUSH1 0xFF PUSH1 0xA0 SHL NOT AND SWAP1 SSTORE PUSH32 0x5DB9EE0A495BF2E6FF9C91A7834C1BA4FDD244A5E8AA4E537BD38AEAE4B073AA CALLER JUMPDEST PUSH1 0x40 MLOAD PUSH1 0x1 PUSH1 0x1 PUSH1 0xA0 SHL SUB SWAP1 SWAP2 AND DUP2 MSTORE PUSH1 0x20 ADD PUSH1 0x40 MLOAD DUP1 SWAP2 SUB SWAP1 LOG1 JUMP JUMPDEST PUSH1 0x0 DUP1 SLOAD PUSH1 0x1 PUSH1 0x1 PUSH1 0xA0 SHL SUB DUP4 DUP2 AND PUSH1 0x1 PUSH1 0x1 PUSH1 0xA0 SHL SUB NOT DUP4 AND DUP2 OR DUP5 SSTORE PUSH1 0x40 MLOAD SWAP2 SWAP1 SWAP3 AND SWAP3 DUP4 SWAP2 PUSH32 0x8BE0079C531659141344CD1FD0A4F28419497F9722A3DAAFE3B4186F6B6457E0 SWAP2 SWAP1 LOG3 POP POP JUMP JUMPDEST PUSH2 0x2B2D PUSH2 0x2B92 JUMP JUMPDEST PUSH1 0x0 DUP1 SLOAD PUSH1 0xFF PUSH1 0xA0 SHL NOT AND PUSH1 0x1 PUSH1 0xA0 SHL OR SWAP1 SSTORE PUSH32 0x62E78CEA01BEE320CD4E420270B5EA74000D11B0C9F74754EBDBFC544B05A258 PUSH2 0x2AB8 CALLER SWAP1 JUMP JUMPDEST PUSH1 0x0 SLOAD PUSH1 0x1 PUSH1 0xA0 SHL SWAP1 DIV PUSH1 0xFF AND PUSH2 0xAB8 JUMPI PUSH1 0x40 MLOAD PUSH4 0x8DFC202B PUSH1 0xE0 SHL DUP2 MSTORE PUSH1 0x4 ADD PUSH1 0x40 MLOAD DUP1 SWAP2 SUB SWAP1 REVERT JUMPDEST PUSH1 0x0 SLOAD PUSH1 0x1 PUSH1 0xA0 SHL SWAP1 DIV PUSH1 0xFF AND ISZERO PUSH2 0xAB8 JUMPI PUSH1 0x40 MLOAD PUSH4 0xD93C0665 PUSH1 0xE0 SHL DUP2 MSTORE PUSH1 0x4 ADD PUSH1 0x40 MLOAD DUP1 SWAP2 SUB SWAP1 REVERT JUMPDEST DUP1 CALLDATALOAD PUSH1 0x1 PUSH1 0x1 PUSH1 0xA0 SHL SUB DUP2 AND DUP2 EQ PUSH2 0x2BD4 JUMPI PUSH1 0x0 DUP1 REVERT JUMPDEST SWAP2 SWAP1 POP JUMP JUMPDEST PUSH1 0x0 PUSH1 0x20 DUP3 DUP5 SUB SLT ISZERO PUSH2 0x2BEB JUMPI PUSH1 0x0 DUP1 REVERT JUMPDEST PUSH2 0x2BF4 DUP3 PUSH2 0x2BBD JUMP JUMPDEST SWAP4 SWAP3 POP POP POP JUMP JUMPDEST DUP1 ISZERO ISZERO DUP2 EQ PUSH2 0xAA5 JUMPI PUSH1 0x0 DUP1 REVERT JUMPDEST PUSH1 0x0 DUP1 PUSH1 0x0 PUSH1 0x60 DUP5 DUP7 SUB SLT ISZERO PUSH2 0x2C1E JUMPI PUSH1 0x0 DUP1 REVERT JUMPDEST PUSH2 0x2C27 DUP5 PUSH2 0x2BBD JUMP JUMPDEST SWAP3 POP PUSH1 0x20 DUP5 ADD CALLDATALOAD PUSH2 0x2C37 DUP2 PUSH2 0x2BFB JUMP JUMPDEST SWAP3 SWAP6 SWAP3 SWAP5 POP POP POP PUSH1 0x40 SWAP2 SWAP1 SWAP2 ADD CALLDATALOAD SWAP1 JUMP JUMPDEST PUSH1 0x0 DUP1 PUSH1 0x40 DUP4 DUP6 SUB SLT ISZERO PUSH2 0x2C5B JUMPI PUSH1 0x0 DUP1 REVERT JUMPDEST PUSH2 0x2C64 DUP4 PUSH2 0x2BBD JUMP JUMPDEST SWAP2 POP PUSH1 0x20 DUP4 ADD CALLDATALOAD PUSH2 0x2C74 DUP2 PUSH2 0x2BFB JUMP JUMPDEST DUP1 SWAP2 POP POP SWAP3 POP SWAP3 SWAP1 POP JUMP JUMPDEST PUSH1 0x0 DUP1 PUSH1 0x40 DUP4 DUP6 SUB SLT ISZERO PUSH2 0x2C92 JUMPI PUSH1 0x0 DUP1 REVERT JUMPDEST DUP3 CALLDATALOAD PUSH1 0x3 DUP2 LT PUSH2 0x2CA1 JUMPI PUSH1 0x0 DUP1 REVERT JUMPDEST SWAP5 PUSH1 0x20 SWAP4 SWAP1 SWAP4 ADD CALLDATALOAD SWAP4 POP POP POP JUMP JUMPDEST PUSH1 0x0 DUP1 DUP4 PUSH1 0x1F DUP5 ADD SLT PUSH2 0x2CC1 JUMPI PUSH1 0x0 DUP1 REVERT JUMPDEST POP DUP2 CALLDATALOAD PUSH8 0xFFFFFFFFFFFFFFFF DUP2 GT ISZERO PUSH2 0x2CD9 JUMPI PUSH1 0x0 DUP1 REVERT JUMPDEST PUSH1 0x20 DUP4 ADD SWAP2 POP DUP4 PUSH1 0x20 DUP3 PUSH1 0x5 SHL DUP6 ADD ADD GT ISZERO PUSH2 0x2CF4 JUMPI PUSH1 0x0 DUP1 REVERT JUMPDEST SWAP3 POP SWAP3 SWAP1 POP JUMP JUMPDEST PUSH1 0x0 DUP1 PUSH1 0x0 DUP1 PUSH1 0x40 DUP6 DUP8 SUB SLT ISZERO PUSH2 0x2D11 JUMPI PUSH1 0x0 DUP1 REVERT JUMPDEST DUP5 CALLDATALOAD PUSH8 0xFFFFFFFFFFFFFFFF DUP1 DUP3 GT ISZERO PUSH2 0x2D29 JUMPI PUSH1 0x0 DUP1 REVERT JUMPDEST PUSH2 0x2D35 DUP9 DUP4 DUP10 ADD PUSH2 0x2CAF JUMP JUMPDEST SWAP1 SWAP7 POP SWAP5 POP PUSH1 0x20 DUP8 ADD CALLDATALOAD SWAP2 POP DUP1 DUP3 GT ISZERO PUSH2 0x2D4E JUMPI PUSH1 0x0 DUP1 REVERT JUMPDEST POP PUSH2 0x2D5B DUP8 DUP3 DUP9 ADD PUSH2 0x2CAF JUMP JUMPDEST SWAP6 SWAP9 SWAP5 SWAP8 POP SWAP6 POP POP POP POP JUMP JUMPDEST PUSH1 0x0 DUP1 PUSH1 0x40 DUP4 DUP6 SUB SLT ISZERO PUSH2 0x2D7A JUMPI PUSH1 0x0 DUP1 REVERT JUMPDEST PUSH2 0x2CA1 DUP4 PUSH2 0x2BBD JUMP JUMPDEST PUSH1 0x20 DUP1 DUP3 MSTORE PUSH1 0x19 SWAP1 DUP3 ADD MSTORE PUSH32 0x57616C6C6574206973206E6F742077686974656C697374656400000000000000 PUSH1 0x40 DUP3 ADD MSTORE PUSH1 0x60 ADD SWAP1 JUMP JUMPDEST PUSH1 0x20 DUP1 DUP3 MSTORE PUSH1 0x1B SWAP1 DUP3 ADD MSTORE PUSH32 0x57616C6C657420686173206265656E20626C61636B6C69737465640000000000 PUSH1 0x40 DUP3 ADD MSTORE PUSH1 0x60 ADD SWAP1 JUMP JUMPDEST PUSH1 0x20 DUP1 DUP3 MSTORE PUSH1 0x32 SWAP1 DUP3 ADD MSTORE PUSH32 0x46756E64696E6720686173206E6F742073746172746564207965742C206E6F20 PUSH1 0x40 DUP3 ADD MSTORE PUSH18 0x746F6B656E7320746F207769746864726177 PUSH1 0x70 SHL PUSH1 0x60 DUP3 ADD MSTORE PUSH1 0x80 ADD SWAP1 JUMP JUMPDEST PUSH1 0x20 DUP1 DUP3 MSTORE PUSH1 0x36 SWAP1 DUP3 ADD MSTORE PUSH32 0x496E73756666696369656E742072657761726420746F6B656E7320696E207468 PUSH1 0x40 DUP3 ADD MSTORE PUSH22 0x6520636F6E747261637420746F207769746864726177 PUSH1 0x50 SHL PUSH1 0x60 DUP3 ADD MSTORE PUSH1 0x80 ADD SWAP1 JUMP JUMPDEST PUSH4 0x4E487B71 PUSH1 0xE0 SHL PUSH1 0x0 MSTORE PUSH1 0x11 PUSH1 0x4 MSTORE PUSH1 0x24 PUSH1 0x0 REVERT JUMPDEST DUP1 DUP3 ADD DUP1 DUP3 GT ISZERO PUSH2 0x2EC2 JUMPI PUSH2 0x2EC2 PUSH2 0x2E99 JUMP JUMPDEST SWAP3 SWAP2 POP POP JUMP JUMPDEST DUP2 DUP2 SUB DUP2 DUP2 GT ISZERO PUSH2 0x2EC2 JUMPI PUSH2 0x2EC2 PUSH2 0x2E99 JUMP JUMPDEST PUSH1 0x0 PUSH1 0x20 DUP3 DUP5 SUB SLT ISZERO PUSH2 0x2EED JUMPI PUSH1 0x0 DUP1 REVERT JUMPDEST DUP2 MLOAD PUSH2 0x2BF4 DUP2 PUSH2 0x2BFB JUMP JUMPDEST PUSH1 0x0 DUP3 PUSH2 0x2F15 JUMPI PUSH4 0x4E487B71 PUSH1 0xE0 SHL PUSH1 0x0 MSTORE PUSH1 0x12 PUSH1 0x4 MSTORE PUSH1 0x24 PUSH1 0x0 REVERT JUMPDEST POP DIV SWAP1 JUMP JUMPDEST PUSH1 0x20 DUP1 DUP3 MSTORE PUSH1 0x37 SWAP1 DUP3 ADD MSTORE PUSH32 0x46756E6374696F6E207265736572766564206F6E6C7920666F72207468652077 PUSH1 0x40 DUP3 ADD MSTORE PUSH32 0x686974656C6973746572206F7220746865206F776E6572000000000000000000 PUSH1 0x60 DUP3 ADD MSTORE PUSH1 0x80 ADD SWAP1 JUMP JUMPDEST PUSH1 0x0 PUSH1 0xFF DUP3 AND PUSH1 0xFF DUP2 SUB PUSH2 0x2F8D JUMPI PUSH2 0x2F8D PUSH2 0x2E99 JUMP JUMPDEST PUSH1 0x1 ADD SWAP3 SWAP2 POP POP JUMP JUMPDEST PUSH1 0x20 DUP1 DUP3 MSTORE PUSH1 0x2E SWAP1 DUP3 ADD MSTORE PUSH32 0x57616C6C65742068617320616C7265616479206265656E207570646174656420 PUSH1 0x40 DUP3 ADD MSTORE PUSH14 0x746F207468617420737461747573 PUSH1 0x90 SHL PUSH1 0x60 DUP3 ADD MSTORE PUSH1 0x80 ADD SWAP1 JUMP JUMPDEST PUSH4 0x4E487B71 PUSH1 0xE0 SHL PUSH1 0x0 MSTORE PUSH1 0x21 PUSH1 0x4 MSTORE PUSH1 0x24 PUSH1 0x0 REVERT JUMPDEST PUSH1 0x40 DUP2 ADD PUSH1 0x3 DUP5 LT PUSH2 0x301C JUMPI PUSH4 0x4E487B71 PUSH1 0xE0 SHL PUSH1 0x0 MSTORE PUSH1 0x21 PUSH1 0x4 MSTORE PUSH1 0x24 PUSH1 0x0 REVERT JUMPDEST SWAP3 DUP2 MSTORE PUSH1 0x20 ADD MSTORE SWAP1 JUMP JUMPDEST PUSH1 0x20 DUP1 DUP3 MSTORE PUSH1 0x51 SWAP1 DUP3 ADD MSTORE PUSH32 0x46756E6374696F6E207265736572766564206F6E6C7920666F72207468652072 PUSH1 0x40 DUP3 ADD MSTORE PUSH32 0x65776172647320757064617465722C20746865206F776E65722C206F72207468 PUSH1 0x60 DUP3 ADD MSTORE PUSH17 0x329031B7B73A3930B1BA1034BA39B2B633 PUSH1 0x79 SHL PUSH1 0x80 DUP3 ADD MSTORE PUSH1 0xA0 ADD SWAP1 JUMP JUMPDEST PUSH4 0x4E487B71 PUSH1 0xE0 SHL PUSH1 0x0 MSTORE PUSH1 0x32 PUSH1 0x4 MSTORE PUSH1 0x24 PUSH1 0x0 REVERT JUMPDEST PUSH1 0x0 PUSH1 0x3 RETURNDATASIZE GT ISZERO PUSH2 0x30CC JUMPI PUSH1 0x4 PUSH1 0x0 DUP1 RETURNDATACOPY POP PUSH1 0x0 MLOAD PUSH1 0xE0 SHR JUMPDEST SWAP1 JUMP JUMPDEST PUSH1 0x1F DUP3 ADD PUSH1 0x1F NOT AND DUP2 ADD PUSH8 0xFFFFFFFFFFFFFFFF DUP2 GT DUP3 DUP3 LT OR ISZERO PUSH2 0x3103 JUMPI PUSH4 0x4E487B71 PUSH1 0xE0 SHL PUSH1 0x0 MSTORE PUSH1 0x41 PUSH1 0x4 MSTORE PUSH1 0x24 PUSH1 0x0 REVERT JUMPDEST PUSH1 0x40 MSTORE POP POP JUMP JUMPDEST PUSH1 0x0 PUSH1 0x44 RETURNDATASIZE LT ISZERO PUSH2 0x3118 JUMPI SWAP1 JUMP JUMPDEST PUSH1 0x40 MLOAD PUSH1 0x3 NOT RETURNDATASIZE DUP2 ADD PUSH1 0x4 DUP4 RETURNDATACOPY DUP2 MLOAD RETURNDATASIZE PUSH8 0xFFFFFFFFFFFFFFFF DUP2 PUSH1 0x24 DUP5 ADD GT DUP2 DUP5 GT OR ISZERO PUSH2 0x3148 JUMPI POP POP POP POP POP SWAP1 JUMP JUMPDEST DUP3 DUP6 ADD SWAP2 POP DUP2 MLOAD DUP2 DUP2 GT ISZERO PUSH2 0x3160 JUMPI POP POP POP POP POP POP SWAP1 JUMP JUMPDEST DUP5 RETURNDATASIZE DUP8 ADD ADD PUSH1 0x20 DUP3 DUP6 ADD ADD GT ISZERO PUSH2 0x317A JUMPI POP POP POP POP POP POP SWAP1 JUMP JUMPDEST PUSH2 0x3189 PUSH1 0x20 DUP3 DUP7 ADD ADD DUP8 PUSH2 0x30CF JUMP JUMPDEST POP SWAP1 SWAP6 SWAP5 POP POP POP POP POP JUMP JUMPDEST PUSH1 0x0 PUSH1 0x1 DUP1 PUSH1 0xA0 SHL SUB DUP1 DUP7 AND DUP4 MSTORE PUSH1 0x20 DUP2 DUP7 AND DUP2 DUP6 ADD MSTORE PUSH1 0x60 PUSH1 0x40 DUP6 ADD MSTORE DUP5 MLOAD SWAP2 POP DUP2 PUSH1 0x60 DUP6 ADD MSTORE PUSH1 0x0 JUMPDEST DUP3 DUP2 LT ISZERO PUSH2 0x31DB JUMPI DUP6 DUP2 ADD DUP3 ADD MLOAD DUP6 DUP3 ADD PUSH1 0x80 ADD MSTORE DUP2 ADD PUSH2 0x31BF JUMP JUMPDEST POP POP PUSH1 0x0 PUSH1 0x80 DUP3 DUP6 ADD ADD MSTORE PUSH1 0x80 PUSH1 0x1F NOT PUSH1 0x1F DUP4 ADD AND DUP5 ADD ADD SWAP2 POP POP SWAP5 SWAP4 POP POP POP POP JUMP JUMPDEST PUSH1 0x0 PUSH1 0x1 DUP3 ADD PUSH2 0x3210 JUMPI PUSH2 0x3210 PUSH2 0x2E99 JUMP JUMPDEST POP PUSH1 0x1 ADD SWAP1 JUMP JUMPDEST PUSH1 0x1 PUSH1 0x1 PUSH1 0xA0 SHL SUB DUP7 DUP2 AND DUP3 MSTORE PUSH1 0x60 PUSH1 0x20 DUP1 DUP5 ADD DUP3 SWAP1 MSTORE SWAP1 DUP4 ADD DUP7 SWAP1 MSTORE PUSH1 0x0 SWAP2 DUP8 SWAP2 PUSH1 0x80 DUP6 ADD DUP5 JUMPDEST DUP10 DUP2 LT ISZERO PUSH2 0x3264 JUMPI DUP4 PUSH2 0x3251 DUP7 PUSH2 0x2BBD JUMP JUMPDEST AND DUP3 MSTORE SWAP4 DUP3 ADD SWAP4 SWAP1 DUP3 ADD SWAP1 PUSH1 0x1 ADD PUSH2 0x323F JUMP JUMPDEST POP DUP6 DUP2 SUB PUSH1 0x40 DUP8 ADD MSTORE DUP7 DUP2 MSTORE PUSH1 0x1 PUSH1 0x1 PUSH1 0xFB SHL SUB DUP8 GT ISZERO PUSH2 0x3284 JUMPI PUSH1 0x0 DUP1 REVERT JUMPDEST DUP7 PUSH1 0x5 SHL SWAP4 POP DUP4 DUP9 DUP4 DUP4 ADD CALLDATACOPY SWAP1 SWAP3 ADD SWAP1 SWAP2 ADD SWAP9 SWAP8 POP POP POP POP POP POP POP POP JUMP INVALID CREATE2 PUSH19 0xC1A3C9723EE4A9544FDD9299FBDEA3409F4E29 0xA5 BYTE 0xE3 0x4E SHL PC CALLDATASIZE CALLVALUE POP 0xBA GT LOG2 PUSH5 0x6970667358 0x22 SLT KECCAK256 CALLVALUE 0xAC DUP6 0xD0 CODECOPY 0xBA 0xEA PUSH30 0xBD8428A0979879A11CD5053F97BB9FA37262050962F3BCBE64736F6C6343 STOP ADDMOD EQ STOP CALLER "},"methodIdentifiers":{"GROWTH_TOKENS_TOTAL()":"a868e997","GROWTH_TOKENS_WITHDRAWAL_PER_YEAR()":"1e6b4028","MAX_BATCH_SIZE_FOR_UPDATE_REWARDS()":"a3939526","MIN_INTERVAL_FOR_UPDATE_REWARDS()":"e3682a5d","REWARD_TOKENS_HOLDING_PERIOD()":"2558df21","REWARD_TOKENS_PER_WEEK()":"42ecb464","REWARD_TOKENS_PER_YEAR()":"de51d567","REWARD_TOKENS_TOTAL()":"81f8ca1b","TEAM_TOKENS_LOCKED_PERIOD()":"dcb7ff6b","TEAM_TOKENS_TOTAL()":"5493b30d","TEAM_TOKENS_WITHDRAWAL_PER_YEAR()":"8e6d32df","TOKENS_WITHDRAWAL_PERIOD()":"59aa8966","addWalletToWhitelist(address,bool,uint256)":"8a194d04","calculateYearForTeamTokens()":"8bb4dadd","fundSmartContract(uint8,uint256)":"d3946a8c","growthTokensFunded()":"5d70203b","growthTokensFundingStarted()":"f3793b9d","growthTokensInSmartContract()":"d356b49a","growthTokensLastWithdrawalTime()":"687a83f8","growthTokensStartFundingTime()":"9656cd8c","growthTokensWithdrawn()":"6148c783","hyaxToken()":"3ba10a56","hyaxTokenAddress()":"031f6589","owner()":"8da5cb5b","pause()":"8456cb59","paused()":"5c975abb","renounceOwnership()":"715018a6","rewardTokensDistributed()":"e774ce43","rewardTokensFunded()":"fd559526","rewardTokensFundingStarted()":"ebc8e2dd","rewardTokensInSmartContract()":"8da2e27f","rewardTokensStartFundingTime()":"6e3ce4e1","rewardTokensWithdrawn()":"334c4cb3","rewardsUpdaterAddress()":"f972c027","teamTokensFunded()":"f8ff46c6","teamTokensFundingStarted()":"c1cc52b3","teamTokensInSmartContract()":"647a5a78","teamTokensLastWithdrawalTime()":"7426a42a","teamTokensStartFundingTime()":"1035fc09","teamTokensWithdrawn()":"d7e57fda","transferOwnership(address)":"f2fde38b","unpause()":"3f4ba83a","updateBlacklistStatus(address,bool)":"b8360806","updateHyaxTokenAddress(address)":"9bae9002","updateRewardsBatch(address[],uint256[])":"efce5587","updateRewardsSingle(address,uint256)":"fafd7c20","updateRewardsUpdaterAddress(address)":"6fce7873","updateWhiteListerAddress(address)":"653c3a47","updateWhitelistStatus(address,bool)":"c07732a3","wallets(address)":"89b08f11","whiteListerAddress()":"65699d28","withdrawGrowthTokens()":"4c4dc42e","withdrawRewardTokens()":"370243dc","withdrawTeamTokens()":"953b7ef8","withdrawTokensToBurn(uint8,uint256)":"e2ccbfe4"}},"storageLayout":{"storage":[{"astId":8,"contract":"contracts/UpgradeableHYAXRewards.sol:UpgradeableHYAXRewards","label":"_owner","offset":0,"slot":"0","type":"t_address"},{"astId":186,"contract":"contracts/UpgradeableHYAXRewards.sol:UpgradeableHYAXRewards","label":"_paused","offset":20,"slot":"0","type":"t_bool"},{"astId":305,"contract":"contracts/UpgradeableHYAXRewards.sol:UpgradeableHYAXRewards","label":"_status","offset":0,"slot":"1","type":"t_uint256"},{"astId":504,"contract":"contracts/UpgradeableHYAXRewards.sol:UpgradeableHYAXRewards","label":"hyaxTokenAddress","offset":0,"slot":"2","type":"t_address"},{"astId":507,"contract":"contracts/UpgradeableHYAXRewards.sol:UpgradeableHYAXRewards","label":"hyaxToken","offset":0,"slot":"3","type":"t_contract(ERC20TokenInterface)403"},{"astId":530,"contract":"contracts/UpgradeableHYAXRewards.sol:UpgradeableHYAXRewards","label":"growthTokensFunded","offset":0,"slot":"4","type":"t_uint256"},{"astId":532,"contract":"contracts/UpgradeableHYAXRewards.sol:UpgradeableHYAXRewards","label":"growthTokensWithdrawn","offset":0,"slot":"5","type":"t_uint256"},{"astId":534,"contract":"contracts/UpgradeableHYAXRewards.sol:UpgradeableHYAXRewards","label":"growthTokensInSmartContract","offset":0,"slot":"6","type":"t_uint256"},{"astId":536,"contract":"contracts/UpgradeableHYAXRewards.sol:UpgradeableHYAXRewards","label":"growthTokensLastWithdrawalTime","offset":0,"slot":"7","type":"t_uint256"},{"astId":538,"contract":"contracts/UpgradeableHYAXRewards.sol:UpgradeableHYAXRewards","label":"growthTokensStartFundingTime","offset":0,"slot":"8","type":"t_uint256"},{"astId":540,"contract":"contracts/UpgradeableHYAXRewards.sol:UpgradeableHYAXRewards","label":"growthTokensFundingStarted","offset":0,"slot":"9","type":"t_bool"},{"astId":559,"contract":"contracts/UpgradeableHYAXRewards.sol:UpgradeableHYAXRewards","label":"teamTokensFunded","offset":0,"slot":"10","type":"t_uint256"},{"astId":561,"contract":"contracts/UpgradeableHYAXRewards.sol:UpgradeableHYAXRewards","label":"teamTokensWithdrawn","offset":0,"slot":"11","type":"t_uint256"},{"astId":563,"contract":"contracts/UpgradeableHYAXRewards.sol:UpgradeableHYAXRewards","label":"teamTokensInSmartContract","offset":0,"slot":"12","type":"t_uint256"},{"astId":565,"contract":"contracts/UpgradeableHYAXRewards.sol:UpgradeableHYAXRewards","label":"teamTokensLastWithdrawalTime","offset":0,"slot":"13","type":"t_uint256"},{"astId":567,"contract":"contracts/UpgradeableHYAXRewards.sol:UpgradeableHYAXRewards","label":"teamTokensStartFundingTime","offset":0,"slot":"14","type":"t_uint256"},{"astId":569,"contract":"contracts/UpgradeableHYAXRewards.sol:UpgradeableHYAXRewards","label":"teamTokensFundingStarted","offset":0,"slot":"15","type":"t_bool"},{"astId":593,"contract":"contracts/UpgradeableHYAXRewards.sol:UpgradeableHYAXRewards","label":"rewardTokensFunded","offset":0,"slot":"16","type":"t_uint256"},{"astId":595,"contract":"contracts/UpgradeableHYAXRewards.sol:UpgradeableHYAXRewards","label":"rewardTokensDistributed","offset":0,"slot":"17","type":"t_uint256"},{"astId":597,"contract":"contracts/UpgradeableHYAXRewards.sol:UpgradeableHYAXRewards","label":"rewardTokensWithdrawn","offset":0,"slot":"18","type":"t_uint256"},{"astId":599,"contract":"contracts/UpgradeableHYAXRewards.sol:UpgradeableHYAXRewards","label":"rewardTokensInSmartContract","offset":0,"slot":"19","type":"t_uint256"},{"astId":601,"contract":"contracts/UpgradeableHYAXRewards.sol:UpgradeableHYAXRewards","label":"rewardTokensStartFundingTime","offset":0,"slot":"20","type":"t_uint256"},{"astId":603,"contract":"contracts/UpgradeableHYAXRewards.sol:UpgradeableHYAXRewards","label":"rewardTokensFundingStarted","offset":0,"slot":"21","type":"t_bool"},{"astId":605,"contract":"contracts/UpgradeableHYAXRewards.sol:UpgradeableHYAXRewards","label":"whiteListerAddress","offset":1,"slot":"21","type":"t_address"},{"astId":607,"contract":"contracts/UpgradeableHYAXRewards.sol:UpgradeableHYAXRewards","label":"rewardsUpdaterAddress","offset":0,"slot":"22","type":"t_address"},{"astId":643,"contract":"contracts/UpgradeableHYAXRewards.sol:UpgradeableHYAXRewards","label":"wallets","offset":0,"slot":"23","type":"t_mapping(t_address,t_struct(WalletData)632_storage)"}],"types":{"t_address":{"encoding":"inplace","label":"address","numberOfBytes":"20"},"t_bool":{"encoding":"inplace","label":"bool","numberOfBytes":"1"},"t_contract(ERC20TokenInterface)403":{"encoding":"inplace","label":"contract ERC20TokenInterface","numberOfBytes":"20"},"t_mapping(t_address,t_struct(WalletData)632_storage)":{"encoding":"mapping","key":"t_address","label":"mapping(address => struct UpgradeableHYAXRewards.WalletData)","numberOfBytes":"32","value":"t_struct(WalletData)632_storage"},"t_struct(WalletData)632_storage":{"encoding":"inplace","label":"struct UpgradeableHYAXRewards.WalletData","members":[{"astId":609,"contract":"contracts/UpgradeableHYAXRewards.sol:UpgradeableHYAXRewards","label":"hyaxHoldingAmount","offset":0,"slot":"0","type":"t_uint256"},{"astId":611,"contract":"contracts/UpgradeableHYAXRewards.sol:UpgradeableHYAXRewards","label":"hyaxHoldingAmountAtWhitelistTime","offset":0,"slot":"1","type":"t_uint256"},{"astId":613,"contract":"contracts/UpgradeableHYAXRewards.sol:UpgradeableHYAXRewards","label":"totalHyaxRewardsAmount","offset":0,"slot":"2","type":"t_uint256"},{"astId":615,"contract":"contracts/UpgradeableHYAXRewards.sol:UpgradeableHYAXRewards","label":"currentRewardsAmount","offset":0,"slot":"3","type":"t_uint256"},{"astId":617,"contract":"contracts/UpgradeableHYAXRewards.sol:UpgradeableHYAXRewards","label":"rewardsWithdrawn","offset":0,"slot":"4","type":"t_uint256"},{"astId":619,"contract":"contracts/UpgradeableHYAXRewards.sol:UpgradeableHYAXRewards","label":"addedToWhitelistTime","offset":0,"slot":"5","type":"t_uint256"},{"astId":621,"contract":"contracts/UpgradeableHYAXRewards.sol:UpgradeableHYAXRewards","label":"tokenWithdrawalTimes","offset":0,"slot":"6","type":"t_uint8"},{"astId":623,"contract":"contracts/UpgradeableHYAXRewards.sol:UpgradeableHYAXRewards","label":"lastRewardsWithdrawalTime","offset":0,"slot":"7","type":"t_uint256"},{"astId":625,"contract":"contracts/UpgradeableHYAXRewards.sol:UpgradeableHYAXRewards","label":"lastRewardsUpdateTime","offset":0,"slot":"8","type":"t_uint256"},{"astId":627,"contract":"contracts/UpgradeableHYAXRewards.sol:UpgradeableHYAXRewards","label":"isTeamWallet","offset":0,"slot":"9","type":"t_bool"},{"astId":629,"contract":"contracts/UpgradeableHYAXRewards.sol:UpgradeableHYAXRewards","label":"isWhitelisted","offset":1,"slot":"9","type":"t_bool"},{"astId":631,"contract":"contracts/UpgradeableHYAXRewards.sol:UpgradeableHYAXRewards","label":"isBlacklisted","offset":2,"slot":"9","type":"t_bool"}],"numberOfBytes":"320"},"t_uint256":{"encoding":"inplace","label":"uint256","numberOfBytes":"32"},"t_uint8":{"encoding":"inplace","label":"uint8","numberOfBytes":"1"}}}}}}