{"contracts/UpgradeableHYAXRewards.sol":{"UpgradeableHYAXRewards":{"abi":[{"inputs":[],"name":"EnforcedPause","type":"error"},{"inputs":[],"name":"ExpectedPause","type":"error"},{"inputs":[],"name":"InvalidInitialization","type":"error"},{"inputs":[],"name":"NotInitializing","type":"error"},{"inputs":[{"internalType":"address","name":"owner","type":"address"}],"name":"OwnableInvalidOwner","type":"error"},{"inputs":[{"internalType":"address","name":"account","type":"address"}],"name":"OwnableUnauthorizedAccount","type":"error"},{"inputs":[],"name":"ReentrancyGuardReentrantCall","type":"error"},{"anonymous":false,"inputs":[{"indexed":false,"internalType":"address","name":"_sender","type":"address"},{"indexed":false,"internalType":"address","name":"_walletAddress","type":"address"},{"indexed":false,"internalType":"bool","name":"_newStatus","type":"bool"}],"name":"BlacklistStatusUpdated","type":"event"},{"anonymous":false,"inputs":[{"indexed":false,"internalType":"enum UpgradeableHYAXRewards.FundingType","name":"_fundingType","type":"uint8"},{"indexed":false,"internalType":"uint256","name":"_amount","type":"uint256"}],"name":"FundingAdded","type":"event"},{"anonymous":false,"inputs":[{"indexed":false,"internalType":"address","name":"_walletAddress","type":"address"},{"indexed":false,"internalType":"uint256","name":"_amount","type":"uint256"}],"name":"GrowthTokensWithdrawn","type":"event"},{"anonymous":false,"inputs":[{"indexed":false,"internalType":"address","name":"_hyaxTokenAddress","type":"address"}],"name":"HyaxTokenAddressUpdated","type":"event"},{"anonymous":false,"inputs":[{"indexed":false,"internalType":"uint64","name":"version","type":"uint64"}],"name":"Initialized","type":"event"},{"anonymous":false,"inputs":[{"indexed":false,"internalType":"address","name":"_sender","type":"address"},{"indexed":false,"internalType":"address","name":"_origin","type":"address"}],"name":"LogSenderAndOrigin","type":"event"},{"anonymous":false,"inputs":[{"indexed":false,"internalType":"uint8","name":"_maximumBatchSizeForUpdateRewards","type":"uint8"}],"name":"MaximumBatchSizeForUpdateRewardsUpdated","type":"event"},{"anonymous":false,"inputs":[{"indexed":true,"internalType":"address","name":"previousOwner","type":"address"},{"indexed":true,"internalType":"address","name":"newOwner","type":"address"}],"name":"OwnershipTransferred","type":"event"},{"anonymous":false,"inputs":[{"indexed":false,"internalType":"address","name":"account","type":"address"}],"name":"Paused","type":"event"},{"anonymous":false,"inputs":[{"indexed":false,"internalType":"address","name":"_walletAddress","type":"address"},{"indexed":false,"internalType":"uint256","name":"_amount","type":"uint256"}],"name":"RewardTokensWithdrawn","type":"event"},{"anonymous":false,"inputs":[{"indexed":false,"internalType":"address","name":"_sender","type":"address"},{"indexed":false,"internalType":"address[]","name":"_walletAddresses","type":"address[]"},{"indexed":false,"internalType":"uint256[]","name":"_hyaxRewards","type":"uint256[]"}],"name":"RewardUpdateBatchSent","type":"event"},{"anonymous":false,"inputs":[{"indexed":false,"internalType":"address","name":"_sender","type":"address"},{"indexed":false,"internalType":"address","name":"_walletAddress","type":"address"},{"indexed":false,"internalType":"string","name":"_errorMessage","type":"string"}],"name":"RewardUpdateFailed","type":"event"},{"anonymous":false,"inputs":[{"indexed":false,"internalType":"address","name":"_sender","type":"address"},{"indexed":false,"internalType":"address","name":"_walletAddress","type":"address"},{"indexed":false,"internalType":"uint256","name":"_hyaxReward","type":"uint256"}],"name":"RewardUpdateSuccess","type":"event"},{"anonymous":false,"inputs":[{"indexed":false,"internalType":"address","name":"_rewardsUpdaterAddress","type":"address"}],"name":"RewardsUpdaterAddressUpdated","type":"event"},{"anonymous":false,"inputs":[{"indexed":false,"internalType":"address","name":"_oldTeamMemberWalletAddress","type":"address"},{"indexed":false,"internalType":"address","name":"_newTeamMemberWalletAddress","type":"address"},{"indexed":false,"internalType":"uint256","name":"_hyaxHoldingAmount","type":"uint256"}],"name":"TeamMemberWalletUpdated","type":"event"},{"anonymous":false,"inputs":[{"indexed":false,"internalType":"address","name":"_walletAddress","type":"address"},{"indexed":false,"internalType":"uint256","name":"_amount","type":"uint256"}],"name":"TeamTokensWithdrawn","type":"event"},{"anonymous":false,"inputs":[{"indexed":false,"internalType":"enum UpgradeableHYAXRewards.FundingType","name":"_fundingType","type":"uint8"},{"indexed":false,"internalType":"uint256","name":"_amount","type":"uint256"}],"name":"TokensToBurnWithdrawn","type":"event"},{"anonymous":false,"inputs":[{"indexed":false,"internalType":"address","name":"account","type":"address"}],"name":"Unpaused","type":"event"},{"anonymous":false,"inputs":[{"indexed":false,"internalType":"address","name":"_sender","type":"address"},{"indexed":false,"internalType":"address","name":"_walletAddress","type":"address"},{"indexed":false,"internalType":"bool","name":"_isTeamWallet","type":"bool"},{"indexed":false,"internalType":"uint256","name":"_hyaxHoldingAmount","type":"uint256"}],"name":"WalletAddedToWhitelist","type":"event"},{"anonymous":false,"inputs":[{"indexed":false,"internalType":"address","name":"_whiteListerAddress","type":"address"}],"name":"WhiteListerAddressUpdated","type":"event"},{"anonymous":false,"inputs":[{"indexed":false,"internalType":"address","name":"_sender","type":"address"},{"indexed":false,"internalType":"address","name":"_walletAddress","type":"address"},{"indexed":false,"internalType":"bool","name":"_newStatus","type":"bool"}],"name":"WhitelistStatusUpdated","type":"event"},{"inputs":[],"name":"GROWTH_TOKENS_TOTAL","outputs":[{"internalType":"uint256","name":"","type":"uint256"}],"stateMutability":"view","type":"function"},{"inputs":[],"name":"GROWTH_TOKENS_WITHDRAWAL_PER_YEAR","outputs":[{"internalType":"uint256","name":"","type":"uint256"}],"stateMutability":"view","type":"function"},{"inputs":[],"name":"MIN_INTERVAL_FOR_UPDATE_REWARDS","outputs":[{"internalType":"uint256","name":"","type":"uint256"}],"stateMutability":"view","type":"function"},{"inputs":[],"name":"REWARD_TOKENS_PER_WEEK","outputs":[{"internalType":"uint256","name":"","type":"uint256"}],"stateMutability":"view","type":"function"},{"inputs":[],"name":"REWARD_TOKENS_PER_YEAR","outputs":[{"internalType":"uint256","name":"","type":"uint256"}],"stateMutability":"view","type":"function"},{"inputs":[],"name":"REWARD_TOKENS_TOTAL","outputs":[{"internalType":"uint256","name":"","type":"uint256"}],"stateMutability":"view","type":"function"},{"inputs":[],"name":"TEAM_TOKENS_LOCKED_PERIOD","outputs":[{"internalType":"uint256","name":"","type":"uint256"}],"stateMutability":"view","type":"function"},{"inputs":[],"name":"TEAM_TOKENS_TOTAL","outputs":[{"internalType":"uint256","name":"","type":"uint256"}],"stateMutability":"view","type":"function"},{"inputs":[],"name":"TEAM_TOKENS_WITHDRAWAL_PER_YEAR","outputs":[{"internalType":"uint256","name":"","type":"uint256"}],"stateMutability":"view","type":"function"},{"inputs":[],"name":"TOKENS_WITHDRAWAL_PERIOD","outputs":[{"internalType":"uint256","name":"","type":"uint256"}],"stateMutability":"view","type":"function"},{"inputs":[{"internalType":"address","name":"_walletAddress","type":"address"},{"internalType":"bool","name":"_isTeamWallet","type":"bool"},{"internalType":"uint256","name":"_hyaxHoldingAmountAtWhitelistTime","type":"uint256"}],"name":"addWalletToWhitelist","outputs":[],"stateMutability":"nonpayable","type":"function"},{"inputs":[],"name":"calculateYearForTeamTokens","outputs":[{"internalType":"uint8","name":"","type":"uint8"}],"stateMutability":"view","type":"function"},{"inputs":[{"internalType":"enum UpgradeableHYAXRewards.FundingType","name":"_fundingType","type":"uint8"},{"internalType":"uint256","name":"_amount","type":"uint256"}],"name":"fundSmartContract","outputs":[],"stateMutability":"nonpayable","type":"function"},{"inputs":[],"name":"growthTokensFunded","outputs":[{"internalType":"uint256","name":"","type":"uint256"}],"stateMutability":"view","type":"function"},{"inputs":[],"name":"growthTokensFundingStarted","outputs":[{"internalType":"bool","name":"","type":"bool"}],"stateMutability":"view","type":"function"},{"inputs":[],"name":"growthTokensInSmartContract","outputs":[{"internalType":"uint256","name":"","type":"uint256"}],"stateMutability":"view","type":"function"},{"inputs":[],"name":"growthTokensLastWithdrawalTime","outputs":[{"internalType":"uint256","name":"","type":"uint256"}],"stateMutability":"view","type":"function"},{"inputs":[],"name":"growthTokensStartFundingTime","outputs":[{"internalType":"uint256","name":"","type":"uint256"}],"stateMutability":"view","type":"function"},{"inputs":[],"name":"growthTokensWithdrawn","outputs":[{"internalType":"uint256","name":"","type":"uint256"}],"stateMutability":"view","type":"function"},{"inputs":[],"name":"hyaxToken","outputs":[{"internalType":"contract IHyaxToken","name":"","type":"address"}],"stateMutability":"view","type":"function"},{"inputs":[],"name":"hyaxTokenAddress","outputs":[{"internalType":"address","name":"","type":"address"}],"stateMutability":"view","type":"function"},{"inputs":[{"internalType":"address","name":"_hyaxTokenAddress","type":"address"}],"name":"initialize","outputs":[],"stateMutability":"nonpayable","type":"function"},{"inputs":[],"name":"maximumBatchSizeForUpdateRewards","outputs":[{"internalType":"uint8","name":"","type":"uint8"}],"stateMutability":"view","type":"function"},{"inputs":[],"name":"owner","outputs":[{"internalType":"address","name":"","type":"address"}],"stateMutability":"view","type":"function"},{"inputs":[],"name":"pause","outputs":[],"stateMutability":"nonpayable","type":"function"},{"inputs":[],"name":"paused","outputs":[{"internalType":"bool","name":"","type":"bool"}],"stateMutability":"view","type":"function"},{"inputs":[],"name":"renounceOwnership","outputs":[],"stateMutability":"nonpayable","type":"function"},{"inputs":[],"name":"rewardTokensDistributed","outputs":[{"internalType":"uint256","name":"","type":"uint256"}],"stateMutability":"view","type":"function"},{"inputs":[],"name":"rewardTokensFunded","outputs":[{"internalType":"uint256","name":"","type":"uint256"}],"stateMutability":"view","type":"function"},{"inputs":[],"name":"rewardTokensFundingStarted","outputs":[{"internalType":"bool","name":"","type":"bool"}],"stateMutability":"view","type":"function"},{"inputs":[],"name":"rewardTokensInSmartContract","outputs":[{"internalType":"uint256","name":"","type":"uint256"}],"stateMutability":"view","type":"function"},{"inputs":[],"name":"rewardTokensStartFundingTime","outputs":[{"internalType":"uint256","name":"","type":"uint256"}],"stateMutability":"view","type":"function"},{"inputs":[],"name":"rewardTokensWithdrawn","outputs":[{"internalType":"uint256","name":"","type":"uint256"}],"stateMutability":"view","type":"function"},{"inputs":[],"name":"rewardsUpdaterAddress","outputs":[{"internalType":"address","name":"","type":"address"}],"stateMutability":"view","type":"function"},{"inputs":[],"name":"teamTokensFunded","outputs":[{"internalType":"uint256","name":"","type":"uint256"}],"stateMutability":"view","type":"function"},{"inputs":[],"name":"teamTokensFundingStarted","outputs":[{"internalType":"bool","name":"","type":"bool"}],"stateMutability":"view","type":"function"},{"inputs":[],"name":"teamTokensInSmartContract","outputs":[{"internalType":"uint256","name":"","type":"uint256"}],"stateMutability":"view","type":"function"},{"inputs":[],"name":"teamTokensStartFundingTime","outputs":[{"internalType":"uint256","name":"","type":"uint256"}],"stateMutability":"view","type":"function"},{"inputs":[],"name":"teamTokensWithdrawn","outputs":[{"internalType":"uint256","name":"","type":"uint256"}],"stateMutability":"view","type":"function"},{"inputs":[{"internalType":"address","name":"newOwner","type":"address"}],"name":"transferOwnership","outputs":[],"stateMutability":"nonpayable","type":"function"},{"inputs":[],"name":"unpause","outputs":[],"stateMutability":"nonpayable","type":"function"},{"inputs":[{"internalType":"address","name":"_walletAddress","type":"address"},{"internalType":"bool","name":"_newStatus","type":"bool"}],"name":"updateBlacklistStatus","outputs":[],"stateMutability":"nonpayable","type":"function"},{"inputs":[{"internalType":"address","name":"_hyaxTokenAddress","type":"address"}],"name":"updateHyaxTokenAddress","outputs":[],"stateMutability":"nonpayable","type":"function"},{"inputs":[{"internalType":"uint8","name":"_maximumBatchSizeForUpdateRewards","type":"uint8"}],"name":"updateMaximumBatchSizeForUpdateRewards","outputs":[],"stateMutability":"nonpayable","type":"function"},{"inputs":[{"internalType":"address[]","name":"_walletAddresses","type":"address[]"},{"internalType":"uint256[]","name":"_hyaxRewards","type":"uint256[]"}],"name":"updateRewardsBatch","outputs":[],"stateMutability":"nonpayable","type":"function"},{"inputs":[{"internalType":"address","name":"_walletAddress","type":"address"},{"internalType":"uint256","name":"_hyaxRewards","type":"uint256"}],"name":"updateRewardsSingle","outputs":[],"stateMutability":"nonpayable","type":"function"},{"inputs":[{"internalType":"address","name":"_rewardsUpdaterAddress","type":"address"}],"name":"updateRewardsUpdaterAddress","outputs":[],"stateMutability":"nonpayable","type":"function"},{"inputs":[{"internalType":"address","name":"_oldTeamMemberWalletAddress","type":"address"},{"internalType":"address","name":"_newTeamMemberWalletAddress","type":"address"}],"name":"updateTeamMemberWallet","outputs":[],"stateMutability":"nonpayable","type":"function"},{"inputs":[{"internalType":"address","name":"_whiteListerAddress","type":"address"}],"name":"updateWhiteListerAddress","outputs":[],"stateMutability":"nonpayable","type":"function"},{"inputs":[{"internalType":"address","name":"_walletAddress","type":"address"},{"internalType":"bool","name":"_newStatus","type":"bool"}],"name":"updateWhitelistStatus","outputs":[],"stateMutability":"nonpayable","type":"function"},{"inputs":[{"internalType":"address","name":"","type":"address"}],"name":"wallets","outputs":[{"internalType":"uint256","name":"hyaxHoldingAmount","type":"uint256"},{"internalType":"uint256","name":"hyaxHoldingAmountAtWhitelistTime","type":"uint256"},{"internalType":"uint256","name":"totalHyaxRewardsAmount","type":"uint256"},{"internalType":"uint256","name":"currentRewardsAmount","type":"uint256"},{"internalType":"uint256","name":"rewardsWithdrawn","type":"uint256"},{"internalType":"uint256","name":"addedToWhitelistTime","type":"uint256"},{"internalType":"uint8","name":"teamTokenWithdrawalTimes","type":"uint8"},{"internalType":"uint256","name":"lastRewardsWithdrawalTime","type":"uint256"},{"internalType":"uint256","name":"lastRewardsUpdateTime","type":"uint256"},{"internalType":"bool","name":"isTeamWallet","type":"bool"},{"internalType":"bool","name":"isWhitelisted","type":"bool"},{"internalType":"bool","name":"isBlacklisted","type":"bool"}],"stateMutability":"view","type":"function"},{"inputs":[],"name":"whiteListerAddress","outputs":[{"internalType":"address","name":"","type":"address"}],"stateMutability":"view","type":"function"},{"inputs":[],"name":"withdrawGrowthTokens","outputs":[],"stateMutability":"nonpayable","type":"function"},{"inputs":[],"name":"withdrawRewardTokens","outputs":[],"stateMutability":"nonpayable","type":"function"},{"inputs":[],"name":"withdrawTeamTokens","outputs":[],"stateMutability":"nonpayable","type":"function"},{"inputs":[{"internalType":"enum UpgradeableHYAXRewards.FundingType","name":"_fundingType","type":"uint8"},{"internalType":"uint256","name":"_amount","type":"uint256"}],"name":"withdrawTokensToBurn","outputs":[],"stateMutability":"nonpayable","type":"function"}],"evm":{"bytecode":{"linkReferences":{},"object":"608060405234801561001057600080fd5b50614754806100206000396000f3fe608060405234801561001057600080fd5b50600436106103785760003560e01c80638da2e27f116101d3578063d7e57fda11610104578063efce5587116100a2578063f8ff46c61161007c578063f8ff46c614610760578063f972c02714610769578063fafd7c201461077c578063fd5595261461078f57600080fd5b8063efce55871461072d578063f2fde38b14610740578063f3793b9d1461075357600080fd5b8063e2ccbfe4116100de578063e2ccbfe4146106fa578063e3682a5d1461070d578063e774ce4314610717578063ebc8e2dd1461072057600080fd5b8063d7e57fda146106d4578063dcb7ff6b146106dd578063de51d567146106e857600080fd5b8063b4ba9fd711610171578063c1cc52b31161014b578063c1cc52b314610698578063c4d66de8146106a5578063d356b49a146106b8578063d3946a8c146106c157600080fd5b8063b4ba9fd71461065e578063b836080614610672578063c07732a31461068557600080fd5b8063953b7ef8116101ad578063953b7ef8146106275780639656cd8c1461062f5780639bae900214610638578063a868e9971461064b57600080fd5b80638da2e27f146106045780638da5cb5b1461060d5780638e6d32df1461061557600080fd5b80635d70203b116102ad5780636fce78731161024b5780638456cb59116102255780638456cb59146104f657806389b08f11146104fe5780638a194d04146105d75780638bb4dadd146105ea57600080fd5b80636fce7873146104c8578063715018a6146104db57806381f8ca1b146104e357600080fd5b8063653c3a4711610287578063653c3a471461048b57806365699d281461049e578063687a83f8146104b65780636e3ce4e1146104bf57600080fd5b80635d70203b146104705780636148c78314610479578063647a5a781461048257600080fd5b80633ba10a561161031a5780634c4dc42e116102f45780634c4dc42e146104325780635493b30d1461043a57806359aa89661461044d5780635c975abb1461045857600080fd5b80633ba10a561461040f5780633f4ba83a1461042257806342ecb4641461042a57600080fd5b80632574cd9d116103565780632574cd9d146103d6578063334c4cb3146103eb578063370243dc146103f45780633768c029146103fc57600080fd5b8063031f65891461037d5780631035fc09146103ad5780631e6b4028146103c4575b600080fd5b600054610390906001600160a01b031681565b6040516001600160a01b0390911681526020015b60405180910390f35b6103b6600b5481565b6040519081526020016103a4565b6103b66a6342fd08f00f637800000081565b6103e96103e4366004613d70565b610798565b005b6103b6600f5481565b6103e96108b7565b6103e961040a366004613db6565b610c34565b600154610390906001600160a01b031681565b6103e9611214565b6103b6611226565b6103e961123f565b6103b66b04d8c55aefb8c05b5c00000081565b6103b66301e1338081565b610460611583565b60405190151581526020016103a4565b6103b660025481565b6103b660035481565b6103b6600a5481565b6103e9610499366004613de9565b611599565b6012546103909061010090046001600160a01b031681565b6103b660055481565b6103b660115481565b6103e96104d6366004613de9565b611665565b6103e961172c565b6103b66b03e09de2596099e2b000000081565b6103e961173e565b61057561050c366004613de9565b601460205260009081526040902080546001820154600283015460038401546004850154600586015460068701546007880154600889015460099099015497989697959694959394929360ff92831693919281811691610100810482169162010000909104168c565b604080519c8d5260208d019b909b52998b019890985260608a0196909652608089019490945260a088019290925260ff1660c087015260e0860152610100850152151561012084015215156101408301521515610160820152610180016103a4565b6103e96105e5366004613e12565b61174e565b6105f2611ba1565b60405160ff90911681526020016103a4565b6103b660105481565b610390611c7f565b6103b66af8277896582678ac00000081565b6103e9611cad565b6103b660065481565b6103e9610646366004613de9565b6121f7565b6103b66b07c13bc4b2c133c56000000081565b6013546105f290600160a01b900460ff1681565b6103e9610680366004613e51565b6123ea565b6103e9610693366004613e51565b61251f565b600c546104609060ff1681565b6103e96106b3366004613de9565b6126ce565b6103b660045481565b6103e96106cf366004613e88565b612937565b6103b660095481565b6103b6630784ce0081565b6103b66a7c13bc4b2c133c5600000081565b6103e9610708366004613e88565b612e6a565b6103b66207e90081565b6103b6600e5481565b6012546104609060ff1681565b6103e961073b366004613f04565b613280565b6103e961074e366004613de9565b6135db565b6007546104609060ff1681565b6103b660085481565b601354610390906001600160a01b031681565b6103e961078a366004613f70565b6136c8565b6103b6600d5481565b6107a0613abe565b60008160ff16116107f85760405162461bcd60e51b815260206004820152601e60248201527f4d6178696d756d2062617463682073697a652063616e6e6f742062652030000060448201526064015b60405180910390fd5b60648160ff1611156108625760405162461bcd60e51b815260206004820152602d60248201527f4d6178696d756d2062617463682073697a652063616e6e6f742062652067726560448201526c061746572207468616e2031303609c1b60648201526084016107ef565b6013805460ff60a01b1916600160a01b60ff8416908102919091179091556040519081527f6f2bb1da32e5620d3a499f2a9b7e558ff34e34134e8db9a112ff5982ae969094906020015b60405180910390a150565b3360008181526014602052604090206009015460ff6101009091041615156001146108f45760405162461bcd60e51b81526004016107ef90613f8c565b6108fc613af0565b610904611583565b156109215760405162461bcd60e51b81526004016107ef90613fc3565b3360009081526014602052604090206009015460ff61010090910416151560011461095e5760405162461bcd60e51b81526004016107ef90613f8c565b3360009081526014602052604090206009015462010000900460ff16156109975760405162461bcd60e51b81526004016107ef90613fef565b60125460ff166109b95760405162461bcd60e51b81526004016107ef90614026565b6b03e09de2596099e2b0000000600f5410610a245760405162461bcd60e51b815260206004820152602560248201527f416c6c2072657761726420746f6b656e732068617665206265656e2077697468604482015264323930bbb760d91b60648201526084016107ef565b3360009081526014602052604090206003015480610a845760405162461bcd60e51b815260206004820181905260248201527f4e6f207265776172647320617661696c61626c6520746f20776974686472617760448201526064016107ef565b601054811115610aa65760405162461bcd60e51b81526004016107ef90614084565b3360009081526014602052604081206004018054839290610ac89084906140f0565b9091555050336000908152601460205260408120600381018290554260079091015560108054839290610afc908490614109565b9250508190555080600f6000828254610b1591906140f0565b909155505060015460405163a9059cbb60e01b8152336004820152602481018390526000916001600160a01b03169063a9059cbb906044016020604051808303816000875af1158015610b6c573d6000803e3d6000fd5b505050506040513d601f19601f82011682018060405250810190610b90919061411c565b905080610bdf5760405162461bcd60e51b815260206004820181905260248201527f4661696c656420746f207472616e736665722072657761726420746f6b656e7360448201526064016107ef565b60408051338152602081018490527fd8a9090919355543d8c79690ceee3933c0bd4ffc742ae7f790d4bf44a043bb6c910160405180910390a15050610c3160016000805160206146df83398151915255565b50565b610c3c613abe565b610c44613af0565b600c5460ff16610cbc5760405162461bcd60e51b815260206004820152603d60248201527f5465616d20746f6b656e732066756e64696e6720686173206e6f74207374617260448201527f746564207965742c206e6f20746f6b656e7320746f207265636f76657200000060648201526084016107ef565b6001600160a01b03821660009081526014602052604090206009015460ff161515600114610d3c5760405162461bcd60e51b815260206004820152602760248201527f4f6c642077616c6c65742061646472657373206973206e6f742061207465616d604482015266081dd85b1b195d60ca1b60648201526084016107ef565b6001600160a01b03821660009081526014602052604090206009015460ff610100909104161515600114610dcc5760405162461bcd60e51b815260206004820152603160248201527f4f6c64207465616d206d656d6265722077616c6c6574206164647265737320696044820152701cc81b9bdd081dda1a5d195b1a5cdd1959607a1b60648201526084016107ef565b6001600160a01b03821660009081526014602052604090206009015462010000900460ff1615610e545760405162461bcd60e51b815260206004820152602d60248201527f4f6c64207465616d206d656d6265722077616c6c65742061646472657373206960448201526c1cc8189b1858dadb1a5cdd1959609a1b60648201526084016107ef565b6001600160a01b038116610ed05760405162461bcd60e51b815260206004820152603960248201527f4e6577207465616d206d656d6265722077616c6c65742061646472657373206360448201527f616e6e6f7420626520746865207a65726f20616464726573730000000000000060648201526084016107ef565b816001600160a01b0316816001600160a01b031603610f7d5760405162461bcd60e51b815260206004820152605760248201527f4e6577207465616d206d656d6265722077616c6c65742061646472657373206360448201527f616e6e6f74206265207468652073616d6520617320746865206f6c642074656160648201527f6d206d656d6265722077616c6c65742061646472657373000000000000000000608482015260a4016107ef565b6001600160a01b038116600090815260146020526040902060090154610100900460ff161561100c5760405162461bcd60e51b815260206004820152603560248201527f4e6577207465616d206d656d6265722077616c6c6574206164647265737320696044820152741cc8185b1c9958591e481dda1a5d195b1a5cdd1959605a1b60648201526084016107ef565b6001600160a01b03811660009081526014602052604090206009015460ff161561109e5760405162461bcd60e51b815260206004820152603760248201527f4e6577207465616d206d656d6265722077616c6c65742061646472657373206960448201527f7320616c72656164792061207465616d2077616c6c657400000000000000000060648201526084016107ef565b6001600160a01b03811660009081526014602052604090206009015462010000900460ff16156111265760405162461bcd60e51b815260206004820152602d60248201527f4e6577207465616d206d656d6265722077616c6c65742061646472657373206960448201526c1cc8189b1858dadb1a5cdd1959609a1b60648201526084016107ef565b6001600160a01b0381811660008181526014602090815260408083206009808201805461010162ffffff19918216179091559689168086528386206001818101805491860191909155815485556005808301549086015560068083018054918701805460ff90931660ff199384161790559483018054620100009c169b909b17909a55879055869055815490971690559284905291548251948552908401929092528201527fa9defc7864dd156fa1c6384b685620c7012fa46b9e570145f7aedecbbf38e9ef906060015b60405180910390a161121060016000805160206146df83398151915255565b5050565b61121c613abe565b611224613b3c565b565b61123c60346a7c13bc4b2c133c56000000614139565b81565b611247613abe565b61124f613af0565b611257611583565b156112745760405162461bcd60e51b81526004016107ef90613fc3565b60075460ff166112965760405162461bcd60e51b81526004016107ef9061415b565b6301e133806006546112a891906140f0565b4210156113115760405162461bcd60e51b815260206004820152603160248201527f43616e6e6f74207769746864726177206265666f7265203120796561722061666044820152701d195c88199d5b991a5b99c81cdd185c9d607a1b60648201526084016107ef565b6b07c13bc4b2c133c5600000006003541061137c5760405162461bcd60e51b815260206004820152602560248201527f416c6c2067726f77746820746f6b656e732068617665206265656e2077697468604482015264323930bbb760d91b60648201526084016107ef565b6301e1338060055461138e91906140f0565b4210156113dd5760405162461bcd60e51b815260206004820152601f60248201527f43616e206f6e6c79207769746864726177206f6e63652070657220796561720060448201526064016107ef565b6003546a6342fd08f00f6378000000906b07c13bc4b2c133c560000000906114069083906140f0565b111561142857600354611425906b07c13bc4b2c133c560000000614109565b90505b806003600082825461143a91906140f0565b9250508190555080600460008282546114539190614109565b9091555050426005556001546001600160a01b031663a9059cbb611475611c7f565b6040516001600160e01b031960e084901b1681526001600160a01b039091166004820152602481018490526044016020604051808303816000875af11580156114c2573d6000803e3d6000fd5b505050506040513d601f19601f820116820180604052508101906114e6919061411c565b6115325760405162461bcd60e51b815260206004820181905260248201527f4661696c656420746f207472616e736665722067726f77746820746f6b656e7360448201526064016107ef565b60408051338152602081018390527fd0a5227bfa49cf178a8f7a87b90318ef05fc8330f469e0dccbe075784f426dbf910160405180910390a15061122460016000805160206146df83398151915255565b6000805160206146bf8339815191525460ff1690565b6115a1613abe565b6001600160a01b03811661160f5760405162461bcd60e51b815260206004820152602f60248201527f5768697465206c697374657220616464726573732063616e6e6f74206265207460448201526e6865207a65726f206164647265737360881b60648201526084016107ef565b60128054610100600160a81b0319166101006001600160a01b038416908102919091179091556040519081527f6bdab87cebf48ec7916084ab67bb3d8a596e0d1e3b5572596393f266d9ea3057906020016108ac565b61166d613abe565b6001600160a01b0381166116de5760405162461bcd60e51b815260206004820152603260248201527f52657761726473207570646174657220616464726573732063616e6e6f7420626044820152716520746865207a65726f206164647265737360701b60648201526084016107ef565b601380546001600160a01b0319166001600160a01b0383169081179091556040519081527f7946fb32eb39758c8854ba2c1d63c5ed4c7a95cdb748090128fa33a803a29894906020016108ac565b611734613abe565b6112246000613b96565b611746613abe565b611224613c07565b611756611c7f565b6001600160a01b0316336001600160a01b03161480611784575060125461010090046001600160a01b031633145b6117a05760405162461bcd60e51b81526004016107ef906141b9565b604080513381523260208201526000805160206146ff833981519152910160405180910390a16001600160a01b038316600090815260146020526040902060090154610100900460ff16156118375760405162461bcd60e51b815260206004820152601d60248201527f57616c6c657420697320616c72656164792077686974656c697374656400000060448201526064016107ef565b6001600160a01b03831660009081526014602052604090206009015462010000900460ff16156118795760405162461bcd60e51b81526004016107ef90613fef565b6001600160a01b038316600090815260146020526040902060050154156118f95760405162461bcd60e51b815260206004820152602e60248201527f57616c6c65742068617320616c7265616479206265656e20616464656420746f60448201526d081d1a19481dda1a5d195b1a5cdd60921b60648201526084016107ef565b6001600160a01b03831660009081526014602052604081206009810180548515801562ffffff19909216919091176101001790915542600583015560068201805460ff19169055600782018390556003820183905560028201839055600490910191909155611aad57600081116119e65760405162461bcd60e51b8152602060048201526044602482018190527f5465616d2077616c6c657473206d757374206265206164646564207769746820908201527f61206879617820686f6c64696e6720616d6f756e7420677265617465722074686064820152630616e20360e41b608482015260a4016107ef565b6b04d8c55aefb8c05b5c000000811115611a865760405162461bcd60e51b815260206004820152605560248201527f5465616d2077616c6c657473206d75737420626520616464656420776974682060448201527f61206879617820686f6c64696e6720616d6f756e74206c657373207468616e2060648201527474686520746f74616c207465616d20746f6b656e7360581b608482015260a4016107ef565b6001600160a01b038316600090815260146020526040902060018101829055819055611b4c565b8015611b2b5760405162461bcd60e51b815260206004820152604160248201527f4e6f6e207465616d2077616c6c6574732063616e206f6e6c792062652061646460448201527f6564207769746820686f6c64696e6720616d6f756e7420657175616c20746f206064820152600360fc1b608482015260a4016107ef565b6001600160a01b038316600090815260146020526040812060018101829055555b604080513381526001600160a01b0385166020820152831515818301526060810183905290517fc294e522ba20b0699fe578649971cefdfdc8d0e330db37d0437849f38b3960e69181900360800190a1505050565b600c5460009060ff16611c065760405162461bcd60e51b815260206004820152602760248201527f5465616d20746f6b656e732066756e64696e6720686173206e6f7420737461726044820152661d1959081e595d60ca1b60648201526084016107ef565b6000600b5442611c169190614109565b9050630f099c008110611c2b57600591505090565b630d2868808110611c3e57600491505090565b630b4735008110611c5157600391505090565b63096601808110611c6457600291505090565b630784ce008110611c7757600191505090565b600091505090565b7f9016d09d72d40fdae2fd8ceac6b6234c7706214fd39c1cd1e609a0528c199300546001600160a01b031690565b3360008181526014602052604090206009015460ff610100909104161515600114611cea5760405162461bcd60e51b81526004016107ef90613f8c565b3360008181526014602052604090206009015462010000900460ff1615611d235760405162461bcd60e51b81526004016107ef90613fef565b611d2b613af0565b611d33611583565b15611d505760405162461bcd60e51b81526004016107ef90613fc3565b3360009081526014602052604090206009015460ff161515600114611ddd5760405162461bcd60e51b815260206004820152603960248201527f4f6e6c79207465616d2077616c6c6574732063616e207769746864726177207460448201527f6f6b656e73207573696e6720746869732066756e6374696f6e0000000000000060648201526084016107ef565b600c5460ff16611dff5760405162461bcd60e51b81526004016107ef90614216565b33600090815260146020526040902060050154611e2190630784ce00906140f0565b421015611ea05760405162461bcd60e51b815260206004820152604160248201527f43616e6e6f74207769746864726177206265666f72652034207965617273206160448201527f66746572206265696e6720616464656420746f207468652077686974656c69736064820152601d60fa1b608482015260a4016107ef565b6b04d8c55aefb8c05b5c00000060095410611f095760405162461bcd60e51b815260206004820152602360248201527f416c6c207465616d20746f6b656e732068617665206265656e2077697468647260448201526230bbb760e91b60648201526084016107ef565b33600090815260146020526040902054611f705760405162461bcd60e51b815260206004820152602260248201527f4e6f206879617820686f6c64696e6720616d6f756e7420746f20776974686472604482015261617760f01b60648201526084016107ef565b611f78611ba1565b3360009081526014602052604090206006015460ff918216911610611ff35760405162461bcd60e51b815260206004820152602b60248201527f43616e206f6e6c79207769746864726177207465616d20746f6b656e73206f6e60448201526a31b2903832b9103cb2b0b960a91b60648201526084016107ef565b3360009081526014602052604081206001015461201290600590614139565b90506b04d8c55aefb8c05b5c0000008160095461202f91906140f0565b11156120515760095461204e906b04d8c55aefb8c05b5c000000614109565b90505b3360009081526014602052604081208054839290612070908490614109565b92505081905550806009600082825461208991906140f0565b9250508190555080600a60008282546120a29190614109565b9091555050336000908152601460205260408120600601805460ff16916120c883614273565b825460ff9182166101009390930a92830291909202199091161790555060015460405163a9059cbb60e01b8152336004820152602481018390526001600160a01b039091169063a9059cbb906044016020604051808303816000875af1158015612136573d6000803e3d6000fd5b505050506040513d601f19601f8201168201806040525081019061215a919061411c565b6121a65760405162461bcd60e51b815260206004820152601e60248201527f4661696c656420746f207472616e73666572207465616d20746f6b656e73000060448201526064016107ef565b60408051338152602081018390527f1e63f692f0a30c3957ac289d6a44616bd119f5502eba5ae440f3158cc2c2d291910160405180910390a15061121060016000805160206146df83398151915255565b6121ff613abe565b6001600160a01b03811661226b5760405162461bcd60e51b815260206004820152602d60248201527f4879617820746f6b656e20616464726573732063616e6e6f742062652074686560448201526c207a65726f206164647265737360981b60648201526084016107ef565b60405163090b282b60e31b6020820152819060240160405160208183030381529060405280519060200120816001600160a01b03166395d89b416040518163ffffffff1660e01b8152600401600060405180830381865afa1580156122d4573d6000803e3d6000fd5b505050506040513d6000823e601f3d908101601f191682016040526122fc91908101906142f9565b60405160200161230c9190614391565b60405160208183030381529060405280519060200120146123885760405162461bcd60e51b815260206004820152603060248201527f546f6b656e2061646472657373206d75737420626520612076616c696420485960448201526f415820746f6b656e206164647265737360801b60648201526084016107ef565b600080546001600160a01b0384166001600160a01b0319918216811790925560018054909116821790556040519081527f6b4289497c1ee1251f23ffec949802440dac6fc64d4bd0b4efb97a5530058295906020015b60405180910390a15050565b6123f2611c7f565b6001600160a01b0316336001600160a01b03161480612420575060125461010090046001600160a01b031633145b61243c5760405162461bcd60e51b81526004016107ef906141b9565b604080513381523260208201526000805160206146ff833981519152910160405180910390a16001600160a01b0382166000908152601460205260409020600901548115156201000090910460ff161515036124aa5760405162461bcd60e51b81526004016107ef906143ad565b6001600160a01b038216600081815260146020908152604091829020600901805462ff000019166201000086151590810291909117909155825133815291820193909352908101919091527f89a9c56967d4535d54c90bffd7cbd09f6d2a4c8e26b9e7f033f199d144e12b4e906060016123de565b612527611c7f565b6001600160a01b0316336001600160a01b03161480612555575060125461010090046001600160a01b031633145b6125715760405162461bcd60e51b81526004016107ef906141b9565b604080513381523260208201526000805160206146ff833981519152910160405180910390a16001600160a01b03821660009081526014602052604090206009015481151561010090910460ff161515036125de5760405162461bcd60e51b81526004016107ef906143ad565b6001600160a01b038216600090815260146020526040812060050154900361265b5760405162461bcd60e51b815260206004820152602a60248201527f57616c6c657420686173206e6f74206265656e20616464656420746f20746865604482015269081dda1a5d195b1a5cdd60b21b60648201526084016107ef565b6001600160a01b038216600081815260146020908152604091829020600901805461ff00191661010086151590810291909117909155825133815291820193909352908101919091527f70bbee4e66e3fd40f7da099410cfd723ed4a0b4fec11f6cc968e850db827a88b906060016123de565b7ff0c57e16840df040f15088dc2f81fe391c3923bec73e23a9662efc9c229c6a008054600160401b810460ff16159067ffffffffffffffff166000811580156127145750825b905060008267ffffffffffffffff1660011480156127315750303b155b90508115801561273f575080155b1561275d5760405163f92ee8a960e01b815260040160405180910390fd5b845467ffffffffffffffff19166001178555831561278757845460ff60401b1916600160401b1785555b61279033613c50565b612798613c61565b6127a0613c71565b600080546001600160a01b03199081166001600160a01b03891690811783556001805490921681179091556013805460ff60a01b1916601960a21b1790556040805163090b282b60e31b6020808301919091528251808303600401815260248301808552815191909201206395d89b4160e01b909152915191936395d89b41926028808401938290030181865afa15801561283f573d6000803e3d6000fd5b505050506040513d6000823e601f3d908101601f1916820160405261286791908101906142f9565b6040516020016128779190614391565b60405160208183030381529060405280519060200120146128da5760405162461bcd60e51b815260206004820152601f60248201527f4879617820746f6b656e2061646472657373206973206e6f742076616c69640060448201526064016107ef565b600060028190556008819055600d55831561292f57845460ff60401b19168555604051600181527fc7f505b2f371ae2175ee4913f4499e1f2633a7b5936321eed1cdaeb6115181d29060200160405180910390a15b505050505050565b61293f613abe565b612947613af0565b61294f611583565b1561296c5760405162461bcd60e51b81526004016107ef90613fc3565b6000826002811115612980576129806143fb565b148061299d5750600182600281111561299b5761299b6143fb565b145b806129b9575060028260028111156129b7576129b76143fb565b145b6129fc5760405162461bcd60e51b8152602060048201526014602482015273496e76616c69642066756e64696e67207479706560601b60448201526064016107ef565b60008111612a4c5760405162461bcd60e51b815260206004820152601d60248201527f416d6f756e74206d7573742062652067726561746572207468616e203000000060448201526064016107ef565b6001546040516323b872dd60e01b8152336004820152306024820152604481018390526001600160a01b03909116906323b872dd906064016020604051808303816000875af1158015612aa3573d6000803e3d6000fd5b505050506040513d601f19601f82011682018060405250810190612ac7919061411c565b612b2d5760405162461bcd60e51b815260206004820152603160248201527f54686572652077617320616e206572726f72206f6e20726563656976696e672060448201527074686520746f6b656e2066756e64696e6760781b60648201526084016107ef565b6000826002811115612b4157612b416143fb565b03612c37576b07c13bc4b2c133c56000000081600254612b6191906140f0565b1115612be15760405162461bcd60e51b815260206004820152604360248201527f416d6f756e7420746f2066756e642069732067726561746572207468616e207460448201527f686520746f74616c20696e74656e74656420666f722067726f77746820746f6b606482015262656e7360e81b608482015260a4016107ef565b8060026000828254612bf391906140f0565b925050819055508060046000828254612c0c91906140f0565b909155505060075460ff16612c32576007805460ff191660011790554260068190556005555b612e39565b6001826002811115612c4b57612c4b6143fb565b03612d39576b04d8c55aefb8c05b5c00000081600854612c6b91906140f0565b1115612ce95760405162461bcd60e51b815260206004820152604160248201527f416d6f756e7420746f2066756e642069732067726561746572207468616e207460448201527f686520746f74616c20696e74656e74656420666f72207465616d20746f6b656e6064820152607360f81b608482015260a4016107ef565b8060086000828254612cfb91906140f0565b9250508190555080600a6000828254612d1491906140f0565b9091555050600c5460ff16612c3257600c805460ff1916600117905542600b55612e39565b6002826002811115612d4d57612d4d6143fb565b03612e39576b03e09de2596099e2b000000081600d54612d6d91906140f0565b1115612ded5760405162461bcd60e51b815260206004820152604360248201527f416d6f756e7420746f2066756e642069732067726561746572207468616e207460448201527f686520746f74616c20696e74656e74656420666f722072657761726420746f6b606482015262656e7360e81b608482015260a4016107ef565b80600d6000828254612dff91906140f0565b925050819055508060106000828254612e1891906140f0565b909155505060125460ff16612e39576012805460ff19166001179055426011555b7fbc0b9ecc68ec48681b8f5718fa26b9ce02021220455be5f5837a944140a80ea382826040516111f1929190614411565b612e72613abe565b612e7a613af0565b612e82611583565b15612e9f5760405162461bcd60e51b81526004016107ef90613fc3565b6000826002811115612eb357612eb36143fb565b1480612ed057506001826002811115612ece57612ece6143fb565b145b80612eec57506002826002811115612eea57612eea6143fb565b145b612f2f5760405162461bcd60e51b8152602060048201526014602482015273496e76616c69642066756e64696e67207479706560601b60448201526064016107ef565b60008111612f7f5760405162461bcd60e51b815260206004820152601d60248201527f416d6f756e74206d7573742062652067726561746572207468616e203000000060448201526064016107ef565b6000826002811115612f9357612f936143fb565b036130485760075460ff16612fba5760405162461bcd60e51b81526004016107ef9061415b565b60045481111561302b5760405162461bcd60e51b815260206004820152603660248201527f496e73756666696369656e742067726f77746820746f6b656e7320696e2074686044820152756520636f6e747261637420746f20776974686472617760501b60648201526084016107ef565b806004600082825461303d9190614109565b909155506131799050565b600182600281111561305c5761305c6143fb565b0361310457600c5460ff166130835760405162461bcd60e51b81526004016107ef90614216565b600a548111156130f25760405162461bcd60e51b815260206004820152603460248201527f496e73756666696369656e74207465616d20746f6b656e7320696e2074686520604482015273636f6e747261637420746f20776974686472617760601b60648201526084016107ef565b80600a600082825461303d9190614109565b6002826002811115613118576131186143fb565b036131795760125460ff1661313f5760405162461bcd60e51b81526004016107ef90614026565b6010548111156131615760405162461bcd60e51b81526004016107ef90614084565b80601060008282546131739190614109565b90915550505b6001546001600160a01b031663a9059cbb613192611c7f565b6040516001600160e01b031960e084901b1681526001600160a01b039091166004820152602481018490526044016020604051808303816000875af11580156131df573d6000803e3d6000fd5b505050506040513d601f19601f82011682018060405250810190613203919061411c565b61324f5760405162461bcd60e51b815260206004820181905260248201527f4661696c656420746f207472616e736665722067726f77746820746f6b656e7360448201526064016107ef565b7fb9db6f85cd4e97884845cfb10d7fbba4d9cd4b9516cf2795b4c50cd886875bab82826040516111f1929190614411565b613288611c7f565b6001600160a01b0316336001600160a01b031614806132b157506013546001600160a01b031633145b806132bb57503330145b6132d75760405162461bcd60e51b81526004016107ef9061443d565b604080513381523260208201526000805160206146ff833981519152910160405180910390a1613305613af0565b60125460ff166133275760405162461bcd60e51b81526004016107ef906144b4565b8261336d5760405162461bcd60e51b8152602060048201526016602482015275042617463682073697a652063616e6e6f7420626520360541b60448201526064016107ef565b601354600160a01b900460ff168311156133d55760405162461bcd60e51b8152602060048201526024808201527f42617463682073697a6520657863656564732074686520646566696e6564206c6044820152631a5b5a5d60e21b60648201526084016107ef565b8281146134245760405162461bcd60e51b815260206004820152601860248201527f4172726179206c656e67746873206d757374206d61746368000000000000000060448201526064016107ef565b60005b8381101561357e573063fafd7c2086868481811061344757613447614511565b905060200201602081019061345c9190613de9565b85858581811061346e5761346e614511565b6040516001600160e01b031960e087901b1681526001600160a01b0390941660048501526020029190910135602483015250604401600060405180830381600087803b1580156134bd57600080fd5b505af19250505080156134ce575060015b61356c576134da614527565b806308c379a00361356057506134ee614543565b806134f95750613562565b7f80c7a907fb61ff886445c2feb367d7b196637d154438ec7337eb57021ef5f5a13387878581811061352d5761352d614511565b90506020020160208101906135429190613de9565b83604051613552939291906145cd565b60405180910390a15061356c565b505b3d6000803e3d6000fd5b806135768161461a565b915050613427565b507f920309e6c1df22e82236fc02a7d23e8ec36b85a821fc790c20a0e1497ce227dc33858585856040516135b6959493929190614633565b60405180910390a16135d560016000805160206146df83398151915255565b50505050565b6135e3613abe565b6001600160a01b0381166136485760405162461bcd60e51b815260206004820152602660248201527f4f776e61626c653a206e6577206f776e657220697320746865207a65726f206160448201526564647265737360d01b60648201526084016107ef565b306001600160a01b038216036136bf5760405162461bcd60e51b815260206004820152603660248201527f4f776e61626c653a206e6577206f776e65722063616e6e6f74206265207468656044820152752073616d6520636f6e7472616374206164647265737360501b60648201526084016107ef565b610c3181613b96565b6136d0611c7f565b6001600160a01b0316336001600160a01b031614806136f957506013546001600160a01b031633145b8061370357503330145b61371f5760405162461bcd60e51b81526004016107ef9061443d565b604080513381523260208201526000805160206146ff833981519152910160405180910390a160125460ff166137675760405162461bcd60e51b81526004016107ef906144b4565b6001600160a01b03821660009081526014602052604090206009015460ff6101009091041615156001146137ad5760405162461bcd60e51b81526004016107ef90613f8c565b6001600160a01b03821660009081526014602052604090206009015462010000900460ff16156137ef5760405162461bcd60e51b81526004016107ef90613fef565b6001600160a01b038216600090815260146020526040902060080154613819906207e900906140f0565b42101561387b5760405162461bcd60e51b815260206004820152602a60248201527f546f6f20736f6f6e20746f20757064617465207265776172647320666f7220746044820152691a1a5cc81dd85b1b195d60b21b60648201526084016107ef565b61389160346a7c13bc4b2c133c56000000614139565b811115613908576040805162461bcd60e51b81526020600482015260248101919091527f412073696e676c652077616c6c65742063616e6e6f742068617665207265776160448201527f72647320686967686572207468616e20746865207765656b6c79206c696d697460648201526084016107ef565b6010548111156139765760405162461bcd60e51b815260206004820152603360248201527f496e73756666696369656e742072657761726420746f6b656e7320746f2064696044820152727374726962757465206173207265776172647360681b60648201526084016107ef565b6b03e09de2596099e2b000000081600e5461399191906140f0565b11156139fb5760405162461bcd60e51b815260206004820152603360248201527f416c6c207468652072657761726420746f6b656e732068617665206265656e20604482015272185b1c9958591e48191a5cdd1c9a589d5d1959606a1b60648201526084016107ef565b80600e6000828254613a0d91906140f0565b90915550506001600160a01b03821660009081526014602052604081204260088201556002018054839290613a439084906140f0565b90915550506001600160a01b03821660009081526014602052604081206003018054839290613a739084906140f0565b9091555050604080513381526001600160a01b03841660208201529081018290527f74dd95429fe6255fb4698aa67d02afb4ebcf261c1883a417108c7d6c0abed4b0906060016123de565b33613ac7611c7f565b6001600160a01b0316146112245760405163118cdaa760e01b81523360048201526024016107ef565b6000805160206146df833981519152805460011901613b2257604051633ee5aeb560e01b815260040160405180910390fd5b60029055565b60016000805160206146df83398151915255565b613b44613c81565b6000805160206146bf833981519152805460ff191681557f5db9ee0a495bf2e6ff9c91a7834c1ba4fdd244a5e8aa4e537bd38aeae4b073aa335b6040516001600160a01b0390911681526020016108ac565b7f9016d09d72d40fdae2fd8ceac6b6234c7706214fd39c1cd1e609a0528c19930080546001600160a01b031981166001600160a01b03848116918217845560405192169182907f8be0079c531659141344cd1fd0a4f28419497f9722a3daafe3b4186f6b6457e090600090a3505050565b613c0f613ca6565b6000805160206146bf833981519152805460ff191660011781557f62e78cea01bee320cd4e420270b5ea74000d11b0c9f74754ebdbfc544b05a25833613b7e565b613c58613ccc565b610c3181613d15565b613c69613ccc565b611224613d47565b613c79613ccc565b611224613d4f565b613c89611583565b61122457604051638dfc202b60e01b815260040160405180910390fd5b613cae611583565b156112245760405163d93c066560e01b815260040160405180910390fd5b7ff0c57e16840df040f15088dc2f81fe391c3923bec73e23a9662efc9c229c6a0054600160401b900460ff1661122457604051631afcd79f60e31b815260040160405180910390fd5b613d1d613ccc565b6001600160a01b0381166136bf57604051631e4fbdf760e01b8152600060048201526024016107ef565b613b28613ccc565b613d57613ccc565b6000805160206146bf833981519152805460ff19169055565b600060208284031215613d8257600080fd5b813560ff81168114613d9357600080fd5b9392505050565b80356001600160a01b0381168114613db157600080fd5b919050565b60008060408385031215613dc957600080fd5b613dd283613d9a565b9150613de060208401613d9a565b90509250929050565b600060208284031215613dfb57600080fd5b613d9382613d9a565b8015158114610c3157600080fd5b600080600060608486031215613e2757600080fd5b613e3084613d9a565b92506020840135613e4081613e04565b929592945050506040919091013590565b60008060408385031215613e6457600080fd5b613e6d83613d9a565b91506020830135613e7d81613e04565b809150509250929050565b60008060408385031215613e9b57600080fd5b823560038110613eaa57600080fd5b946020939093013593505050565b60008083601f840112613eca57600080fd5b50813567ffffffffffffffff811115613ee257600080fd5b6020830191508360208260051b8501011115613efd57600080fd5b9250929050565b60008060008060408587031215613f1a57600080fd5b843567ffffffffffffffff80821115613f3257600080fd5b613f3e88838901613eb8565b90965094506020870135915080821115613f5757600080fd5b50613f6487828801613eb8565b95989497509550505050565b60008060408385031215613f8357600080fd5b613eaa83613d9a565b60208082526019908201527f57616c6c6574206973206e6f742077686974656c697374656400000000000000604082015260600190565b60208082526012908201527110dbdb9d1c9858dd081a5cc81c185d5cd95960721b604082015260600190565b6020808252601b908201527f57616c6c657420686173206265656e20626c61636b6c69737465640000000000604082015260600190565b602080825260409082018190527f52657761726420746f6b656e732066756e64696e6720686173206e6f74207374908201527f6172746564207965742c206e6f20746f6b656e7320746f207769746864726177606082015260800190565b60208082526036908201527f496e73756666696369656e742072657761726420746f6b656e7320696e2074686040820152756520636f6e747261637420746f20776974686472617760501b606082015260800190565b634e487b7160e01b600052601160045260246000fd5b80820180821115614103576141036140da565b92915050565b81810381811115614103576141036140da565b60006020828403121561412e57600080fd5b8151613d9381613e04565b60008261415657634e487b7160e01b600052601260045260246000fd5b500490565b602080825260409082018190527f47726f77746820746f6b656e732066756e64696e6720686173206e6f74207374908201527f6172746564207965742c206e6f20746f6b656e7320746f207769746864726177606082015260800190565b60208082526037908201527f46756e6374696f6e207265736572766564206f6e6c7920666f7220746865207760408201527f686974656c6973746572206f7220746865206f776e6572000000000000000000606082015260800190565b6020808252603e908201527f5465616d20746f6b656e732066756e64696e6720686173206e6f74207374617260408201527f746564207965742c206e6f20746f6b656e7320746f2077697468647261770000606082015260800190565b600060ff821660ff8103614289576142896140da565b60010192915050565b634e487b7160e01b600052604160045260246000fd5b601f8201601f1916810167ffffffffffffffff811182821017156142ce576142ce614292565b6040525050565b60005b838110156142f05781810151838201526020016142d8565b50506000910152565b60006020828403121561430b57600080fd5b815167ffffffffffffffff8082111561432357600080fd5b818401915084601f83011261433757600080fd5b81518181111561434957614349614292565b6040519150614362601f8201601f1916602001836142a8565b80825285602082850101111561437757600080fd5b6143888160208401602086016142d5565b50949350505050565b600082516143a38184602087016142d5565b9190910192915050565b6020808252602e908201527f57616c6c65742068617320616c7265616479206265656e20757064617465642060408201526d746f20746861742073746174757360901b606082015260800190565b634e487b7160e01b600052602160045260246000fd5b604081016003841061443357634e487b7160e01b600052602160045260246000fd5b9281526020015290565b60208082526051908201527f46756e6374696f6e207265736572766564206f6e6c7920666f7220746865207260408201527f65776172647320757064617465722c20746865206f776e65722c206f72207468606082015270329031b7b73a3930b1ba1034ba39b2b63360791b608082015260a00190565b6020808252603e908201527f52657761726420746f6b656e732066756e64696e6720686173206e6f7420737460408201527f6172746564207965742c206e6f20746f6b656e7320746f207570646174650000606082015260800190565b634e487b7160e01b600052603260045260246000fd5b600060033d11156145405760046000803e5060005160e01c5b90565b600060443d10156145515790565b6040516003193d81016004833e81513d67ffffffffffffffff816024840111818411171561458157505050505090565b82850191508151818111156145995750505050505090565b843d87010160208285010111156145b35750505050505090565b6145c2602082860101876142a8565b509095945050505050565b600060018060a01b0380861683528085166020840152506060604083015282518060608401526146048160808501602087016142d5565b601f01601f191691909101608001949350505050565b60006001820161462c5761462c6140da565b5060010190565b6001600160a01b03868116825260606020808401829052908301869052600091879160808501845b89811015614680578361466d86613d9a565b168252938201939082019060010161465b565b5085810360408701528681526001600160fb1b038711156146a057600080fd5b8660051b93508388838301379092019091019897505050505050505056fecd5ed15c6e187e77e9aee88184c21f4f2182ab5827cb3b7e07fbedcd63f033009b779b17422d0df92223018b32b4d1fa46e071723d6817e2486d003becc55f00f572c1a3c9723ee4a9544fdd9299fbdea3409f4e29a51ae34e1b58363450ba11a264697066735822122030fa6c57b05366dbfc65a20a464eb47eb99db444c4ab85957059bd96496a2acd64736f6c63430008140033","opcodes":"PUSH1 0x80 PUSH1 0x40 MSTORE CALLVALUE DUP1 ISZERO PUSH2 0x10 JUMPI PUSH1 0x0 DUP1 REVERT JUMPDEST POP PUSH2 0x4754 DUP1 PUSH2 0x20 PUSH1 0x0 CODECOPY PUSH1 0x0 RETURN INVALID PUSH1 0x80 PUSH1 0x40 MSTORE CALLVALUE DUP1 ISZERO PUSH2 0x10 JUMPI PUSH1 0x0 DUP1 REVERT JUMPDEST POP PUSH1 0x4 CALLDATASIZE LT PUSH2 0x378 JUMPI PUSH1 0x0 CALLDATALOAD PUSH1 0xE0 SHR DUP1 PUSH4 0x8DA2E27F GT PUSH2 0x1D3 JUMPI DUP1 PUSH4 0xD7E57FDA GT PUSH2 0x104 JUMPI DUP1 PUSH4 0xEFCE5587 GT PUSH2 0xA2 JUMPI DUP1 PUSH4 0xF8FF46C6 GT PUSH2 0x7C JUMPI DUP1 PUSH4 0xF8FF46C6 EQ PUSH2 0x760 JUMPI DUP1 PUSH4 0xF972C027 EQ PUSH2 0x769 JUMPI DUP1 PUSH4 0xFAFD7C20 EQ PUSH2 0x77C JUMPI DUP1 PUSH4 0xFD559526 EQ PUSH2 0x78F JUMPI PUSH1 0x0 DUP1 REVERT JUMPDEST DUP1 PUSH4 0xEFCE5587 EQ PUSH2 0x72D JUMPI DUP1 PUSH4 0xF2FDE38B EQ PUSH2 0x740 JUMPI DUP1 PUSH4 0xF3793B9D EQ PUSH2 0x753 JUMPI PUSH1 0x0 DUP1 REVERT JUMPDEST DUP1 PUSH4 0xE2CCBFE4 GT PUSH2 0xDE JUMPI DUP1 PUSH4 0xE2CCBFE4 EQ PUSH2 0x6FA JUMPI DUP1 PUSH4 0xE3682A5D EQ PUSH2 0x70D JUMPI DUP1 PUSH4 0xE774CE43 EQ PUSH2 0x717 JUMPI DUP1 PUSH4 0xEBC8E2DD EQ PUSH2 0x720 JUMPI PUSH1 0x0 DUP1 REVERT JUMPDEST DUP1 PUSH4 0xD7E57FDA EQ PUSH2 0x6D4 JUMPI DUP1 PUSH4 0xDCB7FF6B EQ PUSH2 0x6DD JUMPI DUP1 PUSH4 0xDE51D567 EQ PUSH2 0x6E8 JUMPI PUSH1 0x0 DUP1 REVERT JUMPDEST DUP1 PUSH4 0xB4BA9FD7 GT PUSH2 0x171 JUMPI DUP1 PUSH4 0xC1CC52B3 GT PUSH2 0x14B JUMPI DUP1 PUSH4 0xC1CC52B3 EQ PUSH2 0x698 JUMPI DUP1 PUSH4 0xC4D66DE8 EQ PUSH2 0x6A5 JUMPI DUP1 PUSH4 0xD356B49A EQ PUSH2 0x6B8 JUMPI DUP1 PUSH4 0xD3946A8C EQ PUSH2 0x6C1 JUMPI PUSH1 0x0 DUP1 REVERT JUMPDEST DUP1 PUSH4 0xB4BA9FD7 EQ PUSH2 0x65E JUMPI DUP1 PUSH4 0xB8360806 EQ PUSH2 0x672 JUMPI DUP1 PUSH4 0xC07732A3 EQ PUSH2 0x685 JUMPI PUSH1 0x0 DUP1 REVERT JUMPDEST DUP1 PUSH4 0x953B7EF8 GT PUSH2 0x1AD JUMPI DUP1 PUSH4 0x953B7EF8 EQ PUSH2 0x627 JUMPI DUP1 PUSH4 0x9656CD8C EQ PUSH2 0x62F JUMPI DUP1 PUSH4 0x9BAE9002 EQ PUSH2 0x638 JUMPI DUP1 PUSH4 0xA868E997 EQ PUSH2 0x64B JUMPI PUSH1 0x0 DUP1 REVERT JUMPDEST DUP1 PUSH4 0x8DA2E27F EQ PUSH2 0x604 JUMPI DUP1 PUSH4 0x8DA5CB5B EQ PUSH2 0x60D JUMPI DUP1 PUSH4 0x8E6D32DF EQ PUSH2 0x615 JUMPI PUSH1 0x0 DUP1 REVERT JUMPDEST DUP1 PUSH4 0x5D70203B GT PUSH2 0x2AD JUMPI DUP1 PUSH4 0x6FCE7873 GT PUSH2 0x24B JUMPI DUP1 PUSH4 0x8456CB59 GT PUSH2 0x225 JUMPI DUP1 PUSH4 0x8456CB59 EQ PUSH2 0x4F6 JUMPI DUP1 PUSH4 0x89B08F11 EQ PUSH2 0x4FE JUMPI DUP1 PUSH4 0x8A194D04 EQ PUSH2 0x5D7 JUMPI DUP1 PUSH4 0x8BB4DADD EQ PUSH2 0x5EA JUMPI PUSH1 0x0 DUP1 REVERT JUMPDEST DUP1 PUSH4 0x6FCE7873 EQ PUSH2 0x4C8 JUMPI DUP1 PUSH4 0x715018A6 EQ PUSH2 0x4DB JUMPI DUP1 PUSH4 0x81F8CA1B EQ PUSH2 0x4E3 JUMPI PUSH1 0x0 DUP1 REVERT JUMPDEST DUP1 PUSH4 0x653C3A47 GT PUSH2 0x287 JUMPI DUP1 PUSH4 0x653C3A47 EQ PUSH2 0x48B JUMPI DUP1 PUSH4 0x65699D28 EQ PUSH2 0x49E JUMPI DUP1 PUSH4 0x687A83F8 EQ PUSH2 0x4B6 JUMPI DUP1 PUSH4 0x6E3CE4E1 EQ PUSH2 0x4BF JUMPI PUSH1 0x0 DUP1 REVERT JUMPDEST DUP1 PUSH4 0x5D70203B EQ PUSH2 0x470 JUMPI DUP1 PUSH4 0x6148C783 EQ PUSH2 0x479 JUMPI DUP1 PUSH4 0x647A5A78 EQ PUSH2 0x482 JUMPI PUSH1 0x0 DUP1 REVERT JUMPDEST DUP1 PUSH4 0x3BA10A56 GT PUSH2 0x31A JUMPI DUP1 PUSH4 0x4C4DC42E GT PUSH2 0x2F4 JUMPI DUP1 PUSH4 0x4C4DC42E EQ PUSH2 0x432 JUMPI DUP1 PUSH4 0x5493B30D EQ PUSH2 0x43A JUMPI DUP1 PUSH4 0x59AA8966 EQ PUSH2 0x44D JUMPI DUP1 PUSH4 0x5C975ABB EQ PUSH2 0x458 JUMPI PUSH1 0x0 DUP1 REVERT JUMPDEST DUP1 PUSH4 0x3BA10A56 EQ PUSH2 0x40F JUMPI DUP1 PUSH4 0x3F4BA83A EQ PUSH2 0x422 JUMPI DUP1 PUSH4 0x42ECB464 EQ PUSH2 0x42A JUMPI PUSH1 0x0 DUP1 REVERT JUMPDEST DUP1 PUSH4 0x2574CD9D GT PUSH2 0x356 JUMPI DUP1 PUSH4 0x2574CD9D EQ PUSH2 0x3D6 JUMPI DUP1 PUSH4 0x334C4CB3 EQ PUSH2 0x3EB JUMPI DUP1 PUSH4 0x370243DC EQ PUSH2 0x3F4 JUMPI DUP1 PUSH4 0x3768C029 EQ PUSH2 0x3FC JUMPI PUSH1 0x0 DUP1 REVERT JUMPDEST DUP1 PUSH4 0x31F6589 EQ PUSH2 0x37D JUMPI DUP1 PUSH4 0x1035FC09 EQ PUSH2 0x3AD JUMPI DUP1 PUSH4 0x1E6B4028 EQ PUSH2 0x3C4 JUMPI JUMPDEST PUSH1 0x0 DUP1 REVERT JUMPDEST PUSH1 0x0 SLOAD PUSH2 0x390 SWAP1 PUSH1 0x1 PUSH1 0x1 PUSH1 0xA0 SHL SUB AND DUP2 JUMP JUMPDEST PUSH1 0x40 MLOAD PUSH1 0x1 PUSH1 0x1 PUSH1 0xA0 SHL SUB SWAP1 SWAP2 AND DUP2 MSTORE PUSH1 0x20 ADD JUMPDEST PUSH1 0x40 MLOAD DUP1 SWAP2 SUB SWAP1 RETURN JUMPDEST PUSH2 0x3B6 PUSH1 0xB SLOAD DUP2 JUMP JUMPDEST PUSH1 0x40 MLOAD SWAP1 DUP2 MSTORE PUSH1 0x20 ADD PUSH2 0x3A4 JUMP JUMPDEST PUSH2 0x3B6 PUSH11 0x6342FD08F00F6378000000 DUP2 JUMP JUMPDEST PUSH2 0x3E9 PUSH2 0x3E4 CALLDATASIZE PUSH1 0x4 PUSH2 0x3D70 JUMP JUMPDEST PUSH2 0x798 JUMP JUMPDEST STOP JUMPDEST PUSH2 0x3B6 PUSH1 0xF SLOAD DUP2 JUMP JUMPDEST PUSH2 0x3E9 PUSH2 0x8B7 JUMP JUMPDEST PUSH2 0x3E9 PUSH2 0x40A CALLDATASIZE PUSH1 0x4 PUSH2 0x3DB6 JUMP JUMPDEST PUSH2 0xC34 JUMP JUMPDEST PUSH1 0x1 SLOAD PUSH2 0x390 SWAP1 PUSH1 0x1 PUSH1 0x1 PUSH1 0xA0 SHL SUB AND DUP2 JUMP JUMPDEST PUSH2 0x3E9 PUSH2 0x1214 JUMP JUMPDEST PUSH2 0x3B6 PUSH2 0x1226 JUMP JUMPDEST PUSH2 0x3E9 PUSH2 0x123F JUMP JUMPDEST PUSH2 0x3B6 PUSH12 0x4D8C55AEFB8C05B5C000000 DUP2 JUMP JUMPDEST PUSH2 0x3B6 PUSH4 0x1E13380 DUP2 JUMP JUMPDEST PUSH2 0x460 PUSH2 0x1583 JUMP JUMPDEST PUSH1 0x40 MLOAD SWAP1 ISZERO ISZERO DUP2 MSTORE PUSH1 0x20 ADD PUSH2 0x3A4 JUMP JUMPDEST PUSH2 0x3B6 PUSH1 0x2 SLOAD DUP2 JUMP JUMPDEST PUSH2 0x3B6 PUSH1 0x3 SLOAD DUP2 JUMP JUMPDEST PUSH2 0x3B6 PUSH1 0xA SLOAD DUP2 JUMP JUMPDEST PUSH2 0x3E9 PUSH2 0x499 CALLDATASIZE PUSH1 0x4 PUSH2 0x3DE9 JUMP JUMPDEST PUSH2 0x1599 JUMP JUMPDEST PUSH1 0x12 SLOAD PUSH2 0x390 SWAP1 PUSH2 0x100 SWAP1 DIV PUSH1 0x1 PUSH1 0x1 PUSH1 0xA0 SHL SUB AND DUP2 JUMP JUMPDEST PUSH2 0x3B6 PUSH1 0x5 SLOAD DUP2 JUMP JUMPDEST PUSH2 0x3B6 PUSH1 0x11 SLOAD DUP2 JUMP JUMPDEST PUSH2 0x3E9 PUSH2 0x4D6 CALLDATASIZE PUSH1 0x4 PUSH2 0x3DE9 JUMP JUMPDEST PUSH2 0x1665 JUMP JUMPDEST PUSH2 0x3E9 PUSH2 0x172C JUMP JUMPDEST PUSH2 0x3B6 PUSH12 0x3E09DE2596099E2B0000000 DUP2 JUMP JUMPDEST PUSH2 0x3E9 PUSH2 0x173E JUMP JUMPDEST PUSH2 0x575 PUSH2 0x50C CALLDATASIZE PUSH1 0x4 PUSH2 0x3DE9 JUMP JUMPDEST PUSH1 0x14 PUSH1 0x20 MSTORE PUSH1 0x0 SWAP1 DUP2 MSTORE PUSH1 0x40 SWAP1 KECCAK256 DUP1 SLOAD PUSH1 0x1 DUP3 ADD SLOAD PUSH1 0x2 DUP4 ADD SLOAD PUSH1 0x3 DUP5 ADD SLOAD PUSH1 0x4 DUP6 ADD SLOAD PUSH1 0x5 DUP7 ADD SLOAD PUSH1 0x6 DUP8 ADD SLOAD PUSH1 0x7 DUP9 ADD SLOAD PUSH1 0x8 DUP10 ADD SLOAD PUSH1 0x9 SWAP1 SWAP10 ADD SLOAD SWAP8 SWAP9 SWAP7 SWAP8 SWAP6 SWAP7 SWAP5 SWAP6 SWAP4 SWAP5 SWAP3 SWAP4 PUSH1 0xFF SWAP3 DUP4 AND SWAP4 SWAP2 SWAP3 DUP2 DUP2 AND SWAP2 PUSH2 0x100 DUP2 DIV DUP3 AND SWAP2 PUSH3 0x10000 SWAP1 SWAP2 DIV AND DUP13 JUMP JUMPDEST PUSH1 0x40 DUP1 MLOAD SWAP13 DUP14 MSTORE PUSH1 0x20 DUP14 ADD SWAP12 SWAP1 SWAP12 MSTORE SWAP10 DUP12 ADD SWAP9 SWAP1 SWAP9 MSTORE PUSH1 0x60 DUP11 ADD SWAP7 SWAP1 SWAP7 MSTORE PUSH1 0x80 DUP10 ADD SWAP5 SWAP1 SWAP5 MSTORE PUSH1 0xA0 DUP9 ADD SWAP3 SWAP1 SWAP3 MSTORE PUSH1 0xFF AND PUSH1 0xC0 DUP8 ADD MSTORE PUSH1 0xE0 DUP7 ADD MSTORE PUSH2 0x100 DUP6 ADD MSTORE ISZERO ISZERO PUSH2 0x120 DUP5 ADD MSTORE ISZERO ISZERO PUSH2 0x140 DUP4 ADD MSTORE ISZERO ISZERO PUSH2 0x160 DUP3 ADD MSTORE PUSH2 0x180 ADD PUSH2 0x3A4 JUMP JUMPDEST PUSH2 0x3E9 PUSH2 0x5E5 CALLDATASIZE PUSH1 0x4 PUSH2 0x3E12 JUMP JUMPDEST PUSH2 0x174E JUMP JUMPDEST PUSH2 0x5F2 PUSH2 0x1BA1 JUMP JUMPDEST PUSH1 0x40 MLOAD PUSH1 0xFF SWAP1 SWAP2 AND DUP2 MSTORE PUSH1 0x20 ADD PUSH2 0x3A4 JUMP JUMPDEST PUSH2 0x3B6 PUSH1 0x10 SLOAD DUP2 JUMP JUMPDEST PUSH2 0x390 PUSH2 0x1C7F JUMP JUMPDEST PUSH2 0x3B6 PUSH11 0xF8277896582678AC000000 DUP2 JUMP JUMPDEST PUSH2 0x3E9 PUSH2 0x1CAD JUMP JUMPDEST PUSH2 0x3B6 PUSH1 0x6 SLOAD DUP2 JUMP JUMPDEST PUSH2 0x3E9 PUSH2 0x646 CALLDATASIZE PUSH1 0x4 PUSH2 0x3DE9 JUMP JUMPDEST PUSH2 0x21F7 JUMP JUMPDEST PUSH2 0x3B6 PUSH12 0x7C13BC4B2C133C560000000 DUP2 JUMP JUMPDEST PUSH1 0x13 SLOAD PUSH2 0x5F2 SWAP1 PUSH1 0x1 PUSH1 0xA0 SHL SWAP1 DIV PUSH1 0xFF AND DUP2 JUMP JUMPDEST PUSH2 0x3E9 PUSH2 0x680 CALLDATASIZE PUSH1 0x4 PUSH2 0x3E51 JUMP JUMPDEST PUSH2 0x23EA JUMP JUMPDEST PUSH2 0x3E9 PUSH2 0x693 CALLDATASIZE PUSH1 0x4 PUSH2 0x3E51 JUMP JUMPDEST PUSH2 0x251F JUMP JUMPDEST PUSH1 0xC SLOAD PUSH2 0x460 SWAP1 PUSH1 0xFF AND DUP2 JUMP JUMPDEST PUSH2 0x3E9 PUSH2 0x6B3 CALLDATASIZE PUSH1 0x4 PUSH2 0x3DE9 JUMP JUMPDEST PUSH2 0x26CE JUMP JUMPDEST PUSH2 0x3B6 PUSH1 0x4 SLOAD DUP2 JUMP JUMPDEST PUSH2 0x3E9 PUSH2 0x6CF CALLDATASIZE PUSH1 0x4 PUSH2 0x3E88 JUMP JUMPDEST PUSH2 0x2937 JUMP JUMPDEST PUSH2 0x3B6 PUSH1 0x9 SLOAD DUP2 JUMP JUMPDEST PUSH2 0x3B6 PUSH4 0x784CE00 DUP2 JUMP JUMPDEST PUSH2 0x3B6 PUSH11 0x7C13BC4B2C133C56000000 DUP2 JUMP JUMPDEST PUSH2 0x3E9 PUSH2 0x708 CALLDATASIZE PUSH1 0x4 PUSH2 0x3E88 JUMP JUMPDEST PUSH2 0x2E6A JUMP JUMPDEST PUSH2 0x3B6 PUSH3 0x7E900 DUP2 JUMP JUMPDEST PUSH2 0x3B6 PUSH1 0xE SLOAD DUP2 JUMP JUMPDEST PUSH1 0x12 SLOAD PUSH2 0x460 SWAP1 PUSH1 0xFF AND DUP2 JUMP JUMPDEST PUSH2 0x3E9 PUSH2 0x73B CALLDATASIZE PUSH1 0x4 PUSH2 0x3F04 JUMP JUMPDEST PUSH2 0x3280 JUMP JUMPDEST PUSH2 0x3E9 PUSH2 0x74E CALLDATASIZE PUSH1 0x4 PUSH2 0x3DE9 JUMP JUMPDEST PUSH2 0x35DB JUMP JUMPDEST PUSH1 0x7 SLOAD PUSH2 0x460 SWAP1 PUSH1 0xFF AND DUP2 JUMP JUMPDEST PUSH2 0x3B6 PUSH1 0x8 SLOAD DUP2 JUMP JUMPDEST PUSH1 0x13 SLOAD PUSH2 0x390 SWAP1 PUSH1 0x1 PUSH1 0x1 PUSH1 0xA0 SHL SUB AND DUP2 JUMP JUMPDEST PUSH2 0x3E9 PUSH2 0x78A CALLDATASIZE PUSH1 0x4 PUSH2 0x3F70 JUMP JUMPDEST PUSH2 0x36C8 JUMP JUMPDEST PUSH2 0x3B6 PUSH1 0xD SLOAD DUP2 JUMP JUMPDEST PUSH2 0x7A0 PUSH2 0x3ABE JUMP JUMPDEST PUSH1 0x0 DUP2 PUSH1 0xFF AND GT PUSH2 0x7F8 JUMPI PUSH1 0x40 MLOAD PUSH3 0x461BCD PUSH1 0xE5 SHL DUP2 MSTORE PUSH1 0x20 PUSH1 0x4 DUP3 ADD MSTORE PUSH1 0x1E PUSH1 0x24 DUP3 ADD MSTORE PUSH32 0x4D6178696D756D2062617463682073697A652063616E6E6F7420626520300000 PUSH1 0x44 DUP3 ADD MSTORE PUSH1 0x64 ADD JUMPDEST PUSH1 0x40 MLOAD DUP1 SWAP2 SUB SWAP1 REVERT JUMPDEST PUSH1 0x64 DUP2 PUSH1 0xFF AND GT ISZERO PUSH2 0x862 JUMPI PUSH1 0x40 MLOAD PUSH3 0x461BCD PUSH1 0xE5 SHL DUP2 MSTORE PUSH1 0x20 PUSH1 0x4 DUP3 ADD MSTORE PUSH1 0x2D PUSH1 0x24 DUP3 ADD MSTORE PUSH32 0x4D6178696D756D2062617463682073697A652063616E6E6F7420626520677265 PUSH1 0x44 DUP3 ADD MSTORE PUSH13 0x61746572207468616E2031303 PUSH1 0x9C SHL PUSH1 0x64 DUP3 ADD MSTORE PUSH1 0x84 ADD PUSH2 0x7EF JUMP JUMPDEST PUSH1 0x13 DUP1 SLOAD PUSH1 0xFF PUSH1 0xA0 SHL NOT AND PUSH1 0x1 PUSH1 0xA0 SHL PUSH1 0xFF DUP5 AND SWAP1 DUP2 MUL SWAP2 SWAP1 SWAP2 OR SWAP1 SWAP2 SSTORE PUSH1 0x40 MLOAD SWAP1 DUP2 MSTORE PUSH32 0x6F2BB1DA32E5620D3A499F2A9B7E558FF34E34134E8DB9A112FF5982AE969094 SWAP1 PUSH1 0x20 ADD JUMPDEST PUSH1 0x40 MLOAD DUP1 SWAP2 SUB SWAP1 LOG1 POP JUMP JUMPDEST CALLER PUSH1 0x0 DUP2 DUP2 MSTORE PUSH1 0x14 PUSH1 0x20 MSTORE PUSH1 0x40 SWAP1 KECCAK256 PUSH1 0x9 ADD SLOAD PUSH1 0xFF PUSH2 0x100 SWAP1 SWAP2 DIV AND ISZERO ISZERO PUSH1 0x1 EQ PUSH2 0x8F4 JUMPI PUSH1 0x40 MLOAD PUSH3 0x461BCD PUSH1 0xE5 SHL DUP2 MSTORE PUSH1 0x4 ADD PUSH2 0x7EF SWAP1 PUSH2 0x3F8C JUMP JUMPDEST PUSH2 0x8FC PUSH2 0x3AF0 JUMP JUMPDEST PUSH2 0x904 PUSH2 0x1583 JUMP JUMPDEST ISZERO PUSH2 0x921 JUMPI PUSH1 0x40 MLOAD PUSH3 0x461BCD PUSH1 0xE5 SHL DUP2 MSTORE PUSH1 0x4 ADD PUSH2 0x7EF SWAP1 PUSH2 0x3FC3 JUMP JUMPDEST CALLER PUSH1 0x0 SWAP1 DUP2 MSTORE PUSH1 0x14 PUSH1 0x20 MSTORE PUSH1 0x40 SWAP1 KECCAK256 PUSH1 0x9 ADD SLOAD PUSH1 0xFF PUSH2 0x100 SWAP1 SWAP2 DIV AND ISZERO ISZERO PUSH1 0x1 EQ PUSH2 0x95E JUMPI PUSH1 0x40 MLOAD PUSH3 0x461BCD PUSH1 0xE5 SHL DUP2 MSTORE PUSH1 0x4 ADD PUSH2 0x7EF SWAP1 PUSH2 0x3F8C JUMP JUMPDEST CALLER PUSH1 0x0 SWAP1 DUP2 MSTORE PUSH1 0x14 PUSH1 0x20 MSTORE PUSH1 0x40 SWAP1 KECCAK256 PUSH1 0x9 ADD SLOAD PUSH3 0x10000 SWAP1 DIV PUSH1 0xFF AND ISZERO PUSH2 0x997 JUMPI PUSH1 0x40 MLOAD PUSH3 0x461BCD PUSH1 0xE5 SHL DUP2 MSTORE PUSH1 0x4 ADD PUSH2 0x7EF SWAP1 PUSH2 0x3FEF JUMP JUMPDEST PUSH1 0x12 SLOAD PUSH1 0xFF AND PUSH2 0x9B9 JUMPI PUSH1 0x40 MLOAD PUSH3 0x461BCD PUSH1 0xE5 SHL DUP2 MSTORE PUSH1 0x4 ADD PUSH2 0x7EF SWAP1 PUSH2 0x4026 JUMP JUMPDEST PUSH12 0x3E09DE2596099E2B0000000 PUSH1 0xF SLOAD LT PUSH2 0xA24 JUMPI PUSH1 0x40 MLOAD PUSH3 0x461BCD PUSH1 0xE5 SHL DUP2 MSTORE PUSH1 0x20 PUSH1 0x4 DUP3 ADD MSTORE PUSH1 0x25 PUSH1 0x24 DUP3 ADD MSTORE PUSH32 0x416C6C2072657761726420746F6B656E732068617665206265656E2077697468 PUSH1 0x44 DUP3 ADD MSTORE PUSH5 0x323930BBB7 PUSH1 0xD9 SHL PUSH1 0x64 DUP3 ADD MSTORE PUSH1 0x84 ADD PUSH2 0x7EF JUMP JUMPDEST CALLER PUSH1 0x0 SWAP1 DUP2 MSTORE PUSH1 0x14 PUSH1 0x20 MSTORE PUSH1 0x40 SWAP1 KECCAK256 PUSH1 0x3 ADD SLOAD DUP1 PUSH2 0xA84 JUMPI PUSH1 0x40 MLOAD PUSH3 0x461BCD PUSH1 0xE5 SHL DUP2 MSTORE PUSH1 0x20 PUSH1 0x4 DUP3 ADD DUP2 SWAP1 MSTORE PUSH1 0x24 DUP3 ADD MSTORE PUSH32 0x4E6F207265776172647320617661696C61626C6520746F207769746864726177 PUSH1 0x44 DUP3 ADD MSTORE PUSH1 0x64 ADD PUSH2 0x7EF JUMP JUMPDEST PUSH1 0x10 SLOAD DUP2 GT ISZERO PUSH2 0xAA6 JUMPI PUSH1 0x40 MLOAD PUSH3 0x461BCD PUSH1 0xE5 SHL DUP2 MSTORE PUSH1 0x4 ADD PUSH2 0x7EF SWAP1 PUSH2 0x4084 JUMP JUMPDEST CALLER PUSH1 0x0 SWAP1 DUP2 MSTORE PUSH1 0x14 PUSH1 0x20 MSTORE PUSH1 0x40 DUP2 KECCAK256 PUSH1 0x4 ADD DUP1 SLOAD DUP4 SWAP3 SWAP1 PUSH2 0xAC8 SWAP1 DUP5 SWAP1 PUSH2 0x40F0 JUMP JUMPDEST SWAP1 SWAP2 SSTORE POP POP CALLER PUSH1 0x0 SWAP1 DUP2 MSTORE PUSH1 0x14 PUSH1 0x20 MSTORE PUSH1 0x40 DUP2 KECCAK256 PUSH1 0x3 DUP2 ADD DUP3 SWAP1 SSTORE TIMESTAMP PUSH1 0x7 SWAP1 SWAP2 ADD SSTORE PUSH1 0x10 DUP1 SLOAD DUP4 SWAP3 SWAP1 PUSH2 0xAFC SWAP1 DUP5 SWAP1 PUSH2 0x4109 JUMP JUMPDEST SWAP3 POP POP DUP2 SWAP1 SSTORE POP DUP1 PUSH1 0xF PUSH1 0x0 DUP3 DUP3 SLOAD PUSH2 0xB15 SWAP2 SWAP1 PUSH2 0x40F0 JUMP JUMPDEST SWAP1 SWAP2 SSTORE POP POP PUSH1 0x1 SLOAD PUSH1 0x40 MLOAD PUSH4 0xA9059CBB PUSH1 0xE0 SHL DUP2 MSTORE CALLER PUSH1 0x4 DUP3 ADD MSTORE PUSH1 0x24 DUP2 ADD DUP4 SWAP1 MSTORE PUSH1 0x0 SWAP2 PUSH1 0x1 PUSH1 0x1 PUSH1 0xA0 SHL SUB AND SWAP1 PUSH4 0xA9059CBB SWAP1 PUSH1 0x44 ADD PUSH1 0x20 PUSH1 0x40 MLOAD DUP1 DUP4 SUB DUP2 PUSH1 0x0 DUP8 GAS CALL ISZERO DUP1 ISZERO PUSH2 0xB6C JUMPI RETURNDATASIZE PUSH1 0x0 DUP1 RETURNDATACOPY RETURNDATASIZE PUSH1 0x0 REVERT JUMPDEST POP POP POP POP PUSH1 0x40 MLOAD RETURNDATASIZE PUSH1 0x1F NOT PUSH1 0x1F DUP3 ADD AND DUP3 ADD DUP1 PUSH1 0x40 MSTORE POP DUP2 ADD SWAP1 PUSH2 0xB90 SWAP2 SWAP1 PUSH2 0x411C JUMP JUMPDEST SWAP1 POP DUP1 PUSH2 0xBDF JUMPI PUSH1 0x40 MLOAD PUSH3 0x461BCD PUSH1 0xE5 SHL DUP2 MSTORE PUSH1 0x20 PUSH1 0x4 DUP3 ADD DUP2 SWAP1 MSTORE PUSH1 0x24 DUP3 ADD MSTORE PUSH32 0x4661696C656420746F207472616E736665722072657761726420746F6B656E73 PUSH1 0x44 DUP3 ADD MSTORE PUSH1 0x64 ADD PUSH2 0x7EF JUMP JUMPDEST PUSH1 0x40 DUP1 MLOAD CALLER DUP2 MSTORE PUSH1 0x20 DUP2 ADD DUP5 SWAP1 MSTORE PUSH32 0xD8A9090919355543D8C79690CEEE3933C0BD4FFC742AE7F790D4BF44A043BB6C SWAP2 ADD PUSH1 0x40 MLOAD DUP1 SWAP2 SUB SWAP1 LOG1 POP POP PUSH2 0xC31 PUSH1 0x1 PUSH1 0x0 DUP1 MLOAD PUSH1 0x20 PUSH2 0x46DF DUP4 CODECOPY DUP2 MLOAD SWAP2 MSTORE SSTORE JUMP JUMPDEST POP JUMP JUMPDEST PUSH2 0xC3C PUSH2 0x3ABE JUMP JUMPDEST PUSH2 0xC44 PUSH2 0x3AF0 JUMP JUMPDEST PUSH1 0xC SLOAD PUSH1 0xFF AND PUSH2 0xCBC JUMPI PUSH1 0x40 MLOAD PUSH3 0x461BCD PUSH1 0xE5 SHL DUP2 MSTORE PUSH1 0x20 PUSH1 0x4 DUP3 ADD MSTORE PUSH1 0x3D PUSH1 0x24 DUP3 ADD MSTORE PUSH32 0x5465616D20746F6B656E732066756E64696E6720686173206E6F742073746172 PUSH1 0x44 DUP3 ADD MSTORE PUSH32 0x746564207965742C206E6F20746F6B656E7320746F207265636F766572000000 PUSH1 0x64 DUP3 ADD MSTORE PUSH1 0x84 ADD PUSH2 0x7EF JUMP JUMPDEST PUSH1 0x1 PUSH1 0x1 PUSH1 0xA0 SHL SUB DUP3 AND PUSH1 0x0 SWAP1 DUP2 MSTORE PUSH1 0x14 PUSH1 0x20 MSTORE PUSH1 0x40 SWAP1 KECCAK256 PUSH1 0x9 ADD SLOAD PUSH1 0xFF AND ISZERO ISZERO PUSH1 0x1 EQ PUSH2 0xD3C JUMPI PUSH1 0x40 MLOAD PUSH3 0x461BCD PUSH1 0xE5 SHL DUP2 MSTORE PUSH1 0x20 PUSH1 0x4 DUP3 ADD MSTORE PUSH1 0x27 PUSH1 0x24 DUP3 ADD MSTORE PUSH32 0x4F6C642077616C6C65742061646472657373206973206E6F742061207465616D PUSH1 0x44 DUP3 ADD MSTORE PUSH7 0x81DD85B1B195D PUSH1 0xCA SHL PUSH1 0x64 DUP3 ADD MSTORE PUSH1 0x84 ADD PUSH2 0x7EF JUMP JUMPDEST PUSH1 0x1 PUSH1 0x1 PUSH1 0xA0 SHL SUB DUP3 AND PUSH1 0x0 SWAP1 DUP2 MSTORE PUSH1 0x14 PUSH1 0x20 MSTORE PUSH1 0x40 SWAP1 KECCAK256 PUSH1 0x9 ADD SLOAD PUSH1 0xFF PUSH2 0x100 SWAP1 SWAP2 DIV AND ISZERO ISZERO PUSH1 0x1 EQ PUSH2 0xDCC JUMPI PUSH1 0x40 MLOAD PUSH3 0x461BCD PUSH1 0xE5 SHL DUP2 MSTORE PUSH1 0x20 PUSH1 0x4 DUP3 ADD MSTORE PUSH1 0x31 PUSH1 0x24 DUP3 ADD MSTORE PUSH32 0x4F6C64207465616D206D656D6265722077616C6C657420616464726573732069 PUSH1 0x44 DUP3 ADD MSTORE PUSH17 0x1CC81B9BDD081DDA1A5D195B1A5CDD1959 PUSH1 0x7A SHL PUSH1 0x64 DUP3 ADD MSTORE PUSH1 0x84 ADD PUSH2 0x7EF JUMP JUMPDEST PUSH1 0x1 PUSH1 0x1 PUSH1 0xA0 SHL SUB DUP3 AND PUSH1 0x0 SWAP1 DUP2 MSTORE PUSH1 0x14 PUSH1 0x20 MSTORE PUSH1 0x40 SWAP1 KECCAK256 PUSH1 0x9 ADD SLOAD PUSH3 0x10000 SWAP1 DIV PUSH1 0xFF AND ISZERO PUSH2 0xE54 JUMPI PUSH1 0x40 MLOAD PUSH3 0x461BCD PUSH1 0xE5 SHL DUP2 MSTORE PUSH1 0x20 PUSH1 0x4 DUP3 ADD MSTORE PUSH1 0x2D PUSH1 0x24 DUP3 ADD MSTORE PUSH32 0x4F6C64207465616D206D656D6265722077616C6C657420616464726573732069 PUSH1 0x44 DUP3 ADD MSTORE PUSH13 0x1CC8189B1858DADB1A5CDD1959 PUSH1 0x9A SHL PUSH1 0x64 DUP3 ADD MSTORE PUSH1 0x84 ADD PUSH2 0x7EF JUMP JUMPDEST PUSH1 0x1 PUSH1 0x1 PUSH1 0xA0 SHL SUB DUP2 AND PUSH2 0xED0 JUMPI PUSH1 0x40 MLOAD PUSH3 0x461BCD PUSH1 0xE5 SHL DUP2 MSTORE PUSH1 0x20 PUSH1 0x4 DUP3 ADD MSTORE PUSH1 0x39 PUSH1 0x24 DUP3 ADD MSTORE PUSH32 0x4E6577207465616D206D656D6265722077616C6C657420616464726573732063 PUSH1 0x44 DUP3 ADD MSTORE PUSH32 0x616E6E6F7420626520746865207A65726F206164647265737300000000000000 PUSH1 0x64 DUP3 ADD MSTORE PUSH1 0x84 ADD PUSH2 0x7EF JUMP JUMPDEST DUP2 PUSH1 0x1 PUSH1 0x1 PUSH1 0xA0 SHL SUB AND DUP2 PUSH1 0x1 PUSH1 0x1 PUSH1 0xA0 SHL SUB AND SUB PUSH2 0xF7D JUMPI PUSH1 0x40 MLOAD PUSH3 0x461BCD PUSH1 0xE5 SHL DUP2 MSTORE PUSH1 0x20 PUSH1 0x4 DUP3 ADD MSTORE PUSH1 0x57 PUSH1 0x24 DUP3 ADD MSTORE PUSH32 0x4E6577207465616D206D656D6265722077616C6C657420616464726573732063 PUSH1 0x44 DUP3 ADD MSTORE PUSH32 0x616E6E6F74206265207468652073616D6520617320746865206F6C6420746561 PUSH1 0x64 DUP3 ADD MSTORE PUSH32 0x6D206D656D6265722077616C6C65742061646472657373000000000000000000 PUSH1 0x84 DUP3 ADD MSTORE PUSH1 0xA4 ADD PUSH2 0x7EF JUMP JUMPDEST PUSH1 0x1 PUSH1 0x1 PUSH1 0xA0 SHL SUB DUP2 AND PUSH1 0x0 SWAP1 DUP2 MSTORE PUSH1 0x14 PUSH1 0x20 MSTORE PUSH1 0x40 SWAP1 KECCAK256 PUSH1 0x9 ADD SLOAD PUSH2 0x100 SWAP1 DIV PUSH1 0xFF AND ISZERO PUSH2 0x100C JUMPI PUSH1 0x40 MLOAD PUSH3 0x461BCD PUSH1 0xE5 SHL DUP2 MSTORE PUSH1 0x20 PUSH1 0x4 DUP3 ADD MSTORE PUSH1 0x35 PUSH1 0x24 DUP3 ADD MSTORE PUSH32 0x4E6577207465616D206D656D6265722077616C6C657420616464726573732069 PUSH1 0x44 DUP3 ADD MSTORE PUSH21 0x1CC8185B1C9958591E481DDA1A5D195B1A5CDD1959 PUSH1 0x5A SHL PUSH1 0x64 DUP3 ADD MSTORE PUSH1 0x84 ADD PUSH2 0x7EF JUMP JUMPDEST PUSH1 0x1 PUSH1 0x1 PUSH1 0xA0 SHL SUB DUP2 AND PUSH1 0x0 SWAP1 DUP2 MSTORE PUSH1 0x14 PUSH1 0x20 MSTORE PUSH1 0x40 SWAP1 KECCAK256 PUSH1 0x9 ADD SLOAD PUSH1 0xFF AND ISZERO PUSH2 0x109E JUMPI PUSH1 0x40 MLOAD PUSH3 0x461BCD PUSH1 0xE5 SHL DUP2 MSTORE PUSH1 0x20 PUSH1 0x4 DUP3 ADD MSTORE PUSH1 0x37 PUSH1 0x24 DUP3 ADD MSTORE PUSH32 0x4E6577207465616D206D656D6265722077616C6C657420616464726573732069 PUSH1 0x44 DUP3 ADD MSTORE PUSH32 0x7320616C72656164792061207465616D2077616C6C6574000000000000000000 PUSH1 0x64 DUP3 ADD MSTORE PUSH1 0x84 ADD PUSH2 0x7EF JUMP JUMPDEST PUSH1 0x1 PUSH1 0x1 PUSH1 0xA0 SHL SUB DUP2 AND PUSH1 0x0 SWAP1 DUP2 MSTORE PUSH1 0x14 PUSH1 0x20 MSTORE PUSH1 0x40 SWAP1 KECCAK256 PUSH1 0x9 ADD SLOAD PUSH3 0x10000 SWAP1 DIV PUSH1 0xFF AND ISZERO PUSH2 0x1126 JUMPI PUSH1 0x40 MLOAD PUSH3 0x461BCD PUSH1 0xE5 SHL DUP2 MSTORE PUSH1 0x20 PUSH1 0x4 DUP3 ADD MSTORE PUSH1 0x2D PUSH1 0x24 DUP3 ADD MSTORE PUSH32 0x4E6577207465616D206D656D6265722077616C6C657420616464726573732069 PUSH1 0x44 DUP3 ADD MSTORE PUSH13 0x1CC8189B1858DADB1A5CDD1959 PUSH1 0x9A SHL PUSH1 0x64 DUP3 ADD MSTORE PUSH1 0x84 ADD PUSH2 0x7EF JUMP JUMPDEST PUSH1 0x1 PUSH1 0x1 PUSH1 0xA0 SHL SUB DUP2 DUP2 AND PUSH1 0x0 DUP2 DUP2 MSTORE PUSH1 0x14 PUSH1 0x20 SWAP1 DUP2 MSTORE PUSH1 0x40 DUP1 DUP4 KECCAK256 PUSH1 0x9 DUP1 DUP3 ADD DUP1 SLOAD PUSH2 0x101 PUSH3 0xFFFFFF NOT SWAP2 DUP3 AND OR SWAP1 SWAP2 SSTORE SWAP7 DUP10 AND DUP1 DUP7 MSTORE DUP4 DUP7 KECCAK256 PUSH1 0x1 DUP2 DUP2 ADD DUP1 SLOAD SWAP2 DUP7 ADD SWAP2 SWAP1 SWAP2 SSTORE DUP2 SLOAD DUP6 SSTORE PUSH1 0x5 DUP1 DUP4 ADD SLOAD SWAP1 DUP7 ADD SSTORE PUSH1 0x6 DUP1 DUP4 ADD DUP1 SLOAD SWAP2 DUP8 ADD DUP1 SLOAD PUSH1 0xFF SWAP1 SWAP4 AND PUSH1 0xFF NOT SWAP4 DUP5 AND OR SWAP1 SSTORE SWAP5 DUP4 ADD DUP1 SLOAD PUSH3 0x10000 SWAP13 AND SWAP12 SWAP1 SWAP12 OR SWAP1 SWAP11 SSTORE DUP8 SWAP1 SSTORE DUP7 SWAP1 SSTORE DUP2 SLOAD SWAP1 SWAP8 AND SWAP1 SSTORE SWAP3 DUP5 SWAP1 MSTORE SWAP2 SLOAD DUP3 MLOAD SWAP5 DUP6 MSTORE SWAP1 DUP5 ADD SWAP3 SWAP1 SWAP3 MSTORE DUP3 ADD MSTORE PUSH32 0xA9DEFC7864DD156FA1C6384B685620C7012FA46B9E570145F7AEDECBBF38E9EF SWAP1 PUSH1 0x60 ADD JUMPDEST PUSH1 0x40 MLOAD DUP1 SWAP2 SUB SWAP1 LOG1 PUSH2 0x1210 PUSH1 0x1 PUSH1 0x0 DUP1 MLOAD PUSH1 0x20 PUSH2 0x46DF DUP4 CODECOPY DUP2 MLOAD SWAP2 MSTORE SSTORE JUMP JUMPDEST POP POP JUMP JUMPDEST PUSH2 0x121C PUSH2 0x3ABE JUMP JUMPDEST PUSH2 0x1224 PUSH2 0x3B3C JUMP JUMPDEST JUMP JUMPDEST PUSH2 0x123C PUSH1 0x34 PUSH11 0x7C13BC4B2C133C56000000 PUSH2 0x4139 JUMP JUMPDEST DUP2 JUMP JUMPDEST PUSH2 0x1247 PUSH2 0x3ABE JUMP JUMPDEST PUSH2 0x124F PUSH2 0x3AF0 JUMP JUMPDEST PUSH2 0x1257 PUSH2 0x1583 JUMP JUMPDEST ISZERO PUSH2 0x1274 JUMPI PUSH1 0x40 MLOAD PUSH3 0x461BCD PUSH1 0xE5 SHL DUP2 MSTORE PUSH1 0x4 ADD PUSH2 0x7EF SWAP1 PUSH2 0x3FC3 JUMP JUMPDEST PUSH1 0x7 SLOAD PUSH1 0xFF AND PUSH2 0x1296 JUMPI PUSH1 0x40 MLOAD PUSH3 0x461BCD PUSH1 0xE5 SHL DUP2 MSTORE PUSH1 0x4 ADD PUSH2 0x7EF SWAP1 PUSH2 0x415B JUMP JUMPDEST PUSH4 0x1E13380 PUSH1 0x6 SLOAD PUSH2 0x12A8 SWAP2 SWAP1 PUSH2 0x40F0 JUMP JUMPDEST TIMESTAMP LT ISZERO PUSH2 0x1311 JUMPI PUSH1 0x40 MLOAD PUSH3 0x461BCD PUSH1 0xE5 SHL DUP2 MSTORE PUSH1 0x20 PUSH1 0x4 DUP3 ADD MSTORE PUSH1 0x31 PUSH1 0x24 DUP3 ADD MSTORE PUSH32 0x43616E6E6F74207769746864726177206265666F726520312079656172206166 PUSH1 0x44 DUP3 ADD MSTORE PUSH17 0x1D195C88199D5B991A5B99C81CDD185C9D PUSH1 0x7A SHL PUSH1 0x64 DUP3 ADD MSTORE PUSH1 0x84 ADD PUSH2 0x7EF JUMP JUMPDEST PUSH12 0x7C13BC4B2C133C560000000 PUSH1 0x3 SLOAD LT PUSH2 0x137C JUMPI PUSH1 0x40 MLOAD PUSH3 0x461BCD PUSH1 0xE5 SHL DUP2 MSTORE PUSH1 0x20 PUSH1 0x4 DUP3 ADD MSTORE PUSH1 0x25 PUSH1 0x24 DUP3 ADD MSTORE PUSH32 0x416C6C2067726F77746820746F6B656E732068617665206265656E2077697468 PUSH1 0x44 DUP3 ADD MSTORE PUSH5 0x323930BBB7 PUSH1 0xD9 SHL PUSH1 0x64 DUP3 ADD MSTORE PUSH1 0x84 ADD PUSH2 0x7EF JUMP JUMPDEST PUSH4 0x1E13380 PUSH1 0x5 SLOAD PUSH2 0x138E SWAP2 SWAP1 PUSH2 0x40F0 JUMP JUMPDEST TIMESTAMP LT ISZERO PUSH2 0x13DD JUMPI PUSH1 0x40 MLOAD PUSH3 0x461BCD PUSH1 0xE5 SHL DUP2 MSTORE PUSH1 0x20 PUSH1 0x4 DUP3 ADD MSTORE PUSH1 0x1F PUSH1 0x24 DUP3 ADD MSTORE PUSH32 0x43616E206F6E6C79207769746864726177206F6E636520706572207965617200 PUSH1 0x44 DUP3 ADD MSTORE PUSH1 0x64 ADD PUSH2 0x7EF JUMP JUMPDEST PUSH1 0x3 SLOAD PUSH11 0x6342FD08F00F6378000000 SWAP1 PUSH12 0x7C13BC4B2C133C560000000 SWAP1 PUSH2 0x1406 SWAP1 DUP4 SWAP1 PUSH2 0x40F0 JUMP JUMPDEST GT ISZERO PUSH2 0x1428 JUMPI PUSH1 0x3 SLOAD PUSH2 0x1425 SWAP1 PUSH12 0x7C13BC4B2C133C560000000 PUSH2 0x4109 JUMP JUMPDEST SWAP1 POP JUMPDEST DUP1 PUSH1 0x3 PUSH1 0x0 DUP3 DUP3 SLOAD PUSH2 0x143A SWAP2 SWAP1 PUSH2 0x40F0 JUMP JUMPDEST SWAP3 POP POP DUP2 SWAP1 SSTORE POP DUP1 PUSH1 0x4 PUSH1 0x0 DUP3 DUP3 SLOAD PUSH2 0x1453 SWAP2 SWAP1 PUSH2 0x4109 JUMP JUMPDEST SWAP1 SWAP2 SSTORE POP POP TIMESTAMP PUSH1 0x5 SSTORE PUSH1 0x1 SLOAD PUSH1 0x1 PUSH1 0x1 PUSH1 0xA0 SHL SUB AND PUSH4 0xA9059CBB PUSH2 0x1475 PUSH2 0x1C7F JUMP JUMPDEST PUSH1 0x40 MLOAD PUSH1 0x1 PUSH1 0x1 PUSH1 0xE0 SHL SUB NOT PUSH1 0xE0 DUP5 SWAP1 SHL AND DUP2 MSTORE PUSH1 0x1 PUSH1 0x1 PUSH1 0xA0 SHL SUB SWAP1 SWAP2 AND PUSH1 0x4 DUP3 ADD MSTORE PUSH1 0x24 DUP2 ADD DUP5 SWAP1 MSTORE PUSH1 0x44 ADD PUSH1 0x20 PUSH1 0x40 MLOAD DUP1 DUP4 SUB DUP2 PUSH1 0x0 DUP8 GAS CALL ISZERO DUP1 ISZERO PUSH2 0x14C2 JUMPI RETURNDATASIZE PUSH1 0x0 DUP1 RETURNDATACOPY RETURNDATASIZE PUSH1 0x0 REVERT JUMPDEST POP POP POP POP PUSH1 0x40 MLOAD RETURNDATASIZE PUSH1 0x1F NOT PUSH1 0x1F DUP3 ADD AND DUP3 ADD DUP1 PUSH1 0x40 MSTORE POP DUP2 ADD SWAP1 PUSH2 0x14E6 SWAP2 SWAP1 PUSH2 0x411C JUMP JUMPDEST PUSH2 0x1532 JUMPI PUSH1 0x40 MLOAD PUSH3 0x461BCD PUSH1 0xE5 SHL DUP2 MSTORE PUSH1 0x20 PUSH1 0x4 DUP3 ADD DUP2 SWAP1 MSTORE PUSH1 0x24 DUP3 ADD MSTORE PUSH32 0x4661696C656420746F207472616E736665722067726F77746820746F6B656E73 PUSH1 0x44 DUP3 ADD MSTORE PUSH1 0x64 ADD PUSH2 0x7EF JUMP JUMPDEST PUSH1 0x40 DUP1 MLOAD CALLER DUP2 MSTORE PUSH1 0x20 DUP2 ADD DUP4 SWAP1 MSTORE PUSH32 0xD0A5227BFA49CF178A8F7A87B90318EF05FC8330F469E0DCCBE075784F426DBF SWAP2 ADD PUSH1 0x40 MLOAD DUP1 SWAP2 SUB SWAP1 LOG1 POP PUSH2 0x1224 PUSH1 0x1 PUSH1 0x0 DUP1 MLOAD PUSH1 0x20 PUSH2 0x46DF DUP4 CODECOPY DUP2 MLOAD SWAP2 MSTORE SSTORE JUMP JUMPDEST PUSH1 0x0 DUP1 MLOAD PUSH1 0x20 PUSH2 0x46BF DUP4 CODECOPY DUP2 MLOAD SWAP2 MSTORE SLOAD PUSH1 0xFF AND SWAP1 JUMP JUMPDEST PUSH2 0x15A1 PUSH2 0x3ABE JUMP JUMPDEST PUSH1 0x1 PUSH1 0x1 PUSH1 0xA0 SHL SUB DUP2 AND PUSH2 0x160F JUMPI PUSH1 0x40 MLOAD PUSH3 0x461BCD PUSH1 0xE5 SHL DUP2 MSTORE PUSH1 0x20 PUSH1 0x4 DUP3 ADD MSTORE PUSH1 0x2F PUSH1 0x24 DUP3 ADD MSTORE PUSH32 0x5768697465206C697374657220616464726573732063616E6E6F742062652074 PUSH1 0x44 DUP3 ADD MSTORE PUSH15 0x6865207A65726F2061646472657373 PUSH1 0x88 SHL PUSH1 0x64 DUP3 ADD MSTORE PUSH1 0x84 ADD PUSH2 0x7EF JUMP JUMPDEST PUSH1 0x12 DUP1 SLOAD PUSH2 0x100 PUSH1 0x1 PUSH1 0xA8 SHL SUB NOT AND PUSH2 0x100 PUSH1 0x1 PUSH1 0x1 PUSH1 0xA0 SHL SUB DUP5 AND SWAP1 DUP2 MUL SWAP2 SWAP1 SWAP2 OR SWAP1 SWAP2 SSTORE PUSH1 0x40 MLOAD SWAP1 DUP2 MSTORE PUSH32 0x6BDAB87CEBF48EC7916084AB67BB3D8A596E0D1E3B5572596393F266D9EA3057 SWAP1 PUSH1 0x20 ADD PUSH2 0x8AC JUMP JUMPDEST PUSH2 0x166D PUSH2 0x3ABE JUMP JUMPDEST PUSH1 0x1 PUSH1 0x1 PUSH1 0xA0 SHL SUB DUP2 AND PUSH2 0x16DE JUMPI PUSH1 0x40 MLOAD PUSH3 0x461BCD PUSH1 0xE5 SHL DUP2 MSTORE PUSH1 0x20 PUSH1 0x4 DUP3 ADD MSTORE PUSH1 0x32 PUSH1 0x24 DUP3 ADD MSTORE PUSH32 0x52657761726473207570646174657220616464726573732063616E6E6F742062 PUSH1 0x44 DUP3 ADD MSTORE PUSH18 0x6520746865207A65726F2061646472657373 PUSH1 0x70 SHL PUSH1 0x64 DUP3 ADD MSTORE PUSH1 0x84 ADD PUSH2 0x7EF JUMP JUMPDEST PUSH1 0x13 DUP1 SLOAD PUSH1 0x1 PUSH1 0x1 PUSH1 0xA0 SHL SUB NOT AND PUSH1 0x1 PUSH1 0x1 PUSH1 0xA0 SHL SUB DUP4 AND SWAP1 DUP2 OR SWAP1 SWAP2 SSTORE PUSH1 0x40 MLOAD SWAP1 DUP2 MSTORE PUSH32 0x7946FB32EB39758C8854BA2C1D63C5ED4C7A95CDB748090128FA33A803A29894 SWAP1 PUSH1 0x20 ADD PUSH2 0x8AC JUMP JUMPDEST PUSH2 0x1734 PUSH2 0x3ABE JUMP JUMPDEST PUSH2 0x1224 PUSH1 0x0 PUSH2 0x3B96 JUMP JUMPDEST PUSH2 0x1746 PUSH2 0x3ABE JUMP JUMPDEST PUSH2 0x1224 PUSH2 0x3C07 JUMP JUMPDEST PUSH2 0x1756 PUSH2 0x1C7F JUMP JUMPDEST PUSH1 0x1 PUSH1 0x1 PUSH1 0xA0 SHL SUB AND CALLER PUSH1 0x1 PUSH1 0x1 PUSH1 0xA0 SHL SUB AND EQ DUP1 PUSH2 0x1784 JUMPI POP PUSH1 0x12 SLOAD PUSH2 0x100 SWAP1 DIV PUSH1 0x1 PUSH1 0x1 PUSH1 0xA0 SHL SUB AND CALLER EQ JUMPDEST PUSH2 0x17A0 JUMPI PUSH1 0x40 MLOAD PUSH3 0x461BCD PUSH1 0xE5 SHL DUP2 MSTORE PUSH1 0x4 ADD PUSH2 0x7EF SWAP1 PUSH2 0x41B9 JUMP JUMPDEST PUSH1 0x40 DUP1 MLOAD CALLER DUP2 MSTORE ORIGIN PUSH1 0x20 DUP3 ADD MSTORE PUSH1 0x0 DUP1 MLOAD PUSH1 0x20 PUSH2 0x46FF DUP4 CODECOPY DUP2 MLOAD SWAP2 MSTORE SWAP2 ADD PUSH1 0x40 MLOAD DUP1 SWAP2 SUB SWAP1 LOG1 PUSH1 0x1 PUSH1 0x1 PUSH1 0xA0 SHL SUB DUP4 AND PUSH1 0x0 SWAP1 DUP2 MSTORE PUSH1 0x14 PUSH1 0x20 MSTORE PUSH1 0x40 SWAP1 KECCAK256 PUSH1 0x9 ADD SLOAD PUSH2 0x100 SWAP1 DIV PUSH1 0xFF AND ISZERO PUSH2 0x1837 JUMPI PUSH1 0x40 MLOAD PUSH3 0x461BCD PUSH1 0xE5 SHL DUP2 MSTORE PUSH1 0x20 PUSH1 0x4 DUP3 ADD MSTORE PUSH1 0x1D PUSH1 0x24 DUP3 ADD MSTORE PUSH32 0x57616C6C657420697320616C72656164792077686974656C6973746564000000 PUSH1 0x44 DUP3 ADD MSTORE PUSH1 0x64 ADD PUSH2 0x7EF JUMP JUMPDEST PUSH1 0x1 PUSH1 0x1 PUSH1 0xA0 SHL SUB DUP4 AND PUSH1 0x0 SWAP1 DUP2 MSTORE PUSH1 0x14 PUSH1 0x20 MSTORE PUSH1 0x40 SWAP1 KECCAK256 PUSH1 0x9 ADD SLOAD PUSH3 0x10000 SWAP1 DIV PUSH1 0xFF AND ISZERO PUSH2 0x1879 JUMPI PUSH1 0x40 MLOAD PUSH3 0x461BCD PUSH1 0xE5 SHL DUP2 MSTORE PUSH1 0x4 ADD PUSH2 0x7EF SWAP1 PUSH2 0x3FEF JUMP JUMPDEST PUSH1 0x1 PUSH1 0x1 PUSH1 0xA0 SHL SUB DUP4 AND PUSH1 0x0 SWAP1 DUP2 MSTORE PUSH1 0x14 PUSH1 0x20 MSTORE PUSH1 0x40 SWAP1 KECCAK256 PUSH1 0x5 ADD SLOAD ISZERO PUSH2 0x18F9 JUMPI PUSH1 0x40 MLOAD PUSH3 0x461BCD PUSH1 0xE5 SHL DUP2 MSTORE PUSH1 0x20 PUSH1 0x4 DUP3 ADD MSTORE PUSH1 0x2E PUSH1 0x24 DUP3 ADD MSTORE PUSH32 0x57616C6C65742068617320616C7265616479206265656E20616464656420746F PUSH1 0x44 DUP3 ADD MSTORE PUSH14 0x81D1A19481DDA1A5D195B1A5CDD PUSH1 0x92 SHL PUSH1 0x64 DUP3 ADD MSTORE PUSH1 0x84 ADD PUSH2 0x7EF JUMP JUMPDEST PUSH1 0x1 PUSH1 0x1 PUSH1 0xA0 SHL SUB DUP4 AND PUSH1 0x0 SWAP1 DUP2 MSTORE PUSH1 0x14 PUSH1 0x20 MSTORE PUSH1 0x40 DUP2 KECCAK256 PUSH1 0x9 DUP2 ADD DUP1 SLOAD DUP6 ISZERO DUP1 ISZERO PUSH3 0xFFFFFF NOT SWAP1 SWAP3 AND SWAP2 SWAP1 SWAP2 OR PUSH2 0x100 OR SWAP1 SWAP2 SSTORE TIMESTAMP PUSH1 0x5 DUP4 ADD SSTORE PUSH1 0x6 DUP3 ADD DUP1 SLOAD PUSH1 0xFF NOT AND SWAP1 SSTORE PUSH1 0x7 DUP3 ADD DUP4 SWAP1 SSTORE PUSH1 0x3 DUP3 ADD DUP4 SWAP1 SSTORE PUSH1 0x2 DUP3 ADD DUP4 SWAP1 SSTORE PUSH1 0x4 SWAP1 SWAP2 ADD SWAP2 SWAP1 SWAP2 SSTORE PUSH2 0x1AAD JUMPI PUSH1 0x0 DUP2 GT PUSH2 0x19E6 JUMPI PUSH1 0x40 MLOAD PUSH3 0x461BCD PUSH1 0xE5 SHL DUP2 MSTORE PUSH1 0x20 PUSH1 0x4 DUP3 ADD MSTORE PUSH1 0x44 PUSH1 0x24 DUP3 ADD DUP2 SWAP1 MSTORE PUSH32 0x5465616D2077616C6C657473206D757374206265206164646564207769746820 SWAP1 DUP3 ADD MSTORE PUSH32 0x61206879617820686F6C64696E6720616D6F756E742067726561746572207468 PUSH1 0x64 DUP3 ADD MSTORE PUSH4 0x616E203 PUSH1 0xE4 SHL PUSH1 0x84 DUP3 ADD MSTORE PUSH1 0xA4 ADD PUSH2 0x7EF JUMP JUMPDEST PUSH12 0x4D8C55AEFB8C05B5C000000 DUP2 GT ISZERO PUSH2 0x1A86 JUMPI PUSH1 0x40 MLOAD PUSH3 0x461BCD PUSH1 0xE5 SHL DUP2 MSTORE PUSH1 0x20 PUSH1 0x4 DUP3 ADD MSTORE PUSH1 0x55 PUSH1 0x24 DUP3 ADD MSTORE PUSH32 0x5465616D2077616C6C657473206D757374206265206164646564207769746820 PUSH1 0x44 DUP3 ADD MSTORE PUSH32 0x61206879617820686F6C64696E6720616D6F756E74206C657373207468616E20 PUSH1 0x64 DUP3 ADD MSTORE PUSH21 0x74686520746F74616C207465616D20746F6B656E73 PUSH1 0x58 SHL PUSH1 0x84 DUP3 ADD MSTORE PUSH1 0xA4 ADD PUSH2 0x7EF JUMP JUMPDEST PUSH1 0x1 PUSH1 0x1 PUSH1 0xA0 SHL SUB DUP4 AND PUSH1 0x0 SWAP1 DUP2 MSTORE PUSH1 0x14 PUSH1 0x20 MSTORE PUSH1 0x40 SWAP1 KECCAK256 PUSH1 0x1 DUP2 ADD DUP3 SWAP1 SSTORE DUP2 SWAP1 SSTORE PUSH2 0x1B4C JUMP JUMPDEST DUP1 ISZERO PUSH2 0x1B2B JUMPI PUSH1 0x40 MLOAD PUSH3 0x461BCD PUSH1 0xE5 SHL DUP2 MSTORE PUSH1 0x20 PUSH1 0x4 DUP3 ADD MSTORE PUSH1 0x41 PUSH1 0x24 DUP3 ADD MSTORE PUSH32 0x4E6F6E207465616D2077616C6C6574732063616E206F6E6C7920626520616464 PUSH1 0x44 DUP3 ADD MSTORE PUSH32 0x6564207769746820686F6C64696E6720616D6F756E7420657175616C20746F20 PUSH1 0x64 DUP3 ADD MSTORE PUSH1 0x3 PUSH1 0xFC SHL PUSH1 0x84 DUP3 ADD MSTORE PUSH1 0xA4 ADD PUSH2 0x7EF JUMP JUMPDEST PUSH1 0x1 PUSH1 0x1 PUSH1 0xA0 SHL SUB DUP4 AND PUSH1 0x0 SWAP1 DUP2 MSTORE PUSH1 0x14 PUSH1 0x20 MSTORE PUSH1 0x40 DUP2 KECCAK256 PUSH1 0x1 DUP2 ADD DUP3 SWAP1 SSTORE SSTORE JUMPDEST PUSH1 0x40 DUP1 MLOAD CALLER DUP2 MSTORE PUSH1 0x1 PUSH1 0x1 PUSH1 0xA0 SHL SUB DUP6 AND PUSH1 0x20 DUP3 ADD MSTORE DUP4 ISZERO ISZERO DUP2 DUP4 ADD MSTORE PUSH1 0x60 DUP2 ADD DUP4 SWAP1 MSTORE SWAP1 MLOAD PUSH32 0xC294E522BA20B0699FE578649971CEFDFDC8D0E330DB37D0437849F38B3960E6 SWAP2 DUP2 SWAP1 SUB PUSH1 0x80 ADD SWAP1 LOG1 POP POP POP JUMP JUMPDEST PUSH1 0xC SLOAD PUSH1 0x0 SWAP1 PUSH1 0xFF AND PUSH2 0x1C06 JUMPI PUSH1 0x40 MLOAD PUSH3 0x461BCD PUSH1 0xE5 SHL DUP2 MSTORE PUSH1 0x20 PUSH1 0x4 DUP3 ADD MSTORE PUSH1 0x27 PUSH1 0x24 DUP3 ADD MSTORE PUSH32 0x5465616D20746F6B656E732066756E64696E6720686173206E6F742073746172 PUSH1 0x44 DUP3 ADD MSTORE PUSH7 0x1D1959081E595D PUSH1 0xCA SHL PUSH1 0x64 DUP3 ADD MSTORE PUSH1 0x84 ADD PUSH2 0x7EF JUMP JUMPDEST PUSH1 0x0 PUSH1 0xB SLOAD TIMESTAMP PUSH2 0x1C16 SWAP2 SWAP1 PUSH2 0x4109 JUMP JUMPDEST SWAP1 POP PUSH4 0xF099C00 DUP2 LT PUSH2 0x1C2B JUMPI PUSH1 0x5 SWAP2 POP POP SWAP1 JUMP JUMPDEST PUSH4 0xD286880 DUP2 LT PUSH2 0x1C3E JUMPI PUSH1 0x4 SWAP2 POP POP SWAP1 JUMP JUMPDEST PUSH4 0xB473500 DUP2 LT PUSH2 0x1C51 JUMPI PUSH1 0x3 SWAP2 POP POP SWAP1 JUMP JUMPDEST PUSH4 0x9660180 DUP2 LT PUSH2 0x1C64 JUMPI PUSH1 0x2 SWAP2 POP POP SWAP1 JUMP JUMPDEST PUSH4 0x784CE00 DUP2 LT PUSH2 0x1C77 JUMPI PUSH1 0x1 SWAP2 POP POP SWAP1 JUMP JUMPDEST PUSH1 0x0 SWAP2 POP POP SWAP1 JUMP JUMPDEST PUSH32 0x9016D09D72D40FDAE2FD8CEAC6B6234C7706214FD39C1CD1E609A0528C199300 SLOAD PUSH1 0x1 PUSH1 0x1 PUSH1 0xA0 SHL SUB AND SWAP1 JUMP JUMPDEST CALLER PUSH1 0x0 DUP2 DUP2 MSTORE PUSH1 0x14 PUSH1 0x20 MSTORE PUSH1 0x40 SWAP1 KECCAK256 PUSH1 0x9 ADD SLOAD PUSH1 0xFF PUSH2 0x100 SWAP1 SWAP2 DIV AND ISZERO ISZERO PUSH1 0x1 EQ PUSH2 0x1CEA JUMPI PUSH1 0x40 MLOAD PUSH3 0x461BCD PUSH1 0xE5 SHL DUP2 MSTORE PUSH1 0x4 ADD PUSH2 0x7EF SWAP1 PUSH2 0x3F8C JUMP JUMPDEST CALLER PUSH1 0x0 DUP2 DUP2 MSTORE PUSH1 0x14 PUSH1 0x20 MSTORE PUSH1 0x40 SWAP1 KECCAK256 PUSH1 0x9 ADD SLOAD PUSH3 0x10000 SWAP1 DIV PUSH1 0xFF AND ISZERO PUSH2 0x1D23 JUMPI PUSH1 0x40 MLOAD PUSH3 0x461BCD PUSH1 0xE5 SHL DUP2 MSTORE PUSH1 0x4 ADD PUSH2 0x7EF SWAP1 PUSH2 0x3FEF JUMP JUMPDEST PUSH2 0x1D2B PUSH2 0x3AF0 JUMP JUMPDEST PUSH2 0x1D33 PUSH2 0x1583 JUMP JUMPDEST ISZERO PUSH2 0x1D50 JUMPI PUSH1 0x40 MLOAD PUSH3 0x461BCD PUSH1 0xE5 SHL DUP2 MSTORE PUSH1 0x4 ADD PUSH2 0x7EF SWAP1 PUSH2 0x3FC3 JUMP JUMPDEST CALLER PUSH1 0x0 SWAP1 DUP2 MSTORE PUSH1 0x14 PUSH1 0x20 MSTORE PUSH1 0x40 SWAP1 KECCAK256 PUSH1 0x9 ADD SLOAD PUSH1 0xFF AND ISZERO ISZERO PUSH1 0x1 EQ PUSH2 0x1DDD JUMPI PUSH1 0x40 MLOAD PUSH3 0x461BCD PUSH1 0xE5 SHL DUP2 MSTORE PUSH1 0x20 PUSH1 0x4 DUP3 ADD MSTORE PUSH1 0x39 PUSH1 0x24 DUP3 ADD MSTORE PUSH32 0x4F6E6C79207465616D2077616C6C6574732063616E2077697468647261772074 PUSH1 0x44 DUP3 ADD MSTORE PUSH32 0x6F6B656E73207573696E6720746869732066756E6374696F6E00000000000000 PUSH1 0x64 DUP3 ADD MSTORE PUSH1 0x84 ADD PUSH2 0x7EF JUMP JUMPDEST PUSH1 0xC SLOAD PUSH1 0xFF AND PUSH2 0x1DFF JUMPI PUSH1 0x40 MLOAD PUSH3 0x461BCD PUSH1 0xE5 SHL DUP2 MSTORE PUSH1 0x4 ADD PUSH2 0x7EF SWAP1 PUSH2 0x4216 JUMP JUMPDEST CALLER PUSH1 0x0 SWAP1 DUP2 MSTORE PUSH1 0x14 PUSH1 0x20 MSTORE PUSH1 0x40 SWAP1 KECCAK256 PUSH1 0x5 ADD SLOAD PUSH2 0x1E21 SWAP1 PUSH4 0x784CE00 SWAP1 PUSH2 0x40F0 JUMP JUMPDEST TIMESTAMP LT ISZERO PUSH2 0x1EA0 JUMPI PUSH1 0x40 MLOAD PUSH3 0x461BCD PUSH1 0xE5 SHL DUP2 MSTORE PUSH1 0x20 PUSH1 0x4 DUP3 ADD MSTORE PUSH1 0x41 PUSH1 0x24 DUP3 ADD MSTORE PUSH32 0x43616E6E6F74207769746864726177206265666F726520342079656172732061 PUSH1 0x44 DUP3 ADD MSTORE PUSH32 0x66746572206265696E6720616464656420746F207468652077686974656C6973 PUSH1 0x64 DUP3 ADD MSTORE PUSH1 0x1D PUSH1 0xFA SHL PUSH1 0x84 DUP3 ADD MSTORE PUSH1 0xA4 ADD PUSH2 0x7EF JUMP JUMPDEST PUSH12 0x4D8C55AEFB8C05B5C000000 PUSH1 0x9 SLOAD LT PUSH2 0x1F09 JUMPI PUSH1 0x40 MLOAD PUSH3 0x461BCD PUSH1 0xE5 SHL DUP2 MSTORE PUSH1 0x20 PUSH1 0x4 DUP3 ADD MSTORE PUSH1 0x23 PUSH1 0x24 DUP3 ADD MSTORE PUSH32 0x416C6C207465616D20746F6B656E732068617665206265656E20776974686472 PUSH1 0x44 DUP3 ADD MSTORE PUSH3 0x30BBB7 PUSH1 0xE9 SHL PUSH1 0x64 DUP3 ADD MSTORE PUSH1 0x84 ADD PUSH2 0x7EF JUMP JUMPDEST CALLER PUSH1 0x0 SWAP1 DUP2 MSTORE PUSH1 0x14 PUSH1 0x20 MSTORE PUSH1 0x40 SWAP1 KECCAK256 SLOAD PUSH2 0x1F70 JUMPI PUSH1 0x40 MLOAD PUSH3 0x461BCD PUSH1 0xE5 SHL DUP2 MSTORE PUSH1 0x20 PUSH1 0x4 DUP3 ADD MSTORE PUSH1 0x22 PUSH1 0x24 DUP3 ADD MSTORE PUSH32 0x4E6F206879617820686F6C64696E6720616D6F756E7420746F20776974686472 PUSH1 0x44 DUP3 ADD MSTORE PUSH2 0x6177 PUSH1 0xF0 SHL PUSH1 0x64 DUP3 ADD MSTORE PUSH1 0x84 ADD PUSH2 0x7EF JUMP JUMPDEST PUSH2 0x1F78 PUSH2 0x1BA1 JUMP JUMPDEST CALLER PUSH1 0x0 SWAP1 DUP2 MSTORE PUSH1 0x14 PUSH1 0x20 MSTORE PUSH1 0x40 SWAP1 KECCAK256 PUSH1 0x6 ADD SLOAD PUSH1 0xFF SWAP2 DUP3 AND SWAP2 AND LT PUSH2 0x1FF3 JUMPI PUSH1 0x40 MLOAD PUSH3 0x461BCD PUSH1 0xE5 SHL DUP2 MSTORE PUSH1 0x20 PUSH1 0x4 DUP3 ADD MSTORE PUSH1 0x2B PUSH1 0x24 DUP3 ADD MSTORE PUSH32 0x43616E206F6E6C79207769746864726177207465616D20746F6B656E73206F6E PUSH1 0x44 DUP3 ADD MSTORE PUSH11 0x31B2903832B9103CB2B0B9 PUSH1 0xA9 SHL PUSH1 0x64 DUP3 ADD MSTORE PUSH1 0x84 ADD PUSH2 0x7EF JUMP JUMPDEST CALLER PUSH1 0x0 SWAP1 DUP2 MSTORE PUSH1 0x14 PUSH1 0x20 MSTORE PUSH1 0x40 DUP2 KECCAK256 PUSH1 0x1 ADD SLOAD PUSH2 0x2012 SWAP1 PUSH1 0x5 SWAP1 PUSH2 0x4139 JUMP JUMPDEST SWAP1 POP PUSH12 0x4D8C55AEFB8C05B5C000000 DUP2 PUSH1 0x9 SLOAD PUSH2 0x202F SWAP2 SWAP1 PUSH2 0x40F0 JUMP JUMPDEST GT ISZERO PUSH2 0x2051 JUMPI PUSH1 0x9 SLOAD PUSH2 0x204E SWAP1 PUSH12 0x4D8C55AEFB8C05B5C000000 PUSH2 0x4109 JUMP JUMPDEST SWAP1 POP JUMPDEST CALLER PUSH1 0x0 SWAP1 DUP2 MSTORE PUSH1 0x14 PUSH1 0x20 MSTORE PUSH1 0x40 DUP2 KECCAK256 DUP1 SLOAD DUP4 SWAP3 SWAP1 PUSH2 0x2070 SWAP1 DUP5 SWAP1 PUSH2 0x4109 JUMP JUMPDEST SWAP3 POP POP DUP2 SWAP1 SSTORE POP DUP1 PUSH1 0x9 PUSH1 0x0 DUP3 DUP3 SLOAD PUSH2 0x2089 SWAP2 SWAP1 PUSH2 0x40F0 JUMP JUMPDEST SWAP3 POP POP DUP2 SWAP1 SSTORE POP DUP1 PUSH1 0xA PUSH1 0x0 DUP3 DUP3 SLOAD PUSH2 0x20A2 SWAP2 SWAP1 PUSH2 0x4109 JUMP JUMPDEST SWAP1 SWAP2 SSTORE POP POP CALLER PUSH1 0x0 SWAP1 DUP2 MSTORE PUSH1 0x14 PUSH1 0x20 MSTORE PUSH1 0x40 DUP2 KECCAK256 PUSH1 0x6 ADD DUP1 SLOAD PUSH1 0xFF AND SWAP2 PUSH2 0x20C8 DUP4 PUSH2 0x4273 JUMP JUMPDEST DUP3 SLOAD PUSH1 0xFF SWAP2 DUP3 AND PUSH2 0x100 SWAP4 SWAP1 SWAP4 EXP SWAP3 DUP4 MUL SWAP2 SWAP1 SWAP3 MUL NOT SWAP1 SWAP2 AND OR SWAP1 SSTORE POP PUSH1 0x1 SLOAD PUSH1 0x40 MLOAD PUSH4 0xA9059CBB PUSH1 0xE0 SHL DUP2 MSTORE CALLER PUSH1 0x4 DUP3 ADD MSTORE PUSH1 0x24 DUP2 ADD DUP4 SWAP1 MSTORE PUSH1 0x1 PUSH1 0x1 PUSH1 0xA0 SHL SUB SWAP1 SWAP2 AND SWAP1 PUSH4 0xA9059CBB SWAP1 PUSH1 0x44 ADD PUSH1 0x20 PUSH1 0x40 MLOAD DUP1 DUP4 SUB DUP2 PUSH1 0x0 DUP8 GAS CALL ISZERO DUP1 ISZERO PUSH2 0x2136 JUMPI RETURNDATASIZE PUSH1 0x0 DUP1 RETURNDATACOPY RETURNDATASIZE PUSH1 0x0 REVERT JUMPDEST POP POP POP POP PUSH1 0x40 MLOAD RETURNDATASIZE PUSH1 0x1F NOT PUSH1 0x1F DUP3 ADD AND DUP3 ADD DUP1 PUSH1 0x40 MSTORE POP DUP2 ADD SWAP1 PUSH2 0x215A SWAP2 SWAP1 PUSH2 0x411C JUMP JUMPDEST PUSH2 0x21A6 JUMPI PUSH1 0x40 MLOAD PUSH3 0x461BCD PUSH1 0xE5 SHL DUP2 MSTORE PUSH1 0x20 PUSH1 0x4 DUP3 ADD MSTORE PUSH1 0x1E PUSH1 0x24 DUP3 ADD MSTORE PUSH32 0x4661696C656420746F207472616E73666572207465616D20746F6B656E730000 PUSH1 0x44 DUP3 ADD MSTORE PUSH1 0x64 ADD PUSH2 0x7EF JUMP JUMPDEST PUSH1 0x40 DUP1 MLOAD CALLER DUP2 MSTORE PUSH1 0x20 DUP2 ADD DUP4 SWAP1 MSTORE PUSH32 0x1E63F692F0A30C3957AC289D6A44616BD119F5502EBA5AE440F3158CC2C2D291 SWAP2 ADD PUSH1 0x40 MLOAD DUP1 SWAP2 SUB SWAP1 LOG1 POP PUSH2 0x1210 PUSH1 0x1 PUSH1 0x0 DUP1 MLOAD PUSH1 0x20 PUSH2 0x46DF DUP4 CODECOPY DUP2 MLOAD SWAP2 MSTORE SSTORE JUMP JUMPDEST PUSH2 0x21FF PUSH2 0x3ABE JUMP JUMPDEST PUSH1 0x1 PUSH1 0x1 PUSH1 0xA0 SHL SUB DUP2 AND PUSH2 0x226B JUMPI PUSH1 0x40 MLOAD PUSH3 0x461BCD PUSH1 0xE5 SHL DUP2 MSTORE PUSH1 0x20 PUSH1 0x4 DUP3 ADD MSTORE PUSH1 0x2D PUSH1 0x24 DUP3 ADD MSTORE PUSH32 0x4879617820746F6B656E20616464726573732063616E6E6F7420626520746865 PUSH1 0x44 DUP3 ADD MSTORE PUSH13 0x207A65726F2061646472657373 PUSH1 0x98 SHL PUSH1 0x64 DUP3 ADD MSTORE PUSH1 0x84 ADD PUSH2 0x7EF JUMP JUMPDEST PUSH1 0x40 MLOAD PUSH4 0x90B282B PUSH1 0xE3 SHL PUSH1 0x20 DUP3 ADD MSTORE DUP2 SWAP1 PUSH1 0x24 ADD PUSH1 0x40 MLOAD PUSH1 0x20 DUP2 DUP4 SUB SUB DUP2 MSTORE SWAP1 PUSH1 0x40 MSTORE DUP1 MLOAD SWAP1 PUSH1 0x20 ADD KECCAK256 DUP2 PUSH1 0x1 PUSH1 0x1 PUSH1 0xA0 SHL SUB AND PUSH4 0x95D89B41 PUSH1 0x40 MLOAD DUP2 PUSH4 0xFFFFFFFF AND PUSH1 0xE0 SHL DUP2 MSTORE PUSH1 0x4 ADD PUSH1 0x0 PUSH1 0x40 MLOAD DUP1 DUP4 SUB DUP2 DUP7 GAS STATICCALL ISZERO DUP1 ISZERO PUSH2 0x22D4 JUMPI RETURNDATASIZE PUSH1 0x0 DUP1 RETURNDATACOPY RETURNDATASIZE PUSH1 0x0 REVERT JUMPDEST POP POP POP POP PUSH1 0x40 MLOAD RETURNDATASIZE PUSH1 0x0 DUP3 RETURNDATACOPY PUSH1 0x1F RETURNDATASIZE SWAP1 DUP2 ADD PUSH1 0x1F NOT AND DUP3 ADD PUSH1 0x40 MSTORE PUSH2 0x22FC SWAP2 SWAP1 DUP2 ADD SWAP1 PUSH2 0x42F9 JUMP JUMPDEST PUSH1 0x40 MLOAD PUSH1 0x20 ADD PUSH2 0x230C SWAP2 SWAP1 PUSH2 0x4391 JUMP JUMPDEST PUSH1 0x40 MLOAD PUSH1 0x20 DUP2 DUP4 SUB SUB DUP2 MSTORE SWAP1 PUSH1 0x40 MSTORE DUP1 MLOAD SWAP1 PUSH1 0x20 ADD KECCAK256 EQ PUSH2 0x2388 JUMPI PUSH1 0x40 MLOAD PUSH3 0x461BCD PUSH1 0xE5 SHL DUP2 MSTORE PUSH1 0x20 PUSH1 0x4 DUP3 ADD MSTORE PUSH1 0x30 PUSH1 0x24 DUP3 ADD MSTORE PUSH32 0x546F6B656E2061646472657373206D75737420626520612076616C6964204859 PUSH1 0x44 DUP3 ADD MSTORE PUSH16 0x415820746F6B656E2061646472657373 PUSH1 0x80 SHL PUSH1 0x64 DUP3 ADD MSTORE PUSH1 0x84 ADD PUSH2 0x7EF JUMP JUMPDEST PUSH1 0x0 DUP1 SLOAD PUSH1 0x1 PUSH1 0x1 PUSH1 0xA0 SHL SUB DUP5 AND PUSH1 0x1 PUSH1 0x1 PUSH1 0xA0 SHL SUB NOT SWAP2 DUP3 AND DUP2 OR SWAP1 SWAP3 SSTORE PUSH1 0x1 DUP1 SLOAD SWAP1 SWAP2 AND DUP3 OR SWAP1 SSTORE PUSH1 0x40 MLOAD SWAP1 DUP2 MSTORE PUSH32 0x6B4289497C1EE1251F23FFEC949802440DAC6FC64D4BD0B4EFB97A5530058295 SWAP1 PUSH1 0x20 ADD JUMPDEST PUSH1 0x40 MLOAD DUP1 SWAP2 SUB SWAP1 LOG1 POP POP JUMP JUMPDEST PUSH2 0x23F2 PUSH2 0x1C7F JUMP JUMPDEST PUSH1 0x1 PUSH1 0x1 PUSH1 0xA0 SHL SUB AND CALLER PUSH1 0x1 PUSH1 0x1 PUSH1 0xA0 SHL SUB AND EQ DUP1 PUSH2 0x2420 JUMPI POP PUSH1 0x12 SLOAD PUSH2 0x100 SWAP1 DIV PUSH1 0x1 PUSH1 0x1 PUSH1 0xA0 SHL SUB AND CALLER EQ JUMPDEST PUSH2 0x243C JUMPI PUSH1 0x40 MLOAD PUSH3 0x461BCD PUSH1 0xE5 SHL DUP2 MSTORE PUSH1 0x4 ADD PUSH2 0x7EF SWAP1 PUSH2 0x41B9 JUMP JUMPDEST PUSH1 0x40 DUP1 MLOAD CALLER DUP2 MSTORE ORIGIN PUSH1 0x20 DUP3 ADD MSTORE PUSH1 0x0 DUP1 MLOAD PUSH1 0x20 PUSH2 0x46FF DUP4 CODECOPY DUP2 MLOAD SWAP2 MSTORE SWAP2 ADD PUSH1 0x40 MLOAD DUP1 SWAP2 SUB SWAP1 LOG1 PUSH1 0x1 PUSH1 0x1 PUSH1 0xA0 SHL SUB DUP3 AND PUSH1 0x0 SWAP1 DUP2 MSTORE PUSH1 0x14 PUSH1 0x20 MSTORE PUSH1 0x40 SWAP1 KECCAK256 PUSH1 0x9 ADD SLOAD DUP2 ISZERO ISZERO PUSH3 0x10000 SWAP1 SWAP2 DIV PUSH1 0xFF AND ISZERO ISZERO SUB PUSH2 0x24AA JUMPI PUSH1 0x40 MLOAD PUSH3 0x461BCD PUSH1 0xE5 SHL DUP2 MSTORE PUSH1 0x4 ADD PUSH2 0x7EF SWAP1 PUSH2 0x43AD JUMP JUMPDEST PUSH1 0x1 PUSH1 0x1 PUSH1 0xA0 SHL SUB DUP3 AND PUSH1 0x0 DUP2 DUP2 MSTORE PUSH1 0x14 PUSH1 0x20 SWAP1 DUP2 MSTORE PUSH1 0x40 SWAP2 DUP3 SWAP1 KECCAK256 PUSH1 0x9 ADD DUP1 SLOAD PUSH3 0xFF0000 NOT AND PUSH3 0x10000 DUP7 ISZERO ISZERO SWAP1 DUP2 MUL SWAP2 SWAP1 SWAP2 OR SWAP1 SWAP2 SSTORE DUP3 MLOAD CALLER DUP2 MSTORE SWAP2 DUP3 ADD SWAP4 SWAP1 SWAP4 MSTORE SWAP1 DUP2 ADD SWAP2 SWAP1 SWAP2 MSTORE PUSH32 0x89A9C56967D4535D54C90BFFD7CBD09F6D2A4C8E26B9E7F033F199D144E12B4E SWAP1 PUSH1 0x60 ADD PUSH2 0x23DE JUMP JUMPDEST PUSH2 0x2527 PUSH2 0x1C7F JUMP JUMPDEST PUSH1 0x1 PUSH1 0x1 PUSH1 0xA0 SHL SUB AND CALLER PUSH1 0x1 PUSH1 0x1 PUSH1 0xA0 SHL SUB AND EQ DUP1 PUSH2 0x2555 JUMPI POP PUSH1 0x12 SLOAD PUSH2 0x100 SWAP1 DIV PUSH1 0x1 PUSH1 0x1 PUSH1 0xA0 SHL SUB AND CALLER EQ JUMPDEST PUSH2 0x2571 JUMPI PUSH1 0x40 MLOAD PUSH3 0x461BCD PUSH1 0xE5 SHL DUP2 MSTORE PUSH1 0x4 ADD PUSH2 0x7EF SWAP1 PUSH2 0x41B9 JUMP JUMPDEST PUSH1 0x40 DUP1 MLOAD CALLER DUP2 MSTORE ORIGIN PUSH1 0x20 DUP3 ADD MSTORE PUSH1 0x0 DUP1 MLOAD PUSH1 0x20 PUSH2 0x46FF DUP4 CODECOPY DUP2 MLOAD SWAP2 MSTORE SWAP2 ADD PUSH1 0x40 MLOAD DUP1 SWAP2 SUB SWAP1 LOG1 PUSH1 0x1 PUSH1 0x1 PUSH1 0xA0 SHL SUB DUP3 AND PUSH1 0x0 SWAP1 DUP2 MSTORE PUSH1 0x14 PUSH1 0x20 MSTORE PUSH1 0x40 SWAP1 KECCAK256 PUSH1 0x9 ADD SLOAD DUP2 ISZERO ISZERO PUSH2 0x100 SWAP1 SWAP2 DIV PUSH1 0xFF AND ISZERO ISZERO SUB PUSH2 0x25DE JUMPI PUSH1 0x40 MLOAD PUSH3 0x461BCD PUSH1 0xE5 SHL DUP2 MSTORE PUSH1 0x4 ADD PUSH2 0x7EF SWAP1 PUSH2 0x43AD JUMP JUMPDEST PUSH1 0x1 PUSH1 0x1 PUSH1 0xA0 SHL SUB DUP3 AND PUSH1 0x0 SWAP1 DUP2 MSTORE PUSH1 0x14 PUSH1 0x20 MSTORE PUSH1 0x40 DUP2 KECCAK256 PUSH1 0x5 ADD SLOAD SWAP1 SUB PUSH2 0x265B JUMPI PUSH1 0x40 MLOAD PUSH3 0x461BCD PUSH1 0xE5 SHL DUP2 MSTORE PUSH1 0x20 PUSH1 0x4 DUP3 ADD MSTORE PUSH1 0x2A PUSH1 0x24 DUP3 ADD MSTORE PUSH32 0x57616C6C657420686173206E6F74206265656E20616464656420746F20746865 PUSH1 0x44 DUP3 ADD MSTORE PUSH10 0x81DDA1A5D195B1A5CDD PUSH1 0xB2 SHL PUSH1 0x64 DUP3 ADD MSTORE PUSH1 0x84 ADD PUSH2 0x7EF JUMP JUMPDEST PUSH1 0x1 PUSH1 0x1 PUSH1 0xA0 SHL SUB DUP3 AND PUSH1 0x0 DUP2 DUP2 MSTORE PUSH1 0x14 PUSH1 0x20 SWAP1 DUP2 MSTORE PUSH1 0x40 SWAP2 DUP3 SWAP1 KECCAK256 PUSH1 0x9 ADD DUP1 SLOAD PUSH2 0xFF00 NOT AND PUSH2 0x100 DUP7 ISZERO ISZERO SWAP1 DUP2 MUL SWAP2 SWAP1 SWAP2 OR SWAP1 SWAP2 SSTORE DUP3 MLOAD CALLER DUP2 MSTORE SWAP2 DUP3 ADD SWAP4 SWAP1 SWAP4 MSTORE SWAP1 DUP2 ADD SWAP2 SWAP1 SWAP2 MSTORE PUSH32 0x70BBEE4E66E3FD40F7DA099410CFD723ED4A0B4FEC11F6CC968E850DB827A88B SWAP1 PUSH1 0x60 ADD PUSH2 0x23DE JUMP JUMPDEST PUSH32 0xF0C57E16840DF040F15088DC2F81FE391C3923BEC73E23A9662EFC9C229C6A00 DUP1 SLOAD PUSH1 0x1 PUSH1 0x40 SHL DUP2 DIV PUSH1 0xFF AND ISZERO SWAP1 PUSH8 0xFFFFFFFFFFFFFFFF AND PUSH1 0x0 DUP2 ISZERO DUP1 ISZERO PUSH2 0x2714 JUMPI POP DUP3 JUMPDEST SWAP1 POP PUSH1 0x0 DUP3 PUSH8 0xFFFFFFFFFFFFFFFF AND PUSH1 0x1 EQ DUP1 ISZERO PUSH2 0x2731 JUMPI POP ADDRESS EXTCODESIZE ISZERO JUMPDEST SWAP1 POP DUP2 ISZERO DUP1 ISZERO PUSH2 0x273F JUMPI POP DUP1 ISZERO JUMPDEST ISZERO PUSH2 0x275D JUMPI PUSH1 0x40 MLOAD PUSH4 0xF92EE8A9 PUSH1 0xE0 SHL DUP2 MSTORE PUSH1 0x4 ADD PUSH1 0x40 MLOAD DUP1 SWAP2 SUB SWAP1 REVERT JUMPDEST DUP5 SLOAD PUSH8 0xFFFFFFFFFFFFFFFF NOT AND PUSH1 0x1 OR DUP6 SSTORE DUP4 ISZERO PUSH2 0x2787 JUMPI DUP5 SLOAD PUSH1 0xFF PUSH1 0x40 SHL NOT AND PUSH1 0x1 PUSH1 0x40 SHL OR DUP6 SSTORE JUMPDEST PUSH2 0x2790 CALLER PUSH2 0x3C50 JUMP JUMPDEST PUSH2 0x2798 PUSH2 0x3C61 JUMP JUMPDEST PUSH2 0x27A0 PUSH2 0x3C71 JUMP JUMPDEST PUSH1 0x0 DUP1 SLOAD PUSH1 0x1 PUSH1 0x1 PUSH1 0xA0 SHL SUB NOT SWAP1 DUP2 AND PUSH1 0x1 PUSH1 0x1 PUSH1 0xA0 SHL SUB DUP10 AND SWAP1 DUP2 OR DUP4 SSTORE PUSH1 0x1 DUP1 SLOAD SWAP1 SWAP3 AND DUP2 OR SWAP1 SWAP2 SSTORE PUSH1 0x13 DUP1 SLOAD PUSH1 0xFF PUSH1 0xA0 SHL NOT AND PUSH1 0x19 PUSH1 0xA2 SHL OR SWAP1 SSTORE PUSH1 0x40 DUP1 MLOAD PUSH4 0x90B282B PUSH1 0xE3 SHL PUSH1 0x20 DUP1 DUP4 ADD SWAP2 SWAP1 SWAP2 MSTORE DUP3 MLOAD DUP1 DUP4 SUB PUSH1 0x4 ADD DUP2 MSTORE PUSH1 0x24 DUP4 ADD DUP1 DUP6 MSTORE DUP2 MLOAD SWAP2 SWAP1 SWAP3 ADD KECCAK256 PUSH4 0x95D89B41 PUSH1 0xE0 SHL SWAP1 SWAP2 MSTORE SWAP2 MLOAD SWAP2 SWAP4 PUSH4 0x95D89B41 SWAP3 PUSH1 0x28 DUP1 DUP5 ADD SWAP4 DUP3 SWAP1 SUB ADD DUP2 DUP7 GAS STATICCALL ISZERO DUP1 ISZERO PUSH2 0x283F JUMPI RETURNDATASIZE PUSH1 0x0 DUP1 RETURNDATACOPY RETURNDATASIZE PUSH1 0x0 REVERT JUMPDEST POP POP POP POP PUSH1 0x40 MLOAD RETURNDATASIZE PUSH1 0x0 DUP3 RETURNDATACOPY PUSH1 0x1F RETURNDATASIZE SWAP1 DUP2 ADD PUSH1 0x1F NOT AND DUP3 ADD PUSH1 0x40 MSTORE PUSH2 0x2867 SWAP2 SWAP1 DUP2 ADD SWAP1 PUSH2 0x42F9 JUMP JUMPDEST PUSH1 0x40 MLOAD PUSH1 0x20 ADD PUSH2 0x2877 SWAP2 SWAP1 PUSH2 0x4391 JUMP JUMPDEST PUSH1 0x40 MLOAD PUSH1 0x20 DUP2 DUP4 SUB SUB DUP2 MSTORE SWAP1 PUSH1 0x40 MSTORE DUP1 MLOAD SWAP1 PUSH1 0x20 ADD KECCAK256 EQ PUSH2 0x28DA JUMPI PUSH1 0x40 MLOAD PUSH3 0x461BCD PUSH1 0xE5 SHL DUP2 MSTORE PUSH1 0x20 PUSH1 0x4 DUP3 ADD MSTORE PUSH1 0x1F PUSH1 0x24 DUP3 ADD MSTORE PUSH32 0x4879617820746F6B656E2061646472657373206973206E6F742076616C696400 PUSH1 0x44 DUP3 ADD MSTORE PUSH1 0x64 ADD PUSH2 0x7EF JUMP JUMPDEST PUSH1 0x0 PUSH1 0x2 DUP2 SWAP1 SSTORE PUSH1 0x8 DUP2 SWAP1 SSTORE PUSH1 0xD SSTORE DUP4 ISZERO PUSH2 0x292F JUMPI DUP5 SLOAD PUSH1 0xFF PUSH1 0x40 SHL NOT AND DUP6 SSTORE PUSH1 0x40 MLOAD PUSH1 0x1 DUP2 MSTORE PUSH32 0xC7F505B2F371AE2175EE4913F4499E1F2633A7B5936321EED1CDAEB6115181D2 SWAP1 PUSH1 0x20 ADD PUSH1 0x40 MLOAD DUP1 SWAP2 SUB SWAP1 LOG1 JUMPDEST POP POP POP POP POP POP JUMP JUMPDEST PUSH2 0x293F PUSH2 0x3ABE JUMP JUMPDEST PUSH2 0x2947 PUSH2 0x3AF0 JUMP JUMPDEST PUSH2 0x294F PUSH2 0x1583 JUMP JUMPDEST ISZERO PUSH2 0x296C JUMPI PUSH1 0x40 MLOAD PUSH3 0x461BCD PUSH1 0xE5 SHL DUP2 MSTORE PUSH1 0x4 ADD PUSH2 0x7EF SWAP1 PUSH2 0x3FC3 JUMP JUMPDEST PUSH1 0x0 DUP3 PUSH1 0x2 DUP2 GT ISZERO PUSH2 0x2980 JUMPI PUSH2 0x2980 PUSH2 0x43FB JUMP JUMPDEST EQ DUP1 PUSH2 0x299D JUMPI POP PUSH1 0x1 DUP3 PUSH1 0x2 DUP2 GT ISZERO PUSH2 0x299B JUMPI PUSH2 0x299B PUSH2 0x43FB JUMP JUMPDEST EQ JUMPDEST DUP1 PUSH2 0x29B9 JUMPI POP PUSH1 0x2 DUP3 PUSH1 0x2 DUP2 GT ISZERO PUSH2 0x29B7 JUMPI PUSH2 0x29B7 PUSH2 0x43FB JUMP JUMPDEST EQ JUMPDEST PUSH2 0x29FC JUMPI PUSH1 0x40 MLOAD PUSH3 0x461BCD PUSH1 0xE5 SHL DUP2 MSTORE PUSH1 0x20 PUSH1 0x4 DUP3 ADD MSTORE PUSH1 0x14 PUSH1 0x24 DUP3 ADD MSTORE PUSH20 0x496E76616C69642066756E64696E672074797065 PUSH1 0x60 SHL PUSH1 0x44 DUP3 ADD MSTORE PUSH1 0x64 ADD PUSH2 0x7EF JUMP JUMPDEST PUSH1 0x0 DUP2 GT PUSH2 0x2A4C JUMPI PUSH1 0x40 MLOAD PUSH3 0x461BCD PUSH1 0xE5 SHL DUP2 MSTORE PUSH1 0x20 PUSH1 0x4 DUP3 ADD MSTORE PUSH1 0x1D PUSH1 0x24 DUP3 ADD MSTORE PUSH32 0x416D6F756E74206D7573742062652067726561746572207468616E2030000000 PUSH1 0x44 DUP3 ADD MSTORE PUSH1 0x64 ADD PUSH2 0x7EF JUMP JUMPDEST PUSH1 0x1 SLOAD PUSH1 0x40 MLOAD PUSH4 0x23B872DD PUSH1 0xE0 SHL DUP2 MSTORE CALLER PUSH1 0x4 DUP3 ADD MSTORE ADDRESS PUSH1 0x24 DUP3 ADD MSTORE PUSH1 0x44 DUP2 ADD DUP4 SWAP1 MSTORE PUSH1 0x1 PUSH1 0x1 PUSH1 0xA0 SHL SUB SWAP1 SWAP2 AND SWAP1 PUSH4 0x23B872DD SWAP1 PUSH1 0x64 ADD PUSH1 0x20 PUSH1 0x40 MLOAD DUP1 DUP4 SUB DUP2 PUSH1 0x0 DUP8 GAS CALL ISZERO DUP1 ISZERO PUSH2 0x2AA3 JUMPI RETURNDATASIZE PUSH1 0x0 DUP1 RETURNDATACOPY RETURNDATASIZE PUSH1 0x0 REVERT JUMPDEST POP POP POP POP PUSH1 0x40 MLOAD RETURNDATASIZE PUSH1 0x1F NOT PUSH1 0x1F DUP3 ADD AND DUP3 ADD DUP1 PUSH1 0x40 MSTORE POP DUP2 ADD SWAP1 PUSH2 0x2AC7 SWAP2 SWAP1 PUSH2 0x411C JUMP JUMPDEST PUSH2 0x2B2D JUMPI PUSH1 0x40 MLOAD PUSH3 0x461BCD PUSH1 0xE5 SHL DUP2 MSTORE PUSH1 0x20 PUSH1 0x4 DUP3 ADD MSTORE PUSH1 0x31 PUSH1 0x24 DUP3 ADD MSTORE PUSH32 0x54686572652077617320616E206572726F72206F6E20726563656976696E6720 PUSH1 0x44 DUP3 ADD MSTORE PUSH17 0x74686520746F6B656E2066756E64696E67 PUSH1 0x78 SHL PUSH1 0x64 DUP3 ADD MSTORE PUSH1 0x84 ADD PUSH2 0x7EF JUMP JUMPDEST PUSH1 0x0 DUP3 PUSH1 0x2 DUP2 GT ISZERO PUSH2 0x2B41 JUMPI PUSH2 0x2B41 PUSH2 0x43FB JUMP JUMPDEST SUB PUSH2 0x2C37 JUMPI PUSH12 0x7C13BC4B2C133C560000000 DUP2 PUSH1 0x2 SLOAD PUSH2 0x2B61 SWAP2 SWAP1 PUSH2 0x40F0 JUMP JUMPDEST GT ISZERO PUSH2 0x2BE1 JUMPI PUSH1 0x40 MLOAD PUSH3 0x461BCD PUSH1 0xE5 SHL DUP2 MSTORE PUSH1 0x20 PUSH1 0x4 DUP3 ADD MSTORE PUSH1 0x43 PUSH1 0x24 DUP3 ADD MSTORE PUSH32 0x416D6F756E7420746F2066756E642069732067726561746572207468616E2074 PUSH1 0x44 DUP3 ADD MSTORE PUSH32 0x686520746F74616C20696E74656E74656420666F722067726F77746820746F6B PUSH1 0x64 DUP3 ADD MSTORE PUSH3 0x656E73 PUSH1 0xE8 SHL PUSH1 0x84 DUP3 ADD MSTORE PUSH1 0xA4 ADD PUSH2 0x7EF JUMP JUMPDEST DUP1 PUSH1 0x2 PUSH1 0x0 DUP3 DUP3 SLOAD PUSH2 0x2BF3 SWAP2 SWAP1 PUSH2 0x40F0 JUMP JUMPDEST SWAP3 POP POP DUP2 SWAP1 SSTORE POP DUP1 PUSH1 0x4 PUSH1 0x0 DUP3 DUP3 SLOAD PUSH2 0x2C0C SWAP2 SWAP1 PUSH2 0x40F0 JUMP JUMPDEST SWAP1 SWAP2 SSTORE POP POP PUSH1 0x7 SLOAD PUSH1 0xFF AND PUSH2 0x2C32 JUMPI PUSH1 0x7 DUP1 SLOAD PUSH1 0xFF NOT AND PUSH1 0x1 OR SWAP1 SSTORE TIMESTAMP PUSH1 0x6 DUP2 SWAP1 SSTORE PUSH1 0x5 SSTORE JUMPDEST PUSH2 0x2E39 JUMP JUMPDEST PUSH1 0x1 DUP3 PUSH1 0x2 DUP2 GT ISZERO PUSH2 0x2C4B JUMPI PUSH2 0x2C4B PUSH2 0x43FB JUMP JUMPDEST SUB PUSH2 0x2D39 JUMPI PUSH12 0x4D8C55AEFB8C05B5C000000 DUP2 PUSH1 0x8 SLOAD PUSH2 0x2C6B SWAP2 SWAP1 PUSH2 0x40F0 JUMP JUMPDEST GT ISZERO PUSH2 0x2CE9 JUMPI PUSH1 0x40 MLOAD PUSH3 0x461BCD PUSH1 0xE5 SHL DUP2 MSTORE PUSH1 0x20 PUSH1 0x4 DUP3 ADD MSTORE PUSH1 0x41 PUSH1 0x24 DUP3 ADD MSTORE PUSH32 0x416D6F756E7420746F2066756E642069732067726561746572207468616E2074 PUSH1 0x44 DUP3 ADD MSTORE PUSH32 0x686520746F74616C20696E74656E74656420666F72207465616D20746F6B656E PUSH1 0x64 DUP3 ADD MSTORE PUSH1 0x73 PUSH1 0xF8 SHL PUSH1 0x84 DUP3 ADD MSTORE PUSH1 0xA4 ADD PUSH2 0x7EF JUMP JUMPDEST DUP1 PUSH1 0x8 PUSH1 0x0 DUP3 DUP3 SLOAD PUSH2 0x2CFB SWAP2 SWAP1 PUSH2 0x40F0 JUMP JUMPDEST SWAP3 POP POP DUP2 SWAP1 SSTORE POP DUP1 PUSH1 0xA PUSH1 0x0 DUP3 DUP3 SLOAD PUSH2 0x2D14 SWAP2 SWAP1 PUSH2 0x40F0 JUMP JUMPDEST SWAP1 SWAP2 SSTORE POP POP PUSH1 0xC SLOAD PUSH1 0xFF AND PUSH2 0x2C32 JUMPI PUSH1 0xC DUP1 SLOAD PUSH1 0xFF NOT AND PUSH1 0x1 OR SWAP1 SSTORE TIMESTAMP PUSH1 0xB SSTORE PUSH2 0x2E39 JUMP JUMPDEST PUSH1 0x2 DUP3 PUSH1 0x2 DUP2 GT ISZERO PUSH2 0x2D4D JUMPI PUSH2 0x2D4D PUSH2 0x43FB JUMP JUMPDEST SUB PUSH2 0x2E39 JUMPI PUSH12 0x3E09DE2596099E2B0000000 DUP2 PUSH1 0xD SLOAD PUSH2 0x2D6D SWAP2 SWAP1 PUSH2 0x40F0 JUMP JUMPDEST GT ISZERO PUSH2 0x2DED JUMPI PUSH1 0x40 MLOAD PUSH3 0x461BCD PUSH1 0xE5 SHL DUP2 MSTORE PUSH1 0x20 PUSH1 0x4 DUP3 ADD MSTORE PUSH1 0x43 PUSH1 0x24 DUP3 ADD MSTORE PUSH32 0x416D6F756E7420746F2066756E642069732067726561746572207468616E2074 PUSH1 0x44 DUP3 ADD MSTORE PUSH32 0x686520746F74616C20696E74656E74656420666F722072657761726420746F6B PUSH1 0x64 DUP3 ADD MSTORE PUSH3 0x656E73 PUSH1 0xE8 SHL PUSH1 0x84 DUP3 ADD MSTORE PUSH1 0xA4 ADD PUSH2 0x7EF JUMP JUMPDEST DUP1 PUSH1 0xD PUSH1 0x0 DUP3 DUP3 SLOAD PUSH2 0x2DFF SWAP2 SWAP1 PUSH2 0x40F0 JUMP JUMPDEST SWAP3 POP POP DUP2 SWAP1 SSTORE POP DUP1 PUSH1 0x10 PUSH1 0x0 DUP3 DUP3 SLOAD PUSH2 0x2E18 SWAP2 SWAP1 PUSH2 0x40F0 JUMP JUMPDEST SWAP1 SWAP2 SSTORE POP POP PUSH1 0x12 SLOAD PUSH1 0xFF AND PUSH2 0x2E39 JUMPI PUSH1 0x12 DUP1 SLOAD PUSH1 0xFF NOT AND PUSH1 0x1 OR SWAP1 SSTORE TIMESTAMP PUSH1 0x11 SSTORE JUMPDEST PUSH32 0xBC0B9ECC68EC48681B8F5718FA26B9CE02021220455BE5F5837A944140A80EA3 DUP3 DUP3 PUSH1 0x40 MLOAD PUSH2 0x11F1 SWAP3 SWAP2 SWAP1 PUSH2 0x4411 JUMP JUMPDEST PUSH2 0x2E72 PUSH2 0x3ABE JUMP JUMPDEST PUSH2 0x2E7A PUSH2 0x3AF0 JUMP JUMPDEST PUSH2 0x2E82 PUSH2 0x1583 JUMP JUMPDEST ISZERO PUSH2 0x2E9F JUMPI PUSH1 0x40 MLOAD PUSH3 0x461BCD PUSH1 0xE5 SHL DUP2 MSTORE PUSH1 0x4 ADD PUSH2 0x7EF SWAP1 PUSH2 0x3FC3 JUMP JUMPDEST PUSH1 0x0 DUP3 PUSH1 0x2 DUP2 GT ISZERO PUSH2 0x2EB3 JUMPI PUSH2 0x2EB3 PUSH2 0x43FB JUMP JUMPDEST EQ DUP1 PUSH2 0x2ED0 JUMPI POP PUSH1 0x1 DUP3 PUSH1 0x2 DUP2 GT ISZERO PUSH2 0x2ECE JUMPI PUSH2 0x2ECE PUSH2 0x43FB JUMP JUMPDEST EQ JUMPDEST DUP1 PUSH2 0x2EEC JUMPI POP PUSH1 0x2 DUP3 PUSH1 0x2 DUP2 GT ISZERO PUSH2 0x2EEA JUMPI PUSH2 0x2EEA PUSH2 0x43FB JUMP JUMPDEST EQ JUMPDEST PUSH2 0x2F2F JUMPI PUSH1 0x40 MLOAD PUSH3 0x461BCD PUSH1 0xE5 SHL DUP2 MSTORE PUSH1 0x20 PUSH1 0x4 DUP3 ADD MSTORE PUSH1 0x14 PUSH1 0x24 DUP3 ADD MSTORE PUSH20 0x496E76616C69642066756E64696E672074797065 PUSH1 0x60 SHL PUSH1 0x44 DUP3 ADD MSTORE PUSH1 0x64 ADD PUSH2 0x7EF JUMP JUMPDEST PUSH1 0x0 DUP2 GT PUSH2 0x2F7F JUMPI PUSH1 0x40 MLOAD PUSH3 0x461BCD PUSH1 0xE5 SHL DUP2 MSTORE PUSH1 0x20 PUSH1 0x4 DUP3 ADD MSTORE PUSH1 0x1D PUSH1 0x24 DUP3 ADD MSTORE PUSH32 0x416D6F756E74206D7573742062652067726561746572207468616E2030000000 PUSH1 0x44 DUP3 ADD MSTORE PUSH1 0x64 ADD PUSH2 0x7EF JUMP JUMPDEST PUSH1 0x0 DUP3 PUSH1 0x2 DUP2 GT ISZERO PUSH2 0x2F93 JUMPI PUSH2 0x2F93 PUSH2 0x43FB JUMP JUMPDEST SUB PUSH2 0x3048 JUMPI PUSH1 0x7 SLOAD PUSH1 0xFF AND PUSH2 0x2FBA JUMPI PUSH1 0x40 MLOAD PUSH3 0x461BCD PUSH1 0xE5 SHL DUP2 MSTORE PUSH1 0x4 ADD PUSH2 0x7EF SWAP1 PUSH2 0x415B JUMP JUMPDEST PUSH1 0x4 SLOAD DUP2 GT ISZERO PUSH2 0x302B JUMPI PUSH1 0x40 MLOAD PUSH3 0x461BCD PUSH1 0xE5 SHL DUP2 MSTORE PUSH1 0x20 PUSH1 0x4 DUP3 ADD MSTORE PUSH1 0x36 PUSH1 0x24 DUP3 ADD MSTORE PUSH32 0x496E73756666696369656E742067726F77746820746F6B656E7320696E207468 PUSH1 0x44 DUP3 ADD MSTORE PUSH22 0x6520636F6E747261637420746F207769746864726177 PUSH1 0x50 SHL PUSH1 0x64 DUP3 ADD MSTORE PUSH1 0x84 ADD PUSH2 0x7EF JUMP JUMPDEST DUP1 PUSH1 0x4 PUSH1 0x0 DUP3 DUP3 SLOAD PUSH2 0x303D SWAP2 SWAP1 PUSH2 0x4109 JUMP JUMPDEST SWAP1 SWAP2 SSTORE POP PUSH2 0x3179 SWAP1 POP JUMP JUMPDEST PUSH1 0x1 DUP3 PUSH1 0x2 DUP2 GT ISZERO PUSH2 0x305C JUMPI PUSH2 0x305C PUSH2 0x43FB JUMP JUMPDEST SUB PUSH2 0x3104 JUMPI PUSH1 0xC SLOAD PUSH1 0xFF AND PUSH2 0x3083 JUMPI PUSH1 0x40 MLOAD PUSH3 0x461BCD PUSH1 0xE5 SHL DUP2 MSTORE PUSH1 0x4 ADD PUSH2 0x7EF SWAP1 PUSH2 0x4216 JUMP JUMPDEST PUSH1 0xA SLOAD DUP2 GT ISZERO PUSH2 0x30F2 JUMPI PUSH1 0x40 MLOAD PUSH3 0x461BCD PUSH1 0xE5 SHL DUP2 MSTORE PUSH1 0x20 PUSH1 0x4 DUP3 ADD MSTORE PUSH1 0x34 PUSH1 0x24 DUP3 ADD MSTORE PUSH32 0x496E73756666696369656E74207465616D20746F6B656E7320696E2074686520 PUSH1 0x44 DUP3 ADD MSTORE PUSH20 0x636F6E747261637420746F207769746864726177 PUSH1 0x60 SHL PUSH1 0x64 DUP3 ADD MSTORE PUSH1 0x84 ADD PUSH2 0x7EF JUMP JUMPDEST DUP1 PUSH1 0xA PUSH1 0x0 DUP3 DUP3 SLOAD PUSH2 0x303D SWAP2 SWAP1 PUSH2 0x4109 JUMP JUMPDEST PUSH1 0x2 DUP3 PUSH1 0x2 DUP2 GT ISZERO PUSH2 0x3118 JUMPI PUSH2 0x3118 PUSH2 0x43FB JUMP JUMPDEST SUB PUSH2 0x3179 JUMPI PUSH1 0x12 SLOAD PUSH1 0xFF AND PUSH2 0x313F JUMPI PUSH1 0x40 MLOAD PUSH3 0x461BCD PUSH1 0xE5 SHL DUP2 MSTORE PUSH1 0x4 ADD PUSH2 0x7EF SWAP1 PUSH2 0x4026 JUMP JUMPDEST PUSH1 0x10 SLOAD DUP2 GT ISZERO PUSH2 0x3161 JUMPI PUSH1 0x40 MLOAD PUSH3 0x461BCD PUSH1 0xE5 SHL DUP2 MSTORE PUSH1 0x4 ADD PUSH2 0x7EF SWAP1 PUSH2 0x4084 JUMP JUMPDEST DUP1 PUSH1 0x10 PUSH1 0x0 DUP3 DUP3 SLOAD PUSH2 0x3173 SWAP2 SWAP1 PUSH2 0x4109 JUMP JUMPDEST SWAP1 SWAP2 SSTORE POP POP JUMPDEST PUSH1 0x1 SLOAD PUSH1 0x1 PUSH1 0x1 PUSH1 0xA0 SHL SUB AND PUSH4 0xA9059CBB PUSH2 0x3192 PUSH2 0x1C7F JUMP JUMPDEST PUSH1 0x40 MLOAD PUSH1 0x1 PUSH1 0x1 PUSH1 0xE0 SHL SUB NOT PUSH1 0xE0 DUP5 SWAP1 SHL AND DUP2 MSTORE PUSH1 0x1 PUSH1 0x1 PUSH1 0xA0 SHL SUB SWAP1 SWAP2 AND PUSH1 0x4 DUP3 ADD MSTORE PUSH1 0x24 DUP2 ADD DUP5 SWAP1 MSTORE PUSH1 0x44 ADD PUSH1 0x20 PUSH1 0x40 MLOAD DUP1 DUP4 SUB DUP2 PUSH1 0x0 DUP8 GAS CALL ISZERO DUP1 ISZERO PUSH2 0x31DF JUMPI RETURNDATASIZE PUSH1 0x0 DUP1 RETURNDATACOPY RETURNDATASIZE PUSH1 0x0 REVERT JUMPDEST POP POP POP POP PUSH1 0x40 MLOAD RETURNDATASIZE PUSH1 0x1F NOT PUSH1 0x1F DUP3 ADD AND DUP3 ADD DUP1 PUSH1 0x40 MSTORE POP DUP2 ADD SWAP1 PUSH2 0x3203 SWAP2 SWAP1 PUSH2 0x411C JUMP JUMPDEST PUSH2 0x324F JUMPI PUSH1 0x40 MLOAD PUSH3 0x461BCD PUSH1 0xE5 SHL DUP2 MSTORE PUSH1 0x20 PUSH1 0x4 DUP3 ADD DUP2 SWAP1 MSTORE PUSH1 0x24 DUP3 ADD MSTORE PUSH32 0x4661696C656420746F207472616E736665722067726F77746820746F6B656E73 PUSH1 0x44 DUP3 ADD MSTORE PUSH1 0x64 ADD PUSH2 0x7EF JUMP JUMPDEST PUSH32 0xB9DB6F85CD4E97884845CFB10D7FBBA4D9CD4B9516CF2795B4C50CD886875BAB DUP3 DUP3 PUSH1 0x40 MLOAD PUSH2 0x11F1 SWAP3 SWAP2 SWAP1 PUSH2 0x4411 JUMP JUMPDEST PUSH2 0x3288 PUSH2 0x1C7F JUMP JUMPDEST PUSH1 0x1 PUSH1 0x1 PUSH1 0xA0 SHL SUB AND CALLER PUSH1 0x1 PUSH1 0x1 PUSH1 0xA0 SHL SUB AND EQ DUP1 PUSH2 0x32B1 JUMPI POP PUSH1 0x13 SLOAD PUSH1 0x1 PUSH1 0x1 PUSH1 0xA0 SHL SUB AND CALLER EQ JUMPDEST DUP1 PUSH2 0x32BB JUMPI POP CALLER ADDRESS EQ JUMPDEST PUSH2 0x32D7 JUMPI PUSH1 0x40 MLOAD PUSH3 0x461BCD PUSH1 0xE5 SHL DUP2 MSTORE PUSH1 0x4 ADD PUSH2 0x7EF SWAP1 PUSH2 0x443D JUMP JUMPDEST PUSH1 0x40 DUP1 MLOAD CALLER DUP2 MSTORE ORIGIN PUSH1 0x20 DUP3 ADD MSTORE PUSH1 0x0 DUP1 MLOAD PUSH1 0x20 PUSH2 0x46FF DUP4 CODECOPY DUP2 MLOAD SWAP2 MSTORE SWAP2 ADD PUSH1 0x40 MLOAD DUP1 SWAP2 SUB SWAP1 LOG1 PUSH2 0x3305 PUSH2 0x3AF0 JUMP JUMPDEST PUSH1 0x12 SLOAD PUSH1 0xFF AND PUSH2 0x3327 JUMPI PUSH1 0x40 MLOAD PUSH3 0x461BCD PUSH1 0xE5 SHL DUP2 MSTORE PUSH1 0x4 ADD PUSH2 0x7EF SWAP1 PUSH2 0x44B4 JUMP JUMPDEST DUP3 PUSH2 0x336D JUMPI PUSH1 0x40 MLOAD PUSH3 0x461BCD PUSH1 0xE5 SHL DUP2 MSTORE PUSH1 0x20 PUSH1 0x4 DUP3 ADD MSTORE PUSH1 0x16 PUSH1 0x24 DUP3 ADD MSTORE PUSH22 0x42617463682073697A652063616E6E6F74206265203 PUSH1 0x54 SHL PUSH1 0x44 DUP3 ADD MSTORE PUSH1 0x64 ADD PUSH2 0x7EF JUMP JUMPDEST PUSH1 0x13 SLOAD PUSH1 0x1 PUSH1 0xA0 SHL SWAP1 DIV PUSH1 0xFF AND DUP4 GT ISZERO PUSH2 0x33D5 JUMPI PUSH1 0x40 MLOAD PUSH3 0x461BCD PUSH1 0xE5 SHL DUP2 MSTORE PUSH1 0x20 PUSH1 0x4 DUP3 ADD MSTORE PUSH1 0x24 DUP1 DUP3 ADD MSTORE PUSH32 0x42617463682073697A6520657863656564732074686520646566696E6564206C PUSH1 0x44 DUP3 ADD MSTORE PUSH4 0x1A5B5A5D PUSH1 0xE2 SHL PUSH1 0x64 DUP3 ADD MSTORE PUSH1 0x84 ADD PUSH2 0x7EF JUMP JUMPDEST DUP3 DUP2 EQ PUSH2 0x3424 JUMPI PUSH1 0x40 MLOAD PUSH3 0x461BCD PUSH1 0xE5 SHL DUP2 MSTORE PUSH1 0x20 PUSH1 0x4 DUP3 ADD MSTORE PUSH1 0x18 PUSH1 0x24 DUP3 ADD MSTORE PUSH32 0x4172726179206C656E67746873206D757374206D617463680000000000000000 PUSH1 0x44 DUP3 ADD MSTORE PUSH1 0x64 ADD PUSH2 0x7EF JUMP JUMPDEST PUSH1 0x0 JUMPDEST DUP4 DUP2 LT ISZERO PUSH2 0x357E JUMPI ADDRESS PUSH4 0xFAFD7C20 DUP7 DUP7 DUP5 DUP2 DUP2 LT PUSH2 0x3447 JUMPI PUSH2 0x3447 PUSH2 0x4511 JUMP JUMPDEST SWAP1 POP PUSH1 0x20 MUL ADD PUSH1 0x20 DUP2 ADD SWAP1 PUSH2 0x345C SWAP2 SWAP1 PUSH2 0x3DE9 JUMP JUMPDEST DUP6 DUP6 DUP6 DUP2 DUP2 LT PUSH2 0x346E JUMPI PUSH2 0x346E PUSH2 0x4511 JUMP JUMPDEST PUSH1 0x40 MLOAD PUSH1 0x1 PUSH1 0x1 PUSH1 0xE0 SHL SUB NOT PUSH1 0xE0 DUP8 SWAP1 SHL AND DUP2 MSTORE PUSH1 0x1 PUSH1 0x1 PUSH1 0xA0 SHL SUB SWAP1 SWAP5 AND PUSH1 0x4 DUP6 ADD MSTORE PUSH1 0x20 MUL SWAP2 SWAP1 SWAP2 ADD CALLDATALOAD PUSH1 0x24 DUP4 ADD MSTORE POP PUSH1 0x44 ADD PUSH1 0x0 PUSH1 0x40 MLOAD DUP1 DUP4 SUB DUP2 PUSH1 0x0 DUP8 DUP1 EXTCODESIZE ISZERO DUP1 ISZERO PUSH2 0x34BD JUMPI PUSH1 0x0 DUP1 REVERT JUMPDEST POP GAS CALL SWAP3 POP POP POP DUP1 ISZERO PUSH2 0x34CE JUMPI POP PUSH1 0x1 JUMPDEST PUSH2 0x356C JUMPI PUSH2 0x34DA PUSH2 0x4527 JUMP JUMPDEST DUP1 PUSH4 0x8C379A0 SUB PUSH2 0x3560 JUMPI POP PUSH2 0x34EE PUSH2 0x4543 JUMP JUMPDEST DUP1 PUSH2 0x34F9 JUMPI POP PUSH2 0x3562 JUMP JUMPDEST PUSH32 0x80C7A907FB61FF886445C2FEB367D7B196637D154438EC7337EB57021EF5F5A1 CALLER DUP8 DUP8 DUP6 DUP2 DUP2 LT PUSH2 0x352D JUMPI PUSH2 0x352D PUSH2 0x4511 JUMP JUMPDEST SWAP1 POP PUSH1 0x20 MUL ADD PUSH1 0x20 DUP2 ADD SWAP1 PUSH2 0x3542 SWAP2 SWAP1 PUSH2 0x3DE9 JUMP JUMPDEST DUP4 PUSH1 0x40 MLOAD PUSH2 0x3552 SWAP4 SWAP3 SWAP2 SWAP1 PUSH2 0x45CD JUMP JUMPDEST PUSH1 0x40 MLOAD DUP1 SWAP2 SUB SWAP1 LOG1 POP PUSH2 0x356C JUMP JUMPDEST POP JUMPDEST RETURNDATASIZE PUSH1 0x0 DUP1 RETURNDATACOPY RETURNDATASIZE PUSH1 0x0 REVERT JUMPDEST DUP1 PUSH2 0x3576 DUP2 PUSH2 0x461A JUMP JUMPDEST SWAP2 POP POP PUSH2 0x3427 JUMP JUMPDEST POP PUSH32 0x920309E6C1DF22E82236FC02A7D23E8EC36B85A821FC790C20A0E1497CE227DC CALLER DUP6 DUP6 DUP6 DUP6 PUSH1 0x40 MLOAD PUSH2 0x35B6 SWAP6 SWAP5 SWAP4 SWAP3 SWAP2 SWAP1 PUSH2 0x4633 JUMP JUMPDEST PUSH1 0x40 MLOAD DUP1 SWAP2 SUB SWAP1 LOG1 PUSH2 0x35D5 PUSH1 0x1 PUSH1 0x0 DUP1 MLOAD PUSH1 0x20 PUSH2 0x46DF DUP4 CODECOPY DUP2 MLOAD SWAP2 MSTORE SSTORE JUMP JUMPDEST POP POP POP POP JUMP JUMPDEST PUSH2 0x35E3 PUSH2 0x3ABE JUMP JUMPDEST PUSH1 0x1 PUSH1 0x1 PUSH1 0xA0 SHL SUB DUP2 AND PUSH2 0x3648 JUMPI PUSH1 0x40 MLOAD PUSH3 0x461BCD PUSH1 0xE5 SHL DUP2 MSTORE PUSH1 0x20 PUSH1 0x4 DUP3 ADD MSTORE PUSH1 0x26 PUSH1 0x24 DUP3 ADD MSTORE PUSH32 0x4F776E61626C653A206E6577206F776E657220697320746865207A65726F2061 PUSH1 0x44 DUP3 ADD MSTORE PUSH6 0x646472657373 PUSH1 0xD0 SHL PUSH1 0x64 DUP3 ADD MSTORE PUSH1 0x84 ADD PUSH2 0x7EF JUMP JUMPDEST ADDRESS PUSH1 0x1 PUSH1 0x1 PUSH1 0xA0 SHL SUB DUP3 AND SUB PUSH2 0x36BF JUMPI PUSH1 0x40 MLOAD PUSH3 0x461BCD PUSH1 0xE5 SHL DUP2 MSTORE PUSH1 0x20 PUSH1 0x4 DUP3 ADD MSTORE PUSH1 0x36 PUSH1 0x24 DUP3 ADD MSTORE PUSH32 0x4F776E61626C653A206E6577206F776E65722063616E6E6F7420626520746865 PUSH1 0x44 DUP3 ADD MSTORE PUSH22 0x2073616D6520636F6E74726163742061646472657373 PUSH1 0x50 SHL PUSH1 0x64 DUP3 ADD MSTORE PUSH1 0x84 ADD PUSH2 0x7EF JUMP JUMPDEST PUSH2 0xC31 DUP2 PUSH2 0x3B96 JUMP JUMPDEST PUSH2 0x36D0 PUSH2 0x1C7F JUMP JUMPDEST PUSH1 0x1 PUSH1 0x1 PUSH1 0xA0 SHL SUB AND CALLER PUSH1 0x1 PUSH1 0x1 PUSH1 0xA0 SHL SUB AND EQ DUP1 PUSH2 0x36F9 JUMPI POP PUSH1 0x13 SLOAD PUSH1 0x1 PUSH1 0x1 PUSH1 0xA0 SHL SUB AND CALLER EQ JUMPDEST DUP1 PUSH2 0x3703 JUMPI POP CALLER ADDRESS EQ JUMPDEST PUSH2 0x371F JUMPI PUSH1 0x40 MLOAD PUSH3 0x461BCD PUSH1 0xE5 SHL DUP2 MSTORE PUSH1 0x4 ADD PUSH2 0x7EF SWAP1 PUSH2 0x443D JUMP JUMPDEST PUSH1 0x40 DUP1 MLOAD CALLER DUP2 MSTORE ORIGIN PUSH1 0x20 DUP3 ADD MSTORE PUSH1 0x0 DUP1 MLOAD PUSH1 0x20 PUSH2 0x46FF DUP4 CODECOPY DUP2 MLOAD SWAP2 MSTORE SWAP2 ADD PUSH1 0x40 MLOAD DUP1 SWAP2 SUB SWAP1 LOG1 PUSH1 0x12 SLOAD PUSH1 0xFF AND PUSH2 0x3767 JUMPI PUSH1 0x40 MLOAD PUSH3 0x461BCD PUSH1 0xE5 SHL DUP2 MSTORE PUSH1 0x4 ADD PUSH2 0x7EF SWAP1 PUSH2 0x44B4 JUMP JUMPDEST PUSH1 0x1 PUSH1 0x1 PUSH1 0xA0 SHL SUB DUP3 AND PUSH1 0x0 SWAP1 DUP2 MSTORE PUSH1 0x14 PUSH1 0x20 MSTORE PUSH1 0x40 SWAP1 KECCAK256 PUSH1 0x9 ADD SLOAD PUSH1 0xFF PUSH2 0x100 SWAP1 SWAP2 DIV AND ISZERO ISZERO PUSH1 0x1 EQ PUSH2 0x37AD JUMPI PUSH1 0x40 MLOAD PUSH3 0x461BCD PUSH1 0xE5 SHL DUP2 MSTORE PUSH1 0x4 ADD PUSH2 0x7EF SWAP1 PUSH2 0x3F8C JUMP JUMPDEST PUSH1 0x1 PUSH1 0x1 PUSH1 0xA0 SHL SUB DUP3 AND PUSH1 0x0 SWAP1 DUP2 MSTORE PUSH1 0x14 PUSH1 0x20 MSTORE PUSH1 0x40 SWAP1 KECCAK256 PUSH1 0x9 ADD SLOAD PUSH3 0x10000 SWAP1 DIV PUSH1 0xFF AND ISZERO PUSH2 0x37EF JUMPI PUSH1 0x40 MLOAD PUSH3 0x461BCD PUSH1 0xE5 SHL DUP2 MSTORE PUSH1 0x4 ADD PUSH2 0x7EF SWAP1 PUSH2 0x3FEF JUMP JUMPDEST PUSH1 0x1 PUSH1 0x1 PUSH1 0xA0 SHL SUB DUP3 AND PUSH1 0x0 SWAP1 DUP2 MSTORE PUSH1 0x14 PUSH1 0x20 MSTORE PUSH1 0x40 SWAP1 KECCAK256 PUSH1 0x8 ADD SLOAD PUSH2 0x3819 SWAP1 PUSH3 0x7E900 SWAP1 PUSH2 0x40F0 JUMP JUMPDEST TIMESTAMP LT ISZERO PUSH2 0x387B JUMPI PUSH1 0x40 MLOAD PUSH3 0x461BCD PUSH1 0xE5 SHL DUP2 MSTORE PUSH1 0x20 PUSH1 0x4 DUP3 ADD MSTORE PUSH1 0x2A PUSH1 0x24 DUP3 ADD MSTORE PUSH32 0x546F6F20736F6F6E20746F20757064617465207265776172647320666F722074 PUSH1 0x44 DUP3 ADD MSTORE PUSH10 0x1A1A5CC81DD85B1B195D PUSH1 0xB2 SHL PUSH1 0x64 DUP3 ADD MSTORE PUSH1 0x84 ADD PUSH2 0x7EF JUMP JUMPDEST PUSH2 0x3891 PUSH1 0x34 PUSH11 0x7C13BC4B2C133C56000000 PUSH2 0x4139 JUMP JUMPDEST DUP2 GT ISZERO PUSH2 0x3908 JUMPI PUSH1 0x40 DUP1 MLOAD PUSH3 0x461BCD PUSH1 0xE5 SHL DUP2 MSTORE PUSH1 0x20 PUSH1 0x4 DUP3 ADD MSTORE PUSH1 0x24 DUP2 ADD SWAP2 SWAP1 SWAP2 MSTORE PUSH32 0x412073696E676C652077616C6C65742063616E6E6F7420686176652072657761 PUSH1 0x44 DUP3 ADD MSTORE PUSH32 0x72647320686967686572207468616E20746865207765656B6C79206C696D6974 PUSH1 0x64 DUP3 ADD MSTORE PUSH1 0x84 ADD PUSH2 0x7EF JUMP JUMPDEST PUSH1 0x10 SLOAD DUP2 GT ISZERO PUSH2 0x3976 JUMPI PUSH1 0x40 MLOAD PUSH3 0x461BCD PUSH1 0xE5 SHL DUP2 MSTORE PUSH1 0x20 PUSH1 0x4 DUP3 ADD MSTORE PUSH1 0x33 PUSH1 0x24 DUP3 ADD MSTORE PUSH32 0x496E73756666696369656E742072657761726420746F6B656E7320746F206469 PUSH1 0x44 DUP3 ADD MSTORE PUSH19 0x73747269627574652061732072657761726473 PUSH1 0x68 SHL PUSH1 0x64 DUP3 ADD MSTORE PUSH1 0x84 ADD PUSH2 0x7EF JUMP JUMPDEST PUSH12 0x3E09DE2596099E2B0000000 DUP2 PUSH1 0xE SLOAD PUSH2 0x3991 SWAP2 SWAP1 PUSH2 0x40F0 JUMP JUMPDEST GT ISZERO PUSH2 0x39FB JUMPI PUSH1 0x40 MLOAD PUSH3 0x461BCD PUSH1 0xE5 SHL DUP2 MSTORE PUSH1 0x20 PUSH1 0x4 DUP3 ADD MSTORE PUSH1 0x33 PUSH1 0x24 DUP3 ADD MSTORE PUSH32 0x416C6C207468652072657761726420746F6B656E732068617665206265656E20 PUSH1 0x44 DUP3 ADD MSTORE PUSH19 0x185B1C9958591E48191A5CDD1C9A589D5D1959 PUSH1 0x6A SHL PUSH1 0x64 DUP3 ADD MSTORE PUSH1 0x84 ADD PUSH2 0x7EF JUMP JUMPDEST DUP1 PUSH1 0xE PUSH1 0x0 DUP3 DUP3 SLOAD PUSH2 0x3A0D SWAP2 SWAP1 PUSH2 0x40F0 JUMP JUMPDEST SWAP1 SWAP2 SSTORE POP POP PUSH1 0x1 PUSH1 0x1 PUSH1 0xA0 SHL SUB DUP3 AND PUSH1 0x0 SWAP1 DUP2 MSTORE PUSH1 0x14 PUSH1 0x20 MSTORE PUSH1 0x40 DUP2 KECCAK256 TIMESTAMP PUSH1 0x8 DUP3 ADD SSTORE PUSH1 0x2 ADD DUP1 SLOAD DUP4 SWAP3 SWAP1 PUSH2 0x3A43 SWAP1 DUP5 SWAP1 PUSH2 0x40F0 JUMP JUMPDEST SWAP1 SWAP2 SSTORE POP POP PUSH1 0x1 PUSH1 0x1 PUSH1 0xA0 SHL SUB DUP3 AND PUSH1 0x0 SWAP1 DUP2 MSTORE PUSH1 0x14 PUSH1 0x20 MSTORE PUSH1 0x40 DUP2 KECCAK256 PUSH1 0x3 ADD DUP1 SLOAD DUP4 SWAP3 SWAP1 PUSH2 0x3A73 SWAP1 DUP5 SWAP1 PUSH2 0x40F0 JUMP JUMPDEST SWAP1 SWAP2 SSTORE POP POP PUSH1 0x40 DUP1 MLOAD CALLER DUP2 MSTORE PUSH1 0x1 PUSH1 0x1 PUSH1 0xA0 SHL SUB DUP5 AND PUSH1 0x20 DUP3 ADD MSTORE SWAP1 DUP2 ADD DUP3 SWAP1 MSTORE PUSH32 0x74DD95429FE6255FB4698AA67D02AFB4EBCF261C1883A417108C7D6C0ABED4B0 SWAP1 PUSH1 0x60 ADD PUSH2 0x23DE JUMP JUMPDEST CALLER PUSH2 0x3AC7 PUSH2 0x1C7F JUMP JUMPDEST PUSH1 0x1 PUSH1 0x1 PUSH1 0xA0 SHL SUB AND EQ PUSH2 0x1224 JUMPI PUSH1 0x40 MLOAD PUSH4 0x118CDAA7 PUSH1 0xE0 SHL DUP2 MSTORE CALLER PUSH1 0x4 DUP3 ADD MSTORE PUSH1 0x24 ADD PUSH2 0x7EF JUMP JUMPDEST PUSH1 0x0 DUP1 MLOAD PUSH1 0x20 PUSH2 0x46DF DUP4 CODECOPY DUP2 MLOAD SWAP2 MSTORE DUP1 SLOAD PUSH1 0x1 NOT ADD PUSH2 0x3B22 JUMPI PUSH1 0x40 MLOAD PUSH4 0x3EE5AEB5 PUSH1 0xE0 SHL DUP2 MSTORE PUSH1 0x4 ADD PUSH1 0x40 MLOAD DUP1 SWAP2 SUB SWAP1 REVERT JUMPDEST PUSH1 0x2 SWAP1 SSTORE JUMP JUMPDEST PUSH1 0x1 PUSH1 0x0 DUP1 MLOAD PUSH1 0x20 PUSH2 0x46DF DUP4 CODECOPY DUP2 MLOAD SWAP2 MSTORE SSTORE JUMP JUMPDEST PUSH2 0x3B44 PUSH2 0x3C81 JUMP JUMPDEST PUSH1 0x0 DUP1 MLOAD PUSH1 0x20 PUSH2 0x46BF DUP4 CODECOPY DUP2 MLOAD SWAP2 MSTORE DUP1 SLOAD PUSH1 0xFF NOT AND DUP2 SSTORE PUSH32 0x5DB9EE0A495BF2E6FF9C91A7834C1BA4FDD244A5E8AA4E537BD38AEAE4B073AA CALLER JUMPDEST PUSH1 0x40 MLOAD PUSH1 0x1 PUSH1 0x1 PUSH1 0xA0 SHL SUB SWAP1 SWAP2 AND DUP2 MSTORE PUSH1 0x20 ADD PUSH2 0x8AC JUMP JUMPDEST PUSH32 0x9016D09D72D40FDAE2FD8CEAC6B6234C7706214FD39C1CD1E609A0528C199300 DUP1 SLOAD PUSH1 0x1 PUSH1 0x1 PUSH1 0xA0 SHL SUB NOT DUP2 AND PUSH1 0x1 PUSH1 0x1 PUSH1 0xA0 SHL SUB DUP5 DUP2 AND SWAP2 DUP3 OR DUP5 SSTORE PUSH1 0x40 MLOAD SWAP3 AND SWAP2 DUP3 SWAP1 PUSH32 0x8BE0079C531659141344CD1FD0A4F28419497F9722A3DAAFE3B4186F6B6457E0 SWAP1 PUSH1 0x0 SWAP1 LOG3 POP POP POP JUMP JUMPDEST PUSH2 0x3C0F PUSH2 0x3CA6 JUMP JUMPDEST PUSH1 0x0 DUP1 MLOAD PUSH1 0x20 PUSH2 0x46BF DUP4 CODECOPY DUP2 MLOAD SWAP2 MSTORE DUP1 SLOAD PUSH1 0xFF NOT AND PUSH1 0x1 OR DUP2 SSTORE PUSH32 0x62E78CEA01BEE320CD4E420270B5EA74000D11B0C9F74754EBDBFC544B05A258 CALLER PUSH2 0x3B7E JUMP JUMPDEST PUSH2 0x3C58 PUSH2 0x3CCC JUMP JUMPDEST PUSH2 0xC31 DUP2 PUSH2 0x3D15 JUMP JUMPDEST PUSH2 0x3C69 PUSH2 0x3CCC JUMP JUMPDEST PUSH2 0x1224 PUSH2 0x3D47 JUMP JUMPDEST PUSH2 0x3C79 PUSH2 0x3CCC JUMP JUMPDEST PUSH2 0x1224 PUSH2 0x3D4F JUMP JUMPDEST PUSH2 0x3C89 PUSH2 0x1583 JUMP JUMPDEST PUSH2 0x1224 JUMPI PUSH1 0x40 MLOAD PUSH4 0x8DFC202B PUSH1 0xE0 SHL DUP2 MSTORE PUSH1 0x4 ADD PUSH1 0x40 MLOAD DUP1 SWAP2 SUB SWAP1 REVERT JUMPDEST PUSH2 0x3CAE PUSH2 0x1583 JUMP JUMPDEST ISZERO PUSH2 0x1224 JUMPI PUSH1 0x40 MLOAD PUSH4 0xD93C0665 PUSH1 0xE0 SHL DUP2 MSTORE PUSH1 0x4 ADD PUSH1 0x40 MLOAD DUP1 SWAP2 SUB SWAP1 REVERT JUMPDEST PUSH32 0xF0C57E16840DF040F15088DC2F81FE391C3923BEC73E23A9662EFC9C229C6A00 SLOAD PUSH1 0x1 PUSH1 0x40 SHL SWAP1 DIV PUSH1 0xFF AND PUSH2 0x1224 JUMPI PUSH1 0x40 MLOAD PUSH4 0x1AFCD79F PUSH1 0xE3 SHL DUP2 MSTORE PUSH1 0x4 ADD PUSH1 0x40 MLOAD DUP1 SWAP2 SUB SWAP1 REVERT JUMPDEST PUSH2 0x3D1D PUSH2 0x3CCC JUMP JUMPDEST PUSH1 0x1 PUSH1 0x1 PUSH1 0xA0 SHL SUB DUP2 AND PUSH2 0x36BF JUMPI PUSH1 0x40 MLOAD PUSH4 0x1E4FBDF7 PUSH1 0xE0 SHL DUP2 MSTORE PUSH1 0x0 PUSH1 0x4 DUP3 ADD MSTORE PUSH1 0x24 ADD PUSH2 0x7EF JUMP JUMPDEST PUSH2 0x3B28 PUSH2 0x3CCC JUMP JUMPDEST PUSH2 0x3D57 PUSH2 0x3CCC JUMP JUMPDEST PUSH1 0x0 DUP1 MLOAD PUSH1 0x20 PUSH2 0x46BF DUP4 CODECOPY DUP2 MLOAD SWAP2 MSTORE DUP1 SLOAD PUSH1 0xFF NOT AND SWAP1 SSTORE JUMP JUMPDEST PUSH1 0x0 PUSH1 0x20 DUP3 DUP5 SUB SLT ISZERO PUSH2 0x3D82 JUMPI PUSH1 0x0 DUP1 REVERT JUMPDEST DUP2 CALLDATALOAD PUSH1 0xFF DUP2 AND DUP2 EQ PUSH2 0x3D93 JUMPI PUSH1 0x0 DUP1 REVERT JUMPDEST SWAP4 SWAP3 POP POP POP JUMP JUMPDEST DUP1 CALLDATALOAD PUSH1 0x1 PUSH1 0x1 PUSH1 0xA0 SHL SUB DUP2 AND DUP2 EQ PUSH2 0x3DB1 JUMPI PUSH1 0x0 DUP1 REVERT JUMPDEST SWAP2 SWAP1 POP JUMP JUMPDEST PUSH1 0x0 DUP1 PUSH1 0x40 DUP4 DUP6 SUB SLT ISZERO PUSH2 0x3DC9 JUMPI PUSH1 0x0 DUP1 REVERT JUMPDEST PUSH2 0x3DD2 DUP4 PUSH2 0x3D9A JUMP JUMPDEST SWAP2 POP PUSH2 0x3DE0 PUSH1 0x20 DUP5 ADD PUSH2 0x3D9A JUMP JUMPDEST SWAP1 POP SWAP3 POP SWAP3 SWAP1 POP JUMP JUMPDEST PUSH1 0x0 PUSH1 0x20 DUP3 DUP5 SUB SLT ISZERO PUSH2 0x3DFB JUMPI PUSH1 0x0 DUP1 REVERT JUMPDEST PUSH2 0x3D93 DUP3 PUSH2 0x3D9A JUMP JUMPDEST DUP1 ISZERO ISZERO DUP2 EQ PUSH2 0xC31 JUMPI PUSH1 0x0 DUP1 REVERT JUMPDEST PUSH1 0x0 DUP1 PUSH1 0x0 PUSH1 0x60 DUP5 DUP7 SUB SLT ISZERO PUSH2 0x3E27 JUMPI PUSH1 0x0 DUP1 REVERT JUMPDEST PUSH2 0x3E30 DUP5 PUSH2 0x3D9A JUMP JUMPDEST SWAP3 POP PUSH1 0x20 DUP5 ADD CALLDATALOAD PUSH2 0x3E40 DUP2 PUSH2 0x3E04 JUMP JUMPDEST SWAP3 SWAP6 SWAP3 SWAP5 POP POP POP PUSH1 0x40 SWAP2 SWAP1 SWAP2 ADD CALLDATALOAD SWAP1 JUMP JUMPDEST PUSH1 0x0 DUP1 PUSH1 0x40 DUP4 DUP6 SUB SLT ISZERO PUSH2 0x3E64 JUMPI PUSH1 0x0 DUP1 REVERT JUMPDEST PUSH2 0x3E6D DUP4 PUSH2 0x3D9A JUMP JUMPDEST SWAP2 POP PUSH1 0x20 DUP4 ADD CALLDATALOAD PUSH2 0x3E7D DUP2 PUSH2 0x3E04 JUMP JUMPDEST DUP1 SWAP2 POP POP SWAP3 POP SWAP3 SWAP1 POP JUMP JUMPDEST PUSH1 0x0 DUP1 PUSH1 0x40 DUP4 DUP6 SUB SLT ISZERO PUSH2 0x3E9B JUMPI PUSH1 0x0 DUP1 REVERT JUMPDEST DUP3 CALLDATALOAD PUSH1 0x3 DUP2 LT PUSH2 0x3EAA JUMPI PUSH1 0x0 DUP1 REVERT JUMPDEST SWAP5 PUSH1 0x20 SWAP4 SWAP1 SWAP4 ADD CALLDATALOAD SWAP4 POP POP POP JUMP JUMPDEST PUSH1 0x0 DUP1 DUP4 PUSH1 0x1F DUP5 ADD SLT PUSH2 0x3ECA JUMPI PUSH1 0x0 DUP1 REVERT JUMPDEST POP DUP2 CALLDATALOAD PUSH8 0xFFFFFFFFFFFFFFFF DUP2 GT ISZERO PUSH2 0x3EE2 JUMPI PUSH1 0x0 DUP1 REVERT JUMPDEST PUSH1 0x20 DUP4 ADD SWAP2 POP DUP4 PUSH1 0x20 DUP3 PUSH1 0x5 SHL DUP6 ADD ADD GT ISZERO PUSH2 0x3EFD JUMPI PUSH1 0x0 DUP1 REVERT JUMPDEST SWAP3 POP SWAP3 SWAP1 POP JUMP JUMPDEST PUSH1 0x0 DUP1 PUSH1 0x0 DUP1 PUSH1 0x40 DUP6 DUP8 SUB SLT ISZERO PUSH2 0x3F1A JUMPI PUSH1 0x0 DUP1 REVERT JUMPDEST DUP5 CALLDATALOAD PUSH8 0xFFFFFFFFFFFFFFFF DUP1 DUP3 GT ISZERO PUSH2 0x3F32 JUMPI PUSH1 0x0 DUP1 REVERT JUMPDEST PUSH2 0x3F3E DUP9 DUP4 DUP10 ADD PUSH2 0x3EB8 JUMP JUMPDEST SWAP1 SWAP7 POP SWAP5 POP PUSH1 0x20 DUP8 ADD CALLDATALOAD SWAP2 POP DUP1 DUP3 GT ISZERO PUSH2 0x3F57 JUMPI PUSH1 0x0 DUP1 REVERT JUMPDEST POP PUSH2 0x3F64 DUP8 DUP3 DUP9 ADD PUSH2 0x3EB8 JUMP JUMPDEST SWAP6 SWAP9 SWAP5 SWAP8 POP SWAP6 POP POP POP POP JUMP JUMPDEST PUSH1 0x0 DUP1 PUSH1 0x40 DUP4 DUP6 SUB SLT ISZERO PUSH2 0x3F83 JUMPI PUSH1 0x0 DUP1 REVERT JUMPDEST PUSH2 0x3EAA DUP4 PUSH2 0x3D9A JUMP JUMPDEST PUSH1 0x20 DUP1 DUP3 MSTORE PUSH1 0x19 SWAP1 DUP3 ADD MSTORE PUSH32 0x57616C6C6574206973206E6F742077686974656C697374656400000000000000 PUSH1 0x40 DUP3 ADD MSTORE PUSH1 0x60 ADD SWAP1 JUMP JUMPDEST PUSH1 0x20 DUP1 DUP3 MSTORE PUSH1 0x12 SWAP1 DUP3 ADD MSTORE PUSH18 0x10DBDB9D1C9858DD081A5CC81C185D5CD959 PUSH1 0x72 SHL PUSH1 0x40 DUP3 ADD MSTORE PUSH1 0x60 ADD SWAP1 JUMP JUMPDEST PUSH1 0x20 DUP1 DUP3 MSTORE PUSH1 0x1B SWAP1 DUP3 ADD MSTORE PUSH32 0x57616C6C657420686173206265656E20626C61636B6C69737465640000000000 PUSH1 0x40 DUP3 ADD MSTORE PUSH1 0x60 ADD SWAP1 JUMP JUMPDEST PUSH1 0x20 DUP1 DUP3 MSTORE PUSH1 0x40 SWAP1 DUP3 ADD DUP2 SWAP1 MSTORE PUSH32 0x52657761726420746F6B656E732066756E64696E6720686173206E6F74207374 SWAP1 DUP3 ADD MSTORE PUSH32 0x6172746564207965742C206E6F20746F6B656E7320746F207769746864726177 PUSH1 0x60 DUP3 ADD MSTORE PUSH1 0x80 ADD SWAP1 JUMP JUMPDEST PUSH1 0x20 DUP1 DUP3 MSTORE PUSH1 0x36 SWAP1 DUP3 ADD MSTORE PUSH32 0x496E73756666696369656E742072657761726420746F6B656E7320696E207468 PUSH1 0x40 DUP3 ADD MSTORE PUSH22 0x6520636F6E747261637420746F207769746864726177 PUSH1 0x50 SHL PUSH1 0x60 DUP3 ADD MSTORE PUSH1 0x80 ADD SWAP1 JUMP JUMPDEST PUSH4 0x4E487B71 PUSH1 0xE0 SHL PUSH1 0x0 MSTORE PUSH1 0x11 PUSH1 0x4 MSTORE PUSH1 0x24 PUSH1 0x0 REVERT JUMPDEST DUP1 DUP3 ADD DUP1 DUP3 GT ISZERO PUSH2 0x4103 JUMPI PUSH2 0x4103 PUSH2 0x40DA JUMP JUMPDEST SWAP3 SWAP2 POP POP JUMP JUMPDEST DUP2 DUP2 SUB DUP2 DUP2 GT ISZERO PUSH2 0x4103 JUMPI PUSH2 0x4103 PUSH2 0x40DA JUMP JUMPDEST PUSH1 0x0 PUSH1 0x20 DUP3 DUP5 SUB SLT ISZERO PUSH2 0x412E JUMPI PUSH1 0x0 DUP1 REVERT JUMPDEST DUP2 MLOAD PUSH2 0x3D93 DUP2 PUSH2 0x3E04 JUMP JUMPDEST PUSH1 0x0 DUP3 PUSH2 0x4156 JUMPI PUSH4 0x4E487B71 PUSH1 0xE0 SHL PUSH1 0x0 MSTORE PUSH1 0x12 PUSH1 0x4 MSTORE PUSH1 0x24 PUSH1 0x0 REVERT JUMPDEST POP DIV SWAP1 JUMP JUMPDEST PUSH1 0x20 DUP1 DUP3 MSTORE PUSH1 0x40 SWAP1 DUP3 ADD DUP2 SWAP1 MSTORE PUSH32 0x47726F77746820746F6B656E732066756E64696E6720686173206E6F74207374 SWAP1 DUP3 ADD MSTORE PUSH32 0x6172746564207965742C206E6F20746F6B656E7320746F207769746864726177 PUSH1 0x60 DUP3 ADD MSTORE PUSH1 0x80 ADD SWAP1 JUMP JUMPDEST PUSH1 0x20 DUP1 DUP3 MSTORE PUSH1 0x37 SWAP1 DUP3 ADD MSTORE PUSH32 0x46756E6374696F6E207265736572766564206F6E6C7920666F72207468652077 PUSH1 0x40 DUP3 ADD MSTORE PUSH32 0x686974656C6973746572206F7220746865206F776E6572000000000000000000 PUSH1 0x60 DUP3 ADD MSTORE PUSH1 0x80 ADD SWAP1 JUMP JUMPDEST PUSH1 0x20 DUP1 DUP3 MSTORE PUSH1 0x3E SWAP1 DUP3 ADD MSTORE PUSH32 0x5465616D20746F6B656E732066756E64696E6720686173206E6F742073746172 PUSH1 0x40 DUP3 ADD MSTORE PUSH32 0x746564207965742C206E6F20746F6B656E7320746F2077697468647261770000 PUSH1 0x60 DUP3 ADD MSTORE PUSH1 0x80 ADD SWAP1 JUMP JUMPDEST PUSH1 0x0 PUSH1 0xFF DUP3 AND PUSH1 0xFF DUP2 SUB PUSH2 0x4289 JUMPI PUSH2 0x4289 PUSH2 0x40DA JUMP JUMPDEST PUSH1 0x1 ADD SWAP3 SWAP2 POP POP JUMP JUMPDEST PUSH4 0x4E487B71 PUSH1 0xE0 SHL PUSH1 0x0 MSTORE PUSH1 0x41 PUSH1 0x4 MSTORE PUSH1 0x24 PUSH1 0x0 REVERT JUMPDEST PUSH1 0x1F DUP3 ADD PUSH1 0x1F NOT AND DUP2 ADD PUSH8 0xFFFFFFFFFFFFFFFF DUP2 GT DUP3 DUP3 LT OR ISZERO PUSH2 0x42CE JUMPI PUSH2 0x42CE PUSH2 0x4292 JUMP JUMPDEST PUSH1 0x40 MSTORE POP POP JUMP JUMPDEST PUSH1 0x0 JUMPDEST DUP4 DUP2 LT ISZERO PUSH2 0x42F0 JUMPI DUP2 DUP2 ADD MLOAD DUP4 DUP3 ADD MSTORE PUSH1 0x20 ADD PUSH2 0x42D8 JUMP JUMPDEST POP POP PUSH1 0x0 SWAP2 ADD MSTORE JUMP JUMPDEST PUSH1 0x0 PUSH1 0x20 DUP3 DUP5 SUB SLT ISZERO PUSH2 0x430B JUMPI PUSH1 0x0 DUP1 REVERT JUMPDEST DUP2 MLOAD PUSH8 0xFFFFFFFFFFFFFFFF DUP1 DUP3 GT ISZERO PUSH2 0x4323 JUMPI PUSH1 0x0 DUP1 REVERT JUMPDEST DUP2 DUP5 ADD SWAP2 POP DUP5 PUSH1 0x1F DUP4 ADD SLT PUSH2 0x4337 JUMPI PUSH1 0x0 DUP1 REVERT JUMPDEST DUP2 MLOAD DUP2 DUP2 GT ISZERO PUSH2 0x4349 JUMPI PUSH2 0x4349 PUSH2 0x4292 JUMP JUMPDEST PUSH1 0x40 MLOAD SWAP2 POP PUSH2 0x4362 PUSH1 0x1F DUP3 ADD PUSH1 0x1F NOT AND PUSH1 0x20 ADD DUP4 PUSH2 0x42A8 JUMP JUMPDEST DUP1 DUP3 MSTORE DUP6 PUSH1 0x20 DUP3 DUP6 ADD ADD GT ISZERO PUSH2 0x4377 JUMPI PUSH1 0x0 DUP1 REVERT JUMPDEST PUSH2 0x4388 DUP2 PUSH1 0x20 DUP5 ADD PUSH1 0x20 DUP7 ADD PUSH2 0x42D5 JUMP JUMPDEST POP SWAP5 SWAP4 POP POP POP POP JUMP JUMPDEST PUSH1 0x0 DUP3 MLOAD PUSH2 0x43A3 DUP2 DUP5 PUSH1 0x20 DUP8 ADD PUSH2 0x42D5 JUMP JUMPDEST SWAP2 SWAP1 SWAP2 ADD SWAP3 SWAP2 POP POP JUMP JUMPDEST PUSH1 0x20 DUP1 DUP3 MSTORE PUSH1 0x2E SWAP1 DUP3 ADD MSTORE PUSH32 0x57616C6C65742068617320616C7265616479206265656E207570646174656420 PUSH1 0x40 DUP3 ADD MSTORE PUSH14 0x746F207468617420737461747573 PUSH1 0x90 SHL PUSH1 0x60 DUP3 ADD MSTORE PUSH1 0x80 ADD SWAP1 JUMP JUMPDEST PUSH4 0x4E487B71 PUSH1 0xE0 SHL PUSH1 0x0 MSTORE PUSH1 0x21 PUSH1 0x4 MSTORE PUSH1 0x24 PUSH1 0x0 REVERT JUMPDEST PUSH1 0x40 DUP2 ADD PUSH1 0x3 DUP5 LT PUSH2 0x4433 JUMPI PUSH4 0x4E487B71 PUSH1 0xE0 SHL PUSH1 0x0 MSTORE PUSH1 0x21 PUSH1 0x4 MSTORE PUSH1 0x24 PUSH1 0x0 REVERT JUMPDEST SWAP3 DUP2 MSTORE PUSH1 0x20 ADD MSTORE SWAP1 JUMP JUMPDEST PUSH1 0x20 DUP1 DUP3 MSTORE PUSH1 0x51 SWAP1 DUP3 ADD MSTORE PUSH32 0x46756E6374696F6E207265736572766564206F6E6C7920666F72207468652072 PUSH1 0x40 DUP3 ADD MSTORE PUSH32 0x65776172647320757064617465722C20746865206F776E65722C206F72207468 PUSH1 0x60 DUP3 ADD MSTORE PUSH17 0x329031B7B73A3930B1BA1034BA39B2B633 PUSH1 0x79 SHL PUSH1 0x80 DUP3 ADD MSTORE PUSH1 0xA0 ADD SWAP1 JUMP JUMPDEST PUSH1 0x20 DUP1 DUP3 MSTORE PUSH1 0x3E SWAP1 DUP3 ADD MSTORE PUSH32 0x52657761726420746F6B656E732066756E64696E6720686173206E6F74207374 PUSH1 0x40 DUP3 ADD MSTORE PUSH32 0x6172746564207965742C206E6F20746F6B656E7320746F207570646174650000 PUSH1 0x60 DUP3 ADD MSTORE PUSH1 0x80 ADD SWAP1 JUMP JUMPDEST PUSH4 0x4E487B71 PUSH1 0xE0 SHL PUSH1 0x0 MSTORE PUSH1 0x32 PUSH1 0x4 MSTORE PUSH1 0x24 PUSH1 0x0 REVERT JUMPDEST PUSH1 0x0 PUSH1 0x3 RETURNDATASIZE GT ISZERO PUSH2 0x4540 JUMPI PUSH1 0x4 PUSH1 0x0 DUP1 RETURNDATACOPY POP PUSH1 0x0 MLOAD PUSH1 0xE0 SHR JUMPDEST SWAP1 JUMP JUMPDEST PUSH1 0x0 PUSH1 0x44 RETURNDATASIZE LT ISZERO PUSH2 0x4551 JUMPI SWAP1 JUMP JUMPDEST PUSH1 0x40 MLOAD PUSH1 0x3 NOT RETURNDATASIZE DUP2 ADD PUSH1 0x4 DUP4 RETURNDATACOPY DUP2 MLOAD RETURNDATASIZE PUSH8 0xFFFFFFFFFFFFFFFF DUP2 PUSH1 0x24 DUP5 ADD GT DUP2 DUP5 GT OR ISZERO PUSH2 0x4581 JUMPI POP POP POP POP POP SWAP1 JUMP JUMPDEST DUP3 DUP6 ADD SWAP2 POP DUP2 MLOAD DUP2 DUP2 GT ISZERO PUSH2 0x4599 JUMPI POP POP POP POP POP POP SWAP1 JUMP JUMPDEST DUP5 RETURNDATASIZE DUP8 ADD ADD PUSH1 0x20 DUP3 DUP6 ADD ADD GT ISZERO PUSH2 0x45B3 JUMPI POP POP POP POP POP POP SWAP1 JUMP JUMPDEST PUSH2 0x45C2 PUSH1 0x20 DUP3 DUP7 ADD ADD DUP8 PUSH2 0x42A8 JUMP JUMPDEST POP SWAP1 SWAP6 SWAP5 POP POP POP POP POP JUMP JUMPDEST PUSH1 0x0 PUSH1 0x1 DUP1 PUSH1 0xA0 SHL SUB DUP1 DUP7 AND DUP4 MSTORE DUP1 DUP6 AND PUSH1 0x20 DUP5 ADD MSTORE POP PUSH1 0x60 PUSH1 0x40 DUP4 ADD MSTORE DUP3 MLOAD DUP1 PUSH1 0x60 DUP5 ADD MSTORE PUSH2 0x4604 DUP2 PUSH1 0x80 DUP6 ADD PUSH1 0x20 DUP8 ADD PUSH2 0x42D5 JUMP JUMPDEST PUSH1 0x1F ADD PUSH1 0x1F NOT AND SWAP2 SWAP1 SWAP2 ADD PUSH1 0x80 ADD SWAP5 SWAP4 POP POP POP POP JUMP JUMPDEST PUSH1 0x0 PUSH1 0x1 DUP3 ADD PUSH2 0x462C JUMPI PUSH2 0x462C PUSH2 0x40DA JUMP JUMPDEST POP PUSH1 0x1 ADD SWAP1 JUMP JUMPDEST PUSH1 0x1 PUSH1 0x1 PUSH1 0xA0 SHL SUB DUP7 DUP2 AND DUP3 MSTORE PUSH1 0x60 PUSH1 0x20 DUP1 DUP5 ADD DUP3 SWAP1 MSTORE SWAP1 DUP4 ADD DUP7 SWAP1 MSTORE PUSH1 0x0 SWAP2 DUP8 SWAP2 PUSH1 0x80 DUP6 ADD DUP5 JUMPDEST DUP10 DUP2 LT ISZERO PUSH2 0x4680 JUMPI DUP4 PUSH2 0x466D DUP7 PUSH2 0x3D9A JUMP JUMPDEST AND DUP3 MSTORE SWAP4 DUP3 ADD SWAP4 SWAP1 DUP3 ADD SWAP1 PUSH1 0x1 ADD PUSH2 0x465B JUMP JUMPDEST POP DUP6 DUP2 SUB PUSH1 0x40 DUP8 ADD MSTORE DUP7 DUP2 MSTORE PUSH1 0x1 PUSH1 0x1 PUSH1 0xFB SHL SUB DUP8 GT ISZERO PUSH2 0x46A0 JUMPI PUSH1 0x0 DUP1 REVERT JUMPDEST DUP7 PUSH1 0x5 SHL SWAP4 POP DUP4 DUP9 DUP4 DUP4 ADD CALLDATACOPY SWAP1 SWAP3 ADD SWAP1 SWAP2 ADD SWAP9 SWAP8 POP POP POP POP POP POP POP POP JUMP INVALID 0xCD 0x5E 0xD1 0x5C PUSH15 0x187E77E9AEE88184C21F4F2182AB58 0x27 0xCB EXTCODESIZE PUSH31 0x7FBEDCD63F033009B779B17422D0DF92223018B32B4D1FA46E071723D6817 0xE2 BASEFEE PUSH14 0x3BECC55F00F572C1A3C9723EE4 0xA9 SLOAD 0x4F 0xDD SWAP3 SWAP10 0xFB 0xDE LOG3 BLOCKHASH SWAP16 0x4E 0x29 0xA5 BYTE 0xE3 0x4E SHL PC CALLDATASIZE CALLVALUE POP 0xBA GT LOG2 PUSH5 0x6970667358 0x22 SLT KECCAK256 ADDRESS STATICCALL PUSH13 0x57B05366DBFC65A20A464EB47E 0xB9 SWAP14 0xB4 PREVRANDAO 0xC4 0xAB DUP6 SWAP6 PUSH17 0x59BD96496A2ACD64736F6C634300081400 CALLER "},"methodIdentifiers":{"GROWTH_TOKENS_TOTAL()":"a868e997","GROWTH_TOKENS_WITHDRAWAL_PER_YEAR()":"1e6b4028","MIN_INTERVAL_FOR_UPDATE_REWARDS()":"e3682a5d","REWARD_TOKENS_PER_WEEK()":"42ecb464","REWARD_TOKENS_PER_YEAR()":"de51d567","REWARD_TOKENS_TOTAL()":"81f8ca1b","TEAM_TOKENS_LOCKED_PERIOD()":"dcb7ff6b","TEAM_TOKENS_TOTAL()":"5493b30d","TEAM_TOKENS_WITHDRAWAL_PER_YEAR()":"8e6d32df","TOKENS_WITHDRAWAL_PERIOD()":"59aa8966","addWalletToWhitelist(address,bool,uint256)":"8a194d04","calculateYearForTeamTokens()":"8bb4dadd","fundSmartContract(uint8,uint256)":"d3946a8c","growthTokensFunded()":"5d70203b","growthTokensFundingStarted()":"f3793b9d","growthTokensInSmartContract()":"d356b49a","growthTokensLastWithdrawalTime()":"687a83f8","growthTokensStartFundingTime()":"9656cd8c","growthTokensWithdrawn()":"6148c783","hyaxToken()":"3ba10a56","hyaxTokenAddress()":"031f6589","initialize(address)":"c4d66de8","maximumBatchSizeForUpdateRewards()":"b4ba9fd7","owner()":"8da5cb5b","pause()":"8456cb59","paused()":"5c975abb","renounceOwnership()":"715018a6","rewardTokensDistributed()":"e774ce43","rewardTokensFunded()":"fd559526","rewardTokensFundingStarted()":"ebc8e2dd","rewardTokensInSmartContract()":"8da2e27f","rewardTokensStartFundingTime()":"6e3ce4e1","rewardTokensWithdrawn()":"334c4cb3","rewardsUpdaterAddress()":"f972c027","teamTokensFunded()":"f8ff46c6","teamTokensFundingStarted()":"c1cc52b3","teamTokensInSmartContract()":"647a5a78","teamTokensStartFundingTime()":"1035fc09","teamTokensWithdrawn()":"d7e57fda","transferOwnership(address)":"f2fde38b","unpause()":"3f4ba83a","updateBlacklistStatus(address,bool)":"b8360806","updateHyaxTokenAddress(address)":"9bae9002","updateMaximumBatchSizeForUpdateRewards(uint8)":"2574cd9d","updateRewardsBatch(address[],uint256[])":"efce5587","updateRewardsSingle(address,uint256)":"fafd7c20","updateRewardsUpdaterAddress(address)":"6fce7873","updateTeamMemberWallet(address,address)":"3768c029","updateWhiteListerAddress(address)":"653c3a47","updateWhitelistStatus(address,bool)":"c07732a3","wallets(address)":"89b08f11","whiteListerAddress()":"65699d28","withdrawGrowthTokens()":"4c4dc42e","withdrawRewardTokens()":"370243dc","withdrawTeamTokens()":"953b7ef8","withdrawTokensToBurn(uint8,uint256)":"e2ccbfe4"}},"storageLayout":{"storage":[{"astId":1825,"contract":"contracts/UpgradeableHYAXRewards.sol:UpgradeableHYAXRewards","label":"hyaxTokenAddress","offset":0,"slot":"0","type":"t_address"},{"astId":1828,"contract":"contracts/UpgradeableHYAXRewards.sol:UpgradeableHYAXRewards","label":"hyaxToken","offset":0,"slot":"1","type":"t_contract(IHyaxToken)1686"},{"astId":1851,"contract":"contracts/UpgradeableHYAXRewards.sol:UpgradeableHYAXRewards","label":"growthTokensFunded","offset":0,"slot":"2","type":"t_uint256"},{"astId":1853,"contract":"contracts/UpgradeableHYAXRewards.sol:UpgradeableHYAXRewards","label":"growthTokensWithdrawn","offset":0,"slot":"3","type":"t_uint256"},{"astId":1855,"contract":"contracts/UpgradeableHYAXRewards.sol:UpgradeableHYAXRewards","label":"growthTokensInSmartContract","offset":0,"slot":"4","type":"t_uint256"},{"astId":1857,"contract":"contracts/UpgradeableHYAXRewards.sol:UpgradeableHYAXRewards","label":"growthTokensLastWithdrawalTime","offset":0,"slot":"5","type":"t_uint256"},{"astId":1859,"contract":"contracts/UpgradeableHYAXRewards.sol:UpgradeableHYAXRewards","label":"growthTokensStartFundingTime","offset":0,"slot":"6","type":"t_uint256"},{"astId":1861,"contract":"contracts/UpgradeableHYAXRewards.sol:UpgradeableHYAXRewards","label":"growthTokensFundingStarted","offset":0,"slot":"7","type":"t_bool"},{"astId":1880,"contract":"contracts/UpgradeableHYAXRewards.sol:UpgradeableHYAXRewards","label":"teamTokensFunded","offset":0,"slot":"8","type":"t_uint256"},{"astId":1882,"contract":"contracts/UpgradeableHYAXRewards.sol:UpgradeableHYAXRewards","label":"teamTokensWithdrawn","offset":0,"slot":"9","type":"t_uint256"},{"astId":1884,"contract":"contracts/UpgradeableHYAXRewards.sol:UpgradeableHYAXRewards","label":"teamTokensInSmartContract","offset":0,"slot":"10","type":"t_uint256"},{"astId":1886,"contract":"contracts/UpgradeableHYAXRewards.sol:UpgradeableHYAXRewards","label":"teamTokensStartFundingTime","offset":0,"slot":"11","type":"t_uint256"},{"astId":1888,"contract":"contracts/UpgradeableHYAXRewards.sol:UpgradeableHYAXRewards","label":"teamTokensFundingStarted","offset":0,"slot":"12","type":"t_bool"},{"astId":1909,"contract":"contracts/UpgradeableHYAXRewards.sol:UpgradeableHYAXRewards","label":"rewardTokensFunded","offset":0,"slot":"13","type":"t_uint256"},{"astId":1911,"contract":"contracts/UpgradeableHYAXRewards.sol:UpgradeableHYAXRewards","label":"rewardTokensDistributed","offset":0,"slot":"14","type":"t_uint256"},{"astId":1913,"contract":"contracts/UpgradeableHYAXRewards.sol:UpgradeableHYAXRewards","label":"rewardTokensWithdrawn","offset":0,"slot":"15","type":"t_uint256"},{"astId":1915,"contract":"contracts/UpgradeableHYAXRewards.sol:UpgradeableHYAXRewards","label":"rewardTokensInSmartContract","offset":0,"slot":"16","type":"t_uint256"},{"astId":1917,"contract":"contracts/UpgradeableHYAXRewards.sol:UpgradeableHYAXRewards","label":"rewardTokensStartFundingTime","offset":0,"slot":"17","type":"t_uint256"},{"astId":1919,"contract":"contracts/UpgradeableHYAXRewards.sol:UpgradeableHYAXRewards","label":"rewardTokensFundingStarted","offset":0,"slot":"18","type":"t_bool"},{"astId":1921,"contract":"contracts/UpgradeableHYAXRewards.sol:UpgradeableHYAXRewards","label":"whiteListerAddress","offset":1,"slot":"18","type":"t_address"},{"astId":1923,"contract":"contracts/UpgradeableHYAXRewards.sol:UpgradeableHYAXRewards","label":"rewardsUpdaterAddress","offset":0,"slot":"19","type":"t_address"},{"astId":1953,"contract":"contracts/UpgradeableHYAXRewards.sol:UpgradeableHYAXRewards","label":"maximumBatchSizeForUpdateRewards","offset":20,"slot":"19","type":"t_uint8"},{"astId":1958,"contract":"contracts/UpgradeableHYAXRewards.sol:UpgradeableHYAXRewards","label":"wallets","offset":0,"slot":"20","type":"t_mapping(t_address,t_struct(WalletData)1948_storage)"}],"types":{"t_address":{"encoding":"inplace","label":"address","numberOfBytes":"20"},"t_bool":{"encoding":"inplace","label":"bool","numberOfBytes":"1"},"t_contract(IHyaxToken)1686":{"encoding":"inplace","label":"contract IHyaxToken","numberOfBytes":"20"},"t_mapping(t_address,t_struct(WalletData)1948_storage)":{"encoding":"mapping","key":"t_address","label":"mapping(address => struct UpgradeableHYAXRewards.WalletData)","numberOfBytes":"32","value":"t_struct(WalletData)1948_storage"},"t_struct(WalletData)1948_storage":{"encoding":"inplace","label":"struct UpgradeableHYAXRewards.WalletData","members":[{"astId":1925,"contract":"contracts/UpgradeableHYAXRewards.sol:UpgradeableHYAXRewards","label":"hyaxHoldingAmount","offset":0,"slot":"0","type":"t_uint256"},{"astId":1927,"contract":"contracts/UpgradeableHYAXRewards.sol:UpgradeableHYAXRewards","label":"hyaxHoldingAmountAtWhitelistTime","offset":0,"slot":"1","type":"t_uint256"},{"astId":1929,"contract":"contracts/UpgradeableHYAXRewards.sol:UpgradeableHYAXRewards","label":"totalHyaxRewardsAmount","offset":0,"slot":"2","type":"t_uint256"},{"astId":1931,"contract":"contracts/UpgradeableHYAXRewards.sol:UpgradeableHYAXRewards","label":"currentRewardsAmount","offset":0,"slot":"3","type":"t_uint256"},{"astId":1933,"contract":"contracts/UpgradeableHYAXRewards.sol:UpgradeableHYAXRewards","label":"rewardsWithdrawn","offset":0,"slot":"4","type":"t_uint256"},{"astId":1935,"contract":"contracts/UpgradeableHYAXRewards.sol:UpgradeableHYAXRewards","label":"addedToWhitelistTime","offset":0,"slot":"5","type":"t_uint256"},{"astId":1937,"contract":"contracts/UpgradeableHYAXRewards.sol:UpgradeableHYAXRewards","label":"teamTokenWithdrawalTimes","offset":0,"slot":"6","type":"t_uint8"},{"astId":1939,"contract":"contracts/UpgradeableHYAXRewards.sol:UpgradeableHYAXRewards","label":"lastRewardsWithdrawalTime","offset":0,"slot":"7","type":"t_uint256"},{"astId":1941,"contract":"contracts/UpgradeableHYAXRewards.sol:UpgradeableHYAXRewards","label":"lastRewardsUpdateTime","offset":0,"slot":"8","type":"t_uint256"},{"astId":1943,"contract":"contracts/UpgradeableHYAXRewards.sol:UpgradeableHYAXRewards","label":"isTeamWallet","offset":0,"slot":"9","type":"t_bool"},{"astId":1945,"contract":"contracts/UpgradeableHYAXRewards.sol:UpgradeableHYAXRewards","label":"isWhitelisted","offset":1,"slot":"9","type":"t_bool"},{"astId":1947,"contract":"contracts/UpgradeableHYAXRewards.sol:UpgradeableHYAXRewards","label":"isBlacklisted","offset":2,"slot":"9","type":"t_bool"}],"numberOfBytes":"320"},"t_uint256":{"encoding":"inplace","label":"uint256","numberOfBytes":"32"},"t_uint8":{"encoding":"inplace","label":"uint8","numberOfBytes":"1"}}}}}}