{"contracts/UpgradeableHYAXRewards.sol":{"UpgradeableHYAXRewards":{"abi":[{"inputs":[{"internalType":"address","name":"_hyaxTokenAddress","type":"address"}],"stateMutability":"nonpayable","type":"constructor"},{"inputs":[],"name":"EnforcedPause","type":"error"},{"inputs":[],"name":"ExpectedPause","type":"error"},{"inputs":[{"internalType":"address","name":"owner","type":"address"}],"name":"OwnableInvalidOwner","type":"error"},{"inputs":[{"internalType":"address","name":"account","type":"address"}],"name":"OwnableUnauthorizedAccount","type":"error"},{"anonymous":false,"inputs":[{"indexed":false,"internalType":"enum UpgradeableHYAXRewards.FundingType","name":"_fundingType","type":"uint8"},{"indexed":false,"internalType":"uint256","name":"_amount","type":"uint256"}],"name":"FundingAdded","type":"event"},{"anonymous":false,"inputs":[{"indexed":false,"internalType":"address","name":"_walletAddress","type":"address"},{"indexed":false,"internalType":"uint256","name":"_amount","type":"uint256"}],"name":"GrowthTokensWithdrawn","type":"event"},{"anonymous":false,"inputs":[{"indexed":false,"internalType":"address","name":"_walletAddress","type":"address"},{"indexed":false,"internalType":"uint256","name":"_amount","type":"uint256"}],"name":"InvestorRewardsWithdrawn","type":"event"},{"anonymous":false,"inputs":[{"indexed":true,"internalType":"address","name":"previousOwner","type":"address"},{"indexed":true,"internalType":"address","name":"newOwner","type":"address"}],"name":"OwnershipTransferred","type":"event"},{"anonymous":false,"inputs":[{"indexed":false,"internalType":"address","name":"account","type":"address"}],"name":"Paused","type":"event"},{"anonymous":false,"inputs":[{"indexed":false,"internalType":"address","name":"_walletAddress","type":"address"},{"indexed":false,"internalType":"uint256","name":"_amount","type":"uint256"}],"name":"TeamTokensWithdrawn","type":"event"},{"anonymous":false,"inputs":[{"indexed":false,"internalType":"address","name":"account","type":"address"}],"name":"Unpaused","type":"event"},{"anonymous":false,"inputs":[{"indexed":false,"internalType":"address","name":"_sender","type":"address"},{"indexed":false,"internalType":"address","name":"_walletAddress","type":"address"},{"indexed":false,"internalType":"bool","name":"_isTeamWallet","type":"bool"},{"indexed":false,"internalType":"string","name":"_bitcoinRewardsAddress","type":"string"},{"indexed":false,"internalType":"uint256","name":"_hyaxHoldingAmount","type":"uint256"}],"name":"WalletAddedToWhitelist","type":"event"},{"anonymous":false,"inputs":[{"indexed":false,"internalType":"address","name":"_sender","type":"address"},{"indexed":false,"internalType":"address","name":"_walletAddress","type":"address"}],"name":"WalletRemovedFromWhitelist","type":"event"},{"inputs":[],"name":"GROWTH_TOKENS_TOTAL","outputs":[{"internalType":"uint256","name":"","type":"uint256"}],"stateMutability":"view","type":"function"},{"inputs":[],"name":"GROWTH_TOKENS_WITHDRAWAL_PER_YEAR","outputs":[{"internalType":"uint256","name":"","type":"uint256"}],"stateMutability":"view","type":"function"},{"inputs":[],"name":"TEAM_TOKENS_LOCKED_PERIOD","outputs":[{"internalType":"uint256","name":"","type":"uint256"}],"stateMutability":"view","type":"function"},{"inputs":[],"name":"TEAM_TOKENS_TOTAL","outputs":[{"internalType":"uint256","name":"","type":"uint256"}],"stateMutability":"view","type":"function"},{"inputs":[],"name":"TEAM_TOKENS_WITHDRAWAL_PER_YEAR","outputs":[{"internalType":"uint256","name":"","type":"uint256"}],"stateMutability":"view","type":"function"},{"inputs":[],"name":"TOKENS_WITHDRAWAL_PERIOD","outputs":[{"internalType":"uint256","name":"","type":"uint256"}],"stateMutability":"view","type":"function"},{"inputs":[{"internalType":"address","name":"_walletAddress","type":"address"},{"internalType":"bool","name":"_isTeamWallet","type":"bool"},{"internalType":"string","name":"_bitcoinRewardsAddress","type":"string"},{"internalType":"uint256","name":"_hyaxHoldingAmountAtWhitelistTime","type":"uint256"}],"name":"addWalletToWhitelist","outputs":[],"stateMutability":"nonpayable","type":"function"},{"inputs":[{"internalType":"enum UpgradeableHYAXRewards.FundingType","name":"_fundingType","type":"uint8"},{"internalType":"uint256","name":"_amount","type":"uint256"}],"name":"fundSmartContract","outputs":[],"stateMutability":"nonpayable","type":"function"},{"inputs":[],"name":"growthTokensFunded","outputs":[{"internalType":"uint256","name":"","type":"uint256"}],"stateMutability":"view","type":"function"},{"inputs":[],"name":"growthTokensFundingStarted","outputs":[{"internalType":"bool","name":"","type":"bool"}],"stateMutability":"view","type":"function"},{"inputs":[],"name":"growthTokensInSmartContract","outputs":[{"internalType":"uint256","name":"","type":"uint256"}],"stateMutability":"view","type":"function"},{"inputs":[],"name":"growthTokensLastWithdrawalTime","outputs":[{"internalType":"uint256","name":"","type":"uint256"}],"stateMutability":"view","type":"function"},{"inputs":[],"name":"growthTokensStartFundingTime","outputs":[{"internalType":"uint256","name":"","type":"uint256"}],"stateMutability":"view","type":"function"},{"inputs":[],"name":"growthTokensWithdrawn","outputs":[{"internalType":"uint256","name":"","type":"uint256"}],"stateMutability":"view","type":"function"},{"inputs":[],"name":"hyaxToken","outputs":[{"internalType":"contract ERC20TokenInterface","name":"","type":"address"}],"stateMutability":"view","type":"function"},{"inputs":[],"name":"hyaxTokenAddress","outputs":[{"internalType":"address","name":"","type":"address"}],"stateMutability":"view","type":"function"},{"inputs":[],"name":"owner","outputs":[{"internalType":"address","name":"","type":"address"}],"stateMutability":"view","type":"function"},{"inputs":[],"name":"pause","outputs":[],"stateMutability":"nonpayable","type":"function"},{"inputs":[],"name":"paused","outputs":[{"internalType":"bool","name":"","type":"bool"}],"stateMutability":"view","type":"function"},{"inputs":[{"internalType":"address","name":"_walletAddress","type":"address"}],"name":"removeWalletFromWhitelist","outputs":[],"stateMutability":"nonpayable","type":"function"},{"inputs":[],"name":"renounceOwnership","outputs":[],"stateMutability":"nonpayable","type":"function"},{"inputs":[],"name":"rewardsUpdaterAddress","outputs":[{"internalType":"address","name":"","type":"address"}],"stateMutability":"view","type":"function"},{"inputs":[],"name":"teamTokensFunded","outputs":[{"internalType":"uint256","name":"","type":"uint256"}],"stateMutability":"view","type":"function"},{"inputs":[],"name":"teamTokensFundingStarted","outputs":[{"internalType":"bool","name":"","type":"bool"}],"stateMutability":"view","type":"function"},{"inputs":[],"name":"teamTokensInSmartContract","outputs":[{"internalType":"uint256","name":"","type":"uint256"}],"stateMutability":"view","type":"function"},{"inputs":[],"name":"teamTokensStartFundingTime","outputs":[{"internalType":"uint256","name":"","type":"uint256"}],"stateMutability":"view","type":"function"},{"inputs":[],"name":"teamTokensWithdrawn","outputs":[{"internalType":"uint256","name":"","type":"uint256"}],"stateMutability":"view","type":"function"},{"inputs":[],"name":"tokenInvestorRewards","outputs":[{"internalType":"uint256","name":"","type":"uint256"}],"stateMutability":"view","type":"function"},{"inputs":[{"internalType":"address","name":"newOwner","type":"address"}],"name":"transferOwnership","outputs":[],"stateMutability":"nonpayable","type":"function"},{"inputs":[],"name":"unpause","outputs":[],"stateMutability":"nonpayable","type":"function"},{"inputs":[{"internalType":"address","name":"_hyaxTokenAddress","type":"address"}],"name":"updateHyaxTokenAddress","outputs":[],"stateMutability":"nonpayable","type":"function"},{"inputs":[{"internalType":"address","name":"_whiteListerAddress","type":"address"}],"name":"updateWhiteListerAddress","outputs":[],"stateMutability":"nonpayable","type":"function"},{"inputs":[{"internalType":"address","name":"","type":"address"}],"name":"wallets","outputs":[{"internalType":"uint256","name":"hyaxHoldingAmount","type":"uint256"},{"internalType":"uint256","name":"hyaxHoldingAmountAtWhitelistTime","type":"uint256"},{"internalType":"uint256","name":"totalHyaxRewardsAmount","type":"uint256"},{"internalType":"uint256","name":"currentRewardsAmount","type":"uint256"},{"internalType":"uint256","name":"rewardsWithdrawn","type":"uint256"},{"internalType":"string","name":"bitcoinRewardsAddress","type":"string"},{"internalType":"uint256","name":"addedToWhitelistTime","type":"uint256"},{"internalType":"uint256","name":"lastTokenWithdrawalTime","type":"uint256"},{"internalType":"uint256","name":"lastRewardsWithdrawalTime","type":"uint256"},{"internalType":"bool","name":"isTeamWallet","type":"bool"},{"internalType":"bool","name":"isWhitelisted","type":"bool"}],"stateMutability":"view","type":"function"},{"inputs":[],"name":"whiteListerAddress","outputs":[{"internalType":"address","name":"","type":"address"}],"stateMutability":"view","type":"function"},{"inputs":[],"name":"withdrawGrowthTokens","outputs":[],"stateMutability":"nonpayable","type":"function"},{"inputs":[],"name":"withdrawInvestorRewards","outputs":[],"stateMutability":"nonpayable","type":"function"},{"inputs":[],"name":"withdrawTeamTokens","outputs":[],"stateMutability":"nonpayable","type":"function"}],"evm":{"bytecode":{"linkReferences":{},"object":"60806040523480156200001157600080fd5b506040516200216038038062002160833981016040819052620000349162000208565b33806200005c57604051631e4fbdf760e01b8152600060048201526024015b60405180910390fd5b6200006781620001b8565b506000805460ff60a01b19168155600180546001600160a01b0384166001600160a01b0319918216811790925560028054909116821790556040805163090b282b60e31b6020808301919091528251808303600401815260248301808552815191909201206395d89b4160e01b909152915191936395d89b41926028808401938290030181865afa15801562000101573d6000803e3d6000fd5b505050506040513d6000823e601f3d908101601f191682016040526200012b919081019062000276565b6040516020016200013d91906200032e565b6040516020818303038152906040528051906020012014620001a25760405162461bcd60e51b815260206004820152601f60248201527f4879617820746f6b656e2061646472657373206973206e6f742076616c696400604482015260640162000053565b50600060038190556009819055600e556200034c565b600080546001600160a01b038381166001600160a01b0319831681178455604051919092169283917f8be0079c531659141344cd1fd0a4f28419497f9722a3daafe3b4186f6b6457e09190a35050565b6000602082840312156200021b57600080fd5b81516001600160a01b03811681146200023357600080fd5b9392505050565b634e487b7160e01b600052604160045260246000fd5b60005b838110156200026d57818101518382015260200162000253565b50506000910152565b6000602082840312156200028957600080fd5b81516001600160401b0380821115620002a157600080fd5b818401915084601f830112620002b657600080fd5b815181811115620002cb57620002cb6200023a565b604051601f8201601f19908116603f01168101908382118183101715620002f657620002f66200023a565b816040528281528760208487010111156200031057600080fd5b6200032383602083016020880162000250565b979650505050505050565b600082516200034281846020870162000250565b9190910192915050565b611e04806200035c6000396000f3fe608060405234801561001057600080fd5b50600436106102275760003560e01c806389b08f1111610130578063ce23772b116100b8578063dcb7ff6b1161007c578063dcb7ff6b1461042d578063f2fde38b14610438578063f3793b9d1461044b578063f8ff46c614610458578063f972c0271461046157600080fd5b8063ce23772b146103ec578063d1c02aaf146103ff578063d356b49a14610408578063d3946a8c14610411578063d7e57fda1461042457600080fd5b80639656cd8c116100ff5780639656cd8c146103a857806397a94ba9146103b15780639bae9002146103b9578063a868e997146103cc578063c1cc52b3146103df57600080fd5b806389b08f11146103535780638da5cb5b1461037d5780638e6d32df1461038e578063953b7ef8146103a057600080fd5b80635c975abb116101b3578063653c3a4711610182578063653c3a471461031457806365699d2814610327578063687a83f81461033a578063715018a6146103435780638456cb591461034b57600080fd5b80635c975abb146102db5780635d70203b146102f95780636148c78314610302578063647a5a781461030b57600080fd5b80633f4ba83a116101fa5780633f4ba83a146102985780634c4dc42e146102a25780634f8ea72c146102aa5780635493b30d146102bd57806359aa8966146102d057600080fd5b8063031f65891461022c5780631035fc091461025c5780631e6b4028146102735780633ba10a5614610285575b600080fd5b60015461023f906001600160a01b031681565b6040516001600160a01b0390911681526020015b60405180910390f35b610265600c5481565b604051908152602001610253565b6102656a6342fd08f00f637800000081565b60025461023f906001600160a01b031681565b6102a0610474565b005b6102a0610486565b6102a06102b83660046118f1565b61079c565b6102656b04d8c55aefb8c05b5c00000081565b6102656301e1338081565b600054600160a01b900460ff165b6040519015158152602001610253565b61026560035481565b61026560045481565b610265600b5481565b6102a06103223660046119cd565b610a59565b600f5461023f906001600160a01b031681565b61026560065481565b6102a0610a83565b6102a0610a95565b6103666103613660046119cd565b610aa5565b6040516102539b9a99989796959493929190611a35565b6000546001600160a01b031661023f565b6102656af8277896582678ac00000081565b6102a0610b8e565b61026560075481565b6102a0611066565b6102a06103c73660046119cd565b6110d2565b6102656b07c13bc4b2c133c56000000081565b600d546102e99060ff1681565b6102a06103fa3660046119cd565b611106565b610265600e5481565b61026560055481565b6102a061041f366004611a9d565b611223565b610265600a5481565b610265630784ce0081565b6102a06104463660046119cd565b61165a565b6008546102e99060ff1681565b61026560095481565b60105461023f906001600160a01b031681565b61047c611747565b610484611774565b565b61048e611747565b60085460ff166104b95760405162461bcd60e51b81526004016104b090611acd565b60405180910390fd5b6301e133806007546104cb9190611b35565b4210156105345760405162461bcd60e51b815260206004820152603160248201527f43616e6e6f74207769746864726177206265666f7265203120796561722061666044820152701d195c88199d5b991a5b99c81cdd185c9d607a1b60648201526084016104b0565b6b07c13bc4b2c133c5600000006004541061059f5760405162461bcd60e51b815260206004820152602560248201527f416c6c2067726f77746820746f6b656e732068617665206265656e2077697468604482015264323930bbb760d91b60648201526084016104b0565b6301e133806006546105b19190611b35565b4210156106005760405162461bcd60e51b815260206004820152601f60248201527f43616e206f6e6c79207769746864726177206f6e63652070657220796561720060448201526064016104b0565b6004546a6342fd08f00f6378000000906b07c13bc4b2c133c56000000090610629908390611b35565b111561064b57600454610648906b07c13bc4b2c133c560000000611b4e565b90505b806004600082825461065d9190611b35565b9250508190555080600560008282546106769190611b4e565b9091555050426006556002546001600160a01b031663a9059cbb6106a26000546001600160a01b031690565b6040516001600160e01b031960e084901b1681526001600160a01b039091166004820152602481018490526044016020604051808303816000875af11580156106ef573d6000803e3d6000fd5b505050506040513d601f19601f820116820180604052508101906107139190611b61565b61075f5760405162461bcd60e51b815260206004820181905260248201527f4661696c656420746f207472616e736665722067726f77746820746f6b656e7360448201526064016104b0565b60408051338152602081018390527fd0a5227bfa49cf178a8f7a87b90318ef05fc8330f469e0dccbe075784f426dbf91015b60405180910390a150565b6000546001600160a01b03163314806107bf5750600f546001600160a01b031633145b6107db5760405162461bcd60e51b81526004016104b090611b7e565b6001600160a01b038416600090815260116020526040902060090154610100900460ff161561084c5760405162461bcd60e51b815260206004820152601d60248201527f57616c6c657420697320616c72656164792077686974656c697374656400000060448201526064016104b0565b6001600160a01b038416600090815260116020526040902060098101805485151561ffff19909116176101001790556005016108888382611c64565b506001600160a01b038416600090815260116020526040812042600682015560078101829055600881018290556003810182905560028101829055600401558215610a1457600081116109515760405162461bcd60e51b8152602060048201526044602482018190527f5465616d2077616c6c657473206d757374206265206164646564207769746820908201527f61206879617820686f6c64696e6720616d6f756e7420677265617465722074686064820152630616e20360e41b608482015260a4016104b0565b6b04d8c55aefb8c05b5c0000008111156109f15760405162461bcd60e51b815260206004820152605560248201527f5465616d2077616c6c657473206d75737420626520616464656420776974682060448201527f61206879617820686f6c64696e6720616d6f756e74206c657373207468616e2060648201527474686520746f74616c207465616d20746f6b656e7360581b608482015260a4016104b0565b6001600160a01b0384166000908152601160205260409020600181018290558190555b7f959ac3b35c0501d63161cf11f0e2bb784f4d0e01ae7b9ff879622579863516ac3385858585604051610a4b959493929190611d24565b60405180910390a150505050565b610a61611747565b600f80546001600160a01b0319166001600160a01b0392909216919091179055565b610a8b611747565b61048460006117c9565b610a9d611747565b610484611819565b6011602052806000526040600020600091509050806000015490806001015490806002015490806003015490806004015490806005018054610ae690611bdb565b80601f0160208091040260200160405190810160405280929190818152602001828054610b1290611bdb565b8015610b5f5780601f10610b3457610100808354040283529160200191610b5f565b820191906000526020600020905b815481529060010190602001808311610b4257829003601f168201915b505050506006830154600784015460088501546009909501549394919390925060ff808216916101009004168b565b3360008181526011602052604090206009015460ff610100909104161515600114610bf75760405162461bcd60e51b815260206004820152601960248201527815d85b1b195d081a5cc81b9bdd081dda1a5d195b1a5cdd1959603a1b60448201526064016104b0565b3360009081526011602052604090206009015460ff161515600114610c845760405162461bcd60e51b815260206004820152603960248201527f4f6e6c79207465616d2077616c6c6574732063616e207769746864726177207460448201527f6f6b656e73207573696e6720746869732066756e6374696f6e0000000000000060648201526084016104b0565b600d5460ff16610ca65760405162461bcd60e51b81526004016104b090611acd565b33600090815260116020526040902060060154610cc890630784ce0090611b35565b421015610d475760405162461bcd60e51b815260206004820152604160248201527f43616e6e6f74207769746864726177206265666f72652034207965617273206160448201527f66746572206265696e6720616464656420746f207468652077686974656c69736064820152601d60fa1b608482015260a4016104b0565b33600090815260116020526040902060070154610d69906301e1338090611b35565b421015610dcc5760405162461bcd60e51b815260206004820152602b60248201527f43616e206f6e6c79207769746864726177207465616d20746f6b656e73206f6e60448201526a31b2903832b9103cb2b0b960a91b60648201526084016104b0565b6b04d8c55aefb8c05b5c000000600a5410610e355760405162461bcd60e51b815260206004820152602360248201527f416c6c207465616d20746f6b656e732068617665206265656e2077697468647260448201526230bbb760e91b60648201526084016104b0565b33600090815260116020526040902054610e9c5760405162461bcd60e51b815260206004820152602260248201527f4e6f206879617820686f6c64696e6720616d6f756e7420746f20776974686472604482015261617760f01b60648201526084016104b0565b33600090815260116020526040812060010154610ebb90600590611d6a565b90506b04d8c55aefb8c05b5c00000081600a54610ed89190611b35565b1115610efa57600a54610ef7906b04d8c55aefb8c05b5c000000611b4e565b90505b3360009081526011602052604081208054839290610f19908490611b4e565b9250508190555080600a6000828254610f329190611b35565b9250508190555080600b6000828254610f4b9190611b4e565b9091555050336000818152601160205260409081902042600790910155600254905163a9059cbb60e01b81526004810192909252602482018390526001600160a01b03169063a9059cbb906044016020604051808303816000875af1158015610fb8573d6000803e3d6000fd5b505050506040513d601f19601f82011682018060405250810190610fdc9190611b61565b6110285760405162461bcd60e51b815260206004820152601e60248201527f4661696c656420746f207472616e73666572207465616d20746f6b656e73000060448201526064016104b0565b60408051338152602081018390527f1e63f692f0a30c3957ac289d6a44616bd119f5502eba5ae440f3158cc2c2d29191015b60405180910390a15050565b3360008181526011602052604090206009015460ff6101009091041615156001146110cf5760405162461bcd60e51b815260206004820152601960248201527815d85b1b195d081a5cc81b9bdd081dda1a5d195b1a5cdd1959603a1b60448201526064016104b0565b50565b6110da611747565b600180546001600160a01b039092166001600160a01b0319928316811790915560028054909216179055565b6000546001600160a01b03163314806111295750600f546001600160a01b031633145b6111455760405162461bcd60e51b81526004016104b090611b7e565b6001600160a01b03811660009081526011602052604090206009015460ff6101009091041615156001146111c75760405162461bcd60e51b815260206004820152602360248201527f57616c6c6574206973206e6f742063757272656e746c792077686974656c69736044820152621d195960ea1b60648201526084016104b0565b6001600160a01b038116600081815260116020908152604091829020600901805461ff00191690558151338152908101929092527f46599c811011866824fd8279b62f7509d33dedd4111da485e2ec5044b6d7ac2a9101610791565b61122b611747565b600082600281111561123f5761123f611d8c565b148061125c5750600182600281111561125a5761125a611d8c565b145b806112785750600282600281111561127657611276611d8c565b145b6112bb5760405162461bcd60e51b8152602060048201526014602482015273496e76616c69642066756e64696e67207479706560601b60448201526064016104b0565b6000811161130b5760405162461bcd60e51b815260206004820152601d60248201527f416d6f756e74206d7573742062652067726561746572207468616e203000000060448201526064016104b0565b6002546040516323b872dd60e01b8152336004820152306024820152604481018390526001600160a01b03909116906323b872dd906064016020604051808303816000875af1158015611362573d6000803e3d6000fd5b505050506040513d601f19601f820116820180604052508101906113869190611b61565b6113ec5760405162461bcd60e51b815260206004820152603160248201527f54686572652077617320616e206572726f72206f6e20726563656976696e672060448201527074686520746f6b656e2066756e64696e6760781b60648201526084016104b0565b600082600281111561140057611400611d8c565b036114f6576b07c13bc4b2c133c560000000816003546114209190611b35565b11156114a05760405162461bcd60e51b815260206004820152604360248201527f416d6f756e7420746f2066756e642069732067726561746572207468616e207460448201527f686520746f74616c20696e74656e74656420666f722067726f77746820746f6b606482015262656e7360e81b608482015260a4016104b0565b80600360008282546114b29190611b35565b9250508190555080600560008282546114cb9190611b35565b909155505060085460ff166114f1576008805460ff191660011790554260078190556006555b611629565b600182600281111561150a5761150a611d8c565b036115f8576b04d8c55aefb8c05b5c0000008160095461152a9190611b35565b11156115a85760405162461bcd60e51b815260206004820152604160248201527f416d6f756e7420746f2066756e642069732067726561746572207468616e207460448201527f686520746f74616c20696e74656e74656420666f72207465616d20746f6b656e6064820152607360f81b608482015260a4016104b0565b80600960008282546115ba9190611b35565b9250508190555080600b60008282546115d39190611b35565b9091555050600d5460ff166114f157600d805460ff1916600117905542600c55611629565b600282600281111561160c5761160c611d8c565b036116295780600e60008282546116239190611b35565b90915550505b7fbc0b9ecc68ec48681b8f5718fa26b9ce02021220455be5f5837a944140a80ea3828260405161105a929190611da2565b611662611747565b6001600160a01b0381166116c75760405162461bcd60e51b815260206004820152602660248201527f4f776e61626c653a206e6577206f776e657220697320746865207a65726f206160448201526564647265737360d01b60648201526084016104b0565b306001600160a01b0382160361173e5760405162461bcd60e51b815260206004820152603660248201527f4f776e61626c653a206e6577206f776e65722063616e6e6f74206265207468656044820152752073616d6520636f6e7472616374206164647265737360501b60648201526084016104b0565b6110cf816117c9565b6000546001600160a01b031633146104845760405163118cdaa760e01b81523360048201526024016104b0565b61177c61185c565b6000805460ff60a01b191690557f5db9ee0a495bf2e6ff9c91a7834c1ba4fdd244a5e8aa4e537bd38aeae4b073aa335b6040516001600160a01b03909116815260200160405180910390a1565b600080546001600160a01b038381166001600160a01b0319831681178455604051919092169283917f8be0079c531659141344cd1fd0a4f28419497f9722a3daafe3b4186f6b6457e09190a35050565b611821611886565b6000805460ff60a01b1916600160a01b1790557f62e78cea01bee320cd4e420270b5ea74000d11b0c9f74754ebdbfc544b05a2586117ac3390565b600054600160a01b900460ff1661048457604051638dfc202b60e01b815260040160405180910390fd5b600054600160a01b900460ff16156104845760405163d93c066560e01b815260040160405180910390fd5b80356001600160a01b03811681146118c857600080fd5b919050565b80151581146110cf57600080fd5b634e487b7160e01b600052604160045260246000fd5b6000806000806080858703121561190757600080fd5b611910856118b1565b93506020850135611920816118cd565b9250604085013567ffffffffffffffff8082111561193d57600080fd5b818701915087601f83011261195157600080fd5b813581811115611963576119636118db565b604051601f8201601f19908116603f0116810190838211818310171561198b5761198b6118db565b816040528281528a60208487010111156119a457600080fd5b826020860160208301376000928101602001929092525095989497509495606001359450505050565b6000602082840312156119df57600080fd5b6119e8826118b1565b9392505050565b6000815180845260005b81811015611a15576020818501810151868301820152016119f9565b506000602082860101526020601f19601f83011685010191505092915050565b60006101608d83528c60208401528b60408401528a60608401528960808401528060a0840152611a678184018a6119ef565b60c0840198909852505060e081019490945261010084019290925215156101208301521515610140909101529695505050505050565b60008060408385031215611ab057600080fd5b823560038110611abf57600080fd5b946020939093013593505050565b60208082526032908201527f46756e64696e6720686173206e6f742073746172746564207965742c206e6f20604082015271746f6b656e7320746f20776974686472617760701b606082015260800190565b634e487b7160e01b600052601160045260246000fd5b80820180821115611b4857611b48611b1f565b92915050565b81810381811115611b4857611b48611b1f565b600060208284031215611b7357600080fd5b81516119e8816118cd565b60208082526037908201527f46756e6374696f6e207265736572766564206f6e6c7920666f7220746865207760408201527f686974656c6973746572206f7220746865206f776e6572000000000000000000606082015260800190565b600181811c90821680611bef57607f821691505b602082108103611c0f57634e487b7160e01b600052602260045260246000fd5b50919050565b601f821115611c5f57600081815260208120601f850160051c81016020861015611c3c5750805b601f850160051c820191505b81811015611c5b57828155600101611c48565b5050505b505050565b815167ffffffffffffffff811115611c7e57611c7e6118db565b611c9281611c8c8454611bdb565b84611c15565b602080601f831160018114611cc75760008415611caf5750858301515b600019600386901b1c1916600185901b178555611c5b565b600085815260208120601f198616915b82811015611cf657888601518255948401946001909101908401611cd7565b5085821015611d145787850151600019600388901b60f8161c191681555b5050505050600190811b01905550565b6001600160a01b03868116825285166020820152831515604082015260a060608201819052600090611d58908301856119ef565b90508260808301529695505050505050565b600082611d8757634e487b7160e01b600052601260045260246000fd5b500490565b634e487b7160e01b600052602160045260246000fd5b6040810160038410611dc457634e487b7160e01b600052602160045260246000fd5b928152602001529056fea2646970667358221220f36401b1c8518f3fd7c275e5f9afbe0adb607ad7dd01be3dc0cf335ce6ee83c564736f6c63430008140033","opcodes":"PUSH1 0x80 PUSH1 0x40 MSTORE CALLVALUE DUP1 ISZERO PUSH3 0x11 JUMPI PUSH1 0x0 DUP1 REVERT JUMPDEST POP PUSH1 0x40 MLOAD PUSH3 0x2160 CODESIZE SUB DUP1 PUSH3 0x2160 DUP4 CODECOPY DUP2 ADD PUSH1 0x40 DUP2 SWAP1 MSTORE PUSH3 0x34 SWAP2 PUSH3 0x208 JUMP JUMPDEST CALLER DUP1 PUSH3 0x5C JUMPI PUSH1 0x40 MLOAD PUSH4 0x1E4FBDF7 PUSH1 0xE0 SHL DUP2 MSTORE PUSH1 0x0 PUSH1 0x4 DUP3 ADD MSTORE PUSH1 0x24 ADD JUMPDEST PUSH1 0x40 MLOAD DUP1 SWAP2 SUB SWAP1 REVERT JUMPDEST PUSH3 0x67 DUP2 PUSH3 0x1B8 JUMP JUMPDEST POP PUSH1 0x0 DUP1 SLOAD PUSH1 0xFF PUSH1 0xA0 SHL NOT AND DUP2 SSTORE PUSH1 0x1 DUP1 SLOAD PUSH1 0x1 PUSH1 0x1 PUSH1 0xA0 SHL SUB DUP5 AND PUSH1 0x1 PUSH1 0x1 PUSH1 0xA0 SHL SUB NOT SWAP2 DUP3 AND DUP2 OR SWAP1 SWAP3 SSTORE PUSH1 0x2 DUP1 SLOAD SWAP1 SWAP2 AND DUP3 OR SWAP1 SSTORE PUSH1 0x40 DUP1 MLOAD PUSH4 0x90B282B PUSH1 0xE3 SHL PUSH1 0x20 DUP1 DUP4 ADD SWAP2 SWAP1 SWAP2 MSTORE DUP3 MLOAD DUP1 DUP4 SUB PUSH1 0x4 ADD DUP2 MSTORE PUSH1 0x24 DUP4 ADD DUP1 DUP6 MSTORE DUP2 MLOAD SWAP2 SWAP1 SWAP3 ADD KECCAK256 PUSH4 0x95D89B41 PUSH1 0xE0 SHL SWAP1 SWAP2 MSTORE SWAP2 MLOAD SWAP2 SWAP4 PUSH4 0x95D89B41 SWAP3 PUSH1 0x28 DUP1 DUP5 ADD SWAP4 DUP3 SWAP1 SUB ADD DUP2 DUP7 GAS STATICCALL ISZERO DUP1 ISZERO PUSH3 0x101 JUMPI RETURNDATASIZE PUSH1 0x0 DUP1 RETURNDATACOPY RETURNDATASIZE PUSH1 0x0 REVERT JUMPDEST POP POP POP POP PUSH1 0x40 MLOAD RETURNDATASIZE PUSH1 0x0 DUP3 RETURNDATACOPY PUSH1 0x1F RETURNDATASIZE SWAP1 DUP2 ADD PUSH1 0x1F NOT AND DUP3 ADD PUSH1 0x40 MSTORE PUSH3 0x12B SWAP2 SWAP1 DUP2 ADD SWAP1 PUSH3 0x276 JUMP JUMPDEST PUSH1 0x40 MLOAD PUSH1 0x20 ADD PUSH3 0x13D SWAP2 SWAP1 PUSH3 0x32E JUMP JUMPDEST PUSH1 0x40 MLOAD PUSH1 0x20 DUP2 DUP4 SUB SUB DUP2 MSTORE SWAP1 PUSH1 0x40 MSTORE DUP1 MLOAD SWAP1 PUSH1 0x20 ADD KECCAK256 EQ PUSH3 0x1A2 JUMPI PUSH1 0x40 MLOAD PUSH3 0x461BCD PUSH1 0xE5 SHL DUP2 MSTORE PUSH1 0x20 PUSH1 0x4 DUP3 ADD MSTORE PUSH1 0x1F PUSH1 0x24 DUP3 ADD MSTORE PUSH32 0x4879617820746F6B656E2061646472657373206973206E6F742076616C696400 PUSH1 0x44 DUP3 ADD MSTORE PUSH1 0x64 ADD PUSH3 0x53 JUMP JUMPDEST POP PUSH1 0x0 PUSH1 0x3 DUP2 SWAP1 SSTORE PUSH1 0x9 DUP2 SWAP1 SSTORE PUSH1 0xE SSTORE PUSH3 0x34C JUMP JUMPDEST PUSH1 0x0 DUP1 SLOAD PUSH1 0x1 PUSH1 0x1 PUSH1 0xA0 SHL SUB DUP4 DUP2 AND PUSH1 0x1 PUSH1 0x1 PUSH1 0xA0 SHL SUB NOT DUP4 AND DUP2 OR DUP5 SSTORE PUSH1 0x40 MLOAD SWAP2 SWAP1 SWAP3 AND SWAP3 DUP4 SWAP2 PUSH32 0x8BE0079C531659141344CD1FD0A4F28419497F9722A3DAAFE3B4186F6B6457E0 SWAP2 SWAP1 LOG3 POP POP JUMP JUMPDEST PUSH1 0x0 PUSH1 0x20 DUP3 DUP5 SUB SLT ISZERO PUSH3 0x21B JUMPI PUSH1 0x0 DUP1 REVERT JUMPDEST DUP2 MLOAD PUSH1 0x1 PUSH1 0x1 PUSH1 0xA0 SHL SUB DUP2 AND DUP2 EQ PUSH3 0x233 JUMPI PUSH1 0x0 DUP1 REVERT JUMPDEST SWAP4 SWAP3 POP POP POP JUMP JUMPDEST PUSH4 0x4E487B71 PUSH1 0xE0 SHL PUSH1 0x0 MSTORE PUSH1 0x41 PUSH1 0x4 MSTORE PUSH1 0x24 PUSH1 0x0 REVERT JUMPDEST PUSH1 0x0 JUMPDEST DUP4 DUP2 LT ISZERO PUSH3 0x26D JUMPI DUP2 DUP2 ADD MLOAD DUP4 DUP3 ADD MSTORE PUSH1 0x20 ADD PUSH3 0x253 JUMP JUMPDEST POP POP PUSH1 0x0 SWAP2 ADD MSTORE JUMP JUMPDEST PUSH1 0x0 PUSH1 0x20 DUP3 DUP5 SUB SLT ISZERO PUSH3 0x289 JUMPI PUSH1 0x0 DUP1 REVERT JUMPDEST DUP2 MLOAD PUSH1 0x1 PUSH1 0x1 PUSH1 0x40 SHL SUB DUP1 DUP3 GT ISZERO PUSH3 0x2A1 JUMPI PUSH1 0x0 DUP1 REVERT JUMPDEST DUP2 DUP5 ADD SWAP2 POP DUP5 PUSH1 0x1F DUP4 ADD SLT PUSH3 0x2B6 JUMPI PUSH1 0x0 DUP1 REVERT JUMPDEST DUP2 MLOAD DUP2 DUP2 GT ISZERO PUSH3 0x2CB JUMPI PUSH3 0x2CB PUSH3 0x23A JUMP JUMPDEST PUSH1 0x40 MLOAD PUSH1 0x1F DUP3 ADD PUSH1 0x1F NOT SWAP1 DUP2 AND PUSH1 0x3F ADD AND DUP2 ADD SWAP1 DUP4 DUP3 GT DUP2 DUP4 LT OR ISZERO PUSH3 0x2F6 JUMPI PUSH3 0x2F6 PUSH3 0x23A JUMP JUMPDEST DUP2 PUSH1 0x40 MSTORE DUP3 DUP2 MSTORE DUP8 PUSH1 0x20 DUP5 DUP8 ADD ADD GT ISZERO PUSH3 0x310 JUMPI PUSH1 0x0 DUP1 REVERT JUMPDEST PUSH3 0x323 DUP4 PUSH1 0x20 DUP4 ADD PUSH1 0x20 DUP9 ADD PUSH3 0x250 JUMP JUMPDEST SWAP8 SWAP7 POP POP POP POP POP POP POP JUMP JUMPDEST PUSH1 0x0 DUP3 MLOAD PUSH3 0x342 DUP2 DUP5 PUSH1 0x20 DUP8 ADD PUSH3 0x250 JUMP JUMPDEST SWAP2 SWAP1 SWAP2 ADD SWAP3 SWAP2 POP POP JUMP JUMPDEST PUSH2 0x1E04 DUP1 PUSH3 0x35C PUSH1 0x0 CODECOPY PUSH1 0x0 RETURN INVALID PUSH1 0x80 PUSH1 0x40 MSTORE CALLVALUE DUP1 ISZERO PUSH2 0x10 JUMPI PUSH1 0x0 DUP1 REVERT JUMPDEST POP PUSH1 0x4 CALLDATASIZE LT PUSH2 0x227 JUMPI PUSH1 0x0 CALLDATALOAD PUSH1 0xE0 SHR DUP1 PUSH4 0x89B08F11 GT PUSH2 0x130 JUMPI DUP1 PUSH4 0xCE23772B GT PUSH2 0xB8 JUMPI DUP1 PUSH4 0xDCB7FF6B GT PUSH2 0x7C JUMPI DUP1 PUSH4 0xDCB7FF6B EQ PUSH2 0x42D JUMPI DUP1 PUSH4 0xF2FDE38B EQ PUSH2 0x438 JUMPI DUP1 PUSH4 0xF3793B9D EQ PUSH2 0x44B JUMPI DUP1 PUSH4 0xF8FF46C6 EQ PUSH2 0x458 JUMPI DUP1 PUSH4 0xF972C027 EQ PUSH2 0x461 JUMPI PUSH1 0x0 DUP1 REVERT JUMPDEST DUP1 PUSH4 0xCE23772B EQ PUSH2 0x3EC JUMPI DUP1 PUSH4 0xD1C02AAF EQ PUSH2 0x3FF JUMPI DUP1 PUSH4 0xD356B49A EQ PUSH2 0x408 JUMPI DUP1 PUSH4 0xD3946A8C EQ PUSH2 0x411 JUMPI DUP1 PUSH4 0xD7E57FDA EQ PUSH2 0x424 JUMPI PUSH1 0x0 DUP1 REVERT JUMPDEST DUP1 PUSH4 0x9656CD8C GT PUSH2 0xFF JUMPI DUP1 PUSH4 0x9656CD8C EQ PUSH2 0x3A8 JUMPI DUP1 PUSH4 0x97A94BA9 EQ PUSH2 0x3B1 JUMPI DUP1 PUSH4 0x9BAE9002 EQ PUSH2 0x3B9 JUMPI DUP1 PUSH4 0xA868E997 EQ PUSH2 0x3CC JUMPI DUP1 PUSH4 0xC1CC52B3 EQ PUSH2 0x3DF JUMPI PUSH1 0x0 DUP1 REVERT JUMPDEST DUP1 PUSH4 0x89B08F11 EQ PUSH2 0x353 JUMPI DUP1 PUSH4 0x8DA5CB5B EQ PUSH2 0x37D JUMPI DUP1 PUSH4 0x8E6D32DF EQ PUSH2 0x38E JUMPI DUP1 PUSH4 0x953B7EF8 EQ PUSH2 0x3A0 JUMPI PUSH1 0x0 DUP1 REVERT JUMPDEST DUP1 PUSH4 0x5C975ABB GT PUSH2 0x1B3 JUMPI DUP1 PUSH4 0x653C3A47 GT PUSH2 0x182 JUMPI DUP1 PUSH4 0x653C3A47 EQ PUSH2 0x314 JUMPI DUP1 PUSH4 0x65699D28 EQ PUSH2 0x327 JUMPI DUP1 PUSH4 0x687A83F8 EQ PUSH2 0x33A JUMPI DUP1 PUSH4 0x715018A6 EQ PUSH2 0x343 JUMPI DUP1 PUSH4 0x8456CB59 EQ PUSH2 0x34B JUMPI PUSH1 0x0 DUP1 REVERT JUMPDEST DUP1 PUSH4 0x5C975ABB EQ PUSH2 0x2DB JUMPI DUP1 PUSH4 0x5D70203B EQ PUSH2 0x2F9 JUMPI DUP1 PUSH4 0x6148C783 EQ PUSH2 0x302 JUMPI DUP1 PUSH4 0x647A5A78 EQ PUSH2 0x30B JUMPI PUSH1 0x0 DUP1 REVERT JUMPDEST DUP1 PUSH4 0x3F4BA83A GT PUSH2 0x1FA JUMPI DUP1 PUSH4 0x3F4BA83A EQ PUSH2 0x298 JUMPI DUP1 PUSH4 0x4C4DC42E EQ PUSH2 0x2A2 JUMPI DUP1 PUSH4 0x4F8EA72C EQ PUSH2 0x2AA JUMPI DUP1 PUSH4 0x5493B30D EQ PUSH2 0x2BD JUMPI DUP1 PUSH4 0x59AA8966 EQ PUSH2 0x2D0 JUMPI PUSH1 0x0 DUP1 REVERT JUMPDEST DUP1 PUSH4 0x31F6589 EQ PUSH2 0x22C JUMPI DUP1 PUSH4 0x1035FC09 EQ PUSH2 0x25C JUMPI DUP1 PUSH4 0x1E6B4028 EQ PUSH2 0x273 JUMPI DUP1 PUSH4 0x3BA10A56 EQ PUSH2 0x285 JUMPI JUMPDEST PUSH1 0x0 DUP1 REVERT JUMPDEST PUSH1 0x1 SLOAD PUSH2 0x23F SWAP1 PUSH1 0x1 PUSH1 0x1 PUSH1 0xA0 SHL SUB AND DUP2 JUMP JUMPDEST PUSH1 0x40 MLOAD PUSH1 0x1 PUSH1 0x1 PUSH1 0xA0 SHL SUB SWAP1 SWAP2 AND DUP2 MSTORE PUSH1 0x20 ADD JUMPDEST PUSH1 0x40 MLOAD DUP1 SWAP2 SUB SWAP1 RETURN JUMPDEST PUSH2 0x265 PUSH1 0xC SLOAD DUP2 JUMP JUMPDEST PUSH1 0x40 MLOAD SWAP1 DUP2 MSTORE PUSH1 0x20 ADD PUSH2 0x253 JUMP JUMPDEST PUSH2 0x265 PUSH11 0x6342FD08F00F6378000000 DUP2 JUMP JUMPDEST PUSH1 0x2 SLOAD PUSH2 0x23F SWAP1 PUSH1 0x1 PUSH1 0x1 PUSH1 0xA0 SHL SUB AND DUP2 JUMP JUMPDEST PUSH2 0x2A0 PUSH2 0x474 JUMP JUMPDEST STOP JUMPDEST PUSH2 0x2A0 PUSH2 0x486 JUMP JUMPDEST PUSH2 0x2A0 PUSH2 0x2B8 CALLDATASIZE PUSH1 0x4 PUSH2 0x18F1 JUMP JUMPDEST PUSH2 0x79C JUMP JUMPDEST PUSH2 0x265 PUSH12 0x4D8C55AEFB8C05B5C000000 DUP2 JUMP JUMPDEST PUSH2 0x265 PUSH4 0x1E13380 DUP2 JUMP JUMPDEST PUSH1 0x0 SLOAD PUSH1 0x1 PUSH1 0xA0 SHL SWAP1 DIV PUSH1 0xFF AND JUMPDEST PUSH1 0x40 MLOAD SWAP1 ISZERO ISZERO DUP2 MSTORE PUSH1 0x20 ADD PUSH2 0x253 JUMP JUMPDEST PUSH2 0x265 PUSH1 0x3 SLOAD DUP2 JUMP JUMPDEST PUSH2 0x265 PUSH1 0x4 SLOAD DUP2 JUMP JUMPDEST PUSH2 0x265 PUSH1 0xB SLOAD DUP2 JUMP JUMPDEST PUSH2 0x2A0 PUSH2 0x322 CALLDATASIZE PUSH1 0x4 PUSH2 0x19CD JUMP JUMPDEST PUSH2 0xA59 JUMP JUMPDEST PUSH1 0xF SLOAD PUSH2 0x23F SWAP1 PUSH1 0x1 PUSH1 0x1 PUSH1 0xA0 SHL SUB AND DUP2 JUMP JUMPDEST PUSH2 0x265 PUSH1 0x6 SLOAD DUP2 JUMP JUMPDEST PUSH2 0x2A0 PUSH2 0xA83 JUMP JUMPDEST PUSH2 0x2A0 PUSH2 0xA95 JUMP JUMPDEST PUSH2 0x366 PUSH2 0x361 CALLDATASIZE PUSH1 0x4 PUSH2 0x19CD JUMP JUMPDEST PUSH2 0xAA5 JUMP JUMPDEST PUSH1 0x40 MLOAD PUSH2 0x253 SWAP12 SWAP11 SWAP10 SWAP9 SWAP8 SWAP7 SWAP6 SWAP5 SWAP4 SWAP3 SWAP2 SWAP1 PUSH2 0x1A35 JUMP JUMPDEST PUSH1 0x0 SLOAD PUSH1 0x1 PUSH1 0x1 PUSH1 0xA0 SHL SUB AND PUSH2 0x23F JUMP JUMPDEST PUSH2 0x265 PUSH11 0xF8277896582678AC000000 DUP2 JUMP JUMPDEST PUSH2 0x2A0 PUSH2 0xB8E JUMP JUMPDEST PUSH2 0x265 PUSH1 0x7 SLOAD DUP2 JUMP JUMPDEST PUSH2 0x2A0 PUSH2 0x1066 JUMP JUMPDEST PUSH2 0x2A0 PUSH2 0x3C7 CALLDATASIZE PUSH1 0x4 PUSH2 0x19CD JUMP JUMPDEST PUSH2 0x10D2 JUMP JUMPDEST PUSH2 0x265 PUSH12 0x7C13BC4B2C133C560000000 DUP2 JUMP JUMPDEST PUSH1 0xD SLOAD PUSH2 0x2E9 SWAP1 PUSH1 0xFF AND DUP2 JUMP JUMPDEST PUSH2 0x2A0 PUSH2 0x3FA CALLDATASIZE PUSH1 0x4 PUSH2 0x19CD JUMP JUMPDEST PUSH2 0x1106 JUMP JUMPDEST PUSH2 0x265 PUSH1 0xE SLOAD DUP2 JUMP JUMPDEST PUSH2 0x265 PUSH1 0x5 SLOAD DUP2 JUMP JUMPDEST PUSH2 0x2A0 PUSH2 0x41F CALLDATASIZE PUSH1 0x4 PUSH2 0x1A9D JUMP JUMPDEST PUSH2 0x1223 JUMP JUMPDEST PUSH2 0x265 PUSH1 0xA SLOAD DUP2 JUMP JUMPDEST PUSH2 0x265 PUSH4 0x784CE00 DUP2 JUMP JUMPDEST PUSH2 0x2A0 PUSH2 0x446 CALLDATASIZE PUSH1 0x4 PUSH2 0x19CD JUMP JUMPDEST PUSH2 0x165A JUMP JUMPDEST PUSH1 0x8 SLOAD PUSH2 0x2E9 SWAP1 PUSH1 0xFF AND DUP2 JUMP JUMPDEST PUSH2 0x265 PUSH1 0x9 SLOAD DUP2 JUMP JUMPDEST PUSH1 0x10 SLOAD PUSH2 0x23F SWAP1 PUSH1 0x1 PUSH1 0x1 PUSH1 0xA0 SHL SUB AND DUP2 JUMP JUMPDEST PUSH2 0x47C PUSH2 0x1747 JUMP JUMPDEST PUSH2 0x484 PUSH2 0x1774 JUMP JUMPDEST JUMP JUMPDEST PUSH2 0x48E PUSH2 0x1747 JUMP JUMPDEST PUSH1 0x8 SLOAD PUSH1 0xFF AND PUSH2 0x4B9 JUMPI PUSH1 0x40 MLOAD PUSH3 0x461BCD PUSH1 0xE5 SHL DUP2 MSTORE PUSH1 0x4 ADD PUSH2 0x4B0 SWAP1 PUSH2 0x1ACD JUMP JUMPDEST PUSH1 0x40 MLOAD DUP1 SWAP2 SUB SWAP1 REVERT JUMPDEST PUSH4 0x1E13380 PUSH1 0x7 SLOAD PUSH2 0x4CB SWAP2 SWAP1 PUSH2 0x1B35 JUMP JUMPDEST TIMESTAMP LT ISZERO PUSH2 0x534 JUMPI PUSH1 0x40 MLOAD PUSH3 0x461BCD PUSH1 0xE5 SHL DUP2 MSTORE PUSH1 0x20 PUSH1 0x4 DUP3 ADD MSTORE PUSH1 0x31 PUSH1 0x24 DUP3 ADD MSTORE PUSH32 0x43616E6E6F74207769746864726177206265666F726520312079656172206166 PUSH1 0x44 DUP3 ADD MSTORE PUSH17 0x1D195C88199D5B991A5B99C81CDD185C9D PUSH1 0x7A SHL PUSH1 0x64 DUP3 ADD MSTORE PUSH1 0x84 ADD PUSH2 0x4B0 JUMP JUMPDEST PUSH12 0x7C13BC4B2C133C560000000 PUSH1 0x4 SLOAD LT PUSH2 0x59F JUMPI PUSH1 0x40 MLOAD PUSH3 0x461BCD PUSH1 0xE5 SHL DUP2 MSTORE PUSH1 0x20 PUSH1 0x4 DUP3 ADD MSTORE PUSH1 0x25 PUSH1 0x24 DUP3 ADD MSTORE PUSH32 0x416C6C2067726F77746820746F6B656E732068617665206265656E2077697468 PUSH1 0x44 DUP3 ADD MSTORE PUSH5 0x323930BBB7 PUSH1 0xD9 SHL PUSH1 0x64 DUP3 ADD MSTORE PUSH1 0x84 ADD PUSH2 0x4B0 JUMP JUMPDEST PUSH4 0x1E13380 PUSH1 0x6 SLOAD PUSH2 0x5B1 SWAP2 SWAP1 PUSH2 0x1B35 JUMP JUMPDEST TIMESTAMP LT ISZERO PUSH2 0x600 JUMPI PUSH1 0x40 MLOAD PUSH3 0x461BCD PUSH1 0xE5 SHL DUP2 MSTORE PUSH1 0x20 PUSH1 0x4 DUP3 ADD MSTORE PUSH1 0x1F PUSH1 0x24 DUP3 ADD MSTORE PUSH32 0x43616E206F6E6C79207769746864726177206F6E636520706572207965617200 PUSH1 0x44 DUP3 ADD MSTORE PUSH1 0x64 ADD PUSH2 0x4B0 JUMP JUMPDEST PUSH1 0x4 SLOAD PUSH11 0x6342FD08F00F6378000000 SWAP1 PUSH12 0x7C13BC4B2C133C560000000 SWAP1 PUSH2 0x629 SWAP1 DUP4 SWAP1 PUSH2 0x1B35 JUMP JUMPDEST GT ISZERO PUSH2 0x64B JUMPI PUSH1 0x4 SLOAD PUSH2 0x648 SWAP1 PUSH12 0x7C13BC4B2C133C560000000 PUSH2 0x1B4E JUMP JUMPDEST SWAP1 POP JUMPDEST DUP1 PUSH1 0x4 PUSH1 0x0 DUP3 DUP3 SLOAD PUSH2 0x65D SWAP2 SWAP1 PUSH2 0x1B35 JUMP JUMPDEST SWAP3 POP POP DUP2 SWAP1 SSTORE POP DUP1 PUSH1 0x5 PUSH1 0x0 DUP3 DUP3 SLOAD PUSH2 0x676 SWAP2 SWAP1 PUSH2 0x1B4E JUMP JUMPDEST SWAP1 SWAP2 SSTORE POP POP TIMESTAMP PUSH1 0x6 SSTORE PUSH1 0x2 SLOAD PUSH1 0x1 PUSH1 0x1 PUSH1 0xA0 SHL SUB AND PUSH4 0xA9059CBB PUSH2 0x6A2 PUSH1 0x0 SLOAD PUSH1 0x1 PUSH1 0x1 PUSH1 0xA0 SHL SUB AND SWAP1 JUMP JUMPDEST PUSH1 0x40 MLOAD PUSH1 0x1 PUSH1 0x1 PUSH1 0xE0 SHL SUB NOT PUSH1 0xE0 DUP5 SWAP1 SHL AND DUP2 MSTORE PUSH1 0x1 PUSH1 0x1 PUSH1 0xA0 SHL SUB SWAP1 SWAP2 AND PUSH1 0x4 DUP3 ADD MSTORE PUSH1 0x24 DUP2 ADD DUP5 SWAP1 MSTORE PUSH1 0x44 ADD PUSH1 0x20 PUSH1 0x40 MLOAD DUP1 DUP4 SUB DUP2 PUSH1 0x0 DUP8 GAS CALL ISZERO DUP1 ISZERO PUSH2 0x6EF JUMPI RETURNDATASIZE PUSH1 0x0 DUP1 RETURNDATACOPY RETURNDATASIZE PUSH1 0x0 REVERT JUMPDEST POP POP POP POP PUSH1 0x40 MLOAD RETURNDATASIZE PUSH1 0x1F NOT PUSH1 0x1F DUP3 ADD AND DUP3 ADD DUP1 PUSH1 0x40 MSTORE POP DUP2 ADD SWAP1 PUSH2 0x713 SWAP2 SWAP1 PUSH2 0x1B61 JUMP JUMPDEST PUSH2 0x75F JUMPI PUSH1 0x40 MLOAD PUSH3 0x461BCD PUSH1 0xE5 SHL DUP2 MSTORE PUSH1 0x20 PUSH1 0x4 DUP3 ADD DUP2 SWAP1 MSTORE PUSH1 0x24 DUP3 ADD MSTORE PUSH32 0x4661696C656420746F207472616E736665722067726F77746820746F6B656E73 PUSH1 0x44 DUP3 ADD MSTORE PUSH1 0x64 ADD PUSH2 0x4B0 JUMP JUMPDEST PUSH1 0x40 DUP1 MLOAD CALLER DUP2 MSTORE PUSH1 0x20 DUP2 ADD DUP4 SWAP1 MSTORE PUSH32 0xD0A5227BFA49CF178A8F7A87B90318EF05FC8330F469E0DCCBE075784F426DBF SWAP2 ADD JUMPDEST PUSH1 0x40 MLOAD DUP1 SWAP2 SUB SWAP1 LOG1 POP JUMP JUMPDEST PUSH1 0x0 SLOAD PUSH1 0x1 PUSH1 0x1 PUSH1 0xA0 SHL SUB AND CALLER EQ DUP1 PUSH2 0x7BF JUMPI POP PUSH1 0xF SLOAD PUSH1 0x1 PUSH1 0x1 PUSH1 0xA0 SHL SUB AND CALLER EQ JUMPDEST PUSH2 0x7DB JUMPI PUSH1 0x40 MLOAD PUSH3 0x461BCD PUSH1 0xE5 SHL DUP2 MSTORE PUSH1 0x4 ADD PUSH2 0x4B0 SWAP1 PUSH2 0x1B7E JUMP JUMPDEST PUSH1 0x1 PUSH1 0x1 PUSH1 0xA0 SHL SUB DUP5 AND PUSH1 0x0 SWAP1 DUP2 MSTORE PUSH1 0x11 PUSH1 0x20 MSTORE PUSH1 0x40 SWAP1 KECCAK256 PUSH1 0x9 ADD SLOAD PUSH2 0x100 SWAP1 DIV PUSH1 0xFF AND ISZERO PUSH2 0x84C JUMPI PUSH1 0x40 MLOAD PUSH3 0x461BCD PUSH1 0xE5 SHL DUP2 MSTORE PUSH1 0x20 PUSH1 0x4 DUP3 ADD MSTORE PUSH1 0x1D PUSH1 0x24 DUP3 ADD MSTORE PUSH32 0x57616C6C657420697320616C72656164792077686974656C6973746564000000 PUSH1 0x44 DUP3 ADD MSTORE PUSH1 0x64 ADD PUSH2 0x4B0 JUMP JUMPDEST PUSH1 0x1 PUSH1 0x1 PUSH1 0xA0 SHL SUB DUP5 AND PUSH1 0x0 SWAP1 DUP2 MSTORE PUSH1 0x11 PUSH1 0x20 MSTORE PUSH1 0x40 SWAP1 KECCAK256 PUSH1 0x9 DUP2 ADD DUP1 SLOAD DUP6 ISZERO ISZERO PUSH2 0xFFFF NOT SWAP1 SWAP2 AND OR PUSH2 0x100 OR SWAP1 SSTORE PUSH1 0x5 ADD PUSH2 0x888 DUP4 DUP3 PUSH2 0x1C64 JUMP JUMPDEST POP PUSH1 0x1 PUSH1 0x1 PUSH1 0xA0 SHL SUB DUP5 AND PUSH1 0x0 SWAP1 DUP2 MSTORE PUSH1 0x11 PUSH1 0x20 MSTORE PUSH1 0x40 DUP2 KECCAK256 TIMESTAMP PUSH1 0x6 DUP3 ADD SSTORE PUSH1 0x7 DUP2 ADD DUP3 SWAP1 SSTORE PUSH1 0x8 DUP2 ADD DUP3 SWAP1 SSTORE PUSH1 0x3 DUP2 ADD DUP3 SWAP1 SSTORE PUSH1 0x2 DUP2 ADD DUP3 SWAP1 SSTORE PUSH1 0x4 ADD SSTORE DUP3 ISZERO PUSH2 0xA14 JUMPI PUSH1 0x0 DUP2 GT PUSH2 0x951 JUMPI PUSH1 0x40 MLOAD PUSH3 0x461BCD PUSH1 0xE5 SHL DUP2 MSTORE PUSH1 0x20 PUSH1 0x4 DUP3 ADD MSTORE PUSH1 0x44 PUSH1 0x24 DUP3 ADD DUP2 SWAP1 MSTORE PUSH32 0x5465616D2077616C6C657473206D757374206265206164646564207769746820 SWAP1 DUP3 ADD MSTORE PUSH32 0x61206879617820686F6C64696E6720616D6F756E742067726561746572207468 PUSH1 0x64 DUP3 ADD MSTORE PUSH4 0x616E203 PUSH1 0xE4 SHL PUSH1 0x84 DUP3 ADD MSTORE PUSH1 0xA4 ADD PUSH2 0x4B0 JUMP JUMPDEST PUSH12 0x4D8C55AEFB8C05B5C000000 DUP2 GT ISZERO PUSH2 0x9F1 JUMPI PUSH1 0x40 MLOAD PUSH3 0x461BCD PUSH1 0xE5 SHL DUP2 MSTORE PUSH1 0x20 PUSH1 0x4 DUP3 ADD MSTORE PUSH1 0x55 PUSH1 0x24 DUP3 ADD MSTORE PUSH32 0x5465616D2077616C6C657473206D757374206265206164646564207769746820 PUSH1 0x44 DUP3 ADD MSTORE PUSH32 0x61206879617820686F6C64696E6720616D6F756E74206C657373207468616E20 PUSH1 0x64 DUP3 ADD MSTORE PUSH21 0x74686520746F74616C207465616D20746F6B656E73 PUSH1 0x58 SHL PUSH1 0x84 DUP3 ADD MSTORE PUSH1 0xA4 ADD PUSH2 0x4B0 JUMP JUMPDEST PUSH1 0x1 PUSH1 0x1 PUSH1 0xA0 SHL SUB DUP5 AND PUSH1 0x0 SWAP1 DUP2 MSTORE PUSH1 0x11 PUSH1 0x20 MSTORE PUSH1 0x40 SWAP1 KECCAK256 PUSH1 0x1 DUP2 ADD DUP3 SWAP1 SSTORE DUP2 SWAP1 SSTORE JUMPDEST PUSH32 0x959AC3B35C0501D63161CF11F0E2BB784F4D0E01AE7B9FF879622579863516AC CALLER DUP6 DUP6 DUP6 DUP6 PUSH1 0x40 MLOAD PUSH2 0xA4B SWAP6 SWAP5 SWAP4 SWAP3 SWAP2 SWAP1 PUSH2 0x1D24 JUMP JUMPDEST PUSH1 0x40 MLOAD DUP1 SWAP2 SUB SWAP1 LOG1 POP POP POP POP JUMP JUMPDEST PUSH2 0xA61 PUSH2 0x1747 JUMP JUMPDEST PUSH1 0xF DUP1 SLOAD PUSH1 0x1 PUSH1 0x1 PUSH1 0xA0 SHL SUB NOT AND PUSH1 0x1 PUSH1 0x1 PUSH1 0xA0 SHL SUB SWAP3 SWAP1 SWAP3 AND SWAP2 SWAP1 SWAP2 OR SWAP1 SSTORE JUMP JUMPDEST PUSH2 0xA8B PUSH2 0x1747 JUMP JUMPDEST PUSH2 0x484 PUSH1 0x0 PUSH2 0x17C9 JUMP JUMPDEST PUSH2 0xA9D PUSH2 0x1747 JUMP JUMPDEST PUSH2 0x484 PUSH2 0x1819 JUMP JUMPDEST PUSH1 0x11 PUSH1 0x20 MSTORE DUP1 PUSH1 0x0 MSTORE PUSH1 0x40 PUSH1 0x0 KECCAK256 PUSH1 0x0 SWAP2 POP SWAP1 POP DUP1 PUSH1 0x0 ADD SLOAD SWAP1 DUP1 PUSH1 0x1 ADD SLOAD SWAP1 DUP1 PUSH1 0x2 ADD SLOAD SWAP1 DUP1 PUSH1 0x3 ADD SLOAD SWAP1 DUP1 PUSH1 0x4 ADD SLOAD SWAP1 DUP1 PUSH1 0x5 ADD DUP1 SLOAD PUSH2 0xAE6 SWAP1 PUSH2 0x1BDB JUMP JUMPDEST DUP1 PUSH1 0x1F ADD PUSH1 0x20 DUP1 SWAP2 DIV MUL PUSH1 0x20 ADD PUSH1 0x40 MLOAD SWAP1 DUP2 ADD PUSH1 0x40 MSTORE DUP1 SWAP3 SWAP2 SWAP1 DUP2 DUP2 MSTORE PUSH1 0x20 ADD DUP3 DUP1 SLOAD PUSH2 0xB12 SWAP1 PUSH2 0x1BDB JUMP JUMPDEST DUP1 ISZERO PUSH2 0xB5F JUMPI DUP1 PUSH1 0x1F LT PUSH2 0xB34 JUMPI PUSH2 0x100 DUP1 DUP4 SLOAD DIV MUL DUP4 MSTORE SWAP2 PUSH1 0x20 ADD SWAP2 PUSH2 0xB5F JUMP JUMPDEST DUP3 ADD SWAP2 SWAP1 PUSH1 0x0 MSTORE PUSH1 0x20 PUSH1 0x0 KECCAK256 SWAP1 JUMPDEST DUP2 SLOAD DUP2 MSTORE SWAP1 PUSH1 0x1 ADD SWAP1 PUSH1 0x20 ADD DUP1 DUP4 GT PUSH2 0xB42 JUMPI DUP3 SWAP1 SUB PUSH1 0x1F AND DUP3 ADD SWAP2 JUMPDEST POP POP POP POP PUSH1 0x6 DUP4 ADD SLOAD PUSH1 0x7 DUP5 ADD SLOAD PUSH1 0x8 DUP6 ADD SLOAD PUSH1 0x9 SWAP1 SWAP6 ADD SLOAD SWAP4 SWAP5 SWAP2 SWAP4 SWAP1 SWAP3 POP PUSH1 0xFF DUP1 DUP3 AND SWAP2 PUSH2 0x100 SWAP1 DIV AND DUP12 JUMP JUMPDEST CALLER PUSH1 0x0 DUP2 DUP2 MSTORE PUSH1 0x11 PUSH1 0x20 MSTORE PUSH1 0x40 SWAP1 KECCAK256 PUSH1 0x9 ADD SLOAD PUSH1 0xFF PUSH2 0x100 SWAP1 SWAP2 DIV AND ISZERO ISZERO PUSH1 0x1 EQ PUSH2 0xBF7 JUMPI PUSH1 0x40 MLOAD PUSH3 0x461BCD PUSH1 0xE5 SHL DUP2 MSTORE PUSH1 0x20 PUSH1 0x4 DUP3 ADD MSTORE PUSH1 0x19 PUSH1 0x24 DUP3 ADD MSTORE PUSH25 0x15D85B1B195D081A5CC81B9BDD081DDA1A5D195B1A5CDD1959 PUSH1 0x3A SHL PUSH1 0x44 DUP3 ADD MSTORE PUSH1 0x64 ADD PUSH2 0x4B0 JUMP JUMPDEST CALLER PUSH1 0x0 SWAP1 DUP2 MSTORE PUSH1 0x11 PUSH1 0x20 MSTORE PUSH1 0x40 SWAP1 KECCAK256 PUSH1 0x9 ADD SLOAD PUSH1 0xFF AND ISZERO ISZERO PUSH1 0x1 EQ PUSH2 0xC84 JUMPI PUSH1 0x40 MLOAD PUSH3 0x461BCD PUSH1 0xE5 SHL DUP2 MSTORE PUSH1 0x20 PUSH1 0x4 DUP3 ADD MSTORE PUSH1 0x39 PUSH1 0x24 DUP3 ADD MSTORE PUSH32 0x4F6E6C79207465616D2077616C6C6574732063616E2077697468647261772074 PUSH1 0x44 DUP3 ADD MSTORE PUSH32 0x6F6B656E73207573696E6720746869732066756E6374696F6E00000000000000 PUSH1 0x64 DUP3 ADD MSTORE PUSH1 0x84 ADD PUSH2 0x4B0 JUMP JUMPDEST PUSH1 0xD SLOAD PUSH1 0xFF AND PUSH2 0xCA6 JUMPI PUSH1 0x40 MLOAD PUSH3 0x461BCD PUSH1 0xE5 SHL DUP2 MSTORE PUSH1 0x4 ADD PUSH2 0x4B0 SWAP1 PUSH2 0x1ACD JUMP JUMPDEST CALLER PUSH1 0x0 SWAP1 DUP2 MSTORE PUSH1 0x11 PUSH1 0x20 MSTORE PUSH1 0x40 SWAP1 KECCAK256 PUSH1 0x6 ADD SLOAD PUSH2 0xCC8 SWAP1 PUSH4 0x784CE00 SWAP1 PUSH2 0x1B35 JUMP JUMPDEST TIMESTAMP LT ISZERO PUSH2 0xD47 JUMPI PUSH1 0x40 MLOAD PUSH3 0x461BCD PUSH1 0xE5 SHL DUP2 MSTORE PUSH1 0x20 PUSH1 0x4 DUP3 ADD MSTORE PUSH1 0x41 PUSH1 0x24 DUP3 ADD MSTORE PUSH32 0x43616E6E6F74207769746864726177206265666F726520342079656172732061 PUSH1 0x44 DUP3 ADD MSTORE PUSH32 0x66746572206265696E6720616464656420746F207468652077686974656C6973 PUSH1 0x64 DUP3 ADD MSTORE PUSH1 0x1D PUSH1 0xFA SHL PUSH1 0x84 DUP3 ADD MSTORE PUSH1 0xA4 ADD PUSH2 0x4B0 JUMP JUMPDEST CALLER PUSH1 0x0 SWAP1 DUP2 MSTORE PUSH1 0x11 PUSH1 0x20 MSTORE PUSH1 0x40 SWAP1 KECCAK256 PUSH1 0x7 ADD SLOAD PUSH2 0xD69 SWAP1 PUSH4 0x1E13380 SWAP1 PUSH2 0x1B35 JUMP JUMPDEST TIMESTAMP LT ISZERO PUSH2 0xDCC JUMPI PUSH1 0x40 MLOAD PUSH3 0x461BCD PUSH1 0xE5 SHL DUP2 MSTORE PUSH1 0x20 PUSH1 0x4 DUP3 ADD MSTORE PUSH1 0x2B PUSH1 0x24 DUP3 ADD MSTORE PUSH32 0x43616E206F6E6C79207769746864726177207465616D20746F6B656E73206F6E PUSH1 0x44 DUP3 ADD MSTORE PUSH11 0x31B2903832B9103CB2B0B9 PUSH1 0xA9 SHL PUSH1 0x64 DUP3 ADD MSTORE PUSH1 0x84 ADD PUSH2 0x4B0 JUMP JUMPDEST PUSH12 0x4D8C55AEFB8C05B5C000000 PUSH1 0xA SLOAD LT PUSH2 0xE35 JUMPI PUSH1 0x40 MLOAD PUSH3 0x461BCD PUSH1 0xE5 SHL DUP2 MSTORE PUSH1 0x20 PUSH1 0x4 DUP3 ADD MSTORE PUSH1 0x23 PUSH1 0x24 DUP3 ADD MSTORE PUSH32 0x416C6C207465616D20746F6B656E732068617665206265656E20776974686472 PUSH1 0x44 DUP3 ADD MSTORE PUSH3 0x30BBB7 PUSH1 0xE9 SHL PUSH1 0x64 DUP3 ADD MSTORE PUSH1 0x84 ADD PUSH2 0x4B0 JUMP JUMPDEST CALLER PUSH1 0x0 SWAP1 DUP2 MSTORE PUSH1 0x11 PUSH1 0x20 MSTORE PUSH1 0x40 SWAP1 KECCAK256 SLOAD PUSH2 0xE9C JUMPI PUSH1 0x40 MLOAD PUSH3 0x461BCD PUSH1 0xE5 SHL DUP2 MSTORE PUSH1 0x20 PUSH1 0x4 DUP3 ADD MSTORE PUSH1 0x22 PUSH1 0x24 DUP3 ADD MSTORE PUSH32 0x4E6F206879617820686F6C64696E6720616D6F756E7420746F20776974686472 PUSH1 0x44 DUP3 ADD MSTORE PUSH2 0x6177 PUSH1 0xF0 SHL PUSH1 0x64 DUP3 ADD MSTORE PUSH1 0x84 ADD PUSH2 0x4B0 JUMP JUMPDEST CALLER PUSH1 0x0 SWAP1 DUP2 MSTORE PUSH1 0x11 PUSH1 0x20 MSTORE PUSH1 0x40 DUP2 KECCAK256 PUSH1 0x1 ADD SLOAD PUSH2 0xEBB SWAP1 PUSH1 0x5 SWAP1 PUSH2 0x1D6A JUMP JUMPDEST SWAP1 POP PUSH12 0x4D8C55AEFB8C05B5C000000 DUP2 PUSH1 0xA SLOAD PUSH2 0xED8 SWAP2 SWAP1 PUSH2 0x1B35 JUMP JUMPDEST GT ISZERO PUSH2 0xEFA JUMPI PUSH1 0xA SLOAD PUSH2 0xEF7 SWAP1 PUSH12 0x4D8C55AEFB8C05B5C000000 PUSH2 0x1B4E JUMP JUMPDEST SWAP1 POP JUMPDEST CALLER PUSH1 0x0 SWAP1 DUP2 MSTORE PUSH1 0x11 PUSH1 0x20 MSTORE PUSH1 0x40 DUP2 KECCAK256 DUP1 SLOAD DUP4 SWAP3 SWAP1 PUSH2 0xF19 SWAP1 DUP5 SWAP1 PUSH2 0x1B4E JUMP JUMPDEST SWAP3 POP POP DUP2 SWAP1 SSTORE POP DUP1 PUSH1 0xA PUSH1 0x0 DUP3 DUP3 SLOAD PUSH2 0xF32 SWAP2 SWAP1 PUSH2 0x1B35 JUMP JUMPDEST SWAP3 POP POP DUP2 SWAP1 SSTORE POP DUP1 PUSH1 0xB PUSH1 0x0 DUP3 DUP3 SLOAD PUSH2 0xF4B SWAP2 SWAP1 PUSH2 0x1B4E JUMP JUMPDEST SWAP1 SWAP2 SSTORE POP POP CALLER PUSH1 0x0 DUP2 DUP2 MSTORE PUSH1 0x11 PUSH1 0x20 MSTORE PUSH1 0x40 SWAP1 DUP2 SWAP1 KECCAK256 TIMESTAMP PUSH1 0x7 SWAP1 SWAP2 ADD SSTORE PUSH1 0x2 SLOAD SWAP1 MLOAD PUSH4 0xA9059CBB PUSH1 0xE0 SHL DUP2 MSTORE PUSH1 0x4 DUP2 ADD SWAP3 SWAP1 SWAP3 MSTORE PUSH1 0x24 DUP3 ADD DUP4 SWAP1 MSTORE PUSH1 0x1 PUSH1 0x1 PUSH1 0xA0 SHL SUB AND SWAP1 PUSH4 0xA9059CBB SWAP1 PUSH1 0x44 ADD PUSH1 0x20 PUSH1 0x40 MLOAD DUP1 DUP4 SUB DUP2 PUSH1 0x0 DUP8 GAS CALL ISZERO DUP1 ISZERO PUSH2 0xFB8 JUMPI RETURNDATASIZE PUSH1 0x0 DUP1 RETURNDATACOPY RETURNDATASIZE PUSH1 0x0 REVERT JUMPDEST POP POP POP POP PUSH1 0x40 MLOAD RETURNDATASIZE PUSH1 0x1F NOT PUSH1 0x1F DUP3 ADD AND DUP3 ADD DUP1 PUSH1 0x40 MSTORE POP DUP2 ADD SWAP1 PUSH2 0xFDC SWAP2 SWAP1 PUSH2 0x1B61 JUMP JUMPDEST PUSH2 0x1028 JUMPI PUSH1 0x40 MLOAD PUSH3 0x461BCD PUSH1 0xE5 SHL DUP2 MSTORE PUSH1 0x20 PUSH1 0x4 DUP3 ADD MSTORE PUSH1 0x1E PUSH1 0x24 DUP3 ADD MSTORE PUSH32 0x4661696C656420746F207472616E73666572207465616D20746F6B656E730000 PUSH1 0x44 DUP3 ADD MSTORE PUSH1 0x64 ADD PUSH2 0x4B0 JUMP JUMPDEST PUSH1 0x40 DUP1 MLOAD CALLER DUP2 MSTORE PUSH1 0x20 DUP2 ADD DUP4 SWAP1 MSTORE PUSH32 0x1E63F692F0A30C3957AC289D6A44616BD119F5502EBA5AE440F3158CC2C2D291 SWAP2 ADD JUMPDEST PUSH1 0x40 MLOAD DUP1 SWAP2 SUB SWAP1 LOG1 POP POP JUMP JUMPDEST CALLER PUSH1 0x0 DUP2 DUP2 MSTORE PUSH1 0x11 PUSH1 0x20 MSTORE PUSH1 0x40 SWAP1 KECCAK256 PUSH1 0x9 ADD SLOAD PUSH1 0xFF PUSH2 0x100 SWAP1 SWAP2 DIV AND ISZERO ISZERO PUSH1 0x1 EQ PUSH2 0x10CF JUMPI PUSH1 0x40 MLOAD PUSH3 0x461BCD PUSH1 0xE5 SHL DUP2 MSTORE PUSH1 0x20 PUSH1 0x4 DUP3 ADD MSTORE PUSH1 0x19 PUSH1 0x24 DUP3 ADD MSTORE PUSH25 0x15D85B1B195D081A5CC81B9BDD081DDA1A5D195B1A5CDD1959 PUSH1 0x3A SHL PUSH1 0x44 DUP3 ADD MSTORE PUSH1 0x64 ADD PUSH2 0x4B0 JUMP JUMPDEST POP JUMP JUMPDEST PUSH2 0x10DA PUSH2 0x1747 JUMP JUMPDEST PUSH1 0x1 DUP1 SLOAD PUSH1 0x1 PUSH1 0x1 PUSH1 0xA0 SHL SUB SWAP1 SWAP3 AND PUSH1 0x1 PUSH1 0x1 PUSH1 0xA0 SHL SUB NOT SWAP3 DUP4 AND DUP2 OR SWAP1 SWAP2 SSTORE PUSH1 0x2 DUP1 SLOAD SWAP1 SWAP3 AND OR SWAP1 SSTORE JUMP JUMPDEST PUSH1 0x0 SLOAD PUSH1 0x1 PUSH1 0x1 PUSH1 0xA0 SHL SUB AND CALLER EQ DUP1 PUSH2 0x1129 JUMPI POP PUSH1 0xF SLOAD PUSH1 0x1 PUSH1 0x1 PUSH1 0xA0 SHL SUB AND CALLER EQ JUMPDEST PUSH2 0x1145 JUMPI PUSH1 0x40 MLOAD PUSH3 0x461BCD PUSH1 0xE5 SHL DUP2 MSTORE PUSH1 0x4 ADD PUSH2 0x4B0 SWAP1 PUSH2 0x1B7E JUMP JUMPDEST PUSH1 0x1 PUSH1 0x1 PUSH1 0xA0 SHL SUB DUP2 AND PUSH1 0x0 SWAP1 DUP2 MSTORE PUSH1 0x11 PUSH1 0x20 MSTORE PUSH1 0x40 SWAP1 KECCAK256 PUSH1 0x9 ADD SLOAD PUSH1 0xFF PUSH2 0x100 SWAP1 SWAP2 DIV AND ISZERO ISZERO PUSH1 0x1 EQ PUSH2 0x11C7 JUMPI PUSH1 0x40 MLOAD PUSH3 0x461BCD PUSH1 0xE5 SHL DUP2 MSTORE PUSH1 0x20 PUSH1 0x4 DUP3 ADD MSTORE PUSH1 0x23 PUSH1 0x24 DUP3 ADD MSTORE PUSH32 0x57616C6C6574206973206E6F742063757272656E746C792077686974656C6973 PUSH1 0x44 DUP3 ADD MSTORE PUSH3 0x1D1959 PUSH1 0xEA SHL PUSH1 0x64 DUP3 ADD MSTORE PUSH1 0x84 ADD PUSH2 0x4B0 JUMP JUMPDEST PUSH1 0x1 PUSH1 0x1 PUSH1 0xA0 SHL SUB DUP2 AND PUSH1 0x0 DUP2 DUP2 MSTORE PUSH1 0x11 PUSH1 0x20 SWAP1 DUP2 MSTORE PUSH1 0x40 SWAP2 DUP3 SWAP1 KECCAK256 PUSH1 0x9 ADD DUP1 SLOAD PUSH2 0xFF00 NOT AND SWAP1 SSTORE DUP2 MLOAD CALLER DUP2 MSTORE SWAP1 DUP2 ADD SWAP3 SWAP1 SWAP3 MSTORE PUSH32 0x46599C811011866824FD8279B62F7509D33DEDD4111DA485E2EC5044B6D7AC2A SWAP2 ADD PUSH2 0x791 JUMP JUMPDEST PUSH2 0x122B PUSH2 0x1747 JUMP JUMPDEST PUSH1 0x0 DUP3 PUSH1 0x2 DUP2 GT ISZERO PUSH2 0x123F JUMPI PUSH2 0x123F PUSH2 0x1D8C JUMP JUMPDEST EQ DUP1 PUSH2 0x125C JUMPI POP PUSH1 0x1 DUP3 PUSH1 0x2 DUP2 GT ISZERO PUSH2 0x125A JUMPI PUSH2 0x125A PUSH2 0x1D8C JUMP JUMPDEST EQ JUMPDEST DUP1 PUSH2 0x1278 JUMPI POP PUSH1 0x2 DUP3 PUSH1 0x2 DUP2 GT ISZERO PUSH2 0x1276 JUMPI PUSH2 0x1276 PUSH2 0x1D8C JUMP JUMPDEST EQ JUMPDEST PUSH2 0x12BB JUMPI PUSH1 0x40 MLOAD PUSH3 0x461BCD PUSH1 0xE5 SHL DUP2 MSTORE PUSH1 0x20 PUSH1 0x4 DUP3 ADD MSTORE PUSH1 0x14 PUSH1 0x24 DUP3 ADD MSTORE PUSH20 0x496E76616C69642066756E64696E672074797065 PUSH1 0x60 SHL PUSH1 0x44 DUP3 ADD MSTORE PUSH1 0x64 ADD PUSH2 0x4B0 JUMP JUMPDEST PUSH1 0x0 DUP2 GT PUSH2 0x130B JUMPI PUSH1 0x40 MLOAD PUSH3 0x461BCD PUSH1 0xE5 SHL DUP2 MSTORE PUSH1 0x20 PUSH1 0x4 DUP3 ADD MSTORE PUSH1 0x1D PUSH1 0x24 DUP3 ADD MSTORE PUSH32 0x416D6F756E74206D7573742062652067726561746572207468616E2030000000 PUSH1 0x44 DUP3 ADD MSTORE PUSH1 0x64 ADD PUSH2 0x4B0 JUMP JUMPDEST PUSH1 0x2 SLOAD PUSH1 0x40 MLOAD PUSH4 0x23B872DD PUSH1 0xE0 SHL DUP2 MSTORE CALLER PUSH1 0x4 DUP3 ADD MSTORE ADDRESS PUSH1 0x24 DUP3 ADD MSTORE PUSH1 0x44 DUP2 ADD DUP4 SWAP1 MSTORE PUSH1 0x1 PUSH1 0x1 PUSH1 0xA0 SHL SUB SWAP1 SWAP2 AND SWAP1 PUSH4 0x23B872DD SWAP1 PUSH1 0x64 ADD PUSH1 0x20 PUSH1 0x40 MLOAD DUP1 DUP4 SUB DUP2 PUSH1 0x0 DUP8 GAS CALL ISZERO DUP1 ISZERO PUSH2 0x1362 JUMPI RETURNDATASIZE PUSH1 0x0 DUP1 RETURNDATACOPY RETURNDATASIZE PUSH1 0x0 REVERT JUMPDEST POP POP POP POP PUSH1 0x40 MLOAD RETURNDATASIZE PUSH1 0x1F NOT PUSH1 0x1F DUP3 ADD AND DUP3 ADD DUP1 PUSH1 0x40 MSTORE POP DUP2 ADD SWAP1 PUSH2 0x1386 SWAP2 SWAP1 PUSH2 0x1B61 JUMP JUMPDEST PUSH2 0x13EC JUMPI PUSH1 0x40 MLOAD PUSH3 0x461BCD PUSH1 0xE5 SHL DUP2 MSTORE PUSH1 0x20 PUSH1 0x4 DUP3 ADD MSTORE PUSH1 0x31 PUSH1 0x24 DUP3 ADD MSTORE PUSH32 0x54686572652077617320616E206572726F72206F6E20726563656976696E6720 PUSH1 0x44 DUP3 ADD MSTORE PUSH17 0x74686520746F6B656E2066756E64696E67 PUSH1 0x78 SHL PUSH1 0x64 DUP3 ADD MSTORE PUSH1 0x84 ADD PUSH2 0x4B0 JUMP JUMPDEST PUSH1 0x0 DUP3 PUSH1 0x2 DUP2 GT ISZERO PUSH2 0x1400 JUMPI PUSH2 0x1400 PUSH2 0x1D8C JUMP JUMPDEST SUB PUSH2 0x14F6 JUMPI PUSH12 0x7C13BC4B2C133C560000000 DUP2 PUSH1 0x3 SLOAD PUSH2 0x1420 SWAP2 SWAP1 PUSH2 0x1B35 JUMP JUMPDEST GT ISZERO PUSH2 0x14A0 JUMPI PUSH1 0x40 MLOAD PUSH3 0x461BCD PUSH1 0xE5 SHL DUP2 MSTORE PUSH1 0x20 PUSH1 0x4 DUP3 ADD MSTORE PUSH1 0x43 PUSH1 0x24 DUP3 ADD MSTORE PUSH32 0x416D6F756E7420746F2066756E642069732067726561746572207468616E2074 PUSH1 0x44 DUP3 ADD MSTORE PUSH32 0x686520746F74616C20696E74656E74656420666F722067726F77746820746F6B PUSH1 0x64 DUP3 ADD MSTORE PUSH3 0x656E73 PUSH1 0xE8 SHL PUSH1 0x84 DUP3 ADD MSTORE PUSH1 0xA4 ADD PUSH2 0x4B0 JUMP JUMPDEST DUP1 PUSH1 0x3 PUSH1 0x0 DUP3 DUP3 SLOAD PUSH2 0x14B2 SWAP2 SWAP1 PUSH2 0x1B35 JUMP JUMPDEST SWAP3 POP POP DUP2 SWAP1 SSTORE POP DUP1 PUSH1 0x5 PUSH1 0x0 DUP3 DUP3 SLOAD PUSH2 0x14CB SWAP2 SWAP1 PUSH2 0x1B35 JUMP JUMPDEST SWAP1 SWAP2 SSTORE POP POP PUSH1 0x8 SLOAD PUSH1 0xFF AND PUSH2 0x14F1 JUMPI PUSH1 0x8 DUP1 SLOAD PUSH1 0xFF NOT AND PUSH1 0x1 OR SWAP1 SSTORE TIMESTAMP PUSH1 0x7 DUP2 SWAP1 SSTORE PUSH1 0x6 SSTORE JUMPDEST PUSH2 0x1629 JUMP JUMPDEST PUSH1 0x1 DUP3 PUSH1 0x2 DUP2 GT ISZERO PUSH2 0x150A JUMPI PUSH2 0x150A PUSH2 0x1D8C JUMP JUMPDEST SUB PUSH2 0x15F8 JUMPI PUSH12 0x4D8C55AEFB8C05B5C000000 DUP2 PUSH1 0x9 SLOAD PUSH2 0x152A SWAP2 SWAP1 PUSH2 0x1B35 JUMP JUMPDEST GT ISZERO PUSH2 0x15A8 JUMPI PUSH1 0x40 MLOAD PUSH3 0x461BCD PUSH1 0xE5 SHL DUP2 MSTORE PUSH1 0x20 PUSH1 0x4 DUP3 ADD MSTORE PUSH1 0x41 PUSH1 0x24 DUP3 ADD MSTORE PUSH32 0x416D6F756E7420746F2066756E642069732067726561746572207468616E2074 PUSH1 0x44 DUP3 ADD MSTORE PUSH32 0x686520746F74616C20696E74656E74656420666F72207465616D20746F6B656E PUSH1 0x64 DUP3 ADD MSTORE PUSH1 0x73 PUSH1 0xF8 SHL PUSH1 0x84 DUP3 ADD MSTORE PUSH1 0xA4 ADD PUSH2 0x4B0 JUMP JUMPDEST DUP1 PUSH1 0x9 PUSH1 0x0 DUP3 DUP3 SLOAD PUSH2 0x15BA SWAP2 SWAP1 PUSH2 0x1B35 JUMP JUMPDEST SWAP3 POP POP DUP2 SWAP1 SSTORE POP DUP1 PUSH1 0xB PUSH1 0x0 DUP3 DUP3 SLOAD PUSH2 0x15D3 SWAP2 SWAP1 PUSH2 0x1B35 JUMP JUMPDEST SWAP1 SWAP2 SSTORE POP POP PUSH1 0xD SLOAD PUSH1 0xFF AND PUSH2 0x14F1 JUMPI PUSH1 0xD DUP1 SLOAD PUSH1 0xFF NOT AND PUSH1 0x1 OR SWAP1 SSTORE TIMESTAMP PUSH1 0xC SSTORE PUSH2 0x1629 JUMP JUMPDEST PUSH1 0x2 DUP3 PUSH1 0x2 DUP2 GT ISZERO PUSH2 0x160C JUMPI PUSH2 0x160C PUSH2 0x1D8C JUMP JUMPDEST SUB PUSH2 0x1629 JUMPI DUP1 PUSH1 0xE PUSH1 0x0 DUP3 DUP3 SLOAD PUSH2 0x1623 SWAP2 SWAP1 PUSH2 0x1B35 JUMP JUMPDEST SWAP1 SWAP2 SSTORE POP POP JUMPDEST PUSH32 0xBC0B9ECC68EC48681B8F5718FA26B9CE02021220455BE5F5837A944140A80EA3 DUP3 DUP3 PUSH1 0x40 MLOAD PUSH2 0x105A SWAP3 SWAP2 SWAP1 PUSH2 0x1DA2 JUMP JUMPDEST PUSH2 0x1662 PUSH2 0x1747 JUMP JUMPDEST PUSH1 0x1 PUSH1 0x1 PUSH1 0xA0 SHL SUB DUP2 AND PUSH2 0x16C7 JUMPI PUSH1 0x40 MLOAD PUSH3 0x461BCD PUSH1 0xE5 SHL DUP2 MSTORE PUSH1 0x20 PUSH1 0x4 DUP3 ADD MSTORE PUSH1 0x26 PUSH1 0x24 DUP3 ADD MSTORE PUSH32 0x4F776E61626C653A206E6577206F776E657220697320746865207A65726F2061 PUSH1 0x44 DUP3 ADD MSTORE PUSH6 0x646472657373 PUSH1 0xD0 SHL PUSH1 0x64 DUP3 ADD MSTORE PUSH1 0x84 ADD PUSH2 0x4B0 JUMP JUMPDEST ADDRESS PUSH1 0x1 PUSH1 0x1 PUSH1 0xA0 SHL SUB DUP3 AND SUB PUSH2 0x173E JUMPI PUSH1 0x40 MLOAD PUSH3 0x461BCD PUSH1 0xE5 SHL DUP2 MSTORE PUSH1 0x20 PUSH1 0x4 DUP3 ADD MSTORE PUSH1 0x36 PUSH1 0x24 DUP3 ADD MSTORE PUSH32 0x4F776E61626C653A206E6577206F776E65722063616E6E6F7420626520746865 PUSH1 0x44 DUP3 ADD MSTORE PUSH22 0x2073616D6520636F6E74726163742061646472657373 PUSH1 0x50 SHL PUSH1 0x64 DUP3 ADD MSTORE PUSH1 0x84 ADD PUSH2 0x4B0 JUMP JUMPDEST PUSH2 0x10CF DUP2 PUSH2 0x17C9 JUMP JUMPDEST PUSH1 0x0 SLOAD PUSH1 0x1 PUSH1 0x1 PUSH1 0xA0 SHL SUB AND CALLER EQ PUSH2 0x484 JUMPI PUSH1 0x40 MLOAD PUSH4 0x118CDAA7 PUSH1 0xE0 SHL DUP2 MSTORE CALLER PUSH1 0x4 DUP3 ADD MSTORE PUSH1 0x24 ADD PUSH2 0x4B0 JUMP JUMPDEST PUSH2 0x177C PUSH2 0x185C JUMP JUMPDEST PUSH1 0x0 DUP1 SLOAD PUSH1 0xFF PUSH1 0xA0 SHL NOT AND SWAP1 SSTORE PUSH32 0x5DB9EE0A495BF2E6FF9C91A7834C1BA4FDD244A5E8AA4E537BD38AEAE4B073AA CALLER JUMPDEST PUSH1 0x40 MLOAD PUSH1 0x1 PUSH1 0x1 PUSH1 0xA0 SHL SUB SWAP1 SWAP2 AND DUP2 MSTORE PUSH1 0x20 ADD PUSH1 0x40 MLOAD DUP1 SWAP2 SUB SWAP1 LOG1 JUMP JUMPDEST PUSH1 0x0 DUP1 SLOAD PUSH1 0x1 PUSH1 0x1 PUSH1 0xA0 SHL SUB DUP4 DUP2 AND PUSH1 0x1 PUSH1 0x1 PUSH1 0xA0 SHL SUB NOT DUP4 AND DUP2 OR DUP5 SSTORE PUSH1 0x40 MLOAD SWAP2 SWAP1 SWAP3 AND SWAP3 DUP4 SWAP2 PUSH32 0x8BE0079C531659141344CD1FD0A4F28419497F9722A3DAAFE3B4186F6B6457E0 SWAP2 SWAP1 LOG3 POP POP JUMP JUMPDEST PUSH2 0x1821 PUSH2 0x1886 JUMP JUMPDEST PUSH1 0x0 DUP1 SLOAD PUSH1 0xFF PUSH1 0xA0 SHL NOT AND PUSH1 0x1 PUSH1 0xA0 SHL OR SWAP1 SSTORE PUSH32 0x62E78CEA01BEE320CD4E420270B5EA74000D11B0C9F74754EBDBFC544B05A258 PUSH2 0x17AC CALLER SWAP1 JUMP JUMPDEST PUSH1 0x0 SLOAD PUSH1 0x1 PUSH1 0xA0 SHL SWAP1 DIV PUSH1 0xFF AND PUSH2 0x484 JUMPI PUSH1 0x40 MLOAD PUSH4 0x8DFC202B PUSH1 0xE0 SHL DUP2 MSTORE PUSH1 0x4 ADD PUSH1 0x40 MLOAD DUP1 SWAP2 SUB SWAP1 REVERT JUMPDEST PUSH1 0x0 SLOAD PUSH1 0x1 PUSH1 0xA0 SHL SWAP1 DIV PUSH1 0xFF AND ISZERO PUSH2 0x484 JUMPI PUSH1 0x40 MLOAD PUSH4 0xD93C0665 PUSH1 0xE0 SHL DUP2 MSTORE PUSH1 0x4 ADD PUSH1 0x40 MLOAD DUP1 SWAP2 SUB SWAP1 REVERT JUMPDEST DUP1 CALLDATALOAD PUSH1 0x1 PUSH1 0x1 PUSH1 0xA0 SHL SUB DUP2 AND DUP2 EQ PUSH2 0x18C8 JUMPI PUSH1 0x0 DUP1 REVERT JUMPDEST SWAP2 SWAP1 POP JUMP JUMPDEST DUP1 ISZERO ISZERO DUP2 EQ PUSH2 0x10CF JUMPI PUSH1 0x0 DUP1 REVERT JUMPDEST PUSH4 0x4E487B71 PUSH1 0xE0 SHL PUSH1 0x0 MSTORE PUSH1 0x41 PUSH1 0x4 MSTORE PUSH1 0x24 PUSH1 0x0 REVERT JUMPDEST PUSH1 0x0 DUP1 PUSH1 0x0 DUP1 PUSH1 0x80 DUP6 DUP8 SUB SLT ISZERO PUSH2 0x1907 JUMPI PUSH1 0x0 DUP1 REVERT JUMPDEST PUSH2 0x1910 DUP6 PUSH2 0x18B1 JUMP JUMPDEST SWAP4 POP PUSH1 0x20 DUP6 ADD CALLDATALOAD PUSH2 0x1920 DUP2 PUSH2 0x18CD JUMP JUMPDEST SWAP3 POP PUSH1 0x40 DUP6 ADD CALLDATALOAD PUSH8 0xFFFFFFFFFFFFFFFF DUP1 DUP3 GT ISZERO PUSH2 0x193D JUMPI PUSH1 0x0 DUP1 REVERT JUMPDEST DUP2 DUP8 ADD SWAP2 POP DUP8 PUSH1 0x1F DUP4 ADD SLT PUSH2 0x1951 JUMPI PUSH1 0x0 DUP1 REVERT JUMPDEST DUP2 CALLDATALOAD DUP2 DUP2 GT ISZERO PUSH2 0x1963 JUMPI PUSH2 0x1963 PUSH2 0x18DB JUMP JUMPDEST PUSH1 0x40 MLOAD PUSH1 0x1F DUP3 ADD PUSH1 0x1F NOT SWAP1 DUP2 AND PUSH1 0x3F ADD AND DUP2 ADD SWAP1 DUP4 DUP3 GT DUP2 DUP4 LT OR ISZERO PUSH2 0x198B JUMPI PUSH2 0x198B PUSH2 0x18DB JUMP JUMPDEST DUP2 PUSH1 0x40 MSTORE DUP3 DUP2 MSTORE DUP11 PUSH1 0x20 DUP5 DUP8 ADD ADD GT ISZERO PUSH2 0x19A4 JUMPI PUSH1 0x0 DUP1 REVERT JUMPDEST DUP3 PUSH1 0x20 DUP7 ADD PUSH1 0x20 DUP4 ADD CALLDATACOPY PUSH1 0x0 SWAP3 DUP2 ADD PUSH1 0x20 ADD SWAP3 SWAP1 SWAP3 MSTORE POP SWAP6 SWAP9 SWAP5 SWAP8 POP SWAP5 SWAP6 PUSH1 0x60 ADD CALLDATALOAD SWAP5 POP POP POP POP JUMP JUMPDEST PUSH1 0x0 PUSH1 0x20 DUP3 DUP5 SUB SLT ISZERO PUSH2 0x19DF JUMPI PUSH1 0x0 DUP1 REVERT JUMPDEST PUSH2 0x19E8 DUP3 PUSH2 0x18B1 JUMP JUMPDEST SWAP4 SWAP3 POP POP POP JUMP JUMPDEST PUSH1 0x0 DUP2 MLOAD DUP1 DUP5 MSTORE PUSH1 0x0 JUMPDEST DUP2 DUP2 LT ISZERO PUSH2 0x1A15 JUMPI PUSH1 0x20 DUP2 DUP6 ADD DUP2 ADD MLOAD DUP7 DUP4 ADD DUP3 ADD MSTORE ADD PUSH2 0x19F9 JUMP JUMPDEST POP PUSH1 0x0 PUSH1 0x20 DUP3 DUP7 ADD ADD MSTORE PUSH1 0x20 PUSH1 0x1F NOT PUSH1 0x1F DUP4 ADD AND DUP6 ADD ADD SWAP2 POP POP SWAP3 SWAP2 POP POP JUMP JUMPDEST PUSH1 0x0 PUSH2 0x160 DUP14 DUP4 MSTORE DUP13 PUSH1 0x20 DUP5 ADD MSTORE DUP12 PUSH1 0x40 DUP5 ADD MSTORE DUP11 PUSH1 0x60 DUP5 ADD MSTORE DUP10 PUSH1 0x80 DUP5 ADD MSTORE DUP1 PUSH1 0xA0 DUP5 ADD MSTORE PUSH2 0x1A67 DUP2 DUP5 ADD DUP11 PUSH2 0x19EF JUMP JUMPDEST PUSH1 0xC0 DUP5 ADD SWAP9 SWAP1 SWAP9 MSTORE POP POP PUSH1 0xE0 DUP2 ADD SWAP5 SWAP1 SWAP5 MSTORE PUSH2 0x100 DUP5 ADD SWAP3 SWAP1 SWAP3 MSTORE ISZERO ISZERO PUSH2 0x120 DUP4 ADD MSTORE ISZERO ISZERO PUSH2 0x140 SWAP1 SWAP2 ADD MSTORE SWAP7 SWAP6 POP POP POP POP POP POP JUMP JUMPDEST PUSH1 0x0 DUP1 PUSH1 0x40 DUP4 DUP6 SUB SLT ISZERO PUSH2 0x1AB0 JUMPI PUSH1 0x0 DUP1 REVERT JUMPDEST DUP3 CALLDATALOAD PUSH1 0x3 DUP2 LT PUSH2 0x1ABF JUMPI PUSH1 0x0 DUP1 REVERT JUMPDEST SWAP5 PUSH1 0x20 SWAP4 SWAP1 SWAP4 ADD CALLDATALOAD SWAP4 POP POP POP JUMP JUMPDEST PUSH1 0x20 DUP1 DUP3 MSTORE PUSH1 0x32 SWAP1 DUP3 ADD MSTORE PUSH32 0x46756E64696E6720686173206E6F742073746172746564207965742C206E6F20 PUSH1 0x40 DUP3 ADD MSTORE PUSH18 0x746F6B656E7320746F207769746864726177 PUSH1 0x70 SHL PUSH1 0x60 DUP3 ADD MSTORE PUSH1 0x80 ADD SWAP1 JUMP JUMPDEST PUSH4 0x4E487B71 PUSH1 0xE0 SHL PUSH1 0x0 MSTORE PUSH1 0x11 PUSH1 0x4 MSTORE PUSH1 0x24 PUSH1 0x0 REVERT JUMPDEST DUP1 DUP3 ADD DUP1 DUP3 GT ISZERO PUSH2 0x1B48 JUMPI PUSH2 0x1B48 PUSH2 0x1B1F JUMP JUMPDEST SWAP3 SWAP2 POP POP JUMP JUMPDEST DUP2 DUP2 SUB DUP2 DUP2 GT ISZERO PUSH2 0x1B48 JUMPI PUSH2 0x1B48 PUSH2 0x1B1F JUMP JUMPDEST PUSH1 0x0 PUSH1 0x20 DUP3 DUP5 SUB SLT ISZERO PUSH2 0x1B73 JUMPI PUSH1 0x0 DUP1 REVERT JUMPDEST DUP2 MLOAD PUSH2 0x19E8 DUP2 PUSH2 0x18CD JUMP JUMPDEST PUSH1 0x20 DUP1 DUP3 MSTORE PUSH1 0x37 SWAP1 DUP3 ADD MSTORE PUSH32 0x46756E6374696F6E207265736572766564206F6E6C7920666F72207468652077 PUSH1 0x40 DUP3 ADD MSTORE PUSH32 0x686974656C6973746572206F7220746865206F776E6572000000000000000000 PUSH1 0x60 DUP3 ADD MSTORE PUSH1 0x80 ADD SWAP1 JUMP JUMPDEST PUSH1 0x1 DUP2 DUP2 SHR SWAP1 DUP3 AND DUP1 PUSH2 0x1BEF JUMPI PUSH1 0x7F DUP3 AND SWAP2 POP JUMPDEST PUSH1 0x20 DUP3 LT DUP2 SUB PUSH2 0x1C0F JUMPI PUSH4 0x4E487B71 PUSH1 0xE0 SHL PUSH1 0x0 MSTORE PUSH1 0x22 PUSH1 0x4 MSTORE PUSH1 0x24 PUSH1 0x0 REVERT JUMPDEST POP SWAP2 SWAP1 POP JUMP JUMPDEST PUSH1 0x1F DUP3 GT ISZERO PUSH2 0x1C5F JUMPI PUSH1 0x0 DUP2 DUP2 MSTORE PUSH1 0x20 DUP2 KECCAK256 PUSH1 0x1F DUP6 ADD PUSH1 0x5 SHR DUP2 ADD PUSH1 0x20 DUP7 LT ISZERO PUSH2 0x1C3C JUMPI POP DUP1 JUMPDEST PUSH1 0x1F DUP6 ADD PUSH1 0x5 SHR DUP3 ADD SWAP2 POP JUMPDEST DUP2 DUP2 LT ISZERO PUSH2 0x1C5B JUMPI DUP3 DUP2 SSTORE PUSH1 0x1 ADD PUSH2 0x1C48 JUMP JUMPDEST POP POP POP JUMPDEST POP POP POP JUMP JUMPDEST DUP2 MLOAD PUSH8 0xFFFFFFFFFFFFFFFF DUP2 GT ISZERO PUSH2 0x1C7E JUMPI PUSH2 0x1C7E PUSH2 0x18DB JUMP JUMPDEST PUSH2 0x1C92 DUP2 PUSH2 0x1C8C DUP5 SLOAD PUSH2 0x1BDB JUMP JUMPDEST DUP5 PUSH2 0x1C15 JUMP JUMPDEST PUSH1 0x20 DUP1 PUSH1 0x1F DUP4 GT PUSH1 0x1 DUP2 EQ PUSH2 0x1CC7 JUMPI PUSH1 0x0 DUP5 ISZERO PUSH2 0x1CAF JUMPI POP DUP6 DUP4 ADD MLOAD JUMPDEST PUSH1 0x0 NOT PUSH1 0x3 DUP7 SWAP1 SHL SHR NOT AND PUSH1 0x1 DUP6 SWAP1 SHL OR DUP6 SSTORE PUSH2 0x1C5B JUMP JUMPDEST PUSH1 0x0 DUP6 DUP2 MSTORE PUSH1 0x20 DUP2 KECCAK256 PUSH1 0x1F NOT DUP7 AND SWAP2 JUMPDEST DUP3 DUP2 LT ISZERO PUSH2 0x1CF6 JUMPI DUP9 DUP7 ADD MLOAD DUP3 SSTORE SWAP5 DUP5 ADD SWAP5 PUSH1 0x1 SWAP1 SWAP2 ADD SWAP1 DUP5 ADD PUSH2 0x1CD7 JUMP JUMPDEST POP DUP6 DUP3 LT ISZERO PUSH2 0x1D14 JUMPI DUP8 DUP6 ADD MLOAD PUSH1 0x0 NOT PUSH1 0x3 DUP9 SWAP1 SHL PUSH1 0xF8 AND SHR NOT AND DUP2 SSTORE JUMPDEST POP POP POP POP POP PUSH1 0x1 SWAP1 DUP2 SHL ADD SWAP1 SSTORE POP JUMP JUMPDEST PUSH1 0x1 PUSH1 0x1 PUSH1 0xA0 SHL SUB DUP7 DUP2 AND DUP3 MSTORE DUP6 AND PUSH1 0x20 DUP3 ADD MSTORE DUP4 ISZERO ISZERO PUSH1 0x40 DUP3 ADD MSTORE PUSH1 0xA0 PUSH1 0x60 DUP3 ADD DUP2 SWAP1 MSTORE PUSH1 0x0 SWAP1 PUSH2 0x1D58 SWAP1 DUP4 ADD DUP6 PUSH2 0x19EF JUMP JUMPDEST SWAP1 POP DUP3 PUSH1 0x80 DUP4 ADD MSTORE SWAP7 SWAP6 POP POP POP POP POP POP JUMP JUMPDEST PUSH1 0x0 DUP3 PUSH2 0x1D87 JUMPI PUSH4 0x4E487B71 PUSH1 0xE0 SHL PUSH1 0x0 MSTORE PUSH1 0x12 PUSH1 0x4 MSTORE PUSH1 0x24 PUSH1 0x0 REVERT JUMPDEST POP DIV SWAP1 JUMP JUMPDEST PUSH4 0x4E487B71 PUSH1 0xE0 SHL PUSH1 0x0 MSTORE PUSH1 0x21 PUSH1 0x4 MSTORE PUSH1 0x24 PUSH1 0x0 REVERT JUMPDEST PUSH1 0x40 DUP2 ADD PUSH1 0x3 DUP5 LT PUSH2 0x1DC4 JUMPI PUSH4 0x4E487B71 PUSH1 0xE0 SHL PUSH1 0x0 MSTORE PUSH1 0x21 PUSH1 0x4 MSTORE PUSH1 0x24 PUSH1 0x0 REVERT JUMPDEST SWAP3 DUP2 MSTORE PUSH1 0x20 ADD MSTORE SWAP1 JUMP INVALID LOG2 PUSH5 0x6970667358 0x22 SLT KECCAK256 RETURN PUSH5 0x1B1C8518F EXTCODEHASH 0xD7 0xC2 PUSH22 0xE5F9AFBE0ADB607AD7DD01BE3DC0CF335CE6EE83C564 PUSH20 0x6F6C634300081400330000000000000000000000 "},"methodIdentifiers":{"GROWTH_TOKENS_TOTAL()":"a868e997","GROWTH_TOKENS_WITHDRAWAL_PER_YEAR()":"1e6b4028","TEAM_TOKENS_LOCKED_PERIOD()":"dcb7ff6b","TEAM_TOKENS_TOTAL()":"5493b30d","TEAM_TOKENS_WITHDRAWAL_PER_YEAR()":"8e6d32df","TOKENS_WITHDRAWAL_PERIOD()":"59aa8966","addWalletToWhitelist(address,bool,string,uint256)":"4f8ea72c","fundSmartContract(uint8,uint256)":"d3946a8c","growthTokensFunded()":"5d70203b","growthTokensFundingStarted()":"f3793b9d","growthTokensInSmartContract()":"d356b49a","growthTokensLastWithdrawalTime()":"687a83f8","growthTokensStartFundingTime()":"9656cd8c","growthTokensWithdrawn()":"6148c783","hyaxToken()":"3ba10a56","hyaxTokenAddress()":"031f6589","owner()":"8da5cb5b","pause()":"8456cb59","paused()":"5c975abb","removeWalletFromWhitelist(address)":"ce23772b","renounceOwnership()":"715018a6","rewardsUpdaterAddress()":"f972c027","teamTokensFunded()":"f8ff46c6","teamTokensFundingStarted()":"c1cc52b3","teamTokensInSmartContract()":"647a5a78","teamTokensStartFundingTime()":"1035fc09","teamTokensWithdrawn()":"d7e57fda","tokenInvestorRewards()":"d1c02aaf","transferOwnership(address)":"f2fde38b","unpause()":"3f4ba83a","updateHyaxTokenAddress(address)":"9bae9002","updateWhiteListerAddress(address)":"653c3a47","wallets(address)":"89b08f11","whiteListerAddress()":"65699d28","withdrawGrowthTokens()":"4c4dc42e","withdrawInvestorRewards()":"97a94ba9","withdrawTeamTokens()":"953b7ef8"}},"storageLayout":{"storage":[{"astId":8,"contract":"contracts/UpgradeableHYAXRewards.sol:UpgradeableHYAXRewards","label":"_owner","offset":0,"slot":"0","type":"t_address"},{"astId":186,"contract":"contracts/UpgradeableHYAXRewards.sol:UpgradeableHYAXRewards","label":"_paused","offset":20,"slot":"0","type":"t_bool"},{"astId":381,"contract":"contracts/UpgradeableHYAXRewards.sol:UpgradeableHYAXRewards","label":"hyaxTokenAddress","offset":0,"slot":"1","type":"t_address"},{"astId":384,"contract":"contracts/UpgradeableHYAXRewards.sol:UpgradeableHYAXRewards","label":"hyaxToken","offset":0,"slot":"2","type":"t_contract(ERC20TokenInterface)332"},{"astId":407,"contract":"contracts/UpgradeableHYAXRewards.sol:UpgradeableHYAXRewards","label":"growthTokensFunded","offset":0,"slot":"3","type":"t_uint256"},{"astId":409,"contract":"contracts/UpgradeableHYAXRewards.sol:UpgradeableHYAXRewards","label":"growthTokensWithdrawn","offset":0,"slot":"4","type":"t_uint256"},{"astId":411,"contract":"contracts/UpgradeableHYAXRewards.sol:UpgradeableHYAXRewards","label":"growthTokensInSmartContract","offset":0,"slot":"5","type":"t_uint256"},{"astId":413,"contract":"contracts/UpgradeableHYAXRewards.sol:UpgradeableHYAXRewards","label":"growthTokensLastWithdrawalTime","offset":0,"slot":"6","type":"t_uint256"},{"astId":415,"contract":"contracts/UpgradeableHYAXRewards.sol:UpgradeableHYAXRewards","label":"growthTokensStartFundingTime","offset":0,"slot":"7","type":"t_uint256"},{"astId":417,"contract":"contracts/UpgradeableHYAXRewards.sol:UpgradeableHYAXRewards","label":"growthTokensFundingStarted","offset":0,"slot":"8","type":"t_bool"},{"astId":436,"contract":"contracts/UpgradeableHYAXRewards.sol:UpgradeableHYAXRewards","label":"teamTokensFunded","offset":0,"slot":"9","type":"t_uint256"},{"astId":438,"contract":"contracts/UpgradeableHYAXRewards.sol:UpgradeableHYAXRewards","label":"teamTokensWithdrawn","offset":0,"slot":"10","type":"t_uint256"},{"astId":440,"contract":"contracts/UpgradeableHYAXRewards.sol:UpgradeableHYAXRewards","label":"teamTokensInSmartContract","offset":0,"slot":"11","type":"t_uint256"},{"astId":442,"contract":"contracts/UpgradeableHYAXRewards.sol:UpgradeableHYAXRewards","label":"teamTokensStartFundingTime","offset":0,"slot":"12","type":"t_uint256"},{"astId":444,"contract":"contracts/UpgradeableHYAXRewards.sol:UpgradeableHYAXRewards","label":"teamTokensFundingStarted","offset":0,"slot":"13","type":"t_bool"},{"astId":446,"contract":"contracts/UpgradeableHYAXRewards.sol:UpgradeableHYAXRewards","label":"tokenInvestorRewards","offset":0,"slot":"14","type":"t_uint256"},{"astId":448,"contract":"contracts/UpgradeableHYAXRewards.sol:UpgradeableHYAXRewards","label":"whiteListerAddress","offset":0,"slot":"15","type":"t_address"},{"astId":450,"contract":"contracts/UpgradeableHYAXRewards.sol:UpgradeableHYAXRewards","label":"rewardsUpdaterAddress","offset":0,"slot":"16","type":"t_address"},{"astId":478,"contract":"contracts/UpgradeableHYAXRewards.sol:UpgradeableHYAXRewards","label":"wallets","offset":0,"slot":"17","type":"t_mapping(t_address,t_struct(WalletData)473_storage)"}],"types":{"t_address":{"encoding":"inplace","label":"address","numberOfBytes":"20"},"t_bool":{"encoding":"inplace","label":"bool","numberOfBytes":"1"},"t_contract(ERC20TokenInterface)332":{"encoding":"inplace","label":"contract ERC20TokenInterface","numberOfBytes":"20"},"t_mapping(t_address,t_struct(WalletData)473_storage)":{"encoding":"mapping","key":"t_address","label":"mapping(address => struct UpgradeableHYAXRewards.WalletData)","numberOfBytes":"32","value":"t_struct(WalletData)473_storage"},"t_string_storage":{"encoding":"bytes","label":"string","numberOfBytes":"32"},"t_struct(WalletData)473_storage":{"encoding":"inplace","label":"struct UpgradeableHYAXRewards.WalletData","members":[{"astId":452,"contract":"contracts/UpgradeableHYAXRewards.sol:UpgradeableHYAXRewards","label":"hyaxHoldingAmount","offset":0,"slot":"0","type":"t_uint256"},{"astId":454,"contract":"contracts/UpgradeableHYAXRewards.sol:UpgradeableHYAXRewards","label":"hyaxHoldingAmountAtWhitelistTime","offset":0,"slot":"1","type":"t_uint256"},{"astId":456,"contract":"contracts/UpgradeableHYAXRewards.sol:UpgradeableHYAXRewards","label":"totalHyaxRewardsAmount","offset":0,"slot":"2","type":"t_uint256"},{"astId":458,"contract":"contracts/UpgradeableHYAXRewards.sol:UpgradeableHYAXRewards","label":"currentRewardsAmount","offset":0,"slot":"3","type":"t_uint256"},{"astId":460,"contract":"contracts/UpgradeableHYAXRewards.sol:UpgradeableHYAXRewards","label":"rewardsWithdrawn","offset":0,"slot":"4","type":"t_uint256"},{"astId":462,"contract":"contracts/UpgradeableHYAXRewards.sol:UpgradeableHYAXRewards","label":"bitcoinRewardsAddress","offset":0,"slot":"5","type":"t_string_storage"},{"astId":464,"contract":"contracts/UpgradeableHYAXRewards.sol:UpgradeableHYAXRewards","label":"addedToWhitelistTime","offset":0,"slot":"6","type":"t_uint256"},{"astId":466,"contract":"contracts/UpgradeableHYAXRewards.sol:UpgradeableHYAXRewards","label":"lastTokenWithdrawalTime","offset":0,"slot":"7","type":"t_uint256"},{"astId":468,"contract":"contracts/UpgradeableHYAXRewards.sol:UpgradeableHYAXRewards","label":"lastRewardsWithdrawalTime","offset":0,"slot":"8","type":"t_uint256"},{"astId":470,"contract":"contracts/UpgradeableHYAXRewards.sol:UpgradeableHYAXRewards","label":"isTeamWallet","offset":0,"slot":"9","type":"t_bool"},{"astId":472,"contract":"contracts/UpgradeableHYAXRewards.sol:UpgradeableHYAXRewards","label":"isWhitelisted","offset":1,"slot":"9","type":"t_bool"}],"numberOfBytes":"320"},"t_uint256":{"encoding":"inplace","label":"uint256","numberOfBytes":"32"}}}}}}