{"contracts/UpgradeableHYAXRewards.sol":{"UpgradeableHYAXRewards":{"abi":[{"inputs":[{"internalType":"address","name":"_hyaxTokenAddress","type":"address"}],"stateMutability":"nonpayable","type":"constructor"},{"inputs":[{"internalType":"address","name":"owner","type":"address"}],"name":"OwnableInvalidOwner","type":"error"},{"inputs":[{"internalType":"address","name":"account","type":"address"}],"name":"OwnableUnauthorizedAccount","type":"error"},{"anonymous":false,"inputs":[{"indexed":false,"internalType":"enum UpgradeableHYAXRewards.FundingType","name":"_fundingType","type":"uint8"},{"indexed":false,"internalType":"uint256","name":"_amount","type":"uint256"}],"name":"FundingAdded","type":"event"},{"anonymous":false,"inputs":[{"indexed":false,"internalType":"uint256","name":"_amount","type":"uint256"}],"name":"GrowthTokensWithdrawn","type":"event"},{"anonymous":false,"inputs":[{"indexed":true,"internalType":"address","name":"previousOwner","type":"address"},{"indexed":true,"internalType":"address","name":"newOwner","type":"address"}],"name":"OwnershipTransferred","type":"event"},{"inputs":[],"name":"GROWTH_TOKENS_TOTAL","outputs":[{"internalType":"uint256","name":"","type":"uint256"}],"stateMutability":"view","type":"function"},{"inputs":[],"name":"GROWTH_TOKENS_WITHDRAWAL_PERIOD","outputs":[{"internalType":"uint256","name":"","type":"uint256"}],"stateMutability":"view","type":"function"},{"inputs":[],"name":"GROWTH_TOKENS_WITHDRAWAL_PER_YEAR","outputs":[{"internalType":"uint256","name":"","type":"uint256"}],"stateMutability":"view","type":"function"},{"inputs":[{"internalType":"address","name":"_walletAddress","type":"address"},{"internalType":"bool","name":"_isTeamWallet","type":"bool"},{"internalType":"string","name":"_bitcoinRewardsAddress","type":"string"}],"name":"addWalletToWhitelist","outputs":[],"stateMutability":"nonpayable","type":"function"},{"inputs":[{"internalType":"enum UpgradeableHYAXRewards.FundingType","name":"_fundingType","type":"uint8"},{"internalType":"uint256","name":"_amount","type":"uint256"}],"name":"fundSmartContract","outputs":[],"stateMutability":"nonpayable","type":"function"},{"inputs":[],"name":"growthTokensFunded","outputs":[{"internalType":"uint256","name":"","type":"uint256"}],"stateMutability":"view","type":"function"},{"inputs":[],"name":"growthTokensFundingStarted","outputs":[{"internalType":"bool","name":"","type":"bool"}],"stateMutability":"view","type":"function"},{"inputs":[],"name":"growthTokensLastWithdrawalTime","outputs":[{"internalType":"uint256","name":"","type":"uint256"}],"stateMutability":"view","type":"function"},{"inputs":[],"name":"growthTokensStartFundingTime","outputs":[{"internalType":"uint256","name":"","type":"uint256"}],"stateMutability":"view","type":"function"},{"inputs":[],"name":"growthTokensWithdrawn","outputs":[{"internalType":"uint256","name":"","type":"uint256"}],"stateMutability":"view","type":"function"},{"inputs":[],"name":"hyaxToken","outputs":[{"internalType":"contract ERC20TokenInterface","name":"","type":"address"}],"stateMutability":"view","type":"function"},{"inputs":[],"name":"hyaxTokenAddress","outputs":[{"internalType":"address","name":"","type":"address"}],"stateMutability":"view","type":"function"},{"inputs":[],"name":"owner","outputs":[{"internalType":"address","name":"","type":"address"}],"stateMutability":"view","type":"function"},{"inputs":[],"name":"renounceOwnership","outputs":[],"stateMutability":"nonpayable","type":"function"},{"inputs":[],"name":"tokenInvestorRewards","outputs":[{"internalType":"uint256","name":"","type":"uint256"}],"stateMutability":"view","type":"function"},{"inputs":[],"name":"tokenTeamRewards","outputs":[{"internalType":"uint256","name":"","type":"uint256"}],"stateMutability":"view","type":"function"},{"inputs":[{"internalType":"address","name":"newOwner","type":"address"}],"name":"transferOwnership","outputs":[],"stateMutability":"nonpayable","type":"function"},{"inputs":[{"internalType":"address","name":"","type":"address"}],"name":"wallets","outputs":[{"internalType":"uint256","name":"hyaxHoldingAmount","type":"uint256"},{"internalType":"uint256","name":"holdingTime","type":"uint256"},{"internalType":"uint256","name":"totalHyaxRewardsAmount","type":"uint256"},{"internalType":"uint256","name":"currentRewardsAmount","type":"uint256"},{"internalType":"string","name":"bitcoinRewardsAddress","type":"string"},{"internalType":"uint256","name":"rewardsWithdrawn","type":"uint256"},{"internalType":"bool","name":"isTeamWallet","type":"bool"},{"internalType":"bool","name":"isWhitelisted","type":"bool"}],"stateMutability":"view","type":"function"},{"inputs":[],"name":"whiteListerAddress","outputs":[{"internalType":"address","name":"","type":"address"}],"stateMutability":"view","type":"function"},{"inputs":[],"name":"withdrawGrowthTokens","outputs":[],"stateMutability":"nonpayable","type":"function"}],"evm":{"bytecode":{"linkReferences":{},"object":"60806040523480156200001157600080fd5b506040516200133d3803806200133d833981016040819052620000349162000217565b33806200005c57604051631e4fbdf760e01b8152600060048201526024015b60405180910390fd5b6200006781620001c7565b50600180546001600160a01b0383166001600160a01b0319918216811790925560028054909116909117905560405163090b282b60e31b602082015260240160405160208183030381529060405280519060200120600260009054906101000a90046001600160a01b03166001600160a01b03166395d89b416040518163ffffffff1660e01b8152600401600060405180830381865afa15801562000110573d6000803e3d6000fd5b505050506040513d6000823e601f3d908101601f191682016040526200013a919081019062000285565b6040516020016200014c91906200033d565b6040516020818303038152906040528051906020012014620001b15760405162461bcd60e51b815260206004820152601f60248201527f4879617820746f6b656e2061646472657373206973206e6f742076616c696400604482015260640162000053565b506000600981905560088190556003556200035b565b600080546001600160a01b038381166001600160a01b0319831681178455604051919092169283917f8be0079c531659141344cd1fd0a4f28419497f9722a3daafe3b4186f6b6457e09190a35050565b6000602082840312156200022a57600080fd5b81516001600160a01b03811681146200024257600080fd5b9392505050565b634e487b7160e01b600052604160045260246000fd5b60005b838110156200027c57818101518382015260200162000262565b50506000910152565b6000602082840312156200029857600080fd5b81516001600160401b0380821115620002b057600080fd5b818401915084601f830112620002c557600080fd5b815181811115620002da57620002da62000249565b604051601f8201601f19908116603f0116810190838211818310171562000305576200030562000249565b816040528281528760208487010111156200031f57600080fd5b620003328360208301602088016200025f565b979650505050505050565b60008251620003518184602087016200025f565b9190910192915050565b610fd2806200036b6000396000f3fe608060405234801561001057600080fd5b506004361061012c5760003560e01c80638036f063116100ad578063c742156611610071578063c74215661461023c578063d1c02aaf1461024f578063d3946a8c14610258578063f2fde38b1461026b578063f3793b9d1461027e57600080fd5b80638036f063146101df57806389b08f11146101e85780638da5cb5b1461020f5780639656cd8c14610220578063a868e9971461022957600080fd5b80635d70203b116100f45780635d70203b146101a95780636148c783146101b257806365699d28146101bb578063687a83f8146101ce578063715018a6146101d757600080fd5b8063031f6589146101315780631e6b4028146101615780633ba10a561461018157806341cb484a146101945780634c4dc42e1461019f575b600080fd5b600154610144906001600160a01b031681565b6040516001600160a01b0390911681526020015b60405180910390f35b6101736a6342fd08f00f637800000081565b604051908152602001610158565b600254610144906001600160a01b031681565b6101736301e1338081565b6101a761029b565b005b61017360035481565b61017360045481565b600a54610144906001600160a01b031681565b61017360055481565b6101a76105d9565b61017360095481565b6101fb6101f6366004610bd5565b6105ed565b604051610158989796959493929190610bf7565b6000546001600160a01b0316610144565b61017360065481565b6101736b07c13bc4b2c133c56000000081565b6101a761024a366004610cae565b6106bf565b61017360085481565b6101a7610266366004610d82565b61083b565b6101a7610279366004610bd5565b610afe565b60075461028b9060ff1681565b6040519015158152602001610158565b6102a3610b3c565b60075460ff166103155760405162461bcd60e51b815260206004820152603260248201527f46756e64696e6720686173206e6f742073746172746564207965742c206e6f20604482015271746f6b656e7320746f20776974686472617760701b60648201526084015b60405180910390fd5b6301e133806006546103279190610dc8565b4210156103905760405162461bcd60e51b815260206004820152603160248201527f43616e6e6f74207769746864726177206265666f7265203120796561722061666044820152701d195c88199d5b991a5b99c81cdd185c9d607a1b606482015260840161030c565b6b07c13bc4b2c133c56000000060045411156103fc5760405162461bcd60e51b815260206004820152602560248201527f416c6c2067726f77746820746f6b656e732068617665206265656e2077697468604482015264323930bbb760d91b606482015260840161030c565b6301e1338060055461040e9190610dc8565b42101561045d5760405162461bcd60e51b815260206004820152601f60248201527f43616e206f6e6c79207769746864726177206f6e636520706572207965617200604482015260640161030c565b6004546a6342fd08f00f6378000000906b07c13bc4b2c133c56000000090610486908390610dc8565b11156104a8576004546104a5906b07c13bc4b2c133c560000000610de1565b90505b80600460008282546104ba9190610dc8565b9091555050426005556002546001600160a01b031663a9059cbb6104e66000546001600160a01b031690565b6040516001600160e01b031960e084901b1681526001600160a01b039091166004820152602481018490526044016020604051808303816000875af1158015610533573d6000803e3d6000fd5b505050506040513d601f19601f820116820180604052508101906105579190610df4565b6105a35760405162461bcd60e51b815260206004820181905260248201527f4661696c656420746f207472616e736665722067726f77746820746f6b656e73604482015260640161030c565b6040518181527f67edb450d6a2cf574f75c20d8d95c58301e4652d5040a1c67a68809eb1a0fc159060200160405180910390a150565b6105e1610b3c565b6105eb6000610b69565b565b600b6020526000908152604090208054600182015460028301546003840154600485018054949593949293919261062390610e11565b80601f016020809104026020016040519081016040528092919081815260200182805461064f90610e11565b801561069c5780601f106106715761010080835404028352916020019161069c565b820191906000526020600020905b81548152906001019060200180831161067f57829003601f168201915b50505050600583015460069093015491929160ff80821692506101009091041688565b6000546001600160a01b03163314806106e25750600a546001600160a01b031633145b610756576040805162461bcd60e51b81526020600482015260248101919091527f46756e6374696f6e207265736572766564206f6e6c7920666f7220746865207760448201527f68697465206c69737465722061646472657373206f7220746865206f776e6572606482015260840161030c565b6001600160a01b0383166000908152600b6020526040902060060154610100900460ff16156107c75760405162461bcd60e51b815260206004820152601f60248201527f57616c6c657420616c726561647920696e207468652077686974656c69737400604482015260640161030c565b6001600160a01b0383166000908152600b6020526040902060068101805484151561ffff19909116176101001790556004016108038282610e9a565b5050506001600160a01b03166000908152600b6020526040812081815560018101829055600381018290556002810182905560050155565b610843610b3c565b600082600281111561085757610857610f5a565b14806108745750600182600281111561087257610872610f5a565b145b806108905750600282600281111561088e5761088e610f5a565b145b6108d35760405162461bcd60e51b8152602060048201526014602482015273496e76616c69642066756e64696e67207479706560601b604482015260640161030c565b600081116109235760405162461bcd60e51b815260206004820152601d60248201527f416d6f756e74206d7573742062652067726561746572207468616e2030000000604482015260640161030c565b6002546040516323b872dd60e01b8152336004820152306024820152604481018390526001600160a01b03909116906323b872dd906064016020604051808303816000875af115801561097a573d6000803e3d6000fd5b505050506040513d601f19601f8201168201806040525081019061099e9190610df4565b610a045760405162461bcd60e51b815260206004820152603160248201527f54686572652077617320616e206572726f72206f6e20726563656976696e672060448201527074686520746f6b656e2066756e64696e6760781b606482015260840161030c565b6002826002811115610a1857610a18610f5a565b03610a5a578060036000828254610a2f9190610dc8565b909155505060075460ff16610a55576007805460ff191660011790554260068190556005555b610ac1565b6000826002811115610a6e57610a6e610f5a565b03610a90578060096000828254610a859190610dc8565b90915550610ac19050565b6001826002811115610aa457610aa4610f5a565b03610ac1578060086000828254610abb9190610dc8565b90915550505b7fbc0b9ecc68ec48681b8f5718fa26b9ce02021220455be5f5837a944140a80ea38282604051610af2929190610f70565b60405180910390a15050565b610b06610b3c565b6001600160a01b038116610b3057604051631e4fbdf760e01b81526000600482015260240161030c565b610b3981610b69565b50565b6000546001600160a01b031633146105eb5760405163118cdaa760e01b815233600482015260240161030c565b600080546001600160a01b038381166001600160a01b0319831681178455604051919092169283917f8be0079c531659141344cd1fd0a4f28419497f9722a3daafe3b4186f6b6457e09190a35050565b80356001600160a01b0381168114610bd057600080fd5b919050565b600060208284031215610be757600080fd5b610bf082610bb9565b9392505050565b60006101008a835260208a8185015289604085015288606085015281608085015287518083860152600092505b80831015610c4357888301820151858401610120015291810191610c24565b6101209250600083828701015282601f19601f83011686010193505050508460a0830152610c7560c083018515159052565b82151560e08301529998505050505050505050565b8015158114610b3957600080fd5b634e487b7160e01b600052604160045260246000fd5b600080600060608486031215610cc357600080fd5b610ccc84610bb9565b92506020840135610cdc81610c8a565b9150604084013567ffffffffffffffff80821115610cf957600080fd5b818601915086601f830112610d0d57600080fd5b813581811115610d1f57610d1f610c98565b604051601f8201601f19908116603f01168101908382118183101715610d4757610d47610c98565b81604052828152896020848701011115610d6057600080fd5b8260208601602083013760006020848301015280955050505050509250925092565b60008060408385031215610d9557600080fd5b823560038110610da457600080fd5b946020939093013593505050565b634e487b7160e01b600052601160045260246000fd5b80820180821115610ddb57610ddb610db2565b92915050565b81810381811115610ddb57610ddb610db2565b600060208284031215610e0657600080fd5b8151610bf081610c8a565b600181811c90821680610e2557607f821691505b602082108103610e4557634e487b7160e01b600052602260045260246000fd5b50919050565b601f821115610e9557600081815260208120601f850160051c81016020861015610e725750805b601f850160051c820191505b81811015610e9157828155600101610e7e565b5050505b505050565b815167ffffffffffffffff811115610eb457610eb4610c98565b610ec881610ec28454610e11565b84610e4b565b602080601f831160018114610efd5760008415610ee55750858301515b600019600386901b1c1916600185901b178555610e91565b600085815260208120601f198616915b82811015610f2c57888601518255948401946001909101908401610f0d565b5085821015610f4a5787850151600019600388901b60f8161c191681555b5050505050600190811b01905550565b634e487b7160e01b600052602160045260246000fd5b6040810160038410610f9257634e487b7160e01b600052602160045260246000fd5b928152602001529056fea2646970667358221220cb4a1fbdf1f3ae6450261185f1fae484ea76db9295f96ab1c14c3c2fdcefec4764736f6c63430008140033","opcodes":"PUSH1 0x80 PUSH1 0x40 MSTORE CALLVALUE DUP1 ISZERO PUSH3 0x11 JUMPI PUSH1 0x0 DUP1 REVERT JUMPDEST POP PUSH1 0x40 MLOAD PUSH3 0x133D CODESIZE SUB DUP1 PUSH3 0x133D DUP4 CODECOPY DUP2 ADD PUSH1 0x40 DUP2 SWAP1 MSTORE PUSH3 0x34 SWAP2 PUSH3 0x217 JUMP JUMPDEST CALLER DUP1 PUSH3 0x5C JUMPI PUSH1 0x40 MLOAD PUSH4 0x1E4FBDF7 PUSH1 0xE0 SHL DUP2 MSTORE PUSH1 0x0 PUSH1 0x4 DUP3 ADD MSTORE PUSH1 0x24 ADD JUMPDEST PUSH1 0x40 MLOAD DUP1 SWAP2 SUB SWAP1 REVERT JUMPDEST PUSH3 0x67 DUP2 PUSH3 0x1C7 JUMP JUMPDEST POP PUSH1 0x1 DUP1 SLOAD PUSH1 0x1 PUSH1 0x1 PUSH1 0xA0 SHL SUB DUP4 AND PUSH1 0x1 PUSH1 0x1 PUSH1 0xA0 SHL SUB NOT SWAP2 DUP3 AND DUP2 OR SWAP1 SWAP3 SSTORE PUSH1 0x2 DUP1 SLOAD SWAP1 SWAP2 AND SWAP1 SWAP2 OR SWAP1 SSTORE PUSH1 0x40 MLOAD PUSH4 0x90B282B PUSH1 0xE3 SHL PUSH1 0x20 DUP3 ADD MSTORE PUSH1 0x24 ADD PUSH1 0x40 MLOAD PUSH1 0x20 DUP2 DUP4 SUB SUB DUP2 MSTORE SWAP1 PUSH1 0x40 MSTORE DUP1 MLOAD SWAP1 PUSH1 0x20 ADD KECCAK256 PUSH1 0x2 PUSH1 0x0 SWAP1 SLOAD SWAP1 PUSH2 0x100 EXP SWAP1 DIV PUSH1 0x1 PUSH1 0x1 PUSH1 0xA0 SHL SUB AND PUSH1 0x1 PUSH1 0x1 PUSH1 0xA0 SHL SUB AND PUSH4 0x95D89B41 PUSH1 0x40 MLOAD DUP2 PUSH4 0xFFFFFFFF AND PUSH1 0xE0 SHL DUP2 MSTORE PUSH1 0x4 ADD PUSH1 0x0 PUSH1 0x40 MLOAD DUP1 DUP4 SUB DUP2 DUP7 GAS STATICCALL ISZERO DUP1 ISZERO PUSH3 0x110 JUMPI RETURNDATASIZE PUSH1 0x0 DUP1 RETURNDATACOPY RETURNDATASIZE PUSH1 0x0 REVERT JUMPDEST POP POP POP POP PUSH1 0x40 MLOAD RETURNDATASIZE PUSH1 0x0 DUP3 RETURNDATACOPY PUSH1 0x1F RETURNDATASIZE SWAP1 DUP2 ADD PUSH1 0x1F NOT AND DUP3 ADD PUSH1 0x40 MSTORE PUSH3 0x13A SWAP2 SWAP1 DUP2 ADD SWAP1 PUSH3 0x285 JUMP JUMPDEST PUSH1 0x40 MLOAD PUSH1 0x20 ADD PUSH3 0x14C SWAP2 SWAP1 PUSH3 0x33D JUMP JUMPDEST PUSH1 0x40 MLOAD PUSH1 0x20 DUP2 DUP4 SUB SUB DUP2 MSTORE SWAP1 PUSH1 0x40 MSTORE DUP1 MLOAD SWAP1 PUSH1 0x20 ADD KECCAK256 EQ PUSH3 0x1B1 JUMPI PUSH1 0x40 MLOAD PUSH3 0x461BCD PUSH1 0xE5 SHL DUP2 MSTORE PUSH1 0x20 PUSH1 0x4 DUP3 ADD MSTORE PUSH1 0x1F PUSH1 0x24 DUP3 ADD MSTORE PUSH32 0x4879617820746F6B656E2061646472657373206973206E6F742076616C696400 PUSH1 0x44 DUP3 ADD MSTORE PUSH1 0x64 ADD PUSH3 0x53 JUMP JUMPDEST POP PUSH1 0x0 PUSH1 0x9 DUP2 SWAP1 SSTORE PUSH1 0x8 DUP2 SWAP1 SSTORE PUSH1 0x3 SSTORE PUSH3 0x35B JUMP JUMPDEST PUSH1 0x0 DUP1 SLOAD PUSH1 0x1 PUSH1 0x1 PUSH1 0xA0 SHL SUB DUP4 DUP2 AND PUSH1 0x1 PUSH1 0x1 PUSH1 0xA0 SHL SUB NOT DUP4 AND DUP2 OR DUP5 SSTORE PUSH1 0x40 MLOAD SWAP2 SWAP1 SWAP3 AND SWAP3 DUP4 SWAP2 PUSH32 0x8BE0079C531659141344CD1FD0A4F28419497F9722A3DAAFE3B4186F6B6457E0 SWAP2 SWAP1 LOG3 POP POP JUMP JUMPDEST PUSH1 0x0 PUSH1 0x20 DUP3 DUP5 SUB SLT ISZERO PUSH3 0x22A JUMPI PUSH1 0x0 DUP1 REVERT JUMPDEST DUP2 MLOAD PUSH1 0x1 PUSH1 0x1 PUSH1 0xA0 SHL SUB DUP2 AND DUP2 EQ PUSH3 0x242 JUMPI PUSH1 0x0 DUP1 REVERT JUMPDEST SWAP4 SWAP3 POP POP POP JUMP JUMPDEST PUSH4 0x4E487B71 PUSH1 0xE0 SHL PUSH1 0x0 MSTORE PUSH1 0x41 PUSH1 0x4 MSTORE PUSH1 0x24 PUSH1 0x0 REVERT JUMPDEST PUSH1 0x0 JUMPDEST DUP4 DUP2 LT ISZERO PUSH3 0x27C JUMPI DUP2 DUP2 ADD MLOAD DUP4 DUP3 ADD MSTORE PUSH1 0x20 ADD PUSH3 0x262 JUMP JUMPDEST POP POP PUSH1 0x0 SWAP2 ADD MSTORE JUMP JUMPDEST PUSH1 0x0 PUSH1 0x20 DUP3 DUP5 SUB SLT ISZERO PUSH3 0x298 JUMPI PUSH1 0x0 DUP1 REVERT JUMPDEST DUP2 MLOAD PUSH1 0x1 PUSH1 0x1 PUSH1 0x40 SHL SUB DUP1 DUP3 GT ISZERO PUSH3 0x2B0 JUMPI PUSH1 0x0 DUP1 REVERT JUMPDEST DUP2 DUP5 ADD SWAP2 POP DUP5 PUSH1 0x1F DUP4 ADD SLT PUSH3 0x2C5 JUMPI PUSH1 0x0 DUP1 REVERT JUMPDEST DUP2 MLOAD DUP2 DUP2 GT ISZERO PUSH3 0x2DA JUMPI PUSH3 0x2DA PUSH3 0x249 JUMP JUMPDEST PUSH1 0x40 MLOAD PUSH1 0x1F DUP3 ADD PUSH1 0x1F NOT SWAP1 DUP2 AND PUSH1 0x3F ADD AND DUP2 ADD SWAP1 DUP4 DUP3 GT DUP2 DUP4 LT OR ISZERO PUSH3 0x305 JUMPI PUSH3 0x305 PUSH3 0x249 JUMP JUMPDEST DUP2 PUSH1 0x40 MSTORE DUP3 DUP2 MSTORE DUP8 PUSH1 0x20 DUP5 DUP8 ADD ADD GT ISZERO PUSH3 0x31F JUMPI PUSH1 0x0 DUP1 REVERT JUMPDEST PUSH3 0x332 DUP4 PUSH1 0x20 DUP4 ADD PUSH1 0x20 DUP9 ADD PUSH3 0x25F JUMP JUMPDEST SWAP8 SWAP7 POP POP POP POP POP POP POP JUMP JUMPDEST PUSH1 0x0 DUP3 MLOAD PUSH3 0x351 DUP2 DUP5 PUSH1 0x20 DUP8 ADD PUSH3 0x25F JUMP JUMPDEST SWAP2 SWAP1 SWAP2 ADD SWAP3 SWAP2 POP POP JUMP JUMPDEST PUSH2 0xFD2 DUP1 PUSH3 0x36B PUSH1 0x0 CODECOPY PUSH1 0x0 RETURN INVALID PUSH1 0x80 PUSH1 0x40 MSTORE CALLVALUE DUP1 ISZERO PUSH2 0x10 JUMPI PUSH1 0x0 DUP1 REVERT JUMPDEST POP PUSH1 0x4 CALLDATASIZE LT PUSH2 0x12C JUMPI PUSH1 0x0 CALLDATALOAD PUSH1 0xE0 SHR DUP1 PUSH4 0x8036F063 GT PUSH2 0xAD JUMPI DUP1 PUSH4 0xC7421566 GT PUSH2 0x71 JUMPI DUP1 PUSH4 0xC7421566 EQ PUSH2 0x23C JUMPI DUP1 PUSH4 0xD1C02AAF EQ PUSH2 0x24F JUMPI DUP1 PUSH4 0xD3946A8C EQ PUSH2 0x258 JUMPI DUP1 PUSH4 0xF2FDE38B EQ PUSH2 0x26B JUMPI DUP1 PUSH4 0xF3793B9D EQ PUSH2 0x27E JUMPI PUSH1 0x0 DUP1 REVERT JUMPDEST DUP1 PUSH4 0x8036F063 EQ PUSH2 0x1DF JUMPI DUP1 PUSH4 0x89B08F11 EQ PUSH2 0x1E8 JUMPI DUP1 PUSH4 0x8DA5CB5B EQ PUSH2 0x20F JUMPI DUP1 PUSH4 0x9656CD8C EQ PUSH2 0x220 JUMPI DUP1 PUSH4 0xA868E997 EQ PUSH2 0x229 JUMPI PUSH1 0x0 DUP1 REVERT JUMPDEST DUP1 PUSH4 0x5D70203B GT PUSH2 0xF4 JUMPI DUP1 PUSH4 0x5D70203B EQ PUSH2 0x1A9 JUMPI DUP1 PUSH4 0x6148C783 EQ PUSH2 0x1B2 JUMPI DUP1 PUSH4 0x65699D28 EQ PUSH2 0x1BB JUMPI DUP1 PUSH4 0x687A83F8 EQ PUSH2 0x1CE JUMPI DUP1 PUSH4 0x715018A6 EQ PUSH2 0x1D7 JUMPI PUSH1 0x0 DUP1 REVERT JUMPDEST DUP1 PUSH4 0x31F6589 EQ PUSH2 0x131 JUMPI DUP1 PUSH4 0x1E6B4028 EQ PUSH2 0x161 JUMPI DUP1 PUSH4 0x3BA10A56 EQ PUSH2 0x181 JUMPI DUP1 PUSH4 0x41CB484A EQ PUSH2 0x194 JUMPI DUP1 PUSH4 0x4C4DC42E EQ PUSH2 0x19F JUMPI JUMPDEST PUSH1 0x0 DUP1 REVERT JUMPDEST PUSH1 0x1 SLOAD PUSH2 0x144 SWAP1 PUSH1 0x1 PUSH1 0x1 PUSH1 0xA0 SHL SUB AND DUP2 JUMP JUMPDEST PUSH1 0x40 MLOAD PUSH1 0x1 PUSH1 0x1 PUSH1 0xA0 SHL SUB SWAP1 SWAP2 AND DUP2 MSTORE PUSH1 0x20 ADD JUMPDEST PUSH1 0x40 MLOAD DUP1 SWAP2 SUB SWAP1 RETURN JUMPDEST PUSH2 0x173 PUSH11 0x6342FD08F00F6378000000 DUP2 JUMP JUMPDEST PUSH1 0x40 MLOAD SWAP1 DUP2 MSTORE PUSH1 0x20 ADD PUSH2 0x158 JUMP JUMPDEST PUSH1 0x2 SLOAD PUSH2 0x144 SWAP1 PUSH1 0x1 PUSH1 0x1 PUSH1 0xA0 SHL SUB AND DUP2 JUMP JUMPDEST PUSH2 0x173 PUSH4 0x1E13380 DUP2 JUMP JUMPDEST PUSH2 0x1A7 PUSH2 0x29B JUMP JUMPDEST STOP JUMPDEST PUSH2 0x173 PUSH1 0x3 SLOAD DUP2 JUMP JUMPDEST PUSH2 0x173 PUSH1 0x4 SLOAD DUP2 JUMP JUMPDEST PUSH1 0xA SLOAD PUSH2 0x144 SWAP1 PUSH1 0x1 PUSH1 0x1 PUSH1 0xA0 SHL SUB AND DUP2 JUMP JUMPDEST PUSH2 0x173 PUSH1 0x5 SLOAD DUP2 JUMP JUMPDEST PUSH2 0x1A7 PUSH2 0x5D9 JUMP JUMPDEST PUSH2 0x173 PUSH1 0x9 SLOAD DUP2 JUMP JUMPDEST PUSH2 0x1FB PUSH2 0x1F6 CALLDATASIZE PUSH1 0x4 PUSH2 0xBD5 JUMP JUMPDEST PUSH2 0x5ED JUMP JUMPDEST PUSH1 0x40 MLOAD PUSH2 0x158 SWAP9 SWAP8 SWAP7 SWAP6 SWAP5 SWAP4 SWAP3 SWAP2 SWAP1 PUSH2 0xBF7 JUMP JUMPDEST PUSH1 0x0 SLOAD PUSH1 0x1 PUSH1 0x1 PUSH1 0xA0 SHL SUB AND PUSH2 0x144 JUMP JUMPDEST PUSH2 0x173 PUSH1 0x6 SLOAD DUP2 JUMP JUMPDEST PUSH2 0x173 PUSH12 0x7C13BC4B2C133C560000000 DUP2 JUMP JUMPDEST PUSH2 0x1A7 PUSH2 0x24A CALLDATASIZE PUSH1 0x4 PUSH2 0xCAE JUMP JUMPDEST PUSH2 0x6BF JUMP JUMPDEST PUSH2 0x173 PUSH1 0x8 SLOAD DUP2 JUMP JUMPDEST PUSH2 0x1A7 PUSH2 0x266 CALLDATASIZE PUSH1 0x4 PUSH2 0xD82 JUMP JUMPDEST PUSH2 0x83B JUMP JUMPDEST PUSH2 0x1A7 PUSH2 0x279 CALLDATASIZE PUSH1 0x4 PUSH2 0xBD5 JUMP JUMPDEST PUSH2 0xAFE JUMP JUMPDEST PUSH1 0x7 SLOAD PUSH2 0x28B SWAP1 PUSH1 0xFF AND DUP2 JUMP JUMPDEST PUSH1 0x40 MLOAD SWAP1 ISZERO ISZERO DUP2 MSTORE PUSH1 0x20 ADD PUSH2 0x158 JUMP JUMPDEST PUSH2 0x2A3 PUSH2 0xB3C JUMP JUMPDEST PUSH1 0x7 SLOAD PUSH1 0xFF AND PUSH2 0x315 JUMPI PUSH1 0x40 MLOAD PUSH3 0x461BCD PUSH1 0xE5 SHL DUP2 MSTORE PUSH1 0x20 PUSH1 0x4 DUP3 ADD MSTORE PUSH1 0x32 PUSH1 0x24 DUP3 ADD MSTORE PUSH32 0x46756E64696E6720686173206E6F742073746172746564207965742C206E6F20 PUSH1 0x44 DUP3 ADD MSTORE PUSH18 0x746F6B656E7320746F207769746864726177 PUSH1 0x70 SHL PUSH1 0x64 DUP3 ADD MSTORE PUSH1 0x84 ADD JUMPDEST PUSH1 0x40 MLOAD DUP1 SWAP2 SUB SWAP1 REVERT JUMPDEST PUSH4 0x1E13380 PUSH1 0x6 SLOAD PUSH2 0x327 SWAP2 SWAP1 PUSH2 0xDC8 JUMP JUMPDEST TIMESTAMP LT ISZERO PUSH2 0x390 JUMPI PUSH1 0x40 MLOAD PUSH3 0x461BCD PUSH1 0xE5 SHL DUP2 MSTORE PUSH1 0x20 PUSH1 0x4 DUP3 ADD MSTORE PUSH1 0x31 PUSH1 0x24 DUP3 ADD MSTORE PUSH32 0x43616E6E6F74207769746864726177206265666F726520312079656172206166 PUSH1 0x44 DUP3 ADD MSTORE PUSH17 0x1D195C88199D5B991A5B99C81CDD185C9D PUSH1 0x7A SHL PUSH1 0x64 DUP3 ADD MSTORE PUSH1 0x84 ADD PUSH2 0x30C JUMP JUMPDEST PUSH12 0x7C13BC4B2C133C560000000 PUSH1 0x4 SLOAD GT ISZERO PUSH2 0x3FC JUMPI PUSH1 0x40 MLOAD PUSH3 0x461BCD PUSH1 0xE5 SHL DUP2 MSTORE PUSH1 0x20 PUSH1 0x4 DUP3 ADD MSTORE PUSH1 0x25 PUSH1 0x24 DUP3 ADD MSTORE PUSH32 0x416C6C2067726F77746820746F6B656E732068617665206265656E2077697468 PUSH1 0x44 DUP3 ADD MSTORE PUSH5 0x323930BBB7 PUSH1 0xD9 SHL PUSH1 0x64 DUP3 ADD MSTORE PUSH1 0x84 ADD PUSH2 0x30C JUMP JUMPDEST PUSH4 0x1E13380 PUSH1 0x5 SLOAD PUSH2 0x40E SWAP2 SWAP1 PUSH2 0xDC8 JUMP JUMPDEST TIMESTAMP LT ISZERO PUSH2 0x45D JUMPI PUSH1 0x40 MLOAD PUSH3 0x461BCD PUSH1 0xE5 SHL DUP2 MSTORE PUSH1 0x20 PUSH1 0x4 DUP3 ADD MSTORE PUSH1 0x1F PUSH1 0x24 DUP3 ADD MSTORE PUSH32 0x43616E206F6E6C79207769746864726177206F6E636520706572207965617200 PUSH1 0x44 DUP3 ADD MSTORE PUSH1 0x64 ADD PUSH2 0x30C JUMP JUMPDEST PUSH1 0x4 SLOAD PUSH11 0x6342FD08F00F6378000000 SWAP1 PUSH12 0x7C13BC4B2C133C560000000 SWAP1 PUSH2 0x486 SWAP1 DUP4 SWAP1 PUSH2 0xDC8 JUMP JUMPDEST GT ISZERO PUSH2 0x4A8 JUMPI PUSH1 0x4 SLOAD PUSH2 0x4A5 SWAP1 PUSH12 0x7C13BC4B2C133C560000000 PUSH2 0xDE1 JUMP JUMPDEST SWAP1 POP JUMPDEST DUP1 PUSH1 0x4 PUSH1 0x0 DUP3 DUP3 SLOAD PUSH2 0x4BA SWAP2 SWAP1 PUSH2 0xDC8 JUMP JUMPDEST SWAP1 SWAP2 SSTORE POP POP TIMESTAMP PUSH1 0x5 SSTORE PUSH1 0x2 SLOAD PUSH1 0x1 PUSH1 0x1 PUSH1 0xA0 SHL SUB AND PUSH4 0xA9059CBB PUSH2 0x4E6 PUSH1 0x0 SLOAD PUSH1 0x1 PUSH1 0x1 PUSH1 0xA0 SHL SUB AND SWAP1 JUMP JUMPDEST PUSH1 0x40 MLOAD PUSH1 0x1 PUSH1 0x1 PUSH1 0xE0 SHL SUB NOT PUSH1 0xE0 DUP5 SWAP1 SHL AND DUP2 MSTORE PUSH1 0x1 PUSH1 0x1 PUSH1 0xA0 SHL SUB SWAP1 SWAP2 AND PUSH1 0x4 DUP3 ADD MSTORE PUSH1 0x24 DUP2 ADD DUP5 SWAP1 MSTORE PUSH1 0x44 ADD PUSH1 0x20 PUSH1 0x40 MLOAD DUP1 DUP4 SUB DUP2 PUSH1 0x0 DUP8 GAS CALL ISZERO DUP1 ISZERO PUSH2 0x533 JUMPI RETURNDATASIZE PUSH1 0x0 DUP1 RETURNDATACOPY RETURNDATASIZE PUSH1 0x0 REVERT JUMPDEST POP POP POP POP PUSH1 0x40 MLOAD RETURNDATASIZE PUSH1 0x1F NOT PUSH1 0x1F DUP3 ADD AND DUP3 ADD DUP1 PUSH1 0x40 MSTORE POP DUP2 ADD SWAP1 PUSH2 0x557 SWAP2 SWAP1 PUSH2 0xDF4 JUMP JUMPDEST PUSH2 0x5A3 JUMPI PUSH1 0x40 MLOAD PUSH3 0x461BCD PUSH1 0xE5 SHL DUP2 MSTORE PUSH1 0x20 PUSH1 0x4 DUP3 ADD DUP2 SWAP1 MSTORE PUSH1 0x24 DUP3 ADD MSTORE PUSH32 0x4661696C656420746F207472616E736665722067726F77746820746F6B656E73 PUSH1 0x44 DUP3 ADD MSTORE PUSH1 0x64 ADD PUSH2 0x30C JUMP JUMPDEST PUSH1 0x40 MLOAD DUP2 DUP2 MSTORE PUSH32 0x67EDB450D6A2CF574F75C20D8D95C58301E4652D5040A1C67A68809EB1A0FC15 SWAP1 PUSH1 0x20 ADD PUSH1 0x40 MLOAD DUP1 SWAP2 SUB SWAP1 LOG1 POP JUMP JUMPDEST PUSH2 0x5E1 PUSH2 0xB3C JUMP JUMPDEST PUSH2 0x5EB PUSH1 0x0 PUSH2 0xB69 JUMP JUMPDEST JUMP JUMPDEST PUSH1 0xB PUSH1 0x20 MSTORE PUSH1 0x0 SWAP1 DUP2 MSTORE PUSH1 0x40 SWAP1 KECCAK256 DUP1 SLOAD PUSH1 0x1 DUP3 ADD SLOAD PUSH1 0x2 DUP4 ADD SLOAD PUSH1 0x3 DUP5 ADD SLOAD PUSH1 0x4 DUP6 ADD DUP1 SLOAD SWAP5 SWAP6 SWAP4 SWAP5 SWAP3 SWAP4 SWAP2 SWAP3 PUSH2 0x623 SWAP1 PUSH2 0xE11 JUMP JUMPDEST DUP1 PUSH1 0x1F ADD PUSH1 0x20 DUP1 SWAP2 DIV MUL PUSH1 0x20 ADD PUSH1 0x40 MLOAD SWAP1 DUP2 ADD PUSH1 0x40 MSTORE DUP1 SWAP3 SWAP2 SWAP1 DUP2 DUP2 MSTORE PUSH1 0x20 ADD DUP3 DUP1 SLOAD PUSH2 0x64F SWAP1 PUSH2 0xE11 JUMP JUMPDEST DUP1 ISZERO PUSH2 0x69C JUMPI DUP1 PUSH1 0x1F LT PUSH2 0x671 JUMPI PUSH2 0x100 DUP1 DUP4 SLOAD DIV MUL DUP4 MSTORE SWAP2 PUSH1 0x20 ADD SWAP2 PUSH2 0x69C JUMP JUMPDEST DUP3 ADD SWAP2 SWAP1 PUSH1 0x0 MSTORE PUSH1 0x20 PUSH1 0x0 KECCAK256 SWAP1 JUMPDEST DUP2 SLOAD DUP2 MSTORE SWAP1 PUSH1 0x1 ADD SWAP1 PUSH1 0x20 ADD DUP1 DUP4 GT PUSH2 0x67F JUMPI DUP3 SWAP1 SUB PUSH1 0x1F AND DUP3 ADD SWAP2 JUMPDEST POP POP POP POP PUSH1 0x5 DUP4 ADD SLOAD PUSH1 0x6 SWAP1 SWAP4 ADD SLOAD SWAP2 SWAP3 SWAP2 PUSH1 0xFF DUP1 DUP3 AND SWAP3 POP PUSH2 0x100 SWAP1 SWAP2 DIV AND DUP9 JUMP JUMPDEST PUSH1 0x0 SLOAD PUSH1 0x1 PUSH1 0x1 PUSH1 0xA0 SHL SUB AND CALLER EQ DUP1 PUSH2 0x6E2 JUMPI POP PUSH1 0xA SLOAD PUSH1 0x1 PUSH1 0x1 PUSH1 0xA0 SHL SUB AND CALLER EQ JUMPDEST PUSH2 0x756 JUMPI PUSH1 0x40 DUP1 MLOAD PUSH3 0x461BCD PUSH1 0xE5 SHL DUP2 MSTORE PUSH1 0x20 PUSH1 0x4 DUP3 ADD MSTORE PUSH1 0x24 DUP2 ADD SWAP2 SWAP1 SWAP2 MSTORE PUSH32 0x46756E6374696F6E207265736572766564206F6E6C7920666F72207468652077 PUSH1 0x44 DUP3 ADD MSTORE PUSH32 0x68697465206C69737465722061646472657373206F7220746865206F776E6572 PUSH1 0x64 DUP3 ADD MSTORE PUSH1 0x84 ADD PUSH2 0x30C JUMP JUMPDEST PUSH1 0x1 PUSH1 0x1 PUSH1 0xA0 SHL SUB DUP4 AND PUSH1 0x0 SWAP1 DUP2 MSTORE PUSH1 0xB PUSH1 0x20 MSTORE PUSH1 0x40 SWAP1 KECCAK256 PUSH1 0x6 ADD SLOAD PUSH2 0x100 SWAP1 DIV PUSH1 0xFF AND ISZERO PUSH2 0x7C7 JUMPI PUSH1 0x40 MLOAD PUSH3 0x461BCD PUSH1 0xE5 SHL DUP2 MSTORE PUSH1 0x20 PUSH1 0x4 DUP3 ADD MSTORE PUSH1 0x1F PUSH1 0x24 DUP3 ADD MSTORE PUSH32 0x57616C6C657420616C726561647920696E207468652077686974656C69737400 PUSH1 0x44 DUP3 ADD MSTORE PUSH1 0x64 ADD PUSH2 0x30C JUMP JUMPDEST PUSH1 0x1 PUSH1 0x1 PUSH1 0xA0 SHL SUB DUP4 AND PUSH1 0x0 SWAP1 DUP2 MSTORE PUSH1 0xB PUSH1 0x20 MSTORE PUSH1 0x40 SWAP1 KECCAK256 PUSH1 0x6 DUP2 ADD DUP1 SLOAD DUP5 ISZERO ISZERO PUSH2 0xFFFF NOT SWAP1 SWAP2 AND OR PUSH2 0x100 OR SWAP1 SSTORE PUSH1 0x4 ADD PUSH2 0x803 DUP3 DUP3 PUSH2 0xE9A JUMP JUMPDEST POP POP POP PUSH1 0x1 PUSH1 0x1 PUSH1 0xA0 SHL SUB AND PUSH1 0x0 SWAP1 DUP2 MSTORE PUSH1 0xB PUSH1 0x20 MSTORE PUSH1 0x40 DUP2 KECCAK256 DUP2 DUP2 SSTORE PUSH1 0x1 DUP2 ADD DUP3 SWAP1 SSTORE PUSH1 0x3 DUP2 ADD DUP3 SWAP1 SSTORE PUSH1 0x2 DUP2 ADD DUP3 SWAP1 SSTORE PUSH1 0x5 ADD SSTORE JUMP JUMPDEST PUSH2 0x843 PUSH2 0xB3C JUMP JUMPDEST PUSH1 0x0 DUP3 PUSH1 0x2 DUP2 GT ISZERO PUSH2 0x857 JUMPI PUSH2 0x857 PUSH2 0xF5A JUMP JUMPDEST EQ DUP1 PUSH2 0x874 JUMPI POP PUSH1 0x1 DUP3 PUSH1 0x2 DUP2 GT ISZERO PUSH2 0x872 JUMPI PUSH2 0x872 PUSH2 0xF5A JUMP JUMPDEST EQ JUMPDEST DUP1 PUSH2 0x890 JUMPI POP PUSH1 0x2 DUP3 PUSH1 0x2 DUP2 GT ISZERO PUSH2 0x88E JUMPI PUSH2 0x88E PUSH2 0xF5A JUMP JUMPDEST EQ JUMPDEST PUSH2 0x8D3 JUMPI PUSH1 0x40 MLOAD PUSH3 0x461BCD PUSH1 0xE5 SHL DUP2 MSTORE PUSH1 0x20 PUSH1 0x4 DUP3 ADD MSTORE PUSH1 0x14 PUSH1 0x24 DUP3 ADD MSTORE PUSH20 0x496E76616C69642066756E64696E672074797065 PUSH1 0x60 SHL PUSH1 0x44 DUP3 ADD MSTORE PUSH1 0x64 ADD PUSH2 0x30C JUMP JUMPDEST PUSH1 0x0 DUP2 GT PUSH2 0x923 JUMPI PUSH1 0x40 MLOAD PUSH3 0x461BCD PUSH1 0xE5 SHL DUP2 MSTORE PUSH1 0x20 PUSH1 0x4 DUP3 ADD MSTORE PUSH1 0x1D PUSH1 0x24 DUP3 ADD MSTORE PUSH32 0x416D6F756E74206D7573742062652067726561746572207468616E2030000000 PUSH1 0x44 DUP3 ADD MSTORE PUSH1 0x64 ADD PUSH2 0x30C JUMP JUMPDEST PUSH1 0x2 SLOAD PUSH1 0x40 MLOAD PUSH4 0x23B872DD PUSH1 0xE0 SHL DUP2 MSTORE CALLER PUSH1 0x4 DUP3 ADD MSTORE ADDRESS PUSH1 0x24 DUP3 ADD MSTORE PUSH1 0x44 DUP2 ADD DUP4 SWAP1 MSTORE PUSH1 0x1 PUSH1 0x1 PUSH1 0xA0 SHL SUB SWAP1 SWAP2 AND SWAP1 PUSH4 0x23B872DD SWAP1 PUSH1 0x64 ADD PUSH1 0x20 PUSH1 0x40 MLOAD DUP1 DUP4 SUB DUP2 PUSH1 0x0 DUP8 GAS CALL ISZERO DUP1 ISZERO PUSH2 0x97A JUMPI RETURNDATASIZE PUSH1 0x0 DUP1 RETURNDATACOPY RETURNDATASIZE PUSH1 0x0 REVERT JUMPDEST POP POP POP POP PUSH1 0x40 MLOAD RETURNDATASIZE PUSH1 0x1F NOT PUSH1 0x1F DUP3 ADD AND DUP3 ADD DUP1 PUSH1 0x40 MSTORE POP DUP2 ADD SWAP1 PUSH2 0x99E SWAP2 SWAP1 PUSH2 0xDF4 JUMP JUMPDEST PUSH2 0xA04 JUMPI PUSH1 0x40 MLOAD PUSH3 0x461BCD PUSH1 0xE5 SHL DUP2 MSTORE PUSH1 0x20 PUSH1 0x4 DUP3 ADD MSTORE PUSH1 0x31 PUSH1 0x24 DUP3 ADD MSTORE PUSH32 0x54686572652077617320616E206572726F72206F6E20726563656976696E6720 PUSH1 0x44 DUP3 ADD MSTORE PUSH17 0x74686520746F6B656E2066756E64696E67 PUSH1 0x78 SHL PUSH1 0x64 DUP3 ADD MSTORE PUSH1 0x84 ADD PUSH2 0x30C JUMP JUMPDEST PUSH1 0x2 DUP3 PUSH1 0x2 DUP2 GT ISZERO PUSH2 0xA18 JUMPI PUSH2 0xA18 PUSH2 0xF5A JUMP JUMPDEST SUB PUSH2 0xA5A JUMPI DUP1 PUSH1 0x3 PUSH1 0x0 DUP3 DUP3 SLOAD PUSH2 0xA2F SWAP2 SWAP1 PUSH2 0xDC8 JUMP JUMPDEST SWAP1 SWAP2 SSTORE POP POP PUSH1 0x7 SLOAD PUSH1 0xFF AND PUSH2 0xA55 JUMPI PUSH1 0x7 DUP1 SLOAD PUSH1 0xFF NOT AND PUSH1 0x1 OR SWAP1 SSTORE TIMESTAMP PUSH1 0x6 DUP2 SWAP1 SSTORE PUSH1 0x5 SSTORE JUMPDEST PUSH2 0xAC1 JUMP JUMPDEST PUSH1 0x0 DUP3 PUSH1 0x2 DUP2 GT ISZERO PUSH2 0xA6E JUMPI PUSH2 0xA6E PUSH2 0xF5A JUMP JUMPDEST SUB PUSH2 0xA90 JUMPI DUP1 PUSH1 0x9 PUSH1 0x0 DUP3 DUP3 SLOAD PUSH2 0xA85 SWAP2 SWAP1 PUSH2 0xDC8 JUMP JUMPDEST SWAP1 SWAP2 SSTORE POP PUSH2 0xAC1 SWAP1 POP JUMP JUMPDEST PUSH1 0x1 DUP3 PUSH1 0x2 DUP2 GT ISZERO PUSH2 0xAA4 JUMPI PUSH2 0xAA4 PUSH2 0xF5A JUMP JUMPDEST SUB PUSH2 0xAC1 JUMPI DUP1 PUSH1 0x8 PUSH1 0x0 DUP3 DUP3 SLOAD PUSH2 0xABB SWAP2 SWAP1 PUSH2 0xDC8 JUMP JUMPDEST SWAP1 SWAP2 SSTORE POP POP JUMPDEST PUSH32 0xBC0B9ECC68EC48681B8F5718FA26B9CE02021220455BE5F5837A944140A80EA3 DUP3 DUP3 PUSH1 0x40 MLOAD PUSH2 0xAF2 SWAP3 SWAP2 SWAP1 PUSH2 0xF70 JUMP JUMPDEST PUSH1 0x40 MLOAD DUP1 SWAP2 SUB SWAP1 LOG1 POP POP JUMP JUMPDEST PUSH2 0xB06 PUSH2 0xB3C JUMP JUMPDEST PUSH1 0x1 PUSH1 0x1 PUSH1 0xA0 SHL SUB DUP2 AND PUSH2 0xB30 JUMPI PUSH1 0x40 MLOAD PUSH4 0x1E4FBDF7 PUSH1 0xE0 SHL DUP2 MSTORE PUSH1 0x0 PUSH1 0x4 DUP3 ADD MSTORE PUSH1 0x24 ADD PUSH2 0x30C JUMP JUMPDEST PUSH2 0xB39 DUP2 PUSH2 0xB69 JUMP JUMPDEST POP JUMP JUMPDEST PUSH1 0x0 SLOAD PUSH1 0x1 PUSH1 0x1 PUSH1 0xA0 SHL SUB AND CALLER EQ PUSH2 0x5EB JUMPI PUSH1 0x40 MLOAD PUSH4 0x118CDAA7 PUSH1 0xE0 SHL DUP2 MSTORE CALLER PUSH1 0x4 DUP3 ADD MSTORE PUSH1 0x24 ADD PUSH2 0x30C JUMP JUMPDEST PUSH1 0x0 DUP1 SLOAD PUSH1 0x1 PUSH1 0x1 PUSH1 0xA0 SHL SUB DUP4 DUP2 AND PUSH1 0x1 PUSH1 0x1 PUSH1 0xA0 SHL SUB NOT DUP4 AND DUP2 OR DUP5 SSTORE PUSH1 0x40 MLOAD SWAP2 SWAP1 SWAP3 AND SWAP3 DUP4 SWAP2 PUSH32 0x8BE0079C531659141344CD1FD0A4F28419497F9722A3DAAFE3B4186F6B6457E0 SWAP2 SWAP1 LOG3 POP POP JUMP JUMPDEST DUP1 CALLDATALOAD PUSH1 0x1 PUSH1 0x1 PUSH1 0xA0 SHL SUB DUP2 AND DUP2 EQ PUSH2 0xBD0 JUMPI PUSH1 0x0 DUP1 REVERT JUMPDEST SWAP2 SWAP1 POP JUMP JUMPDEST PUSH1 0x0 PUSH1 0x20 DUP3 DUP5 SUB SLT ISZERO PUSH2 0xBE7 JUMPI PUSH1 0x0 DUP1 REVERT JUMPDEST PUSH2 0xBF0 DUP3 PUSH2 0xBB9 JUMP JUMPDEST SWAP4 SWAP3 POP POP POP JUMP JUMPDEST PUSH1 0x0 PUSH2 0x100 DUP11 DUP4 MSTORE PUSH1 0x20 DUP11 DUP2 DUP6 ADD MSTORE DUP10 PUSH1 0x40 DUP6 ADD MSTORE DUP9 PUSH1 0x60 DUP6 ADD MSTORE DUP2 PUSH1 0x80 DUP6 ADD MSTORE DUP8 MLOAD DUP1 DUP4 DUP7 ADD MSTORE PUSH1 0x0 SWAP3 POP JUMPDEST DUP1 DUP4 LT ISZERO PUSH2 0xC43 JUMPI DUP9 DUP4 ADD DUP3 ADD MLOAD DUP6 DUP5 ADD PUSH2 0x120 ADD MSTORE SWAP2 DUP2 ADD SWAP2 PUSH2 0xC24 JUMP JUMPDEST PUSH2 0x120 SWAP3 POP PUSH1 0x0 DUP4 DUP3 DUP8 ADD ADD MSTORE DUP3 PUSH1 0x1F NOT PUSH1 0x1F DUP4 ADD AND DUP7 ADD ADD SWAP4 POP POP POP POP DUP5 PUSH1 0xA0 DUP4 ADD MSTORE PUSH2 0xC75 PUSH1 0xC0 DUP4 ADD DUP6 ISZERO ISZERO SWAP1 MSTORE JUMP JUMPDEST DUP3 ISZERO ISZERO PUSH1 0xE0 DUP4 ADD MSTORE SWAP10 SWAP9 POP POP POP POP POP POP POP POP POP JUMP JUMPDEST DUP1 ISZERO ISZERO DUP2 EQ PUSH2 0xB39 JUMPI PUSH1 0x0 DUP1 REVERT JUMPDEST PUSH4 0x4E487B71 PUSH1 0xE0 SHL PUSH1 0x0 MSTORE PUSH1 0x41 PUSH1 0x4 MSTORE PUSH1 0x24 PUSH1 0x0 REVERT JUMPDEST PUSH1 0x0 DUP1 PUSH1 0x0 PUSH1 0x60 DUP5 DUP7 SUB SLT ISZERO PUSH2 0xCC3 JUMPI PUSH1 0x0 DUP1 REVERT JUMPDEST PUSH2 0xCCC DUP5 PUSH2 0xBB9 JUMP JUMPDEST SWAP3 POP PUSH1 0x20 DUP5 ADD CALLDATALOAD PUSH2 0xCDC DUP2 PUSH2 0xC8A JUMP JUMPDEST SWAP2 POP PUSH1 0x40 DUP5 ADD CALLDATALOAD PUSH8 0xFFFFFFFFFFFFFFFF DUP1 DUP3 GT ISZERO PUSH2 0xCF9 JUMPI PUSH1 0x0 DUP1 REVERT JUMPDEST DUP2 DUP7 ADD SWAP2 POP DUP7 PUSH1 0x1F DUP4 ADD SLT PUSH2 0xD0D JUMPI PUSH1 0x0 DUP1 REVERT JUMPDEST DUP2 CALLDATALOAD DUP2 DUP2 GT ISZERO PUSH2 0xD1F JUMPI PUSH2 0xD1F PUSH2 0xC98 JUMP JUMPDEST PUSH1 0x40 MLOAD PUSH1 0x1F DUP3 ADD PUSH1 0x1F NOT SWAP1 DUP2 AND PUSH1 0x3F ADD AND DUP2 ADD SWAP1 DUP4 DUP3 GT DUP2 DUP4 LT OR ISZERO PUSH2 0xD47 JUMPI PUSH2 0xD47 PUSH2 0xC98 JUMP JUMPDEST DUP2 PUSH1 0x40 MSTORE DUP3 DUP2 MSTORE DUP10 PUSH1 0x20 DUP5 DUP8 ADD ADD GT ISZERO PUSH2 0xD60 JUMPI PUSH1 0x0 DUP1 REVERT JUMPDEST DUP3 PUSH1 0x20 DUP7 ADD PUSH1 0x20 DUP4 ADD CALLDATACOPY PUSH1 0x0 PUSH1 0x20 DUP5 DUP4 ADD ADD MSTORE DUP1 SWAP6 POP POP POP POP POP POP SWAP3 POP SWAP3 POP SWAP3 JUMP JUMPDEST PUSH1 0x0 DUP1 PUSH1 0x40 DUP4 DUP6 SUB SLT ISZERO PUSH2 0xD95 JUMPI PUSH1 0x0 DUP1 REVERT JUMPDEST DUP3 CALLDATALOAD PUSH1 0x3 DUP2 LT PUSH2 0xDA4 JUMPI PUSH1 0x0 DUP1 REVERT JUMPDEST SWAP5 PUSH1 0x20 SWAP4 SWAP1 SWAP4 ADD CALLDATALOAD SWAP4 POP POP POP JUMP JUMPDEST PUSH4 0x4E487B71 PUSH1 0xE0 SHL PUSH1 0x0 MSTORE PUSH1 0x11 PUSH1 0x4 MSTORE PUSH1 0x24 PUSH1 0x0 REVERT JUMPDEST DUP1 DUP3 ADD DUP1 DUP3 GT ISZERO PUSH2 0xDDB JUMPI PUSH2 0xDDB PUSH2 0xDB2 JUMP JUMPDEST SWAP3 SWAP2 POP POP JUMP JUMPDEST DUP2 DUP2 SUB DUP2 DUP2 GT ISZERO PUSH2 0xDDB JUMPI PUSH2 0xDDB PUSH2 0xDB2 JUMP JUMPDEST PUSH1 0x0 PUSH1 0x20 DUP3 DUP5 SUB SLT ISZERO PUSH2 0xE06 JUMPI PUSH1 0x0 DUP1 REVERT JUMPDEST DUP2 MLOAD PUSH2 0xBF0 DUP2 PUSH2 0xC8A JUMP JUMPDEST PUSH1 0x1 DUP2 DUP2 SHR SWAP1 DUP3 AND DUP1 PUSH2 0xE25 JUMPI PUSH1 0x7F DUP3 AND SWAP2 POP JUMPDEST PUSH1 0x20 DUP3 LT DUP2 SUB PUSH2 0xE45 JUMPI PUSH4 0x4E487B71 PUSH1 0xE0 SHL PUSH1 0x0 MSTORE PUSH1 0x22 PUSH1 0x4 MSTORE PUSH1 0x24 PUSH1 0x0 REVERT JUMPDEST POP SWAP2 SWAP1 POP JUMP JUMPDEST PUSH1 0x1F DUP3 GT ISZERO PUSH2 0xE95 JUMPI PUSH1 0x0 DUP2 DUP2 MSTORE PUSH1 0x20 DUP2 KECCAK256 PUSH1 0x1F DUP6 ADD PUSH1 0x5 SHR DUP2 ADD PUSH1 0x20 DUP7 LT ISZERO PUSH2 0xE72 JUMPI POP DUP1 JUMPDEST PUSH1 0x1F DUP6 ADD PUSH1 0x5 SHR DUP3 ADD SWAP2 POP JUMPDEST DUP2 DUP2 LT ISZERO PUSH2 0xE91 JUMPI DUP3 DUP2 SSTORE PUSH1 0x1 ADD PUSH2 0xE7E JUMP JUMPDEST POP POP POP JUMPDEST POP POP POP JUMP JUMPDEST DUP2 MLOAD PUSH8 0xFFFFFFFFFFFFFFFF DUP2 GT ISZERO PUSH2 0xEB4 JUMPI PUSH2 0xEB4 PUSH2 0xC98 JUMP JUMPDEST PUSH2 0xEC8 DUP2 PUSH2 0xEC2 DUP5 SLOAD PUSH2 0xE11 JUMP JUMPDEST DUP5 PUSH2 0xE4B JUMP JUMPDEST PUSH1 0x20 DUP1 PUSH1 0x1F DUP4 GT PUSH1 0x1 DUP2 EQ PUSH2 0xEFD JUMPI PUSH1 0x0 DUP5 ISZERO PUSH2 0xEE5 JUMPI POP DUP6 DUP4 ADD MLOAD JUMPDEST PUSH1 0x0 NOT PUSH1 0x3 DUP7 SWAP1 SHL SHR NOT AND PUSH1 0x1 DUP6 SWAP1 SHL OR DUP6 SSTORE PUSH2 0xE91 JUMP JUMPDEST PUSH1 0x0 DUP6 DUP2 MSTORE PUSH1 0x20 DUP2 KECCAK256 PUSH1 0x1F NOT DUP7 AND SWAP2 JUMPDEST DUP3 DUP2 LT ISZERO PUSH2 0xF2C JUMPI DUP9 DUP7 ADD MLOAD DUP3 SSTORE SWAP5 DUP5 ADD SWAP5 PUSH1 0x1 SWAP1 SWAP2 ADD SWAP1 DUP5 ADD PUSH2 0xF0D JUMP JUMPDEST POP DUP6 DUP3 LT ISZERO PUSH2 0xF4A JUMPI DUP8 DUP6 ADD MLOAD PUSH1 0x0 NOT PUSH1 0x3 DUP9 SWAP1 SHL PUSH1 0xF8 AND SHR NOT AND DUP2 SSTORE JUMPDEST POP POP POP POP POP PUSH1 0x1 SWAP1 DUP2 SHL ADD SWAP1 SSTORE POP JUMP JUMPDEST PUSH4 0x4E487B71 PUSH1 0xE0 SHL PUSH1 0x0 MSTORE PUSH1 0x21 PUSH1 0x4 MSTORE PUSH1 0x24 PUSH1 0x0 REVERT JUMPDEST PUSH1 0x40 DUP2 ADD PUSH1 0x3 DUP5 LT PUSH2 0xF92 JUMPI PUSH4 0x4E487B71 PUSH1 0xE0 SHL PUSH1 0x0 MSTORE PUSH1 0x21 PUSH1 0x4 MSTORE PUSH1 0x24 PUSH1 0x0 REVERT JUMPDEST SWAP3 DUP2 MSTORE PUSH1 0x20 ADD MSTORE SWAP1 JUMP INVALID LOG2 PUSH5 0x6970667358 0x22 SLT KECCAK256 0xCB 0x4A 0x1F 0xBD CALL RETURN 0xAE PUSH5 0x50261185F1 STATICCALL 0xE4 DUP5 0xEA PUSH23 0xDB9295F96AB1C14C3C2FDCEFEC4764736F6C6343000814 STOP CALLER "},"methodIdentifiers":{"GROWTH_TOKENS_TOTAL()":"a868e997","GROWTH_TOKENS_WITHDRAWAL_PERIOD()":"41cb484a","GROWTH_TOKENS_WITHDRAWAL_PER_YEAR()":"1e6b4028","addWalletToWhitelist(address,bool,string)":"c7421566","fundSmartContract(uint8,uint256)":"d3946a8c","growthTokensFunded()":"5d70203b","growthTokensFundingStarted()":"f3793b9d","growthTokensLastWithdrawalTime()":"687a83f8","growthTokensStartFundingTime()":"9656cd8c","growthTokensWithdrawn()":"6148c783","hyaxToken()":"3ba10a56","hyaxTokenAddress()":"031f6589","owner()":"8da5cb5b","renounceOwnership()":"715018a6","tokenInvestorRewards()":"d1c02aaf","tokenTeamRewards()":"8036f063","transferOwnership(address)":"f2fde38b","wallets(address)":"89b08f11","whiteListerAddress()":"65699d28","withdrawGrowthTokens()":"4c4dc42e"}},"storageLayout":{"storage":[{"astId":8,"contract":"contracts/UpgradeableHYAXRewards.sol:UpgradeableHYAXRewards","label":"_owner","offset":0,"slot":"0","type":"t_address"},{"astId":1010,"contract":"contracts/UpgradeableHYAXRewards.sol:UpgradeableHYAXRewards","label":"hyaxTokenAddress","offset":0,"slot":"1","type":"t_address"},{"astId":1013,"contract":"contracts/UpgradeableHYAXRewards.sol:UpgradeableHYAXRewards","label":"hyaxToken","offset":0,"slot":"2","type":"t_contract(ERC20TokenInterface)995"},{"astId":1036,"contract":"contracts/UpgradeableHYAXRewards.sol:UpgradeableHYAXRewards","label":"growthTokensFunded","offset":0,"slot":"3","type":"t_uint256"},{"astId":1038,"contract":"contracts/UpgradeableHYAXRewards.sol:UpgradeableHYAXRewards","label":"growthTokensWithdrawn","offset":0,"slot":"4","type":"t_uint256"},{"astId":1040,"contract":"contracts/UpgradeableHYAXRewards.sol:UpgradeableHYAXRewards","label":"growthTokensLastWithdrawalTime","offset":0,"slot":"5","type":"t_uint256"},{"astId":1042,"contract":"contracts/UpgradeableHYAXRewards.sol:UpgradeableHYAXRewards","label":"growthTokensStartFundingTime","offset":0,"slot":"6","type":"t_uint256"},{"astId":1044,"contract":"contracts/UpgradeableHYAXRewards.sol:UpgradeableHYAXRewards","label":"growthTokensFundingStarted","offset":0,"slot":"7","type":"t_bool"},{"astId":1046,"contract":"contracts/UpgradeableHYAXRewards.sol:UpgradeableHYAXRewards","label":"tokenInvestorRewards","offset":0,"slot":"8","type":"t_uint256"},{"astId":1048,"contract":"contracts/UpgradeableHYAXRewards.sol:UpgradeableHYAXRewards","label":"tokenTeamRewards","offset":0,"slot":"9","type":"t_uint256"},{"astId":1050,"contract":"contracts/UpgradeableHYAXRewards.sol:UpgradeableHYAXRewards","label":"whiteListerAddress","offset":0,"slot":"10","type":"t_address"},{"astId":1072,"contract":"contracts/UpgradeableHYAXRewards.sol:UpgradeableHYAXRewards","label":"wallets","offset":0,"slot":"11","type":"t_mapping(t_address,t_struct(WalletData)1067_storage)"}],"types":{"t_address":{"encoding":"inplace","label":"address","numberOfBytes":"20"},"t_bool":{"encoding":"inplace","label":"bool","numberOfBytes":"1"},"t_contract(ERC20TokenInterface)995":{"encoding":"inplace","label":"contract ERC20TokenInterface","numberOfBytes":"20"},"t_mapping(t_address,t_struct(WalletData)1067_storage)":{"encoding":"mapping","key":"t_address","label":"mapping(address => struct UpgradeableHYAXRewards.WalletData)","numberOfBytes":"32","value":"t_struct(WalletData)1067_storage"},"t_string_storage":{"encoding":"bytes","label":"string","numberOfBytes":"32"},"t_struct(WalletData)1067_storage":{"encoding":"inplace","label":"struct UpgradeableHYAXRewards.WalletData","members":[{"astId":1052,"contract":"contracts/UpgradeableHYAXRewards.sol:UpgradeableHYAXRewards","label":"hyaxHoldingAmount","offset":0,"slot":"0","type":"t_uint256"},{"astId":1054,"contract":"contracts/UpgradeableHYAXRewards.sol:UpgradeableHYAXRewards","label":"holdingTime","offset":0,"slot":"1","type":"t_uint256"},{"astId":1056,"contract":"contracts/UpgradeableHYAXRewards.sol:UpgradeableHYAXRewards","label":"totalHyaxRewardsAmount","offset":0,"slot":"2","type":"t_uint256"},{"astId":1058,"contract":"contracts/UpgradeableHYAXRewards.sol:UpgradeableHYAXRewards","label":"currentRewardsAmount","offset":0,"slot":"3","type":"t_uint256"},{"astId":1060,"contract":"contracts/UpgradeableHYAXRewards.sol:UpgradeableHYAXRewards","label":"bitcoinRewardsAddress","offset":0,"slot":"4","type":"t_string_storage"},{"astId":1062,"contract":"contracts/UpgradeableHYAXRewards.sol:UpgradeableHYAXRewards","label":"rewardsWithdrawn","offset":0,"slot":"5","type":"t_uint256"},{"astId":1064,"contract":"contracts/UpgradeableHYAXRewards.sol:UpgradeableHYAXRewards","label":"isTeamWallet","offset":0,"slot":"6","type":"t_bool"},{"astId":1066,"contract":"contracts/UpgradeableHYAXRewards.sol:UpgradeableHYAXRewards","label":"isWhitelisted","offset":1,"slot":"6","type":"t_bool"}],"numberOfBytes":"224"},"t_uint256":{"encoding":"inplace","label":"uint256","numberOfBytes":"32"}}}}}}