{
  "_format": "hh-sol-artifact-1",
  "contractName": "UpgradeableHYAXRewards",
  "sourceName": "contracts/UpgradeableHYAXRewards.sol",
  "abi": [
    {
      "inputs": [
        {
          "internalType": "address",
          "name": "_hyaxTokenAddress",
          "type": "address"
        }
      ],
      "stateMutability": "nonpayable",
      "type": "constructor"
    },
    {
      "inputs": [],
      "name": "EnforcedPause",
      "type": "error"
    },
    {
      "inputs": [],
      "name": "ExpectedPause",
      "type": "error"
    },
    {
      "inputs": [
        {
          "internalType": "address",
          "name": "owner",
          "type": "address"
        }
      ],
      "name": "OwnableInvalidOwner",
      "type": "error"
    },
    {
      "inputs": [
        {
          "internalType": "address",
          "name": "account",
          "type": "address"
        }
      ],
      "name": "OwnableUnauthorizedAccount",
      "type": "error"
    },
    {
      "inputs": [],
      "name": "ReentrancyGuardReentrantCall",
      "type": "error"
    },
    {
      "anonymous": false,
      "inputs": [
        {
          "indexed": false,
          "internalType": "address",
          "name": "_sender",
          "type": "address"
        },
        {
          "indexed": false,
          "internalType": "address",
          "name": "_walletAddress",
          "type": "address"
        },
        {
          "indexed": false,
          "internalType": "bool",
          "name": "_newStatus",
          "type": "bool"
        }
      ],
      "name": "BlacklistStatusUpdated",
      "type": "event"
    },
    {
      "anonymous": false,
      "inputs": [
        {
          "indexed": false,
          "internalType": "enum UpgradeableHYAXRewards.FundingType",
          "name": "_fundingType",
          "type": "uint8"
        },
        {
          "indexed": false,
          "internalType": "uint256",
          "name": "_amount",
          "type": "uint256"
        }
      ],
      "name": "FundingAdded",
      "type": "event"
    },
    {
      "anonymous": false,
      "inputs": [
        {
          "indexed": false,
          "internalType": "address",
          "name": "_walletAddress",
          "type": "address"
        },
        {
          "indexed": false,
          "internalType": "uint256",
          "name": "_amount",
          "type": "uint256"
        }
      ],
      "name": "GrowthTokensWithdrawn",
      "type": "event"
    },
    {
      "anonymous": false,
      "inputs": [
        {
          "indexed": false,
          "internalType": "address",
          "name": "_sender",
          "type": "address"
        },
        {
          "indexed": false,
          "internalType": "address",
          "name": "_origin",
          "type": "address"
        }
      ],
      "name": "LogSenderAndOrigin",
      "type": "event"
    },
    {
      "anonymous": false,
      "inputs": [
        {
          "indexed": true,
          "internalType": "address",
          "name": "previousOwner",
          "type": "address"
        },
        {
          "indexed": true,
          "internalType": "address",
          "name": "newOwner",
          "type": "address"
        }
      ],
      "name": "OwnershipTransferred",
      "type": "event"
    },
    {
      "anonymous": false,
      "inputs": [
        {
          "indexed": false,
          "internalType": "address",
          "name": "account",
          "type": "address"
        }
      ],
      "name": "Paused",
      "type": "event"
    },
    {
      "anonymous": false,
      "inputs": [
        {
          "indexed": false,
          "internalType": "address",
          "name": "_walletAddress",
          "type": "address"
        },
        {
          "indexed": false,
          "internalType": "uint256",
          "name": "_amount",
          "type": "uint256"
        }
      ],
      "name": "RewardTokensWithdrawn",
      "type": "event"
    },
    {
      "anonymous": false,
      "inputs": [
        {
          "indexed": false,
          "internalType": "address",
          "name": "_sender",
          "type": "address"
        },
        {
          "indexed": false,
          "internalType": "address",
          "name": "_walletAddress",
          "type": "address"
        },
        {
          "indexed": false,
          "internalType": "string",
          "name": "_errorMessage",
          "type": "string"
        }
      ],
      "name": "RewardUpdateFailed",
      "type": "event"
    },
    {
      "anonymous": false,
      "inputs": [
        {
          "indexed": false,
          "internalType": "address",
          "name": "_sender",
          "type": "address"
        },
        {
          "indexed": false,
          "internalType": "address",
          "name": "_walletAddress",
          "type": "address"
        },
        {
          "indexed": false,
          "internalType": "uint256",
          "name": "_hyaxReward",
          "type": "uint256"
        }
      ],
      "name": "RewardUpdateSuccess",
      "type": "event"
    },
    {
      "anonymous": false,
      "inputs": [
        {
          "indexed": false,
          "internalType": "address",
          "name": "_walletAddress",
          "type": "address"
        },
        {
          "indexed": false,
          "internalType": "uint256",
          "name": "_amount",
          "type": "uint256"
        }
      ],
      "name": "TeamTokensWithdrawn",
      "type": "event"
    },
    {
      "anonymous": false,
      "inputs": [
        {
          "indexed": false,
          "internalType": "enum UpgradeableHYAXRewards.FundingType",
          "name": "_fundingType",
          "type": "uint8"
        },
        {
          "indexed": false,
          "internalType": "uint256",
          "name": "_amount",
          "type": "uint256"
        }
      ],
      "name": "TokensToBurnWithdrawn",
      "type": "event"
    },
    {
      "anonymous": false,
      "inputs": [
        {
          "indexed": false,
          "internalType": "address",
          "name": "account",
          "type": "address"
        }
      ],
      "name": "Unpaused",
      "type": "event"
    },
    {
      "anonymous": false,
      "inputs": [
        {
          "indexed": false,
          "internalType": "address",
          "name": "_sender",
          "type": "address"
        },
        {
          "indexed": false,
          "internalType": "address",
          "name": "_walletAddress",
          "type": "address"
        },
        {
          "indexed": false,
          "internalType": "bool",
          "name": "_isTeamWallet",
          "type": "bool"
        },
        {
          "indexed": false,
          "internalType": "uint256",
          "name": "_hyaxHoldingAmount",
          "type": "uint256"
        }
      ],
      "name": "WalletAddedToWhitelist",
      "type": "event"
    },
    {
      "anonymous": false,
      "inputs": [
        {
          "indexed": false,
          "internalType": "address",
          "name": "_sender",
          "type": "address"
        },
        {
          "indexed": false,
          "internalType": "address",
          "name": "_walletAddress",
          "type": "address"
        },
        {
          "indexed": false,
          "internalType": "bool",
          "name": "_newStatus",
          "type": "bool"
        }
      ],
      "name": "WhitelistStatusUpdated",
      "type": "event"
    },
    {
      "inputs": [],
      "name": "GROWTH_TOKENS_TOTAL",
      "outputs": [
        {
          "internalType": "uint256",
          "name": "",
          "type": "uint256"
        }
      ],
      "stateMutability": "view",
      "type": "function"
    },
    {
      "inputs": [],
      "name": "GROWTH_TOKENS_WITHDRAWAL_PER_YEAR",
      "outputs": [
        {
          "internalType": "uint256",
          "name": "",
          "type": "uint256"
        }
      ],
      "stateMutability": "view",
      "type": "function"
    },
    {
      "inputs": [],
      "name": "MIN_INTERVAL_FOR_UPDATE_REWARDS",
      "outputs": [
        {
          "internalType": "uint256",
          "name": "",
          "type": "uint256"
        }
      ],
      "stateMutability": "view",
      "type": "function"
    },
    {
      "inputs": [],
      "name": "REWARD_TOKENS_HOLDING_PERIOD",
      "outputs": [
        {
          "internalType": "uint256",
          "name": "",
          "type": "uint256"
        }
      ],
      "stateMutability": "view",
      "type": "function"
    },
    {
      "inputs": [],
      "name": "REWARD_TOKENS_PER_WEEK",
      "outputs": [
        {
          "internalType": "uint256",
          "name": "",
          "type": "uint256"
        }
      ],
      "stateMutability": "view",
      "type": "function"
    },
    {
      "inputs": [],
      "name": "REWARD_TOKENS_PER_YEAR",
      "outputs": [
        {
          "internalType": "uint256",
          "name": "",
          "type": "uint256"
        }
      ],
      "stateMutability": "view",
      "type": "function"
    },
    {
      "inputs": [],
      "name": "REWARD_TOKENS_TOTAL",
      "outputs": [
        {
          "internalType": "uint256",
          "name": "",
          "type": "uint256"
        }
      ],
      "stateMutability": "view",
      "type": "function"
    },
    {
      "inputs": [],
      "name": "TEAM_TOKENS_LOCKED_PERIOD",
      "outputs": [
        {
          "internalType": "uint256",
          "name": "",
          "type": "uint256"
        }
      ],
      "stateMutability": "view",
      "type": "function"
    },
    {
      "inputs": [],
      "name": "TEAM_TOKENS_TOTAL",
      "outputs": [
        {
          "internalType": "uint256",
          "name": "",
          "type": "uint256"
        }
      ],
      "stateMutability": "view",
      "type": "function"
    },
    {
      "inputs": [],
      "name": "TEAM_TOKENS_WITHDRAWAL_PER_YEAR",
      "outputs": [
        {
          "internalType": "uint256",
          "name": "",
          "type": "uint256"
        }
      ],
      "stateMutability": "view",
      "type": "function"
    },
    {
      "inputs": [],
      "name": "TOKENS_WITHDRAWAL_PERIOD",
      "outputs": [
        {
          "internalType": "uint256",
          "name": "",
          "type": "uint256"
        }
      ],
      "stateMutability": "view",
      "type": "function"
    },
    {
      "inputs": [
        {
          "internalType": "address",
          "name": "_walletAddress",
          "type": "address"
        },
        {
          "internalType": "bool",
          "name": "_isTeamWallet",
          "type": "bool"
        },
        {
          "internalType": "uint256",
          "name": "_hyaxHoldingAmountAtWhitelistTime",
          "type": "uint256"
        }
      ],
      "name": "addWalletToWhitelist",
      "outputs": [],
      "stateMutability": "nonpayable",
      "type": "function"
    },
    {
      "inputs": [],
      "name": "calculateYearForTeamTokens",
      "outputs": [
        {
          "internalType": "uint8",
          "name": "",
          "type": "uint8"
        }
      ],
      "stateMutability": "view",
      "type": "function"
    },
    {
      "inputs": [
        {
          "internalType": "enum UpgradeableHYAXRewards.FundingType",
          "name": "_fundingType",
          "type": "uint8"
        },
        {
          "internalType": "uint256",
          "name": "_amount",
          "type": "uint256"
        }
      ],
      "name": "fundSmartContract",
      "outputs": [],
      "stateMutability": "nonpayable",
      "type": "function"
    },
    {
      "inputs": [],
      "name": "growthTokensFunded",
      "outputs": [
        {
          "internalType": "uint256",
          "name": "",
          "type": "uint256"
        }
      ],
      "stateMutability": "view",
      "type": "function"
    },
    {
      "inputs": [],
      "name": "growthTokensFundingStarted",
      "outputs": [
        {
          "internalType": "bool",
          "name": "",
          "type": "bool"
        }
      ],
      "stateMutability": "view",
      "type": "function"
    },
    {
      "inputs": [],
      "name": "growthTokensInSmartContract",
      "outputs": [
        {
          "internalType": "uint256",
          "name": "",
          "type": "uint256"
        }
      ],
      "stateMutability": "view",
      "type": "function"
    },
    {
      "inputs": [],
      "name": "growthTokensLastWithdrawalTime",
      "outputs": [
        {
          "internalType": "uint256",
          "name": "",
          "type": "uint256"
        }
      ],
      "stateMutability": "view",
      "type": "function"
    },
    {
      "inputs": [],
      "name": "growthTokensStartFundingTime",
      "outputs": [
        {
          "internalType": "uint256",
          "name": "",
          "type": "uint256"
        }
      ],
      "stateMutability": "view",
      "type": "function"
    },
    {
      "inputs": [],
      "name": "growthTokensWithdrawn",
      "outputs": [
        {
          "internalType": "uint256",
          "name": "",
          "type": "uint256"
        }
      ],
      "stateMutability": "view",
      "type": "function"
    },
    {
      "inputs": [],
      "name": "hyaxToken",
      "outputs": [
        {
          "internalType": "contract ERC20TokenInterface",
          "name": "",
          "type": "address"
        }
      ],
      "stateMutability": "view",
      "type": "function"
    },
    {
      "inputs": [],
      "name": "hyaxTokenAddress",
      "outputs": [
        {
          "internalType": "address",
          "name": "",
          "type": "address"
        }
      ],
      "stateMutability": "view",
      "type": "function"
    },
    {
      "inputs": [],
      "name": "maximumBatchSizeForUpdateRewards",
      "outputs": [
        {
          "internalType": "uint8",
          "name": "",
          "type": "uint8"
        }
      ],
      "stateMutability": "view",
      "type": "function"
    },
    {
      "inputs": [],
      "name": "owner",
      "outputs": [
        {
          "internalType": "address",
          "name": "",
          "type": "address"
        }
      ],
      "stateMutability": "view",
      "type": "function"
    },
    {
      "inputs": [],
      "name": "pause",
      "outputs": [],
      "stateMutability": "nonpayable",
      "type": "function"
    },
    {
      "inputs": [],
      "name": "paused",
      "outputs": [
        {
          "internalType": "bool",
          "name": "",
          "type": "bool"
        }
      ],
      "stateMutability": "view",
      "type": "function"
    },
    {
      "inputs": [],
      "name": "renounceOwnership",
      "outputs": [],
      "stateMutability": "nonpayable",
      "type": "function"
    },
    {
      "inputs": [],
      "name": "rewardTokensDistributed",
      "outputs": [
        {
          "internalType": "uint256",
          "name": "",
          "type": "uint256"
        }
      ],
      "stateMutability": "view",
      "type": "function"
    },
    {
      "inputs": [],
      "name": "rewardTokensFunded",
      "outputs": [
        {
          "internalType": "uint256",
          "name": "",
          "type": "uint256"
        }
      ],
      "stateMutability": "view",
      "type": "function"
    },
    {
      "inputs": [],
      "name": "rewardTokensFundingStarted",
      "outputs": [
        {
          "internalType": "bool",
          "name": "",
          "type": "bool"
        }
      ],
      "stateMutability": "view",
      "type": "function"
    },
    {
      "inputs": [],
      "name": "rewardTokensInSmartContract",
      "outputs": [
        {
          "internalType": "uint256",
          "name": "",
          "type": "uint256"
        }
      ],
      "stateMutability": "view",
      "type": "function"
    },
    {
      "inputs": [],
      "name": "rewardTokensStartFundingTime",
      "outputs": [
        {
          "internalType": "uint256",
          "name": "",
          "type": "uint256"
        }
      ],
      "stateMutability": "view",
      "type": "function"
    },
    {
      "inputs": [],
      "name": "rewardTokensWithdrawn",
      "outputs": [
        {
          "internalType": "uint256",
          "name": "",
          "type": "uint256"
        }
      ],
      "stateMutability": "view",
      "type": "function"
    },
    {
      "inputs": [],
      "name": "rewardsUpdaterAddress",
      "outputs": [
        {
          "internalType": "address",
          "name": "",
          "type": "address"
        }
      ],
      "stateMutability": "view",
      "type": "function"
    },
    {
      "inputs": [],
      "name": "teamTokensFunded",
      "outputs": [
        {
          "internalType": "uint256",
          "name": "",
          "type": "uint256"
        }
      ],
      "stateMutability": "view",
      "type": "function"
    },
    {
      "inputs": [],
      "name": "teamTokensFundingStarted",
      "outputs": [
        {
          "internalType": "bool",
          "name": "",
          "type": "bool"
        }
      ],
      "stateMutability": "view",
      "type": "function"
    },
    {
      "inputs": [],
      "name": "teamTokensInSmartContract",
      "outputs": [
        {
          "internalType": "uint256",
          "name": "",
          "type": "uint256"
        }
      ],
      "stateMutability": "view",
      "type": "function"
    },
    {
      "inputs": [],
      "name": "teamTokensLastWithdrawalTime",
      "outputs": [
        {
          "internalType": "uint256",
          "name": "",
          "type": "uint256"
        }
      ],
      "stateMutability": "view",
      "type": "function"
    },
    {
      "inputs": [],
      "name": "teamTokensStartFundingTime",
      "outputs": [
        {
          "internalType": "uint256",
          "name": "",
          "type": "uint256"
        }
      ],
      "stateMutability": "view",
      "type": "function"
    },
    {
      "inputs": [],
      "name": "teamTokensWithdrawn",
      "outputs": [
        {
          "internalType": "uint256",
          "name": "",
          "type": "uint256"
        }
      ],
      "stateMutability": "view",
      "type": "function"
    },
    {
      "inputs": [
        {
          "internalType": "address",
          "name": "newOwner",
          "type": "address"
        }
      ],
      "name": "transferOwnership",
      "outputs": [],
      "stateMutability": "nonpayable",
      "type": "function"
    },
    {
      "inputs": [],
      "name": "unpause",
      "outputs": [],
      "stateMutability": "nonpayable",
      "type": "function"
    },
    {
      "inputs": [
        {
          "internalType": "address",
          "name": "_walletAddress",
          "type": "address"
        },
        {
          "internalType": "bool",
          "name": "_newStatus",
          "type": "bool"
        }
      ],
      "name": "updateBlacklistStatus",
      "outputs": [],
      "stateMutability": "nonpayable",
      "type": "function"
    },
    {
      "inputs": [
        {
          "internalType": "address",
          "name": "_hyaxTokenAddress",
          "type": "address"
        }
      ],
      "name": "updateHyaxTokenAddress",
      "outputs": [],
      "stateMutability": "nonpayable",
      "type": "function"
    },
    {
      "inputs": [
        {
          "internalType": "uint8",
          "name": "_maximumBatchSizeForUpdateRewards",
          "type": "uint8"
        }
      ],
      "name": "updateMaximumBatchSizeForUpdateRewards",
      "outputs": [],
      "stateMutability": "nonpayable",
      "type": "function"
    },
    {
      "inputs": [
        {
          "internalType": "address[]",
          "name": "_walletAddresses",
          "type": "address[]"
        },
        {
          "internalType": "uint256[]",
          "name": "_hyaxRewards",
          "type": "uint256[]"
        }
      ],
      "name": "updateRewardsBatch",
      "outputs": [],
      "stateMutability": "nonpayable",
      "type": "function"
    },
    {
      "inputs": [
        {
          "internalType": "address",
          "name": "_walletAddress",
          "type": "address"
        },
        {
          "internalType": "uint256",
          "name": "_hyaxRewards",
          "type": "uint256"
        }
      ],
      "name": "updateRewardsSingle",
      "outputs": [],
      "stateMutability": "nonpayable",
      "type": "function"
    },
    {
      "inputs": [
        {
          "internalType": "address",
          "name": "_rewardsUpdaterAddress",
          "type": "address"
        }
      ],
      "name": "updateRewardsUpdaterAddress",
      "outputs": [],
      "stateMutability": "nonpayable",
      "type": "function"
    },
    {
      "inputs": [
        {
          "internalType": "address",
          "name": "_whiteListerAddress",
          "type": "address"
        }
      ],
      "name": "updateWhiteListerAddress",
      "outputs": [],
      "stateMutability": "nonpayable",
      "type": "function"
    },
    {
      "inputs": [
        {
          "internalType": "address",
          "name": "_walletAddress",
          "type": "address"
        },
        {
          "internalType": "bool",
          "name": "_newStatus",
          "type": "bool"
        }
      ],
      "name": "updateWhitelistStatus",
      "outputs": [],
      "stateMutability": "nonpayable",
      "type": "function"
    },
    {
      "inputs": [
        {
          "internalType": "address",
          "name": "",
          "type": "address"
        }
      ],
      "name": "wallets",
      "outputs": [
        {
          "internalType": "uint256",
          "name": "hyaxHoldingAmount",
          "type": "uint256"
        },
        {
          "internalType": "uint256",
          "name": "hyaxHoldingAmountAtWhitelistTime",
          "type": "uint256"
        },
        {
          "internalType": "uint256",
          "name": "totalHyaxRewardsAmount",
          "type": "uint256"
        },
        {
          "internalType": "uint256",
          "name": "currentRewardsAmount",
          "type": "uint256"
        },
        {
          "internalType": "uint256",
          "name": "rewardsWithdrawn",
          "type": "uint256"
        },
        {
          "internalType": "uint256",
          "name": "addedToWhitelistTime",
          "type": "uint256"
        },
        {
          "internalType": "uint8",
          "name": "tokenWithdrawalTimes",
          "type": "uint8"
        },
        {
          "internalType": "uint256",
          "name": "lastRewardsWithdrawalTime",
          "type": "uint256"
        },
        {
          "internalType": "uint256",
          "name": "lastRewardsUpdateTime",
          "type": "uint256"
        },
        {
          "internalType": "bool",
          "name": "isTeamWallet",
          "type": "bool"
        },
        {
          "internalType": "bool",
          "name": "isWhitelisted",
          "type": "bool"
        },
        {
          "internalType": "bool",
          "name": "isBlacklisted",
          "type": "bool"
        }
      ],
      "stateMutability": "view",
      "type": "function"
    },
    {
      "inputs": [],
      "name": "whiteListerAddress",
      "outputs": [
        {
          "internalType": "address",
          "name": "",
          "type": "address"
        }
      ],
      "stateMutability": "view",
      "type": "function"
    },
    {
      "inputs": [],
      "name": "withdrawGrowthTokens",
      "outputs": [],
      "stateMutability": "nonpayable",
      "type": "function"
    },
    {
      "inputs": [],
      "name": "withdrawRewardTokens",
      "outputs": [],
      "stateMutability": "nonpayable",
      "type": "function"
    },
    {
      "inputs": [],
      "name": "withdrawTeamTokens",
      "outputs": [],
      "stateMutability": "nonpayable",
      "type": "function"
    },
    {
      "inputs": [
        {
          "internalType": "enum UpgradeableHYAXRewards.FundingType",
          "name": "_fundingType",
          "type": "uint8"
        },
        {
          "internalType": "uint256",
          "name": "_amount",
          "type": "uint256"
        }
      ],
      "name": "withdrawTokensToBurn",
      "outputs": [],
      "stateMutability": "nonpayable",
      "type": "function"
    }
  ],
  "bytecode": "0x60806040526016805460ff60a01b1916601960a21b1790553480156200002457600080fd5b50604051620036733803806200367383398101604081905262000047916200021f565b33806200006f57604051631e4fbdf760e01b8152600060048201526024015b60405180910390fd5b6200007a81620001cf565b506000805460ff60a01b1916815560018055600280546001600160a01b0384166001600160a01b0319918216811790925560038054909116821790556040805163090b282b60e31b6020808301919091528251808303600401815260248301808552815191909201206395d89b4160e01b909152915191936395d89b41926028808401938290030181865afa15801562000118573d6000803e3d6000fd5b505050506040513d6000823e601f3d908101601f191682016040526200014291908101906200028d565b60405160200162000154919062000345565b6040516020818303038152906040528051906020012014620001b95760405162461bcd60e51b815260206004820152601f60248201527f4879617820746f6b656e2061646472657373206973206e6f742076616c696400604482015260640162000066565b5060006004819055600a81905560105562000363565b600080546001600160a01b038381166001600160a01b0319831681178455604051919092169283917f8be0079c531659141344cd1fd0a4f28419497f9722a3daafe3b4186f6b6457e09190a35050565b6000602082840312156200023257600080fd5b81516001600160a01b03811681146200024a57600080fd5b9392505050565b634e487b7160e01b600052604160045260246000fd5b60005b83811015620002845781810151838201526020016200026a565b50506000910152565b600060208284031215620002a057600080fd5b81516001600160401b0380821115620002b857600080fd5b818401915084601f830112620002cd57600080fd5b815181811115620002e257620002e262000251565b604051601f8201601f19908116603f011681019083821181831017156200030d576200030d62000251565b816040528281528760208487010111156200032757600080fd5b6200033a83602083016020880162000267565b979650505050505050565b600082516200035981846020870162000267565b9190910192915050565b61330080620003736000396000f3fe608060405234801561001057600080fd5b50600436106103785760003560e01c80638bb4dadd116101d3578063d7e57fda11610104578063efce5587116100a2578063f8ff46c61161007c578063f8ff46c61461075c578063f972c02714610765578063fafd7c2014610778578063fd5595261461078b57600080fd5b8063efce558714610729578063f2fde38b1461073c578063f3793b9d1461074f57600080fd5b8063e2ccbfe4116100de578063e2ccbfe4146106f6578063e3682a5d14610709578063e774ce4314610713578063ebc8e2dd1461071c57600080fd5b8063d7e57fda146106d0578063dcb7ff6b146106d9578063de51d567146106e457600080fd5b8063a868e99711610171578063c07732a31161014b578063c07732a314610694578063c1cc52b3146106a7578063d356b49a146106b4578063d3946a8c146106bd57600080fd5b8063a868e9971461065a578063b4ba9fd71461066d578063b83608061461068157600080fd5b80638e6d32df116101ad5780638e6d32df14610624578063953b7ef8146106365780639656cd8c1461063e5780639bae90021461064757600080fd5b80638bb4dadd146105f05780638da2e27f1461060a5780638da5cb5b1461061357600080fd5b80635d70203b116102ad5780636fce78731161024b57806381f8ca1b1161022557806381f8ca1b146104e95780638456cb59146104fc57806389b08f11146105045780638a194d04146105dd57600080fd5b80636fce7873146104c5578063715018a6146104d85780637426a42a146104e057600080fd5b8063653c3a4711610287578063653c3a471461048857806365699d281461049b578063687a83f8146104b35780636e3ce4e1146104bc57600080fd5b80635d70203b1461046d5780636148c78314610476578063647a5a781461047f57600080fd5b80633ba10a561161031a5780634c4dc42e116102f45780634c4dc42e146104295780635493b30d1461043157806359aa8966146104445780635c975abb1461044f57600080fd5b80633ba10a56146104065780633f4ba83a1461041957806342ecb4641461042157600080fd5b80632558df21116103565780632558df21146103d65780632574cd9d146103e0578063334c4cb3146103f5578063370243dc146103fe57600080fd5b8063031f65891461037d5780631035fc09146103ad5780631e6b4028146103c4575b600080fd5b600254610390906001600160a01b031681565b6040516001600160a01b0390911681526020015b60405180910390f35b6103b6600e5481565b6040519081526020016103a4565b6103b66a6342fd08f00f637800000081565b6103b662093a8081565b6103f36103ee366004612c2d565b610794565b005b6103b660125481565b6103f36107bc565b600354610390906001600160a01b031681565b6103f3610b0a565b6103b6610b1c565b6103f3610b35565b6103b66b04d8c55aefb8c05b5c00000081565b6103b66301e1338081565b600054600160a01b900460ff165b60405190151581526020016103a4565b6103b660045481565b6103b660055481565b6103b6600c5481565b6103f3610496366004612c73565b610e50565b6015546103909061010090046001600160a01b031681565b6103b660075481565b6103b660145481565b6103f36104d3366004612c73565b610e80565b6103f3610eaa565b6103b6600d5481565b6103b66b03e09de2596099e2b000000081565b6103f3610ebc565b61057b610512366004612c73565b601760205260009081526040902080546001820154600283015460038401546004850154600586015460068701546007880154600889015460099099015497989697959694959394929360ff92831693919281811691610100810482169162010000909104168c565b604080519c8d5260208d019b909b52998b019890985260608a0196909652608089019490945260a088019290925260ff1660c087015260e0860152610100850152151561012084015215156101408301521515610160820152610180016103a4565b6103f36105eb366004612c9c565b610ecc565b6105f8611291565b60405160ff90911681526020016103a4565b6103b660135481565b6000546001600160a01b0316610390565b6103b66af8277896582678ac00000081565b6103f361130b565b6103b660085481565b6103f3610655366004612c73565b611826565b6103b66b07c13bc4b2c133c56000000081565b6016546105f890600160a01b900460ff1681565b6103f361068f366004612cdb565b61185a565b6103f36106a2366004612cdb565b611989565b600f5461045d9060ff1681565b6103b660065481565b6103f36106cb366004612d12565b611aad565b6103b6600b5481565b6103b6630784ce0081565b6103b66a7c13bc4b2c133c5600000081565b6103f3610704366004612d12565b611fcc565b6103b66207e90081565b6103b660115481565b60155461045d9060ff1681565b6103f3610737366004612d8e565b6123c7565b6103f361074a366004612c73565b61266b565b60095461045d9060ff1681565b6103b6600a5481565b601654610390906001600160a01b031681565b6103f3610786366004612dfa565b612758565b6103b660105481565b61079c612a99565b6016805460ff909216600160a01b0260ff60a01b19909216919091179055565b3360008181526017602052604090206009015460ff6101009091041615156001146108025760405162461bcd60e51b81526004016107f990612e16565b60405180910390fd5b61080a612ac6565b3360009081526017602052604090206009015460ff6101009091041615156001146108475760405162461bcd60e51b81526004016107f990612e16565b3360009081526017602052604090206009015462010000900460ff16156108805760405162461bcd60e51b81526004016107f990612e4d565b60155460ff166108a25760405162461bcd60e51b81526004016107f990612e84565b6b03e09de2596099e2b00000006012541061090d5760405162461bcd60e51b815260206004820152602560248201527f416c6c2072657761726420746f6b656e732068617665206265656e2077697468604482015264323930bbb760d91b60648201526084016107f9565b336000908152601760205260409020600301548061096d5760405162461bcd60e51b815260206004820181905260248201527f4e6f207265776172647320617661696c61626c6520746f20776974686472617760448201526064016107f9565b60135481111561098f5760405162461bcd60e51b81526004016107f990612ed6565b33600090815260176020526040812060040180548392906109b1908490612f42565b90915550503360009081526017602052604081206003810182905542600790910155601380548392906109e5908490612f5b565b9250508190555080601260008282546109fe9190612f42565b909155505060035460405163a9059cbb60e01b8152336004820152602481018390526001600160a01b039091169063a9059cbb906044016020604051808303816000875af1158015610a54573d6000803e3d6000fd5b505050506040513d601f19601f82011682018060405250810190610a789190612f6e565b610ac45760405162461bcd60e51b815260206004820181905260248201527f4661696c656420746f207472616e736665722072657761726420746f6b656e7360448201526064016107f9565b60408051338152602081018390527fd8a9090919355543d8c79690ceee3933c0bd4ffc742ae7f790d4bf44a043bb6c910160405180910390a150610b0760018055565b50565b610b12612a99565b610b1a612af0565b565b610b3260346a7c13bc4b2c133c56000000612f8b565b81565b610b3d612a99565b610b45612ac6565b60095460ff16610b675760405162461bcd60e51b81526004016107f990612e84565b6301e13380600854610b799190612f42565b421015610be25760405162461bcd60e51b815260206004820152603160248201527f43616e6e6f74207769746864726177206265666f7265203120796561722061666044820152701d195c88199d5b991a5b99c81cdd185c9d607a1b60648201526084016107f9565b6b07c13bc4b2c133c56000000060055410610c4d5760405162461bcd60e51b815260206004820152602560248201527f416c6c2067726f77746820746f6b656e732068617665206265656e2077697468604482015264323930bbb760d91b60648201526084016107f9565b6301e13380600754610c5f9190612f42565b421015610cae5760405162461bcd60e51b815260206004820152601f60248201527f43616e206f6e6c79207769746864726177206f6e63652070657220796561720060448201526064016107f9565b6005546a6342fd08f00f6378000000906b07c13bc4b2c133c56000000090610cd7908390612f42565b1115610cf957600554610cf6906b07c13bc4b2c133c560000000612f5b565b90505b8060056000828254610d0b9190612f42565b925050819055508060066000828254610d249190612f5b565b9091555050426007556003546001600160a01b031663a9059cbb610d506000546001600160a01b031690565b6040516001600160e01b031960e084901b1681526001600160a01b039091166004820152602481018490526044016020604051808303816000875af1158015610d9d573d6000803e3d6000fd5b505050506040513d601f19601f82011682018060405250810190610dc19190612f6e565b610e0d5760405162461bcd60e51b815260206004820181905260248201527f4661696c656420746f207472616e736665722067726f77746820746f6b656e7360448201526064016107f9565b60408051338152602081018390527fd0a5227bfa49cf178a8f7a87b90318ef05fc8330f469e0dccbe075784f426dbf910160405180910390a150610b1a60018055565b610e58612a99565b601580546001600160a01b0390921661010002610100600160a81b0319909216919091179055565b610e88612a99565b601680546001600160a01b0319166001600160a01b0392909216919091179055565b610eb2612a99565b610b1a6000612b45565b610ec4612a99565b610b1a612b95565b6000546001600160a01b0316331480610ef4575060155461010090046001600160a01b031633145b610f105760405162461bcd60e51b81526004016107f990612fad565b604080513381523260208201526000805160206132ab833981519152910160405180910390a16001600160a01b038316600090815260176020526040902060090154610100900460ff1615610fa75760405162461bcd60e51b815260206004820152601d60248201527f57616c6c657420697320616c72656164792077686974656c697374656400000060448201526064016107f9565b6001600160a01b03831660009081526017602052604090206009015462010000900460ff1615610fe95760405162461bcd60e51b81526004016107f990612e4d565b6001600160a01b03831660009081526017602052604081206009810180548515801562ffffff19909216919091176101001790915542600583015560068201805460ff1916905560078201839055600382018390556002820183905560049091019190915561119d57600081116110d65760405162461bcd60e51b8152602060048201526044602482018190527f5465616d2077616c6c657473206d757374206265206164646564207769746820908201527f61206879617820686f6c64696e6720616d6f756e7420677265617465722074686064820152630616e20360e41b608482015260a4016107f9565b6b04d8c55aefb8c05b5c0000008111156111765760405162461bcd60e51b815260206004820152605560248201527f5465616d2077616c6c657473206d75737420626520616464656420776974682060448201527f61206879617820686f6c64696e6720616d6f756e74206c657373207468616e2060648201527474686520746f74616c207465616d20746f6b656e7360581b608482015260a4016107f9565b6001600160a01b03831660009081526017602052604090206001810182905581905561123c565b801561121b5760405162461bcd60e51b815260206004820152604160248201527f4e6f6e207465616d2077616c6c6574732063616e206f6e6c792062652061646460448201527f6564207769746820686f6c64696e6720616d6f756e7420657175616c20746f206064820152600360fc1b608482015260a4016107f9565b6001600160a01b038316600090815260176020526040812060018101829055555b604080513381526001600160a01b0385166020820152831515818301526060810183905290517fc294e522ba20b0699fe578649971cefdfdc8d0e330db37d0437849f38b3960e69181900360800190a1505050565b600080600e54426112a29190612f5b565b9050630f099c0081106112b757600591505090565b630d28688081106112ca57600491505090565b630b47350081106112dd57600391505090565b630966018081106112f057600291505090565b630784ce00811061130357600191505090565b600091505090565b3360008181526017602052604090206009015460ff6101009091041615156001146113485760405162461bcd60e51b81526004016107f990612e16565b3360008181526017602052604090206009015462010000900460ff16156113815760405162461bcd60e51b81526004016107f990612e4d565b611389612ac6565b3360009081526017602052604090206009015460ff1615156001146114165760405162461bcd60e51b815260206004820152603960248201527f4f6e6c79207465616d2077616c6c6574732063616e207769746864726177207460448201527f6f6b656e73207573696e6720746869732066756e6374696f6e0000000000000060648201526084016107f9565b600f5460ff166114385760405162461bcd60e51b81526004016107f990612e84565b3360009081526017602052604090206005015461145a90630784ce0090612f42565b4210156114d95760405162461bcd60e51b815260206004820152604160248201527f43616e6e6f74207769746864726177206265666f72652034207965617273206160448201527f66746572206265696e6720616464656420746f207468652077686974656c69736064820152601d60fa1b608482015260a4016107f9565b6b04d8c55aefb8c05b5c000000600b54106115425760405162461bcd60e51b815260206004820152602360248201527f416c6c207465616d20746f6b656e732068617665206265656e2077697468647260448201526230bbb760e91b60648201526084016107f9565b336000908152601760205260409020546115a95760405162461bcd60e51b815260206004820152602260248201527f4e6f206879617820686f6c64696e6720616d6f756e7420746f20776974686472604482015261617760f01b60648201526084016107f9565b6115b1611291565b3360009081526017602052604090206006015460ff91821691161061162c5760405162461bcd60e51b815260206004820152602b60248201527f43616e206f6e6c79207769746864726177207465616d20746f6b656e73206f6e60448201526a31b2903832b9103cb2b0b960a91b60648201526084016107f9565b3360009081526017602052604081206001015461164b90600590612f8b565b90506b04d8c55aefb8c05b5c00000081600b546116689190612f42565b111561168a57600b54611687906b04d8c55aefb8c05b5c000000612f5b565b90505b33600090815260176020526040812080548392906116a9908490612f5b565b9250508190555080600b60008282546116c29190612f42565b9250508190555080600c60008282546116db9190612f5b565b9091555050336000908152601760205260408120600601805460ff16916117018361300a565b825460ff9182166101009390930a92830291909202199091161790555060035460405163a9059cbb60e01b8152336004820152602481018390526001600160a01b039091169063a9059cbb906044016020604051808303816000875af115801561176f573d6000803e3d6000fd5b505050506040513d601f19601f820116820180604052508101906117939190612f6e565b6117df5760405162461bcd60e51b815260206004820152601e60248201527f4661696c656420746f207472616e73666572207465616d20746f6b656e73000060448201526064016107f9565b60408051338152602081018390527f1e63f692f0a30c3957ac289d6a44616bd119f5502eba5ae440f3158cc2c2d291910160405180910390a15061182260018055565b5050565b61182e612a99565b600280546001600160a01b039092166001600160a01b0319928316811790915560038054909216179055565b6000546001600160a01b0316331480611882575060155461010090046001600160a01b031633145b61189e5760405162461bcd60e51b81526004016107f990612fad565b604080513381523260208201526000805160206132ab833981519152910160405180910390a16001600160a01b0382166000908152601760205260409020600901548115156201000090910460ff1615150361190c5760405162461bcd60e51b81526004016107f990613029565b6001600160a01b038216600081815260176020908152604091829020600901805462ff000019166201000086151590810291909117909155825133815291820193909352908101919091527f89a9c56967d4535d54c90bffd7cbd09f6d2a4c8e26b9e7f033f199d144e12b4e906060015b60405180910390a15050565b6000546001600160a01b03163314806119b1575060155461010090046001600160a01b031633145b6119cd5760405162461bcd60e51b81526004016107f990612fad565b604080513381523260208201526000805160206132ab833981519152910160405180910390a16001600160a01b03821660009081526017602052604090206009015481151561010090910460ff16151503611a3a5760405162461bcd60e51b81526004016107f990613029565b6001600160a01b038216600081815260176020908152604091829020600901805461ff00191661010086151590810291909117909155825133815291820193909352908101919091527f70bbee4e66e3fd40f7da099410cfd723ed4a0b4fec11f6cc968e850db827a88b9060600161197d565b611ab5612a99565b611abd612ac6565b6000826002811115611ad157611ad1613077565b1480611aee57506001826002811115611aec57611aec613077565b145b80611b0a57506002826002811115611b0857611b08613077565b145b611b4d5760405162461bcd60e51b8152602060048201526014602482015273496e76616c69642066756e64696e67207479706560601b60448201526064016107f9565b60008111611b9d5760405162461bcd60e51b815260206004820152601d60248201527f416d6f756e74206d7573742062652067726561746572207468616e203000000060448201526064016107f9565b6003546040516323b872dd60e01b8152336004820152306024820152604481018390526001600160a01b03909116906323b872dd906064016020604051808303816000875af1158015611bf4573d6000803e3d6000fd5b505050506040513d601f19601f82011682018060405250810190611c189190612f6e565b611c7e5760405162461bcd60e51b815260206004820152603160248201527f54686572652077617320616e206572726f72206f6e20726563656976696e672060448201527074686520746f6b656e2066756e64696e6760781b60648201526084016107f9565b6000826002811115611c9257611c92613077565b03611d88576b07c13bc4b2c133c56000000081600454611cb29190612f42565b1115611d325760405162461bcd60e51b815260206004820152604360248201527f416d6f756e7420746f2066756e642069732067726561746572207468616e207460448201527f686520746f74616c20696e74656e74656420666f722067726f77746820746f6b606482015262656e7360e81b608482015260a4016107f9565b8060046000828254611d449190612f42565b925050819055508060066000828254611d5d9190612f42565b909155505060095460ff16611d83576009805460ff191660011790554260088190556007555b611f8a565b6001826002811115611d9c57611d9c613077565b03611e8a576b04d8c55aefb8c05b5c00000081600a54611dbc9190612f42565b1115611e3a5760405162461bcd60e51b815260206004820152604160248201527f416d6f756e7420746f2066756e642069732067726561746572207468616e207460448201527f686520746f74616c20696e74656e74656420666f72207465616d20746f6b656e6064820152607360f81b608482015260a4016107f9565b80600a6000828254611e4c9190612f42565b9250508190555080600c6000828254611e659190612f42565b9091555050600f5460ff16611d8357600f805460ff1916600117905542600e55611f8a565b6002826002811115611e9e57611e9e613077565b03611f8a576b03e09de2596099e2b000000081601054611ebe9190612f42565b1115611f3e5760405162461bcd60e51b815260206004820152604360248201527f416d6f756e7420746f2066756e642069732067726561746572207468616e207460448201527f686520746f74616c20696e74656e74656420666f722072657761726420746f6b606482015262656e7360e81b608482015260a4016107f9565b8060106000828254611f509190612f42565b925050819055508060136000828254611f699190612f42565b909155505060155460ff16611f8a576015805460ff19166001179055426014555b7fbc0b9ecc68ec48681b8f5718fa26b9ce02021220455be5f5837a944140a80ea38282604051611fbb92919061308d565b60405180910390a161182260018055565b611fd4612a99565b611fdc612ac6565b6000826002811115611ff057611ff0613077565b148061200d5750600182600281111561200b5761200b613077565b145b806120295750600282600281111561202757612027613077565b145b61206c5760405162461bcd60e51b8152602060048201526014602482015273496e76616c69642066756e64696e67207479706560601b60448201526064016107f9565b600081116120bc5760405162461bcd60e51b815260206004820152601d60248201527f416d6f756e74206d7573742062652067726561746572207468616e203000000060448201526064016107f9565b60008260028111156120d0576120d0613077565b036121855760095460ff166120f75760405162461bcd60e51b81526004016107f990612e84565b6006548111156121685760405162461bcd60e51b815260206004820152603660248201527f496e73756666696369656e742067726f77746820746f6b656e7320696e2074686044820152756520636f6e747261637420746f20776974686472617760501b60648201526084016107f9565b806006600082825461217a9190612f5b565b909155506122b69050565b600182600281111561219957612199613077565b0361224157600f5460ff166121c05760405162461bcd60e51b81526004016107f990612e84565b600c5481111561222f5760405162461bcd60e51b815260206004820152603460248201527f496e73756666696369656e74207465616d20746f6b656e7320696e2074686520604482015273636f6e747261637420746f20776974686472617760601b60648201526084016107f9565b80600c600082825461217a9190612f5b565b600282600281111561225557612255613077565b036122b65760155460ff1661227c5760405162461bcd60e51b81526004016107f990612e84565b60135481111561229e5760405162461bcd60e51b81526004016107f990612ed6565b80601360008282546122b09190612f5b565b90915550505b6003546001600160a01b031663a9059cbb6122d96000546001600160a01b031690565b6040516001600160e01b031960e084901b1681526001600160a01b039091166004820152602481018490526044016020604051808303816000875af1158015612326573d6000803e3d6000fd5b505050506040513d601f19601f8201168201806040525081019061234a9190612f6e565b6123965760405162461bcd60e51b815260206004820181905260248201527f4661696c656420746f207472616e736665722067726f77746820746f6b656e7360448201526064016107f9565b7fb9db6f85cd4e97884845cfb10d7fbba4d9cd4b9516cf2795b4c50cd886875bab8282604051611fbb92919061308d565b6000546001600160a01b03163314806123ea57506016546001600160a01b031633145b806123f457503330145b6124105760405162461bcd60e51b81526004016107f9906130b9565b604080513381523260208201526000805160206132ab833981519152910160405180910390a161243e612ac6565b601654600160a01b900460ff168311156124b25760405162461bcd60e51b815260206004820152602f60248201527f42617463682073697a652065786365656473206c696d69742e204d617820626160448201526e07463682073697a652069732031303608c1b60648201526084016107f9565b8281146125015760405162461bcd60e51b815260206004820152601960248201527f4172726179206c656e67746873206d757374206d617463682e0000000000000060448201526064016107f9565b60005b8381101561265b573063fafd7c2086868481811061252457612524613130565b90506020020160208101906125399190612c73565b85858581811061254b5761254b613130565b6040516001600160e01b031960e087901b1681526001600160a01b0390941660048501526020029190910135602483015250604401600060405180830381600087803b15801561259a57600080fd5b505af19250505080156125ab575060015b612649576125b7613146565b806308c379a00361263d57506125cb61319d565b806125d6575061263f565b7f80c7a907fb61ff886445c2feb367d7b196637d154438ec7337eb57021ef5f5a13387878581811061260a5761260a613130565b905060200201602081019061261f9190612c73565b8360405161262f93929190613227565b60405180910390a150612649565b505b3d6000803e3d6000fd5b8061265381613291565b915050612504565b5061266560018055565b50505050565b612673612a99565b6001600160a01b0381166126d85760405162461bcd60e51b815260206004820152602660248201527f4f776e61626c653a206e6577206f776e657220697320746865207a65726f206160448201526564647265737360d01b60648201526084016107f9565b306001600160a01b0382160361274f5760405162461bcd60e51b815260206004820152603660248201527f4f776e61626c653a206e6577206f776e65722063616e6e6f74206265207468656044820152752073616d6520636f6e7472616374206164647265737360501b60648201526084016107f9565b610b0781612b45565b6000546001600160a01b031633148061277b57506016546001600160a01b031633145b8061278557503330145b6127a15760405162461bcd60e51b81526004016107f9906130b9565b604080513381523260208201526000805160206132ab833981519152910160405180910390a16001600160a01b03821660009081526017602052604090206009015460ff61010090910416151560011461280d5760405162461bcd60e51b81526004016107f990612e16565b6001600160a01b03821660009081526017602052604090206009015462010000900460ff161561284f5760405162461bcd60e51b81526004016107f990612e4d565b6001600160a01b038216600090815260176020526040902060080154612879906207e90090612f42565b4210156128db5760405162461bcd60e51b815260206004820152602a60248201527f546f6f20736f6f6e20746f20757064617465207265776172647320666f7220746044820152691a1a5cc81dd85b1b195d60b21b60648201526084016107f9565b6128f160346a7c13bc4b2c133c56000000612f8b565b811115612968576040805162461bcd60e51b81526020600482015260248101919091527f412073696e676c652077616c6c65742063616e6e6f742068617665207265776160448201527f72647320686967686572207468616e20746865207765656b6c79206c696d697460648201526084016107f9565b6013548111156129d65760405162461bcd60e51b815260206004820152603360248201527f496e73756666696369656e742072657761726420746f6b656e7320746f2064696044820152727374726962757465206173207265776172647360681b60648201526084016107f9565b80601160008282546129e89190612f42565b90915550506001600160a01b03821660009081526017602052604081204260088201556002018054839290612a1e908490612f42565b90915550506001600160a01b03821660009081526017602052604081206003018054839290612a4e908490612f42565b9091555050604080513381526001600160a01b03841660208201529081018290527f74dd95429fe6255fb4698aa67d02afb4ebcf261c1883a417108c7d6c0abed4b09060600161197d565b6000546001600160a01b03163314610b1a5760405163118cdaa760e01b81523360048201526024016107f9565b600260015403612ae957604051633ee5aeb560e01b815260040160405180910390fd5b6002600155565b612af8612bd8565b6000805460ff60a01b191690557f5db9ee0a495bf2e6ff9c91a7834c1ba4fdd244a5e8aa4e537bd38aeae4b073aa335b6040516001600160a01b03909116815260200160405180910390a1565b600080546001600160a01b038381166001600160a01b0319831681178455604051919092169283917f8be0079c531659141344cd1fd0a4f28419497f9722a3daafe3b4186f6b6457e09190a35050565b612b9d612c02565b6000805460ff60a01b1916600160a01b1790557f62e78cea01bee320cd4e420270b5ea74000d11b0c9f74754ebdbfc544b05a258612b283390565b600054600160a01b900460ff16610b1a57604051638dfc202b60e01b815260040160405180910390fd5b600054600160a01b900460ff1615610b1a5760405163d93c066560e01b815260040160405180910390fd5b600060208284031215612c3f57600080fd5b813560ff81168114612c5057600080fd5b9392505050565b80356001600160a01b0381168114612c6e57600080fd5b919050565b600060208284031215612c8557600080fd5b612c5082612c57565b8015158114610b0757600080fd5b600080600060608486031215612cb157600080fd5b612cba84612c57565b92506020840135612cca81612c8e565b929592945050506040919091013590565b60008060408385031215612cee57600080fd5b612cf783612c57565b91506020830135612d0781612c8e565b809150509250929050565b60008060408385031215612d2557600080fd5b823560038110612d3457600080fd5b946020939093013593505050565b60008083601f840112612d5457600080fd5b50813567ffffffffffffffff811115612d6c57600080fd5b6020830191508360208260051b8501011115612d8757600080fd5b9250929050565b60008060008060408587031215612da457600080fd5b843567ffffffffffffffff80821115612dbc57600080fd5b612dc888838901612d42565b90965094506020870135915080821115612de157600080fd5b50612dee87828801612d42565b95989497509550505050565b60008060408385031215612e0d57600080fd5b612d3483612c57565b60208082526019908201527f57616c6c6574206973206e6f742077686974656c697374656400000000000000604082015260600190565b6020808252601b908201527f57616c6c657420686173206265656e20626c61636b6c69737465640000000000604082015260600190565b60208082526032908201527f46756e64696e6720686173206e6f742073746172746564207965742c206e6f20604082015271746f6b656e7320746f20776974686472617760701b606082015260800190565b60208082526036908201527f496e73756666696369656e742072657761726420746f6b656e7320696e2074686040820152756520636f6e747261637420746f20776974686472617760501b606082015260800190565b634e487b7160e01b600052601160045260246000fd5b80820180821115612f5557612f55612f2c565b92915050565b81810381811115612f5557612f55612f2c565b600060208284031215612f8057600080fd5b8151612c5081612c8e565b600082612fa857634e487b7160e01b600052601260045260246000fd5b500490565b60208082526037908201527f46756e6374696f6e207265736572766564206f6e6c7920666f7220746865207760408201527f686974656c6973746572206f7220746865206f776e6572000000000000000000606082015260800190565b600060ff821660ff810361302057613020612f2c565b60010192915050565b6020808252602e908201527f57616c6c65742068617320616c7265616479206265656e20757064617465642060408201526d746f20746861742073746174757360901b606082015260800190565b634e487b7160e01b600052602160045260246000fd5b60408101600384106130af57634e487b7160e01b600052602160045260246000fd5b9281526020015290565b60208082526051908201527f46756e6374696f6e207265736572766564206f6e6c7920666f7220746865207260408201527f65776172647320757064617465722c20746865206f776e65722c206f72207468606082015270329031b7b73a3930b1ba1034ba39b2b63360791b608082015260a00190565b634e487b7160e01b600052603260045260246000fd5b600060033d111561315f5760046000803e5060005160e01c5b90565b601f8201601f1916810167ffffffffffffffff8111828210171561319657634e487b7160e01b600052604160045260246000fd5b6040525050565b600060443d10156131ab5790565b6040516003193d81016004833e81513d67ffffffffffffffff81602484011181841117156131db57505050505090565b82850191508151818111156131f35750505050505090565b843d870101602082850101111561320d5750505050505090565b61321c60208286010187613162565b509095945050505050565b600060018060a01b038086168352602081861681850152606060408501528451915081606085015260005b8281101561326e57858101820151858201608001528101613252565b50506000608082850101526080601f19601f830116840101915050949350505050565b6000600182016132a3576132a3612f2c565b506001019056fef572c1a3c9723ee4a9544fdd9299fbdea3409f4e29a51ae34e1b58363450ba11a26469706673582212208faaffe76271462f58ccc265d24bb85dfb9a4b57deac572749a91e300088109164736f6c63430008140033",
  "linkReferences": {},
  "deployedLinkReferences": {}
}