{
  "_format": "hh-sol-artifact-1",
  "contractName": "UpgradeableHYAXRewards",
  "sourceName": "contracts/UpgradeableHYAXRewards.sol",
  "abi": [
    {
      "inputs": [
        {
          "internalType": "address",
          "name": "_hyaxTokenAddress",
          "type": "address"
        }
      ],
      "stateMutability": "nonpayable",
      "type": "constructor"
    },
    {
      "inputs": [
        {
          "internalType": "address",
          "name": "owner",
          "type": "address"
        }
      ],
      "name": "OwnableInvalidOwner",
      "type": "error"
    },
    {
      "inputs": [
        {
          "internalType": "address",
          "name": "account",
          "type": "address"
        }
      ],
      "name": "OwnableUnauthorizedAccount",
      "type": "error"
    },
    {
      "anonymous": false,
      "inputs": [
        {
          "indexed": false,
          "internalType": "enum UpgradeableHYAXRewards.FundingType",
          "name": "_fundingType",
          "type": "uint8"
        },
        {
          "indexed": false,
          "internalType": "uint256",
          "name": "_amount",
          "type": "uint256"
        }
      ],
      "name": "FundingAdded",
      "type": "event"
    },
    {
      "anonymous": false,
      "inputs": [
        {
          "indexed": false,
          "internalType": "uint256",
          "name": "_amount",
          "type": "uint256"
        }
      ],
      "name": "GrowthTokensWithdrawn",
      "type": "event"
    },
    {
      "anonymous": false,
      "inputs": [
        {
          "indexed": true,
          "internalType": "address",
          "name": "previousOwner",
          "type": "address"
        },
        {
          "indexed": true,
          "internalType": "address",
          "name": "newOwner",
          "type": "address"
        }
      ],
      "name": "OwnershipTransferred",
      "type": "event"
    },
    {
      "inputs": [],
      "name": "GROWTH_TOKENS_TOTAL",
      "outputs": [
        {
          "internalType": "uint256",
          "name": "",
          "type": "uint256"
        }
      ],
      "stateMutability": "view",
      "type": "function"
    },
    {
      "inputs": [],
      "name": "GROWTH_TOKENS_WITHDRAWAL_PERIOD",
      "outputs": [
        {
          "internalType": "uint256",
          "name": "",
          "type": "uint256"
        }
      ],
      "stateMutability": "view",
      "type": "function"
    },
    {
      "inputs": [],
      "name": "GROWTH_TOKENS_WITHDRAWAL_PER_YEAR",
      "outputs": [
        {
          "internalType": "uint256",
          "name": "",
          "type": "uint256"
        }
      ],
      "stateMutability": "view",
      "type": "function"
    },
    {
      "inputs": [
        {
          "internalType": "address",
          "name": "_walletAddress",
          "type": "address"
        },
        {
          "internalType": "bool",
          "name": "_isTeamWallet",
          "type": "bool"
        },
        {
          "internalType": "string",
          "name": "_bitcoinRewardsAddress",
          "type": "string"
        }
      ],
      "name": "addWalletToWhitelist",
      "outputs": [],
      "stateMutability": "nonpayable",
      "type": "function"
    },
    {
      "inputs": [
        {
          "internalType": "enum UpgradeableHYAXRewards.FundingType",
          "name": "_fundingType",
          "type": "uint8"
        },
        {
          "internalType": "uint256",
          "name": "_amount",
          "type": "uint256"
        }
      ],
      "name": "fundSmartContract",
      "outputs": [],
      "stateMutability": "nonpayable",
      "type": "function"
    },
    {
      "inputs": [],
      "name": "growthTokensFunded",
      "outputs": [
        {
          "internalType": "uint256",
          "name": "",
          "type": "uint256"
        }
      ],
      "stateMutability": "view",
      "type": "function"
    },
    {
      "inputs": [],
      "name": "growthTokensFundingStarted",
      "outputs": [
        {
          "internalType": "bool",
          "name": "",
          "type": "bool"
        }
      ],
      "stateMutability": "view",
      "type": "function"
    },
    {
      "inputs": [],
      "name": "growthTokensInSmartContract",
      "outputs": [
        {
          "internalType": "uint256",
          "name": "",
          "type": "uint256"
        }
      ],
      "stateMutability": "view",
      "type": "function"
    },
    {
      "inputs": [],
      "name": "growthTokensLastWithdrawalTime",
      "outputs": [
        {
          "internalType": "uint256",
          "name": "",
          "type": "uint256"
        }
      ],
      "stateMutability": "view",
      "type": "function"
    },
    {
      "inputs": [],
      "name": "growthTokensStartFundingTime",
      "outputs": [
        {
          "internalType": "uint256",
          "name": "",
          "type": "uint256"
        }
      ],
      "stateMutability": "view",
      "type": "function"
    },
    {
      "inputs": [],
      "name": "growthTokensWithdrawn",
      "outputs": [
        {
          "internalType": "uint256",
          "name": "",
          "type": "uint256"
        }
      ],
      "stateMutability": "view",
      "type": "function"
    },
    {
      "inputs": [],
      "name": "hyaxToken",
      "outputs": [
        {
          "internalType": "contract ERC20TokenInterface",
          "name": "",
          "type": "address"
        }
      ],
      "stateMutability": "view",
      "type": "function"
    },
    {
      "inputs": [],
      "name": "hyaxTokenAddress",
      "outputs": [
        {
          "internalType": "address",
          "name": "",
          "type": "address"
        }
      ],
      "stateMutability": "view",
      "type": "function"
    },
    {
      "inputs": [],
      "name": "owner",
      "outputs": [
        {
          "internalType": "address",
          "name": "",
          "type": "address"
        }
      ],
      "stateMutability": "view",
      "type": "function"
    },
    {
      "inputs": [],
      "name": "renounceOwnership",
      "outputs": [],
      "stateMutability": "nonpayable",
      "type": "function"
    },
    {
      "inputs": [],
      "name": "tokenInvestorRewards",
      "outputs": [
        {
          "internalType": "uint256",
          "name": "",
          "type": "uint256"
        }
      ],
      "stateMutability": "view",
      "type": "function"
    },
    {
      "inputs": [],
      "name": "tokenTeamRewards",
      "outputs": [
        {
          "internalType": "uint256",
          "name": "",
          "type": "uint256"
        }
      ],
      "stateMutability": "view",
      "type": "function"
    },
    {
      "inputs": [
        {
          "internalType": "address",
          "name": "newOwner",
          "type": "address"
        }
      ],
      "name": "transferOwnership",
      "outputs": [],
      "stateMutability": "nonpayable",
      "type": "function"
    },
    {
      "inputs": [
        {
          "internalType": "address",
          "name": "",
          "type": "address"
        }
      ],
      "name": "wallets",
      "outputs": [
        {
          "internalType": "uint256",
          "name": "hyaxHoldingAmount",
          "type": "uint256"
        },
        {
          "internalType": "uint256",
          "name": "holdingTime",
          "type": "uint256"
        },
        {
          "internalType": "uint256",
          "name": "totalHyaxRewardsAmount",
          "type": "uint256"
        },
        {
          "internalType": "uint256",
          "name": "currentRewardsAmount",
          "type": "uint256"
        },
        {
          "internalType": "string",
          "name": "bitcoinRewardsAddress",
          "type": "string"
        },
        {
          "internalType": "uint256",
          "name": "rewardsWithdrawn",
          "type": "uint256"
        },
        {
          "internalType": "bool",
          "name": "isTeamWallet",
          "type": "bool"
        },
        {
          "internalType": "bool",
          "name": "isWhitelisted",
          "type": "bool"
        }
      ],
      "stateMutability": "view",
      "type": "function"
    },
    {
      "inputs": [],
      "name": "whiteListerAddress",
      "outputs": [
        {
          "internalType": "address",
          "name": "",
          "type": "address"
        }
      ],
      "stateMutability": "view",
      "type": "function"
    },
    {
      "inputs": [],
      "name": "withdrawGrowthTokens",
      "outputs": [],
      "stateMutability": "nonpayable",
      "type": "function"
    }
  ],
  "bytecode": "0x60806040523480156200001157600080fd5b506040516200138238038062001382833981016040819052620000349162000217565b33806200005c57604051631e4fbdf760e01b8152600060048201526024015b60405180910390fd5b6200006781620001c7565b50600180546001600160a01b0383166001600160a01b0319918216811790925560028054909116909117905560405163090b282b60e31b602082015260240160405160208183030381529060405280519060200120600260009054906101000a90046001600160a01b03166001600160a01b03166395d89b416040518163ffffffff1660e01b8152600401600060405180830381865afa15801562000110573d6000803e3d6000fd5b505050506040513d6000823e601f3d908101601f191682016040526200013a919081019062000285565b6040516020016200014c91906200033d565b6040516020818303038152906040528051906020012014620001b15760405162461bcd60e51b815260206004820152601f60248201527f4879617820746f6b656e2061646472657373206973206e6f742076616c696400604482015260640162000053565b506000600a81905560098190556003556200035b565b600080546001600160a01b038381166001600160a01b0319831681178455604051919092169283917f8be0079c531659141344cd1fd0a4f28419497f9722a3daafe3b4186f6b6457e09190a35050565b6000602082840312156200022a57600080fd5b81516001600160a01b03811681146200024257600080fd5b9392505050565b634e487b7160e01b600052604160045260246000fd5b60005b838110156200027c57818101518382015260200162000262565b50506000910152565b6000602082840312156200029857600080fd5b81516001600160401b0380821115620002b057600080fd5b818401915084601f830112620002c557600080fd5b815181811115620002da57620002da62000249565b604051601f8201601f19908116603f0116810190838211818310171562000305576200030562000249565b816040528281528760208487010111156200031f57600080fd5b620003328360208301602088016200025f565b979650505050505050565b60008251620003518184602087016200025f565b9190910192915050565b611017806200036b6000396000f3fe608060405234801561001057600080fd5b50600436106101375760003560e01c80638036f063116100b8578063c74215661161007c578063c742156614610247578063d1c02aaf1461025a578063d356b49a14610263578063d3946a8c1461026c578063f2fde38b1461027f578063f3793b9d1461029257600080fd5b80638036f063146101ea57806389b08f11146101f35780638da5cb5b1461021a5780639656cd8c1461022b578063a868e9971461023457600080fd5b80635d70203b116100ff5780635d70203b146101b45780636148c783146101bd57806365699d28146101c6578063687a83f8146101d9578063715018a6146101e257600080fd5b8063031f65891461013c5780631e6b40281461016c5780633ba10a561461018c57806341cb484a1461019f5780634c4dc42e146101aa575b600080fd5b60015461014f906001600160a01b031681565b6040516001600160a01b0390911681526020015b60405180910390f35b61017e6a6342fd08f00f637800000081565b604051908152602001610163565b60025461014f906001600160a01b031681565b61017e6301e1338081565b6101b26102af565b005b61017e60035481565b61017e60045481565b600b5461014f906001600160a01b031681565b61017e60065481565b6101b2610605565b61017e600a5481565b610206610201366004610c1a565b610619565b604051610163989796959493929190610c3c565b6000546001600160a01b031661014f565b61017e60075481565b61017e6b07c13bc4b2c133c56000000081565b6101b2610255366004610cf3565b6106eb565b61017e60095481565b61017e60055481565b6101b261027a366004610dc7565b610867565b6101b261028d366004610c1a565b610b43565b60085461029f9060ff1681565b6040519015158152602001610163565b6102b7610b81565b60085460ff166103295760405162461bcd60e51b815260206004820152603260248201527f46756e64696e6720686173206e6f742073746172746564207965742c206e6f20604482015271746f6b656e7320746f20776974686472617760701b60648201526084015b60405180910390fd5b6301e1338060075461033b9190610e0d565b4210156103a45760405162461bcd60e51b815260206004820152603160248201527f43616e6e6f74207769746864726177206265666f7265203120796561722061666044820152701d195c88199d5b991a5b99c81cdd185c9d607a1b6064820152608401610320565b6b07c13bc4b2c133c5600000006004541061040f5760405162461bcd60e51b815260206004820152602560248201527f416c6c2067726f77746820746f6b656e732068617665206265656e2077697468604482015264323930bbb760d91b6064820152608401610320565b6301e133806006546104219190610e0d565b4210156104705760405162461bcd60e51b815260206004820152601f60248201527f43616e206f6e6c79207769746864726177206f6e6365207065722079656172006044820152606401610320565b6004546a6342fd08f00f6378000000906b07c13bc4b2c133c56000000090610499908390610e0d565b11156104bb576004546104b8906b07c13bc4b2c133c560000000610e26565b90505b80600460008282546104cd9190610e0d565b9250508190555080600560008282546104e69190610e26565b9091555050426006556002546001600160a01b031663a9059cbb6105126000546001600160a01b031690565b6040516001600160e01b031960e084901b1681526001600160a01b039091166004820152602481018490526044016020604051808303816000875af115801561055f573d6000803e3d6000fd5b505050506040513d601f19601f820116820180604052508101906105839190610e39565b6105cf5760405162461bcd60e51b815260206004820181905260248201527f4661696c656420746f207472616e736665722067726f77746820746f6b656e736044820152606401610320565b6040518181527f67edb450d6a2cf574f75c20d8d95c58301e4652d5040a1c67a68809eb1a0fc159060200160405180910390a150565b61060d610b81565b6106176000610bae565b565b600c6020526000908152604090208054600182015460028301546003840154600485018054949593949293919261064f90610e56565b80601f016020809104026020016040519081016040528092919081815260200182805461067b90610e56565b80156106c85780601f1061069d576101008083540402835291602001916106c8565b820191906000526020600020905b8154815290600101906020018083116106ab57829003601f168201915b50505050600583015460069093015491929160ff80821692506101009091041688565b6000546001600160a01b031633148061070e5750600b546001600160a01b031633145b610782576040805162461bcd60e51b81526020600482015260248101919091527f46756e6374696f6e207265736572766564206f6e6c7920666f7220746865207760448201527f68697465206c69737465722061646472657373206f7220746865206f776e65726064820152608401610320565b6001600160a01b0383166000908152600c6020526040902060060154610100900460ff16156107f35760405162461bcd60e51b815260206004820152601f60248201527f57616c6c657420616c726561647920696e207468652077686974656c697374006044820152606401610320565b6001600160a01b0383166000908152600c6020526040902060068101805484151561ffff199091161761010017905560040161082f8282610edf565b5050506001600160a01b03166000908152600c6020526040812081815560018101829055600381018290556002810182905560050155565b61086f610b81565b600082600281111561088357610883610f9f565b14806108a05750600182600281111561089e5761089e610f9f565b145b806108bc575060028260028111156108ba576108ba610f9f565b145b6108ff5760405162461bcd60e51b8152602060048201526014602482015273496e76616c69642066756e64696e67207479706560601b6044820152606401610320565b6000811161094f5760405162461bcd60e51b815260206004820152601d60248201527f416d6f756e74206d7573742062652067726561746572207468616e20300000006044820152606401610320565b6002546040516323b872dd60e01b8152336004820152306024820152604481018390526001600160a01b03909116906323b872dd906064016020604051808303816000875af11580156109a6573d6000803e3d6000fd5b505050506040513d601f19601f820116820180604052508101906109ca9190610e39565b610a305760405162461bcd60e51b815260206004820152603160248201527f54686572652077617320616e206572726f72206f6e20726563656976696e672060448201527074686520746f6b656e2066756e64696e6760781b6064820152608401610320565b6000826002811115610a4457610a44610f9f565b03610a9f578060036000828254610a5b9190610e0d565b925050819055508060056000828254610a749190610e0d565b909155505060085460ff16610a9a576008805460ff191660011790554260078190556006555b610b06565b6001826002811115610ab357610ab3610f9f565b03610ad55780600a6000828254610aca9190610e0d565b90915550610b069050565b6002826002811115610ae957610ae9610f9f565b03610b06578060096000828254610b009190610e0d565b90915550505b7fbc0b9ecc68ec48681b8f5718fa26b9ce02021220455be5f5837a944140a80ea38282604051610b37929190610fb5565b60405180910390a15050565b610b4b610b81565b6001600160a01b038116610b7557604051631e4fbdf760e01b815260006004820152602401610320565b610b7e81610bae565b50565b6000546001600160a01b031633146106175760405163118cdaa760e01b8152336004820152602401610320565b600080546001600160a01b038381166001600160a01b0319831681178455604051919092169283917f8be0079c531659141344cd1fd0a4f28419497f9722a3daafe3b4186f6b6457e09190a35050565b80356001600160a01b0381168114610c1557600080fd5b919050565b600060208284031215610c2c57600080fd5b610c3582610bfe565b9392505050565b60006101008a835260208a8185015289604085015288606085015281608085015287518083860152600092505b80831015610c8857888301820151858401610120015291810191610c69565b6101209250600083828701015282601f19601f83011686010193505050508460a0830152610cba60c083018515159052565b82151560e08301529998505050505050505050565b8015158114610b7e57600080fd5b634e487b7160e01b600052604160045260246000fd5b600080600060608486031215610d0857600080fd5b610d1184610bfe565b92506020840135610d2181610ccf565b9150604084013567ffffffffffffffff80821115610d3e57600080fd5b818601915086601f830112610d5257600080fd5b813581811115610d6457610d64610cdd565b604051601f8201601f19908116603f01168101908382118183101715610d8c57610d8c610cdd565b81604052828152896020848701011115610da557600080fd5b8260208601602083013760006020848301015280955050505050509250925092565b60008060408385031215610dda57600080fd5b823560038110610de957600080fd5b946020939093013593505050565b634e487b7160e01b600052601160045260246000fd5b80820180821115610e2057610e20610df7565b92915050565b81810381811115610e2057610e20610df7565b600060208284031215610e4b57600080fd5b8151610c3581610ccf565b600181811c90821680610e6a57607f821691505b602082108103610e8a57634e487b7160e01b600052602260045260246000fd5b50919050565b601f821115610eda57600081815260208120601f850160051c81016020861015610eb75750805b601f850160051c820191505b81811015610ed657828155600101610ec3565b5050505b505050565b815167ffffffffffffffff811115610ef957610ef9610cdd565b610f0d81610f078454610e56565b84610e90565b602080601f831160018114610f425760008415610f2a5750858301515b600019600386901b1c1916600185901b178555610ed6565b600085815260208120601f198616915b82811015610f7157888601518255948401946001909101908401610f52565b5085821015610f8f5787850151600019600388901b60f8161c191681555b5050505050600190811b01905550565b634e487b7160e01b600052602160045260246000fd5b6040810160038410610fd757634e487b7160e01b600052602160045260246000fd5b928152602001529056fea2646970667358221220640ac934f752e9ce877f29af51751456b21c8fe8ec7668f58022e7beec1b559564736f6c63430008140033",
  "linkReferences": {},
  "deployedLinkReferences": {}
}