{
  "_format": "hh-sol-artifact-1",
  "contractName": "UpgradeableHYAXRewards",
  "sourceName": "contracts/UpgradeableHYAXRewards.sol",
  "abi": [
    {
      "inputs": [
        {
          "internalType": "address",
          "name": "_hyaxTokenAddress",
          "type": "address"
        }
      ],
      "stateMutability": "nonpayable",
      "type": "constructor"
    },
    {
      "inputs": [],
      "name": "EnforcedPause",
      "type": "error"
    },
    {
      "inputs": [],
      "name": "ExpectedPause",
      "type": "error"
    },
    {
      "inputs": [
        {
          "internalType": "address",
          "name": "owner",
          "type": "address"
        }
      ],
      "name": "OwnableInvalidOwner",
      "type": "error"
    },
    {
      "inputs": [
        {
          "internalType": "address",
          "name": "account",
          "type": "address"
        }
      ],
      "name": "OwnableUnauthorizedAccount",
      "type": "error"
    },
    {
      "inputs": [],
      "name": "ReentrancyGuardReentrantCall",
      "type": "error"
    },
    {
      "anonymous": false,
      "inputs": [
        {
          "indexed": false,
          "internalType": "address",
          "name": "_sender",
          "type": "address"
        },
        {
          "indexed": false,
          "internalType": "address",
          "name": "_walletAddress",
          "type": "address"
        },
        {
          "indexed": false,
          "internalType": "bool",
          "name": "_newStatus",
          "type": "bool"
        }
      ],
      "name": "BlacklistStatusUpdated",
      "type": "event"
    },
    {
      "anonymous": false,
      "inputs": [
        {
          "indexed": false,
          "internalType": "enum UpgradeableHYAXRewards.FundingType",
          "name": "_fundingType",
          "type": "uint8"
        },
        {
          "indexed": false,
          "internalType": "uint256",
          "name": "_amount",
          "type": "uint256"
        }
      ],
      "name": "FundingAdded",
      "type": "event"
    },
    {
      "anonymous": false,
      "inputs": [
        {
          "indexed": false,
          "internalType": "address",
          "name": "_walletAddress",
          "type": "address"
        },
        {
          "indexed": false,
          "internalType": "uint256",
          "name": "_amount",
          "type": "uint256"
        }
      ],
      "name": "GrowthTokensWithdrawn",
      "type": "event"
    },
    {
      "anonymous": false,
      "inputs": [
        {
          "indexed": false,
          "internalType": "address",
          "name": "_walletAddress",
          "type": "address"
        },
        {
          "indexed": false,
          "internalType": "uint256",
          "name": "_amount",
          "type": "uint256"
        }
      ],
      "name": "HolderRewardsWithdrawn",
      "type": "event"
    },
    {
      "anonymous": false,
      "inputs": [
        {
          "indexed": true,
          "internalType": "address",
          "name": "previousOwner",
          "type": "address"
        },
        {
          "indexed": true,
          "internalType": "address",
          "name": "newOwner",
          "type": "address"
        }
      ],
      "name": "OwnershipTransferred",
      "type": "event"
    },
    {
      "anonymous": false,
      "inputs": [
        {
          "indexed": false,
          "internalType": "address",
          "name": "account",
          "type": "address"
        }
      ],
      "name": "Paused",
      "type": "event"
    },
    {
      "anonymous": false,
      "inputs": [
        {
          "indexed": false,
          "internalType": "address",
          "name": "_sender",
          "type": "address"
        },
        {
          "indexed": false,
          "internalType": "address",
          "name": "_walletAddress",
          "type": "address"
        },
        {
          "indexed": false,
          "internalType": "string",
          "name": "_errorMessage",
          "type": "string"
        }
      ],
      "name": "RewardUpdateFailed",
      "type": "event"
    },
    {
      "anonymous": false,
      "inputs": [
        {
          "indexed": false,
          "internalType": "address",
          "name": "_sender",
          "type": "address"
        },
        {
          "indexed": false,
          "internalType": "address[]",
          "name": "_walletAddresses",
          "type": "address[]"
        },
        {
          "indexed": false,
          "internalType": "uint256[]",
          "name": "_hyaxHoldingAmounts",
          "type": "uint256[]"
        }
      ],
      "name": "RewardsUpdated",
      "type": "event"
    },
    {
      "anonymous": false,
      "inputs": [
        {
          "indexed": false,
          "internalType": "address",
          "name": "_walletAddress",
          "type": "address"
        },
        {
          "indexed": false,
          "internalType": "uint256",
          "name": "_amount",
          "type": "uint256"
        }
      ],
      "name": "TeamTokensWithdrawn",
      "type": "event"
    },
    {
      "anonymous": false,
      "inputs": [
        {
          "indexed": false,
          "internalType": "enum UpgradeableHYAXRewards.FundingType",
          "name": "_fundingType",
          "type": "uint8"
        },
        {
          "indexed": false,
          "internalType": "uint256",
          "name": "_amount",
          "type": "uint256"
        }
      ],
      "name": "TokensToBurnWithdrawn",
      "type": "event"
    },
    {
      "anonymous": false,
      "inputs": [
        {
          "indexed": false,
          "internalType": "address",
          "name": "account",
          "type": "address"
        }
      ],
      "name": "Unpaused",
      "type": "event"
    },
    {
      "anonymous": false,
      "inputs": [
        {
          "indexed": false,
          "internalType": "address",
          "name": "_sender",
          "type": "address"
        },
        {
          "indexed": false,
          "internalType": "address",
          "name": "_walletAddress",
          "type": "address"
        },
        {
          "indexed": false,
          "internalType": "bool",
          "name": "_isTeamWallet",
          "type": "bool"
        },
        {
          "indexed": false,
          "internalType": "string",
          "name": "_bitcoinRewardsAddress",
          "type": "string"
        },
        {
          "indexed": false,
          "internalType": "uint256",
          "name": "_hyaxHoldingAmount",
          "type": "uint256"
        }
      ],
      "name": "WalletAddedToWhitelist",
      "type": "event"
    },
    {
      "anonymous": false,
      "inputs": [
        {
          "indexed": false,
          "internalType": "address",
          "name": "_sender",
          "type": "address"
        },
        {
          "indexed": false,
          "internalType": "address",
          "name": "_walletAddress",
          "type": "address"
        },
        {
          "indexed": false,
          "internalType": "bool",
          "name": "_newStatus",
          "type": "bool"
        }
      ],
      "name": "WhitelistStatusUpdated",
      "type": "event"
    },
    {
      "inputs": [],
      "name": "GROWTH_TOKENS_TOTAL",
      "outputs": [
        {
          "internalType": "uint256",
          "name": "",
          "type": "uint256"
        }
      ],
      "stateMutability": "view",
      "type": "function"
    },
    {
      "inputs": [],
      "name": "GROWTH_TOKENS_WITHDRAWAL_PER_YEAR",
      "outputs": [
        {
          "internalType": "uint256",
          "name": "",
          "type": "uint256"
        }
      ],
      "stateMutability": "view",
      "type": "function"
    },
    {
      "inputs": [],
      "name": "MAX_BATCH_SIZE_FOR_UPDATE_REWARDS",
      "outputs": [
        {
          "internalType": "uint256",
          "name": "",
          "type": "uint256"
        }
      ],
      "stateMutability": "view",
      "type": "function"
    },
    {
      "inputs": [],
      "name": "MIN_INTERVAL_FOR_UPDATE_REWARDS",
      "outputs": [
        {
          "internalType": "uint256",
          "name": "",
          "type": "uint256"
        }
      ],
      "stateMutability": "view",
      "type": "function"
    },
    {
      "inputs": [],
      "name": "REWARD_TOKENS_HOLDING_PERIOD",
      "outputs": [
        {
          "internalType": "uint256",
          "name": "",
          "type": "uint256"
        }
      ],
      "stateMutability": "view",
      "type": "function"
    },
    {
      "inputs": [],
      "name": "REWARD_TOKENS_TOTAL",
      "outputs": [
        {
          "internalType": "uint256",
          "name": "",
          "type": "uint256"
        }
      ],
      "stateMutability": "view",
      "type": "function"
    },
    {
      "inputs": [],
      "name": "REWARD_TOKENS_WITHDRAWAL_PER_WEEK",
      "outputs": [
        {
          "internalType": "uint256",
          "name": "",
          "type": "uint256"
        }
      ],
      "stateMutability": "view",
      "type": "function"
    },
    {
      "inputs": [],
      "name": "REWARD_TOKENS_WITHDRAWAL_PER_YEAR",
      "outputs": [
        {
          "internalType": "uint256",
          "name": "",
          "type": "uint256"
        }
      ],
      "stateMutability": "view",
      "type": "function"
    },
    {
      "inputs": [],
      "name": "TEAM_TOKENS_LOCKED_PERIOD",
      "outputs": [
        {
          "internalType": "uint256",
          "name": "",
          "type": "uint256"
        }
      ],
      "stateMutability": "view",
      "type": "function"
    },
    {
      "inputs": [],
      "name": "TEAM_TOKENS_TOTAL",
      "outputs": [
        {
          "internalType": "uint256",
          "name": "",
          "type": "uint256"
        }
      ],
      "stateMutability": "view",
      "type": "function"
    },
    {
      "inputs": [],
      "name": "TEAM_TOKENS_WITHDRAWAL_PER_YEAR",
      "outputs": [
        {
          "internalType": "uint256",
          "name": "",
          "type": "uint256"
        }
      ],
      "stateMutability": "view",
      "type": "function"
    },
    {
      "inputs": [],
      "name": "TOKENS_WITHDRAWAL_PERIOD",
      "outputs": [
        {
          "internalType": "uint256",
          "name": "",
          "type": "uint256"
        }
      ],
      "stateMutability": "view",
      "type": "function"
    },
    {
      "inputs": [
        {
          "internalType": "address",
          "name": "_walletAddress",
          "type": "address"
        },
        {
          "internalType": "bool",
          "name": "_isTeamWallet",
          "type": "bool"
        },
        {
          "internalType": "string",
          "name": "_bitcoinRewardsAddress",
          "type": "string"
        },
        {
          "internalType": "uint256",
          "name": "_hyaxHoldingAmountAtWhitelistTime",
          "type": "uint256"
        }
      ],
      "name": "addWalletToWhitelist",
      "outputs": [],
      "stateMutability": "nonpayable",
      "type": "function"
    },
    {
      "inputs": [],
      "name": "calculateYearForTeamTokens",
      "outputs": [
        {
          "internalType": "uint8",
          "name": "",
          "type": "uint8"
        }
      ],
      "stateMutability": "view",
      "type": "function"
    },
    {
      "inputs": [
        {
          "internalType": "enum UpgradeableHYAXRewards.FundingType",
          "name": "_fundingType",
          "type": "uint8"
        },
        {
          "internalType": "uint256",
          "name": "_amount",
          "type": "uint256"
        }
      ],
      "name": "fundSmartContract",
      "outputs": [],
      "stateMutability": "nonpayable",
      "type": "function"
    },
    {
      "inputs": [],
      "name": "growthTokensFunded",
      "outputs": [
        {
          "internalType": "uint256",
          "name": "",
          "type": "uint256"
        }
      ],
      "stateMutability": "view",
      "type": "function"
    },
    {
      "inputs": [],
      "name": "growthTokensFundingStarted",
      "outputs": [
        {
          "internalType": "bool",
          "name": "",
          "type": "bool"
        }
      ],
      "stateMutability": "view",
      "type": "function"
    },
    {
      "inputs": [],
      "name": "growthTokensInSmartContract",
      "outputs": [
        {
          "internalType": "uint256",
          "name": "",
          "type": "uint256"
        }
      ],
      "stateMutability": "view",
      "type": "function"
    },
    {
      "inputs": [],
      "name": "growthTokensLastWithdrawalTime",
      "outputs": [
        {
          "internalType": "uint256",
          "name": "",
          "type": "uint256"
        }
      ],
      "stateMutability": "view",
      "type": "function"
    },
    {
      "inputs": [],
      "name": "growthTokensStartFundingTime",
      "outputs": [
        {
          "internalType": "uint256",
          "name": "",
          "type": "uint256"
        }
      ],
      "stateMutability": "view",
      "type": "function"
    },
    {
      "inputs": [],
      "name": "growthTokensWithdrawn",
      "outputs": [
        {
          "internalType": "uint256",
          "name": "",
          "type": "uint256"
        }
      ],
      "stateMutability": "view",
      "type": "function"
    },
    {
      "inputs": [],
      "name": "hyaxToken",
      "outputs": [
        {
          "internalType": "contract ERC20TokenInterface",
          "name": "",
          "type": "address"
        }
      ],
      "stateMutability": "view",
      "type": "function"
    },
    {
      "inputs": [],
      "name": "hyaxTokenAddress",
      "outputs": [
        {
          "internalType": "address",
          "name": "",
          "type": "address"
        }
      ],
      "stateMutability": "view",
      "type": "function"
    },
    {
      "inputs": [],
      "name": "owner",
      "outputs": [
        {
          "internalType": "address",
          "name": "",
          "type": "address"
        }
      ],
      "stateMutability": "view",
      "type": "function"
    },
    {
      "inputs": [],
      "name": "pause",
      "outputs": [],
      "stateMutability": "nonpayable",
      "type": "function"
    },
    {
      "inputs": [],
      "name": "paused",
      "outputs": [
        {
          "internalType": "bool",
          "name": "",
          "type": "bool"
        }
      ],
      "stateMutability": "view",
      "type": "function"
    },
    {
      "inputs": [],
      "name": "renounceOwnership",
      "outputs": [],
      "stateMutability": "nonpayable",
      "type": "function"
    },
    {
      "inputs": [],
      "name": "rewardTokensDistributed",
      "outputs": [
        {
          "internalType": "uint256",
          "name": "",
          "type": "uint256"
        }
      ],
      "stateMutability": "view",
      "type": "function"
    },
    {
      "inputs": [],
      "name": "rewardTokensFunded",
      "outputs": [
        {
          "internalType": "uint256",
          "name": "",
          "type": "uint256"
        }
      ],
      "stateMutability": "view",
      "type": "function"
    },
    {
      "inputs": [],
      "name": "rewardTokensFundingStarted",
      "outputs": [
        {
          "internalType": "bool",
          "name": "",
          "type": "bool"
        }
      ],
      "stateMutability": "view",
      "type": "function"
    },
    {
      "inputs": [],
      "name": "rewardTokensInSmartContract",
      "outputs": [
        {
          "internalType": "uint256",
          "name": "",
          "type": "uint256"
        }
      ],
      "stateMutability": "view",
      "type": "function"
    },
    {
      "inputs": [],
      "name": "rewardTokensStartFundingTime",
      "outputs": [
        {
          "internalType": "uint256",
          "name": "",
          "type": "uint256"
        }
      ],
      "stateMutability": "view",
      "type": "function"
    },
    {
      "inputs": [],
      "name": "rewardTokensWithdrawn",
      "outputs": [
        {
          "internalType": "uint256",
          "name": "",
          "type": "uint256"
        }
      ],
      "stateMutability": "view",
      "type": "function"
    },
    {
      "inputs": [],
      "name": "rewardsUpdaterAddress",
      "outputs": [
        {
          "internalType": "address",
          "name": "",
          "type": "address"
        }
      ],
      "stateMutability": "view",
      "type": "function"
    },
    {
      "inputs": [],
      "name": "teamTokensFunded",
      "outputs": [
        {
          "internalType": "uint256",
          "name": "",
          "type": "uint256"
        }
      ],
      "stateMutability": "view",
      "type": "function"
    },
    {
      "inputs": [],
      "name": "teamTokensFundingStarted",
      "outputs": [
        {
          "internalType": "bool",
          "name": "",
          "type": "bool"
        }
      ],
      "stateMutability": "view",
      "type": "function"
    },
    {
      "inputs": [],
      "name": "teamTokensInSmartContract",
      "outputs": [
        {
          "internalType": "uint256",
          "name": "",
          "type": "uint256"
        }
      ],
      "stateMutability": "view",
      "type": "function"
    },
    {
      "inputs": [],
      "name": "teamTokensLastWithdrawalTime",
      "outputs": [
        {
          "internalType": "uint256",
          "name": "",
          "type": "uint256"
        }
      ],
      "stateMutability": "view",
      "type": "function"
    },
    {
      "inputs": [],
      "name": "teamTokensStartFundingTime",
      "outputs": [
        {
          "internalType": "uint256",
          "name": "",
          "type": "uint256"
        }
      ],
      "stateMutability": "view",
      "type": "function"
    },
    {
      "inputs": [],
      "name": "teamTokensWithdrawn",
      "outputs": [
        {
          "internalType": "uint256",
          "name": "",
          "type": "uint256"
        }
      ],
      "stateMutability": "view",
      "type": "function"
    },
    {
      "inputs": [
        {
          "internalType": "address",
          "name": "newOwner",
          "type": "address"
        }
      ],
      "name": "transferOwnership",
      "outputs": [],
      "stateMutability": "nonpayable",
      "type": "function"
    },
    {
      "inputs": [],
      "name": "unpause",
      "outputs": [],
      "stateMutability": "nonpayable",
      "type": "function"
    },
    {
      "inputs": [
        {
          "internalType": "address",
          "name": "_walletAddress",
          "type": "address"
        },
        {
          "internalType": "bool",
          "name": "_newStatus",
          "type": "bool"
        }
      ],
      "name": "updateBlacklistStatus",
      "outputs": [],
      "stateMutability": "nonpayable",
      "type": "function"
    },
    {
      "inputs": [
        {
          "internalType": "address",
          "name": "_hyaxTokenAddress",
          "type": "address"
        }
      ],
      "name": "updateHyaxTokenAddress",
      "outputs": [],
      "stateMutability": "nonpayable",
      "type": "function"
    },
    {
      "inputs": [
        {
          "internalType": "address[]",
          "name": "_walletAddresses",
          "type": "address[]"
        },
        {
          "internalType": "uint256[]",
          "name": "_hyaxRewards",
          "type": "uint256[]"
        }
      ],
      "name": "updateRewardsBatch",
      "outputs": [],
      "stateMutability": "nonpayable",
      "type": "function"
    },
    {
      "inputs": [
        {
          "internalType": "address",
          "name": "_walletAddress",
          "type": "address"
        },
        {
          "internalType": "uint256",
          "name": "_hyaxRewards",
          "type": "uint256"
        }
      ],
      "name": "updateRewardsSingle",
      "outputs": [],
      "stateMutability": "nonpayable",
      "type": "function"
    },
    {
      "inputs": [
        {
          "internalType": "address",
          "name": "_rewardsUpdaterAddress",
          "type": "address"
        }
      ],
      "name": "updateRewardsUpdaterAddress",
      "outputs": [],
      "stateMutability": "nonpayable",
      "type": "function"
    },
    {
      "inputs": [
        {
          "internalType": "address",
          "name": "_whiteListerAddress",
          "type": "address"
        }
      ],
      "name": "updateWhiteListerAddress",
      "outputs": [],
      "stateMutability": "nonpayable",
      "type": "function"
    },
    {
      "inputs": [
        {
          "internalType": "address",
          "name": "_walletAddress",
          "type": "address"
        },
        {
          "internalType": "bool",
          "name": "_newStatus",
          "type": "bool"
        }
      ],
      "name": "updateWhitelistStatus",
      "outputs": [],
      "stateMutability": "nonpayable",
      "type": "function"
    },
    {
      "inputs": [
        {
          "internalType": "address",
          "name": "",
          "type": "address"
        }
      ],
      "name": "wallets",
      "outputs": [
        {
          "internalType": "uint256",
          "name": "hyaxHoldingAmount",
          "type": "uint256"
        },
        {
          "internalType": "uint256",
          "name": "hyaxHoldingAmountAtWhitelistTime",
          "type": "uint256"
        },
        {
          "internalType": "uint256",
          "name": "totalHyaxRewardsAmount",
          "type": "uint256"
        },
        {
          "internalType": "uint256",
          "name": "currentRewardsAmount",
          "type": "uint256"
        },
        {
          "internalType": "uint256",
          "name": "rewardsWithdrawn",
          "type": "uint256"
        },
        {
          "internalType": "string",
          "name": "bitcoinRewardsAddress",
          "type": "string"
        },
        {
          "internalType": "uint256",
          "name": "addedToWhitelistTime",
          "type": "uint256"
        },
        {
          "internalType": "uint8",
          "name": "tokenWithdrawalTimes",
          "type": "uint8"
        },
        {
          "internalType": "uint256",
          "name": "lastRewardsWithdrawalTime",
          "type": "uint256"
        },
        {
          "internalType": "uint256",
          "name": "lastRewardsUpdateTime",
          "type": "uint256"
        },
        {
          "internalType": "bool",
          "name": "isTeamWallet",
          "type": "bool"
        },
        {
          "internalType": "bool",
          "name": "isWhitelisted",
          "type": "bool"
        },
        {
          "internalType": "bool",
          "name": "isBlacklisted",
          "type": "bool"
        }
      ],
      "stateMutability": "view",
      "type": "function"
    },
    {
      "inputs": [],
      "name": "whiteListerAddress",
      "outputs": [
        {
          "internalType": "address",
          "name": "",
          "type": "address"
        }
      ],
      "stateMutability": "view",
      "type": "function"
    },
    {
      "inputs": [],
      "name": "withdrawGrowthTokens",
      "outputs": [],
      "stateMutability": "nonpayable",
      "type": "function"
    },
    {
      "inputs": [],
      "name": "withdrawRewardTokens",
      "outputs": [],
      "stateMutability": "nonpayable",
      "type": "function"
    },
    {
      "inputs": [],
      "name": "withdrawTeamTokens",
      "outputs": [],
      "stateMutability": "nonpayable",
      "type": "function"
    },
    {
      "inputs": [
        {
          "internalType": "enum UpgradeableHYAXRewards.FundingType",
          "name": "_fundingType",
          "type": "uint8"
        },
        {
          "internalType": "uint256",
          "name": "_amount",
          "type": "uint256"
        }
      ],
      "name": "withdrawTokensToBurn",
      "outputs": [],
      "stateMutability": "nonpayable",
      "type": "function"
    }
  ],
  "bytecode": "0x60806040523480156200001157600080fd5b50604051620038a7380380620038a783398101604081905262000034916200020c565b33806200005c57604051631e4fbdf760e01b8152600060048201526024015b60405180910390fd5b6200006781620001bc565b506000805460ff60a01b1916815560018055600280546001600160a01b0384166001600160a01b0319918216811790925560038054909116821790556040805163090b282b60e31b6020808301919091528251808303600401815260248301808552815191909201206395d89b4160e01b909152915191936395d89b41926028808401938290030181865afa15801562000105573d6000803e3d6000fd5b505050506040513d6000823e601f3d908101601f191682016040526200012f91908101906200027a565b60405160200162000141919062000332565b6040516020818303038152906040528051906020012014620001a65760405162461bcd60e51b815260206004820152601f60248201527f4879617820746f6b656e2061646472657373206973206e6f742076616c696400604482015260640162000053565b5060006004819055600a81905560105562000350565b600080546001600160a01b038381166001600160a01b0319831681178455604051919092169283917f8be0079c531659141344cd1fd0a4f28419497f9722a3daafe3b4186f6b6457e09190a35050565b6000602082840312156200021f57600080fd5b81516001600160a01b03811681146200023757600080fd5b9392505050565b634e487b7160e01b600052604160045260246000fd5b60005b838110156200027157818101518382015260200162000257565b50506000910152565b6000602082840312156200028d57600080fd5b81516001600160401b0380821115620002a557600080fd5b818401915084601f830112620002ba57600080fd5b815181811115620002cf57620002cf6200023e565b604051601f8201601f19908116603f01168101908382118183101715620002fa57620002fa6200023e565b816040528281528760208487010111156200031457600080fd5b6200032783602083016020880162000254565b979650505050505050565b600082516200034681846020870162000254565b9190910192915050565b61354780620003606000396000f3fe608060405234801561001057600080fd5b506004361061035d5760003560e01c806389b08f11116101d3578063d3946a8c11610104578063efce5587116100a2578063f8ff46c61161007c578063f8ff46c61461066b578063f972c02714610674578063fafd7c2014610687578063fd5595261461069a57600080fd5b8063efce558714610638578063f2fde38b1461064b578063f3793b9d1461065e57600080fd5b8063e2ccbfe4116100de578063e2ccbfe41461060f578063e3682a5d146103c3578063e774ce4314610622578063ebc8e2dd1461062b57600080fd5b8063d3946a8c146105e8578063d7e57fda146105fb578063dcb7ff6b1461060457600080fd5b80639bae900211610171578063b83608061161014b578063b8360806146105ac578063c07732a3146105bf578063c1cc52b3146105d2578063d356b49a146105df57600080fd5b80639bae90021461057e578063a393952614610591578063a868e9971461059957600080fd5b80638da5cb5b116101ad5780638da5cb5b1461054a5780638e6d32df1461055b578063953b7ef81461056d5780639656cd8c1461057557600080fd5b806389b08f11146104fb5780638bb4dadd146105275780638da2e27f1461054157600080fd5b806359aa8966116102ad578063687a83f81161024b578063715018a611610225578063715018a6146104cf5780637426a42a146104d757806381f8ca1b146104e05780638456cb59146104f357600080fd5b8063687a83f8146104aa5780636e3ce4e1146104b35780636fce7873146104bc57600080fd5b80636148c783116102875780636148c7831461046d578063647a5a7814610476578063653c3a471461047f57806365699d281461049257600080fd5b806359aa89661461043b5780635c975abb146104465780635d70203b1461046457600080fd5b8063334c4cb31161031a5780633f4ba83a116102f45780633f4ba83a146104055780634c4dc42e1461040d5780634f8ea72c146104155780635493b30d1461042857600080fd5b8063334c4cb3146103df578063370243dc146103e85780633ba10a56146103f257600080fd5b8063031f658914610362578063043aa98f146103925780631035fc09146103a85780631e6b4028146103b15780632558df21146103c35780632b5187ae146103cd575b600080fd5b600254610375906001600160a01b031681565b6040516001600160a01b0390911681526020015b60405180910390f35b61039a6106a3565b604051908152602001610389565b61039a600e5481565b61039a6a6342fd08f00f637800000081565b61039a62093a8081565b61039a6a7c13bc4b2c133c5600000081565b61039a60125481565b6103f06106bc565b005b600354610375906001600160a01b031681565b6103f0610a0a565b6103f0610a1c565b6103f0610423366004612cf9565b610d37565b61039a6b04d8c55aefb8c05b5c00000081565b61039a6301e1338081565b600054600160a01b900460ff165b6040519015158152602001610389565b61039a60045481565b61039a60055481565b61039a600c5481565b6103f061048d366004612dd5565b611041565b6015546103759061010090046001600160a01b031681565b61039a60075481565b61039a60145481565b6103f06104ca366004612dd5565b611071565b6103f061109b565b61039a600d5481565b61039a6b03e09de2596099e2b000000081565b6103f06110ad565b61050e610509366004612dd5565b6110bd565b6040516103899d9c9b9a99989796959493929190612e3d565b61052f6111b8565b60405160ff9091168152602001610389565b61039a60135481565b6000546001600160a01b0316610375565b61039a6af8277896582678ac00000081565b6103f0611232565b61039a60085481565b6103f061058c366004612dd5565b61174d565b61039a606481565b61039a6b07c13bc4b2c133c56000000081565b6103f06105ba366004612ec2565b611781565b6103f06105cd366004612ec2565b6118ba565b600f546104549060ff1681565b61039a60065481565b6103f06105f6366004612ef9565b6119e8565b61039a600b5481565b61039a630784ce0081565b6103f061061d366004612ef9565b611f07565b61039a60115481565b6015546104549060ff1681565b6103f0610646366004612f75565b612302565b6103f0610659366004612dd5565b61259d565b6009546104549060ff1681565b61039a600a5481565b601654610375906001600160a01b031681565b6103f0610695366004612fe1565b61268a565b61039a60105481565b6106b960346a7c13bc4b2c133c56000000613013565b81565b336000818152601760205260409020600a015460ff6101009091041615156001146107025760405162461bcd60e51b81526004016106f990613035565b60405180910390fd5b61070a612b25565b336000908152601760205260409020600a015460ff6101009091041615156001146107475760405162461bcd60e51b81526004016106f990613035565b336000908152601760205260409020600a015462010000900460ff16156107805760405162461bcd60e51b81526004016106f99061306c565b60155460ff166107a25760405162461bcd60e51b81526004016106f9906130a3565b6b03e09de2596099e2b00000006012541061080d5760405162461bcd60e51b815260206004820152602560248201527f416c6c2072657761726420746f6b656e732068617665206265656e2077697468604482015264323930bbb760d91b60648201526084016106f9565b336000908152601760205260409020600301548061086d5760405162461bcd60e51b815260206004820181905260248201527f4e6f207265776172647320617661696c61626c6520746f20776974686472617760448201526064016106f9565b60135481111561088f5760405162461bcd60e51b81526004016106f9906130f5565b33600090815260176020526040812060040180548392906108b190849061314b565b90915550503360009081526017602052604081206003810182905542600890910155601380548392906108e5908490613164565b9250508190555080601260008282546108fe919061314b565b909155505060035460405163a9059cbb60e01b8152336004820152602481018390526001600160a01b039091169063a9059cbb906044016020604051808303816000875af1158015610954573d6000803e3d6000fd5b505050506040513d601f19601f820116820180604052508101906109789190613177565b6109c45760405162461bcd60e51b815260206004820181905260248201527f4661696c656420746f207472616e736665722072657761726420746f6b656e7360448201526064016106f9565b60408051338152602081018390527f52bd198d55af76ac0dd1fa018163f4f221f52c7d16eb323dfa99e75cbaa450ab910160405180910390a150610a0760018055565b50565b610a12612b4f565b610a1a612b7c565b565b610a24612b4f565b610a2c612b25565b60095460ff16610a4e5760405162461bcd60e51b81526004016106f9906130a3565b6301e13380600854610a60919061314b565b421015610ac95760405162461bcd60e51b815260206004820152603160248201527f43616e6e6f74207769746864726177206265666f7265203120796561722061666044820152701d195c88199d5b991a5b99c81cdd185c9d607a1b60648201526084016106f9565b6b07c13bc4b2c133c56000000060055410610b345760405162461bcd60e51b815260206004820152602560248201527f416c6c2067726f77746820746f6b656e732068617665206265656e2077697468604482015264323930bbb760d91b60648201526084016106f9565b6301e13380600754610b46919061314b565b421015610b955760405162461bcd60e51b815260206004820152601f60248201527f43616e206f6e6c79207769746864726177206f6e63652070657220796561720060448201526064016106f9565b6005546a6342fd08f00f6378000000906b07c13bc4b2c133c56000000090610bbe90839061314b565b1115610be057600554610bdd906b07c13bc4b2c133c560000000613164565b90505b8060056000828254610bf2919061314b565b925050819055508060066000828254610c0b9190613164565b9091555050426007556003546001600160a01b031663a9059cbb610c376000546001600160a01b031690565b6040516001600160e01b031960e084901b1681526001600160a01b039091166004820152602481018490526044016020604051808303816000875af1158015610c84573d6000803e3d6000fd5b505050506040513d601f19601f82011682018060405250810190610ca89190613177565b610cf45760405162461bcd60e51b815260206004820181905260248201527f4661696c656420746f207472616e736665722067726f77746820746f6b656e7360448201526064016106f9565b60408051338152602081018390527fd0a5227bfa49cf178a8f7a87b90318ef05fc8330f469e0dccbe075784f426dbf910160405180910390a150610a1a60018055565b6000546001600160a01b0316331480610d5f575060155461010090046001600160a01b031633145b610d7b5760405162461bcd60e51b81526004016106f990613194565b6001600160a01b0384166000908152601760205260409020600a0154610100900460ff1615610dec5760405162461bcd60e51b815260206004820152601d60248201527f57616c6c657420697320616c72656164792077686974656c697374656400000060448201526064016106f9565b6001600160a01b0384166000908152601760205260409020600a015462010000900460ff1615610e2e5760405162461bcd60e51b81526004016106f99061306c565b6001600160a01b0384166000908152601760205260409020600a8101805485151562ffffff1990911617610100179055600501610e6b838261327a565b506001600160a01b038416600090815260176020526040812042600682015560078101805460ff19169055600881018290556003810182905560028101829055600401558215610ffc5760008111610f395760405162461bcd60e51b8152602060048201526044602482018190527f5465616d2077616c6c657473206d757374206265206164646564207769746820908201527f61206879617820686f6c64696e6720616d6f756e7420677265617465722074686064820152630616e20360e41b608482015260a4016106f9565b6b04d8c55aefb8c05b5c000000811115610fd95760405162461bcd60e51b815260206004820152605560248201527f5465616d2077616c6c657473206d75737420626520616464656420776974682060448201527f61206879617820686f6c64696e6720616d6f756e74206c657373207468616e2060648201527474686520746f74616c207465616d20746f6b656e7360581b608482015260a4016106f9565b6001600160a01b0384166000908152601760205260409020600181018290558190555b7f959ac3b35c0501d63161cf11f0e2bb784f4d0e01ae7b9ff879622579863516ac338585858560405161103395949392919061333a565b60405180910390a150505050565b611049612b4f565b601580546001600160a01b0390921661010002610100600160a81b0319909216919091179055565b611079612b4f565b601680546001600160a01b0319166001600160a01b0392909216919091179055565b6110a3612b4f565b610a1a6000612bd1565b6110b5612b4f565b610a1a612c21565b60176020528060005260406000206000915090508060000154908060010154908060020154908060030154908060040154908060050180546110fe906131f1565b80601f016020809104026020016040519081016040528092919081815260200182805461112a906131f1565b80156111775780601f1061114c57610100808354040283529160200191611177565b820191906000526020600020905b81548152906001019060200180831161115a57829003601f168201915b5050506006840154600785015460088601546009870154600a909701549596929560ff9283169550909350808216916101008204811691620100009004168d565b600080600e54426111c99190613164565b9050630f099c0081106111de57600591505090565b630d28688081106111f157600491505090565b630b473500811061120457600391505090565b6309660180811061121757600291505090565b630784ce00811061122a57600191505090565b600091505090565b336000818152601760205260409020600a015460ff61010090910416151560011461126f5760405162461bcd60e51b81526004016106f990613035565b336000818152601760205260409020600a015462010000900460ff16156112a85760405162461bcd60e51b81526004016106f99061306c565b6112b0612b25565b336000908152601760205260409020600a015460ff16151560011461133d5760405162461bcd60e51b815260206004820152603960248201527f4f6e6c79207465616d2077616c6c6574732063616e207769746864726177207460448201527f6f6b656e73207573696e6720746869732066756e6374696f6e0000000000000060648201526084016106f9565b600f5460ff1661135f5760405162461bcd60e51b81526004016106f9906130a3565b3360009081526017602052604090206006015461138190630784ce009061314b565b4210156114005760405162461bcd60e51b815260206004820152604160248201527f43616e6e6f74207769746864726177206265666f72652034207965617273206160448201527f66746572206265696e6720616464656420746f207468652077686974656c69736064820152601d60fa1b608482015260a4016106f9565b6b04d8c55aefb8c05b5c000000600b54106114695760405162461bcd60e51b815260206004820152602360248201527f416c6c207465616d20746f6b656e732068617665206265656e2077697468647260448201526230bbb760e91b60648201526084016106f9565b336000908152601760205260409020546114d05760405162461bcd60e51b815260206004820152602260248201527f4e6f206879617820686f6c64696e6720616d6f756e7420746f20776974686472604482015261617760f01b60648201526084016106f9565b6114d86111b8565b3360009081526017602052604090206007015460ff9182169116106115535760405162461bcd60e51b815260206004820152602b60248201527f43616e206f6e6c79207769746864726177207465616d20746f6b656e73206f6e60448201526a31b2903832b9103cb2b0b960a91b60648201526084016106f9565b3360009081526017602052604081206001015461157290600590613013565b90506b04d8c55aefb8c05b5c00000081600b5461158f919061314b565b11156115b157600b546115ae906b04d8c55aefb8c05b5c000000613164565b90505b33600090815260176020526040812080548392906115d0908490613164565b9250508190555080600b60008282546115e9919061314b565b9250508190555080600c60008282546116029190613164565b9091555050336000908152601760205260408120600701805460ff169161162883613380565b825460ff9182166101009390930a92830291909202199091161790555060035460405163a9059cbb60e01b8152336004820152602481018390526001600160a01b039091169063a9059cbb906044016020604051808303816000875af1158015611696573d6000803e3d6000fd5b505050506040513d601f19601f820116820180604052508101906116ba9190613177565b6117065760405162461bcd60e51b815260206004820152601e60248201527f4661696c656420746f207472616e73666572207465616d20746f6b656e73000060448201526064016106f9565b60408051338152602081018390527f1e63f692f0a30c3957ac289d6a44616bd119f5502eba5ae440f3158cc2c2d291910160405180910390a15061174960018055565b5050565b611755612b4f565b600280546001600160a01b039092166001600160a01b0319928316811790915560038054909216179055565b6000546001600160a01b03163314806117a9575060155461010090046001600160a01b031633145b6117c55760405162461bcd60e51b81526004016106f990613194565b6001600160a01b0382166000908152601760205260409020600a01548115156201000090910460ff1615150361183d5760405162461bcd60e51b815260206004820152601e60248201527f57616c6c657420616c726561647920686173207468617420737461747573000060448201526064016106f9565b6001600160a01b038216600081815260176020908152604091829020600a01805462ff000019166201000086151590810291909117909155825133815291820193909352908101919091527f89a9c56967d4535d54c90bffd7cbd09f6d2a4c8e26b9e7f033f199d144e12b4e906060015b60405180910390a15050565b6000546001600160a01b03163314806118e2575060155461010090046001600160a01b031633145b6118fe5760405162461bcd60e51b81526004016106f990613194565b6001600160a01b0382166000908152601760205260409020600a015481151561010090910460ff161515036119755760405162461bcd60e51b815260206004820152601e60248201527f57616c6c657420616c726561647920686173207468617420737461747573000060448201526064016106f9565b6001600160a01b038216600081815260176020908152604091829020600a01805461ff00191661010086151590810291909117909155825133815291820193909352908101919091527f70bbee4e66e3fd40f7da099410cfd723ed4a0b4fec11f6cc968e850db827a88b906060016118ae565b6119f0612b4f565b6119f8612b25565b6000826002811115611a0c57611a0c61339f565b1480611a2957506001826002811115611a2757611a2761339f565b145b80611a4557506002826002811115611a4357611a4361339f565b145b611a885760405162461bcd60e51b8152602060048201526014602482015273496e76616c69642066756e64696e67207479706560601b60448201526064016106f9565b60008111611ad85760405162461bcd60e51b815260206004820152601d60248201527f416d6f756e74206d7573742062652067726561746572207468616e203000000060448201526064016106f9565b6003546040516323b872dd60e01b8152336004820152306024820152604481018390526001600160a01b03909116906323b872dd906064016020604051808303816000875af1158015611b2f573d6000803e3d6000fd5b505050506040513d601f19601f82011682018060405250810190611b539190613177565b611bb95760405162461bcd60e51b815260206004820152603160248201527f54686572652077617320616e206572726f72206f6e20726563656976696e672060448201527074686520746f6b656e2066756e64696e6760781b60648201526084016106f9565b6000826002811115611bcd57611bcd61339f565b03611cc3576b07c13bc4b2c133c56000000081600454611bed919061314b565b1115611c6d5760405162461bcd60e51b815260206004820152604360248201527f416d6f756e7420746f2066756e642069732067726561746572207468616e207460448201527f686520746f74616c20696e74656e74656420666f722067726f77746820746f6b606482015262656e7360e81b608482015260a4016106f9565b8060046000828254611c7f919061314b565b925050819055508060066000828254611c98919061314b565b909155505060095460ff16611cbe576009805460ff191660011790554260088190556007555b611ec5565b6001826002811115611cd757611cd761339f565b03611dc5576b04d8c55aefb8c05b5c00000081600a54611cf7919061314b565b1115611d755760405162461bcd60e51b815260206004820152604160248201527f416d6f756e7420746f2066756e642069732067726561746572207468616e207460448201527f686520746f74616c20696e74656e74656420666f72207465616d20746f6b656e6064820152607360f81b608482015260a4016106f9565b80600a6000828254611d87919061314b565b9250508190555080600c6000828254611da0919061314b565b9091555050600f5460ff16611cbe57600f805460ff1916600117905542600e55611ec5565b6002826002811115611dd957611dd961339f565b03611ec5576b03e09de2596099e2b000000081601054611df9919061314b565b1115611e795760405162461bcd60e51b815260206004820152604360248201527f416d6f756e7420746f2066756e642069732067726561746572207468616e207460448201527f686520746f74616c20696e74656e74656420666f722072657761726420746f6b606482015262656e7360e81b608482015260a4016106f9565b8060106000828254611e8b919061314b565b925050819055508060136000828254611ea4919061314b565b909155505060155460ff16611ec5576015805460ff19166001179055426014555b7fbc0b9ecc68ec48681b8f5718fa26b9ce02021220455be5f5837a944140a80ea38282604051611ef69291906133b5565b60405180910390a161174960018055565b611f0f612b4f565b611f17612b25565b6000826002811115611f2b57611f2b61339f565b1480611f4857506001826002811115611f4657611f4661339f565b145b80611f6457506002826002811115611f6257611f6261339f565b145b611fa75760405162461bcd60e51b8152602060048201526014602482015273496e76616c69642066756e64696e67207479706560601b60448201526064016106f9565b60008111611ff75760405162461bcd60e51b815260206004820152601d60248201527f416d6f756e74206d7573742062652067726561746572207468616e203000000060448201526064016106f9565b600082600281111561200b5761200b61339f565b036120c05760095460ff166120325760405162461bcd60e51b81526004016106f9906130a3565b6006548111156120a35760405162461bcd60e51b815260206004820152603660248201527f496e73756666696369656e742067726f77746820746f6b656e7320696e2074686044820152756520636f6e747261637420746f20776974686472617760501b60648201526084016106f9565b80600660008282546120b59190613164565b909155506121f19050565b60018260028111156120d4576120d461339f565b0361217c57600f5460ff166120fb5760405162461bcd60e51b81526004016106f9906130a3565b600c5481111561216a5760405162461bcd60e51b815260206004820152603460248201527f496e73756666696369656e74207465616d20746f6b656e7320696e2074686520604482015273636f6e747261637420746f20776974686472617760601b60648201526084016106f9565b80600c60008282546120b59190613164565b60028260028111156121905761219061339f565b036121f15760155460ff166121b75760405162461bcd60e51b81526004016106f9906130a3565b6013548111156121d95760405162461bcd60e51b81526004016106f9906130f5565b80601360008282546121eb9190613164565b90915550505b6003546001600160a01b031663a9059cbb6122146000546001600160a01b031690565b6040516001600160e01b031960e084901b1681526001600160a01b039091166004820152602481018490526044016020604051808303816000875af1158015612261573d6000803e3d6000fd5b505050506040513d601f19601f820116820180604052508101906122859190613177565b6122d15760405162461bcd60e51b815260206004820181905260248201527f4661696c656420746f207472616e736665722067726f77746820746f6b656e7360448201526064016106f9565b7fb9db6f85cd4e97884845cfb10d7fbba4d9cd4b9516cf2795b4c50cd886875bab8282604051611ef69291906133b5565b6000546001600160a01b031633148061232557506016546001600160a01b031633145b6123415760405162461bcd60e51b81526004016106f9906133e1565b612349612b25565b60648311156123b25760405162461bcd60e51b815260206004820152602f60248201527f42617463682073697a652065786365656473206c696d69742e204d617820626160448201526e07463682073697a652069732031303608c1b60648201526084016106f9565b8281146124015760405162461bcd60e51b815260206004820152601960248201527f4172726179206c656e67746873206d757374206d617463682e0000000000000060448201526064016106f9565b60005b8381101561254e5760008585838181106124205761242061343e565b90506020020160208101906124359190612dd5565b9050600084848481811061244b5761244b61343e565b6040516307d7ebe160e51b81526001600160a01b038616600482015260209091029290920135602483018190529250309163fafd7c209150604401600060405180830381600087803b1580156124a057600080fd5b505af19250505080156124b1575060015b61253957604080513381526001600160a01b038416602082015260608183018190526024908201527f52657761726420757064617465206661696c656420666f7220746869732077616080820152631b1b195d60e21b60a082015290517f80c7a907fb61ff886445c2feb367d7b196637d154438ec7337eb57021ef5f5a19181900360c00190a15b5050808061254690613454565b915050612404565b507f52dd8a4364e3d5ae29438c85e6a1b2b92585664b55e8ddfb78d1912f9b9b07b7338585858560405161258695949392919061346d565b60405180910390a161259760018055565b50505050565b6125a5612b4f565b6001600160a01b03811661260a5760405162461bcd60e51b815260206004820152602660248201527f4f776e61626c653a206e6577206f776e657220697320746865207a65726f206160448201526564647265737360d01b60648201526084016106f9565b306001600160a01b038216036126815760405162461bcd60e51b815260206004820152603660248201527f4f776e61626c653a206e6577206f776e65722063616e6e6f74206265207468656044820152752073616d6520636f6e7472616374206164647265737360501b60648201526084016106f9565b610a0781612bd1565b6000546001600160a01b03163314806126ad57506016546001600160a01b031633145b6126c95760405162461bcd60e51b81526004016106f9906133e1565b6126d1612b25565b6001600160a01b0382166000908152601760205260409020600a015460ff6101009091041615156001146127175760405162461bcd60e51b81526004016106f990613035565b6001600160a01b0382166000908152601760205260409020600a015462010000900460ff16156127595760405162461bcd60e51b81526004016106f99061306c565b6001600160a01b0382166000908152601760205260409020600901546127839062093a809061314b565b4210156127e55760405162461bcd60e51b815260206004820152602a60248201527f546f6f20736f6f6e20746f20757064617465207265776172647320666f7220746044820152691a1a5cc81dd85b1b195d60b21b60648201526084016106f9565b6127fb60346a7c13bc4b2c133c56000000613013565b81106128835760405162461bcd60e51b815260206004820152604b60248201527f412073696e676c652077616c6c65742063616e6e6f742068617665207265776160448201527f72647320686967686572207468616e20746865207765656b6c7920776974686460648201526a1c985dd85b081b1a5b5a5d60aa1b608482015260a4016106f9565b60135481601154612894919061314b565b11156128f75760405162461bcd60e51b815260206004820152602c60248201527f496e73756666696369656e7420746f6b656e7320746f2064697374726962757460448201526b65206173207265776172647360a01b60648201526084016106f9565b6001600160a01b0382166000908152601760205260409020600a015460ff16156129be576001600160a01b0382166000908152601760205260409020546129b95760405162461bcd60e51b815260206004820152604a60248201527f5465616d2077616c6c657473206d75737420686176652061206879617820686f60448201527f6c64696e6720616d6f756e742067726561746572207468616e203020746f20676064820152696574207265776172647360b01b608482015260a4016106f9565b612aa0565b6003546040516370a0823160e01b81526001600160a01b03848116600483015260009216906370a0823190602401602060405180830381865afa158015612a09573d6000803e3d6000fd5b505050506040513d601f19601f82011682018060405250810190612a2d91906134f8565b11612aa05760405162461bcd60e51b815260206004820152603d60248201527f57616c6c6574206d7573742068617665206120687961782062616c616e63652060448201527f67726561746572207468616e203020746f20676574207265776172647300000060648201526084016106f9565b8060116000828254612ab2919061314b565b90915550506001600160a01b03821660009081526017602052604081204260098201556002018054839290612ae890849061314b565b90915550506001600160a01b03821660009081526017602052604081206003018054839290612b1890849061314b565b9091555050600180555050565b600260015403612b4857604051633ee5aeb560e01b815260040160405180910390fd5b6002600155565b6000546001600160a01b03163314610a1a5760405163118cdaa760e01b81523360048201526024016106f9565b612b84612c64565b6000805460ff60a01b191690557f5db9ee0a495bf2e6ff9c91a7834c1ba4fdd244a5e8aa4e537bd38aeae4b073aa335b6040516001600160a01b03909116815260200160405180910390a1565b600080546001600160a01b038381166001600160a01b0319831681178455604051919092169283917f8be0079c531659141344cd1fd0a4f28419497f9722a3daafe3b4186f6b6457e09190a35050565b612c29612c8e565b6000805460ff60a01b1916600160a01b1790557f62e78cea01bee320cd4e420270b5ea74000d11b0c9f74754ebdbfc544b05a258612bb43390565b600054600160a01b900460ff16610a1a57604051638dfc202b60e01b815260040160405180910390fd5b600054600160a01b900460ff1615610a1a5760405163d93c066560e01b815260040160405180910390fd5b80356001600160a01b0381168114612cd057600080fd5b919050565b8015158114610a0757600080fd5b634e487b7160e01b600052604160045260246000fd5b60008060008060808587031215612d0f57600080fd5b612d1885612cb9565b93506020850135612d2881612cd5565b9250604085013567ffffffffffffffff80821115612d4557600080fd5b818701915087601f830112612d5957600080fd5b813581811115612d6b57612d6b612ce3565b604051601f8201601f19908116603f01168101908382118183101715612d9357612d93612ce3565b816040528281528a6020848701011115612dac57600080fd5b826020860160208301376000928101602001929092525095989497509495606001359450505050565b600060208284031215612de757600080fd5b612df082612cb9565b9392505050565b6000815180845260005b81811015612e1d57602081850181015186830182015201612e01565b506000602082860101526020601f19601f83011685010191505092915050565b60006101a08f83528e60208401528d60408401528c60608401528b60808401528060a0840152612e6f8184018c612df7565b9150508860c083015260ff881660e08301528661010083015285610120830152841515610140830152831515610160830152612eb061018083018415159052565b9e9d5050505050505050505050505050565b60008060408385031215612ed557600080fd5b612ede83612cb9565b91506020830135612eee81612cd5565b809150509250929050565b60008060408385031215612f0c57600080fd5b823560038110612f1b57600080fd5b946020939093013593505050565b60008083601f840112612f3b57600080fd5b50813567ffffffffffffffff811115612f5357600080fd5b6020830191508360208260051b8501011115612f6e57600080fd5b9250929050565b60008060008060408587031215612f8b57600080fd5b843567ffffffffffffffff80821115612fa357600080fd5b612faf88838901612f29565b90965094506020870135915080821115612fc857600080fd5b50612fd587828801612f29565b95989497509550505050565b60008060408385031215612ff457600080fd5b612f1b83612cb9565b634e487b7160e01b600052601160045260246000fd5b60008261303057634e487b7160e01b600052601260045260246000fd5b500490565b60208082526019908201527f57616c6c6574206973206e6f742077686974656c697374656400000000000000604082015260600190565b6020808252601b908201527f57616c6c657420686173206265656e20626c61636b6c69737465640000000000604082015260600190565b60208082526032908201527f46756e64696e6720686173206e6f742073746172746564207965742c206e6f20604082015271746f6b656e7320746f20776974686472617760701b606082015260800190565b60208082526036908201527f496e73756666696369656e742072657761726420746f6b656e7320696e2074686040820152756520636f6e747261637420746f20776974686472617760501b606082015260800190565b8082018082111561315e5761315e612ffd565b92915050565b8181038181111561315e5761315e612ffd565b60006020828403121561318957600080fd5b8151612df081612cd5565b60208082526037908201527f46756e6374696f6e207265736572766564206f6e6c7920666f7220746865207760408201527f686974656c6973746572206f7220746865206f776e6572000000000000000000606082015260800190565b600181811c9082168061320557607f821691505b60208210810361322557634e487b7160e01b600052602260045260246000fd5b50919050565b601f82111561327557600081815260208120601f850160051c810160208610156132525750805b601f850160051c820191505b818110156132715782815560010161325e565b5050505b505050565b815167ffffffffffffffff81111561329457613294612ce3565b6132a8816132a284546131f1565b8461322b565b602080601f8311600181146132dd57600084156132c55750858301515b600019600386901b1c1916600185901b178555613271565b600085815260208120601f198616915b8281101561330c578886015182559484019460019091019084016132ed565b508582101561332a5787850151600019600388901b60f8161c191681555b5050505050600190811b01905550565b6001600160a01b03868116825285166020820152831515604082015260a06060820181905260009061336e90830185612df7565b90508260808301529695505050505050565b600060ff821660ff810361339657613396612ffd565b60010192915050565b634e487b7160e01b600052602160045260246000fd5b60408101600384106133d757634e487b7160e01b600052602160045260246000fd5b9281526020015290565b6020808252603b908201527f46756e6374696f6e207265736572766564206f6e6c7920666f7220746865207260408201527f6577617264732075706461746572206f7220746865206f776e65720000000000606082015260800190565b634e487b7160e01b600052603260045260246000fd5b60006001820161346657613466612ffd565b5060010190565b6001600160a01b03868116825260606020808401829052908301869052600091879160808501845b898110156134ba57836134a786612cb9565b1682529382019390820190600101613495565b5085810360408701528681526001600160fb1b038711156134da57600080fd5b8660051b935083888383013790920190910198975050505050505050565b60006020828403121561350a57600080fd5b505191905056fea2646970667358221220abc4f1f81a8ca603e8488a46aea9b3de56964b3aef5a62be93c4edd4ec04fcec64736f6c63430008140033",
  "linkReferences": {},
  "deployedLinkReferences": {}
}