{
  "_format": "hh-sol-artifact-1",
  "contractName": "UpgradeableHYAXRewards",
  "sourceName": "contracts/UpgradeableHYAXRewards.sol",
  "abi": [
    {
      "inputs": [
        {
          "internalType": "address",
          "name": "_hyaxTokenAddress",
          "type": "address"
        }
      ],
      "stateMutability": "nonpayable",
      "type": "constructor"
    },
    {
      "inputs": [],
      "name": "EnforcedPause",
      "type": "error"
    },
    {
      "inputs": [],
      "name": "ExpectedPause",
      "type": "error"
    },
    {
      "inputs": [
        {
          "internalType": "address",
          "name": "owner",
          "type": "address"
        }
      ],
      "name": "OwnableInvalidOwner",
      "type": "error"
    },
    {
      "inputs": [
        {
          "internalType": "address",
          "name": "account",
          "type": "address"
        }
      ],
      "name": "OwnableUnauthorizedAccount",
      "type": "error"
    },
    {
      "inputs": [],
      "name": "ReentrancyGuardReentrantCall",
      "type": "error"
    },
    {
      "anonymous": false,
      "inputs": [
        {
          "indexed": false,
          "internalType": "address",
          "name": "_sender",
          "type": "address"
        },
        {
          "indexed": false,
          "internalType": "address",
          "name": "_walletAddress",
          "type": "address"
        },
        {
          "indexed": false,
          "internalType": "bool",
          "name": "_newStatus",
          "type": "bool"
        }
      ],
      "name": "BlacklistStatusUpdated",
      "type": "event"
    },
    {
      "anonymous": false,
      "inputs": [
        {
          "indexed": false,
          "internalType": "enum UpgradeableHYAXRewards.FundingType",
          "name": "_fundingType",
          "type": "uint8"
        },
        {
          "indexed": false,
          "internalType": "uint256",
          "name": "_amount",
          "type": "uint256"
        }
      ],
      "name": "FundingAdded",
      "type": "event"
    },
    {
      "anonymous": false,
      "inputs": [
        {
          "indexed": false,
          "internalType": "address",
          "name": "_walletAddress",
          "type": "address"
        },
        {
          "indexed": false,
          "internalType": "uint256",
          "name": "_amount",
          "type": "uint256"
        }
      ],
      "name": "GrowthTokensWithdrawn",
      "type": "event"
    },
    {
      "anonymous": false,
      "inputs": [
        {
          "indexed": false,
          "internalType": "address",
          "name": "_sender",
          "type": "address"
        },
        {
          "indexed": false,
          "internalType": "address",
          "name": "_origin",
          "type": "address"
        }
      ],
      "name": "LogSenderAndOrigin",
      "type": "event"
    },
    {
      "anonymous": false,
      "inputs": [
        {
          "indexed": true,
          "internalType": "address",
          "name": "previousOwner",
          "type": "address"
        },
        {
          "indexed": true,
          "internalType": "address",
          "name": "newOwner",
          "type": "address"
        }
      ],
      "name": "OwnershipTransferred",
      "type": "event"
    },
    {
      "anonymous": false,
      "inputs": [
        {
          "indexed": false,
          "internalType": "address",
          "name": "account",
          "type": "address"
        }
      ],
      "name": "Paused",
      "type": "event"
    },
    {
      "anonymous": false,
      "inputs": [
        {
          "indexed": false,
          "internalType": "address",
          "name": "_walletAddress",
          "type": "address"
        },
        {
          "indexed": false,
          "internalType": "uint256",
          "name": "_amount",
          "type": "uint256"
        }
      ],
      "name": "RewardTokensWithdrawn",
      "type": "event"
    },
    {
      "anonymous": false,
      "inputs": [
        {
          "indexed": false,
          "internalType": "address",
          "name": "_sender",
          "type": "address"
        },
        {
          "indexed": false,
          "internalType": "address",
          "name": "_walletAddress",
          "type": "address"
        },
        {
          "indexed": false,
          "internalType": "string",
          "name": "_errorMessage",
          "type": "string"
        }
      ],
      "name": "RewardUpdateFailed",
      "type": "event"
    },
    {
      "anonymous": false,
      "inputs": [
        {
          "indexed": false,
          "internalType": "address",
          "name": "_sender",
          "type": "address"
        },
        {
          "indexed": false,
          "internalType": "address",
          "name": "_walletAddress",
          "type": "address"
        },
        {
          "indexed": false,
          "internalType": "uint256",
          "name": "_hyaxReward",
          "type": "uint256"
        }
      ],
      "name": "RewardUpdateSuccess",
      "type": "event"
    },
    {
      "anonymous": false,
      "inputs": [
        {
          "indexed": false,
          "internalType": "address",
          "name": "_oldTeamMemberWalletAddress",
          "type": "address"
        },
        {
          "indexed": false,
          "internalType": "address",
          "name": "_newTeamMemberWalletAddress",
          "type": "address"
        }
      ],
      "name": "TeamMemberTokensRecovered",
      "type": "event"
    },
    {
      "anonymous": false,
      "inputs": [
        {
          "indexed": false,
          "internalType": "address",
          "name": "_walletAddress",
          "type": "address"
        },
        {
          "indexed": false,
          "internalType": "uint256",
          "name": "_amount",
          "type": "uint256"
        }
      ],
      "name": "TeamTokensWithdrawn",
      "type": "event"
    },
    {
      "anonymous": false,
      "inputs": [
        {
          "indexed": false,
          "internalType": "enum UpgradeableHYAXRewards.FundingType",
          "name": "_fundingType",
          "type": "uint8"
        },
        {
          "indexed": false,
          "internalType": "uint256",
          "name": "_amount",
          "type": "uint256"
        }
      ],
      "name": "TokensToBurnWithdrawn",
      "type": "event"
    },
    {
      "anonymous": false,
      "inputs": [
        {
          "indexed": false,
          "internalType": "address",
          "name": "account",
          "type": "address"
        }
      ],
      "name": "Unpaused",
      "type": "event"
    },
    {
      "anonymous": false,
      "inputs": [
        {
          "indexed": false,
          "internalType": "address",
          "name": "_sender",
          "type": "address"
        },
        {
          "indexed": false,
          "internalType": "address",
          "name": "_walletAddress",
          "type": "address"
        },
        {
          "indexed": false,
          "internalType": "bool",
          "name": "_isTeamWallet",
          "type": "bool"
        },
        {
          "indexed": false,
          "internalType": "uint256",
          "name": "_hyaxHoldingAmount",
          "type": "uint256"
        }
      ],
      "name": "WalletAddedToWhitelist",
      "type": "event"
    },
    {
      "anonymous": false,
      "inputs": [
        {
          "indexed": false,
          "internalType": "address",
          "name": "_sender",
          "type": "address"
        },
        {
          "indexed": false,
          "internalType": "address",
          "name": "_walletAddress",
          "type": "address"
        },
        {
          "indexed": false,
          "internalType": "bool",
          "name": "_newStatus",
          "type": "bool"
        }
      ],
      "name": "WhitelistStatusUpdated",
      "type": "event"
    },
    {
      "inputs": [],
      "name": "GROWTH_TOKENS_TOTAL",
      "outputs": [
        {
          "internalType": "uint256",
          "name": "",
          "type": "uint256"
        }
      ],
      "stateMutability": "view",
      "type": "function"
    },
    {
      "inputs": [],
      "name": "GROWTH_TOKENS_WITHDRAWAL_PER_YEAR",
      "outputs": [
        {
          "internalType": "uint256",
          "name": "",
          "type": "uint256"
        }
      ],
      "stateMutability": "view",
      "type": "function"
    },
    {
      "inputs": [],
      "name": "MIN_INTERVAL_FOR_UPDATE_REWARDS",
      "outputs": [
        {
          "internalType": "uint256",
          "name": "",
          "type": "uint256"
        }
      ],
      "stateMutability": "view",
      "type": "function"
    },
    {
      "inputs": [],
      "name": "REWARD_TOKENS_HOLDING_PERIOD",
      "outputs": [
        {
          "internalType": "uint256",
          "name": "",
          "type": "uint256"
        }
      ],
      "stateMutability": "view",
      "type": "function"
    },
    {
      "inputs": [],
      "name": "REWARD_TOKENS_PER_WEEK",
      "outputs": [
        {
          "internalType": "uint256",
          "name": "",
          "type": "uint256"
        }
      ],
      "stateMutability": "view",
      "type": "function"
    },
    {
      "inputs": [],
      "name": "REWARD_TOKENS_PER_YEAR",
      "outputs": [
        {
          "internalType": "uint256",
          "name": "",
          "type": "uint256"
        }
      ],
      "stateMutability": "view",
      "type": "function"
    },
    {
      "inputs": [],
      "name": "REWARD_TOKENS_TOTAL",
      "outputs": [
        {
          "internalType": "uint256",
          "name": "",
          "type": "uint256"
        }
      ],
      "stateMutability": "view",
      "type": "function"
    },
    {
      "inputs": [],
      "name": "TEAM_TOKENS_LOCKED_PERIOD",
      "outputs": [
        {
          "internalType": "uint256",
          "name": "",
          "type": "uint256"
        }
      ],
      "stateMutability": "view",
      "type": "function"
    },
    {
      "inputs": [],
      "name": "TEAM_TOKENS_TOTAL",
      "outputs": [
        {
          "internalType": "uint256",
          "name": "",
          "type": "uint256"
        }
      ],
      "stateMutability": "view",
      "type": "function"
    },
    {
      "inputs": [],
      "name": "TEAM_TOKENS_WITHDRAWAL_PER_YEAR",
      "outputs": [
        {
          "internalType": "uint256",
          "name": "",
          "type": "uint256"
        }
      ],
      "stateMutability": "view",
      "type": "function"
    },
    {
      "inputs": [],
      "name": "TOKENS_WITHDRAWAL_PERIOD",
      "outputs": [
        {
          "internalType": "uint256",
          "name": "",
          "type": "uint256"
        }
      ],
      "stateMutability": "view",
      "type": "function"
    },
    {
      "inputs": [
        {
          "internalType": "address",
          "name": "_walletAddress",
          "type": "address"
        },
        {
          "internalType": "bool",
          "name": "_isTeamWallet",
          "type": "bool"
        },
        {
          "internalType": "uint256",
          "name": "_hyaxHoldingAmountAtWhitelistTime",
          "type": "uint256"
        }
      ],
      "name": "addWalletToWhitelist",
      "outputs": [],
      "stateMutability": "nonpayable",
      "type": "function"
    },
    {
      "inputs": [],
      "name": "calculateYearForTeamTokens",
      "outputs": [
        {
          "internalType": "uint8",
          "name": "",
          "type": "uint8"
        }
      ],
      "stateMutability": "view",
      "type": "function"
    },
    {
      "inputs": [
        {
          "internalType": "enum UpgradeableHYAXRewards.FundingType",
          "name": "_fundingType",
          "type": "uint8"
        },
        {
          "internalType": "uint256",
          "name": "_amount",
          "type": "uint256"
        }
      ],
      "name": "fundSmartContract",
      "outputs": [],
      "stateMutability": "nonpayable",
      "type": "function"
    },
    {
      "inputs": [],
      "name": "growthTokensFunded",
      "outputs": [
        {
          "internalType": "uint256",
          "name": "",
          "type": "uint256"
        }
      ],
      "stateMutability": "view",
      "type": "function"
    },
    {
      "inputs": [],
      "name": "growthTokensFundingStarted",
      "outputs": [
        {
          "internalType": "bool",
          "name": "",
          "type": "bool"
        }
      ],
      "stateMutability": "view",
      "type": "function"
    },
    {
      "inputs": [],
      "name": "growthTokensInSmartContract",
      "outputs": [
        {
          "internalType": "uint256",
          "name": "",
          "type": "uint256"
        }
      ],
      "stateMutability": "view",
      "type": "function"
    },
    {
      "inputs": [],
      "name": "growthTokensLastWithdrawalTime",
      "outputs": [
        {
          "internalType": "uint256",
          "name": "",
          "type": "uint256"
        }
      ],
      "stateMutability": "view",
      "type": "function"
    },
    {
      "inputs": [],
      "name": "growthTokensStartFundingTime",
      "outputs": [
        {
          "internalType": "uint256",
          "name": "",
          "type": "uint256"
        }
      ],
      "stateMutability": "view",
      "type": "function"
    },
    {
      "inputs": [],
      "name": "growthTokensWithdrawn",
      "outputs": [
        {
          "internalType": "uint256",
          "name": "",
          "type": "uint256"
        }
      ],
      "stateMutability": "view",
      "type": "function"
    },
    {
      "inputs": [],
      "name": "hyaxToken",
      "outputs": [
        {
          "internalType": "contract ERC20TokenInterface",
          "name": "",
          "type": "address"
        }
      ],
      "stateMutability": "view",
      "type": "function"
    },
    {
      "inputs": [],
      "name": "hyaxTokenAddress",
      "outputs": [
        {
          "internalType": "address",
          "name": "",
          "type": "address"
        }
      ],
      "stateMutability": "view",
      "type": "function"
    },
    {
      "inputs": [],
      "name": "maximumBatchSizeForUpdateRewards",
      "outputs": [
        {
          "internalType": "uint8",
          "name": "",
          "type": "uint8"
        }
      ],
      "stateMutability": "view",
      "type": "function"
    },
    {
      "inputs": [],
      "name": "owner",
      "outputs": [
        {
          "internalType": "address",
          "name": "",
          "type": "address"
        }
      ],
      "stateMutability": "view",
      "type": "function"
    },
    {
      "inputs": [],
      "name": "pause",
      "outputs": [],
      "stateMutability": "nonpayable",
      "type": "function"
    },
    {
      "inputs": [],
      "name": "paused",
      "outputs": [
        {
          "internalType": "bool",
          "name": "",
          "type": "bool"
        }
      ],
      "stateMutability": "view",
      "type": "function"
    },
    {
      "inputs": [
        {
          "internalType": "address",
          "name": "_oldTeamMemberWalletAddress",
          "type": "address"
        },
        {
          "internalType": "address",
          "name": "_newTeamMemberWalletAddress",
          "type": "address"
        }
      ],
      "name": "recoverTeamTokens",
      "outputs": [],
      "stateMutability": "nonpayable",
      "type": "function"
    },
    {
      "inputs": [],
      "name": "renounceOwnership",
      "outputs": [],
      "stateMutability": "nonpayable",
      "type": "function"
    },
    {
      "inputs": [],
      "name": "rewardTokensDistributed",
      "outputs": [
        {
          "internalType": "uint256",
          "name": "",
          "type": "uint256"
        }
      ],
      "stateMutability": "view",
      "type": "function"
    },
    {
      "inputs": [],
      "name": "rewardTokensFunded",
      "outputs": [
        {
          "internalType": "uint256",
          "name": "",
          "type": "uint256"
        }
      ],
      "stateMutability": "view",
      "type": "function"
    },
    {
      "inputs": [],
      "name": "rewardTokensFundingStarted",
      "outputs": [
        {
          "internalType": "bool",
          "name": "",
          "type": "bool"
        }
      ],
      "stateMutability": "view",
      "type": "function"
    },
    {
      "inputs": [],
      "name": "rewardTokensInSmartContract",
      "outputs": [
        {
          "internalType": "uint256",
          "name": "",
          "type": "uint256"
        }
      ],
      "stateMutability": "view",
      "type": "function"
    },
    {
      "inputs": [],
      "name": "rewardTokensStartFundingTime",
      "outputs": [
        {
          "internalType": "uint256",
          "name": "",
          "type": "uint256"
        }
      ],
      "stateMutability": "view",
      "type": "function"
    },
    {
      "inputs": [],
      "name": "rewardTokensWithdrawn",
      "outputs": [
        {
          "internalType": "uint256",
          "name": "",
          "type": "uint256"
        }
      ],
      "stateMutability": "view",
      "type": "function"
    },
    {
      "inputs": [],
      "name": "rewardsUpdaterAddress",
      "outputs": [
        {
          "internalType": "address",
          "name": "",
          "type": "address"
        }
      ],
      "stateMutability": "view",
      "type": "function"
    },
    {
      "inputs": [],
      "name": "teamTokensFunded",
      "outputs": [
        {
          "internalType": "uint256",
          "name": "",
          "type": "uint256"
        }
      ],
      "stateMutability": "view",
      "type": "function"
    },
    {
      "inputs": [],
      "name": "teamTokensFundingStarted",
      "outputs": [
        {
          "internalType": "bool",
          "name": "",
          "type": "bool"
        }
      ],
      "stateMutability": "view",
      "type": "function"
    },
    {
      "inputs": [],
      "name": "teamTokensInSmartContract",
      "outputs": [
        {
          "internalType": "uint256",
          "name": "",
          "type": "uint256"
        }
      ],
      "stateMutability": "view",
      "type": "function"
    },
    {
      "inputs": [],
      "name": "teamTokensLastWithdrawalTime",
      "outputs": [
        {
          "internalType": "uint256",
          "name": "",
          "type": "uint256"
        }
      ],
      "stateMutability": "view",
      "type": "function"
    },
    {
      "inputs": [],
      "name": "teamTokensStartFundingTime",
      "outputs": [
        {
          "internalType": "uint256",
          "name": "",
          "type": "uint256"
        }
      ],
      "stateMutability": "view",
      "type": "function"
    },
    {
      "inputs": [],
      "name": "teamTokensWithdrawn",
      "outputs": [
        {
          "internalType": "uint256",
          "name": "",
          "type": "uint256"
        }
      ],
      "stateMutability": "view",
      "type": "function"
    },
    {
      "inputs": [
        {
          "internalType": "address",
          "name": "newOwner",
          "type": "address"
        }
      ],
      "name": "transferOwnership",
      "outputs": [],
      "stateMutability": "nonpayable",
      "type": "function"
    },
    {
      "inputs": [],
      "name": "unpause",
      "outputs": [],
      "stateMutability": "nonpayable",
      "type": "function"
    },
    {
      "inputs": [
        {
          "internalType": "address",
          "name": "_walletAddress",
          "type": "address"
        },
        {
          "internalType": "bool",
          "name": "_newStatus",
          "type": "bool"
        }
      ],
      "name": "updateBlacklistStatus",
      "outputs": [],
      "stateMutability": "nonpayable",
      "type": "function"
    },
    {
      "inputs": [
        {
          "internalType": "address",
          "name": "_hyaxTokenAddress",
          "type": "address"
        }
      ],
      "name": "updateHyaxTokenAddress",
      "outputs": [],
      "stateMutability": "nonpayable",
      "type": "function"
    },
    {
      "inputs": [
        {
          "internalType": "uint8",
          "name": "_maximumBatchSizeForUpdateRewards",
          "type": "uint8"
        }
      ],
      "name": "updateMaximumBatchSizeForUpdateRewards",
      "outputs": [],
      "stateMutability": "nonpayable",
      "type": "function"
    },
    {
      "inputs": [
        {
          "internalType": "address[]",
          "name": "_walletAddresses",
          "type": "address[]"
        },
        {
          "internalType": "uint256[]",
          "name": "_hyaxRewards",
          "type": "uint256[]"
        }
      ],
      "name": "updateRewardsBatch",
      "outputs": [],
      "stateMutability": "nonpayable",
      "type": "function"
    },
    {
      "inputs": [
        {
          "internalType": "address",
          "name": "_walletAddress",
          "type": "address"
        },
        {
          "internalType": "uint256",
          "name": "_hyaxRewards",
          "type": "uint256"
        }
      ],
      "name": "updateRewardsSingle",
      "outputs": [],
      "stateMutability": "nonpayable",
      "type": "function"
    },
    {
      "inputs": [
        {
          "internalType": "address",
          "name": "_rewardsUpdaterAddress",
          "type": "address"
        }
      ],
      "name": "updateRewardsUpdaterAddress",
      "outputs": [],
      "stateMutability": "nonpayable",
      "type": "function"
    },
    {
      "inputs": [
        {
          "internalType": "address",
          "name": "_whiteListerAddress",
          "type": "address"
        }
      ],
      "name": "updateWhiteListerAddress",
      "outputs": [],
      "stateMutability": "nonpayable",
      "type": "function"
    },
    {
      "inputs": [
        {
          "internalType": "address",
          "name": "_walletAddress",
          "type": "address"
        },
        {
          "internalType": "bool",
          "name": "_newStatus",
          "type": "bool"
        }
      ],
      "name": "updateWhitelistStatus",
      "outputs": [],
      "stateMutability": "nonpayable",
      "type": "function"
    },
    {
      "inputs": [
        {
          "internalType": "address",
          "name": "",
          "type": "address"
        }
      ],
      "name": "wallets",
      "outputs": [
        {
          "internalType": "uint256",
          "name": "hyaxHoldingAmount",
          "type": "uint256"
        },
        {
          "internalType": "uint256",
          "name": "hyaxHoldingAmountAtWhitelistTime",
          "type": "uint256"
        },
        {
          "internalType": "uint256",
          "name": "totalHyaxRewardsAmount",
          "type": "uint256"
        },
        {
          "internalType": "uint256",
          "name": "currentRewardsAmount",
          "type": "uint256"
        },
        {
          "internalType": "uint256",
          "name": "rewardsWithdrawn",
          "type": "uint256"
        },
        {
          "internalType": "uint256",
          "name": "addedToWhitelistTime",
          "type": "uint256"
        },
        {
          "internalType": "uint8",
          "name": "tokenWithdrawalTimes",
          "type": "uint8"
        },
        {
          "internalType": "uint256",
          "name": "lastRewardsWithdrawalTime",
          "type": "uint256"
        },
        {
          "internalType": "uint256",
          "name": "lastRewardsUpdateTime",
          "type": "uint256"
        },
        {
          "internalType": "bool",
          "name": "isTeamWallet",
          "type": "bool"
        },
        {
          "internalType": "bool",
          "name": "isWhitelisted",
          "type": "bool"
        },
        {
          "internalType": "bool",
          "name": "isBlacklisted",
          "type": "bool"
        }
      ],
      "stateMutability": "view",
      "type": "function"
    },
    {
      "inputs": [],
      "name": "whiteListerAddress",
      "outputs": [
        {
          "internalType": "address",
          "name": "",
          "type": "address"
        }
      ],
      "stateMutability": "view",
      "type": "function"
    },
    {
      "inputs": [],
      "name": "withdrawGrowthTokens",
      "outputs": [],
      "stateMutability": "nonpayable",
      "type": "function"
    },
    {
      "inputs": [],
      "name": "withdrawRewardTokens",
      "outputs": [],
      "stateMutability": "nonpayable",
      "type": "function"
    },
    {
      "inputs": [],
      "name": "withdrawTeamTokens",
      "outputs": [],
      "stateMutability": "nonpayable",
      "type": "function"
    },
    {
      "inputs": [
        {
          "internalType": "enum UpgradeableHYAXRewards.FundingType",
          "name": "_fundingType",
          "type": "uint8"
        },
        {
          "internalType": "uint256",
          "name": "_amount",
          "type": "uint256"
        }
      ],
      "name": "withdrawTokensToBurn",
      "outputs": [],
      "stateMutability": "nonpayable",
      "type": "function"
    }
  ],
  "bytecode": "0x60806040526016805460ff60a01b1916601960a21b1790553480156200002457600080fd5b50604051620042143803806200421483398101604081905262000047916200021f565b33806200006f57604051631e4fbdf760e01b8152600060048201526024015b60405180910390fd5b6200007a81620001cf565b506000805460ff60a01b1916815560018055600280546001600160a01b0384166001600160a01b0319918216811790925560038054909116821790556040805163090b282b60e31b6020808301919091528251808303600401815260248301808552815191909201206395d89b4160e01b909152915191936395d89b41926028808401938290030181865afa15801562000118573d6000803e3d6000fd5b505050506040513d6000823e601f3d908101601f191682016040526200014291908101906200028d565b60405160200162000154919062000345565b6040516020818303038152906040528051906020012014620001b95760405162461bcd60e51b815260206004820152601f60248201527f4879617820746f6b656e2061646472657373206973206e6f742076616c696400604482015260640162000066565b5060006004819055600a81905560105562000363565b600080546001600160a01b038381166001600160a01b0319831681178455604051919092169283917f8be0079c531659141344cd1fd0a4f28419497f9722a3daafe3b4186f6b6457e09190a35050565b6000602082840312156200023257600080fd5b81516001600160a01b03811681146200024a57600080fd5b9392505050565b634e487b7160e01b600052604160045260246000fd5b60005b83811015620002845781810151838201526020016200026a565b50506000910152565b600060208284031215620002a057600080fd5b81516001600160401b0380821115620002b857600080fd5b818401915084601f830112620002cd57600080fd5b815181811115620002e257620002e262000251565b604051601f8201601f19908116603f011681019083821181831017156200030d576200030d62000251565b816040528281528760208487010111156200032757600080fd5b6200033a83602083016020880162000267565b979650505050505050565b600082516200035981846020870162000267565b9190910192915050565b613ea180620003736000396000f3fe608060405234801561001057600080fd5b50600436106103835760003560e01c80638bb4dadd116101de578063d7e57fda1161010f578063ef04fadb116100ad578063f8ff46c61161007c578063f8ff46c61461077a578063f972c02714610783578063fafd7c2014610796578063fd559526146107a957600080fd5b8063ef04fadb14610734578063efce558714610747578063f2fde38b1461075a578063f3793b9d1461076d57600080fd5b8063e2ccbfe4116100e9578063e2ccbfe414610701578063e3682a5d14610714578063e774ce431461071e578063ebc8e2dd1461072757600080fd5b8063d7e57fda146106db578063dcb7ff6b146106e4578063de51d567146106ef57600080fd5b8063a868e9971161017c578063c07732a311610156578063c07732a31461069f578063c1cc52b3146106b2578063d356b49a146106bf578063d3946a8c146106c857600080fd5b8063a868e99714610665578063b4ba9fd714610678578063b83608061461068c57600080fd5b80638e6d32df116101b85780638e6d32df1461062f578063953b7ef8146106415780639656cd8c146106495780639bae90021461065257600080fd5b80638bb4dadd146105fb5780638da2e27f146106155780638da5cb5b1461061e57600080fd5b80635d70203b116102b85780636fce78731161025657806381f8ca1b1161023057806381f8ca1b146104f45780638456cb591461050757806389b08f111461050f5780638a194d04146105e857600080fd5b80636fce7873146104d0578063715018a6146104e35780637426a42a146104eb57600080fd5b8063653c3a4711610292578063653c3a471461049357806365699d28146104a6578063687a83f8146104be5780636e3ce4e1146104c757600080fd5b80635d70203b146104785780636148c78314610481578063647a5a781461048a57600080fd5b80633ba10a56116103255780634c4dc42e116102ff5780634c4dc42e146104345780635493b30d1461043c57806359aa89661461044f5780635c975abb1461045a57600080fd5b80633ba10a56146104115780633f4ba83a1461042457806342ecb4641461042c57600080fd5b80632558df21116103615780632558df21146103e15780632574cd9d146103eb578063334c4cb314610400578063370243dc1461040957600080fd5b8063031f6589146103885780631035fc09146103b85780631e6b4028146103cf575b600080fd5b60025461039b906001600160a01b031681565b6040516001600160a01b0390911681526020015b60405180910390f35b6103c1600e5481565b6040519081526020016103af565b6103c16a6342fd08f00f637800000081565b6103c162093a8081565b6103fe6103f93660046136ac565b6107b2565b005b6103c160125481565b6103fe61089c565b60035461039b906001600160a01b031681565b6103fe610c0b565b6103c1610c1d565b6103fe610c36565b6103c16b04d8c55aefb8c05b5c00000081565b6103c16301e1338081565b600054600160a01b900460ff165b60405190151581526020016103af565b6103c160045481565b6103c160055481565b6103c1600c5481565b6103fe6104a13660046136f2565b610f7b565b60155461039b9061010090046001600160a01b031681565b6103c160075481565b6103c160145481565b6103fe6104de3660046136f2565b611019565b6103fe6110b4565b6103c1600d5481565b6103c16b03e09de2596099e2b000000081565b6103fe6110c6565b61058661051d3660046136f2565b601760205260009081526040902080546001820154600283015460038401546004850154600586015460068701546007880154600889015460099099015497989697959694959394929360ff92831693919281811691610100810482169162010000909104168c565b604080519c8d5260208d019b909b52998b019890985260608a0196909652608089019490945260a088019290925260ff1660c087015260e0860152610100850152151561012084015215156101408301521515610160820152610180016103af565b6103fe6105f636600461371b565b6110d6565b61060361149b565b60405160ff90911681526020016103af565b6103c160135481565b6000546001600160a01b031661039b565b6103c16af8277896582678ac00000081565b6103fe611579565b6103c160085481565b6103fe6106603660046136f2565b611abe565b6103c16b07c13bc4b2c133c56000000081565b60165461060390600160a01b900460ff1681565b6103fe61069a36600461375a565b611c7c565b6103fe6106ad36600461375a565b611dab565b600f546104689060ff1681565b6103c160065481565b6103fe6106d6366004613791565b611ecf565b6103c1600b5481565b6103c1630784ce0081565b6103c16a7c13bc4b2c133c5600000081565b6103fe61070f366004613791565b612418565b6103c16207e90081565b6103c160115481565b6015546104689060ff1681565b6103fe6107423660046137c1565b61283d565b6103fe610755366004613840565b612e52565b6103fe6107683660046136f2565b6130ea565b6009546104689060ff1681565b6103c1600a5481565b60165461039b906001600160a01b031681565b6103fe6107a43660046138ac565b6131d7565b6103c160105481565b6107ba613518565b60008160ff16116108125760405162461bcd60e51b815260206004820152601e60248201527f4d6178696d756d2062617463682073697a652063616e6e6f742062652030000060448201526064015b60405180910390fd5b60648160ff16111561087c5760405162461bcd60e51b815260206004820152602d60248201527f4d6178696d756d2062617463682073697a652063616e6e6f742062652067726560448201526c061746572207468616e2031303609c1b6064820152608401610809565b6016805460ff909216600160a01b0260ff60a01b19909216919091179055565b3360008181526017602052604090206009015460ff6101009091041615156001146108d95760405162461bcd60e51b8152600401610809906138c8565b6108e1613545565b600054600160a01b900460ff161561090b5760405162461bcd60e51b8152600401610809906138ff565b3360009081526017602052604090206009015460ff6101009091041615156001146109485760405162461bcd60e51b8152600401610809906138c8565b3360009081526017602052604090206009015462010000900460ff16156109815760405162461bcd60e51b81526004016108099061392b565b60155460ff166109a35760405162461bcd60e51b815260040161080990613962565b6b03e09de2596099e2b000000060125410610a0e5760405162461bcd60e51b815260206004820152602560248201527f416c6c2072657761726420746f6b656e732068617665206265656e2077697468604482015264323930bbb760d91b6064820152608401610809565b3360009081526017602052604090206003015480610a6e5760405162461bcd60e51b815260206004820181905260248201527f4e6f207265776172647320617661696c61626c6520746f2077697468647261776044820152606401610809565b601354811115610a905760405162461bcd60e51b8152600401610809906139b4565b3360009081526017602052604081206004018054839290610ab2908490613a20565b9091555050336000908152601760205260408120600381018290554260079091015560138054839290610ae6908490613a39565b925050819055508060126000828254610aff9190613a20565b909155505060035460405163a9059cbb60e01b8152336004820152602481018390526001600160a01b039091169063a9059cbb906044016020604051808303816000875af1158015610b55573d6000803e3d6000fd5b505050506040513d601f19601f82011682018060405250810190610b799190613a4c565b610bc55760405162461bcd60e51b815260206004820181905260248201527f4661696c656420746f207472616e736665722072657761726420746f6b656e736044820152606401610809565b60408051338152602081018390527fd8a9090919355543d8c79690ceee3933c0bd4ffc742ae7f790d4bf44a043bb6c910160405180910390a150610c0860018055565b50565b610c13613518565b610c1b61356f565b565b610c3360346a7c13bc4b2c133c56000000613a69565b81565b610c3e613518565b610c46613545565b600054600160a01b900460ff1615610c705760405162461bcd60e51b8152600401610809906138ff565b60095460ff16610c925760405162461bcd60e51b815260040161080990613962565b6301e13380600854610ca49190613a20565b421015610d0d5760405162461bcd60e51b815260206004820152603160248201527f43616e6e6f74207769746864726177206265666f7265203120796561722061666044820152701d195c88199d5b991a5b99c81cdd185c9d607a1b6064820152608401610809565b6b07c13bc4b2c133c56000000060055410610d785760405162461bcd60e51b815260206004820152602560248201527f416c6c2067726f77746820746f6b656e732068617665206265656e2077697468604482015264323930bbb760d91b6064820152608401610809565b6301e13380600754610d8a9190613a20565b421015610dd95760405162461bcd60e51b815260206004820152601f60248201527f43616e206f6e6c79207769746864726177206f6e6365207065722079656172006044820152606401610809565b6005546a6342fd08f00f6378000000906b07c13bc4b2c133c56000000090610e02908390613a20565b1115610e2457600554610e21906b07c13bc4b2c133c560000000613a39565b90505b8060056000828254610e369190613a20565b925050819055508060066000828254610e4f9190613a39565b9091555050426007556003546001600160a01b031663a9059cbb610e7b6000546001600160a01b031690565b6040516001600160e01b031960e084901b1681526001600160a01b039091166004820152602481018490526044016020604051808303816000875af1158015610ec8573d6000803e3d6000fd5b505050506040513d601f19601f82011682018060405250810190610eec9190613a4c565b610f385760405162461bcd60e51b815260206004820181905260248201527f4661696c656420746f207472616e736665722067726f77746820746f6b656e736044820152606401610809565b60408051338152602081018390527fd0a5227bfa49cf178a8f7a87b90318ef05fc8330f469e0dccbe075784f426dbf910160405180910390a150610c1b60018055565b610f83613518565b6001600160a01b038116610ff15760405162461bcd60e51b815260206004820152602f60248201527f5768697465206c697374657220616464726573732063616e6e6f74206265207460448201526e6865207a65726f206164647265737360881b6064820152608401610809565b601580546001600160a01b0390921661010002610100600160a81b0319909216919091179055565b611021613518565b6001600160a01b0381166110925760405162461bcd60e51b815260206004820152603260248201527f52657761726473207570646174657220616464726573732063616e6e6f7420626044820152716520746865207a65726f206164647265737360701b6064820152608401610809565b601680546001600160a01b0319166001600160a01b0392909216919091179055565b6110bc613518565b610c1b60006135c4565b6110ce613518565b610c1b613614565b6000546001600160a01b03163314806110fe575060155461010090046001600160a01b031633145b61111a5760405162461bcd60e51b815260040161080990613a8b565b60408051338152326020820152600080516020613e4c833981519152910160405180910390a16001600160a01b038316600090815260176020526040902060090154610100900460ff16156111b15760405162461bcd60e51b815260206004820152601d60248201527f57616c6c657420697320616c72656164792077686974656c69737465640000006044820152606401610809565b6001600160a01b03831660009081526017602052604090206009015462010000900460ff16156111f35760405162461bcd60e51b81526004016108099061392b565b6001600160a01b03831660009081526017602052604081206009810180548515801562ffffff19909216919091176101001790915542600583015560068201805460ff191690556007820183905560038201839055600282018390556004909101919091556113a757600081116112e05760405162461bcd60e51b8152602060048201526044602482018190527f5465616d2077616c6c657473206d757374206265206164646564207769746820908201527f61206879617820686f6c64696e6720616d6f756e7420677265617465722074686064820152630616e20360e41b608482015260a401610809565b6b04d8c55aefb8c05b5c0000008111156113805760405162461bcd60e51b815260206004820152605560248201527f5465616d2077616c6c657473206d75737420626520616464656420776974682060448201527f61206879617820686f6c64696e6720616d6f756e74206c657373207468616e2060648201527474686520746f74616c207465616d20746f6b656e7360581b608482015260a401610809565b6001600160a01b038316600090815260176020526040902060018101829055819055611446565b80156114255760405162461bcd60e51b815260206004820152604160248201527f4e6f6e207465616d2077616c6c6574732063616e206f6e6c792062652061646460448201527f6564207769746820686f6c64696e6720616d6f756e7420657175616c20746f206064820152600360fc1b608482015260a401610809565b6001600160a01b038316600090815260176020526040812060018101829055555b604080513381526001600160a01b0385166020820152831515818301526060810183905290517fc294e522ba20b0699fe578649971cefdfdc8d0e330db37d0437849f38b3960e69181900360800190a1505050565b600f5460009060ff166115005760405162461bcd60e51b815260206004820152602760248201527f5465616d20746f6b656e732066756e64696e6720686173206e6f7420737461726044820152661d1959081e595d60ca1b6064820152608401610809565b6000600e54426115109190613a39565b9050630f099c00811061152557600591505090565b630d286880811061153857600491505090565b630b473500811061154b57600391505090565b6309660180811061155e57600291505090565b630784ce00811061157157600191505090565b600091505090565b3360008181526017602052604090206009015460ff6101009091041615156001146115b65760405162461bcd60e51b8152600401610809906138c8565b3360008181526017602052604090206009015462010000900460ff16156115ef5760405162461bcd60e51b81526004016108099061392b565b6115f7613545565b600054600160a01b900460ff16156116215760405162461bcd60e51b8152600401610809906138ff565b3360009081526017602052604090206009015460ff1615156001146116ae5760405162461bcd60e51b815260206004820152603960248201527f4f6e6c79207465616d2077616c6c6574732063616e207769746864726177207460448201527f6f6b656e73207573696e6720746869732066756e6374696f6e000000000000006064820152608401610809565b600f5460ff166116d05760405162461bcd60e51b815260040161080990613962565b336000908152601760205260409020600501546116f290630784ce0090613a20565b4210156117715760405162461bcd60e51b815260206004820152604160248201527f43616e6e6f74207769746864726177206265666f72652034207965617273206160448201527f66746572206265696e6720616464656420746f207468652077686974656c69736064820152601d60fa1b608482015260a401610809565b6b04d8c55aefb8c05b5c000000600b54106117da5760405162461bcd60e51b815260206004820152602360248201527f416c6c207465616d20746f6b656e732068617665206265656e2077697468647260448201526230bbb760e91b6064820152608401610809565b336000908152601760205260409020546118415760405162461bcd60e51b815260206004820152602260248201527f4e6f206879617820686f6c64696e6720616d6f756e7420746f20776974686472604482015261617760f01b6064820152608401610809565b61184961149b565b3360009081526017602052604090206006015460ff9182169116106118c45760405162461bcd60e51b815260206004820152602b60248201527f43616e206f6e6c79207769746864726177207465616d20746f6b656e73206f6e60448201526a31b2903832b9103cb2b0b960a91b6064820152608401610809565b336000908152601760205260408120600101546118e390600590613a69565b90506b04d8c55aefb8c05b5c00000081600b546119009190613a20565b111561192257600b5461191f906b04d8c55aefb8c05b5c000000613a39565b90505b3360009081526017602052604081208054839290611941908490613a39565b9250508190555080600b600082825461195a9190613a20565b9250508190555080600c60008282546119739190613a39565b9091555050336000908152601760205260408120600601805460ff169161199983613ae8565b825460ff9182166101009390930a92830291909202199091161790555060035460405163a9059cbb60e01b8152336004820152602481018390526001600160a01b039091169063a9059cbb906044016020604051808303816000875af1158015611a07573d6000803e3d6000fd5b505050506040513d601f19601f82011682018060405250810190611a2b9190613a4c565b611a775760405162461bcd60e51b815260206004820152601e60248201527f4661696c656420746f207472616e73666572207465616d20746f6b656e7300006044820152606401610809565b60408051338152602081018390527f1e63f692f0a30c3957ac289d6a44616bd119f5502eba5ae440f3158cc2c2d291910160405180910390a150611aba60018055565b5050565b611ac6613518565b6001600160a01b038116611b325760405162461bcd60e51b815260206004820152602d60248201527f4879617820746f6b656e20616464726573732063616e6e6f742062652074686560448201526c207a65726f206164647265737360981b6064820152608401610809565b60405163090b282b60e31b6020820152819060240160405160208183030381529060405280519060200120816001600160a01b03166395d89b416040518163ffffffff1660e01b8152600401600060405180830381865afa158015611b9b573d6000803e3d6000fd5b505050506040513d6000823e601f3d908101601f19168201604052611bc39190810190613b6e565b604051602001611bd39190613c06565b6040516020818303038152906040528051906020012014611c4f5760405162461bcd60e51b815260206004820152603060248201527f546f6b656e2061646472657373206d75737420626520612076616c696420485960448201526f415820746f6b656e206164647265737360801b6064820152608401610809565b50600280546001600160a01b039092166001600160a01b0319928316811790915560038054909216179055565b6000546001600160a01b0316331480611ca4575060155461010090046001600160a01b031633145b611cc05760405162461bcd60e51b815260040161080990613a8b565b60408051338152326020820152600080516020613e4c833981519152910160405180910390a16001600160a01b0382166000908152601760205260409020600901548115156201000090910460ff16151503611d2e5760405162461bcd60e51b815260040161080990613c22565b6001600160a01b038216600081815260176020908152604091829020600901805462ff000019166201000086151590810291909117909155825133815291820193909352908101919091527f89a9c56967d4535d54c90bffd7cbd09f6d2a4c8e26b9e7f033f199d144e12b4e906060015b60405180910390a15050565b6000546001600160a01b0316331480611dd3575060155461010090046001600160a01b031633145b611def5760405162461bcd60e51b815260040161080990613a8b565b60408051338152326020820152600080516020613e4c833981519152910160405180910390a16001600160a01b03821660009081526017602052604090206009015481151561010090910460ff16151503611e5c5760405162461bcd60e51b815260040161080990613c22565b6001600160a01b038216600081815260176020908152604091829020600901805461ff00191661010086151590810291909117909155825133815291820193909352908101919091527f70bbee4e66e3fd40f7da099410cfd723ed4a0b4fec11f6cc968e850db827a88b90606001611d9f565b611ed7613518565b611edf613545565b600054600160a01b900460ff1615611f095760405162461bcd60e51b8152600401610809906138ff565b6000826002811115611f1d57611f1d613c70565b1480611f3a57506001826002811115611f3857611f38613c70565b145b80611f5657506002826002811115611f5457611f54613c70565b145b611f995760405162461bcd60e51b8152602060048201526014602482015273496e76616c69642066756e64696e67207479706560601b6044820152606401610809565b60008111611fe95760405162461bcd60e51b815260206004820152601d60248201527f416d6f756e74206d7573742062652067726561746572207468616e20300000006044820152606401610809565b6003546040516323b872dd60e01b8152336004820152306024820152604481018390526001600160a01b03909116906323b872dd906064016020604051808303816000875af1158015612040573d6000803e3d6000fd5b505050506040513d601f19601f820116820180604052508101906120649190613a4c565b6120ca5760405162461bcd60e51b815260206004820152603160248201527f54686572652077617320616e206572726f72206f6e20726563656976696e672060448201527074686520746f6b656e2066756e64696e6760781b6064820152608401610809565b60008260028111156120de576120de613c70565b036121d4576b07c13bc4b2c133c560000000816004546120fe9190613a20565b111561217e5760405162461bcd60e51b815260206004820152604360248201527f416d6f756e7420746f2066756e642069732067726561746572207468616e207460448201527f686520746f74616c20696e74656e74656420666f722067726f77746820746f6b606482015262656e7360e81b608482015260a401610809565b80600460008282546121909190613a20565b9250508190555080600660008282546121a99190613a20565b909155505060095460ff166121cf576009805460ff191660011790554260088190556007555b6123d6565b60018260028111156121e8576121e8613c70565b036122d6576b04d8c55aefb8c05b5c00000081600a546122089190613a20565b11156122865760405162461bcd60e51b815260206004820152604160248201527f416d6f756e7420746f2066756e642069732067726561746572207468616e207460448201527f686520746f74616c20696e74656e74656420666f72207465616d20746f6b656e6064820152607360f81b608482015260a401610809565b80600a60008282546122989190613a20565b9250508190555080600c60008282546122b19190613a20565b9091555050600f5460ff166121cf57600f805460ff1916600117905542600e556123d6565b60028260028111156122ea576122ea613c70565b036123d6576b03e09de2596099e2b00000008160105461230a9190613a20565b111561238a5760405162461bcd60e51b815260206004820152604360248201527f416d6f756e7420746f2066756e642069732067726561746572207468616e207460448201527f686520746f74616c20696e74656e74656420666f722072657761726420746f6b606482015262656e7360e81b608482015260a401610809565b806010600082825461239c9190613a20565b9250508190555080601360008282546123b59190613a20565b909155505060155460ff166123d6576015805460ff19166001179055426014555b7fbc0b9ecc68ec48681b8f5718fa26b9ce02021220455be5f5837a944140a80ea38282604051612407929190613c86565b60405180910390a1611aba60018055565b612420613518565b612428613545565b600054600160a01b900460ff16156124525760405162461bcd60e51b8152600401610809906138ff565b600082600281111561246657612466613c70565b14806124835750600182600281111561248157612481613c70565b145b8061249f5750600282600281111561249d5761249d613c70565b145b6124e25760405162461bcd60e51b8152602060048201526014602482015273496e76616c69642066756e64696e67207479706560601b6044820152606401610809565b600081116125325760405162461bcd60e51b815260206004820152601d60248201527f416d6f756e74206d7573742062652067726561746572207468616e20300000006044820152606401610809565b600082600281111561254657612546613c70565b036125fb5760095460ff1661256d5760405162461bcd60e51b815260040161080990613962565b6006548111156125de5760405162461bcd60e51b815260206004820152603660248201527f496e73756666696369656e742067726f77746820746f6b656e7320696e2074686044820152756520636f6e747261637420746f20776974686472617760501b6064820152608401610809565b80600660008282546125f09190613a39565b9091555061272c9050565b600182600281111561260f5761260f613c70565b036126b757600f5460ff166126365760405162461bcd60e51b815260040161080990613962565b600c548111156126a55760405162461bcd60e51b815260206004820152603460248201527f496e73756666696369656e74207465616d20746f6b656e7320696e2074686520604482015273636f6e747261637420746f20776974686472617760601b6064820152608401610809565b80600c60008282546125f09190613a39565b60028260028111156126cb576126cb613c70565b0361272c5760155460ff166126f25760405162461bcd60e51b815260040161080990613962565b6013548111156127145760405162461bcd60e51b8152600401610809906139b4565b80601360008282546127269190613a39565b90915550505b6003546001600160a01b031663a9059cbb61274f6000546001600160a01b031690565b6040516001600160e01b031960e084901b1681526001600160a01b039091166004820152602481018490526044016020604051808303816000875af115801561279c573d6000803e3d6000fd5b505050506040513d601f19601f820116820180604052508101906127c09190613a4c565b61280c5760405162461bcd60e51b815260206004820181905260248201527f4661696c656420746f207472616e736665722067726f77746820746f6b656e736044820152606401610809565b7fb9db6f85cd4e97884845cfb10d7fbba4d9cd4b9516cf2795b4c50cd886875bab8282604051612407929190613c86565b612845613518565b61284d613545565b600f5460ff166128b95760405162461bcd60e51b815260206004820152603160248201527f46756e64696e6720686173206e6f742073746172746564207965742c206e6f206044820152703a37b5b2b739903a37903932b1b7bb32b960791b6064820152608401610809565b6001600160a01b03821660009081526017602052604090206009015460ff1615156001146129395760405162461bcd60e51b815260206004820152602760248201527f4f6c642077616c6c65742061646472657373206973206e6f742061207465616d604482015266081dd85b1b195d60ca1b6064820152608401610809565b6001600160a01b03821660009081526017602052604090206009015460ff6101009091041615156001146129c95760405162461bcd60e51b815260206004820152603160248201527f4f6c64207465616d206d656d6265722077616c6c6574206164647265737320696044820152701cc81b9bdd081dda1a5d195b1a5cdd1959607a1b6064820152608401610809565b6001600160a01b03821660009081526017602052604090206009015462010000900460ff1615612a515760405162461bcd60e51b815260206004820152602d60248201527f4f6c64207465616d206d656d6265722077616c6c65742061646472657373206960448201526c1cc8189b1858dadb1a5cdd1959609a1b6064820152608401610809565b6001600160a01b038116612acd5760405162461bcd60e51b815260206004820152603960248201527f4e6577207465616d206d656d6265722077616c6c65742061646472657373206360448201527f616e6e6f7420626520746865207a65726f2061646472657373000000000000006064820152608401610809565b816001600160a01b0316816001600160a01b031603612b7a5760405162461bcd60e51b815260206004820152605760248201527f4e6577207465616d206d656d6265722077616c6c65742061646472657373206360448201527f616e6e6f74206265207468652073616d6520617320746865206f6c642074656160648201527f6d206d656d6265722077616c6c65742061646472657373000000000000000000608482015260a401610809565b6001600160a01b038116600090815260176020526040902060090154610100900460ff1615612c095760405162461bcd60e51b815260206004820152603560248201527f4e6577207465616d206d656d6265722077616c6c6574206164647265737320696044820152741cc8185b1c9958591e481dda1a5d195b1a5cdd1959605a1b6064820152608401610809565b6001600160a01b03811660009081526017602052604090206009015460ff1615612c9b5760405162461bcd60e51b815260206004820152603760248201527f4e6577207465616d206d656d6265722077616c6c65742061646472657373206960448201527f7320616c72656164792061207465616d2077616c6c65740000000000000000006064820152608401610809565b6001600160a01b03811660009081526017602052604090206009015462010000900460ff1615612d235760405162461bcd60e51b815260206004820152602d60248201527f4e6577207465616d206d656d6265722077616c6c65742061646472657373206960448201526c1cc8189b1858dadb1a5cdd1959609a1b6064820152608401610809565b6001600160a01b038082166000908152601760205260408082206009808201805462ffffff199081166101011790915542600584015594871680855283852060018181018054918601919091558154855560088083018054918701919091556007808401805491880191909155600284810180549189019190915560038086018054918a019190915560048681018054918b01919091556006808801805491909b01805460ff1990811660ff93909316929092179055978c529786018054909c166201000017909b55928990559288905587905590869055859055948490559290925581549092169055517fe22d55c818a03427ea945b8aa2892dce405430b1faf1ffac02e2619c915431fb9061240790849084906001600160a01b0392831681529116602082015260400190565b6000546001600160a01b0316331480612e7557506016546001600160a01b031633145b80612e7f57503330145b612e9b5760405162461bcd60e51b815260040161080990613cb2565b60408051338152326020820152600080516020613e4c833981519152910160405180910390a1612ec9613545565b601654600160a01b900460ff16831115612f315760405162461bcd60e51b8152602060048201526024808201527f42617463682073697a6520657863656564732074686520646566696e6564206c6044820152631a5b5a5d60e21b6064820152608401610809565b828114612f805760405162461bcd60e51b815260206004820152601860248201527f4172726179206c656e67746873206d757374206d6174636800000000000000006044820152606401610809565b60005b838110156130da573063fafd7c20868684818110612fa357612fa3613d29565b9050602002016020810190612fb891906136f2565b858585818110612fca57612fca613d29565b6040516001600160e01b031960e087901b1681526001600160a01b0390941660048501526020029190910135602483015250604401600060405180830381600087803b15801561301957600080fd5b505af192505050801561302a575060015b6130c857613036613d3f565b806308c379a0036130bc575061304a613d5b565b8061305557506130be565b7f80c7a907fb61ff886445c2feb367d7b196637d154438ec7337eb57021ef5f5a13387878581811061308957613089613d29565b905060200201602081019061309e91906136f2565b836040516130ae93929190613de5565b60405180910390a1506130c8565b505b3d6000803e3d6000fd5b806130d281613e32565b915050612f83565b506130e460018055565b50505050565b6130f2613518565b6001600160a01b0381166131575760405162461bcd60e51b815260206004820152602660248201527f4f776e61626c653a206e6577206f776e657220697320746865207a65726f206160448201526564647265737360d01b6064820152608401610809565b306001600160a01b038216036131ce5760405162461bcd60e51b815260206004820152603660248201527f4f776e61626c653a206e6577206f776e65722063616e6e6f74206265207468656044820152752073616d6520636f6e7472616374206164647265737360501b6064820152608401610809565b610c08816135c4565b6000546001600160a01b03163314806131fa57506016546001600160a01b031633145b8061320457503330145b6132205760405162461bcd60e51b815260040161080990613cb2565b60408051338152326020820152600080516020613e4c833981519152910160405180910390a16001600160a01b03821660009081526017602052604090206009015460ff61010090910416151560011461328c5760405162461bcd60e51b8152600401610809906138c8565b6001600160a01b03821660009081526017602052604090206009015462010000900460ff16156132ce5760405162461bcd60e51b81526004016108099061392b565b6001600160a01b0382166000908152601760205260409020600801546132f8906207e90090613a20565b42101561335a5760405162461bcd60e51b815260206004820152602a60248201527f546f6f20736f6f6e20746f20757064617465207265776172647320666f7220746044820152691a1a5cc81dd85b1b195d60b21b6064820152608401610809565b61337060346a7c13bc4b2c133c56000000613a69565b8111156133e7576040805162461bcd60e51b81526020600482015260248101919091527f412073696e676c652077616c6c65742063616e6e6f742068617665207265776160448201527f72647320686967686572207468616e20746865207765656b6c79206c696d69746064820152608401610809565b6013548111156134555760405162461bcd60e51b815260206004820152603360248201527f496e73756666696369656e742072657761726420746f6b656e7320746f2064696044820152727374726962757465206173207265776172647360681b6064820152608401610809565b80601160008282546134679190613a20565b90915550506001600160a01b0382166000908152601760205260408120426008820155600201805483929061349d908490613a20565b90915550506001600160a01b038216600090815260176020526040812060030180548392906134cd908490613a20565b9091555050604080513381526001600160a01b03841660208201529081018290527f74dd95429fe6255fb4698aa67d02afb4ebcf261c1883a417108c7d6c0abed4b090606001611d9f565b6000546001600160a01b03163314610c1b5760405163118cdaa760e01b8152336004820152602401610809565b60026001540361356857604051633ee5aeb560e01b815260040160405180910390fd5b6002600155565b613577613657565b6000805460ff60a01b191690557f5db9ee0a495bf2e6ff9c91a7834c1ba4fdd244a5e8aa4e537bd38aeae4b073aa335b6040516001600160a01b03909116815260200160405180910390a1565b600080546001600160a01b038381166001600160a01b0319831681178455604051919092169283917f8be0079c531659141344cd1fd0a4f28419497f9722a3daafe3b4186f6b6457e09190a35050565b61361c613681565b6000805460ff60a01b1916600160a01b1790557f62e78cea01bee320cd4e420270b5ea74000d11b0c9f74754ebdbfc544b05a2586135a73390565b600054600160a01b900460ff16610c1b57604051638dfc202b60e01b815260040160405180910390fd5b600054600160a01b900460ff1615610c1b5760405163d93c066560e01b815260040160405180910390fd5b6000602082840312156136be57600080fd5b813560ff811681146136cf57600080fd5b9392505050565b80356001600160a01b03811681146136ed57600080fd5b919050565b60006020828403121561370457600080fd5b6136cf826136d6565b8015158114610c0857600080fd5b60008060006060848603121561373057600080fd5b613739846136d6565b925060208401356137498161370d565b929592945050506040919091013590565b6000806040838503121561376d57600080fd5b613776836136d6565b915060208301356137868161370d565b809150509250929050565b600080604083850312156137a457600080fd5b8235600381106137b357600080fd5b946020939093013593505050565b600080604083850312156137d457600080fd5b6137dd836136d6565b91506137eb602084016136d6565b90509250929050565b60008083601f84011261380657600080fd5b50813567ffffffffffffffff81111561381e57600080fd5b6020830191508360208260051b850101111561383957600080fd5b9250929050565b6000806000806040858703121561385657600080fd5b843567ffffffffffffffff8082111561386e57600080fd5b61387a888389016137f4565b9096509450602087013591508082111561389357600080fd5b506138a0878288016137f4565b95989497509550505050565b600080604083850312156138bf57600080fd5b6137b3836136d6565b60208082526019908201527f57616c6c6574206973206e6f742077686974656c697374656400000000000000604082015260600190565b60208082526012908201527110dbdb9d1c9858dd081a5cc81c185d5cd95960721b604082015260600190565b6020808252601b908201527f57616c6c657420686173206265656e20626c61636b6c69737465640000000000604082015260600190565b60208082526032908201527f46756e64696e6720686173206e6f742073746172746564207965742c206e6f20604082015271746f6b656e7320746f20776974686472617760701b606082015260800190565b60208082526036908201527f496e73756666696369656e742072657761726420746f6b656e7320696e2074686040820152756520636f6e747261637420746f20776974686472617760501b606082015260800190565b634e487b7160e01b600052601160045260246000fd5b80820180821115613a3357613a33613a0a565b92915050565b81810381811115613a3357613a33613a0a565b600060208284031215613a5e57600080fd5b81516136cf8161370d565b600082613a8657634e487b7160e01b600052601260045260246000fd5b500490565b60208082526037908201527f46756e6374696f6e207265736572766564206f6e6c7920666f7220746865207760408201527f686974656c6973746572206f7220746865206f776e6572000000000000000000606082015260800190565b600060ff821660ff8103613afe57613afe613a0a565b60010192915050565b634e487b7160e01b600052604160045260246000fd5b601f8201601f1916810167ffffffffffffffff81118282101715613b4357613b43613b07565b6040525050565b60005b83811015613b65578181015183820152602001613b4d565b50506000910152565b600060208284031215613b8057600080fd5b815167ffffffffffffffff80821115613b9857600080fd5b818401915084601f830112613bac57600080fd5b815181811115613bbe57613bbe613b07565b6040519150613bd7601f8201601f191660200183613b1d565b808252856020828501011115613bec57600080fd5b613bfd816020840160208601613b4a565b50949350505050565b60008251613c18818460208701613b4a565b9190910192915050565b6020808252602e908201527f57616c6c65742068617320616c7265616479206265656e20757064617465642060408201526d746f20746861742073746174757360901b606082015260800190565b634e487b7160e01b600052602160045260246000fd5b6040810160038410613ca857634e487b7160e01b600052602160045260246000fd5b9281526020015290565b60208082526051908201527f46756e6374696f6e207265736572766564206f6e6c7920666f7220746865207260408201527f65776172647320757064617465722c20746865206f776e65722c206f72207468606082015270329031b7b73a3930b1ba1034ba39b2b63360791b608082015260a00190565b634e487b7160e01b600052603260045260246000fd5b600060033d1115613d585760046000803e5060005160e01c5b90565b600060443d1015613d695790565b6040516003193d81016004833e81513d67ffffffffffffffff8160248401118184111715613d9957505050505090565b8285019150815181811115613db15750505050505090565b843d8701016020828501011115613dcb5750505050505090565b613dda60208286010187613b1d565b509095945050505050565b600060018060a01b038086168352808516602084015250606060408301528251806060840152613e1c816080850160208701613b4a565b601f01601f191691909101608001949350505050565b600060018201613e4457613e44613a0a565b506001019056fef572c1a3c9723ee4a9544fdd9299fbdea3409f4e29a51ae34e1b58363450ba11a26469706673582212209097f77243ab9706cc191b1828e52b679e88f547a31b0567ee0f478f1b8afa4964736f6c63430008140033",
  "linkReferences": {},
  "deployedLinkReferences": {}
}