{
  "_format": "hh-sol-artifact-1",
  "contractName": "UpgradeableHYAXRewards",
  "sourceName": "contracts/UpgradeableHYAXRewards.sol",
  "abi": [
    {
      "inputs": [
        {
          "internalType": "address",
          "name": "_hyaxTokenAddress",
          "type": "address"
        }
      ],
      "stateMutability": "nonpayable",
      "type": "constructor"
    },
    {
      "inputs": [],
      "name": "EnforcedPause",
      "type": "error"
    },
    {
      "inputs": [],
      "name": "ExpectedPause",
      "type": "error"
    },
    {
      "inputs": [
        {
          "internalType": "address",
          "name": "owner",
          "type": "address"
        }
      ],
      "name": "OwnableInvalidOwner",
      "type": "error"
    },
    {
      "inputs": [
        {
          "internalType": "address",
          "name": "account",
          "type": "address"
        }
      ],
      "name": "OwnableUnauthorizedAccount",
      "type": "error"
    },
    {
      "anonymous": false,
      "inputs": [
        {
          "indexed": false,
          "internalType": "enum UpgradeableHYAXRewards.FundingType",
          "name": "_fundingType",
          "type": "uint8"
        },
        {
          "indexed": false,
          "internalType": "uint256",
          "name": "_amount",
          "type": "uint256"
        }
      ],
      "name": "FundingAdded",
      "type": "event"
    },
    {
      "anonymous": false,
      "inputs": [
        {
          "indexed": false,
          "internalType": "address",
          "name": "_walletAddress",
          "type": "address"
        },
        {
          "indexed": false,
          "internalType": "uint256",
          "name": "_amount",
          "type": "uint256"
        }
      ],
      "name": "GrowthTokensWithdrawn",
      "type": "event"
    },
    {
      "anonymous": false,
      "inputs": [
        {
          "indexed": true,
          "internalType": "address",
          "name": "previousOwner",
          "type": "address"
        },
        {
          "indexed": true,
          "internalType": "address",
          "name": "newOwner",
          "type": "address"
        }
      ],
      "name": "OwnershipTransferred",
      "type": "event"
    },
    {
      "anonymous": false,
      "inputs": [
        {
          "indexed": false,
          "internalType": "address",
          "name": "account",
          "type": "address"
        }
      ],
      "name": "Paused",
      "type": "event"
    },
    {
      "anonymous": false,
      "inputs": [
        {
          "indexed": false,
          "internalType": "address",
          "name": "_walletAddress",
          "type": "address"
        },
        {
          "indexed": false,
          "internalType": "uint256",
          "name": "_amount",
          "type": "uint256"
        }
      ],
      "name": "TeamTokensWithdrawn",
      "type": "event"
    },
    {
      "anonymous": false,
      "inputs": [
        {
          "indexed": false,
          "internalType": "address",
          "name": "account",
          "type": "address"
        }
      ],
      "name": "Unpaused",
      "type": "event"
    },
    {
      "anonymous": false,
      "inputs": [
        {
          "indexed": false,
          "internalType": "address",
          "name": "_sender",
          "type": "address"
        },
        {
          "indexed": false,
          "internalType": "address",
          "name": "_walletAddress",
          "type": "address"
        },
        {
          "indexed": false,
          "internalType": "bool",
          "name": "_isTeamWallet",
          "type": "bool"
        },
        {
          "indexed": false,
          "internalType": "string",
          "name": "_bitcoinRewardsAddress",
          "type": "string"
        },
        {
          "indexed": false,
          "internalType": "uint256",
          "name": "_hyaxHoldingAmount",
          "type": "uint256"
        }
      ],
      "name": "WalletAddedToWhitelist",
      "type": "event"
    },
    {
      "anonymous": false,
      "inputs": [
        {
          "indexed": false,
          "internalType": "address",
          "name": "_sender",
          "type": "address"
        },
        {
          "indexed": false,
          "internalType": "address",
          "name": "_walletAddress",
          "type": "address"
        }
      ],
      "name": "WalletRemovedFromWhitelist",
      "type": "event"
    },
    {
      "inputs": [],
      "name": "GROWTH_TOKENS_TOTAL",
      "outputs": [
        {
          "internalType": "uint256",
          "name": "",
          "type": "uint256"
        }
      ],
      "stateMutability": "view",
      "type": "function"
    },
    {
      "inputs": [],
      "name": "GROWTH_TOKENS_WITHDRAWAL_PER_YEAR",
      "outputs": [
        {
          "internalType": "uint256",
          "name": "",
          "type": "uint256"
        }
      ],
      "stateMutability": "view",
      "type": "function"
    },
    {
      "inputs": [],
      "name": "TEAM_TOKENS_LOCKED_PERIOD",
      "outputs": [
        {
          "internalType": "uint256",
          "name": "",
          "type": "uint256"
        }
      ],
      "stateMutability": "view",
      "type": "function"
    },
    {
      "inputs": [],
      "name": "TEAM_TOKENS_TOTAL",
      "outputs": [
        {
          "internalType": "uint256",
          "name": "",
          "type": "uint256"
        }
      ],
      "stateMutability": "view",
      "type": "function"
    },
    {
      "inputs": [],
      "name": "TEAM_TOKENS_WITHDRAWAL_PER_YEAR",
      "outputs": [
        {
          "internalType": "uint256",
          "name": "",
          "type": "uint256"
        }
      ],
      "stateMutability": "view",
      "type": "function"
    },
    {
      "inputs": [],
      "name": "TOKENS_WITHDRAWAL_PERIOD",
      "outputs": [
        {
          "internalType": "uint256",
          "name": "",
          "type": "uint256"
        }
      ],
      "stateMutability": "view",
      "type": "function"
    },
    {
      "inputs": [
        {
          "internalType": "address",
          "name": "_walletAddress",
          "type": "address"
        },
        {
          "internalType": "bool",
          "name": "_isTeamWallet",
          "type": "bool"
        },
        {
          "internalType": "string",
          "name": "_bitcoinRewardsAddress",
          "type": "string"
        },
        {
          "internalType": "uint256",
          "name": "_hyaxHoldingAmount",
          "type": "uint256"
        }
      ],
      "name": "addWalletToWhitelist",
      "outputs": [],
      "stateMutability": "nonpayable",
      "type": "function"
    },
    {
      "inputs": [
        {
          "internalType": "enum UpgradeableHYAXRewards.FundingType",
          "name": "_fundingType",
          "type": "uint8"
        },
        {
          "internalType": "uint256",
          "name": "_amount",
          "type": "uint256"
        }
      ],
      "name": "fundSmartContract",
      "outputs": [],
      "stateMutability": "nonpayable",
      "type": "function"
    },
    {
      "inputs": [],
      "name": "growthTokensFunded",
      "outputs": [
        {
          "internalType": "uint256",
          "name": "",
          "type": "uint256"
        }
      ],
      "stateMutability": "view",
      "type": "function"
    },
    {
      "inputs": [],
      "name": "growthTokensFundingStarted",
      "outputs": [
        {
          "internalType": "bool",
          "name": "",
          "type": "bool"
        }
      ],
      "stateMutability": "view",
      "type": "function"
    },
    {
      "inputs": [],
      "name": "growthTokensInSmartContract",
      "outputs": [
        {
          "internalType": "uint256",
          "name": "",
          "type": "uint256"
        }
      ],
      "stateMutability": "view",
      "type": "function"
    },
    {
      "inputs": [],
      "name": "growthTokensLastWithdrawalTime",
      "outputs": [
        {
          "internalType": "uint256",
          "name": "",
          "type": "uint256"
        }
      ],
      "stateMutability": "view",
      "type": "function"
    },
    {
      "inputs": [],
      "name": "growthTokensStartFundingTime",
      "outputs": [
        {
          "internalType": "uint256",
          "name": "",
          "type": "uint256"
        }
      ],
      "stateMutability": "view",
      "type": "function"
    },
    {
      "inputs": [],
      "name": "growthTokensWithdrawn",
      "outputs": [
        {
          "internalType": "uint256",
          "name": "",
          "type": "uint256"
        }
      ],
      "stateMutability": "view",
      "type": "function"
    },
    {
      "inputs": [],
      "name": "hyaxToken",
      "outputs": [
        {
          "internalType": "contract ERC20TokenInterface",
          "name": "",
          "type": "address"
        }
      ],
      "stateMutability": "view",
      "type": "function"
    },
    {
      "inputs": [],
      "name": "hyaxTokenAddress",
      "outputs": [
        {
          "internalType": "address",
          "name": "",
          "type": "address"
        }
      ],
      "stateMutability": "view",
      "type": "function"
    },
    {
      "inputs": [],
      "name": "owner",
      "outputs": [
        {
          "internalType": "address",
          "name": "",
          "type": "address"
        }
      ],
      "stateMutability": "view",
      "type": "function"
    },
    {
      "inputs": [],
      "name": "pause",
      "outputs": [],
      "stateMutability": "nonpayable",
      "type": "function"
    },
    {
      "inputs": [],
      "name": "paused",
      "outputs": [
        {
          "internalType": "bool",
          "name": "",
          "type": "bool"
        }
      ],
      "stateMutability": "view",
      "type": "function"
    },
    {
      "inputs": [
        {
          "internalType": "address",
          "name": "_walletAddress",
          "type": "address"
        }
      ],
      "name": "removeWalletFromWhitelist",
      "outputs": [],
      "stateMutability": "nonpayable",
      "type": "function"
    },
    {
      "inputs": [],
      "name": "renounceOwnership",
      "outputs": [],
      "stateMutability": "nonpayable",
      "type": "function"
    },
    {
      "inputs": [],
      "name": "teamTokensFunded",
      "outputs": [
        {
          "internalType": "uint256",
          "name": "",
          "type": "uint256"
        }
      ],
      "stateMutability": "view",
      "type": "function"
    },
    {
      "inputs": [],
      "name": "teamTokensFundingStarted",
      "outputs": [
        {
          "internalType": "bool",
          "name": "",
          "type": "bool"
        }
      ],
      "stateMutability": "view",
      "type": "function"
    },
    {
      "inputs": [],
      "name": "teamTokensInSmartContract",
      "outputs": [
        {
          "internalType": "uint256",
          "name": "",
          "type": "uint256"
        }
      ],
      "stateMutability": "view",
      "type": "function"
    },
    {
      "inputs": [],
      "name": "teamTokensStartFundingTime",
      "outputs": [
        {
          "internalType": "uint256",
          "name": "",
          "type": "uint256"
        }
      ],
      "stateMutability": "view",
      "type": "function"
    },
    {
      "inputs": [],
      "name": "teamTokensWithdrawn",
      "outputs": [
        {
          "internalType": "uint256",
          "name": "",
          "type": "uint256"
        }
      ],
      "stateMutability": "view",
      "type": "function"
    },
    {
      "inputs": [],
      "name": "tokenInvestorRewards",
      "outputs": [
        {
          "internalType": "uint256",
          "name": "",
          "type": "uint256"
        }
      ],
      "stateMutability": "view",
      "type": "function"
    },
    {
      "inputs": [
        {
          "internalType": "address",
          "name": "newOwner",
          "type": "address"
        }
      ],
      "name": "transferOwnership",
      "outputs": [],
      "stateMutability": "nonpayable",
      "type": "function"
    },
    {
      "inputs": [],
      "name": "unpause",
      "outputs": [],
      "stateMutability": "nonpayable",
      "type": "function"
    },
    {
      "inputs": [
        {
          "internalType": "address",
          "name": "_hyaxTokenAddress",
          "type": "address"
        }
      ],
      "name": "updateHyaxTokenAddress",
      "outputs": [],
      "stateMutability": "nonpayable",
      "type": "function"
    },
    {
      "inputs": [
        {
          "internalType": "address",
          "name": "_whiteListerAddress",
          "type": "address"
        }
      ],
      "name": "updateWhiteListerAddress",
      "outputs": [],
      "stateMutability": "nonpayable",
      "type": "function"
    },
    {
      "inputs": [
        {
          "internalType": "address",
          "name": "",
          "type": "address"
        }
      ],
      "name": "wallets",
      "outputs": [
        {
          "internalType": "uint256",
          "name": "hyaxHoldingAmount",
          "type": "uint256"
        },
        {
          "internalType": "uint256",
          "name": "addedToWhitelistTime",
          "type": "uint256"
        },
        {
          "internalType": "uint256",
          "name": "totalHyaxRewardsAmount",
          "type": "uint256"
        },
        {
          "internalType": "uint256",
          "name": "currentRewardsAmount",
          "type": "uint256"
        },
        {
          "internalType": "string",
          "name": "bitcoinRewardsAddress",
          "type": "string"
        },
        {
          "internalType": "uint256",
          "name": "rewardsWithdrawn",
          "type": "uint256"
        },
        {
          "internalType": "uint256",
          "name": "lastTokenWithdrawalTime",
          "type": "uint256"
        },
        {
          "internalType": "uint256",
          "name": "lastRewardsWithdrawalTime",
          "type": "uint256"
        },
        {
          "internalType": "bool",
          "name": "isTeamWallet",
          "type": "bool"
        },
        {
          "internalType": "bool",
          "name": "isWhitelisted",
          "type": "bool"
        }
      ],
      "stateMutability": "view",
      "type": "function"
    },
    {
      "inputs": [],
      "name": "whiteListerAddress",
      "outputs": [
        {
          "internalType": "address",
          "name": "",
          "type": "address"
        }
      ],
      "stateMutability": "view",
      "type": "function"
    },
    {
      "inputs": [],
      "name": "withdrawGrowthTokens",
      "outputs": [],
      "stateMutability": "nonpayable",
      "type": "function"
    },
    {
      "inputs": [],
      "name": "withdrawTeamTokens",
      "outputs": [],
      "stateMutability": "nonpayable",
      "type": "function"
    }
  ],
  "bytecode": "0x60806040523480156200001157600080fd5b5060405162001f9538038062001f95833981016040819052620000349162000208565b33806200005c57604051631e4fbdf760e01b8152600060048201526024015b60405180910390fd5b6200006781620001b8565b506000805460ff60a01b19168155600180546001600160a01b0384166001600160a01b0319918216811790925560028054909116821790556040805163090b282b60e31b6020808301919091528251808303600401815260248301808552815191909201206395d89b4160e01b909152915191936395d89b41926028808401938290030181865afa15801562000101573d6000803e3d6000fd5b505050506040513d6000823e601f3d908101601f191682016040526200012b919081019062000276565b6040516020016200013d91906200032e565b6040516020818303038152906040528051906020012014620001a25760405162461bcd60e51b815260206004820152601f60248201527f4879617820746f6b656e2061646472657373206973206e6f742076616c696400604482015260640162000053565b50600060038190556009819055600e556200034c565b600080546001600160a01b038381166001600160a01b0319831681178455604051919092169283917f8be0079c531659141344cd1fd0a4f28419497f9722a3daafe3b4186f6b6457e09190a35050565b6000602082840312156200021b57600080fd5b81516001600160a01b03811681146200023357600080fd5b9392505050565b634e487b7160e01b600052604160045260246000fd5b60005b838110156200026d57818101518382015260200162000253565b50506000910152565b6000602082840312156200028957600080fd5b81516001600160401b0380821115620002a157600080fd5b818401915084601f830112620002b657600080fd5b815181811115620002cb57620002cb6200023a565b604051601f8201601f19908116603f01168101908382118183101715620002f657620002f66200023a565b816040528281528760208487010111156200031057600080fd5b6200032383602083016020880162000250565b979650505050505050565b600082516200034281846020870162000250565b9190910192915050565b611c39806200035c6000396000f3fe608060405234801561001057600080fd5b50600436106102115760003560e01c80638456cb5911610125578063ce23772b116100ad578063d7e57fda1161007c578063d7e57fda14610405578063dcb7ff6b1461040e578063f2fde38b14610419578063f3793b9d1461042c578063f8ff46c61461043957600080fd5b8063ce23772b146103cd578063d1c02aaf146103e0578063d356b49a146103e9578063d3946a8c146103f257600080fd5b8063953b7ef8116100f4578063953b7ef8146103895780639656cd8c146103915780639bae90021461039a578063a868e997146103ad578063c1cc52b3146103c057600080fd5b80638456cb591461033557806389b08f111461033d5780638da5cb5b146103665780638e6d32df1461037757600080fd5b806359aa8966116101a8578063647a5a7811610177578063647a5a78146102f5578063653c3a47146102fe57806365699d2814610311578063687a83f814610324578063715018a61461032d57600080fd5b806359aa8966146102ba5780635c975abb146102c55780635d70203b146102e35780636148c783146102ec57600080fd5b80633f4ba83a116101e45780633f4ba83a146102825780634c4dc42e1461028c5780634f8ea72c146102945780635493b30d146102a757600080fd5b8063031f6589146102165780631035fc09146102465780631e6b40281461025d5780633ba10a561461026f575b600080fd5b600154610229906001600160a01b031681565b6040516001600160a01b0390911681526020015b60405180910390f35b61024f600c5481565b60405190815260200161023d565b61024f6a6342fd08f00f637800000081565b600254610229906001600160a01b031681565b61028a610442565b005b61028a610454565b61028a6102a236600461172e565b61076a565b61024f6b04d8c55aefb8c05b5c00000081565b61024f6301e1338081565b600054600160a01b900460ff165b604051901515815260200161023d565b61024f60035481565b61024f60045481565b61024f600b5481565b61028a61030c36600461180a565b610a3d565b600f54610229906001600160a01b031681565b61024f60065481565b61028a610a67565b61028a610a79565b61035061034b36600461180a565b610a89565b60405161023d9a99989796959493929190611872565b6000546001600160a01b0316610229565b61024f6af8277896582678ac00000081565b61028a610b67565b61024f60075481565b61028a6103a836600461180a565b611040565b61024f6b07c13bc4b2c133c56000000081565b600d546102d39060ff1681565b61028a6103db36600461180a565b611074565b61024f600e5481565b61024f60055481565b61028a6104003660046118d2565b611191565b61024f600a5481565b61024f630784ce0081565b61028a61042736600461180a565b611494565b6008546102d39060ff1681565b61024f60095481565b61044a611584565b6104526115b1565b565b61045c611584565b60085460ff166104875760405162461bcd60e51b815260040161047e90611902565b60405180910390fd5b6301e13380600754610499919061196a565b4210156105025760405162461bcd60e51b815260206004820152603160248201527f43616e6e6f74207769746864726177206265666f7265203120796561722061666044820152701d195c88199d5b991a5b99c81cdd185c9d607a1b606482015260840161047e565b6b07c13bc4b2c133c5600000006004541061056d5760405162461bcd60e51b815260206004820152602560248201527f416c6c2067726f77746820746f6b656e732068617665206265656e2077697468604482015264323930bbb760d91b606482015260840161047e565b6301e1338060065461057f919061196a565b4210156105ce5760405162461bcd60e51b815260206004820152601f60248201527f43616e206f6e6c79207769746864726177206f6e636520706572207965617200604482015260640161047e565b6004546a6342fd08f00f6378000000906b07c13bc4b2c133c560000000906105f790839061196a565b111561061957600454610616906b07c13bc4b2c133c560000000611983565b90505b806004600082825461062b919061196a565b9250508190555080600560008282546106449190611983565b9091555050426006556002546001600160a01b031663a9059cbb6106706000546001600160a01b031690565b6040516001600160e01b031960e084901b1681526001600160a01b039091166004820152602481018490526044016020604051808303816000875af11580156106bd573d6000803e3d6000fd5b505050506040513d601f19601f820116820180604052508101906106e19190611996565b61072d5760405162461bcd60e51b815260206004820181905260248201527f4661696c656420746f207472616e736665722067726f77746820746f6b656e73604482015260640161047e565b60408051338152602081018390527fd0a5227bfa49cf178a8f7a87b90318ef05fc8330f469e0dccbe075784f426dbf91015b60405180910390a150565b6000546001600160a01b031633148061078d5750600f546001600160a01b031633145b6107a95760405162461bcd60e51b815260040161047e906119b3565b6001600160a01b038416600090815260106020526040902060080154610100900460ff161561081a5760405162461bcd60e51b815260206004820152601d60248201527f57616c6c657420697320616c72656164792077686974656c6973746564000000604482015260640161047e565b6001600160a01b038416600090815260106020526040902060088101805485151561ffff19909116176101001790556004016108568382611a99565b506001600160a01b0384166000908152601060205260408120426001820155600681018290556007810182905560038101829055600281018290556005015582156109de576000811161091f5760405162461bcd60e51b8152602060048201526044602482018190527f5465616d2077616c6c657473206d757374206265206164646564207769746820908201527f61206879617820686f6c64696e6720616d6f756e7420677265617465722074686064820152630616e20360e41b608482015260a40161047e565b6b04d8c55aefb8c05b5c00000081106109be5760405162461bcd60e51b815260206004820152605560248201527f5465616d2077616c6c657473206d75737420626520616464656420776974682060448201527f61206879617820686f6c64696e6720616d6f756e74206c657373207468616e2060648201527474686520746f74616c207465616d20746f6b656e7360581b608482015260a40161047e565b6001600160a01b03841660009081526010602052604090208190556109f8565b6001600160a01b0384166000908152601060205260408120555b7f959ac3b35c0501d63161cf11f0e2bb784f4d0e01ae7b9ff879622579863516ac3385858585604051610a2f959493929190611b59565b60405180910390a150505050565b610a45611584565b600f80546001600160a01b0319166001600160a01b0392909216919091179055565b610a6f611584565b6104526000611606565b610a81611584565b610452611656565b601060205260009081526040902080546001820154600283015460038401546004850180549495939492939192610abf90611a10565b80601f0160208091040260200160405190810160405280929190818152602001828054610aeb90611a10565b8015610b385780601f10610b0d57610100808354040283529160200191610b38565b820191906000526020600020905b815481529060010190602001808311610b1b57829003601f168201915b505050506005830154600684015460078501546008909501549394919390925060ff808216916101009004168a565b3360008181526010602052604090206008015460ff610100909104161515600114610bd45760405162461bcd60e51b815260206004820152601960248201527f57616c6c6574206973206e6f742077686974656c697374656400000000000000604482015260640161047e565b3360009081526010602052604090206008015460ff161515600114610c615760405162461bcd60e51b815260206004820152603960248201527f4f6e6c79207465616d2077616c6c6574732063616e207769746864726177207460448201527f6f6b656e73207573696e6720746869732066756e6374696f6e00000000000000606482015260840161047e565b600d5460ff16610c835760405162461bcd60e51b815260040161047e90611902565b33600090815260106020526040902060010154610ca590630784ce009061196a565b421015610d245760405162461bcd60e51b815260206004820152604160248201527f43616e6e6f74207769746864726177206265666f72652034207965617273206160448201527f66746572206265696e6720616464656420746f207468652077686974656c69736064820152601d60fa1b608482015260a40161047e565b33600090815260106020526040902060060154610d46906301e133809061196a565b421015610da95760405162461bcd60e51b815260206004820152602b60248201527f43616e206f6e6c79207769746864726177207465616d20746f6b656e73206f6e60448201526a31b2903832b9103cb2b0b960a91b606482015260840161047e565b6b04d8c55aefb8c05b5c000000600a5410610e125760405162461bcd60e51b815260206004820152602360248201527f416c6c207465616d20746f6b656e732068617665206265656e2077697468647260448201526230bbb760e91b606482015260840161047e565b33600090815260106020526040902054610e795760405162461bcd60e51b815260206004820152602260248201527f4e6f206879617820686f6c64696e6720616d6f756e7420746f20776974686472604482015261617760f01b606482015260840161047e565b33600090815260106020526040812054610e9590600590611b9f565b90506b04d8c55aefb8c05b5c00000081600a54610eb2919061196a565b1115610ed457600a54610ed1906b04d8c55aefb8c05b5c000000611983565b90505b3360009081526010602052604081208054839290610ef3908490611983565b9250508190555080600a6000828254610f0c919061196a565b9250508190555080600b6000828254610f259190611983565b9091555050336000818152601060205260409081902042600690910155600254905163a9059cbb60e01b81526004810192909252602482018390526001600160a01b03169063a9059cbb906044016020604051808303816000875af1158015610f92573d6000803e3d6000fd5b505050506040513d601f19601f82011682018060405250810190610fb69190611996565b6110025760405162461bcd60e51b815260206004820152601e60248201527f4661696c656420746f207472616e73666572207465616d20746f6b656e730000604482015260640161047e565b60408051338152602081018390527f1e63f692f0a30c3957ac289d6a44616bd119f5502eba5ae440f3158cc2c2d29191015b60405180910390a15050565b611048611584565b600180546001600160a01b039092166001600160a01b0319928316811790915560028054909216179055565b6000546001600160a01b03163314806110975750600f546001600160a01b031633145b6110b35760405162461bcd60e51b815260040161047e906119b3565b6001600160a01b03811660009081526010602052604090206008015460ff6101009091041615156001146111355760405162461bcd60e51b815260206004820152602360248201527f57616c6c6574206973206e6f742063757272656e746c792077686974656c69736044820152621d195960ea1b606482015260840161047e565b6001600160a01b038116600081815260106020908152604091829020600801805461ff00191690558151338152908101929092527f46599c811011866824fd8279b62f7509d33dedd4111da485e2ec5044b6d7ac2a910161075f565b611199611584565b60008260028111156111ad576111ad611bc1565b14806111ca575060018260028111156111c8576111c8611bc1565b145b806111e6575060028260028111156111e4576111e4611bc1565b145b6112295760405162461bcd60e51b8152602060048201526014602482015273496e76616c69642066756e64696e67207479706560601b604482015260640161047e565b600081116112795760405162461bcd60e51b815260206004820152601d60248201527f416d6f756e74206d7573742062652067726561746572207468616e2030000000604482015260640161047e565b6002546040516323b872dd60e01b8152336004820152306024820152604481018390526001600160a01b03909116906323b872dd906064016020604051808303816000875af11580156112d0573d6000803e3d6000fd5b505050506040513d601f19601f820116820180604052508101906112f49190611996565b61135a5760405162461bcd60e51b815260206004820152603160248201527f54686572652077617320616e206572726f72206f6e20726563656976696e672060448201527074686520746f6b656e2066756e64696e6760781b606482015260840161047e565b600082600281111561136e5761136e611bc1565b036113c9578060036000828254611385919061196a565b92505081905550806005600082825461139e919061196a565b909155505060085460ff166113c4576008805460ff191660011790554260078190556006555b611463565b60018260028111156113dd576113dd611bc1565b036114325780600960008282546113f4919061196a565b9250508190555080600b600082825461140d919061196a565b9091555050600d5460ff166113c457600d805460ff1916600117905542600c55611463565b600282600281111561144657611446611bc1565b036114635780600e600082825461145d919061196a565b90915550505b7fbc0b9ecc68ec48681b8f5718fa26b9ce02021220455be5f5837a944140a80ea38282604051611034929190611bd7565b61149c611584565b6001600160a01b0381166115015760405162461bcd60e51b815260206004820152602660248201527f4f776e61626c653a206e6577206f776e657220697320746865207a65726f206160448201526564647265737360d01b606482015260840161047e565b306001600160a01b038216036115785760405162461bcd60e51b815260206004820152603660248201527f4f776e61626c653a206e6577206f776e65722063616e6e6f74206265207468656044820152752073616d6520636f6e7472616374206164647265737360501b606482015260840161047e565b61158181611606565b50565b6000546001600160a01b031633146104525760405163118cdaa760e01b815233600482015260240161047e565b6115b9611699565b6000805460ff60a01b191690557f5db9ee0a495bf2e6ff9c91a7834c1ba4fdd244a5e8aa4e537bd38aeae4b073aa335b6040516001600160a01b03909116815260200160405180910390a1565b600080546001600160a01b038381166001600160a01b0319831681178455604051919092169283917f8be0079c531659141344cd1fd0a4f28419497f9722a3daafe3b4186f6b6457e09190a35050565b61165e6116c3565b6000805460ff60a01b1916600160a01b1790557f62e78cea01bee320cd4e420270b5ea74000d11b0c9f74754ebdbfc544b05a2586115e93390565b600054600160a01b900460ff1661045257604051638dfc202b60e01b815260040160405180910390fd5b600054600160a01b900460ff16156104525760405163d93c066560e01b815260040160405180910390fd5b80356001600160a01b038116811461170557600080fd5b919050565b801515811461158157600080fd5b634e487b7160e01b600052604160045260246000fd5b6000806000806080858703121561174457600080fd5b61174d856116ee565b9350602085013561175d8161170a565b9250604085013567ffffffffffffffff8082111561177a57600080fd5b818701915087601f83011261178e57600080fd5b8135818111156117a0576117a0611718565b604051601f8201601f19908116603f011681019083821181831017156117c8576117c8611718565b816040528281528a60208487010111156117e157600080fd5b826020860160208301376000928101602001929092525095989497509495606001359450505050565b60006020828403121561181c57600080fd5b611825826116ee565b9392505050565b6000815180845260005b8181101561185257602081850181015186830182015201611836565b506000602082860101526020601f19601f83011685010191505092915050565b60006101408c83528b60208401528a604084015289606084015280608084015261189e8184018a61182c565b60a0840198909852505060c081019490945260e0840192909252151561010083015215156101209091015295945050505050565b600080604083850312156118e557600080fd5b8235600381106118f457600080fd5b946020939093013593505050565b60208082526032908201527f46756e64696e6720686173206e6f742073746172746564207965742c206e6f20604082015271746f6b656e7320746f20776974686472617760701b606082015260800190565b634e487b7160e01b600052601160045260246000fd5b8082018082111561197d5761197d611954565b92915050565b8181038181111561197d5761197d611954565b6000602082840312156119a857600080fd5b81516118258161170a565b60208082526037908201527f46756e6374696f6e207265736572766564206f6e6c7920666f7220746865207760408201527f686974656c6973746572206f7220746865206f776e6572000000000000000000606082015260800190565b600181811c90821680611a2457607f821691505b602082108103611a4457634e487b7160e01b600052602260045260246000fd5b50919050565b601f821115611a9457600081815260208120601f850160051c81016020861015611a715750805b601f850160051c820191505b81811015611a9057828155600101611a7d565b5050505b505050565b815167ffffffffffffffff811115611ab357611ab3611718565b611ac781611ac18454611a10565b84611a4a565b602080601f831160018114611afc5760008415611ae45750858301515b600019600386901b1c1916600185901b178555611a90565b600085815260208120601f198616915b82811015611b2b57888601518255948401946001909101908401611b0c565b5085821015611b495787850151600019600388901b60f8161c191681555b5050505050600190811b01905550565b6001600160a01b03868116825285166020820152831515604082015260a060608201819052600090611b8d9083018561182c565b90508260808301529695505050505050565b600082611bbc57634e487b7160e01b600052601260045260246000fd5b500490565b634e487b7160e01b600052602160045260246000fd5b6040810160038410611bf957634e487b7160e01b600052602160045260246000fd5b928152602001529056fea2646970667358221220d49d0cc12093f1333a887c2585e028259bef2292e5dbd3ef1942b1e59f0dd44564736f6c63430008140033",
  "linkReferences": {},
  "deployedLinkReferences": {}
}