{
  "_format": "hh-sol-artifact-1",
  "contractName": "UpgradeableHYAXRewardsV2",
  "sourceName": "contracts/UpgradeableHYAXRewardsV2.sol",
  "abi": [
    {
      "inputs": [],
      "name": "AccessControlBadConfirmation",
      "type": "error"
    },
    {
      "inputs": [
        {
          "internalType": "address",
          "name": "account",
          "type": "address"
        },
        {
          "internalType": "bytes32",
          "name": "neededRole",
          "type": "bytes32"
        }
      ],
      "name": "AccessControlUnauthorizedAccount",
      "type": "error"
    },
    {
      "inputs": [],
      "name": "EnforcedPause",
      "type": "error"
    },
    {
      "inputs": [],
      "name": "ExpectedPause",
      "type": "error"
    },
    {
      "inputs": [],
      "name": "InvalidInitialization",
      "type": "error"
    },
    {
      "inputs": [],
      "name": "NotInitializing",
      "type": "error"
    },
    {
      "inputs": [],
      "name": "ReentrancyGuardReentrantCall",
      "type": "error"
    },
    {
      "anonymous": false,
      "inputs": [
        {
          "indexed": false,
          "internalType": "address",
          "name": "_senderBlacklistStatusUpdated",
          "type": "address"
        },
        {
          "indexed": false,
          "internalType": "address",
          "name": "_walletAddressBlacklistStatusUpdated",
          "type": "address"
        },
        {
          "indexed": false,
          "internalType": "bool",
          "name": "_newStatusBlacklistStatusUpdated",
          "type": "bool"
        }
      ],
      "name": "BlacklistStatusUpdated",
      "type": "event"
    },
    {
      "anonymous": false,
      "inputs": [
        {
          "indexed": false,
          "internalType": "enum UpgradeableHYAXRewardsV2.FundingType",
          "name": "_fundingTypeAdded",
          "type": "uint8"
        },
        {
          "indexed": false,
          "internalType": "uint256",
          "name": "_amountAdded",
          "type": "uint256"
        }
      ],
      "name": "FundingAdded",
      "type": "event"
    },
    {
      "anonymous": false,
      "inputs": [
        {
          "indexed": false,
          "internalType": "address",
          "name": "_walletAddressGrowthTokensWithdrawn",
          "type": "address"
        },
        {
          "indexed": false,
          "internalType": "uint256",
          "name": "_amountWithdrawn",
          "type": "uint256"
        }
      ],
      "name": "GrowthTokensWithdrawn",
      "type": "event"
    },
    {
      "anonymous": false,
      "inputs": [
        {
          "indexed": false,
          "internalType": "address",
          "name": "_hyaxTokenAddress",
          "type": "address"
        }
      ],
      "name": "HyaxTokenAddressUpdated",
      "type": "event"
    },
    {
      "anonymous": false,
      "inputs": [
        {
          "indexed": false,
          "internalType": "uint64",
          "name": "version",
          "type": "uint64"
        }
      ],
      "name": "Initialized",
      "type": "event"
    },
    {
      "anonymous": false,
      "inputs": [
        {
          "indexed": false,
          "internalType": "uint8",
          "name": "_maximumBatchSizeForUpdateRewards",
          "type": "uint8"
        }
      ],
      "name": "MaximumBatchSizeForUpdateRewardsUpdated",
      "type": "event"
    },
    {
      "anonymous": false,
      "inputs": [
        {
          "indexed": false,
          "internalType": "address",
          "name": "account",
          "type": "address"
        }
      ],
      "name": "Paused",
      "type": "event"
    },
    {
      "anonymous": false,
      "inputs": [
        {
          "indexed": false,
          "internalType": "address",
          "name": "_walletAddressRewardTokensWithdrawn",
          "type": "address"
        },
        {
          "indexed": false,
          "internalType": "uint256",
          "name": "_amountWithdrawn",
          "type": "uint256"
        }
      ],
      "name": "RewardTokensWithdrawn",
      "type": "event"
    },
    {
      "anonymous": false,
      "inputs": [
        {
          "indexed": false,
          "internalType": "address",
          "name": "_sender",
          "type": "address"
        },
        {
          "indexed": false,
          "internalType": "address[]",
          "name": "_walletAddresses",
          "type": "address[]"
        },
        {
          "indexed": false,
          "internalType": "uint256[]",
          "name": "_hyaxRewards",
          "type": "uint256[]"
        }
      ],
      "name": "RewardUpdateBatchSent",
      "type": "event"
    },
    {
      "anonymous": false,
      "inputs": [
        {
          "indexed": false,
          "internalType": "address",
          "name": "_sender",
          "type": "address"
        },
        {
          "indexed": false,
          "internalType": "address",
          "name": "_walletAddress",
          "type": "address"
        },
        {
          "indexed": false,
          "internalType": "string",
          "name": "_errorMessage",
          "type": "string"
        }
      ],
      "name": "RewardUpdateFailed",
      "type": "event"
    },
    {
      "anonymous": false,
      "inputs": [
        {
          "indexed": false,
          "internalType": "address",
          "name": "_sender",
          "type": "address"
        },
        {
          "indexed": false,
          "internalType": "address",
          "name": "_walletAddress",
          "type": "address"
        },
        {
          "indexed": false,
          "internalType": "uint256",
          "name": "_hyaxReward",
          "type": "uint256"
        }
      ],
      "name": "RewardUpdateSuccess",
      "type": "event"
    },
    {
      "anonymous": false,
      "inputs": [
        {
          "indexed": false,
          "internalType": "address",
          "name": "_newRewardsUpdaterAddress",
          "type": "address"
        }
      ],
      "name": "RewardsUpdaterAddressUpdated",
      "type": "event"
    },
    {
      "anonymous": false,
      "inputs": [
        {
          "indexed": true,
          "internalType": "bytes32",
          "name": "role",
          "type": "bytes32"
        },
        {
          "indexed": true,
          "internalType": "bytes32",
          "name": "previousAdminRole",
          "type": "bytes32"
        },
        {
          "indexed": true,
          "internalType": "bytes32",
          "name": "newAdminRole",
          "type": "bytes32"
        }
      ],
      "name": "RoleAdminChanged",
      "type": "event"
    },
    {
      "anonymous": false,
      "inputs": [
        {
          "indexed": true,
          "internalType": "bytes32",
          "name": "role",
          "type": "bytes32"
        },
        {
          "indexed": true,
          "internalType": "address",
          "name": "account",
          "type": "address"
        },
        {
          "indexed": true,
          "internalType": "address",
          "name": "sender",
          "type": "address"
        }
      ],
      "name": "RoleGranted",
      "type": "event"
    },
    {
      "anonymous": false,
      "inputs": [
        {
          "indexed": true,
          "internalType": "bytes32",
          "name": "role",
          "type": "bytes32"
        },
        {
          "indexed": true,
          "internalType": "address",
          "name": "account",
          "type": "address"
        },
        {
          "indexed": true,
          "internalType": "address",
          "name": "sender",
          "type": "address"
        }
      ],
      "name": "RoleRevoked",
      "type": "event"
    },
    {
      "anonymous": false,
      "inputs": [
        {
          "indexed": false,
          "internalType": "address",
          "name": "_oldTeamMemberWalletAddress",
          "type": "address"
        },
        {
          "indexed": false,
          "internalType": "address",
          "name": "_newTeamMemberWalletAddress",
          "type": "address"
        },
        {
          "indexed": false,
          "internalType": "uint256",
          "name": "_hyaxHoldingAmount",
          "type": "uint256"
        }
      ],
      "name": "TeamMemberWalletUpdated",
      "type": "event"
    },
    {
      "anonymous": false,
      "inputs": [
        {
          "indexed": false,
          "internalType": "address",
          "name": "_walletAddressTeamTokensWithdrawn",
          "type": "address"
        },
        {
          "indexed": false,
          "internalType": "uint256",
          "name": "_amountWithdrawn",
          "type": "uint256"
        }
      ],
      "name": "TeamTokensWithdrawn",
      "type": "event"
    },
    {
      "anonymous": false,
      "inputs": [
        {
          "indexed": false,
          "internalType": "enum UpgradeableHYAXRewardsV2.FundingType",
          "name": "_fundingTypeWithdrawn",
          "type": "uint8"
        },
        {
          "indexed": false,
          "internalType": "uint256",
          "name": "_amount",
          "type": "uint256"
        }
      ],
      "name": "TokensToBurnWithdrawn",
      "type": "event"
    },
    {
      "anonymous": false,
      "inputs": [
        {
          "indexed": false,
          "internalType": "address",
          "name": "account",
          "type": "address"
        }
      ],
      "name": "Unpaused",
      "type": "event"
    },
    {
      "anonymous": false,
      "inputs": [
        {
          "indexed": false,
          "internalType": "address",
          "name": "_sender",
          "type": "address"
        },
        {
          "indexed": false,
          "internalType": "address",
          "name": "_walletAddress",
          "type": "address"
        },
        {
          "indexed": false,
          "internalType": "bool",
          "name": "_isTeamWallet",
          "type": "bool"
        },
        {
          "indexed": false,
          "internalType": "uint256",
          "name": "_hyaxHoldingAmount",
          "type": "uint256"
        }
      ],
      "name": "WalletAddedToWhitelist",
      "type": "event"
    },
    {
      "anonymous": false,
      "inputs": [
        {
          "indexed": false,
          "internalType": "address",
          "name": "_newWhiteListerAddress",
          "type": "address"
        }
      ],
      "name": "WhiteListerAddressUpdated",
      "type": "event"
    },
    {
      "anonymous": false,
      "inputs": [
        {
          "indexed": false,
          "internalType": "address",
          "name": "_senderWhitelistStatusUpdated",
          "type": "address"
        },
        {
          "indexed": false,
          "internalType": "address",
          "name": "_walletAddressWhitelistStatusUpdated",
          "type": "address"
        },
        {
          "indexed": false,
          "internalType": "bool",
          "name": "_newStatusWhitelistStatusUpdated",
          "type": "bool"
        }
      ],
      "name": "WhitelistStatusUpdated",
      "type": "event"
    },
    {
      "inputs": [],
      "name": "DEFAULT_ADMIN_ROLE",
      "outputs": [
        {
          "internalType": "bytes32",
          "name": "",
          "type": "bytes32"
        }
      ],
      "stateMutability": "view",
      "type": "function"
    },
    {
      "inputs": [],
      "name": "GROWTH_TOKENS_TOTAL",
      "outputs": [
        {
          "internalType": "uint256",
          "name": "",
          "type": "uint256"
        }
      ],
      "stateMutability": "view",
      "type": "function"
    },
    {
      "inputs": [],
      "name": "GROWTH_TOKENS_WITHDRAWAL_PER_YEAR",
      "outputs": [
        {
          "internalType": "uint256",
          "name": "",
          "type": "uint256"
        }
      ],
      "stateMutability": "view",
      "type": "function"
    },
    {
      "inputs": [],
      "name": "MIN_INTERVAL_FOR_UPDATE_REWARDS",
      "outputs": [
        {
          "internalType": "uint256",
          "name": "",
          "type": "uint256"
        }
      ],
      "stateMutability": "view",
      "type": "function"
    },
    {
      "inputs": [],
      "name": "REWARDS_UPDATER_ROLE",
      "outputs": [
        {
          "internalType": "bytes32",
          "name": "",
          "type": "bytes32"
        }
      ],
      "stateMutability": "view",
      "type": "function"
    },
    {
      "inputs": [],
      "name": "REWARD_TOKENS_PER_WEEK",
      "outputs": [
        {
          "internalType": "uint256",
          "name": "",
          "type": "uint256"
        }
      ],
      "stateMutability": "view",
      "type": "function"
    },
    {
      "inputs": [],
      "name": "REWARD_TOKENS_PER_YEAR",
      "outputs": [
        {
          "internalType": "uint256",
          "name": "",
          "type": "uint256"
        }
      ],
      "stateMutability": "view",
      "type": "function"
    },
    {
      "inputs": [],
      "name": "REWARD_TOKENS_TOTAL",
      "outputs": [
        {
          "internalType": "uint256",
          "name": "",
          "type": "uint256"
        }
      ],
      "stateMutability": "view",
      "type": "function"
    },
    {
      "inputs": [],
      "name": "TEAM_TOKENS_LOCKED_PERIOD",
      "outputs": [
        {
          "internalType": "uint256",
          "name": "",
          "type": "uint256"
        }
      ],
      "stateMutability": "view",
      "type": "function"
    },
    {
      "inputs": [],
      "name": "TEAM_TOKENS_TOTAL",
      "outputs": [
        {
          "internalType": "uint256",
          "name": "",
          "type": "uint256"
        }
      ],
      "stateMutability": "view",
      "type": "function"
    },
    {
      "inputs": [],
      "name": "TEAM_TOKENS_WITHDRAWAL_PER_YEAR",
      "outputs": [
        {
          "internalType": "uint256",
          "name": "",
          "type": "uint256"
        }
      ],
      "stateMutability": "view",
      "type": "function"
    },
    {
      "inputs": [],
      "name": "TOKENS_WITHDRAWAL_PERIOD",
      "outputs": [
        {
          "internalType": "uint256",
          "name": "",
          "type": "uint256"
        }
      ],
      "stateMutability": "view",
      "type": "function"
    },
    {
      "inputs": [],
      "name": "WHITELISTER_ROLE",
      "outputs": [
        {
          "internalType": "bytes32",
          "name": "",
          "type": "bytes32"
        }
      ],
      "stateMutability": "view",
      "type": "function"
    },
    {
      "inputs": [
        {
          "internalType": "address",
          "name": "_walletAddress",
          "type": "address"
        },
        {
          "internalType": "bool",
          "name": "_isTeamWallet",
          "type": "bool"
        },
        {
          "internalType": "uint256",
          "name": "_hyaxHoldingAmountAtWhitelistTime",
          "type": "uint256"
        }
      ],
      "name": "addWalletToWhitelist",
      "outputs": [],
      "stateMutability": "nonpayable",
      "type": "function"
    },
    {
      "inputs": [],
      "name": "calculateYearForTeamTokens",
      "outputs": [
        {
          "internalType": "uint8",
          "name": "",
          "type": "uint8"
        }
      ],
      "stateMutability": "view",
      "type": "function"
    },
    {
      "inputs": [
        {
          "internalType": "enum UpgradeableHYAXRewardsV2.FundingType",
          "name": "_fundingType",
          "type": "uint8"
        },
        {
          "internalType": "uint256",
          "name": "_amount",
          "type": "uint256"
        }
      ],
      "name": "fundSmartContract",
      "outputs": [],
      "stateMutability": "nonpayable",
      "type": "function"
    },
    {
      "inputs": [
        {
          "internalType": "bytes32",
          "name": "role",
          "type": "bytes32"
        }
      ],
      "name": "getRoleAdmin",
      "outputs": [
        {
          "internalType": "bytes32",
          "name": "",
          "type": "bytes32"
        }
      ],
      "stateMutability": "view",
      "type": "function"
    },
    {
      "inputs": [
        {
          "internalType": "bytes32",
          "name": "role",
          "type": "bytes32"
        },
        {
          "internalType": "uint256",
          "name": "index",
          "type": "uint256"
        }
      ],
      "name": "getRoleMember",
      "outputs": [
        {
          "internalType": "address",
          "name": "",
          "type": "address"
        }
      ],
      "stateMutability": "view",
      "type": "function"
    },
    {
      "inputs": [
        {
          "internalType": "bytes32",
          "name": "role",
          "type": "bytes32"
        }
      ],
      "name": "getRoleMemberCount",
      "outputs": [
        {
          "internalType": "uint256",
          "name": "",
          "type": "uint256"
        }
      ],
      "stateMutability": "view",
      "type": "function"
    },
    {
      "inputs": [
        {
          "internalType": "bytes32",
          "name": "role",
          "type": "bytes32"
        }
      ],
      "name": "getRoleMembers",
      "outputs": [
        {
          "internalType": "address[]",
          "name": "",
          "type": "address[]"
        }
      ],
      "stateMutability": "view",
      "type": "function"
    },
    {
      "inputs": [
        {
          "internalType": "bytes32",
          "name": "role",
          "type": "bytes32"
        },
        {
          "internalType": "address",
          "name": "account",
          "type": "address"
        }
      ],
      "name": "grantRole",
      "outputs": [],
      "stateMutability": "nonpayable",
      "type": "function"
    },
    {
      "inputs": [],
      "name": "growthTokensFunded",
      "outputs": [
        {
          "internalType": "uint256",
          "name": "",
          "type": "uint256"
        }
      ],
      "stateMutability": "view",
      "type": "function"
    },
    {
      "inputs": [],
      "name": "growthTokensFundingStarted",
      "outputs": [
        {
          "internalType": "bool",
          "name": "",
          "type": "bool"
        }
      ],
      "stateMutability": "view",
      "type": "function"
    },
    {
      "inputs": [],
      "name": "growthTokensInSmartContract",
      "outputs": [
        {
          "internalType": "uint256",
          "name": "",
          "type": "uint256"
        }
      ],
      "stateMutability": "view",
      "type": "function"
    },
    {
      "inputs": [],
      "name": "growthTokensLastWithdrawalTime",
      "outputs": [
        {
          "internalType": "uint256",
          "name": "",
          "type": "uint256"
        }
      ],
      "stateMutability": "view",
      "type": "function"
    },
    {
      "inputs": [],
      "name": "growthTokensStartFundingTime",
      "outputs": [
        {
          "internalType": "uint256",
          "name": "",
          "type": "uint256"
        }
      ],
      "stateMutability": "view",
      "type": "function"
    },
    {
      "inputs": [],
      "name": "growthTokensWithdrawn",
      "outputs": [
        {
          "internalType": "uint256",
          "name": "",
          "type": "uint256"
        }
      ],
      "stateMutability": "view",
      "type": "function"
    },
    {
      "inputs": [
        {
          "internalType": "bytes32",
          "name": "role",
          "type": "bytes32"
        },
        {
          "internalType": "address",
          "name": "account",
          "type": "address"
        }
      ],
      "name": "hasRole",
      "outputs": [
        {
          "internalType": "bool",
          "name": "",
          "type": "bool"
        }
      ],
      "stateMutability": "view",
      "type": "function"
    },
    {
      "inputs": [],
      "name": "hyaxToken",
      "outputs": [
        {
          "internalType": "contract IHyaxToken",
          "name": "",
          "type": "address"
        }
      ],
      "stateMutability": "view",
      "type": "function"
    },
    {
      "inputs": [],
      "name": "hyaxTokenAddress",
      "outputs": [
        {
          "internalType": "address",
          "name": "",
          "type": "address"
        }
      ],
      "stateMutability": "view",
      "type": "function"
    },
    {
      "inputs": [
        {
          "internalType": "address",
          "name": "_hyaxTokenAddress",
          "type": "address"
        }
      ],
      "name": "initialize",
      "outputs": [],
      "stateMutability": "nonpayable",
      "type": "function"
    },
    {
      "inputs": [],
      "name": "maximumBatchSizeForUpdateRewards",
      "outputs": [
        {
          "internalType": "uint8",
          "name": "",
          "type": "uint8"
        }
      ],
      "stateMutability": "view",
      "type": "function"
    },
    {
      "inputs": [],
      "name": "newFunction",
      "outputs": [
        {
          "internalType": "string",
          "name": "",
          "type": "string"
        }
      ],
      "stateMutability": "pure",
      "type": "function"
    },
    {
      "inputs": [],
      "name": "owner",
      "outputs": [
        {
          "internalType": "address",
          "name": "",
          "type": "address"
        }
      ],
      "stateMutability": "view",
      "type": "function"
    },
    {
      "inputs": [],
      "name": "pause",
      "outputs": [],
      "stateMutability": "nonpayable",
      "type": "function"
    },
    {
      "inputs": [],
      "name": "paused",
      "outputs": [
        {
          "internalType": "bool",
          "name": "",
          "type": "bool"
        }
      ],
      "stateMutability": "view",
      "type": "function"
    },
    {
      "inputs": [
        {
          "internalType": "bytes32",
          "name": "role",
          "type": "bytes32"
        },
        {
          "internalType": "address",
          "name": "callerConfirmation",
          "type": "address"
        }
      ],
      "name": "renounceRole",
      "outputs": [],
      "stateMutability": "nonpayable",
      "type": "function"
    },
    {
      "inputs": [
        {
          "internalType": "bytes32",
          "name": "role",
          "type": "bytes32"
        },
        {
          "internalType": "address",
          "name": "account",
          "type": "address"
        }
      ],
      "name": "revokeRole",
      "outputs": [],
      "stateMutability": "nonpayable",
      "type": "function"
    },
    {
      "inputs": [],
      "name": "rewardTokensDistributed",
      "outputs": [
        {
          "internalType": "uint256",
          "name": "",
          "type": "uint256"
        }
      ],
      "stateMutability": "view",
      "type": "function"
    },
    {
      "inputs": [],
      "name": "rewardTokensFunded",
      "outputs": [
        {
          "internalType": "uint256",
          "name": "",
          "type": "uint256"
        }
      ],
      "stateMutability": "view",
      "type": "function"
    },
    {
      "inputs": [],
      "name": "rewardTokensFundingStarted",
      "outputs": [
        {
          "internalType": "bool",
          "name": "",
          "type": "bool"
        }
      ],
      "stateMutability": "view",
      "type": "function"
    },
    {
      "inputs": [],
      "name": "rewardTokensInSmartContract",
      "outputs": [
        {
          "internalType": "uint256",
          "name": "",
          "type": "uint256"
        }
      ],
      "stateMutability": "view",
      "type": "function"
    },
    {
      "inputs": [],
      "name": "rewardTokensStartFundingTime",
      "outputs": [
        {
          "internalType": "uint256",
          "name": "",
          "type": "uint256"
        }
      ],
      "stateMutability": "view",
      "type": "function"
    },
    {
      "inputs": [],
      "name": "rewardTokensWithdrawn",
      "outputs": [
        {
          "internalType": "uint256",
          "name": "",
          "type": "uint256"
        }
      ],
      "stateMutability": "view",
      "type": "function"
    },
    {
      "inputs": [],
      "name": "rewardsUpdaterAddress",
      "outputs": [
        {
          "internalType": "address",
          "name": "",
          "type": "address"
        }
      ],
      "stateMutability": "view",
      "type": "function"
    },
    {
      "inputs": [
        {
          "internalType": "bytes4",
          "name": "interfaceId",
          "type": "bytes4"
        }
      ],
      "name": "supportsInterface",
      "outputs": [
        {
          "internalType": "bool",
          "name": "",
          "type": "bool"
        }
      ],
      "stateMutability": "view",
      "type": "function"
    },
    {
      "inputs": [],
      "name": "teamTokensFunded",
      "outputs": [
        {
          "internalType": "uint256",
          "name": "",
          "type": "uint256"
        }
      ],
      "stateMutability": "view",
      "type": "function"
    },
    {
      "inputs": [],
      "name": "teamTokensFundingStarted",
      "outputs": [
        {
          "internalType": "bool",
          "name": "",
          "type": "bool"
        }
      ],
      "stateMutability": "view",
      "type": "function"
    },
    {
      "inputs": [],
      "name": "teamTokensInSmartContract",
      "outputs": [
        {
          "internalType": "uint256",
          "name": "",
          "type": "uint256"
        }
      ],
      "stateMutability": "view",
      "type": "function"
    },
    {
      "inputs": [],
      "name": "teamTokensStartFundingTime",
      "outputs": [
        {
          "internalType": "uint256",
          "name": "",
          "type": "uint256"
        }
      ],
      "stateMutability": "view",
      "type": "function"
    },
    {
      "inputs": [],
      "name": "teamTokensWithdrawn",
      "outputs": [
        {
          "internalType": "uint256",
          "name": "",
          "type": "uint256"
        }
      ],
      "stateMutability": "view",
      "type": "function"
    },
    {
      "inputs": [
        {
          "internalType": "address",
          "name": "newOwner",
          "type": "address"
        }
      ],
      "name": "transferOwnership",
      "outputs": [],
      "stateMutability": "nonpayable",
      "type": "function"
    },
    {
      "inputs": [],
      "name": "unpause",
      "outputs": [],
      "stateMutability": "nonpayable",
      "type": "function"
    },
    {
      "inputs": [
        {
          "internalType": "address",
          "name": "_walletAddress",
          "type": "address"
        },
        {
          "internalType": "bool",
          "name": "_newStatus",
          "type": "bool"
        }
      ],
      "name": "updateBlacklistStatus",
      "outputs": [],
      "stateMutability": "nonpayable",
      "type": "function"
    },
    {
      "inputs": [
        {
          "internalType": "address",
          "name": "_hyaxTokenAddress",
          "type": "address"
        }
      ],
      "name": "updateHyaxTokenAddress",
      "outputs": [],
      "stateMutability": "nonpayable",
      "type": "function"
    },
    {
      "inputs": [
        {
          "internalType": "uint8",
          "name": "_maximumBatchSizeForUpdateRewards",
          "type": "uint8"
        }
      ],
      "name": "updateMaximumBatchSizeForUpdateRewards",
      "outputs": [],
      "stateMutability": "nonpayable",
      "type": "function"
    },
    {
      "inputs": [
        {
          "internalType": "address[]",
          "name": "_walletAddresses",
          "type": "address[]"
        },
        {
          "internalType": "uint256[]",
          "name": "_hyaxRewards",
          "type": "uint256[]"
        }
      ],
      "name": "updateRewardsBatch",
      "outputs": [],
      "stateMutability": "nonpayable",
      "type": "function"
    },
    {
      "inputs": [
        {
          "internalType": "address",
          "name": "_walletAddress",
          "type": "address"
        },
        {
          "internalType": "uint256",
          "name": "_hyaxRewards",
          "type": "uint256"
        }
      ],
      "name": "updateRewardsSingle",
      "outputs": [],
      "stateMutability": "nonpayable",
      "type": "function"
    },
    {
      "inputs": [
        {
          "internalType": "address",
          "name": "_rewardsUpdaterAddress",
          "type": "address"
        }
      ],
      "name": "updateRewardsUpdaterAddress",
      "outputs": [],
      "stateMutability": "nonpayable",
      "type": "function"
    },
    {
      "inputs": [
        {
          "internalType": "address",
          "name": "_oldTeamMemberWalletAddress",
          "type": "address"
        },
        {
          "internalType": "address",
          "name": "_newTeamMemberWalletAddress",
          "type": "address"
        }
      ],
      "name": "updateTeamMemberWallet",
      "outputs": [],
      "stateMutability": "nonpayable",
      "type": "function"
    },
    {
      "inputs": [
        {
          "internalType": "address",
          "name": "_whiteListerAddress",
          "type": "address"
        }
      ],
      "name": "updateWhiteListerAddress",
      "outputs": [],
      "stateMutability": "nonpayable",
      "type": "function"
    },
    {
      "inputs": [
        {
          "internalType": "address",
          "name": "_walletAddress",
          "type": "address"
        },
        {
          "internalType": "bool",
          "name": "_newStatus",
          "type": "bool"
        }
      ],
      "name": "updateWhitelistStatus",
      "outputs": [],
      "stateMutability": "nonpayable",
      "type": "function"
    },
    {
      "inputs": [
        {
          "internalType": "address",
          "name": "",
          "type": "address"
        }
      ],
      "name": "wallets",
      "outputs": [
        {
          "internalType": "uint256",
          "name": "hyaxHoldingAmount",
          "type": "uint256"
        },
        {
          "internalType": "uint256",
          "name": "hyaxHoldingAmountAtWhitelistTime",
          "type": "uint256"
        },
        {
          "internalType": "uint256",
          "name": "totalHyaxRewardsAmount",
          "type": "uint256"
        },
        {
          "internalType": "uint256",
          "name": "currentRewardsAmount",
          "type": "uint256"
        },
        {
          "internalType": "uint256",
          "name": "rewardsWithdrawn",
          "type": "uint256"
        },
        {
          "internalType": "uint256",
          "name": "addedToWhitelistTime",
          "type": "uint256"
        },
        {
          "internalType": "uint8",
          "name": "teamTokenWithdrawalTimes",
          "type": "uint8"
        },
        {
          "internalType": "uint256",
          "name": "lastRewardsWithdrawalTime",
          "type": "uint256"
        },
        {
          "internalType": "uint256",
          "name": "lastRewardsUpdateTime",
          "type": "uint256"
        },
        {
          "internalType": "bool",
          "name": "isTeamWallet",
          "type": "bool"
        },
        {
          "internalType": "bool",
          "name": "isWhitelisted",
          "type": "bool"
        },
        {
          "internalType": "bool",
          "name": "isBlacklisted",
          "type": "bool"
        }
      ],
      "stateMutability": "view",
      "type": "function"
    },
    {
      "inputs": [],
      "name": "whiteListerAddress",
      "outputs": [
        {
          "internalType": "address",
          "name": "",
          "type": "address"
        }
      ],
      "stateMutability": "view",
      "type": "function"
    },
    {
      "inputs": [],
      "name": "withdrawGrowthTokens",
      "outputs": [],
      "stateMutability": "nonpayable",
      "type": "function"
    },
    {
      "inputs": [],
      "name": "withdrawRewardTokens",
      "outputs": [],
      "stateMutability": "nonpayable",
      "type": "function"
    },
    {
      "inputs": [],
      "name": "withdrawTeamTokens",
      "outputs": [],
      "stateMutability": "nonpayable",
      "type": "function"
    },
    {
      "inputs": [
        {
          "internalType": "enum UpgradeableHYAXRewardsV2.FundingType",
          "name": "_fundingType",
          "type": "uint8"
        },
        {
          "internalType": "uint256",
          "name": "_amount",
          "type": "uint256"
        }
      ],
      "name": "withdrawTokensToBurn",
      "outputs": [],
      "stateMutability": "nonpayable",
      "type": "function"
    }
  ],
  "bytecode": "0x608060405234801561001057600080fd5b506154ed806100206000396000f3fe608060405234801561001057600080fd5b50600436106103fc5760003560e01c80638da5cb5b11610215578063d3946a8c11610125578063ebc8e2dd116100b8578063f3793b9d11610087578063f3793b9d146108ed578063f8ff46c6146108fa578063f972c02714610903578063fafd7c2014610916578063fd5595261461092957600080fd5b8063ebc8e2dd146108a5578063efce5587146108b2578063f2fde38b146108c5578063f32217b0146108d857600080fd5b8063de51d567116100f4578063de51d5671461086d578063e2ccbfe41461087f578063e3682a5d14610892578063e774ce431461089c57600080fd5b8063d3946a8c14610833578063d547741f14610846578063d7e57fda14610859578063dcb7ff6b1461086257600080fd5b8063a3246ad3116101a8578063c07732a311610177578063c07732a3146107e4578063c1cc52b3146107f7578063c4d66de814610804578063ca15c87314610817578063d356b49a1461082a57600080fd5b8063a3246ad31461078a578063a868e997146107aa578063b4ba9fd7146107bd578063b8360806146107d157600080fd5b8063953b7ef8116101e4578063953b7ef81461075e5780639656cd8c146107665780639bae90021461076f578063a217fddf1461078257600080fd5b80638da5cb5b1461071e5780638e6d32df146107265780639010d07c1461073857806391d148541461074b57600080fd5b8063570618e111610310578063687a83f8116102a35780638456cb59116102725780638456cb591461060757806389b08f111461060f5780638a194d04146106e85780638bb4dadd146106fb5780638da2e27f1461071557600080fd5b8063687a83f8146105cf5780636e3ce4e1146105d85780636fce7873146105e157806381f8ca1b146105f457600080fd5b80636148c783116102df5780636148c78314610592578063647a5a781461059b578063653c3a47146105a457806365699d28146105b757600080fd5b8063570618e11461056157806359aa8966146105765780635c975abb146105815780635d70203b1461058957600080fd5b8063334c4cb3116103935780633ba10a56116103625780633ba10a56146105235780633f4ba83a1461053657806342ecb4641461053e5780634c4dc42e146105465780635493b30d1461054e57600080fd5b8063334c4cb3146104ec57806336568abe146104f5578063370243dc146105085780633768c0291461051057600080fd5b80631e6b4028116103cf5780631e6b40281461049f578063248a9ca3146104b15780632574cd9d146104c45780632f2ff15d146104d957600080fd5b806301ffc9a714610401578063031f6589146104295780631035fc09146104545780631b28d63e1461046b575b600080fd5b61041461040f3660046149ad565b610932565b60405190151581526020015b60405180910390f35b60015461043c906001600160a01b031681565b6040516001600160a01b039091168152602001610420565b61045d600c5481565b604051908152602001610420565b60408051808201825260128152712732bb90333ab731ba34b7b71034b7102b1960711b602082015290516104209190614a27565b61045d6a6342fd08f00f637800000081565b61045d6104bf366004614a3a565b61095d565b6104d76104d2366004614a53565b61097f565b005b6104d76104e7366004614a92565b610aa2565b61045d60105481565b6104d7610503366004614a92565b610ac4565b6104d7610afc565b6104d761051e366004614abe565b610e7a565b60025461043c906001600160a01b031681565b6104d76115aa565b61045d6115bd565b6104d76115d6565b61045d6b04d8c55aefb8c05b5c00000081565b61045d60008051602061543883398151915281565b61045d6301e1338081565b610414611981565b61045d60035481565b61045d60045481565b61045d600b5481565b6104d76105b2366004614ae8565b611997565b60135461043c9061010090046001600160a01b031681565b61045d60065481565b61045d60125481565b6104d76105ef366004614ae8565b611aa8565b61045d6b03e09de2596099e2b000000081565b6104d7611baf565b61068661061d366004614ae8565b601560205260009081526040902080546001820154600283015460038401546004850154600586015460068701546007880154600889015460099099015497989697959694959394929360ff92831693919281811691610100810482169162010000909104168c565b604080519c8d5260208d019b909b52998b019890985260608a0196909652608089019490945260a088019290925260ff1660c087015260e086015261010085015215156101208401521515610140830152151561016082015261018001610420565b6104d76106f6366004614b11565b611bc2565b61070361214f565b60405160ff9091168152602001610420565b61045d60115481565b61043c61222d565b61045d6af8277896582678ac00000081565b61043c610746366004614b50565b61223e565b610414610759366004614a92565b61226d565b6104d76122a5565b61045d60075481565b6104d761077d366004614ae8565b6127f3565b61045d600081565b61079d610798366004614a3a565b612a62565b6040516104209190614b72565b61045d6b07c13bc4b2c133c56000000081565b60145461070390600160a01b900460ff1681565b6104d76107df366004614bbf565b612a94565b6104d76107f2366004614bbf565b612bcb565b600d546104149060ff1681565b6104d7610812366004614ae8565b612d47565b61045d610825366004614a3a565b6130ac565b61045d60055481565b6104d7610841366004614bf6565b6130d2565b6104d7610854366004614a92565b6136a2565b61045d600a5481565b61045d630784ce0081565b61045d6a7c13bc4b2c133c5600000081565b6104d761088d366004614bf6565b6136be565b61045d6207e90081565b61045d600f5481565b6013546104149060ff1681565b6104d76108c0366004614c72565b613b4a565b6104d76108d3366004614ae8565b613e71565b61045d60008051602061541883398151915281565b6008546104149060ff1681565b61045d60095481565b60145461043c906001600160a01b031681565b6104d7610924366004614cde565b613fe4565b61045d600e5481565b60006001600160e01b03198216635a05180f60e01b14806109575750610957826143ac565b92915050565b6000908152600080516020615458833981519152602052604090206001015490565b600061098a816143e1565b60008260ff16116109e25760405162461bcd60e51b815260206004820152601e60248201527f4d6178696d756d2062617463682073697a652063616e6e6f742062652030000060448201526064015b60405180910390fd5b60648260ff161115610a4c5760405162461bcd60e51b815260206004820152602d60248201527f4d6178696d756d2062617463682073697a652063616e6e6f742062652067726560448201526c061746572207468616e2031303609c1b60648201526084016109d9565b6014805460ff60a01b1916600160a01b60ff8516908102919091179091556040519081527f6f2bb1da32e5620d3a499f2a9b7e558ff34e34134e8db9a112ff5982ae969094906020015b60405180910390a15050565b610aab8261095d565b610ab4816143e1565b610abe83836143eb565b50505050565b6001600160a01b0381163314610aed5760405163334bd91960e11b815260040160405180910390fd5b610af78282614430565b505050565b3360008181526015602052604090206009015460ff610100909104161515600114610b395760405162461bcd60e51b81526004016109d990614cfa565b610b4161446c565b610b49611981565b15610b665760405162461bcd60e51b81526004016109d990614d31565b3360009081526015602052604090206009015460ff610100909104161515600114610ba35760405162461bcd60e51b81526004016109d990614cfa565b3360009081526015602052604090206009015462010000900460ff1615610bdc5760405162461bcd60e51b81526004016109d990614d5d565b60135460ff16610bfe5760405162461bcd60e51b81526004016109d990614d94565b6b03e09de2596099e2b000000060105410610c695760405162461bcd60e51b815260206004820152602560248201527f416c6c2072657761726420746f6b656e732068617665206265656e2077697468604482015264323930bbb760d91b60648201526084016109d9565b3360009081526015602052604090206003015480610cc95760405162461bcd60e51b815260206004820181905260248201527f4e6f207265776172647320617661696c61626c6520746f20776974686472617760448201526064016109d9565b601154811115610ceb5760405162461bcd60e51b81526004016109d990614df2565b3360009081526015602052604081206004018054839290610d0d908490614e5e565b9091555050336000908152601560205260408120600381018290554260079091015560118054839290610d41908490614e71565b925050819055508060106000828254610d5a9190614e5e565b909155505060025460405163a9059cbb60e01b8152336004820152602481018390526000916001600160a01b03169063a9059cbb906044016020604051808303816000875af1158015610db1573d6000803e3d6000fd5b505050506040513d601f19601f82011682018060405250810190610dd59190614e84565b905080610e245760405162461bcd60e51b815260206004820181905260248201527f4661696c656420746f207472616e736665722072657761726420746f6b656e7360448201526064016109d9565b60408051338152602081018490527fd8a9090919355543d8c79690ceee3933c0bd4ffc742ae7f790d4bf44a043bb6c91015b60405180910390a15050610e77600160008051602061549883398151915255565b50565b6000610e85816143e1565b610e8d61446c565b610e9561222d565b6001600160a01b0316336001600160a01b031614610f0e5760405162461bcd60e51b815260206004820152603060248201527f4f6e6c7920746865206f776e65722063616e207570646174652074686520746560448201526f185b481b595b58995c881dd85b1b195d60821b60648201526084016109d9565b600d5460ff16610f865760405162461bcd60e51b815260206004820152603d60248201527f5465616d20746f6b656e732066756e64696e6720686173206e6f74207374617260448201527f746564207965742c206e6f20746f6b656e7320746f207265636f76657200000060648201526084016109d9565b6001600160a01b03831660009081526015602052604090206009015460ff166110015760405162461bcd60e51b815260206004820152602760248201527f4f6c642077616c6c65742061646472657373206973206e6f742061207465616d604482015266081dd85b1b195d60ca1b60648201526084016109d9565b6001600160a01b038316600090815260156020526040902060090154610100900460ff1661108b5760405162461bcd60e51b815260206004820152603160248201527f4f6c64207465616d206d656d6265722077616c6c6574206164647265737320696044820152701cc81b9bdd081dda1a5d195b1a5cdd1959607a1b60648201526084016109d9565b6001600160a01b03831660009081526015602052604090206009015462010000900460ff16156111135760405162461bcd60e51b815260206004820152602d60248201527f4f6c64207465616d206d656d6265722077616c6c65742061646472657373206960448201526c1cc8189b1858dadb1a5cdd1959609a1b60648201526084016109d9565b6001600160a01b03821661118f5760405162461bcd60e51b815260206004820152603960248201527f4e6577207465616d206d656d6265722077616c6c65742061646472657373206360448201527f616e6e6f7420626520746865207a65726f20616464726573730000000000000060648201526084016109d9565b826001600160a01b0316826001600160a01b03160361123c5760405162461bcd60e51b815260206004820152605760248201527f4e6577207465616d206d656d6265722077616c6c65742061646472657373206360448201527f616e6e6f74206265207468652073616d6520617320746865206f6c642074656160648201527f6d206d656d6265722077616c6c65742061646472657373000000000000000000608482015260a4016109d9565b6001600160a01b038216600090815260156020526040902060090154610100900460ff16156112cb5760405162461bcd60e51b815260206004820152603560248201527f4e6577207465616d206d656d6265722077616c6c6574206164647265737320696044820152741cc8185b1c9958591e481dda1a5d195b1a5cdd1959605a1b60648201526084016109d9565b6001600160a01b03821660009081526015602052604090206009015460ff161561135d5760405162461bcd60e51b815260206004820152603760248201527f4e6577207465616d206d656d6265722077616c6c65742061646472657373206960448201527f7320616c72656164792061207465616d2077616c6c657400000000000000000060648201526084016109d9565b6001600160a01b03821660009081526015602052604090206009015462010000900460ff16156113e55760405162461bcd60e51b815260206004820152602d60248201527f4e6577207465616d206d656d6265722077616c6c65742061646472657373206960448201526c1cc8189b1858dadb1a5cdd1959609a1b60648201526084016109d9565b6001600160a01b03808416600090815260156020526040808220928516825281206009808201805462ffffff199081166101011782556001808701805482870155875486556005808901549087015560068089018054918801805460ff1990811660ff94851617909155968a0180549095166201000017909455908790559587558154909316905554919261010090920490911615151480156114a257506001600160a01b03841660009081526015602052604090206005015415155b80156114c757506001600160a01b038516600090815260156020526040902060010154155b80156114e957506001600160a01b038516600090815260156020526040902054155b6115455760405162461bcd60e51b815260206004820152602760248201527f4661696c656420746f2075706461746520746865207465616d206d656d626572604482015266081dd85b1b195d60ca1b60648201526084016109d9565b8054604080516001600160a01b0388811682528716602082015280820192909252517fa9defc7864dd156fa1c6384b685620c7012fa46b9e570145f7aedecbbf38e9ef9181900360600190a15050610af7600160008051602061549883398151915255565b60006115b5816143e1565b610e776144b8565b6115d360346a7c13bc4b2c133c56000000614ea1565b81565b60006115e1816143e1565b6115e961446c565b6115f1611981565b1561160e5760405162461bcd60e51b81526004016109d990614d31565b61161661222d565b6001600160a01b0316336001600160a01b0316146116885760405162461bcd60e51b815260206004820152602960248201527f4f6e6c7920746865206f776e65722063616e2077697468647261772067726f77604482015268746820746f6b656e7360b81b60648201526084016109d9565b60085460ff166116aa5760405162461bcd60e51b81526004016109d990614ec3565b6301e133806007546116bc9190614e5e565b4210156117255760405162461bcd60e51b815260206004820152603160248201527f43616e6e6f74207769746864726177206265666f7265203120796561722061666044820152701d195c88199d5b991a5b99c81cdd185c9d607a1b60648201526084016109d9565b6b07c13bc4b2c133c560000000600454106117905760405162461bcd60e51b815260206004820152602560248201527f416c6c2067726f77746820746f6b656e732068617665206265656e2077697468604482015264323930bbb760d91b60648201526084016109d9565b6301e133806006546117a29190614e5e565b4210156117f15760405162461bcd60e51b815260206004820152601f60248201527f43616e206f6e6c79207769746864726177206f6e63652070657220796561720060448201526064016109d9565b6004546a6342fd08f00f63780000009060009061180f908390614e5e565b90506b07c13bc4b2c133c5600000008111156118415760045461183e906b07c13bc4b2c133c560000000614e71565b91505b81600460008282546118539190614e5e565b92505081905550816005600082825461186c9190614e71565b9091555050426006556002546001600160a01b031663a9059cbb61188e61222d565b6040516001600160e01b031960e084901b1681526001600160a01b039091166004820152602481018590526044016020604051808303816000875af11580156118db573d6000803e3d6000fd5b505050506040513d601f19601f820116820180604052508101906118ff9190614e84565b61194b5760405162461bcd60e51b815260206004820181905260248201527f4661696c656420746f207472616e736665722067726f77746820746f6b656e7360448201526064016109d9565b60408051338152602081018490527fd0a5227bfa49cf178a8f7a87b90318ef05fc8330f469e0dccbe075784f426dbf9101610e56565b6000805160206154788339815191525460ff1690565b60006119a2816143e1565b6001600160a01b038216611a105760405162461bcd60e51b815260206004820152602f60248201527f5768697465206c697374657220616464726573732063616e6e6f74206265207460448201526e6865207a65726f206164647265737360881b60648201526084016109d9565b601354611a3a906000805160206154388339815191529061010090046001600160a01b03166136a2565b611a5260008051602061543883398151915283610aa2565b60138054610100600160a81b0319166101006001600160a01b038516908102919091179091556040519081527f6bdab87cebf48ec7916084ab67bb3d8a596e0d1e3b5572596393f266d9ea305790602001610a96565b6000611ab3816143e1565b6001600160a01b038216611b245760405162461bcd60e51b815260206004820152603260248201527f52657761726473207570646174657220616464726573732063616e6e6f7420626044820152716520746865207a65726f206164647265737360701b60648201526084016109d9565b601454611b4990600080516020615418833981519152906001600160a01b03166136a2565b611b6160008051602061541883398151915283610aa2565b601480546001600160a01b0319166001600160a01b0384169081179091556040519081527f7946fb32eb39758c8854ba2c1d63c5ed4c7a95cdb748090128fa33a803a2989490602001610a96565b6000611bba816143e1565b610e77614518565b611bda6000805160206154388339815191523361226d565b80611beb5750611beb60003361226d565b611c075760405162461bcd60e51b81526004016109d990614f21565b6001600160a01b038316611c685760405162461bcd60e51b815260206004820152602260248201527f416464726573732063616e6e6f7420626520746865207a65726f206164647265604482015261737360f01b60648201526084016109d9565b6001600160a01b0383163b15611cd35760405162461bcd60e51b815260206004820152602a60248201527f496e76616c69642061646472657373206c656e677468206f7220636f6e7472616044820152696374206164647265737360b01b60648201526084016109d9565b6001600160a01b038316600090815260156020526040902060090154610100900460ff1615611d445760405162461bcd60e51b815260206004820152601d60248201527f57616c6c657420697320616c72656164792077686974656c697374656400000060448201526064016109d9565b6001600160a01b03831660009081526015602052604090206009015462010000900460ff1615611d865760405162461bcd60e51b81526004016109d990614d5d565b6001600160a01b03831660009081526015602052604090206005015415611e065760405162461bcd60e51b815260206004820152602e60248201527f57616c6c65742068617320616c7265616479206265656e20616464656420746f60448201526d081d1a19481dda1a5d195b1a5cdd60921b60648201526084016109d9565b6001600160a01b03831660009081526015602052604081206009810180548515801562ffffff19909216919091176101001790915542600583015560068201805460ff19169055600782018390556003820183905560028201839055600490910191909155611fba5760008111611ef35760405162461bcd60e51b8152602060048201526044602482018190527f5465616d2077616c6c657473206d757374206265206164646564207769746820908201527f61206879617820686f6c64696e6720616d6f756e7420677265617465722074686064820152630616e20360e41b608482015260a4016109d9565b6b04d8c55aefb8c05b5c000000811115611f935760405162461bcd60e51b815260206004820152605560248201527f5465616d2077616c6c657473206d75737420626520616464656420776974682060448201527f61206879617820686f6c64696e6720616d6f756e74206c657373207468616e2060648201527474686520746f74616c207465616d20746f6b656e7360581b608482015260a4016109d9565b6001600160a01b038316600090815260156020526040902060018101829055819055612059565b80156120385760405162461bcd60e51b815260206004820152604160248201527f4e6f6e207465616d2077616c6c6574732063616e206f6e6c792062652061646460448201527f6564207769746820686f6c64696e6720616d6f756e7420657175616c20746f206064820152600360fc1b608482015260a4016109d9565b6001600160a01b038316600090815260156020526040812060018101829055555b6001600160a01b03831660009081526015602052604090206009015460ff61010090910416151560011480156120a957506001600160a01b03831660009081526015602052604090206005015415155b6120f55760405162461bcd60e51b815260206004820152601e60248201527f4661696c656420746f2077686974656c697374207468652077616c6c6574000060448201526064016109d9565b604080513381526001600160a01b038516602082015283151591810191909152606081018290527fc294e522ba20b0699fe578649971cefdfdc8d0e330db37d0437849f38b3960e6906080015b60405180910390a1505050565b600d5460009060ff166121b45760405162461bcd60e51b815260206004820152602760248201527f5465616d20746f6b656e732066756e64696e6720686173206e6f7420737461726044820152661d1959081e595d60ca1b60648201526084016109d9565b6000600c54426121c49190614e71565b9050630f099c0081106121d957600591505090565b630d28688081106121ec57600491505090565b630b47350081106121ff57600391505090565b6309660180811061221257600291505090565b630784ce00811061222557600191505090565b600091505090565b6000612239818061223e565b905090565b60008281526000805160206153f88339815191526020819052604082206122659084614561565b949350505050565b6000918252600080516020615458833981519152602090815260408084206001600160a01b0393909316845291905290205460ff1690565b3360008181526015602052604090206009015460ff6101009091041615156001146122e25760405162461bcd60e51b81526004016109d990614cfa565b3360008181526015602052604090206009015462010000900460ff161561231b5760405162461bcd60e51b81526004016109d990614d5d565b61232361446c565b61232b611981565b156123485760405162461bcd60e51b81526004016109d990614d31565b3360009081526015602052604090206009015460ff1615156001146123d55760405162461bcd60e51b815260206004820152603960248201527f4f6e6c79207465616d2077616c6c6574732063616e207769746864726177207460448201527f6f6b656e73207573696e6720746869732066756e6374696f6e0000000000000060648201526084016109d9565b600d5460ff166123f75760405162461bcd60e51b81526004016109d990614f7e565b3360009081526015602052604090206005015461241990630784ce0090614e5e565b4210156124985760405162461bcd60e51b815260206004820152604160248201527f43616e6e6f74207769746864726177206265666f72652034207965617273206160448201527f66746572206265696e6720616464656420746f207468652077686974656c69736064820152601d60fa1b608482015260a4016109d9565b6b04d8c55aefb8c05b5c000000600a54106125015760405162461bcd60e51b815260206004820152602360248201527f416c6c207465616d20746f6b656e732068617665206265656e2077697468647260448201526230bbb760e91b60648201526084016109d9565b336000908152601560205260409020546125685760405162461bcd60e51b815260206004820152602260248201527f4e6f206879617820686f6c64696e6720616d6f756e7420746f20776974686472604482015261617760f01b60648201526084016109d9565b61257061214f565b3360009081526015602052604090206006015460ff9182169116106125eb5760405162461bcd60e51b815260206004820152602b60248201527f43616e206f6e6c79207769746864726177207465616d20746f6b656e73206f6e60448201526a31b2903832b9103cb2b0b960a91b60648201526084016109d9565b3360009081526015602052604081206001015461260a90600590614ea1565b90506b04d8c55aefb8c05b5c00000081600a546126279190614e5e565b111561264957600a54612646906b04d8c55aefb8c05b5c000000614e71565b90505b3360009081526015602052604081208054839290612668908490614e71565b9250508190555080600a60008282546126819190614e5e565b9250508190555080600b600082825461269a9190614e71565b9091555050336000908152601560205260408120600601805460ff16916126c083614fdb565b825460ff9182166101009390930a92830291909202199091161790555060025460405163a9059cbb60e01b8152336004820152602481018390526001600160a01b039091169063a9059cbb906044016020604051808303816000875af115801561272e573d6000803e3d6000fd5b505050506040513d601f19601f820116820180604052508101906127529190614e84565b61279e5760405162461bcd60e51b815260206004820152601e60248201527f4661696c656420746f207472616e73666572207465616d20746f6b656e73000060448201526064016109d9565b60408051338152602081018390527f1e63f692f0a30c3957ac289d6a44616bd119f5502eba5ae440f3158cc2c2d291910160405180910390a1506127ef600160008051602061549883398151915255565b5050565b60006127fe816143e1565b61280661222d565b6001600160a01b0316336001600160a01b03161461287f5760405162461bcd60e51b815260206004820152603060248201527f4f6e6c7920746865206f776e65722063616e207570646174652074686520687960448201526f617820746f6b656e206164647265737360801b60648201526084016109d9565b6001600160a01b0382166128eb5760405162461bcd60e51b815260206004820152602d60248201527f4879617820746f6b656e20616464726573732063616e6e6f742062652074686560448201526c207a65726f206164647265737360981b60648201526084016109d9565b60405163090b282b60e31b6020820152829060240160405160208183030381529060405280519060200120816001600160a01b03166395d89b416040518163ffffffff1660e01b8152600401600060405180830381865afa158015612954573d6000803e3d6000fd5b505050506040513d6000823e601f3d908101601f1916820160405261297c919081019061503d565b60405160200161298c91906150cc565b6040516020818303038152906040528051906020012014612a085760405162461bcd60e51b815260206004820152603060248201527f546f6b656e2061646472657373206d75737420626520612076616c696420485960448201526f415820746f6b656e206164647265737360801b60648201526084016109d9565b600180546001600160a01b0385166001600160a01b0319918216811790925560028054909116821790556040519081527f6b4289497c1ee1251f23ffec949802440dac6fc64d4bd0b4efb97a553005829590602001612142565b60008181526000805160206153f88339815191526020819052604090912060609190612a8d9061456d565b9392505050565b612aac6000805160206154388339815191523361226d565b80612abd5750612abd60003361226d565b612ad95760405162461bcd60e51b81526004016109d990614f21565b6001600160a01b0382166000908152601560205260409020600901548115156201000090910460ff16151503612b215760405162461bcd60e51b81526004016109d9906150e8565b6001600160a01b0382166000908152601560205260409020600901805462ff000019166201000083151590810291909117909155600103612b81576001600160a01b0382166000908152601560205260409020600901805461ff00191690555b604080513381526001600160a01b0384166020820152821515918101919091527f89a9c56967d4535d54c90bffd7cbd09f6d2a4c8e26b9e7f033f199d144e12b4e90606001610a96565b612be36000805160206154388339815191523361226d565b80612bf45750612bf460003361226d565b612c105760405162461bcd60e51b81526004016109d990614f21565b6001600160a01b03821660009081526015602052604090206009015481151561010090910460ff16151503612c575760405162461bcd60e51b81526004016109d9906150e8565b6001600160a01b0382166000908152601560205260408120600501549003612cd45760405162461bcd60e51b815260206004820152602a60248201527f57616c6c657420686173206e6f74206265656e20616464656420746f20746865604482015269081dda1a5d195b1a5cdd60b21b60648201526084016109d9565b6001600160a01b038216600081815260156020908152604091829020600901805461ff00191661010086151590810291909117909155825133815291820193909352908101919091527f70bbee4e66e3fd40f7da099410cfd723ed4a0b4fec11f6cc968e850db827a88b90606001610a96565b7ff0c57e16840df040f15088dc2f81fe391c3923bec73e23a9662efc9c229c6a008054600160401b810460ff16159067ffffffffffffffff16600081158015612d8d5750825b905060008267ffffffffffffffff166001148015612daa5750303b155b905081158015612db8575080155b15612dd65760405163f92ee8a960e01b815260040160405180910390fd5b845467ffffffffffffffff191660011785558315612e0057845460ff60401b1916600160401b1785555b612e0861457a565b612e10614584565b612e18614594565b612e236000336143eb565b5060138054610100600160a81b0319167401c2f012de19e6436744c3f81f56e9e70c93a8c3001790819055612e7690600080516020615438833981519152906001600160a01b03610100909104166143eb565b50601480546001600160a01b0319167301c2f012de19e6436744c3f81f56e9e70c93a8c3908117909155612eb990600080516020615418833981519152906143eb565b50600180546001600160a01b03199081166001600160a01b03891690811790925560028054909116821790556000600381905560048181556005829055600682905560078290556008805460ff199081169091556009839055600a839055600b839055600c839055600d805482169055600e839055600f8390556010839055601183905560128390556013805490911690556014805460ff60a01b1916601960a21b1790556040805163090b282b60e31b6020808301919091528251808303909401845260248201808452845194909101939093206395d89b4160e01b90935290519193926395d89b41926028808401938290030181865afa158015612fc3573d6000803e3d6000fd5b505050506040513d6000823e601f3d908101601f19168201604052612feb919081019061503d565b604051602001612ffb91906150cc565b604051602081830303815290604052805190602001201461305e5760405162461bcd60e51b815260206004820152601f60248201527f4879617820746f6b656e2061646472657373206973206e6f742076616c69640060448201526064016109d9565b83156130a457845460ff60401b19168555604051600181527fc7f505b2f371ae2175ee4913f4499e1f2633a7b5936321eed1cdaeb6115181d29060200160405180910390a15b505050505050565b60008181526000805160206153f8833981519152602081905260408220612a8d906145a4565b60006130dd816143e1565b6130e561446c565b6130ed611981565b1561310a5760405162461bcd60e51b81526004016109d990614d31565b61311261222d565b6001600160a01b0316336001600160a01b0316146131855760405162461bcd60e51b815260206004820152602a60248201527f4f6e6c7920746865206f776e65722063616e2066756e642074686520736d61726044820152691d0818dbdb9d1c9858dd60b21b60648201526084016109d9565b600083600281111561319957613199615136565b14806131b6575060018360028111156131b4576131b4615136565b145b806131d2575060028360028111156131d0576131d0615136565b145b6132155760405162461bcd60e51b8152602060048201526014602482015273496e76616c69642066756e64696e67207479706560601b60448201526064016109d9565b600082116132655760405162461bcd60e51b815260206004820152601d60248201527f416d6f756e74206d7573742062652067726561746572207468616e203000000060448201526064016109d9565b6002546040516323b872dd60e01b8152336004820152306024820152604481018490526001600160a01b03909116906323b872dd906064016020604051808303816000875af11580156132bc573d6000803e3d6000fd5b505050506040513d601f19601f820116820180604052508101906132e09190614e84565b6133465760405162461bcd60e51b815260206004820152603160248201527f54686572652077617320616e206572726f72206f6e20726563656976696e672060448201527074686520746f6b656e2066756e64696e6760781b60648201526084016109d9565b600083600281111561335a5761335a615136565b03613450576b07c13bc4b2c133c5600000008260035461337a9190614e5e565b11156133fa5760405162461bcd60e51b815260206004820152604360248201527f416d6f756e7420746f2066756e642069732067726561746572207468616e207460448201527f686520746f74616c20696e74656e74656420666f722067726f77746820746f6b606482015262656e7360e81b608482015260a4016109d9565b816003600082825461340c9190614e5e565b9250508190555081600560008282546134259190614e5e565b909155505060085460ff1661344b576008805460ff191660011790554260078190556006555b613652565b600183600281111561346457613464615136565b03613552576b04d8c55aefb8c05b5c000000826009546134849190614e5e565b11156135025760405162461bcd60e51b815260206004820152604160248201527f416d6f756e7420746f2066756e642069732067726561746572207468616e207460448201527f686520746f74616c20696e74656e74656420666f72207465616d20746f6b656e6064820152607360f81b608482015260a4016109d9565b81600960008282546135149190614e5e565b9250508190555081600b600082825461352d9190614e5e565b9091555050600d5460ff1661344b57600d805460ff1916600117905542600c55613652565b600283600281111561356657613566615136565b03613652576b03e09de2596099e2b000000082600e546135869190614e5e565b11156136065760405162461bcd60e51b815260206004820152604360248201527f416d6f756e7420746f2066756e642069732067726561746572207468616e207460448201527f686520746f74616c20696e74656e74656420666f722072657761726420746f6b606482015262656e7360e81b608482015260a4016109d9565b81600e60008282546136189190614e5e565b9250508190555081601160008282546136319190614e5e565b909155505060135460ff16613652576013805460ff19166001179055426012555b7fbc0b9ecc68ec48681b8f5718fa26b9ce02021220455be5f5837a944140a80ea3838360405161368392919061514c565b60405180910390a1610af7600160008051602061549883398151915255565b6136ab8261095d565b6136b4816143e1565b610abe8383614430565b60006136c9816143e1565b6136d161446c565b6136d9611981565b156136f65760405162461bcd60e51b81526004016109d990614d31565b6136fe61222d565b6001600160a01b0316336001600160a01b0316146137695760405162461bcd60e51b815260206004820152602260248201527f4f6e6c7920746865206f776e65722063616e20776974686472617720746f6b656044820152616e7360f01b60648201526084016109d9565b600083600281111561377d5761377d615136565b148061379a5750600183600281111561379857613798615136565b145b806137b6575060028360028111156137b4576137b4615136565b145b6137f95760405162461bcd60e51b8152602060048201526014602482015273496e76616c69642066756e64696e67207479706560601b60448201526064016109d9565b600082116138495760405162461bcd60e51b815260206004820152601d60248201527f416d6f756e74206d7573742062652067726561746572207468616e203000000060448201526064016109d9565b600083600281111561385d5761385d615136565b036139125760085460ff166138845760405162461bcd60e51b81526004016109d990614ec3565b6005548211156138f55760405162461bcd60e51b815260206004820152603660248201527f496e73756666696369656e742067726f77746820746f6b656e7320696e2074686044820152756520636f6e747261637420746f20776974686472617760501b60648201526084016109d9565b81600560008282546139079190614e71565b90915550613a439050565b600183600281111561392657613926615136565b036139ce57600d5460ff1661394d5760405162461bcd60e51b81526004016109d990614f7e565b600b548211156139bc5760405162461bcd60e51b815260206004820152603460248201527f496e73756666696369656e74207465616d20746f6b656e7320696e2074686520604482015273636f6e747261637420746f20776974686472617760601b60648201526084016109d9565b81600b60008282546139079190614e71565b60028360028111156139e2576139e2615136565b03613a435760135460ff16613a095760405162461bcd60e51b81526004016109d990614d94565b601154821115613a2b5760405162461bcd60e51b81526004016109d990614df2565b8160116000828254613a3d9190614e71565b90915550505b6002546001600160a01b031663a9059cbb613a5c61222d565b6040516001600160e01b031960e084901b1681526001600160a01b039091166004820152602481018590526044016020604051808303816000875af1158015613aa9573d6000803e3d6000fd5b505050506040513d601f19601f82011682018060405250810190613acd9190614e84565b613b195760405162461bcd60e51b815260206004820181905260248201527f4661696c656420746f207472616e736665722067726f77746820746f6b656e7360448201526064016109d9565b7fb9db6f85cd4e97884845cfb10d7fbba4d9cd4b9516cf2795b4c50cd886875bab838360405161368392919061514c565b613b626000805160206154188339815191523361226d565b80613b735750613b7360003361226d565b80613b7d57503330145b613b995760405162461bcd60e51b81526004016109d990615178565b613ba161446c565b60135460ff16613bc35760405162461bcd60e51b81526004016109d9906151ef565b82613c095760405162461bcd60e51b8152602060048201526016602482015275042617463682073697a652063616e6e6f7420626520360541b60448201526064016109d9565b601454600160a01b900460ff16831115613c715760405162461bcd60e51b8152602060048201526024808201527f42617463682073697a6520657863656564732074686520646566696e6564206c6044820152631a5b5a5d60e21b60648201526084016109d9565b828114613cc05760405162461bcd60e51b815260206004820152601860248201527f4172726179206c656e67746873206d757374206d61746368000000000000000060448201526064016109d9565b60005b83811015613e1a573063fafd7c20868684818110613ce357613ce361524c565b9050602002016020810190613cf89190614ae8565b858585818110613d0a57613d0a61524c565b6040516001600160e01b031960e087901b1681526001600160a01b0390941660048501526020029190910135602483015250604401600060405180830381600087803b158015613d5957600080fd5b505af1925050508015613d6a575060015b613e0857613d76615262565b806308c379a003613dfc5750613d8a61527e565b80613d955750613dfe565b7f80c7a907fb61ff886445c2feb367d7b196637d154438ec7337eb57021ef5f5a133878785818110613dc957613dc961524c565b9050602002016020810190613dde9190614ae8565b83604051613dee93929190615308565b60405180910390a150613e08565b505b3d6000803e3d6000fd5b80613e128161533d565b915050613cc3565b507f920309e6c1df22e82236fc02a7d23e8ec36b85a821fc790c20a0e1497ce227dc3385858585604051613e52959493929190615356565b60405180910390a1610abe600160008051602061549883398151915255565b6000613e7c816143e1565b613e8461222d565b6001600160a01b0316336001600160a01b031614613ef25760405162461bcd60e51b815260206004820152602560248201527f4f6e6c7920746865206f776e65722063616e207472616e73666572206f776e65604482015264072736869760dc1b60648201526084016109d9565b6001600160a01b038216613f575760405162461bcd60e51b815260206004820152602660248201527f4f776e61626c653a206e6577206f776e657220697320746865207a65726f206160448201526564647265737360d01b60648201526084016109d9565b306001600160a01b03831603613fce5760405162461bcd60e51b815260206004820152603660248201527f4f776e61626c653a206e6577206f776e65722063616e6e6f74206265207468656044820152752073616d6520636f6e7472616374206164647265737360501b60648201526084016109d9565b613fd9600083610aa2565b6127ef6000336136a2565b613ffc6000805160206154188339815191523361226d565b8061400d575061400d60003361226d565b8061401757503330145b6140335760405162461bcd60e51b81526004016109d990615178565b60135460ff166140555760405162461bcd60e51b81526004016109d9906151ef565b6001600160a01b03821660009081526015602052604090206009015460ff61010090910416151560011461409b5760405162461bcd60e51b81526004016109d990614cfa565b6001600160a01b03821660009081526015602052604090206009015462010000900460ff16156140dd5760405162461bcd60e51b81526004016109d990614d5d565b6001600160a01b038216600090815260156020526040902060080154614107906207e90090614e5e565b4210156141695760405162461bcd60e51b815260206004820152602a60248201527f546f6f20736f6f6e20746f20757064617465207265776172647320666f7220746044820152691a1a5cc81dd85b1b195d60b21b60648201526084016109d9565b61417f60346a7c13bc4b2c133c56000000614ea1565b8111156141f6576040805162461bcd60e51b81526020600482015260248101919091527f412073696e676c652077616c6c65742063616e6e6f742068617665207265776160448201527f72647320686967686572207468616e20746865207765656b6c79206c696d697460648201526084016109d9565b6011548111156142645760405162461bcd60e51b815260206004820152603360248201527f496e73756666696369656e742072657761726420746f6b656e7320746f2064696044820152727374726962757465206173207265776172647360681b60648201526084016109d9565b6b03e09de2596099e2b000000081600f5461427f9190614e5e565b11156142e95760405162461bcd60e51b815260206004820152603360248201527f416c6c207468652072657761726420746f6b656e732068617665206265656e20604482015272185b1c9958591e48191a5cdd1c9a589d5d1959606a1b60648201526084016109d9565b80600f60008282546142fb9190614e5e565b90915550506001600160a01b03821660009081526015602052604081204260088201556002018054839290614331908490614e5e565b90915550506001600160a01b03821660009081526015602052604081206003018054839290614361908490614e5e565b9091555050604080513381526001600160a01b03841660208201529081018290527f74dd95429fe6255fb4698aa67d02afb4ebcf261c1883a417108c7d6c0abed4b090606001610a96565b60006001600160e01b03198216637965db0b60e01b148061095757506301ffc9a760e01b6001600160e01b0319831614610957565b610e7781336145ae565b60006000805160206153f88339815191528161440785856145e7565b90508015612265576000858152602083905260409020614427908561468c565b50949350505050565b60006000805160206153f88339815191528161444c85856146a1565b90508015612265576000858152602083905260409020614427908561471d565b60008051602061549883398151915280546001190161449e57604051633ee5aeb560e01b815260040160405180910390fd5b60029055565b600160008051602061549883398151915255565b6144c0614732565b600080516020615478833981519152805460ff191681557f5db9ee0a495bf2e6ff9c91a7834c1ba4fdd244a5e8aa4e537bd38aeae4b073aa335b6040516001600160a01b03909116815260200160405180910390a150565b614520614757565b600080516020615478833981519152805460ff191660011781557f62e78cea01bee320cd4e420270b5ea74000d11b0c9f74754ebdbfc544b05a258336144fa565b6000612a8d838361477d565b60606000612a8d836147a7565b614582614803565b565b61458c614803565b61458261484c565b61459c614803565b614582614854565b6000610957825490565b6145b8828261226d565b6127ef5760405163e2517d3f60e01b81526001600160a01b0382166004820152602481018390526044016109d9565b6000600080516020615458833981519152614602848461226d565b614682576000848152602082815260408083206001600160a01b03871684529091529020805460ff191660011790556146383390565b6001600160a01b0316836001600160a01b0316857f2f8788117e7eff1d82e926ec794901d17c78024a50270940304540a733656f0d60405160405180910390a46001915050610957565b6000915050610957565b6000612a8d836001600160a01b038416614875565b60006000805160206154588339815191526146bc848461226d565b15614682576000848152602082815260408083206001600160a01b0387168085529252808320805460ff1916905551339287917ff6391f5c32d9c69d2a47ea670b442974b53935d1edc7fd64eb21e047a839171b9190a46001915050610957565b6000612a8d836001600160a01b0384166148c4565b61473a611981565b61458257604051638dfc202b60e01b815260040160405180910390fd5b61475f611981565b156145825760405163d93c066560e01b815260040160405180910390fd5b60008260000182815481106147945761479461524c565b9060005260206000200154905092915050565b6060816000018054806020026020016040519081016040528092919081815260200182805480156147f757602002820191906000526020600020905b8154815260200190600101908083116147e3575b50505050509050919050565b7ff0c57e16840df040f15088dc2f81fe391c3923bec73e23a9662efc9c229c6a0054600160401b900460ff1661458257604051631afcd79f60e31b815260040160405180910390fd5b6144a4614803565b61485c614803565b600080516020615478833981519152805460ff19169055565b60008181526001830160205260408120546148bc57508154600181810184556000848152602080822090930184905584548482528286019093526040902091909155610957565b506000610957565b600081815260018301602052604081205480156146825760006148e8600183614e71565b85549091506000906148fc90600190614e71565b905080821461496157600086600001828154811061491c5761491c61524c565b906000526020600020015490508087600001848154811061493f5761493f61524c565b6000918252602080832090910192909255918252600188019052604090208390555b8554869080614972576149726153e1565b600190038181906000526020600020016000905590558560010160008681526020019081526020016000206000905560019350505050610957565b6000602082840312156149bf57600080fd5b81356001600160e01b031981168114612a8d57600080fd5b60005b838110156149f25781810151838201526020016149da565b50506000910152565b60008151808452614a138160208601602086016149d7565b601f01601f19169290920160200192915050565b602081526000612a8d60208301846149fb565b600060208284031215614a4c57600080fd5b5035919050565b600060208284031215614a6557600080fd5b813560ff81168114612a8d57600080fd5b80356001600160a01b0381168114614a8d57600080fd5b919050565b60008060408385031215614aa557600080fd5b82359150614ab560208401614a76565b90509250929050565b60008060408385031215614ad157600080fd5b614ada83614a76565b9150614ab560208401614a76565b600060208284031215614afa57600080fd5b612a8d82614a76565b8015158114610e7757600080fd5b600080600060608486031215614b2657600080fd5b614b2f84614a76565b92506020840135614b3f81614b03565b929592945050506040919091013590565b60008060408385031215614b6357600080fd5b50508035926020909101359150565b6020808252825182820181905260009190848201906040850190845b81811015614bb35783516001600160a01b031683529284019291840191600101614b8e565b50909695505050505050565b60008060408385031215614bd257600080fd5b614bdb83614a76565b91506020830135614beb81614b03565b809150509250929050565b60008060408385031215614c0957600080fd5b823560038110614c1857600080fd5b946020939093013593505050565b60008083601f840112614c3857600080fd5b50813567ffffffffffffffff811115614c5057600080fd5b6020830191508360208260051b8501011115614c6b57600080fd5b9250929050565b60008060008060408587031215614c8857600080fd5b843567ffffffffffffffff80821115614ca057600080fd5b614cac88838901614c26565b90965094506020870135915080821115614cc557600080fd5b50614cd287828801614c26565b95989497509550505050565b60008060408385031215614cf157600080fd5b614c1883614a76565b60208082526019908201527f57616c6c6574206973206e6f742077686974656c697374656400000000000000604082015260600190565b60208082526012908201527110dbdb9d1c9858dd081a5cc81c185d5cd95960721b604082015260600190565b6020808252601b908201527f57616c6c657420686173206265656e20626c61636b6c69737465640000000000604082015260600190565b602080825260409082018190527f52657761726420746f6b656e732066756e64696e6720686173206e6f74207374908201527f6172746564207965742c206e6f20746f6b656e7320746f207769746864726177606082015260800190565b60208082526036908201527f496e73756666696369656e742072657761726420746f6b656e7320696e2074686040820152756520636f6e747261637420746f20776974686472617760501b606082015260800190565b634e487b7160e01b600052601160045260246000fd5b8082018082111561095757610957614e48565b8181038181111561095757610957614e48565b600060208284031215614e9657600080fd5b8151612a8d81614b03565b600082614ebe57634e487b7160e01b600052601260045260246000fd5b500490565b602080825260409082018190527f47726f77746820746f6b656e732066756e64696e6720686173206e6f74207374908201527f6172746564207965742c206e6f20746f6b656e7320746f207769746864726177606082015260800190565b60208082526037908201527f46756e6374696f6e207265736572766564206f6e6c7920666f7220746865207760408201527f686974656c6973746572206f7220746865206f776e6572000000000000000000606082015260800190565b6020808252603e908201527f5465616d20746f6b656e732066756e64696e6720686173206e6f74207374617260408201527f746564207965742c206e6f20746f6b656e7320746f2077697468647261770000606082015260800190565b600060ff821660ff8103614ff157614ff1614e48565b60010192915050565b634e487b7160e01b600052604160045260246000fd5b601f8201601f1916810167ffffffffffffffff8111828210171561503657615036614ffa565b6040525050565b60006020828403121561504f57600080fd5b815167ffffffffffffffff8082111561506757600080fd5b818401915084601f83011261507b57600080fd5b81518181111561508d5761508d614ffa565b60405191506150a6601f8201601f191660200183615010565b8082528560208285010111156150bb57600080fd5b6144278160208401602086016149d7565b600082516150de8184602087016149d7565b9190910192915050565b6020808252602e908201527f57616c6c65742068617320616c7265616479206265656e20757064617465642060408201526d746f20746861742073746174757360901b606082015260800190565b634e487b7160e01b600052602160045260246000fd5b604081016003841061516e57634e487b7160e01b600052602160045260246000fd5b9281526020015290565b60208082526051908201527f46756e6374696f6e207265736572766564206f6e6c7920666f7220746865207260408201527f65776172647320757064617465722c20746865206f776e65722c206f72207468606082015270329031b7b73a3930b1ba1034ba39b2b63360791b608082015260a00190565b6020808252603e908201527f52657761726420746f6b656e732066756e64696e6720686173206e6f7420737460408201527f6172746564207965742c206e6f20746f6b656e7320746f207570646174650000606082015260800190565b634e487b7160e01b600052603260045260246000fd5b600060033d111561527b5760046000803e5060005160e01c5b90565b600060443d101561528c5790565b6040516003193d81016004833e81513d67ffffffffffffffff81602484011181841117156152bc57505050505090565b82850191508151818111156152d45750505050505090565b843d87010160208285010111156152ee5750505050505090565b6152fd60208286010187615010565b509095945050505050565b6001600160a01b03848116825283166020820152606060408201819052600090615334908301846149fb565b95945050505050565b60006001820161534f5761534f614e48565b5060010190565b6001600160a01b03868116825260606020808401829052908301869052600091879160808501845b898110156153a3578361539086614a76565b168252938201939082019060010161537e565b5085810360408701528681526001600160fb1b038711156153c357600080fd5b8660051b935083888383013790920190910198975050505050505050565b634e487b7160e01b600052603160045260246000fdfec1f6fe24621ce81ec5827caf0253cadb74709b061630e6b55e82371705932000472868e4e53c1b7fcecf156a706c5e7471a90d4f9323bfe0f924cb8e95eca0058619cecd8b9e095ab43867f5b69d492180450fe862e6b50bfbfb24b75dd84c8a02dd7bc7dec4dceedda775e58dd541e08a116c6c53815c0bd028192f7b626800cd5ed15c6e187e77e9aee88184c21f4f2182ab5827cb3b7e07fbedcd63f033009b779b17422d0df92223018b32b4d1fa46e071723d6817e2486d003becc55f00a2646970667358221220d97b4d20c5dccf098886b49ff0ab643524eb29d101d81219977d2f9de59457db64736f6c63430008140033",
  "linkReferences": {},
  "deployedLinkReferences": {}
}