{
  "_format": "hh-sol-artifact-1",
  "contractName": "UpgradeableHYAXRewardsV2",
  "sourceName": "contracts/UpgradeableHYAXRewardsV2.sol",
  "abi": [
    {
      "inputs": [],
      "name": "EnforcedPause",
      "type": "error"
    },
    {
      "inputs": [],
      "name": "ExpectedPause",
      "type": "error"
    },
    {
      "inputs": [],
      "name": "InvalidInitialization",
      "type": "error"
    },
    {
      "inputs": [],
      "name": "NotInitializing",
      "type": "error"
    },
    {
      "inputs": [
        {
          "internalType": "address",
          "name": "owner",
          "type": "address"
        }
      ],
      "name": "OwnableInvalidOwner",
      "type": "error"
    },
    {
      "inputs": [
        {
          "internalType": "address",
          "name": "account",
          "type": "address"
        }
      ],
      "name": "OwnableUnauthorizedAccount",
      "type": "error"
    },
    {
      "inputs": [],
      "name": "ReentrancyGuardReentrantCall",
      "type": "error"
    },
    {
      "anonymous": false,
      "inputs": [
        {
          "indexed": false,
          "internalType": "address",
          "name": "_sender",
          "type": "address"
        },
        {
          "indexed": false,
          "internalType": "address",
          "name": "_walletAddress",
          "type": "address"
        },
        {
          "indexed": false,
          "internalType": "bool",
          "name": "_newStatus",
          "type": "bool"
        }
      ],
      "name": "BlacklistStatusUpdated",
      "type": "event"
    },
    {
      "anonymous": false,
      "inputs": [
        {
          "indexed": false,
          "internalType": "enum UpgradeableHYAXRewardsV2.FundingType",
          "name": "_fundingType",
          "type": "uint8"
        },
        {
          "indexed": false,
          "internalType": "uint256",
          "name": "_amount",
          "type": "uint256"
        }
      ],
      "name": "FundingAdded",
      "type": "event"
    },
    {
      "anonymous": false,
      "inputs": [
        {
          "indexed": false,
          "internalType": "address",
          "name": "_walletAddress",
          "type": "address"
        },
        {
          "indexed": false,
          "internalType": "uint256",
          "name": "_amount",
          "type": "uint256"
        }
      ],
      "name": "GrowthTokensWithdrawn",
      "type": "event"
    },
    {
      "anonymous": false,
      "inputs": [
        {
          "indexed": false,
          "internalType": "address",
          "name": "_hyaxTokenAddress",
          "type": "address"
        }
      ],
      "name": "HyaxTokenAddressUpdated",
      "type": "event"
    },
    {
      "anonymous": false,
      "inputs": [
        {
          "indexed": false,
          "internalType": "uint64",
          "name": "version",
          "type": "uint64"
        }
      ],
      "name": "Initialized",
      "type": "event"
    },
    {
      "anonymous": false,
      "inputs": [
        {
          "indexed": false,
          "internalType": "address",
          "name": "_sender",
          "type": "address"
        },
        {
          "indexed": false,
          "internalType": "address",
          "name": "_origin",
          "type": "address"
        }
      ],
      "name": "LogSenderAndOrigin",
      "type": "event"
    },
    {
      "anonymous": false,
      "inputs": [
        {
          "indexed": false,
          "internalType": "uint8",
          "name": "_maximumBatchSizeForUpdateRewards",
          "type": "uint8"
        }
      ],
      "name": "MaximumBatchSizeForUpdateRewardsUpdated",
      "type": "event"
    },
    {
      "anonymous": false,
      "inputs": [
        {
          "indexed": true,
          "internalType": "address",
          "name": "previousOwner",
          "type": "address"
        },
        {
          "indexed": true,
          "internalType": "address",
          "name": "newOwner",
          "type": "address"
        }
      ],
      "name": "OwnershipTransferred",
      "type": "event"
    },
    {
      "anonymous": false,
      "inputs": [
        {
          "indexed": false,
          "internalType": "address",
          "name": "account",
          "type": "address"
        }
      ],
      "name": "Paused",
      "type": "event"
    },
    {
      "anonymous": false,
      "inputs": [
        {
          "indexed": false,
          "internalType": "address",
          "name": "_walletAddress",
          "type": "address"
        },
        {
          "indexed": false,
          "internalType": "uint256",
          "name": "_amount",
          "type": "uint256"
        }
      ],
      "name": "RewardTokensWithdrawn",
      "type": "event"
    },
    {
      "anonymous": false,
      "inputs": [
        {
          "indexed": false,
          "internalType": "address",
          "name": "_sender",
          "type": "address"
        },
        {
          "indexed": false,
          "internalType": "address[]",
          "name": "_walletAddresses",
          "type": "address[]"
        },
        {
          "indexed": false,
          "internalType": "uint256[]",
          "name": "_hyaxRewards",
          "type": "uint256[]"
        }
      ],
      "name": "RewardUpdateBatchSent",
      "type": "event"
    },
    {
      "anonymous": false,
      "inputs": [
        {
          "indexed": false,
          "internalType": "address",
          "name": "_sender",
          "type": "address"
        },
        {
          "indexed": false,
          "internalType": "address",
          "name": "_walletAddress",
          "type": "address"
        },
        {
          "indexed": false,
          "internalType": "string",
          "name": "_errorMessage",
          "type": "string"
        }
      ],
      "name": "RewardUpdateFailed",
      "type": "event"
    },
    {
      "anonymous": false,
      "inputs": [
        {
          "indexed": false,
          "internalType": "address",
          "name": "_sender",
          "type": "address"
        },
        {
          "indexed": false,
          "internalType": "address",
          "name": "_walletAddress",
          "type": "address"
        },
        {
          "indexed": false,
          "internalType": "uint256",
          "name": "_hyaxReward",
          "type": "uint256"
        }
      ],
      "name": "RewardUpdateSuccess",
      "type": "event"
    },
    {
      "anonymous": false,
      "inputs": [
        {
          "indexed": false,
          "internalType": "address",
          "name": "_rewardsUpdaterAddress",
          "type": "address"
        }
      ],
      "name": "RewardsUpdaterAddressUpdated",
      "type": "event"
    },
    {
      "anonymous": false,
      "inputs": [
        {
          "indexed": false,
          "internalType": "address",
          "name": "_oldTeamMemberWalletAddress",
          "type": "address"
        },
        {
          "indexed": false,
          "internalType": "address",
          "name": "_newTeamMemberWalletAddress",
          "type": "address"
        },
        {
          "indexed": false,
          "internalType": "uint256",
          "name": "_hyaxHoldingAmount",
          "type": "uint256"
        },
        {
          "indexed": false,
          "internalType": "uint256",
          "name": "_currentRewardsAmount",
          "type": "uint256"
        }
      ],
      "name": "TeamMemberTokensRecovered",
      "type": "event"
    },
    {
      "anonymous": false,
      "inputs": [
        {
          "indexed": false,
          "internalType": "address",
          "name": "_walletAddress",
          "type": "address"
        },
        {
          "indexed": false,
          "internalType": "uint256",
          "name": "_amount",
          "type": "uint256"
        }
      ],
      "name": "TeamTokensWithdrawn",
      "type": "event"
    },
    {
      "anonymous": false,
      "inputs": [
        {
          "indexed": false,
          "internalType": "enum UpgradeableHYAXRewardsV2.FundingType",
          "name": "_fundingType",
          "type": "uint8"
        },
        {
          "indexed": false,
          "internalType": "uint256",
          "name": "_amount",
          "type": "uint256"
        }
      ],
      "name": "TokensToBurnWithdrawn",
      "type": "event"
    },
    {
      "anonymous": false,
      "inputs": [
        {
          "indexed": false,
          "internalType": "address",
          "name": "account",
          "type": "address"
        }
      ],
      "name": "Unpaused",
      "type": "event"
    },
    {
      "anonymous": false,
      "inputs": [
        {
          "indexed": false,
          "internalType": "address",
          "name": "_sender",
          "type": "address"
        },
        {
          "indexed": false,
          "internalType": "address",
          "name": "_walletAddress",
          "type": "address"
        },
        {
          "indexed": false,
          "internalType": "bool",
          "name": "_isTeamWallet",
          "type": "bool"
        },
        {
          "indexed": false,
          "internalType": "uint256",
          "name": "_hyaxHoldingAmount",
          "type": "uint256"
        }
      ],
      "name": "WalletAddedToWhitelist",
      "type": "event"
    },
    {
      "anonymous": false,
      "inputs": [
        {
          "indexed": false,
          "internalType": "address",
          "name": "_whiteListerAddress",
          "type": "address"
        }
      ],
      "name": "WhiteListerAddressUpdated",
      "type": "event"
    },
    {
      "anonymous": false,
      "inputs": [
        {
          "indexed": false,
          "internalType": "address",
          "name": "_sender",
          "type": "address"
        },
        {
          "indexed": false,
          "internalType": "address",
          "name": "_walletAddress",
          "type": "address"
        },
        {
          "indexed": false,
          "internalType": "bool",
          "name": "_newStatus",
          "type": "bool"
        }
      ],
      "name": "WhitelistStatusUpdated",
      "type": "event"
    },
    {
      "inputs": [],
      "name": "GROWTH_TOKENS_TOTAL",
      "outputs": [
        {
          "internalType": "uint256",
          "name": "",
          "type": "uint256"
        }
      ],
      "stateMutability": "view",
      "type": "function"
    },
    {
      "inputs": [],
      "name": "GROWTH_TOKENS_WITHDRAWAL_PER_YEAR",
      "outputs": [
        {
          "internalType": "uint256",
          "name": "",
          "type": "uint256"
        }
      ],
      "stateMutability": "view",
      "type": "function"
    },
    {
      "inputs": [],
      "name": "MIN_INTERVAL_FOR_UPDATE_REWARDS",
      "outputs": [
        {
          "internalType": "uint256",
          "name": "",
          "type": "uint256"
        }
      ],
      "stateMutability": "view",
      "type": "function"
    },
    {
      "inputs": [],
      "name": "REWARD_TOKENS_PER_WEEK",
      "outputs": [
        {
          "internalType": "uint256",
          "name": "",
          "type": "uint256"
        }
      ],
      "stateMutability": "view",
      "type": "function"
    },
    {
      "inputs": [],
      "name": "REWARD_TOKENS_PER_YEAR",
      "outputs": [
        {
          "internalType": "uint256",
          "name": "",
          "type": "uint256"
        }
      ],
      "stateMutability": "view",
      "type": "function"
    },
    {
      "inputs": [],
      "name": "REWARD_TOKENS_TOTAL",
      "outputs": [
        {
          "internalType": "uint256",
          "name": "",
          "type": "uint256"
        }
      ],
      "stateMutability": "view",
      "type": "function"
    },
    {
      "inputs": [],
      "name": "TEAM_TOKENS_LOCKED_PERIOD",
      "outputs": [
        {
          "internalType": "uint256",
          "name": "",
          "type": "uint256"
        }
      ],
      "stateMutability": "view",
      "type": "function"
    },
    {
      "inputs": [],
      "name": "TEAM_TOKENS_TOTAL",
      "outputs": [
        {
          "internalType": "uint256",
          "name": "",
          "type": "uint256"
        }
      ],
      "stateMutability": "view",
      "type": "function"
    },
    {
      "inputs": [],
      "name": "TEAM_TOKENS_WITHDRAWAL_PER_YEAR",
      "outputs": [
        {
          "internalType": "uint256",
          "name": "",
          "type": "uint256"
        }
      ],
      "stateMutability": "view",
      "type": "function"
    },
    {
      "inputs": [],
      "name": "TOKENS_WITHDRAWAL_PERIOD",
      "outputs": [
        {
          "internalType": "uint256",
          "name": "",
          "type": "uint256"
        }
      ],
      "stateMutability": "view",
      "type": "function"
    },
    {
      "inputs": [
        {
          "internalType": "address",
          "name": "_walletAddress",
          "type": "address"
        },
        {
          "internalType": "bool",
          "name": "_isTeamWallet",
          "type": "bool"
        },
        {
          "internalType": "uint256",
          "name": "_hyaxHoldingAmountAtWhitelistTime",
          "type": "uint256"
        }
      ],
      "name": "addWalletToWhitelist",
      "outputs": [],
      "stateMutability": "nonpayable",
      "type": "function"
    },
    {
      "inputs": [],
      "name": "calculateYearForTeamTokens",
      "outputs": [
        {
          "internalType": "uint8",
          "name": "",
          "type": "uint8"
        }
      ],
      "stateMutability": "view",
      "type": "function"
    },
    {
      "inputs": [
        {
          "internalType": "enum UpgradeableHYAXRewardsV2.FundingType",
          "name": "_fundingType",
          "type": "uint8"
        },
        {
          "internalType": "uint256",
          "name": "_amount",
          "type": "uint256"
        }
      ],
      "name": "fundSmartContract",
      "outputs": [],
      "stateMutability": "nonpayable",
      "type": "function"
    },
    {
      "inputs": [],
      "name": "growthTokensFunded",
      "outputs": [
        {
          "internalType": "uint256",
          "name": "",
          "type": "uint256"
        }
      ],
      "stateMutability": "view",
      "type": "function"
    },
    {
      "inputs": [],
      "name": "growthTokensFundingStarted",
      "outputs": [
        {
          "internalType": "bool",
          "name": "",
          "type": "bool"
        }
      ],
      "stateMutability": "view",
      "type": "function"
    },
    {
      "inputs": [],
      "name": "growthTokensInSmartContract",
      "outputs": [
        {
          "internalType": "uint256",
          "name": "",
          "type": "uint256"
        }
      ],
      "stateMutability": "view",
      "type": "function"
    },
    {
      "inputs": [],
      "name": "growthTokensLastWithdrawalTime",
      "outputs": [
        {
          "internalType": "uint256",
          "name": "",
          "type": "uint256"
        }
      ],
      "stateMutability": "view",
      "type": "function"
    },
    {
      "inputs": [],
      "name": "growthTokensStartFundingTime",
      "outputs": [
        {
          "internalType": "uint256",
          "name": "",
          "type": "uint256"
        }
      ],
      "stateMutability": "view",
      "type": "function"
    },
    {
      "inputs": [],
      "name": "growthTokensWithdrawn",
      "outputs": [
        {
          "internalType": "uint256",
          "name": "",
          "type": "uint256"
        }
      ],
      "stateMutability": "view",
      "type": "function"
    },
    {
      "inputs": [],
      "name": "hyaxToken",
      "outputs": [
        {
          "internalType": "contract ERC20TokenInterface",
          "name": "",
          "type": "address"
        }
      ],
      "stateMutability": "view",
      "type": "function"
    },
    {
      "inputs": [],
      "name": "hyaxTokenAddress",
      "outputs": [
        {
          "internalType": "address",
          "name": "",
          "type": "address"
        }
      ],
      "stateMutability": "view",
      "type": "function"
    },
    {
      "inputs": [
        {
          "internalType": "address",
          "name": "_hyaxTokenAddress",
          "type": "address"
        }
      ],
      "name": "initialize",
      "outputs": [],
      "stateMutability": "nonpayable",
      "type": "function"
    },
    {
      "inputs": [],
      "name": "maximumBatchSizeForUpdateRewards",
      "outputs": [
        {
          "internalType": "uint8",
          "name": "",
          "type": "uint8"
        }
      ],
      "stateMutability": "view",
      "type": "function"
    },
    {
      "inputs": [],
      "name": "newFunction",
      "outputs": [
        {
          "internalType": "string",
          "name": "",
          "type": "string"
        }
      ],
      "stateMutability": "pure",
      "type": "function"
    },
    {
      "inputs": [],
      "name": "owner",
      "outputs": [
        {
          "internalType": "address",
          "name": "",
          "type": "address"
        }
      ],
      "stateMutability": "view",
      "type": "function"
    },
    {
      "inputs": [],
      "name": "pause",
      "outputs": [],
      "stateMutability": "nonpayable",
      "type": "function"
    },
    {
      "inputs": [],
      "name": "paused",
      "outputs": [
        {
          "internalType": "bool",
          "name": "",
          "type": "bool"
        }
      ],
      "stateMutability": "view",
      "type": "function"
    },
    {
      "inputs": [
        {
          "internalType": "address",
          "name": "_oldTeamMemberWalletAddress",
          "type": "address"
        },
        {
          "internalType": "address",
          "name": "_newTeamMemberWalletAddress",
          "type": "address"
        }
      ],
      "name": "recoverTeamTokens",
      "outputs": [],
      "stateMutability": "nonpayable",
      "type": "function"
    },
    {
      "inputs": [],
      "name": "renounceOwnership",
      "outputs": [],
      "stateMutability": "nonpayable",
      "type": "function"
    },
    {
      "inputs": [],
      "name": "rewardTokensDistributed",
      "outputs": [
        {
          "internalType": "uint256",
          "name": "",
          "type": "uint256"
        }
      ],
      "stateMutability": "view",
      "type": "function"
    },
    {
      "inputs": [],
      "name": "rewardTokensFunded",
      "outputs": [
        {
          "internalType": "uint256",
          "name": "",
          "type": "uint256"
        }
      ],
      "stateMutability": "view",
      "type": "function"
    },
    {
      "inputs": [],
      "name": "rewardTokensFundingStarted",
      "outputs": [
        {
          "internalType": "bool",
          "name": "",
          "type": "bool"
        }
      ],
      "stateMutability": "view",
      "type": "function"
    },
    {
      "inputs": [],
      "name": "rewardTokensInSmartContract",
      "outputs": [
        {
          "internalType": "uint256",
          "name": "",
          "type": "uint256"
        }
      ],
      "stateMutability": "view",
      "type": "function"
    },
    {
      "inputs": [],
      "name": "rewardTokensStartFundingTime",
      "outputs": [
        {
          "internalType": "uint256",
          "name": "",
          "type": "uint256"
        }
      ],
      "stateMutability": "view",
      "type": "function"
    },
    {
      "inputs": [],
      "name": "rewardTokensWithdrawn",
      "outputs": [
        {
          "internalType": "uint256",
          "name": "",
          "type": "uint256"
        }
      ],
      "stateMutability": "view",
      "type": "function"
    },
    {
      "inputs": [],
      "name": "rewardsUpdaterAddress",
      "outputs": [
        {
          "internalType": "address",
          "name": "",
          "type": "address"
        }
      ],
      "stateMutability": "view",
      "type": "function"
    },
    {
      "inputs": [],
      "name": "teamTokensFunded",
      "outputs": [
        {
          "internalType": "uint256",
          "name": "",
          "type": "uint256"
        }
      ],
      "stateMutability": "view",
      "type": "function"
    },
    {
      "inputs": [],
      "name": "teamTokensFundingStarted",
      "outputs": [
        {
          "internalType": "bool",
          "name": "",
          "type": "bool"
        }
      ],
      "stateMutability": "view",
      "type": "function"
    },
    {
      "inputs": [],
      "name": "teamTokensInSmartContract",
      "outputs": [
        {
          "internalType": "uint256",
          "name": "",
          "type": "uint256"
        }
      ],
      "stateMutability": "view",
      "type": "function"
    },
    {
      "inputs": [],
      "name": "teamTokensStartFundingTime",
      "outputs": [
        {
          "internalType": "uint256",
          "name": "",
          "type": "uint256"
        }
      ],
      "stateMutability": "view",
      "type": "function"
    },
    {
      "inputs": [],
      "name": "teamTokensWithdrawn",
      "outputs": [
        {
          "internalType": "uint256",
          "name": "",
          "type": "uint256"
        }
      ],
      "stateMutability": "view",
      "type": "function"
    },
    {
      "inputs": [
        {
          "internalType": "address",
          "name": "newOwner",
          "type": "address"
        }
      ],
      "name": "transferOwnership",
      "outputs": [],
      "stateMutability": "nonpayable",
      "type": "function"
    },
    {
      "inputs": [],
      "name": "unpause",
      "outputs": [],
      "stateMutability": "nonpayable",
      "type": "function"
    },
    {
      "inputs": [
        {
          "internalType": "address",
          "name": "_walletAddress",
          "type": "address"
        },
        {
          "internalType": "bool",
          "name": "_newStatus",
          "type": "bool"
        }
      ],
      "name": "updateBlacklistStatus",
      "outputs": [],
      "stateMutability": "nonpayable",
      "type": "function"
    },
    {
      "inputs": [
        {
          "internalType": "address",
          "name": "_hyaxTokenAddress",
          "type": "address"
        }
      ],
      "name": "updateHyaxTokenAddress",
      "outputs": [],
      "stateMutability": "nonpayable",
      "type": "function"
    },
    {
      "inputs": [
        {
          "internalType": "uint8",
          "name": "_maximumBatchSizeForUpdateRewards",
          "type": "uint8"
        }
      ],
      "name": "updateMaximumBatchSizeForUpdateRewards",
      "outputs": [],
      "stateMutability": "nonpayable",
      "type": "function"
    },
    {
      "inputs": [
        {
          "internalType": "address[]",
          "name": "_walletAddresses",
          "type": "address[]"
        },
        {
          "internalType": "uint256[]",
          "name": "_hyaxRewards",
          "type": "uint256[]"
        }
      ],
      "name": "updateRewardsBatch",
      "outputs": [],
      "stateMutability": "nonpayable",
      "type": "function"
    },
    {
      "inputs": [
        {
          "internalType": "address",
          "name": "_walletAddress",
          "type": "address"
        },
        {
          "internalType": "uint256",
          "name": "_hyaxRewards",
          "type": "uint256"
        }
      ],
      "name": "updateRewardsSingle",
      "outputs": [],
      "stateMutability": "nonpayable",
      "type": "function"
    },
    {
      "inputs": [
        {
          "internalType": "address",
          "name": "_rewardsUpdaterAddress",
          "type": "address"
        }
      ],
      "name": "updateRewardsUpdaterAddress",
      "outputs": [],
      "stateMutability": "nonpayable",
      "type": "function"
    },
    {
      "inputs": [
        {
          "internalType": "address",
          "name": "_whiteListerAddress",
          "type": "address"
        }
      ],
      "name": "updateWhiteListerAddress",
      "outputs": [],
      "stateMutability": "nonpayable",
      "type": "function"
    },
    {
      "inputs": [
        {
          "internalType": "address",
          "name": "_walletAddress",
          "type": "address"
        },
        {
          "internalType": "bool",
          "name": "_newStatus",
          "type": "bool"
        }
      ],
      "name": "updateWhitelistStatus",
      "outputs": [],
      "stateMutability": "nonpayable",
      "type": "function"
    },
    {
      "inputs": [
        {
          "internalType": "address",
          "name": "",
          "type": "address"
        }
      ],
      "name": "wallets",
      "outputs": [
        {
          "internalType": "uint256",
          "name": "hyaxHoldingAmount",
          "type": "uint256"
        },
        {
          "internalType": "uint256",
          "name": "hyaxHoldingAmountAtWhitelistTime",
          "type": "uint256"
        },
        {
          "internalType": "uint256",
          "name": "totalHyaxRewardsAmount",
          "type": "uint256"
        },
        {
          "internalType": "uint256",
          "name": "currentRewardsAmount",
          "type": "uint256"
        },
        {
          "internalType": "uint256",
          "name": "rewardsWithdrawn",
          "type": "uint256"
        },
        {
          "internalType": "uint256",
          "name": "addedToWhitelistTime",
          "type": "uint256"
        },
        {
          "internalType": "uint8",
          "name": "teamTokenWithdrawalTimes",
          "type": "uint8"
        },
        {
          "internalType": "uint256",
          "name": "lastRewardsWithdrawalTime",
          "type": "uint256"
        },
        {
          "internalType": "uint256",
          "name": "lastRewardsUpdateTime",
          "type": "uint256"
        },
        {
          "internalType": "bool",
          "name": "isTeamWallet",
          "type": "bool"
        },
        {
          "internalType": "bool",
          "name": "isWhitelisted",
          "type": "bool"
        },
        {
          "internalType": "bool",
          "name": "isBlacklisted",
          "type": "bool"
        }
      ],
      "stateMutability": "view",
      "type": "function"
    },
    {
      "inputs": [],
      "name": "whiteListerAddress",
      "outputs": [
        {
          "internalType": "address",
          "name": "",
          "type": "address"
        }
      ],
      "stateMutability": "view",
      "type": "function"
    },
    {
      "inputs": [],
      "name": "withdrawGrowthTokens",
      "outputs": [],
      "stateMutability": "nonpayable",
      "type": "function"
    },
    {
      "inputs": [],
      "name": "withdrawRewardTokens",
      "outputs": [],
      "stateMutability": "nonpayable",
      "type": "function"
    },
    {
      "inputs": [],
      "name": "withdrawTeamTokens",
      "outputs": [],
      "stateMutability": "nonpayable",
      "type": "function"
    },
    {
      "inputs": [
        {
          "internalType": "enum UpgradeableHYAXRewardsV2.FundingType",
          "name": "_fundingType",
          "type": "uint8"
        },
        {
          "internalType": "uint256",
          "name": "_amount",
          "type": "uint256"
        }
      ],
      "name": "withdrawTokensToBurn",
      "outputs": [],
      "stateMutability": "nonpayable",
      "type": "function"
    }
  ],
  "bytecode": "0x608060405234801561001057600080fd5b506147eb806100206000396000f3fe608060405234801561001057600080fd5b50600436106103835760003560e01c80638da2e27f116101de578063d7e57fda1161010f578063ef04fadb116100ad578063f8ff46c61161007c578063f8ff46c61461079f578063f972c027146107a8578063fafd7c20146107bb578063fd559526146107ce57600080fd5b8063ef04fadb14610759578063efce55871461076c578063f2fde38b1461077f578063f3793b9d1461079257600080fd5b8063e2ccbfe4116100e9578063e2ccbfe414610726578063e3682a5d14610739578063e774ce4314610743578063ebc8e2dd1461074c57600080fd5b8063d7e57fda14610700578063dcb7ff6b14610709578063de51d5671461071457600080fd5b8063b4ba9fd71161017c578063c1cc52b311610156578063c1cc52b3146106c4578063c4d66de8146106d1578063d356b49a146106e4578063d3946a8c146106ed57600080fd5b8063b4ba9fd71461068a578063b83608061461069e578063c07732a3146106b157600080fd5b8063953b7ef8116101b8578063953b7ef8146106535780639656cd8c1461065b5780639bae900214610664578063a868e9971461067757600080fd5b80638da2e27f146106305780638da5cb5b146106395780638e6d32df1461064157600080fd5b80635d70203b116102b85780636fce7873116102565780638456cb59116102305780638456cb591461052257806389b08f111461052a5780638a194d04146106035780638bb4dadd1461061657600080fd5b80636fce7873146104f4578063715018a61461050757806381f8ca1b1461050f57600080fd5b8063653c3a4711610292578063653c3a47146104b757806365699d28146104ca578063687a83f8146104e25780636e3ce4e1146104eb57600080fd5b80635d70203b1461049c5780636148c783146104a5578063647a5a78146104ae57600080fd5b80633ba10a56116103255780634c4dc42e116102ff5780634c4dc42e1461045e5780635493b30d1461046657806359aa8966146104795780635c975abb1461048457600080fd5b80633ba10a561461043b5780633f4ba83a1461044e57806342ecb4641461045657600080fd5b80631e6b4028116103615780631e6b4028146104035780632574cd9d14610415578063334c4cb31461042a578063370243dc1461043357600080fd5b8063031f6589146103885780631035fc09146103b85780631b28d63e146103cf575b600080fd5b60005461039b906001600160a01b031681565b6040516001600160a01b0390911681526020015b60405180910390f35b6103c1600b5481565b6040519081526020016103af565b60408051808201825260128152712732bb90333ab731ba34b7b71034b7102b1960711b602082015290516103af9190613e30565b6103c16a6342fd08f00f637800000081565b610428610423366004613e4a565b6107d7565b005b6103c1600f5481565b6104286108f6565b60015461039b906001600160a01b031681565b610428610c6e565b6103c1610c80565b610428610c99565b6103c16b04d8c55aefb8c05b5c00000081565b6103c16301e1338081565b61048c610fdd565b60405190151581526020016103af565b6103c160025481565b6103c160035481565b6103c1600a5481565b6104286104c5366004613e89565b610ff3565b60125461039b9061010090046001600160a01b031681565b6103c160055481565b6103c160115481565b610428610502366004613e89565b6110bf565b610428611186565b6103c16b03e09de2596099e2b000000081565b610428611198565b6105a1610538366004613e89565b601460205260009081526040902080546001820154600283015460038401546004850154600586015460068701546007880154600889015460099099015497989697959694959394929360ff92831693919281811691610100810482169162010000909104168c565b604080519c8d5260208d019b909b52998b019890985260608a0196909652608089019490945260a088019290925260ff1660c087015260e0860152610100850152151561012084015215156101408301521515610160820152610180016103af565b610428610611366004613eb2565b6111a8565b61061e6115fb565b60405160ff90911681526020016103af565b6103c160105481565b61039b6116d9565b6103c16af8277896582678ac00000081565b610428611707565b6103c160065481565b610428610672366004613e89565b611c55565b6103c16b07c13bc4b2c133c56000000081565b60135461061e90600160a01b900460ff1681565b6104286106ac366004613ef1565b611e48565b6104286106bf366004613ef1565b611f7d565b600c5461048c9060ff1681565b6104286106df366004613e89565b61212c565b6103c160045481565b6104286106fb366004613f28565b612395565b6103c160095481565b6103c1630784ce0081565b6103c16a7c13bc4b2c133c5600000081565b610428610734366004613f28565b6128e7565b6103c16207e90081565b6103c1600e5481565b60125461048c9060ff1681565b610428610767366004613f58565b612cfd565b61042861077a366004613fd7565b613336565b61042861078d366004613e89565b61364b565b60075461048c9060ff1681565b6103c160085481565b60135461039b906001600160a01b031681565b6104286107c9366004614043565b613738565b6103c1600d5481565b6107df613b2e565b60008160ff16116108375760405162461bcd60e51b815260206004820152601e60248201527f4d6178696d756d2062617463682073697a652063616e6e6f742062652030000060448201526064015b60405180910390fd5b60648160ff1611156108a15760405162461bcd60e51b815260206004820152602d60248201527f4d6178696d756d2062617463682073697a652063616e6e6f742062652067726560448201526c061746572207468616e2031303609c1b606482015260840161082e565b6013805460ff60a01b1916600160a01b60ff8416908102919091179091556040519081527f6f2bb1da32e5620d3a499f2a9b7e558ff34e34134e8db9a112ff5982ae969094906020015b60405180910390a150565b3360008181526014602052604090206009015460ff6101009091041615156001146109335760405162461bcd60e51b815260040161082e9061405f565b61093b613b60565b610943610fdd565b156109605760405162461bcd60e51b815260040161082e90614096565b3360009081526014602052604090206009015460ff61010090910416151560011461099d5760405162461bcd60e51b815260040161082e9061405f565b3360009081526014602052604090206009015462010000900460ff16156109d65760405162461bcd60e51b815260040161082e906140c2565b60125460ff166109f85760405162461bcd60e51b815260040161082e906140f9565b6b03e09de2596099e2b0000000600f5410610a635760405162461bcd60e51b815260206004820152602560248201527f416c6c2072657761726420746f6b656e732068617665206265656e2077697468604482015264323930bbb760d91b606482015260840161082e565b3360009081526014602052604090206003015480610ac35760405162461bcd60e51b815260206004820181905260248201527f4e6f207265776172647320617661696c61626c6520746f207769746864726177604482015260640161082e565b601054811115610ae55760405162461bcd60e51b815260040161082e90614157565b3360009081526014602052604081206004018054839290610b079084906141c3565b9091555050336000908152601460205260408120600381018290554260079091015560108054839290610b3b9084906141dc565b9250508190555080600f6000828254610b5491906141c3565b909155505060015460405163a9059cbb60e01b8152336004820152602481018390526001600160a01b039091169063a9059cbb906044016020604051808303816000875af1158015610baa573d6000803e3d6000fd5b505050506040513d601f19601f82011682018060405250810190610bce91906141ef565b610c1a5760405162461bcd60e51b815260206004820181905260248201527f4661696c656420746f207472616e736665722072657761726420746f6b656e73604482015260640161082e565b60408051338152602081018390527fd8a9090919355543d8c79690ceee3933c0bd4ffc742ae7f790d4bf44a043bb6c910160405180910390a150610c6b600160008051602061477683398151915255565b50565b610c76613b2e565b610c7e613bac565b565b610c9660346a7c13bc4b2c133c5600000061420c565b81565b610ca1613b2e565b610ca9613b60565b610cb1610fdd565b15610cce5760405162461bcd60e51b815260040161082e90614096565b60075460ff16610cf05760405162461bcd60e51b815260040161082e9061422e565b6301e13380600654610d0291906141c3565b421015610d6b5760405162461bcd60e51b815260206004820152603160248201527f43616e6e6f74207769746864726177206265666f7265203120796561722061666044820152701d195c88199d5b991a5b99c81cdd185c9d607a1b606482015260840161082e565b6b07c13bc4b2c133c56000000060035410610dd65760405162461bcd60e51b815260206004820152602560248201527f416c6c2067726f77746820746f6b656e732068617665206265656e2077697468604482015264323930bbb760d91b606482015260840161082e565b6301e13380600554610de891906141c3565b421015610e375760405162461bcd60e51b815260206004820152601f60248201527f43616e206f6e6c79207769746864726177206f6e636520706572207965617200604482015260640161082e565b6003546a6342fd08f00f6378000000906b07c13bc4b2c133c56000000090610e609083906141c3565b1115610e8257600354610e7f906b07c13bc4b2c133c5600000006141dc565b90505b8060036000828254610e9491906141c3565b925050819055508060046000828254610ead91906141dc565b9091555050426005556001546001600160a01b031663a9059cbb610ecf6116d9565b6040516001600160e01b031960e084901b1681526001600160a01b039091166004820152602481018490526044016020604051808303816000875af1158015610f1c573d6000803e3d6000fd5b505050506040513d601f19601f82011682018060405250810190610f4091906141ef565b610f8c5760405162461bcd60e51b815260206004820181905260248201527f4661696c656420746f207472616e736665722067726f77746820746f6b656e73604482015260640161082e565b60408051338152602081018390527fd0a5227bfa49cf178a8f7a87b90318ef05fc8330f469e0dccbe075784f426dbf910160405180910390a150610c7e600160008051602061477683398151915255565b6000805160206147568339815191525460ff1690565b610ffb613b2e565b6001600160a01b0381166110695760405162461bcd60e51b815260206004820152602f60248201527f5768697465206c697374657220616464726573732063616e6e6f74206265207460448201526e6865207a65726f206164647265737360881b606482015260840161082e565b60128054610100600160a81b0319166101006001600160a01b038416908102919091179091556040519081527f6bdab87cebf48ec7916084ab67bb3d8a596e0d1e3b5572596393f266d9ea3057906020016108eb565b6110c7613b2e565b6001600160a01b0381166111385760405162461bcd60e51b815260206004820152603260248201527f52657761726473207570646174657220616464726573732063616e6e6f7420626044820152716520746865207a65726f206164647265737360701b606482015260840161082e565b601380546001600160a01b0319166001600160a01b0383169081179091556040519081527f7946fb32eb39758c8854ba2c1d63c5ed4c7a95cdb748090128fa33a803a29894906020016108eb565b61118e613b2e565b610c7e6000613c06565b6111a0613b2e565b610c7e613c77565b6111b06116d9565b6001600160a01b0316336001600160a01b031614806111de575060125461010090046001600160a01b031633145b6111fa5760405162461bcd60e51b815260040161082e9061428c565b60408051338152326020820152600080516020614796833981519152910160405180910390a16001600160a01b038316600090815260146020526040902060090154610100900460ff16156112915760405162461bcd60e51b815260206004820152601d60248201527f57616c6c657420697320616c72656164792077686974656c6973746564000000604482015260640161082e565b6001600160a01b03831660009081526014602052604090206009015462010000900460ff16156112d35760405162461bcd60e51b815260040161082e906140c2565b6001600160a01b038316600090815260146020526040902060050154156113535760405162461bcd60e51b815260206004820152602e60248201527f57616c6c65742068617320616c7265616479206265656e20616464656420746f60448201526d081d1a19481dda1a5d195b1a5cdd60921b606482015260840161082e565b6001600160a01b03831660009081526014602052604081206009810180548515801562ffffff19909216919091176101001790915542600583015560068201805460ff1916905560078201839055600382018390556002820183905560049091019190915561150757600081116114405760405162461bcd60e51b8152602060048201526044602482018190527f5465616d2077616c6c657473206d757374206265206164646564207769746820908201527f61206879617820686f6c64696e6720616d6f756e7420677265617465722074686064820152630616e20360e41b608482015260a40161082e565b6b04d8c55aefb8c05b5c0000008111156114e05760405162461bcd60e51b815260206004820152605560248201527f5465616d2077616c6c657473206d75737420626520616464656420776974682060448201527f61206879617820686f6c64696e6720616d6f756e74206c657373207468616e2060648201527474686520746f74616c207465616d20746f6b656e7360581b608482015260a40161082e565b6001600160a01b0383166000908152601460205260409020600181018290558190556115a6565b80156115855760405162461bcd60e51b815260206004820152604160248201527f4e6f6e207465616d2077616c6c6574732063616e206f6e6c792062652061646460448201527f6564207769746820686f6c64696e6720616d6f756e7420657175616c20746f206064820152600360fc1b608482015260a40161082e565b6001600160a01b038316600090815260146020526040812060018101829055555b604080513381526001600160a01b0385166020820152831515818301526060810183905290517fc294e522ba20b0699fe578649971cefdfdc8d0e330db37d0437849f38b3960e69181900360800190a1505050565b600c5460009060ff166116605760405162461bcd60e51b815260206004820152602760248201527f5465616d20746f6b656e732066756e64696e6720686173206e6f7420737461726044820152661d1959081e595d60ca1b606482015260840161082e565b6000600b544261167091906141dc565b9050630f099c00811061168557600591505090565b630d286880811061169857600491505090565b630b47350081106116ab57600391505090565b630966018081106116be57600291505090565b630784ce0081106116d157600191505090565b600091505090565b7f9016d09d72d40fdae2fd8ceac6b6234c7706214fd39c1cd1e609a0528c199300546001600160a01b031690565b3360008181526014602052604090206009015460ff6101009091041615156001146117445760405162461bcd60e51b815260040161082e9061405f565b3360008181526014602052604090206009015462010000900460ff161561177d5760405162461bcd60e51b815260040161082e906140c2565b611785613b60565b61178d610fdd565b156117aa5760405162461bcd60e51b815260040161082e90614096565b3360009081526014602052604090206009015460ff1615156001146118375760405162461bcd60e51b815260206004820152603960248201527f4f6e6c79207465616d2077616c6c6574732063616e207769746864726177207460448201527f6f6b656e73207573696e6720746869732066756e6374696f6e00000000000000606482015260840161082e565b600c5460ff166118595760405162461bcd60e51b815260040161082e906142e9565b3360009081526014602052604090206005015461187b90630784ce00906141c3565b4210156118fa5760405162461bcd60e51b815260206004820152604160248201527f43616e6e6f74207769746864726177206265666f72652034207965617273206160448201527f66746572206265696e6720616464656420746f207468652077686974656c69736064820152601d60fa1b608482015260a40161082e565b6b04d8c55aefb8c05b5c000000600954106119635760405162461bcd60e51b815260206004820152602360248201527f416c6c207465616d20746f6b656e732068617665206265656e2077697468647260448201526230bbb760e91b606482015260840161082e565b336000908152601460205260409020546119ca5760405162461bcd60e51b815260206004820152602260248201527f4e6f206879617820686f6c64696e6720616d6f756e7420746f20776974686472604482015261617760f01b606482015260840161082e565b6119d26115fb565b3360009081526014602052604090206006015460ff918216911610611a4d5760405162461bcd60e51b815260206004820152602b60248201527f43616e206f6e6c79207769746864726177207465616d20746f6b656e73206f6e60448201526a31b2903832b9103cb2b0b960a91b606482015260840161082e565b33600090815260146020526040812060010154611a6c9060059061420c565b90506b04d8c55aefb8c05b5c00000081600954611a8991906141c3565b1115611aab57600954611aa8906b04d8c55aefb8c05b5c0000006141dc565b90505b3360009081526014602052604081208054839290611aca9084906141dc565b925050819055508060096000828254611ae391906141c3565b9250508190555080600a6000828254611afc91906141dc565b9091555050336000908152601460205260408120600601805460ff1691611b2283614346565b825460ff9182166101009390930a92830291909202199091161790555060015460405163a9059cbb60e01b8152336004820152602481018390526001600160a01b039091169063a9059cbb906044016020604051808303816000875af1158015611b90573d6000803e3d6000fd5b505050506040513d601f19601f82011682018060405250810190611bb491906141ef565b611c005760405162461bcd60e51b815260206004820152601e60248201527f4661696c656420746f207472616e73666572207465616d20746f6b656e730000604482015260640161082e565b60408051338152602081018390527f1e63f692f0a30c3957ac289d6a44616bd119f5502eba5ae440f3158cc2c2d291910160405180910390a150611c51600160008051602061477683398151915255565b5050565b611c5d613b2e565b6001600160a01b038116611cc95760405162461bcd60e51b815260206004820152602d60248201527f4879617820746f6b656e20616464726573732063616e6e6f742062652074686560448201526c207a65726f206164647265737360981b606482015260840161082e565b60405163090b282b60e31b6020820152819060240160405160208183030381529060405280519060200120816001600160a01b03166395d89b416040518163ffffffff1660e01b8152600401600060405180830381865afa158015611d32573d6000803e3d6000fd5b505050506040513d6000823e601f3d908101601f19168201604052611d5a91908101906143a8565b604051602001611d6a9190614440565b6040516020818303038152906040528051906020012014611de65760405162461bcd60e51b815260206004820152603060248201527f546f6b656e2061646472657373206d75737420626520612076616c696420485960448201526f415820746f6b656e206164647265737360801b606482015260840161082e565b600080546001600160a01b0384166001600160a01b0319918216811790925560018054909116821790556040519081527f6b4289497c1ee1251f23ffec949802440dac6fc64d4bd0b4efb97a5530058295906020015b60405180910390a15050565b611e506116d9565b6001600160a01b0316336001600160a01b03161480611e7e575060125461010090046001600160a01b031633145b611e9a5760405162461bcd60e51b815260040161082e9061428c565b60408051338152326020820152600080516020614796833981519152910160405180910390a16001600160a01b0382166000908152601460205260409020600901548115156201000090910460ff16151503611f085760405162461bcd60e51b815260040161082e9061445c565b6001600160a01b038216600081815260146020908152604091829020600901805462ff000019166201000086151590810291909117909155825133815291820193909352908101919091527f89a9c56967d4535d54c90bffd7cbd09f6d2a4c8e26b9e7f033f199d144e12b4e90606001611e3c565b611f856116d9565b6001600160a01b0316336001600160a01b03161480611fb3575060125461010090046001600160a01b031633145b611fcf5760405162461bcd60e51b815260040161082e9061428c565b60408051338152326020820152600080516020614796833981519152910160405180910390a16001600160a01b03821660009081526014602052604090206009015481151561010090910460ff1615150361203c5760405162461bcd60e51b815260040161082e9061445c565b6001600160a01b03821660009081526014602052604081206005015490036120b95760405162461bcd60e51b815260206004820152602a60248201527f57616c6c657420686173206e6f74206265656e20616464656420746f20746865604482015269081dda1a5d195b1a5cdd60b21b606482015260840161082e565b6001600160a01b038216600081815260146020908152604091829020600901805461ff00191661010086151590810291909117909155825133815291820193909352908101919091527f70bbee4e66e3fd40f7da099410cfd723ed4a0b4fec11f6cc968e850db827a88b90606001611e3c565b7ff0c57e16840df040f15088dc2f81fe391c3923bec73e23a9662efc9c229c6a008054600160401b810460ff16159067ffffffffffffffff166000811580156121725750825b905060008267ffffffffffffffff16600114801561218f5750303b155b90508115801561219d575080155b156121bb5760405163f92ee8a960e01b815260040160405180910390fd5b845467ffffffffffffffff1916600117855583156121e557845460ff60401b1916600160401b1785555b6121ee33613cc0565b6121f6613cd1565b6121fe613ce1565b600080546001600160a01b03199081166001600160a01b03891690811783556001805490921681179091556013805460ff60a01b1916601960a21b1790556040805163090b282b60e31b6020808301919091528251808303600401815260248301808552815191909201206395d89b4160e01b909152915191936395d89b41926028808401938290030181865afa15801561229d573d6000803e3d6000fd5b505050506040513d6000823e601f3d908101601f191682016040526122c591908101906143a8565b6040516020016122d59190614440565b60405160208183030381529060405280519060200120146123385760405162461bcd60e51b815260206004820152601f60248201527f4879617820746f6b656e2061646472657373206973206e6f742076616c696400604482015260640161082e565b600060028190556008819055600d55831561238d57845460ff60401b19168555604051600181527fc7f505b2f371ae2175ee4913f4499e1f2633a7b5936321eed1cdaeb6115181d29060200160405180910390a15b505050505050565b61239d613b2e565b6123a5613b60565b6123ad610fdd565b156123ca5760405162461bcd60e51b815260040161082e90614096565b60008260028111156123de576123de6144aa565b14806123fb575060018260028111156123f9576123f96144aa565b145b8061241757506002826002811115612415576124156144aa565b145b61245a5760405162461bcd60e51b8152602060048201526014602482015273496e76616c69642066756e64696e67207479706560601b604482015260640161082e565b600081116124aa5760405162461bcd60e51b815260206004820152601d60248201527f416d6f756e74206d7573742062652067726561746572207468616e2030000000604482015260640161082e565b6001546040516323b872dd60e01b8152336004820152306024820152604481018390526001600160a01b03909116906323b872dd906064016020604051808303816000875af1158015612501573d6000803e3d6000fd5b505050506040513d601f19601f8201168201806040525081019061252591906141ef565b61258b5760405162461bcd60e51b815260206004820152603160248201527f54686572652077617320616e206572726f72206f6e20726563656976696e672060448201527074686520746f6b656e2066756e64696e6760781b606482015260840161082e565b600082600281111561259f5761259f6144aa565b03612695576b07c13bc4b2c133c560000000816002546125bf91906141c3565b111561263f5760405162461bcd60e51b815260206004820152604360248201527f416d6f756e7420746f2066756e642069732067726561746572207468616e207460448201527f686520746f74616c20696e74656e74656420666f722067726f77746820746f6b606482015262656e7360e81b608482015260a40161082e565b806002600082825461265191906141c3565b92505081905550806004600082825461266a91906141c3565b909155505060075460ff16612690576007805460ff191660011790554260068190556005555b612897565b60018260028111156126a9576126a96144aa565b03612797576b04d8c55aefb8c05b5c000000816008546126c991906141c3565b11156127475760405162461bcd60e51b815260206004820152604160248201527f416d6f756e7420746f2066756e642069732067726561746572207468616e207460448201527f686520746f74616c20696e74656e74656420666f72207465616d20746f6b656e6064820152607360f81b608482015260a40161082e565b806008600082825461275991906141c3565b9250508190555080600a600082825461277291906141c3565b9091555050600c5460ff1661269057600c805460ff1916600117905542600b55612897565b60028260028111156127ab576127ab6144aa565b03612897576b03e09de2596099e2b000000081600d546127cb91906141c3565b111561284b5760405162461bcd60e51b815260206004820152604360248201527f416d6f756e7420746f2066756e642069732067726561746572207468616e207460448201527f686520746f74616c20696e74656e74656420666f722072657761726420746f6b606482015262656e7360e81b608482015260a40161082e565b80600d600082825461285d91906141c3565b92505081905550806010600082825461287691906141c3565b909155505060125460ff16612897576012805460ff19166001179055426011555b7fbc0b9ecc68ec48681b8f5718fa26b9ce02021220455be5f5837a944140a80ea382826040516128c89291906144c0565b60405180910390a1611c51600160008051602061477683398151915255565b6128ef613b2e565b6128f7613b60565b6128ff610fdd565b1561291c5760405162461bcd60e51b815260040161082e90614096565b6000826002811115612930576129306144aa565b148061294d5750600182600281111561294b5761294b6144aa565b145b8061296957506002826002811115612967576129676144aa565b145b6129ac5760405162461bcd60e51b8152602060048201526014602482015273496e76616c69642066756e64696e67207479706560601b604482015260640161082e565b600081116129fc5760405162461bcd60e51b815260206004820152601d60248201527f416d6f756e74206d7573742062652067726561746572207468616e2030000000604482015260640161082e565b6000826002811115612a1057612a106144aa565b03612ac55760075460ff16612a375760405162461bcd60e51b815260040161082e9061422e565b600454811115612aa85760405162461bcd60e51b815260206004820152603660248201527f496e73756666696369656e742067726f77746820746f6b656e7320696e2074686044820152756520636f6e747261637420746f20776974686472617760501b606482015260840161082e565b8060046000828254612aba91906141dc565b90915550612bf69050565b6001826002811115612ad957612ad96144aa565b03612b8157600c5460ff16612b005760405162461bcd60e51b815260040161082e906142e9565b600a54811115612b6f5760405162461bcd60e51b815260206004820152603460248201527f496e73756666696369656e74207465616d20746f6b656e7320696e2074686520604482015273636f6e747261637420746f20776974686472617760601b606482015260840161082e565b80600a6000828254612aba91906141dc565b6002826002811115612b9557612b956144aa565b03612bf65760125460ff16612bbc5760405162461bcd60e51b815260040161082e906140f9565b601054811115612bde5760405162461bcd60e51b815260040161082e90614157565b8060106000828254612bf091906141dc565b90915550505b6001546001600160a01b031663a9059cbb612c0f6116d9565b6040516001600160e01b031960e084901b1681526001600160a01b039091166004820152602481018490526044016020604051808303816000875af1158015612c5c573d6000803e3d6000fd5b505050506040513d601f19601f82011682018060405250810190612c8091906141ef565b612ccc5760405162461bcd60e51b815260206004820181905260248201527f4661696c656420746f207472616e736665722067726f77746820746f6b656e73604482015260640161082e565b7fb9db6f85cd4e97884845cfb10d7fbba4d9cd4b9516cf2795b4c50cd886875bab82826040516128c89291906144c0565b612d05613b2e565b612d0d613b60565b600c5460ff16612d855760405162461bcd60e51b815260206004820152603d60248201527f5465616d20746f6b656e732066756e64696e6720686173206e6f74207374617260448201527f746564207965742c206e6f20746f6b656e7320746f207265636f766572000000606482015260840161082e565b6001600160a01b03821660009081526014602052604090206009015460ff161515600114612e055760405162461bcd60e51b815260206004820152602760248201527f4f6c642077616c6c65742061646472657373206973206e6f742061207465616d604482015266081dd85b1b195d60ca1b606482015260840161082e565b6001600160a01b03821660009081526014602052604090206009015460ff610100909104161515600114612e955760405162461bcd60e51b815260206004820152603160248201527f4f6c64207465616d206d656d6265722077616c6c6574206164647265737320696044820152701cc81b9bdd081dda1a5d195b1a5cdd1959607a1b606482015260840161082e565b6001600160a01b03821660009081526014602052604090206009015462010000900460ff1615612f1d5760405162461bcd60e51b815260206004820152602d60248201527f4f6c64207465616d206d656d6265722077616c6c65742061646472657373206960448201526c1cc8189b1858dadb1a5cdd1959609a1b606482015260840161082e565b6001600160a01b038116612f995760405162461bcd60e51b815260206004820152603960248201527f4e6577207465616d206d656d6265722077616c6c65742061646472657373206360448201527f616e6e6f7420626520746865207a65726f206164647265737300000000000000606482015260840161082e565b816001600160a01b0316816001600160a01b0316036130465760405162461bcd60e51b815260206004820152605760248201527f4e6577207465616d206d656d6265722077616c6c65742061646472657373206360448201527f616e6e6f74206265207468652073616d6520617320746865206f6c642074656160648201527f6d206d656d6265722077616c6c65742061646472657373000000000000000000608482015260a40161082e565b6001600160a01b038116600090815260146020526040902060090154610100900460ff16156130d55760405162461bcd60e51b815260206004820152603560248201527f4e6577207465616d206d656d6265722077616c6c6574206164647265737320696044820152741cc8185b1c9958591e481dda1a5d195b1a5cdd1959605a1b606482015260840161082e565b6001600160a01b03811660009081526014602052604090206009015460ff16156131675760405162461bcd60e51b815260206004820152603760248201527f4e6577207465616d206d656d6265722077616c6c65742061646472657373206960448201527f7320616c72656164792061207465616d2077616c6c6574000000000000000000606482015260840161082e565b6001600160a01b03811660009081526014602052604090206009015462010000900460ff16156131ef5760405162461bcd60e51b815260206004820152602d60248201527f4e6577207465616d206d656d6265722077616c6c65742061646472657373206960448201526c1cc8189b1858dadb1a5cdd1959609a1b606482015260840161082e565b6001600160a01b038082166000818152601460205260408082206009808201805462ffffff199081166101011790915595881684528284206001818101805491850191909155815484556008808301805491860191909155600780840180549187019190915560028481018054918801919091556003808601805491890191825560048088018054918b0191909155600580890154908b015560068089018054918c01805460ff1990811660ff949094169390931790559989018054909f166201000017909e55958b9055958a905592899055908890558790559186905585905581549096169055929091529054915490517f90a2fd2c6feb7c2e96bd2d1c01fdbaa162e21a0f4f3d1d0ced797a26068989bb926128c8928692869291906001600160a01b0394851681529290931660208301526040820152606081019190915260800190565b61333e6116d9565b6001600160a01b0316336001600160a01b0316148061336757506013546001600160a01b031633145b8061337157503330145b61338d5760405162461bcd60e51b815260040161082e906144ec565b60408051338152326020820152600080516020614796833981519152910160405180910390a16133bb613b60565b60125460ff166133dd5760405162461bcd60e51b815260040161082e90614563565b601354600160a01b900460ff168311156134455760405162461bcd60e51b8152602060048201526024808201527f42617463682073697a6520657863656564732074686520646566696e6564206c6044820152631a5b5a5d60e21b606482015260840161082e565b8281146134945760405162461bcd60e51b815260206004820152601860248201527f4172726179206c656e67746873206d757374206d617463680000000000000000604482015260640161082e565b60005b838110156135ee573063fafd7c208686848181106134b7576134b76145c0565b90506020020160208101906134cc9190613e89565b8585858181106134de576134de6145c0565b6040516001600160e01b031960e087901b1681526001600160a01b0390941660048501526020029190910135602483015250604401600060405180830381600087803b15801561352d57600080fd5b505af192505050801561353e575060015b6135dc5761354a6145d6565b806308c379a0036135d0575061355e6145f2565b8061356957506135d2565b7f80c7a907fb61ff886445c2feb367d7b196637d154438ec7337eb57021ef5f5a13387878581811061359d5761359d6145c0565b90506020020160208101906135b29190613e89565b836040516135c29392919061467c565b60405180910390a1506135dc565b505b3d6000803e3d6000fd5b806135e6816146b1565b915050613497565b507f920309e6c1df22e82236fc02a7d23e8ec36b85a821fc790c20a0e1497ce227dc33858585856040516136269594939291906146ca565b60405180910390a1613645600160008051602061477683398151915255565b50505050565b613653613b2e565b6001600160a01b0381166136b85760405162461bcd60e51b815260206004820152602660248201527f4f776e61626c653a206e6577206f776e657220697320746865207a65726f206160448201526564647265737360d01b606482015260840161082e565b306001600160a01b0382160361372f5760405162461bcd60e51b815260206004820152603660248201527f4f776e61626c653a206e6577206f776e65722063616e6e6f74206265207468656044820152752073616d6520636f6e7472616374206164647265737360501b606482015260840161082e565b610c6b81613c06565b6137406116d9565b6001600160a01b0316336001600160a01b0316148061376957506013546001600160a01b031633145b8061377357503330145b61378f5760405162461bcd60e51b815260040161082e906144ec565b60408051338152326020820152600080516020614796833981519152910160405180910390a160125460ff166137d75760405162461bcd60e51b815260040161082e90614563565b6001600160a01b03821660009081526014602052604090206009015460ff61010090910416151560011461381d5760405162461bcd60e51b815260040161082e9061405f565b6001600160a01b03821660009081526014602052604090206009015462010000900460ff161561385f5760405162461bcd60e51b815260040161082e906140c2565b6001600160a01b038216600090815260146020526040902060080154613889906207e900906141c3565b4210156138eb5760405162461bcd60e51b815260206004820152602a60248201527f546f6f20736f6f6e20746f20757064617465207265776172647320666f7220746044820152691a1a5cc81dd85b1b195d60b21b606482015260840161082e565b61390160346a7c13bc4b2c133c5600000061420c565b811115613978576040805162461bcd60e51b81526020600482015260248101919091527f412073696e676c652077616c6c65742063616e6e6f742068617665207265776160448201527f72647320686967686572207468616e20746865207765656b6c79206c696d6974606482015260840161082e565b6010548111156139e65760405162461bcd60e51b815260206004820152603360248201527f496e73756666696369656e742072657761726420746f6b656e7320746f2064696044820152727374726962757465206173207265776172647360681b606482015260840161082e565b6b03e09de2596099e2b000000081600e54613a0191906141c3565b1115613a6b5760405162461bcd60e51b815260206004820152603360248201527f416c6c207468652072657761726420746f6b656e732068617665206265656e20604482015272185b1c9958591e48191a5cdd1c9a589d5d1959606a1b606482015260840161082e565b80600e6000828254613a7d91906141c3565b90915550506001600160a01b03821660009081526014602052604081204260088201556002018054839290613ab39084906141c3565b90915550506001600160a01b03821660009081526014602052604081206003018054839290613ae39084906141c3565b9091555050604080513381526001600160a01b03841660208201529081018290527f74dd95429fe6255fb4698aa67d02afb4ebcf261c1883a417108c7d6c0abed4b090606001611e3c565b33613b376116d9565b6001600160a01b031614610c7e5760405163118cdaa760e01b815233600482015260240161082e565b600080516020614776833981519152805460011901613b9257604051633ee5aeb560e01b815260040160405180910390fd5b60029055565b600160008051602061477683398151915255565b613bb4613cf1565b600080516020614756833981519152805460ff191681557f5db9ee0a495bf2e6ff9c91a7834c1ba4fdd244a5e8aa4e537bd38aeae4b073aa335b6040516001600160a01b0390911681526020016108eb565b7f9016d09d72d40fdae2fd8ceac6b6234c7706214fd39c1cd1e609a0528c19930080546001600160a01b031981166001600160a01b03848116918217845560405192169182907f8be0079c531659141344cd1fd0a4f28419497f9722a3daafe3b4186f6b6457e090600090a3505050565b613c7f613d16565b600080516020614756833981519152805460ff191660011781557f62e78cea01bee320cd4e420270b5ea74000d11b0c9f74754ebdbfc544b05a25833613bee565b613cc8613d3c565b610c6b81613d85565b613cd9613d3c565b610c7e613db7565b613ce9613d3c565b610c7e613dbf565b613cf9610fdd565b610c7e57604051638dfc202b60e01b815260040160405180910390fd5b613d1e610fdd565b15610c7e5760405163d93c066560e01b815260040160405180910390fd5b7ff0c57e16840df040f15088dc2f81fe391c3923bec73e23a9662efc9c229c6a0054600160401b900460ff16610c7e57604051631afcd79f60e31b815260040160405180910390fd5b613d8d613d3c565b6001600160a01b03811661372f57604051631e4fbdf760e01b81526000600482015260240161082e565b613b98613d3c565b613dc7613d3c565b600080516020614756833981519152805460ff19169055565b60005b83811015613dfb578181015183820152602001613de3565b50506000910152565b60008151808452613e1c816020860160208601613de0565b601f01601f19169290920160200192915050565b602081526000613e436020830184613e04565b9392505050565b600060208284031215613e5c57600080fd5b813560ff81168114613e4357600080fd5b80356001600160a01b0381168114613e8457600080fd5b919050565b600060208284031215613e9b57600080fd5b613e4382613e6d565b8015158114610c6b57600080fd5b600080600060608486031215613ec757600080fd5b613ed084613e6d565b92506020840135613ee081613ea4565b929592945050506040919091013590565b60008060408385031215613f0457600080fd5b613f0d83613e6d565b91506020830135613f1d81613ea4565b809150509250929050565b60008060408385031215613f3b57600080fd5b823560038110613f4a57600080fd5b946020939093013593505050565b60008060408385031215613f6b57600080fd5b613f7483613e6d565b9150613f8260208401613e6d565b90509250929050565b60008083601f840112613f9d57600080fd5b50813567ffffffffffffffff811115613fb557600080fd5b6020830191508360208260051b8501011115613fd057600080fd5b9250929050565b60008060008060408587031215613fed57600080fd5b843567ffffffffffffffff8082111561400557600080fd5b61401188838901613f8b565b9096509450602087013591508082111561402a57600080fd5b5061403787828801613f8b565b95989497509550505050565b6000806040838503121561405657600080fd5b613f4a83613e6d565b60208082526019908201527f57616c6c6574206973206e6f742077686974656c697374656400000000000000604082015260600190565b60208082526012908201527110dbdb9d1c9858dd081a5cc81c185d5cd95960721b604082015260600190565b6020808252601b908201527f57616c6c657420686173206265656e20626c61636b6c69737465640000000000604082015260600190565b602080825260409082018190527f52657761726420746f6b656e732066756e64696e6720686173206e6f74207374908201527f6172746564207965742c206e6f20746f6b656e7320746f207769746864726177606082015260800190565b60208082526036908201527f496e73756666696369656e742072657761726420746f6b656e7320696e2074686040820152756520636f6e747261637420746f20776974686472617760501b606082015260800190565b634e487b7160e01b600052601160045260246000fd5b808201808211156141d6576141d66141ad565b92915050565b818103818111156141d6576141d66141ad565b60006020828403121561420157600080fd5b8151613e4381613ea4565b60008261422957634e487b7160e01b600052601260045260246000fd5b500490565b602080825260409082018190527f47726f77746820746f6b656e732066756e64696e6720686173206e6f74207374908201527f6172746564207965742c206e6f20746f6b656e7320746f207769746864726177606082015260800190565b60208082526037908201527f46756e6374696f6e207265736572766564206f6e6c7920666f7220746865207760408201527f686974656c6973746572206f7220746865206f776e6572000000000000000000606082015260800190565b6020808252603e908201527f5465616d20746f6b656e732066756e64696e6720686173206e6f74207374617260408201527f746564207965742c206e6f20746f6b656e7320746f2077697468647261770000606082015260800190565b600060ff821660ff810361435c5761435c6141ad565b60010192915050565b634e487b7160e01b600052604160045260246000fd5b601f8201601f1916810167ffffffffffffffff811182821017156143a1576143a1614365565b6040525050565b6000602082840312156143ba57600080fd5b815167ffffffffffffffff808211156143d257600080fd5b818401915084601f8301126143e657600080fd5b8151818111156143f8576143f8614365565b6040519150614411601f8201601f19166020018361437b565b80825285602082850101111561442657600080fd5b614437816020840160208601613de0565b50949350505050565b60008251614452818460208701613de0565b9190910192915050565b6020808252602e908201527f57616c6c65742068617320616c7265616479206265656e20757064617465642060408201526d746f20746861742073746174757360901b606082015260800190565b634e487b7160e01b600052602160045260246000fd5b60408101600384106144e257634e487b7160e01b600052602160045260246000fd5b9281526020015290565b60208082526051908201527f46756e6374696f6e207265736572766564206f6e6c7920666f7220746865207260408201527f65776172647320757064617465722c20746865206f776e65722c206f72207468606082015270329031b7b73a3930b1ba1034ba39b2b63360791b608082015260a00190565b6020808252603e908201527f52657761726420746f6b656e732066756e64696e6720686173206e6f7420737460408201527f6172746564207965742c206e6f20746f6b656e7320746f207570646174650000606082015260800190565b634e487b7160e01b600052603260045260246000fd5b600060033d11156145ef5760046000803e5060005160e01c5b90565b600060443d10156146005790565b6040516003193d81016004833e81513d67ffffffffffffffff816024840111818411171561463057505050505090565b82850191508151818111156146485750505050505090565b843d87010160208285010111156146625750505050505090565b6146716020828601018761437b565b509095945050505050565b6001600160a01b038481168252831660208201526060604082018190526000906146a890830184613e04565b95945050505050565b6000600182016146c3576146c36141ad565b5060010190565b6001600160a01b03868116825260606020808401829052908301869052600091879160808501845b89811015614717578361470486613e6d565b16825293820193908201906001016146f2565b5085810360408701528681526001600160fb1b0387111561473757600080fd5b8660051b93508388838301379092019091019897505050505050505056fecd5ed15c6e187e77e9aee88184c21f4f2182ab5827cb3b7e07fbedcd63f033009b779b17422d0df92223018b32b4d1fa46e071723d6817e2486d003becc55f00f572c1a3c9723ee4a9544fdd9299fbdea3409f4e29a51ae34e1b58363450ba11a264697066735822122001eb30a5381fb7f23ef64caa9c9670270744776007cc009fed4c24183655adee64736f6c63430008140033",
  "linkReferences": {},
  "deployedLinkReferences": {}
}